Component: ARM Compiler 5.06 update 2 (build 183) Tool: armlink [4d35b7]

==============================================================================

Section Cross References

    system_m1130.o(i.Get_SystemTick) refers to system_m1130.o(.data) for .data
    system_m1130.o(i.SystemHeart_Init) refers to m1130_tim.o(i.TIM_TimeBaseStructInit) for TIM_TimeBaseStructInit
    system_m1130.o(i.SystemHeart_Init) refers to m1130_tim.o(i.TIM_TimeBaseInit) for TIM_TimeBaseInit
    system_m1130.o(i.SystemHeart_Init) refers to m1130_tim.o(i.TIM_SelectOutputTrigger) for TIM_SelectOutputTrigger
    system_m1130.o(i.SystemHeart_Init) refers to m1130_tim.o(i.TIM_ClearITPendingBit) for TIM_ClearITPendingBit
    system_m1130.o(i.SystemHeart_Init) refers to m1130_tim.o(i.TIM_ITConfig) for TIM_ITConfig
    system_m1130.o(i.SystemHeart_Init) refers to misc.o(i.NVIC_Init) for NVIC_Init
    system_m1130.o(i.SystemHeart_Init) refers to m1130_tim.o(i.TIM_Cmd) for TIM_Cmd
    system_m1130.o(i.SystemInit) refers to system_m1130.o(i.delay) for delay
    startup_m1130.o(RESET) refers to startup_m1130.o(STACK) for __initial_sp
    startup_m1130.o(RESET) refers to startup_m1130.o(.text) for Reset_Handler
    startup_m1130.o(RESET) refers to m1130_it.o(i.NMI_Handler) for NMI_Handler
    startup_m1130.o(RESET) refers to m1130_it.o(i.HardFault_Handler) for HardFault_Handler
    startup_m1130.o(RESET) refers to m1130_it.o(i.SVC_Handler) for SVC_Handler
    startup_m1130.o(RESET) refers to m1130_it.o(i.PendSV_Handler) for PendSV_Handler
    startup_m1130.o(RESET) refers to m1130_it.o(i.SysTick_Handler) for SysTick_Handler
    startup_m1130.o(RESET) refers to m1130_it.o(i.TIM16_IRQHandler) for TIM16_IRQHandler
    startup_m1130.o(.text) refers to system_m1130.o(i.SystemInit) for SystemInit
==============================================================================

Removing Unused input sections from the image.

    Removing system_m1130.o(.rev16_text), (4 bytes).
    Removing system_m1130.o(.revsh_text), (4 bytes).
    Removing startup_m1130.o(HEAP), (128 bytes).
    Removing m1130_gpio.o(.rev16_text), (4 bytes).
    Removing m1130_gpio.o(.revsh_text), (4 bytes).
    Removing m1130_gpio.o(i.GPIO_DataMask), (28 bytes).
    Removing m1130_gpio.o(i.GPIO_DataUnmask), (28 bytes).
    Removing m1130_gpio.o(i.GPIO_EdgeITClear), (4 bytes).
    Removing m1130_gpio.o(i.GPIO_EdgeITEnable), (30 bytes).
    Removing m1130_gpio.o(i.GPIO_GetMaskITStatus), (14 bytes).
    Removing m1130_gpio.o(i.GPIO_GetOriginalITStatus), (14 bytes).
    Removing m1130_gpio.o(i.GPIO_Init), (144 bytes).
    Removing m1130_gpio.o(i.GPIO_LevelITEnable), (22 bytes).
    Removing m1130_gpio.o(i.GPIO_MaskIT), (4 bytes).
    Removing m1130_gpio.o(i.GPIO_PinLockConfig), (28 bytes).
    Removing m1130_gpio.o(i.GPIO_ReadInputData), (4 bytes).
    Removing m1130_gpio.o(i.GPIO_ReadInputDataBit), (14 bytes).
    Removing m1130_gpio.o(i.GPIO_ReadOutputData), (4 bytes).
==============================================================================

Image Symbol Table

    Local Symbols

    Symbol Name                              Value     Ov Type        Size  Object(Section)

    RESET                                    0x00000000   Section      172  startup_m1130.o(RESET)
    ../clib/microlib/division.c              0x00000000   Number         0  uldiv.o ABSOLUTE
    ../clib/microlib/division.c              0x00000000   Number         0  uidiv.o ABSOLUTE
    ../clib/microlib/init/entry.s            0x00000000   Number         0  entry9a.o ABSOLUTE
    ../clib/microlib/init/entry.s            0x00000000   Number         0  entry.o ABSOLUTE
    ../clib/microlib/init/entry.s            0x00000000   Number         0  entry8b.o ABSOLUTE
    ../clib/microlib/init/entry.s            0x00000000   Number         0  entry9b.o ABSOLUTE
    ../clib/microlib/init/entry.s            0x00000000   Number         0  entry10a.o ABSOLUTE
    ../clib/microlib/init/entry.s            0x00000000   Number         0  entry10b.o ABSOLUTE
    ../clib/microlib/init/entry.s            0x00000000   Number         0  entry2.o ABSOLUTE
    ../clib/microlib/init/entry.s            0x00000000   Number         0  entry5.o ABSOLUTE
    ../clib/microlib/init/entry.s            0x00000000   Number         0  entry11a.o ABSOLUTE
    ../clib/microlib/init/entry.s            0x00000000   Number         0  entry7b.o ABSOLUTE
    ../clib/microlib/init/entry.s            0x00000000   Number         0  entry8a.o ABSOLUTE
    ../clib/microlib/init/entry.s            0x00000000   Number         0  entry7a.o ABSOLUTE
    ../clib/microlib/init/entry.s            0x00000000   Number         0  entry11b.o ABSOLUTE
    ../clib/microlib/longlong.c              0x00000000   Number         0  llshl.o ABSOLUTE
    ../clib/microlib/longlong.c              0x00000000   Number         0  llushr.o ABSOLUTE
    ../clib/microlib/longlong.c              0x00000000   Number         0  llsshr.o ABSOLUTE
    ../clib/microlib/printf/printf.c         0x00000000   Number         0  printf3.o ABSOLUTE
    ../clib/microlib/printf/printf.c         0x00000000   Number         0  printf0.o ABSOLUTE
    ../clib/microlib/printf/printf.c         0x00000000   Number         0  printf1.o ABSOLUTE
    ../clib/microlib/printf/printf.c         0x00000000   Number         0  printf2.o ABSOLUTE
    ../clib/microlib/printf/printf.c         0x00000000   Number         0  printf5.o ABSOLUTE
    ../clib/microlib/printf/printf.c         0x00000000   Number         0  printf6.o ABSOLUTE
    ../clib/microlib/printf/printf.c         0x00000000   Number         0  printf4.o ABSOLUTE
    ../clib/microlib/printf/printf.c         0x00000000   Number         0  printf7.o ABSOLUTE
    ../clib/microlib/printf/printf.c         0x00000000   Number         0  printf8.o ABSOLUTE
    ../clib/microlib/printf/printf.c         0x00000000   Number         0  printfa.o ABSOLUTE
    ../clib/microlib/printf/printf.c         0x00000000   Number         0  printfb.o ABSOLUTE
    ../clib/microlib/printf/stubs.s          0x00000000   Number         0  stubs.o ABSOLUTE
    ../clib/microlib/stdio/streams.c         0x00000000   Number         0  stdout.o ABSOLUTE
    ../clib/microlib/stubs.s                 0x00000000   Number         0  iusefp.o ABSOLUTE
    ../clib/microlib/unhosted.c              0x00000000   Number         0  uread4.o ABSOLUTE
    ../fplib/microlib/fpadd.c                0x00000000   Number         0  dadd.o ABSOLUTE
    ../fplib/microlib/fpdiv.c                0x00000000   Number         0  ddiv.o ABSOLUTE
    ../fplib/microlib/fpepilogue.c           0x00000000   Number         0  depilogue.o ABSOLUTE
    ../fplib/microlib/fpfix.c                0x00000000   Number         0  dfixul.o ABSOLUTE
    ../fplib/microlib/fpmul.c                0x00000000   Number         0  dmul.o ABSOLUTE
    ..\..\..\Libraries\CMSIS\Device\ALPOS\M1130\Source\Templates\arm\startup_m1130.s 0x00000000   Number         0  startup_m1130.o ABSOLUTE
    ..\..\..\Libraries\CMSIS\Device\ALPOS\M1130\Source\Templates\system_m1130.c 0x00000000   Number         0  system_m1130.o ABSOLUTE
    ..\..\..\Libraries\M1130_StdPeriph_Driver\src\m1130_eval_qspi.c 0x00000000   Number         0  m1130_eval_qspi.o ABSOLUTE
    ..\..\..\Libraries\M1130_StdPeriph_Driver\src\m1130_gpio.c 0x00000000   Number         0  m1130_gpio.o ABSOLUTE
    ..\..\..\Libraries\M1130_StdPeriph_Driver\src\m1130_otp.c 0x00000000   Number         0  m1130_otp.o ABSOLUTE
    ..\..\..\Libraries\M1130_StdPeriph_Driver\src\m1130_qspi.c 0x00000000   Number         0  m1130_qspi.o ABSOLUTE
    ..\..\..\Libraries\M1130_StdPeriph_Driver\src\m1130_rcc.c 0x00000000   Number         0  m1130_rcc.o ABSOLUTE
    ..\..\..\Libraries\M1130_StdPeriph_Driver\src\m1130_tim.c 0x00000000   Number         0  m1130_tim.o ABSOLUTE
    ..\..\..\Libraries\M1130_StdPeriph_Driver\src\m1130_usart.c 0x00000000   Number         0  m1130_usart.o ABSOLUTE
    ..\..\..\Libraries\M1130_StdPeriph_Driver\src\misc.c 0x00000000   Number         0  misc.o ABSOLUTE
    ..\\..\\..\\Libraries\\CMSIS\\Device\\ALPOS\\M1130\\Source\\Templates\\system_m1130.c 0x00000000   Number         0  system_m1130.o ABSOLUTE
    ..\\..\\..\\Libraries\\M1130_StdPeriph_Driver\\src\\m1130_eval_qspi.c 0x00000000   Number         0  m1130_eval_qspi.o ABSOLUTE
    ..\\..\\..\\Libraries\\M1130_StdPeriph_Driver\\src\\m1130_gpio.c 0x00000000   Number         0  m1130_gpio.o ABSOLUTE
    ..\\..\\..\\Libraries\\M1130_StdPeriph_Driver\\src\\m1130_otp.c 0x00000000   Number         0  m1130_otp.o ABSOLUTE
    ..\\..\\..\\Libraries\\M1130_StdPeriph_Driver\\src\\m1130_qspi.c 0x00000000   Number         0  m1130_qspi.o ABSOLUTE
    ..\\..\\..\\Libraries\\M1130_StdPeriph_Driver\\src\\m1130_rcc.c 0x00000000   Number         0  m1130_rcc.o ABSOLUTE
    ..\\..\\..\\Libraries\\M1130_StdPeriph_Driver\\src\\m1130_tim.c 0x00000000   Number         0  m1130_tim.o ABSOLUTE
    ..\\..\\..\\Libraries\\M1130_StdPeriph_Driver\\src\\m1130_usart.c 0x00000000   Number         0  m1130_usart.o ABSOLUTE
    ..\\..\\..\\Libraries\\M1130_StdPeriph_Driver\\src\\misc.c 0x00000000   Number         0  misc.o ABSOLUTE
    ..\\src\\delay.c                         0x00000000   Number         0  delay.o ABSOLUTE
    ..\\src\\m1130_it.c                      0x00000000   Number         0  m1130_it.o ABSOLUTE
    ..\\src\\main.c                          0x00000000   Number         0  main.o ABSOLUTE
    ..\src\delay.c                           0x00000000   Number         0  delay.o ABSOLUTE
    ..\src\m1130_it.c                        0x00000000   Number         0  m1130_it.o ABSOLUTE
    ..\src\main.c                            0x00000000   Number         0  main.o ABSOLUTE
    FATFS\\src\\MMC_SD.C                     0x00000000   Number         0  mmc_sd.o ABSOLUTE
    FATFS\\src\\comUpdateCommand.c           0x00000000   Number         0  comupdatecommand.o ABSOLUTE
    FATFS\\src\\m1130_xip_write.c            0x00000000   Number         0  m1130_xip_write.o ABSOLUTE
    FATFS\src\MMC_SD.C                       0x00000000   Number         0  mmc_sd.o ABSOLUTE
    FATFS\src\comUpdateCommand.c             0x00000000   Number         0  comupdatecommand.o ABSOLUTE
    FATFS\src\diskio.c                       0x00000000   Number         0  diskio.o ABSOLUTE
    FATFS\src\ff.c                           0x00000000   Number         0  ff.o ABSOLUTE
    FATFS\src\m1130_xip_write.c              0x00000000   Number         0  m1130_xip_write.o ABSOLUTE
    LCD\\lcdDriver.c                         0x00000000   Number         0  lcddriver.o ABSOLUTE
    LCD\\lcdInit.c                           0x00000000   Number         0  lcdinit.o ABSOLUTE
    LCD\lcdDriver.c                          0x00000000   Number         0  lcddriver.o ABSOLUTE
    LCD\lcdInit.c                            0x00000000   Number         0  lcdinit.o ABSOLUTE
    LCD\updateLogo.c                         0x00000000   Number         0  updatelogo.o ABSOLUTE
    cdrcmple.s                               0x00000000   Number         0  cdrcmple.o ABSOLUTE
    dc.s                                     0x00000000   Number         0  dc.o ABSOLUTE
    handlers.s                               0x00000000   Number         0  handlers.o ABSOLUTE
    includes\UsersUse\guiConfig.c            0x00000000   Number         0  guiconfig.o ABSOLUTE
    init.s                                   0x00000000   Number         0  init.o ABSOLUTE
    .ARM.Collect$$$$00000000                 0x000000ac   Section        0  entry.o(.ARM.Collect$$$$00000000)
    .ARM.Collect$$$$00000001                 0x000000ac   Section        4  entry2.o(.ARM.Collect$$$$00000001)
    .ARM.Collect$$$$00000004                 0x000000b0   Section        4  entry5.o(.ARM.Collect$$$$00000004)
    .ARM.Collect$$$$00000008                 0x000000b4   Section        0  entry7b.o(.ARM.Collect$$$$00000008)
    .ARM.Collect$$$$0000000A                 0x000000b4   Section        0  entry8b.o(.ARM.Collect$$$$0000000A)
    .ARM.Collect$$$$0000000B                 0x000000b4   Section        8  entry9a.o(.ARM.Collect$$$$0000000B)
    .ARM.Collect$$$$0000000D                 0x000000bc   Section        0  entry10a.o(.ARM.Collect$$$$0000000D)
    .ARM.Collect$$$$0000000F                 0x000000bc   Section        0  entry11a.o(.ARM.Collect$$$$0000000F)
    .ARM.Collect$$$$00002712                 0x000000bc   Section        4  entry2.o(.ARM.Collect$$$$00002712)
    __lit__00000000                          0x000000bc   Data           4  entry2.o(.ARM.Collect$$$$00002712)
    .text                                    0x000000c0   Section       28  startup_m1130.o(.text)
    .text                                    0x000000dc   Section        0  uidiv.o(.text)
    .text                                    0x00000108   Section        0  uread4.o(.text)
    .text                                    0x0000011c   Section       36  init.o(.text)
    i.CheckUpade                             0x00000140   Section        0  comupdatecommand.o(i.CheckUpade)
    i.GPIO_ConfigDriver                      0x00000440   Section        0  m1130_gpio.o(i.GPIO_ConfigDriver)
    i.GPIO_SetBits                           0x000004a0   Section        0  m1130_gpio.o(i.GPIO_SetBits)
    i.GPIO_SetPinDir                         0x000004a4   Section        0  m1130_gpio.o(i.GPIO_SetPinDir)
    i.GPIO_SetPinMux                         0x000004d8   Section        0  m1130_gpio.o(i.GPIO_SetPinMux)
    i.Get_SystemTick                         0x0000053c   Section        0  system_m1130.o(i.Get_SystemTick)
    i.HardFault_Handler                      0x00000548   Section        0  m1130_it.o(i.HardFault_Handler)
    i.ILI9488_CTC35_Initial_Code             0x00000564   Section        0  lcdinit.o(i.ILI9488_CTC35_Initial_Code)
    i.LCD_Clear                              0x00000720   Section        0  lcddriver.o(i.LCD_Clear)
    LCD_Clear                                0x00000721   Thumb Code    82  lcddriver.o(i.LCD_Clear)
    i.LCD_DisplayOff                         0x00000788   Section        0  lcddriver.o(i.LCD_DisplayOff)
    LCD_DisplayOff                           0x00000789   Thumb Code    10  lcddriver.o(i.LCD_DisplayOff)
    i.LCD_DisplayOn                          0x00000792   Section        0  lcddriver.o(i.LCD_DisplayOn)
    LCD_DisplayOn                            0x00000793   Thumb Code    10  lcddriver.o(i.LCD_DisplayOn)
    i.LCD_Init                               0x0000079c   Section        0  lcdinit.o(i.LCD_Init)
    i.LCD_Read_DATA                          0x00000850   Section        0  lcddriver.o(i.LCD_Read_DATA)
    LCD_Read_DATA                            0x00000851   Thumb Code     4  lcddriver.o(i.LCD_Read_DATA)
    i.LCD_Scan_Dir                           0x00000854   Section        0  lcddriver.o(i.LCD_Scan_Dir)
    LCD_Scan_Dir                             0x00000855   Thumb Code    30  lcddriver.o(i.LCD_Scan_Dir)
    i.LCD_Scroll                             0x00000878   Section        0  lcddriver.o(i.LCD_Scroll)
    LCD_Scroll                               0x00000879   Thumb Code    74  lcddriver.o(i.LCD_Scroll)
    i.LCD_SetCursor                          0x000008c2   Section        0  lcddriver.o(i.LCD_SetCursor)
    LCD_SetCursor                            0x000008c3   Thumb Code    72  lcddriver.o(i.LCD_SetCursor)
    i.LCD_WriteReg                           0x0000090a   Section        0  lcddriver.o(i.LCD_WriteReg)
    LCD_WriteReg                             0x0000090b   Thumb Code    16  lcddriver.o(i.LCD_WriteReg)
    i.LCD_Write_CMD                          0x0000091c   Section        0  lcddriver.o(i.LCD_Write_CMD)
    LCD_Write_CMD                            0x0000091d   Thumb Code    36  lcddriver.o(i.LCD_Write_CMD)
    i.LCD_Write_DATA                         0x00000950   Section        0  lcddriver.o(i.LCD_Write_DATA)
    LCD_Write_DATA                           0x00000951   Thumb Code    36  lcddriver.o(i.LCD_Write_DATA)
    i.NMI_Handler                            0x00000984   Section        0  m1130_it.o(i.NMI_Handler)
    i.NVIC_Init                              0x00000988   Section        0  misc.o(i.NVIC_Init)
    i.OTP_ReadADJ                            0x000009d8   Section        0  m1130_otp.o(i.OTP_ReadADJ)
    OTP_ReadADJ                              0x000009d9   Thumb Code    14  m1130_otp.o(i.OTP_ReadADJ)
    i.OTP_ReadADJ_10K                        0x000009f0   Section        0  m1130_otp.o(i.OTP_ReadADJ_10K)
    i.OTP_ReadADJ_12M                        0x000009fc   Section        0  m1130_otp.o(i.OTP_ReadADJ_12M)
    i.OTP_ReadADJ_LDO                        0x00000a06   Section        0  m1130_otp.o(i.OTP_ReadADJ_LDO)
    i.OTP_ReadADJ_RTC_CAP                    0x00000a12   Section        0  m1130_otp.o(i.OTP_ReadADJ_RTC_CAP)
    i.OTP_Reset                              0x00000a1e   Section        0  m1130_otp.o(i.OTP_Reset)
    i.PendSV_Handler                         0x00000a2a   Section        0  m1130_it.o(i.PendSV_Handler)
    i.QSPI_CS_High                           0x00000a2c   Section        0  m1130_qspi.o(i.QSPI_CS_High)
    i.QSPI_CS_Low                            0x00000a38   Section        0  m1130_qspi.o(i.QSPI_CS_Low)
    i.QSPI_DMACmd                            0x00000a44   Section        0  m1130_qspi.o(i.QSPI_DMACmd)
    i.QSPI_DataConfig                        0x00000a54   Section        0  m1130_qspi.o(i.QSPI_DataConfig)
    i.QSPI_GetFlagStatus                     0x00000a76   Section        0  m1130_qspi.o(i.QSPI_GetFlagStatus)
    i.QSPI_HwInit                            0x00000a84   Section        0  m1130_qspi.o(i.QSPI_HwInit)
    i.QSPI_ModeSet                           0x00000ad0   Section        0  m1130_qspi.o(i.QSPI_ModeSet)
    i.QSPI_SetPowerState                     0x00000af4   Section        0  m1130_qspi.o(i.QSPI_SetPowerState)
    i.RCC_GetClocksFreq                      0x00000b38   Section        0  m1130_rcc.o(i.RCC_GetClocksFreq)
    i.RCC_ResetAHBCLK                        0x00000c5c   Section        0  m1130_rcc.o(i.RCC_ResetAHBCLK)
    i.RCC_SETCLKDivider                      0x00000c78   Section        0  m1130_rcc.o(i.RCC_SETCLKDivider)
    i.RCC_SetAHBCLK                          0x00000c82   Section        0  m1130_rcc.o(i.RCC_SetAHBCLK)
    i.RCC_SetPRESETCTRL                      0x00000c92   Section        0  m1130_rcc.o(i.RCC_SetPRESETCTRL)
    i.RCC_UARTCLKSel                         0x00000ca4   Section        0  m1130_rcc.o(i.RCC_UARTCLKSel)
    i.SDSpiCS_High                           0x00000cb8   Section        0  mmc_sd.o(i.SDSpiCS_High)
    i.SDSpiCS_Low                            0x00000ccc   Section        0  mmc_sd.o(i.SDSpiCS_Low)
    i.SD_DisSelect                           0x00000ce0   Section        0  mmc_sd.o(i.SD_DisSelect)
    i.SD_ExternCLk                           0x00000cec   Section        0  mmc_sd.o(i.SD_ExternCLk)
    i.SD_Initialize                          0x00000d08   Section        0  mmc_sd.o(i.SD_Initialize)
    i.SD_ReadDisk                            0x00000e68   Section        0  mmc_sd.o(i.SD_ReadDisk)
    i.SD_RecvData                            0x00000ed4   Section        0  mmc_sd.o(i.SD_RecvData)
    i.SD_SPI_Init                            0x00000f2c   Section        0  mmc_sd.o(i.SD_SPI_Init)
    i.SD_SPI_SpeedHigh                       0x00000f90   Section        0  mmc_sd.o(i.SD_SPI_SpeedHigh)
    i.SD_SPI_SpeedLow                        0x00000fb0   Section        0  mmc_sd.o(i.SD_SPI_SpeedLow)
    i.SD_Select                              0x00000fd4   Section        0  mmc_sd.o(i.SD_Select)
    i.SD_SendCmd                             0x00000fec   Section        0  mmc_sd.o(i.SD_SendCmd)
    i.SD_WaitReady                           0x00001060   Section        0  mmc_sd.o(i.SD_WaitReady)
    i.SVC_Handler                            0x00001094   Section        0  m1130_it.o(i.SVC_Handler)
    i.SysTick_Handler                        0x00001096   Section        0  m1130_it.o(i.SysTick_Handler)
    i.SystemADJInit                          0x00001098   Section        0  main.o(i.SystemADJInit)
    i.SystemHeart_Init                       0x000010e8   Section        0  system_m1130.o(i.SystemHeart_Init)
    i.SystemInit                             0x00001150   Section        0  system_m1130.o(i.SystemInit)
    i.TIM16_IRQHandler                       0x000011ac   Section        0  m1130_it.o(i.TIM16_IRQHandler)
    i.TIM_ClearITPendingBit                  0x000011c4   Section        0  m1130_tim.o(i.TIM_ClearITPendingBit)
    i.TIM_Cmd                                0x000011cc   Section        0  m1130_tim.o(i.TIM_Cmd)
    i.TIM_ITConfig                           0x000011e4   Section        0  m1130_tim.o(i.TIM_ITConfig)
    i.TIM_SelectOutputTrigger                0x000011f4   Section        0  m1130_tim.o(i.TIM_SelectOutputTrigger)
    i.TIM_TimeBaseInit                       0x00001204   Section        0  m1130_tim.o(i.TIM_TimeBaseInit)
    i.TIM_TimeBaseStructInit                 0x00001268   Section        0  m1130_tim.o(i.TIM_TimeBaseStructInit)
    i.UART_Cmd                               0x0000127a   Section        0  m1130_usart.o(i.UART_Cmd)
    i.UART_GetFlagStatus                     0x00001288   Section        0  m1130_usart.o(i.UART_GetFlagStatus)
    i.UART_Init                              0x00001298   Section        0  m1130_usart.o(i.UART_Init)
    i.UART_Reset                             0x00001318   Section        0  m1130_usart.o(i.UART_Reset)
    i.UART_SendData                          0x0000133c   Section        0  m1130_usart.o(i.UART_SendData)
    i.UART_StructInit                        0x00001340   Section        0  m1130_usart.o(i.UART_StructInit)
    i.__0printf$6                            0x00001364   Section        0  printf6.o(i.__0printf$6)
    i.__scatterload_copy                     0x00001384   Section       14  handlers.o(i.__scatterload_copy)
    i.__scatterload_null                     0x00001392   Section        2  handlers.o(i.__scatterload_null)
    i.__scatterload_zeroinit                 0x00001394   Section       14  handlers.o(i.__scatterload_zeroinit)
    i._printf_core                           0x000013a4   Section        0  printf6.o(i._printf_core)
    _printf_core                             0x000013a5   Thumb Code   768  printf6.o(i._printf_core)
    i._printf_post_padding                   0x000016a8   Section        0  printf6.o(i._printf_post_padding)
    _printf_post_padding                     0x000016a9   Thumb Code    32  printf6.o(i._printf_post_padding)
    i._printf_pre_padding                    0x000016c8   Section        0  printf6.o(i._printf_pre_padding)
    _printf_pre_padding                      0x000016c9   Thumb Code    44  printf6.o(i._printf_pre_padding)
    i.checkCapDly                            0x000016f4   Section        0  main.o(i.checkCapDly)
    i.check_fs                               0x000017a8   Section        0  ff.o(i.check_fs)
    check_fs                                 0x000017a9   Thumb Code    94  ff.o(i.check_fs)
    i.clmt_clust                             0x00001814   Section        0  ff.o(i.clmt_clust)
    clmt_clust                               0x00001815   Thumb Code    44  ff.o(i.clmt_clust)
    i.clust2sect                             0x00001840   Section        0  ff.o(i.clust2sect)
    i.create_name                            0x00001858   Section        0  ff.o(i.create_name)
    create_name                              0x00001859   Thumb Code   290  ff.o(i.create_name)
    i.delay                                  0x0000198c   Section        0  system_m1130.o(i.delay)
    i.delay_ms                               0x0000199c   Section        0  delay.o(i.delay_ms)
    i.dir_next                               0x000019d0   Section        0  ff.o(i.dir_next)
    dir_next                                 0x000019d1   Thumb Code   116  ff.o(i.dir_next)
    i.dir_sdi                                0x00001a44   Section        0  ff.o(i.dir_sdi)
    dir_sdi                                  0x00001a45   Thumb Code   126  ff.o(i.dir_sdi)
    i.disk_initialize                        0x00001ac2   Section        0  diskio.o(i.disk_initialize)
    i.disk_read                              0x00001ada   Section        0  diskio.o(i.disk_read)
    i.disk_status                            0x00001b0e   Section        0  diskio.o(i.disk_status)
    i.disp_Tip_Logo                          0x00001b14   Section        0  comupdatecommand.o(i.disp_Tip_Logo)
    disp_Tip_Logo                            0x00001b15   Thumb Code    78  comupdatecommand.o(i.disp_Tip_Logo)
    i.f_close                                0x00001b7c   Section        0  ff.o(i.f_close)
    i.f_lseek                                0x00001b8e   Section        0  ff.o(i.f_lseek)
    i.f_mount                                0x00001d0c   Section        0  ff.o(i.f_mount)
    i.f_open                                 0x00001d5c   Section        0  ff.o(i.f_open)
    i.f_read                                 0x00001dd8   Section        0  ff.o(i.f_read)
    i.find_volume                            0x00001ee8   Section        0  ff.o(i.find_volume)
    find_volume                              0x00001ee9   Thumb Code   476  ff.o(i.find_volume)
    i.follow_path                            0x000020d0   Section        0  ff.o(i.follow_path)
    follow_path                              0x000020d1   Thumb Code   180  ff.o(i.follow_path)
    i.fputc                                  0x00002184   Section        0  main.o(i.fputc)
    i.get_fat                                0x000021a8   Section        0  ff.o(i.get_fat)
    i.get_ldnumber                           0x0000226a   Section        0  ff.o(i.get_ldnumber)
    get_ldnumber                             0x0000226b   Thumb Code    60  ff.o(i.get_ldnumber)
    i.ld_clust                               0x000022a6   Section        0  ff.o(i.ld_clust)
    ld_clust                                 0x000022a7   Thumb Code    30  ff.o(i.ld_clust)
    i.main                                   0x000022c4   Section        0  main.o(i.main)
    i.mem_cpy                                0x00002344   Section        0  ff.o(i.mem_cpy)
    mem_cpy                                  0x00002345   Thumb Code    16  ff.o(i.mem_cpy)
    i.move_window                            0x00002354   Section        0  ff.o(i.move_window)
    move_window                              0x00002355   Thumb Code    40  ff.o(i.move_window)
    i.qspi_delay                             0x0000237c   Section        0  m1130_eval_qspi.o(i.qspi_delay)
    qspi_delay                               0x0000237d   Thumb Code    16  m1130_eval_qspi.o(i.qspi_delay)
    i.qspi_flash_SetDriverStrength           0x0000238c   Section        0  m1130_eval_qspi.o(i.qspi_flash_SetDriverStrength)
    i.qspi_flash_enableQE                    0x00002410   Section        0  m1130_eval_qspi.o(i.qspi_flash_enableQE)
    i.qspi_flash_erase_block_4k              0x00002478   Section        0  m1130_eval_qspi.o(i.qspi_flash_erase_block_4k)
    i.qspi_flash_global_unprotect            0x000024d8   Section        0  m1130_eval_qspi.o(i.qspi_flash_global_unprotect)
    i.qspi_flash_read                        0x00002550   Section        0  m1130_eval_qspi.o(i.qspi_flash_read)
    i.qspi_flash_read_buf                    0x00002580   Section        0  m1130_eval_qspi.o(i.qspi_flash_read_buf)
    i.qspi_flash_read_page                   0x000025c4   Section        0  m1130_eval_qspi.o(i.qspi_flash_read_page)
    i.qspi_flash_read_status1                0x0000260c   Section        0  m1130_eval_qspi.o(i.qspi_flash_read_status1)
    i.qspi_flash_read_status2                0x0000263c   Section        0  m1130_eval_qspi.o(i.qspi_flash_read_status2)
    i.qspi_flash_read_status3                0x0000266c   Section        0  m1130_eval_qspi.o(i.qspi_flash_read_status3)
    i.qspi_flash_send_addr                   0x0000269c   Section        0  m1130_eval_qspi.o(i.qspi_flash_send_addr)
    qspi_flash_send_addr                     0x0000269d   Thumb Code    54  m1130_eval_qspi.o(i.qspi_flash_send_addr)
    i.qspi_flash_send_cmd                    0x000026d8   Section        0  m1130_eval_qspi.o(i.qspi_flash_send_cmd)
    qspi_flash_send_cmd                      0x000026d9   Thumb Code    16  m1130_eval_qspi.o(i.qspi_flash_send_cmd)
    i.qspi_flash_write_buf                   0x000026ec   Section        0  m1130_eval_qspi.o(i.qspi_flash_write_buf)
    i.qspi_flash_write_enable                0x00002730   Section        0  m1130_eval_qspi.o(i.qspi_flash_write_enable)
    i.qspi_flash_write_page                  0x00002754   Section        0  m1130_eval_qspi.o(i.qspi_flash_write_page)
    i.quad_spi_flash_init                    0x000027dc   Section        0  m1130_eval_qspi.o(i.quad_spi_flash_init)
    i.serial_init                            0x00002940   Section        0  main.o(i.serial_init)
    i.startXIP                               0x000029a0   Section        0  main.o(i.startXIP)
    i.start_quad_spi_dma_rx                  0x000029b0   Section        0  m1130_eval_qspi.o(i.start_quad_spi_dma_rx)
    start_quad_spi_dma_rx                    0x000029b1   Thumb Code   152  m1130_eval_qspi.o(i.start_quad_spi_dma_rx)
    i.start_quad_spi_dma_tx                  0x00002a60   Section        0  m1130_eval_qspi.o(i.start_quad_spi_dma_tx)
    start_quad_spi_dma_tx                    0x00002a61   Thumb Code   132  m1130_eval_qspi.o(i.start_quad_spi_dma_tx)
    i.switchQuad                             0x00002af8   Section        0  main.o(i.switchQuad)
    i.validate                               0x00002b58   Section        0  ff.o(i.validate)
    validate                                 0x00002b59   Thumb Code    44  ff.o(i.validate)
    i.xipRX                                  0x00002b84   Section        0  m1130_xip_write.o(i.xipRX)
    i.xipTX                                  0x00002c0a   Section        0  m1130_xip_write.o(i.xipTX)
    i.xip_DataConfig                         0x00002ca6   Section        0  m1130_xip_write.o(i.xip_DataConfig)
    i.xip_GetFlagStatus                      0x00002cf4   Section        0  m1130_xip_write.o(i.xip_GetFlagStatus)
    .constdata                               0x00002d00   Section       40  lcddriver.o(.constdata)
    .constdata                               0x00002d28   Section    10368  updatelogo.o(.constdata)
    .constdata                               0x000055a8   Section        4  guiconfig.o(.constdata)
    .constdata                               0x000055ac   Section        4  guiconfig.o(.constdata)
    .data                                    0x00007700   Section        4  system_m1130.o(.data)
    .data                                    0x00007704   Section       16  m1130_eval_qspi.o(.data)
    qspi_cmd                                 0x00007708   Data           4  m1130_eval_qspi.o(.data)
    qspi_addr                                0x0000770c   Data           4  m1130_eval_qspi.o(.data)
    qspi_flash_status                        0x00007710   Data           4  m1130_eval_qspi.o(.data)
    .data                                    0x00007714   Section       12  ff.o(.data)
    Fsid                                     0x00007714   Data           2  ff.o(.data)
    FatFs                                    0x00007718   Data           8  ff.o(.data)
    .data                                    0x00007720   Section        1  mmc_sd.o(.data)
    .data                                    0x00007724   Section        4  comupdatecommand.o(.data)
    .data                                    0x00007728   Section       16  lcddriver.o(.data)
    .data                                    0x00007738   Section        4  stdout.o(.data)
    .bss                                     0x0000773c   Section       32  mmc_sd.o(.bss)
    SD_WriteReadBuf                          0x0000773c   Data          32  mmc_sd.o(.bss)
    .bss                                     0x0000775c   Section      840  comupdatecommand.o(.bss)
    FlashWriteBuff                           0x0000775c   Data         256  comupdatecommand.o(.bss)
    SD_Fatfs                                 0x0000785c   Data         552  comupdatecommand.o(.bss)
    ResourceFile                             0x00007a84   Data          32  comupdatecommand.o(.bss)
    STACK                                    0x00007aa8   Section      768  startup_m1130.o(STACK)

    Global Symbols

    Symbol Name                              Value     Ov Type        Size  Object(Section)

    BuildAttributes$$THM_ISAv3M$S$PE$A:L22$X:L11$S22$IEEE1$IW$USESV6$~STKCKD$USESV7$~SHL$OSPACE$ROPI$EBA8$MICROLIB$REQ8$PRES8$EABIv2 0x00000000   Number         0  anon$$obj.o ABSOLUTE
    __ARM_use_no_argv                        0x00000000   Number         0  main.o ABSOLUTE
    __Vectors                                0x00000000   Data           4  startup_m1130.o(RESET)
    _printf_a                                0x00000000   Number         0  stubs.o ABSOLUTE
    _printf_c                                0x00000000   Number         0  stubs.o ABSOLUTE
    _printf_charcount                        0x00000000   Number         0  stubs.o ABSOLUTE
    _printf_d                                0x00000000   Number         0  stubs.o ABSOLUTE
    _printf_e                                0x00000000   Number         0  stubs.o ABSOLUTE
    _printf_f                                0x00000000   Number         0  stubs.o ABSOLUTE
    _printf_flags                            0x00000000   Number         0  stubs.o ABSOLUTE
    _printf_fp_dec                           0x00000000   Number         0  stubs.o ABSOLUTE
    _printf_fp_hex                           0x00000000   Number         0  stubs.o ABSOLUTE
    _printf_g                                0x00000000   Number         0  stubs.o ABSOLUTE
    _printf_i                                0x00000000   Number         0  stubs.o ABSOLUTE
    _printf_int_dec                          0x00000000   Number         0  stubs.o ABSOLUTE
    _printf_l                                0x00000000   Number         0  stubs.o ABSOLUTE
    _printf_lc                               0x00000000   Number         0  stubs.o ABSOLUTE
    _printf_ll                               0x00000000   Number         0  stubs.o ABSOLUTE
    _printf_lld                              0x00000000   Number         0  stubs.o ABSOLUTE
    _printf_lli                              0x00000000   Number         0  stubs.o ABSOLUTE
    _printf_llo                              0x00000000   Number         0  stubs.o ABSOLUTE
    _printf_llu                              0x00000000   Number         0  stubs.o ABSOLUTE
    _printf_llx                              0x00000000   Number         0  stubs.o ABSOLUTE
    _printf_longlong_dec                     0x00000000   Number         0  stubs.o ABSOLUTE
    _printf_longlong_hex                     0x00000000   Number         0  stubs.o ABSOLUTE
    _printf_longlong_oct                     0x00000000   Number         0  stubs.o ABSOLUTE
    _printf_ls                               0x00000000   Number         0  stubs.o ABSOLUTE
    _printf_mbtowc                           0x00000000   Number         0  stubs.o ABSOLUTE
    _printf_n                                0x00000000   Number         0  stubs.o ABSOLUTE
    _printf_o                                0x00000000   Number         0  stubs.o ABSOLUTE
    _printf_p                                0x00000000   Number         0  stubs.o ABSOLUTE
    _printf_percent                          0x00000000   Number         0  stubs.o ABSOLUTE
    _printf_pre_padding                      0x00000000   Number         0  stubs.o ABSOLUTE
    _printf_return_value                     0x00000000   Number         0  stubs.o ABSOLUTE
    _printf_s                                0x00000000   Number         0  stubs.o ABSOLUTE
    _printf_sizespec                         0x00000000   Number         0  stubs.o ABSOLUTE
    _printf_str                              0x00000000   Number         0  stubs.o ABSOLUTE
    _printf_truncate_signed                  0x00000000   Number         0  stubs.o ABSOLUTE
    _printf_truncate_unsigned                0x00000000   Number         0  stubs.o ABSOLUTE
    _printf_u                                0x00000000   Number         0  stubs.o ABSOLUTE
    _printf_wc                               0x00000000   Number         0  stubs.o ABSOLUTE
    _printf_wctomb                           0x00000000   Number         0  stubs.o ABSOLUTE
    _printf_widthprec                        0x00000000   Number         0  stubs.o ABSOLUTE
    _printf_x                                0x00000000   Number         0  stubs.o ABSOLUTE
    __cpp_initialize__aeabi_                  - Undefined Weak Reference
    __cxa_finalize                            - Undefined Weak Reference
    __decompress                              - Undefined Weak Reference
    _clock_init                               - Undefined Weak Reference
    _microlib_exit                            - Undefined Weak Reference
    __Vectors_End                            0x000000ac   Data           0  startup_m1130.o(RESET)
    __Vectors_Size                           0x000000ac   Number         0  startup_m1130.o ABSOLUTE
    __main                                   0x000000ad   Thumb Code     0  entry.o(.ARM.Collect$$$$00000000)
    _main_stk                                0x000000ad   Thumb Code     0  entry2.o(.ARM.Collect$$$$00000001)
    _main_scatterload                        0x000000b1   Thumb Code     0  entry5.o(.ARM.Collect$$$$00000004)
    __main_after_scatterload                 0x000000b5   Thumb Code     0  entry5.o(.ARM.Collect$$$$00000004)
    _main_clock                              0x000000b5   Thumb Code     0  entry7b.o(.ARM.Collect$$$$00000008)
    _main_cpp_init                           0x000000b5   Thumb Code     0  entry8b.o(.ARM.Collect$$$$0000000A)
    _main_init                               0x000000b5   Thumb Code     0  entry9a.o(.ARM.Collect$$$$0000000B)
    __rt_final_cpp                           0x000000bd   Thumb Code     0  entry10a.o(.ARM.Collect$$$$0000000D)
    __rt_final_exit                          0x000000bd   Thumb Code     0  entry11a.o(.ARM.Collect$$$$0000000F)
    Reset_Handler                            0x000000c1   Thumb Code     8  startup_m1130.o(.text)
    ADC0_IRQHandler                          0x000000d3   Thumb Code     0  startup_m1130.o(.text)
    BOD_IRQHandler                           0x000000d3   Thumb Code     0  startup_m1130.o(.text)
    BOR_IRQHandler                           0x000000d3   Thumb Code     0  startup_m1130.o(.text)
    DMA_IRQHandler                           0x000000d3   Thumb Code     0  startup_m1130.o(.text)
    GPIO0_IRQHandler                         0x000000d3   Thumb Code     0  startup_m1130.o(.text)
    GPIO1_IRQHandler                         0x000000d3   Thumb Code     0  startup_m1130.o(.text)
    I2C0_IRQHandler                          0x000000d3   Thumb Code     0  startup_m1130.o(.text)
    LED_IRQHandler                           0x000000d3   Thumb Code     0  startup_m1130.o(.text)
    QSPI0_IRQHandler                         0x000000d3   Thumb Code     0  startup_m1130.o(.text)
    QSPI1_IRQHandler                         0x000000d3   Thumb Code     0  startup_m1130.o(.text)
    RTC_IRQHandler                           0x000000d3   Thumb Code     0  startup_m1130.o(.text)
    TIM15_IRQHandler                         0x000000d3   Thumb Code     0  startup_m1130.o(.text)
    TIM17_IRQHandler                         0x000000d3   Thumb Code     0  startup_m1130.o(.text)
    TIM1_IRQHandler                          0x000000d3   Thumb Code     0  startup_m1130.o(.text)
    TIM4_IRQHandler                          0x000000d3   Thumb Code     0  startup_m1130.o(.text)
    UART0_IRQHandler                         0x000000d3   Thumb Code     0  startup_m1130.o(.text)
    UART1_IRQHandler                         0x000000d3   Thumb Code     0  startup_m1130.o(.text)
    USB0_DMA_IRQHandler                      0x000000d3   Thumb Code     0  startup_m1130.o(.text)
    USB0_IRQHandler                          0x000000d3   Thumb Code     0  startup_m1130.o(.text)
    WKT_IRQHandler                           0x000000d3   Thumb Code     0  startup_m1130.o(.text)
    __aeabi_uidiv                            0x000000dd   Thumb Code     0  uidiv.o(.text)
    __aeabi_uidivmod                         0x000000dd   Thumb Code    44  uidiv.o(.text)
    __aeabi_uread4                           0x00000109   Thumb Code    20  uread4.o(.text)
    __rt_uread4                              0x00000109   Thumb Code     0  uread4.o(.text)
    _uread4                                  0x00000109   Thumb Code     0  uread4.o(.text)
    __scatterload                            0x0000011d   Thumb Code    28  init.o(.text)
    __scatterload_rt2                        0x0000011d   Thumb Code     0  init.o(.text)
    CheckUpade                               0x00000141   Thumb Code   446  comupdatecommand.o(i.CheckUpade)
    GPIO_ConfigDriver                        0x00000441   Thumb Code    88  m1130_gpio.o(i.GPIO_ConfigDriver)
    GPIO_SetBits                             0x000004a1   Thumb Code     4  m1130_gpio.o(i.GPIO_SetBits)
    GPIO_SetPinDir                           0x000004a5   Thumb Code    40  m1130_gpio.o(i.GPIO_SetPinDir)
    GPIO_SetPinMux                           0x000004d9   Thumb Code    90  m1130_gpio.o(i.GPIO_SetPinMux)
    Get_SystemTick                           0x0000053d   Thumb Code     6  system_m1130.o(i.Get_SystemTick)
    HardFault_Handler                        0x00000549   Thumb Code     8  m1130_it.o(i.HardFault_Handler)
    ILI9488_CTC35_Initial_Code               0x00000565   Thumb Code   430  lcdinit.o(i.ILI9488_CTC35_Initial_Code)
    LCD_Init                                 0x0000079d   Thumb Code   158  lcdinit.o(i.LCD_Init)
    NMI_Handler                              0x00000985   Thumb Code     2  m1130_it.o(i.NMI_Handler)
    NVIC_Init                                0x00000989   Thumb Code    70  misc.o(i.NVIC_Init)
    OTP_ReadADJ_10K                          0x000009f1   Thumb Code    12  m1130_otp.o(i.OTP_ReadADJ_10K)
    OTP_ReadADJ_12M                          0x000009fd   Thumb Code    10  m1130_otp.o(i.OTP_ReadADJ_12M)
    OTP_ReadADJ_LDO                          0x00000a07   Thumb Code    12  m1130_otp.o(i.OTP_ReadADJ_LDO)
    OTP_ReadADJ_RTC_CAP                      0x00000a13   Thumb Code    12  m1130_otp.o(i.OTP_ReadADJ_RTC_CAP)
    OTP_Reset                                0x00000a1f   Thumb Code    12  m1130_otp.o(i.OTP_Reset)
    PendSV_Handler                           0x00000a2b   Thumb Code     2  m1130_it.o(i.PendSV_Handler)
    QSPI_CS_High                             0x00000a2d   Thumb Code    12  m1130_qspi.o(i.QSPI_CS_High)
    QSPI_CS_Low                              0x00000a39   Thumb Code    12  m1130_qspi.o(i.QSPI_CS_Low)
    QSPI_DMACmd                              0x00000a45   Thumb Code    16  m1130_qspi.o(i.QSPI_DMACmd)
    QSPI_DataConfig                          0x00000a55   Thumb Code    34  m1130_qspi.o(i.QSPI_DataConfig)
    QSPI_GetFlagStatus                       0x00000a77   Thumb Code    14  m1130_qspi.o(i.QSPI_GetFlagStatus)
    QSPI_HwInit                              0x00000a85   Thumb Code    70  m1130_qspi.o(i.QSPI_HwInit)
    QSPI_ModeSet                             0x00000ad1   Thumb Code    36  m1130_qspi.o(i.QSPI_ModeSet)
    QSPI_SetPowerState                       0x00000af5   Thumb Code    60  m1130_qspi.o(i.QSPI_SetPowerState)
    RCC_GetClocksFreq                        0x00000b39   Thumb Code   276  m1130_rcc.o(i.RCC_GetClocksFreq)
    RCC_ResetAHBCLK                          0x00000c5d   Thumb Code    28  m1130_rcc.o(i.RCC_ResetAHBCLK)
    RCC_SETCLKDivider                        0x00000c79   Thumb Code    10  m1130_rcc.o(i.RCC_SETCLKDivider)
    RCC_SetAHBCLK                            0x00000c83   Thumb Code    16  m1130_rcc.o(i.RCC_SetAHBCLK)
    RCC_SetPRESETCTRL                        0x00000c93   Thumb Code    16  m1130_rcc.o(i.RCC_SetPRESETCTRL)
    RCC_UARTCLKSel                           0x00000ca5   Thumb Code    14  m1130_rcc.o(i.RCC_UARTCLKSel)
    SDSpiCS_High                             0x00000cb9   Thumb Code    14  mmc_sd.o(i.SDSpiCS_High)
    SDSpiCS_Low                              0x00000ccd   Thumb Code    14  mmc_sd.o(i.SDSpiCS_Low)
    SD_DisSelect                             0x00000ce1   Thumb Code    12  mmc_sd.o(i.SD_DisSelect)
    SD_ExternCLk                             0x00000ced   Thumb Code    18  mmc_sd.o(i.SD_ExternCLk)
    SD_Initialize                            0x00000d09   Thumb Code   334  mmc_sd.o(i.SD_Initialize)
    SD_ReadDisk                              0x00000e69   Thumb Code   102  mmc_sd.o(i.SD_ReadDisk)
    SD_RecvData                              0x00000ed5   Thumb Code    76  mmc_sd.o(i.SD_RecvData)
    SD_SPI_Init                              0x00000f2d   Thumb Code    82  mmc_sd.o(i.SD_SPI_Init)
    SD_SPI_SpeedHigh                         0x00000f91   Thumb Code    28  mmc_sd.o(i.SD_SPI_SpeedHigh)
    SD_SPI_SpeedLow                          0x00000fb1   Thumb Code    30  mmc_sd.o(i.SD_SPI_SpeedLow)
    SD_Select                                0x00000fd5   Thumb Code    22  mmc_sd.o(i.SD_Select)
    SD_SendCmd                               0x00000fed   Thumb Code   106  mmc_sd.o(i.SD_SendCmd)
    SD_WaitReady                             0x00001061   Thumb Code    40  mmc_sd.o(i.SD_WaitReady)
    SVC_Handler                              0x00001095   Thumb Code     2  m1130_it.o(i.SVC_Handler)
    SysTick_Handler                          0x00001097   Thumb Code     2  m1130_it.o(i.SysTick_Handler)
    SystemADJInit                            0x00001099   Thumb Code    76  main.o(i.SystemADJInit)
    SystemHeart_Init                         0x000010e9   Thumb Code   100  system_m1130.o(i.SystemHeart_Init)
    SystemInit                               0x00001151   Thumb Code    76  system_m1130.o(i.SystemInit)
    TIM16_IRQHandler                         0x000011ad   Thumb Code    16  m1130_it.o(i.TIM16_IRQHandler)
    TIM_ClearITPendingBit                    0x000011c5   Thumb Code     6  m1130_tim.o(i.TIM_ClearITPendingBit)
    TIM_Cmd                                  0x000011cd   Thumb Code    20  m1130_tim.o(i.TIM_Cmd)
    TIM_ITConfig                             0x000011e5   Thumb Code    16  m1130_tim.o(i.TIM_ITConfig)
    TIM_SelectOutputTrigger                  0x000011f5   Thumb Code    16  m1130_tim.o(i.TIM_SelectOutputTrigger)
    TIM_TimeBaseInit                         0x00001205   Thumb Code    76  m1130_tim.o(i.TIM_TimeBaseInit)
    TIM_TimeBaseStructInit                   0x00001269   Thumb Code    18  m1130_tim.o(i.TIM_TimeBaseStructInit)
    UART_Cmd                                 0x0000127b   Thumb Code    14  m1130_usart.o(i.UART_Cmd)
    UART_GetFlagStatus                       0x00001289   Thumb Code    14  m1130_usart.o(i.UART_GetFlagStatus)
    UART_Init                                0x00001299   Thumb Code   110  m1130_usart.o(i.UART_Init)
    UART_Reset                               0x00001319   Thumb Code    26  m1130_usart.o(i.UART_Reset)
    UART_SendData                            0x0000133d   Thumb Code     4  m1130_usart.o(i.UART_SendData)
    UART_StructInit                          0x00001341   Thumb Code    34  m1130_usart.o(i.UART_StructInit)
    __0printf$6                              0x00001365   Thumb Code    24  printf6.o(i.__0printf$6)
    __1printf$6                              0x00001365   Thumb Code     0  printf6.o(i.__0printf$6)
    __2printf                                0x00001365   Thumb Code     0  printf6.o(i.__0printf$6)
    __scatterload_copy                       0x00001385   Thumb Code    14  handlers.o(i.__scatterload_copy)
    __scatterload_null                       0x00001393   Thumb Code     2  handlers.o(i.__scatterload_null)
    __scatterload_zeroinit                   0x00001395   Thumb Code    14  handlers.o(i.__scatterload_zeroinit)
    checkCapDly                              0x000016f5   Thumb Code   150  main.o(i.checkCapDly)
    clust2sect                               0x00001841   Thumb Code    24  ff.o(i.clust2sect)
    delay                                    0x0000198d   Thumb Code    14  system_m1130.o(i.delay)
    delay_ms                                 0x0000199d   Thumb Code    42  delay.o(i.delay_ms)
    disk_initialize                          0x00001ac3   Thumb Code    24  diskio.o(i.disk_initialize)
    disk_read                                0x00001adb   Thumb Code    52  diskio.o(i.disk_read)
    disk_status                              0x00001b0f   Thumb Code     4  diskio.o(i.disk_status)
    f_close                                  0x00001b7d   Thumb Code    18  ff.o(i.f_close)
    f_lseek                                  0x00001b8f   Thumb Code   382  ff.o(i.f_lseek)
    f_mount                                  0x00001d0d   Thumb Code    74  ff.o(i.f_mount)
    f_open                                   0x00001d5d   Thumb Code   124  ff.o(i.f_open)
    f_read                                   0x00001dd9   Thumb Code   272  ff.o(i.f_read)
    fputc                                    0x00002185   Thumb Code    32  main.o(i.fputc)
    get_fat                                  0x000021a9   Thumb Code   194  ff.o(i.get_fat)
    main                                     0x000022c5   Thumb Code    88  main.o(i.main)
    qspi_flash_SetDriverStrength             0x0000238d   Thumb Code   126  m1130_eval_qspi.o(i.qspi_flash_SetDriverStrength)
    qspi_flash_enableQE                      0x00002411   Thumb Code   100  m1130_eval_qspi.o(i.qspi_flash_enableQE)
    qspi_flash_erase_block_4k                0x00002479   Thumb Code    92  m1130_eval_qspi.o(i.qspi_flash_erase_block_4k)
    qspi_flash_global_unprotect              0x000024d9   Thumb Code   114  m1130_eval_qspi.o(i.qspi_flash_global_unprotect)
    qspi_flash_read                          0x00002551   Thumb Code    48  m1130_eval_qspi.o(i.qspi_flash_read)
    qspi_flash_read_buf                      0x00002581   Thumb Code    68  m1130_eval_qspi.o(i.qspi_flash_read_buf)
    qspi_flash_read_page                     0x000025c5   Thumb Code    68  m1130_eval_qspi.o(i.qspi_flash_read_page)
    qspi_flash_read_status1                  0x0000260d   Thumb Code    42  m1130_eval_qspi.o(i.qspi_flash_read_status1)
    qspi_flash_read_status2                  0x0000263d   Thumb Code    42  m1130_eval_qspi.o(i.qspi_flash_read_status2)
    qspi_flash_read_status3                  0x0000266d   Thumb Code    42  m1130_eval_qspi.o(i.qspi_flash_read_status3)
    qspi_flash_write_buf                     0x000026ed   Thumb Code    68  m1130_eval_qspi.o(i.qspi_flash_write_buf)
    qspi_flash_write_enable                  0x00002731   Thumb Code    34  m1130_eval_qspi.o(i.qspi_flash_write_enable)
    qspi_flash_write_page                    0x00002755   Thumb Code   130  m1130_eval_qspi.o(i.qspi_flash_write_page)
    quad_spi_flash_init                      0x000027dd   Thumb Code   336  m1130_eval_qspi.o(i.quad_spi_flash_init)
    serial_init                              0x00002941   Thumb Code    88  main.o(i.serial_init)
    startXIP                                 0x000029a1   Thumb Code    16  main.o(i.startXIP)
    switchQuad                               0x00002af9   Thumb Code    88  main.o(i.switchQuad)
    xipRX                                    0x00002b85   Thumb Code   134  m1130_xip_write.o(i.xipRX)
    xipTX                                    0x00002c0b   Thumb Code   156  m1130_xip_write.o(i.xipTX)
    xip_DataConfig                           0x00002ca7   Thumb Code    78  m1130_xip_write.o(i.xip_DataConfig)
    xip_GetFlagStatus                        0x00002cf5   Thumb Code    10  m1130_xip_write.o(i.xip_GetFlagStatus)
    Lcd_Driver                               0x00002d00   Data          40  lcddriver.o(.constdata)
    gImage_updateLogo                        0x00002d28   Data       10368  updatelogo.o(.constdata)
    FLASH_SECTOR_SIZE                        0x000055a8   Data           4  guiconfig.o(.constdata)
    FLASH_RES_START_ADDR                     0x000055ac   Data           4  guiconfig.o(.constdata)
    Region$$Table$$Base                      0x000055b0   Number         0  anon$$obj.o(Region$$Table)
    Region$$Table$$Limit                     0x000055d0   Number         0  anon$$obj.o(Region$$Table)
    systemTick                               0x00007700   Data           4  system_m1130.o(.data)
    _4ByteAddrMode                           0x00007704   Data           1  m1130_eval_qspi.o(.data)
    SD_Type                                  0x00007720   Data           1  mmc_sd.o(.data)
    tick                                     0x00007724   Data           4  comupdatecommand.o(.data)
    lcdPara                                  0x00007728   Data          16  lcddriver.o(.data)
    __stdout                                 0x00007738   Data           4  stdout.o(.data)
    __initial_sp                             0x00007da8   Data           0  startup_m1130.o(STACK)



==============================================================================

Memory Map of the image

  Image Entry point : 0x000000ad

  Load Region LR_IROM1 (Base: 0x00000000, Size: 0x0000560c, Max: 0x00007700, ABSOLUTE)

    Execution Region ER_IROM1 (Exec base: 0x00000000, Load base: 0x00000000, Size: 0x000055d0, Max: 0x00007700, ABSOLUTE)

    Exec Addr    Load Addr    Size         Type   Attr      Idx    E Section Name        Object

    0x00000000   0x00000000   0x000000ac   Data   RO           84    RESET               startup_m1130.o
    0x000000ac   0x000000ac   0x00000000   Code   RO         2308  * .ARM.Collect$$$$00000000  mc_p.l(entry.o)
    0x000000ac   0x000000ac   0x00000004   Code   RO         2576    .ARM.Collect$$$$00000001  mc_p.l(entry2.o)
    0x000000b0   0x000000b0   0x00000004   Code   RO         2579    .ARM.Collect$$$$00000004  mc_p.l(entry5.o)
    0x000000b4   0x000000b4   0x00000000   Code   RO         2581    .ARM.Collect$$$$00000008  mc_p.l(entry7b.o)
    0x000000b4   0x000000b4   0x00000000   Code   RO         2583    .ARM.Collect$$$$0000000A  mc_p.l(entry8b.o)
    0x000000b4   0x000000b4   0x00000008   Code   RO         2584    .ARM.Collect$$$$0000000B  mc_p.l(entry9a.o)
    0x000000bc   0x000000bc   0x00000000   Code   RO         2586    .ARM.Collect$$$$0000000D  mc_p.l(entry10a.o)
    0x000000bc   0x000000bc   0x00000000   Code   RO         2588    .ARM.Collect$$$$0000000F  mc_p.l(entry11a.o)
    0x000000bc   0x000000bc   0x00000004   Code   RO         2577    .ARM.Collect$$$$00002712  mc_p.l(entry2.o)
    0x000000c0   0x000000c0   0x0000001c   Code   RO           85    .text               startup_m1130.o
    0x000000dc   0x000000dc   0x0000002c   Code   RO         2311    .text               mc_p.l(uidiv.o)
    0x00000108   0x00000108   0x00000014   Code   RO         2574    .text               mc_p.l(uread4.o)
    0x0000011c   0x0000011c   0x00000024   Code   RO         2604    .text               mc_p.l(init.o)
    0x00000140   0x00000140   0x00000300   Code   RO         1995    i.CheckUpade        comupdatecommand.o
    0x00000440   0x00000440   0x00000060   Code   RO           91    i.GPIO_ConfigDriver  m1130_gpio.o
    0x000004a0   0x000004a0   0x00000004   Code   RO          108    i.GPIO_SetBits      m1130_gpio.o
    0x000004a4   0x000004a4   0x00000034   Code   RO          109    i.GPIO_SetPinDir    m1130_gpio.o
    0x000004d8   0x000004d8   0x00000064   Code   RO          110    i.GPIO_SetPinMux    m1130_gpio.o
    0x0000053c   0x0000053c   0x0000000c   Code   RO            3    i.Get_SystemTick    system_m1130.o
    0x00000548   0x00000548   0x0000001c   Code   RO         1474    i.HardFault_Handler  m1130_it.o
    0x00000564   0x00000564   0x000001bc   Code   RO         2247    i.ILI9488_CTC35_Initial_Code  lcdinit.o
    0x00000720   0x00000720   0x00000068   Code   RO         2142    i.LCD_Clear         lcddriver.o
    0x00000788   0x00000788   0x0000000a   Code   RO         2143    i.LCD_DisplayOff    lcddriver.o
    0x00000792   0x00000792   0x0000000a   Code   RO         2144    i.LCD_DisplayOn     lcddriver.o
    0x0000079c   0x0000079c   0x000000b4   Code   RO         2249    i.LCD_Init          lcdinit.o
    0x00000850   0x00000850   0x00000004   Code   RO         2145    i.LCD_Read_DATA     lcddriver.o
    0x00000854   0x00000854   0x00000024   Code   RO         2146    i.LCD_Scan_Dir      lcddriver.o
    0x00000878   0x00000878   0x0000004a   Code   RO         2147    i.LCD_Scroll        lcddriver.o
    0x000008c2   0x000008c2   0x00000048   Code   RO         2148    i.LCD_SetCursor     lcddriver.o
    0x0000090a   0x0000090a   0x00000010   Code   RO         2149    i.LCD_WriteReg      lcddriver.o
    0x0000091a   0x0000091a   0x00000002   PAD
    0x0000091c   0x0000091c   0x00000034   Code   RO         2150    i.LCD_Write_CMD     lcddriver.o
    0x00000950   0x00000950   0x00000034   Code   RO         2151    i.LCD_Write_DATA    lcddriver.o
    0x00000984   0x00000984   0x00000002   Code   RO         1476    i.NMI_Handler       m1130_it.o
    0x00000986   0x00000986   0x00000002   PAD
    0x00000988   0x00000988   0x00000050   Code   RO          567    i.NVIC_Init         misc.o
    0x000009d8   0x000009d8   0x00000018   Code   RO         1402    i.OTP_ReadADJ       m1130_otp.o
    0x000009f0   0x000009f0   0x0000000c   Code   RO         1403    i.OTP_ReadADJ_10K   m1130_otp.o
    0x000009fc   0x000009fc   0x0000000a   Code   RO         1404    i.OTP_ReadADJ_12M   m1130_otp.o
    0x00000a06   0x00000a06   0x0000000c   Code   RO         1405    i.OTP_ReadADJ_LDO   m1130_otp.o
    0x00000a12   0x00000a12   0x0000000c   Code   RO         1406    i.OTP_ReadADJ_RTC_CAP  m1130_otp.o
    0x00000a1e   0x00000a1e   0x0000000c   Code   RO         1408    i.OTP_Reset         m1130_otp.o
    0x00000a2a   0x00000a2a   0x00000002   Code   RO         1477    i.PendSV_Handler    m1130_it.o
    0x00000a2c   0x00000a2c   0x0000000c   Code   RO          599    i.QSPI_CS_High      m1130_qspi.o
    0x00000a38   0x00000a38   0x0000000c   Code   RO          600    i.QSPI_CS_Low       m1130_qspi.o
    0x00000a44   0x00000a44   0x00000010   Code   RO          601    i.QSPI_DMACmd       m1130_qspi.o
    0x00000a54   0x00000a54   0x00000022   Code   RO          602    i.QSPI_DataConfig   m1130_qspi.o
    0x00000a76   0x00000a76   0x0000000e   Code   RO          603    i.QSPI_GetFlagStatus  m1130_qspi.o
    0x00000a84   0x00000a84   0x0000004c   Code   RO          604    i.QSPI_HwInit       m1130_qspi.o
    0x00000ad0   0x00000ad0   0x00000024   Code   RO          605    i.QSPI_ModeSet      m1130_qspi.o
    0x00000af4   0x00000af4   0x00000044   Code   RO          607    i.QSPI_SetPowerState  m1130_qspi.o
    0x00000b38   0x00000b38   0x00000124   Code   RO          260    i.RCC_GetClocksFreq  m1130_rcc.o
    0x00000c5c   0x00000c5c   0x0000001c   Code   RO          269    i.RCC_ResetAHBCLK   m1130_rcc.o
    0x00000c78   0x00000c78   0x0000000a   Code   RO          270    i.RCC_SETCLKDivider  m1130_rcc.o
    0x00000c82   0x00000c82   0x00000010   Code   RO          272    i.RCC_SetAHBCLK     m1130_rcc.o
    0x00000c92   0x00000c92   0x00000010   Code   RO          273    i.RCC_SetPRESETCTRL  m1130_rcc.o
    0x00000ca2   0x00000ca2   0x00000002   PAD
    0x00000ca4   0x00000ca4   0x00000014   Code   RO          275    i.RCC_UARTCLKSel    m1130_rcc.o
    0x00000cb8   0x00000cb8   0x00000014   Code   RO         1874    i.SDSpiCS_High      mmc_sd.o
    0x00000ccc   0x00000ccc   0x00000014   Code   RO         1875    i.SDSpiCS_Low       mmc_sd.o
    0x00000ce0   0x00000ce0   0x0000000c   Code   RO         1876    i.SD_DisSelect      mmc_sd.o
    0x00000cec   0x00000cec   0x0000001c   Code   RO         1877    i.SD_ExternCLk      mmc_sd.o
    0x00000d08   0x00000d08   0x00000160   Code   RO         1881    i.SD_Initialize     mmc_sd.o
    0x00000e68   0x00000e68   0x0000006c   Code   RO         1882    i.SD_ReadDisk       mmc_sd.o
    0x00000ed4   0x00000ed4   0x00000058   Code   RO         1883    i.SD_RecvData       mmc_sd.o
    0x00000f2c   0x00000f2c   0x00000064   Code   RO         1884    i.SD_SPI_Init       mmc_sd.o
    0x00000f90   0x00000f90   0x00000020   Code   RO         1885    i.SD_SPI_SpeedHigh  mmc_sd.o
    0x00000fb0   0x00000fb0   0x00000024   Code   RO         1886    i.SD_SPI_SpeedLow   mmc_sd.o
    0x00000fd4   0x00000fd4   0x00000016   Code   RO         1887    i.SD_Select         mmc_sd.o
    0x00000fea   0x00000fea   0x00000002   PAD
    0x00000fec   0x00000fec   0x00000074   Code   RO         1889    i.SD_SendCmd        mmc_sd.o
    0x00001060   0x00001060   0x00000034   Code   RO         1890    i.SD_WaitReady      mmc_sd.o
    0x00001094   0x00001094   0x00000002   Code   RO         1478    i.SVC_Handler       m1130_it.o
    0x00001096   0x00001096   0x00000002   Code   RO         1479    i.SysTick_Handler   m1130_it.o
    0x00001098   0x00001098   0x00000050   Code   RO         1550    i.SystemADJInit     main.o
    0x000010e8   0x000010e8   0x00000068   Code   RO            4    i.SystemHeart_Init  system_m1130.o
    0x00001150   0x00001150   0x0000005c   Code   RO            5    i.SystemInit        system_m1130.o
    0x000011ac   0x000011ac   0x00000018   Code   RO         1480    i.TIM16_IRQHandler  m1130_it.o
    0x000011c4   0x000011c4   0x00000006   Code   RO          870    i.TIM_ClearITPendingBit  m1130_tim.o
    0x000011ca   0x000011ca   0x00000002   PAD
    0x000011cc   0x000011cc   0x00000018   Code   RO          875    i.TIM_Cmd           m1130_tim.o
    0x000011e4   0x000011e4   0x00000010   Code   RO          899    i.TIM_ITConfig      m1130_tim.o
    0x000011f4   0x000011f4   0x00000010   Code   RO          932    i.TIM_SelectOutputTrigger  m1130_tim.o
    0x00001204   0x00001204   0x00000064   Code   RO          946    i.TIM_TimeBaseInit  m1130_tim.o
    0x00001268   0x00001268   0x00000012   Code   RO          947    i.TIM_TimeBaseStructInit  m1130_tim.o
    0x0000127a   0x0000127a   0x0000000e   Code   RO          420    i.UART_Cmd          m1130_usart.o
    0x00001288   0x00001288   0x0000000e   Code   RO          422    i.UART_GetFlagStatus  m1130_usart.o
    0x00001296   0x00001296   0x00000002   PAD
    0x00001298   0x00001298   0x00000080   Code   RO          425    i.UART_Init         m1130_usart.o
    0x00001318   0x00001318   0x00000024   Code   RO          434    i.UART_Reset        m1130_usart.o
    0x0000133c   0x0000133c   0x00000004   Code   RO          435    i.UART_SendData     m1130_usart.o
    0x00001340   0x00001340   0x00000022   Code   RO          437    i.UART_StructInit   m1130_usart.o
    0x00001362   0x00001362   0x00000002   PAD
    0x00001364   0x00001364   0x00000020   Code   RO         2468    i.__0printf$6       mc_p.l(printf6.o)
    0x00001384   0x00001384   0x0000000e   Code   RO         2618    i.__scatterload_copy  mc_p.l(handlers.o)
    0x00001392   0x00001392   0x00000002   Code   RO         2619    i.__scatterload_null  mc_p.l(handlers.o)
    0x00001394   0x00001394   0x0000000e   Code   RO         2620    i.__scatterload_zeroinit  mc_p.l(handlers.o)
    0x000013a2   0x000013a2   0x00000002   PAD
    0x000013a4   0x000013a4   0x00000304   Code   RO         2475    i._printf_core      mc_p.l(printf6.o)
    0x000016a8   0x000016a8   0x00000020   Code   RO         2476    i._printf_post_padding  mc_p.l(printf6.o)
    0x000016c8   0x000016c8   0x0000002c   Code   RO         2477    i._printf_pre_padding  mc_p.l(printf6.o)
    0x000016f4   0x000016f4   0x000000b4   Code   RO         1551    i.checkCapDly       main.o
    0x000017a8   0x000017a8   0x0000006c   Code   RO         1710    i.check_fs          ff.o
    0x00001814   0x00001814   0x0000002c   Code   RO         1711    i.clmt_clust        ff.o
    0x00001840   0x00001840   0x00000018   Code   RO         1712    i.clust2sect        ff.o
    0x00001858   0x00001858   0x00000134   Code   RO         1713    i.create_name       ff.o
    0x0000198c   0x0000198c   0x0000000e   Code   RO            6    i.delay             system_m1130.o
    0x0000199a   0x0000199a   0x00000002   PAD
    0x0000199c   0x0000199c   0x00000034   Code   RO         1627    i.delay_ms          delay.o
    0x000019d0   0x000019d0   0x00000074   Code   RO         1714    i.dir_next          ff.o
    0x00001a44   0x00001a44   0x0000007e   Code   RO         1716    i.dir_sdi           ff.o
    0x00001ac2   0x00001ac2   0x00000018   Code   RO         1659    i.disk_initialize   diskio.o
    0x00001ada   0x00001ada   0x00000034   Code   RO         1661    i.disk_read         diskio.o
    0x00001b0e   0x00001b0e   0x00000004   Code   RO         1662    i.disk_status       diskio.o
    0x00001b12   0x00001b12   0x00000002   PAD
    0x00001b14   0x00001b14   0x00000068   Code   RO         1996    i.disp_Tip_Logo     comupdatecommand.o
    0x00001b7c   0x00001b7c   0x00000012   Code   RO         1717    i.f_close           ff.o
    0x00001b8e   0x00001b8e   0x0000017e   Code   RO         1721    i.f_lseek           ff.o
    0x00001d0c   0x00001d0c   0x00000050   Code   RO         1722    i.f_mount           ff.o
    0x00001d5c   0x00001d5c   0x0000007c   Code   RO         1723    i.f_open            ff.o
    0x00001dd8   0x00001dd8   0x00000110   Code   RO         1725    i.f_read            ff.o
    0x00001ee8   0x00001ee8   0x000001e8   Code   RO         1728    i.find_volume       ff.o
    0x000020d0   0x000020d0   0x000000b4   Code   RO         1729    i.follow_path       ff.o
    0x00002184   0x00002184   0x00000024   Code   RO         1552    i.fputc             main.o
    0x000021a8   0x000021a8   0x000000c2   Code   RO         1730    i.get_fat           ff.o
    0x0000226a   0x0000226a   0x0000003c   Code   RO         1732    i.get_ldnumber      ff.o
    0x000022a6   0x000022a6   0x0000001e   Code   RO         1733    i.ld_clust          ff.o
    0x000022c4   0x000022c4   0x00000080   Code   RO         1553    i.main              main.o
    0x00002344   0x00002344   0x00000010   Code   RO         1734    i.mem_cpy           ff.o
    0x00002354   0x00002354   0x00000028   Code   RO         1735    i.move_window       ff.o
    0x0000237c   0x0000237c   0x00000010   Code   RO          674    i.qspi_delay        m1130_eval_qspi.o
    0x0000238c   0x0000238c   0x00000084   Code   RO          676    i.qspi_flash_SetDriverStrength  m1130_eval_qspi.o
    0x00002410   0x00002410   0x00000068   Code   RO          677    i.qspi_flash_enableQE  m1130_eval_qspi.o
    0x00002478   0x00002478   0x00000060   Code   RO          678    i.qspi_flash_erase_block_4k  m1130_eval_qspi.o
    0x000024d8   0x000024d8   0x00000078   Code   RO          679    i.qspi_flash_global_unprotect  m1130_eval_qspi.o
    0x00002550   0x00002550   0x00000030   Code   RO          680    i.qspi_flash_read   m1130_eval_qspi.o
    0x00002580   0x00002580   0x00000044   Code   RO          682    i.qspi_flash_read_buf  m1130_eval_qspi.o
    0x000025c4   0x000025c4   0x00000048   Code   RO          683    i.qspi_flash_read_page  m1130_eval_qspi.o
    0x0000260c   0x0000260c   0x00000030   Code   RO          684    i.qspi_flash_read_status1  m1130_eval_qspi.o
    0x0000263c   0x0000263c   0x00000030   Code   RO          685    i.qspi_flash_read_status2  m1130_eval_qspi.o
    0x0000266c   0x0000266c   0x00000030   Code   RO          686    i.qspi_flash_read_status3  m1130_eval_qspi.o
    0x0000269c   0x0000269c   0x0000003c   Code   RO          687    i.qspi_flash_send_addr  m1130_eval_qspi.o
    0x000026d8   0x000026d8   0x00000014   Code   RO          688    i.qspi_flash_send_cmd  m1130_eval_qspi.o
    0x000026ec   0x000026ec   0x00000044   Code   RO          690    i.qspi_flash_write_buf  m1130_eval_qspi.o
    0x00002730   0x00002730   0x00000022   Code   RO          691    i.qspi_flash_write_enable  m1130_eval_qspi.o
    0x00002752   0x00002752   0x00000002   PAD
    0x00002754   0x00002754   0x00000088   Code   RO          692    i.qspi_flash_write_page  m1130_eval_qspi.o
    0x000027dc   0x000027dc   0x00000164   Code   RO          693    i.quad_spi_flash_init  m1130_eval_qspi.o
    0x00002940   0x00002940   0x00000060   Code   RO         1555    i.serial_init       main.o
    0x000029a0   0x000029a0   0x00000010   Code   RO         1556    i.startXIP          main.o
    0x000029b0   0x000029b0   0x000000b0   Code   RO          701    i.start_quad_spi_dma_rx  m1130_eval_qspi.o
    0x00002a60   0x00002a60   0x00000098   Code   RO          702    i.start_quad_spi_dma_tx  m1130_eval_qspi.o
    0x00002af8   0x00002af8   0x00000060   Code   RO         1557    i.switchQuad        main.o
    0x00002b58   0x00002b58   0x0000002c   Code   RO         1736    i.validate          ff.o
    0x00002b84   0x00002b84   0x00000086   Code   RO         2038    i.xipRX             m1130_xip_write.o
    0x00002c0a   0x00002c0a   0x0000009c   Code   RO         2039    i.xipTX             m1130_xip_write.o
    0x00002ca6   0x00002ca6   0x0000004e   Code   RO         2040    i.xip_DataConfig    m1130_xip_write.o
    0x00002cf4   0x00002cf4   0x0000000a   Code   RO         2041    i.xip_GetFlagStatus  m1130_xip_write.o
    0x00002cfe   0x00002cfe   0x00000002   PAD
    0x00002d00   0x00002d00   0x00000028   Data   RO         2153    .constdata          lcddriver.o
    0x00002d28   0x00002d28   0x00002880   Data   RO         2284    .constdata          updatelogo.o
    0x000055a8   0x000055a8   0x00000004   Data   RO         2292    .constdata          guiconfig.o
    0x000055ac   0x000055ac   0x00000004   Data   RO         2293    .constdata          guiconfig.o
    0x000055b0   0x000055b0   0x00000020   Data   RO         2616    Region$$Table       anon$$obj.o


    Execution Region RW_IRAM1 (Exec base: 0x00007700, Load base: 0x000055d0, Size: 0x000006a8, Max: 0x000008f8, ABSOLUTE)

    Exec Addr    Load Addr    Size         Type   Attr      Idx    E Section Name        Object

    0x00007700   0x000055d0   0x00000004   Data   RW            7    .data               system_m1130.o
    0x00007704   0x000055d4   0x00000010   Data   RW          704    .data               m1130_eval_qspi.o
    0x00007714   0x000055e4   0x0000000c   Data   RW         1737    .data               ff.o
    0x00007720   0x000055f0   0x00000001   Data   RW         1893    .data               mmc_sd.o
    0x00007721   0x000055f1   0x00000003   PAD
    0x00007724   0x000055f4   0x00000004   Data   RW         1998    .data               comupdatecommand.o
    0x00007728   0x000055f8   0x00000010   Data   RW         2154    .data               lcddriver.o
    0x00007738   0x00005608   0x00000004   Data   RW         2590    .data               mc_p.l(stdout.o)
    0x0000773c        -       0x00000020   Zero   RW         1892    .bss                mmc_sd.o
    0x0000775c        -       0x00000348   Zero   RW         1997    .bss                comupdatecommand.o
    0x00007aa4   0x0000560c   0x00000004   PAD
    0x00007aa8        -       0x00000300   Zero   RW           82    STACK               startup_m1130.o


==============================================================================

Image component sizes


      Code (inc. data)   RO Data    RW Data    ZI Data      Debug   Object Name

       872        348          0          4        840       5408   comupdatecommand.o
        52         10          0          0          0        531   delay.o
        80          0          0          0          0       3672   diskio.o
      2654         50          0         12          0      22751   ff.o
         0          0          8          0          0       1842   guiconfig.o
       430         60         40         16          0       9785   lcddriver.o
       624         36          0          0          0       1444   lcdinit.o
      1802        122          0         16          0      19106   m1130_eval_qspi.o
       252         30          0          0          0       3773   m1130_gpio.o
        60         28          0          0          0       2866   m1130_it.o
        82         10          0          0          0       4256   m1130_otp.o
       268         14          0          0          0      10144   m1130_qspi.o
       382         22          0          0          0       5913   m1130_rcc.o
       180         28          0          0          0       5546   m1130_tim.o
       230         28          0          0          0       5187   m1130_usart.o
       378          0          0          0          0       4124   m1130_xip_write.o
       632         94          0          0          0       5159   main.o
        80         10          0          0          0       1172   misc.o
       986        108          0          1         32       9132   mmc_sd.o
        28          8        172          0        768        784   startup_m1130.o
       222         26          0          4          0     100714   system_m1130.o
         0          0      10368          0          0        576   updatelogo.o

    ----------------------------------------------------------------------
     10316       1032      10620         56       1644     223885   Object Totals
         0          0         32          0          0          0   (incl. Generated)
        22          0          0          3          4          0   (incl. Padding)

    ----------------------------------------------------------------------

      Code (inc. data)   RO Data    RW Data    ZI Data      Debug   Library Member Name

         0          0          0          0          0          0   entry.o
         0          0          0          0          0          0   entry10a.o
         0          0          0          0          0          0   entry11a.o
         8          4          0          0          0          0   entry2.o
         4          0          0          0          0          0   entry5.o
         0          0          0          0          0          0   entry7b.o
         0          0          0          0          0          0   entry8b.o
         8          4          0          0          0          0   entry9a.o
        30          0          0          0          0          0   handlers.o
        36          8          0          0          0         68   init.o
       880         12          0          0          0        324   printf6.o
         0          0          0          4          0          0   stdout.o
        44          0          0          0          0         72   uidiv.o
        20          0          0          0          0         60   uread4.o

    ----------------------------------------------------------------------
      1032         28          0          4          0        524   Library Totals
         2          0          0          0          0          0   (incl. Padding)

    ----------------------------------------------------------------------

      Code (inc. data)   RO Data    RW Data    ZI Data      Debug   Library Name

      1030         28          0          4          0        524   mc_p.l

    ----------------------------------------------------------------------
      1032         28          0          4          0        524   Library Totals

    ----------------------------------------------------------------------

==============================================================================


      Code (inc. data)   RO Data    RW Data    ZI Data      Debug   

     11348       1060      10620         60       1644     218973   Grand Totals
     11348       1060      10620         60       1644     218973   ELF Image Totals
     11348       1060      10620         60          0          0   ROM Totals

==============================================================================

    Total RO  Size (Code + RO Data)                21968 (  21.45kB)
    Total RW  Size (RW Data + ZI Data)              1704 (   1.66kB)
    Total ROM Size (Code + RO Data + RW Data)      22028 (  21.51kB)

==============================================================================

