Component: ARM Compiler 5.06 update 2 (build 183) Tool: armlink [4d35b7]

==============================================================================

Section Cross References

    system_m1130.o(i.SystemInit) refers to system_m1130.o(i.delay) for delay
    startup_m1130.o(RESET) refers to startup_m1130.o(STACK) for __initial_sp
    startup_m1130.o(RESET) refers to startup_m1130.o(.text) for Reset_Handler
    startup_m1130.o(RESET) refers to m1130_it.o(i.NMI_Handler) for NMI_Handler
    startup_m1130.o(RESET) refers to m1130_it.o(i.HardFault_Handler) for HardFault_Handler
    startup_m1130.o(RESET) refers to m1130_it.o(i.SVC_Handler) for SVC_Handler
    startup_m1130.o(RESET) refers to m1130_it.o(i.PendSV_Handler) for PendSV_Handler
    startup_m1130.o(RESET) refers to m1130_it.o(i.SysTick_Handler) for SysTick_Handler
    startup_m1130.o(.text) refers to system_m1130.o(i.SystemInit) for SystemInit
    startup_m1130.o(.text) refers to entry.o(.ARM.Collect$$$$00000000) for __main
    m1130_gpio.o(i.GPIO_Reset) refers to m1130_rcc.o(i.RCC_ResetAHBCLK) for RCC_ResetAHBCLK
    m1130_rcc.o(i.RCC_GetClocksFreq) refers to uidiv.o(.text) for __aeabi_uidivmod
    m1130_rcc.o(i.RCC_ResetAHBCLK) refers to m1130_rcc.o(i.RCC_SetAHBCLK) for RCC_SetAHBCLK
    m1130_rcc.o(i.RCC_ResetAHBCLK) refers to m1130_rcc.o(i.RCC_SetPRESETCTRL) for RCC_SetPRESETCTRL
    m1130_usart.o(i.UART_Init) refers to m1130_rcc.o(i.RCC_GetClocksFreq) for RCC_GetClocksFreq
    m1130_usart.o(i.UART_Init) refers to uidiv.o(.text) for __aeabi_uidivmod
    m1130_usart.o(i.UART_Reset) refers to m1130_rcc.o(i.RCC_ResetAHBCLK) for RCC_ResetAHBCLK
    m1130_qspi.o(i.QSPI_HwInit) refers to m1130_qspi.o(i.QSPI_SetPowerState) for QSPI_SetPowerState
==============================================================================

Removing Unused input sections from the image.

    Removing system_m1130.o(.rev16_text), (4 bytes).
    Removing system_m1130.o(.revsh_text), (4 bytes).
    Removing startup_m1130.o(HEAP), (128 bytes).
    Removing m1130_gpio.o(.rev16_text), (4 bytes).
    Removing m1130_gpio.o(.revsh_text), (4 bytes).
    Removing m1130_gpio.o(i.GPIO_DataMask), (28 bytes).
    Removing m1130_gpio.o(i.GPIO_DataUnmask), (28 bytes).
    Removing m1130_gpio.o(i.GPIO_EdgeITClear), (4 bytes).
    Removing m1130_gpio.o(i.GPIO_EdgeITEnable), (30 bytes).
    Removing m1130_gpio.o(i.GPIO_GetMaskITStatus), (14 bytes).
    Removing m1130_gpio.o(i.GPIO_GetOriginalITStatus), (14 bytes).
    Removing m1130_gpio.o(i.GPIO_Init), (144 bytes).
    Removing m1130_gpio.o(i.GPIO_LevelITEnable), (22 bytes).
    Removing m1130_gpio.o(i.GPIO_MaskIT), (4 bytes).
    Removing m1130_gpio.o(i.GPIO_PinLockConfig), (28 bytes).
    Removing m1130_gpio.o(i.GPIO_ReadInputData), (4 bytes).
    Removing m1130_gpio.o(i.GPIO_ReadOutputData), (4 bytes).
    Removing m1130_gpio.o(i.GPIO_ReadOutputDataBit), (14 bytes).
==============================================================================

Image Symbol Table

    Local Symbols

    Symbol Name                              Value     Ov Type        Size  Object(Section)

    RESET                                    0x00000000   Section      172  startup_m1130.o(RESET)
    ../clib/microlib/division.c              0x00000000   Number         0  uldiv.o ABSOLUTE
    ../clib/microlib/division.c              0x00000000   Number         0  idiv.o ABSOLUTE
    ../clib/microlib/division.c              0x00000000   Number         0  uidiv.o ABSOLUTE
    ../clib/microlib/init/entry.s            0x00000000   Number         0  entry.o ABSOLUTE
    ../clib/microlib/init/entry.s            0x00000000   Number         0  entry2.o ABSOLUTE
    ../clib/microlib/init/entry.s            0x00000000   Number         0  entry10a.o ABSOLUTE
    ../clib/microlib/init/entry.s            0x00000000   Number         0  entry7b.o ABSOLUTE
    ../clib/microlib/init/entry.s            0x00000000   Number         0  entry5.o ABSOLUTE
    ../clib/microlib/init/entry.s            0x00000000   Number         0  entry10b.o ABSOLUTE
    ../clib/microlib/init/entry.s            0x00000000   Number         0  entry11a.o ABSOLUTE
    ../clib/microlib/init/entry.s            0x00000000   Number         0  entry7a.o ABSOLUTE
    ../clib/microlib/init/entry.s            0x00000000   Number         0  entry11b.o ABSOLUTE
    ../clib/microlib/init/entry.s            0x00000000   Number         0  entry8a.o ABSOLUTE
    ../clib/microlib/init/entry.s            0x00000000   Number         0  entry8b.o ABSOLUTE
    ../clib/microlib/init/entry.s            0x00000000   Number         0  entry9a.o ABSOLUTE
    ../clib/microlib/init/entry.s            0x00000000   Number         0  entry9b.o ABSOLUTE
    ../clib/microlib/longlong.c              0x00000000   Number         0  llsshr.o ABSOLUTE
    ../clib/microlib/longlong.c              0x00000000   Number         0  llushr.o ABSOLUTE
    ../clib/microlib/longlong.c              0x00000000   Number         0  llshl.o ABSOLUTE
    ../clib/microlib/printf/printf.c         0x00000000   Number         0  printf7.o ABSOLUTE
    ../clib/microlib/printf/printf.c         0x00000000   Number         0  printfa.o ABSOLUTE
    ../clib/microlib/printf/printf.c         0x00000000   Number         0  printf6.o ABSOLUTE
    ../clib/microlib/printf/printf.c         0x00000000   Number         0  printf8.o ABSOLUTE
    ../clib/microlib/printf/printf.c         0x00000000   Number         0  printf4.o ABSOLUTE
    ../clib/microlib/printf/printf.c         0x00000000   Number         0  printf0.o ABSOLUTE
    ../clib/microlib/printf/printf.c         0x00000000   Number         0  printf5.o ABSOLUTE
    ../clib/microlib/printf/printf.c         0x00000000   Number         0  printf3.o ABSOLUTE
    ../clib/microlib/printf/printf.c         0x00000000   Number         0  printf2.o ABSOLUTE
    ../clib/microlib/printf/printf.c         0x00000000   Number         0  printf1.o ABSOLUTE
    ../clib/microlib/printf/printf.c         0x00000000   Number         0  printfb.o ABSOLUTE
    ../clib/microlib/printf/stubs.s          0x00000000   Number         0  stubs.o ABSOLUTE
    ../clib/microlib/stdio/streams.c         0x00000000   Number         0  stdout.o ABSOLUTE
    ../clib/microlib/string/memset.c         0x00000000   Number         0  memseta.o ABSOLUTE
    ../clib/microlib/stubs.s                 0x00000000   Number         0  iusefp.o ABSOLUTE
    ../clib/microlib/unhosted.c              0x00000000   Number         0  uread4.o ABSOLUTE
    ../fplib/microlib/fpadd.c                0x00000000   Number         0  dadd.o ABSOLUTE
    ../fplib/microlib/fpadd.c                0x00000000   Number         0  fadd.o ABSOLUTE
    ../fplib/microlib/fpdiv.c                0x00000000   Number         0  ddiv.o ABSOLUTE
    ../fplib/microlib/fpdiv.c                0x00000000   Number         0  fdiv.o ABSOLUTE
    ../fplib/microlib/fpepilogue.c           0x00000000   Number         0  fepilogue.o ABSOLUTE
    ../fplib/microlib/fpepilogue.c           0x00000000   Number         0  depilogue.o ABSOLUTE
    ../fplib/microlib/fpfix.c                0x00000000   Number         0  dfixul.o ABSOLUTE
    ../fplib/microlib/fpfix.c                0x00000000   Number         0  ffixi.o ABSOLUTE
    ../fplib/microlib/fpflt.c                0x00000000   Number         0  fflti.o ABSOLUTE
    ../fplib/microlib/fpmul.c                0x00000000   Number         0  fmul.o ABSOLUTE
    ../fplib/microlib/fpmul.c                0x00000000   Number         0  dmul.o ABSOLUTE
    ..\..\..\Libraries\CMSIS\Device\ALPOS\M1130\Source\Templates\arm\startup_m1130.s 0x00000000   Number         0  startup_m1130.o ABSOLUTE
    ..\..\..\Libraries\CMSIS\Device\ALPOS\M1130\Source\Templates\system_m1130.c 0x00000000   Number         0  system_m1130.o ABSOLUTE
    ..\..\..\Libraries\M1130_StdPeriph_Driver\src\m1130_eval_qspi.c 0x00000000   Number         0  m1130_eval_qspi.o ABSOLUTE
    ..\..\..\Libraries\M1130_StdPeriph_Driver\src\m1130_gpio.c 0x00000000   Number         0  m1130_gpio.o ABSOLUTE
    ..\..\..\Libraries\M1130_StdPeriph_Driver\src\m1130_qspi.c 0x00000000   Number         0  m1130_qspi.o ABSOLUTE
    ..\..\..\Libraries\M1130_StdPeriph_Driver\src\m1130_rcc.c 0x00000000   Number         0  m1130_rcc.o ABSOLUTE
    ..\..\..\Libraries\M1130_StdPeriph_Driver\src\m1130_usart.c 0x00000000   Number         0  m1130_usart.o ABSOLUTE
    ..\..\..\Libraries\M1130_StdPeriph_Driver\src\misc.c 0x00000000   Number         0  misc.o ABSOLUTE
    ..\\..\\..\\Libraries\\CMSIS\\Device\\ALPOS\\M1130\\Source\\Templates\\system_m1130.c 0x00000000   Number         0  system_m1130.o ABSOLUTE
    ..\\..\\..\\Libraries\\M1130_StdPeriph_Driver\\src\\m1130_eval_qspi.c 0x00000000   Number         0  m1130_eval_qspi.o ABSOLUTE
    ..\\..\\..\\Libraries\\M1130_StdPeriph_Driver\\src\\m1130_gpio.c 0x00000000   Number         0  m1130_gpio.o ABSOLUTE
    ..\\..\\..\\Libraries\\M1130_StdPeriph_Driver\\src\\m1130_qspi.c 0x00000000   Number         0  m1130_qspi.o ABSOLUTE
    ..\\..\\..\\Libraries\\M1130_StdPeriph_Driver\\src\\m1130_rcc.c 0x00000000   Number         0  m1130_rcc.o ABSOLUTE
    ..\\..\\..\\Libraries\\M1130_StdPeriph_Driver\\src\\m1130_usart.c 0x00000000   Number         0  m1130_usart.o ABSOLUTE
    ..\\..\\..\\Libraries\\M1130_StdPeriph_Driver\\src\\misc.c 0x00000000   Number         0  misc.o ABSOLUTE
    ..\\src\\m1130_it.c                      0x00000000   Number         0  m1130_it.o ABSOLUTE
    ..\\src\\main.c                          0x00000000   Number         0  main.o ABSOLUTE
    ..\src\m1130_it.c                        0x00000000   Number         0  m1130_it.o ABSOLUTE
    ..\src\main.c                            0x00000000   Number         0  main.o ABSOLUTE
    FATFS\\src\\MMC_SD.C                     0x00000000   Number         0  mmc_sd.o ABSOLUTE
    FATFS\\src\\comUpdateCommand.c           0x00000000   Number         0  comupdatecommand.o ABSOLUTE
    FATFS\\src\\m1130_xip_write.c            0x00000000   Number         0  m1130_xip_write.o ABSOLUTE
    FATFS\src\MMC_SD.C                       0x00000000   Number         0  mmc_sd.o ABSOLUTE
    FATFS\src\comUpdateCommand.c             0x00000000   Number         0  comupdatecommand.o ABSOLUTE
    FATFS\src\diskio.c                       0x00000000   Number         0  diskio.o ABSOLUTE
    FATFS\src\ff.c                           0x00000000   Number         0  ff.o ABSOLUTE
    FATFS\src\m1130_xip_write.c              0x00000000   Number         0  m1130_xip_write.o ABSOLUTE
    LCD\TouchDriver.c                        0x00000000   Number         0  touchdriver.o ABSOLUTE
    LCD\TouchInit.c                          0x00000000   Number         0  touchinit.o ABSOLUTE
    LCD\\TouchDriver.c                       0x00000000   Number         0  touchdriver.o ABSOLUTE
    LCD\\TouchInit.c                         0x00000000   Number         0  touchinit.o ABSOLUTE
    LCD\\lcdDriver.c                         0x00000000   Number         0  lcddriver.o ABSOLUTE
    LCD\\lcdInit.c                           0x00000000   Number         0  lcdinit.o ABSOLUTE
    LCD\\touchInterface.c                    0x00000000   Number         0  touchinterface.o ABSOLUTE
    LCD\lcdDriver.c                          0x00000000   Number         0  lcddriver.o ABSOLUTE
    LCD\lcdInit.c                            0x00000000   Number         0  lcdinit.o ABSOLUTE
    LCD\touchInterface.c                     0x00000000   Number         0  touchinterface.o ABSOLUTE
    LCD\updateLogo.c                         0x00000000   Number         0  updatelogo.o ABSOLUTE
    Lib\PRNG.c                               0x00000000   Number         0  prng.o ABSOLUTE
    Lib\encipher.c                           0x00000000   Number         0  encipher.o ABSOLUTE
    Lib\mcuDriver.c                          0x00000000   Number         0  mcudriver.o ABSOLUTE
    cdrcmple.s                               0x00000000   Number         0  cdrcmple.o ABSOLUTE
    dc.s                                     0x00000000   Number         0  dc.o ABSOLUTE
    handlers.s                               0x00000000   Number         0  handlers.o ABSOLUTE
    includes\UsersUse\guiConfig.c            0x00000000   Number         0  guiconfig.o ABSOLUTE
    init.s                                   0x00000000   Number         0  init.o ABSOLUTE
    .ARM.Collect$$$$00000000                 0x000000ac   Section        0  entry.o(.ARM.Collect$$$$00000000)
    .ARM.Collect$$$$00000001                 0x000000ac   Section        4  entry2.o(.ARM.Collect$$$$00000001)
    .ARM.Collect$$$$00000004                 0x000000b0   Section        4  entry5.o(.ARM.Collect$$$$00000004)
    .ARM.Collect$$$$00000008                 0x000000b4   Section        0  entry7b.o(.ARM.Collect$$$$00000008)
    .ARM.Collect$$$$0000000A                 0x000000b4   Section        0  entry8b.o(.ARM.Collect$$$$0000000A)
    .ARM.Collect$$$$0000000B                 0x000000b4   Section        8  entry9a.o(.ARM.Collect$$$$0000000B)
    .ARM.Collect$$$$0000000D                 0x000000bc   Section        0  entry10a.o(.ARM.Collect$$$$0000000D)
    .ARM.Collect$$$$0000000F                 0x000000bc   Section        0  entry11a.o(.ARM.Collect$$$$0000000F)
    .ARM.Collect$$$$00002712                 0x000000bc   Section        4  entry2.o(.ARM.Collect$$$$00002712)
    __lit__00000000                          0x000000bc   Data           4  entry2.o(.ARM.Collect$$$$00002712)
    .text                                    0x000000c0   Section       28  startup_m1130.o(.text)
    .text                                    0x000000dc   Section        0  uidiv.o(.text)
    .text                                    0x00000108   Section        0  idiv.o(.text)
    .text                                    0x00000130   Section        0  memseta.o(.text)
    .text                                    0x00000154   Section        0  uread4.o(.text)
    .text                                    0x00000168   Section        0  fadd.o(.text)
    .text                                    0x0000021a   Section        0  fmul.o(.text)
    .text                                    0x00000294   Section        0  fdiv.o(.text)
    .text                                    0x00000310   Section        0  fflti.o(.text)
    .text                                    0x00000326   Section        0  ffixi.o(.text)
    .text                                    0x00000358   Section        0  fepilogue.o(.text)
    .text                                    0x00000358   Section        0  iusefp.o(.text)
    .text                                    0x000003dc   Section       36  init.o(.text)
    i.CheckUpade                             0x00000400   Section        0  comupdatecommand.o(i.CheckUpade)
    i.GPIO_ConfigDriver                      0x000006e0   Section        0  m1130_gpio.o(i.GPIO_ConfigDriver)
    i.GPIO_ConfigPull                        0x00000740   Section        0  m1130_gpio.o(i.GPIO_ConfigPull)
    i.GPIO_ReadInputDataBit                  0x000007a0   Section        0  m1130_gpio.o(i.GPIO_ReadInputDataBit)
    i.GPIO_SetBits                           0x000007ae   Section        0  m1130_gpio.o(i.GPIO_SetBits)
    i.GPIO_SetPinDir                         0x000007b4   Section        0  m1130_gpio.o(i.GPIO_SetPinDir)
    i.GPIO_SetPinMux                         0x000007e8   Section        0  m1130_gpio.o(i.GPIO_SetPinMux)
    i.HardFault_Handler                      0x0000084c   Section        0  m1130_it.o(i.HardFault_Handler)
    i.ILI9488_CTC35_Initial_Code             0x00000868   Section        0  lcdinit.o(i.ILI9488_CTC35_Initial_Code)
    i.LCDDelay                               0x000009e0   Section        0  lcdinit.o(i.LCDDelay)
    i.LCD_Clear                              0x000009f4   Section        0  lcddriver.o(i.LCD_Clear)
    LCD_Clear                                0x000009f5   Thumb Code    78  lcddriver.o(i.LCD_Clear)
    i.LCD_DispChar_EN                        0x00000a54   Section        0  lcddriver.o(i.LCD_DispChar_EN)
    i.LCD_DispString_EN                      0x00000ae0   Section        0  lcddriver.o(i.LCD_DispString_EN)
    i.LCD_DisplayOff                         0x00000b2c   Section        0  lcddriver.o(i.LCD_DisplayOff)
    LCD_DisplayOff                           0x00000b2d   Thumb Code    10  lcddriver.o(i.LCD_DisplayOff)
    i.LCD_DisplayOn                          0x00000b36   Section        0  lcddriver.o(i.LCD_DisplayOn)
    LCD_DisplayOn                            0x00000b37   Thumb Code    10  lcddriver.o(i.LCD_DisplayOn)
    i.LCD_DrawCross                          0x00000b40   Section        0  lcddriver.o(i.LCD_DrawCross)
    i.LCD_DrawLine                           0x00000b72   Section        0  lcddriver.o(i.LCD_DrawLine)
    i.LCD_Fill_UseOneData                    0x00000c10   Section        0  lcddriver.o(i.LCD_Fill_UseOneData)
    LCD_Fill_UseOneData                      0x00000c11   Thumb Code    72  lcddriver.o(i.LCD_Fill_UseOneData)
    i.LCD_Init                               0x00000c64   Section        0  lcdinit.o(i.LCD_Init)
    i.LCD_Read_DATA                          0x00000d34   Section        0  lcddriver.o(i.LCD_Read_DATA)
    LCD_Read_DATA                            0x00000d35   Thumb Code     4  lcddriver.o(i.LCD_Read_DATA)
    i.LCD_Scan_Dir                           0x00000d38   Section        0  lcddriver.o(i.LCD_Scan_Dir)
    LCD_Scan_Dir                             0x00000d39   Thumb Code    30  lcddriver.o(i.LCD_Scan_Dir)
    i.LCD_Scroll                             0x00000d5c   Section        0  lcddriver.o(i.LCD_Scroll)
    LCD_Scroll                               0x00000d5d   Thumb Code    74  lcddriver.o(i.LCD_Scroll)
    i.LCD_SetCursor                          0x00000da6   Section        0  lcddriver.o(i.LCD_SetCursor)
    LCD_SetCursor                            0x00000da7   Thumb Code    72  lcddriver.o(i.LCD_SetCursor)
    i.LCD_SetPointPixel                      0x00000dee   Section        0  lcddriver.o(i.LCD_SetPointPixel)
    i.LCD_WriteReg                           0x00000e06   Section        0  lcddriver.o(i.LCD_WriteReg)
    LCD_WriteReg                             0x00000e07   Thumb Code    16  lcddriver.o(i.LCD_WriteReg)
    i.LCD_Write_CMD                          0x00000e18   Section        0  lcddriver.o(i.LCD_Write_CMD)
    LCD_Write_CMD                            0x00000e19   Thumb Code    42  lcddriver.o(i.LCD_Write_CMD)
    i.LCD_Write_DATA                         0x00000e50   Section        0  lcddriver.o(i.LCD_Write_DATA)
    LCD_Write_DATA                           0x00000e51   Thumb Code    40  lcddriver.o(i.LCD_Write_DATA)
    i.LCD_showcolor                          0x00000e84   Section        0  lcddriver.o(i.LCD_showcolor)
    i.NMI_Handler                            0x00000ee4   Section        0  m1130_it.o(i.NMI_Handler)
    i.OTP_ReadDriverID                       0x00000ee8   Section        0  mcudriver.o(i.OTP_ReadDriverID)
    i.OTP_ReadSN                             0x00000ef4   Section        0  mcudriver.o(i.OTP_ReadSN)
    i.OTP_Reset                              0x00000f0c   Section        0  mcudriver.o(i.OTP_Reset)
    i.PendSV_Handler                         0x00000f1a   Section        0  m1130_it.o(i.PendSV_Handler)
    i.QSPI_CS_High                           0x00000f1c   Section        0  m1130_qspi.o(i.QSPI_CS_High)
    i.QSPI_CS_Low                            0x00000f28   Section        0  m1130_qspi.o(i.QSPI_CS_Low)
    i.QSPI_DMACmd                            0x00000f34   Section        0  m1130_qspi.o(i.QSPI_DMACmd)
    i.QSPI_DataConfig                        0x00000f44   Section        0  m1130_qspi.o(i.QSPI_DataConfig)
    i.QSPI_GetFlagStatus                     0x00000f66   Section        0  m1130_qspi.o(i.QSPI_GetFlagStatus)
    i.QSPI_HwInit                            0x00000f74   Section        0  m1130_qspi.o(i.QSPI_HwInit)
    i.QSPI_ModeSet                           0x00000fc0   Section        0  m1130_qspi.o(i.QSPI_ModeSet)
    i.QSPI_SetPowerState                     0x00000fe4   Section        0  m1130_qspi.o(i.QSPI_SetPowerState)
    i.RCC_GetClocksFreq                      0x00001028   Section        0  m1130_rcc.o(i.RCC_GetClocksFreq)
    i.RCC_ResetAHBCLK                        0x0000114c   Section        0  m1130_rcc.o(i.RCC_ResetAHBCLK)
    i.RCC_SETCLKDivider                      0x00001168   Section        0  m1130_rcc.o(i.RCC_SETCLKDivider)
    i.RCC_SetAHBCLK                          0x00001172   Section        0  m1130_rcc.o(i.RCC_SetAHBCLK)
    i.RCC_SetPRESETCTRL                      0x00001182   Section        0  m1130_rcc.o(i.RCC_SetPRESETCTRL)
    i.RCC_UARTCLKSel                         0x00001194   Section        0  m1130_rcc.o(i.RCC_UARTCLKSel)
    i.SDSpiCS_High                           0x000011a8   Section        0  mmc_sd.o(i.SDSpiCS_High)
    i.SDSpiCS_Low                            0x000011bc   Section        0  mmc_sd.o(i.SDSpiCS_Low)
    i.SD_DisSelect                           0x000011d0   Section        0  mmc_sd.o(i.SD_DisSelect)
    i.SD_ExternCLk                           0x000011dc   Section        0  mmc_sd.o(i.SD_ExternCLk)
    i.SD_Initialize                          0x000011f8   Section        0  mmc_sd.o(i.SD_Initialize)
    i.SD_ReadDisk                            0x00001358   Section        0  mmc_sd.o(i.SD_ReadDisk)
    i.SD_RecvData                            0x000013c4   Section        0  mmc_sd.o(i.SD_RecvData)
    i.SD_SPI_Init                            0x0000141c   Section        0  mmc_sd.o(i.SD_SPI_Init)
    i.SD_SPI_SpeedHigh                       0x00001494   Section        0  mmc_sd.o(i.SD_SPI_SpeedHigh)
    i.SD_SPI_SpeedLow                        0x000014b4   Section        0  mmc_sd.o(i.SD_SPI_SpeedLow)
    i.SD_Select                              0x000014d8   Section        0  mmc_sd.o(i.SD_Select)
    i.SD_SendCmd                             0x000014f0   Section        0  mmc_sd.o(i.SD_SendCmd)
    i.SD_WaitReady                           0x00001568   Section        0  mmc_sd.o(i.SD_WaitReady)
    i.SVC_Handler                            0x0000159c   Section        0  m1130_it.o(i.SVC_Handler)
    i.SysTick_Handler                        0x0000159e   Section        0  m1130_it.o(i.SysTick_Handler)
    i.SystemInit                             0x000015a0   Section        0  system_m1130.o(i.SystemInit)
    i.TP_Read_AD                             0x000015fc   Section        0  touchdriver.o(i.TP_Read_AD)
    TP_Read_AD                               0x000015fd   Thumb Code   196  touchdriver.o(i.TP_Read_AD)
    i.TouchInit                              0x000016c4   Section        0  touchinit.o(i.TouchInit)
    i.UART_Cmd                               0x00001754   Section        0  m1130_usart.o(i.UART_Cmd)
    i.UART_GetFlagStatus                     0x00001762   Section        0  m1130_usart.o(i.UART_GetFlagStatus)
    i.UART_Init                              0x00001770   Section        0  m1130_usart.o(i.UART_Init)
    i.UART_Reset                             0x000017f0   Section        0  m1130_usart.o(i.UART_Reset)
    i.UART_SendData                          0x00001814   Section        0  m1130_usart.o(i.UART_SendData)
    i.UART_StructInit                        0x00001818   Section        0  m1130_usart.o(i.UART_StructInit)
    i.XPT2046_DelayUS                        0x0000183a   Section        0  touchinterface.o(i.XPT2046_DelayUS)
    XPT2046_DelayUS                          0x0000183b   Thumb Code    28  touchinterface.o(i.XPT2046_DelayUS)
    i.XPT2046_ReadAdc_Smooth_XY              0x00001858   Section        0  touchinterface.o(i.XPT2046_ReadAdc_Smooth_XY)
    XPT2046_ReadAdc_Smooth_XY                0x00001859   Thumb Code   356  touchinterface.o(i.XPT2046_ReadAdc_Smooth_XY)
    i.XPT2046_Touch_Calibrate                0x000019c4   Section        0  touchinterface.o(i.XPT2046_Touch_Calibrate)
    i.__0printf$6                            0x00001c4c   Section        0  printf6.o(i.__0printf$6)
    i.__0sprintf$6                           0x00001c6c   Section        0  printf6.o(i.__0sprintf$6)
    i.__scatterload_copy                     0x00001c94   Section       14  handlers.o(i.__scatterload_copy)
    i.__scatterload_null                     0x00001ca2   Section        2  handlers.o(i.__scatterload_null)
    i.__scatterload_zeroinit                 0x00001ca4   Section       14  handlers.o(i.__scatterload_zeroinit)
    i._printf_core                           0x00001cb4   Section        0  printf6.o(i._printf_core)
    _printf_core                             0x00001cb5   Thumb Code   768  printf6.o(i._printf_core)
    i._printf_post_padding                   0x00001fb8   Section        0  printf6.o(i._printf_post_padding)
    _printf_post_padding                     0x00001fb9   Thumb Code    32  printf6.o(i._printf_post_padding)
    i._printf_pre_padding                    0x00001fd8   Section        0  printf6.o(i._printf_pre_padding)
    _printf_pre_padding                      0x00001fd9   Thumb Code    44  printf6.o(i._printf_pre_padding)
    i._sputc                                 0x00002004   Section        0  printf6.o(i._sputc)
    _sputc                                   0x00002005   Thumb Code    10  printf6.o(i._sputc)
    i.checkCapDly                            0x00002010   Section        0  main.o(i.checkCapDly)
    i.checkGuiLibMsg                         0x000020c4   Section        0  encipher.o(i.checkGuiLibMsg)
    i.check_fs                               0x000021ec   Section        0  ff.o(i.check_fs)
    check_fs                                 0x000021ed   Thumb Code    94  ff.o(i.check_fs)
    i.clmt_clust                             0x00002258   Section        0  ff.o(i.clmt_clust)
    clmt_clust                               0x00002259   Thumb Code    44  ff.o(i.clmt_clust)
    i.clust2sect                             0x00002284   Section        0  ff.o(i.clust2sect)
    i.create_name                            0x0000229c   Section        0  ff.o(i.create_name)
    create_name                              0x0000229d   Thumb Code   290  ff.o(i.create_name)
    i.delay                                  0x000023d0   Section        0  system_m1130.o(i.delay)
    i.delay_ms                               0x000023de   Section        0  main.o(i.delay_ms)
    i.dir_next                               0x000023f8   Section        0  ff.o(i.dir_next)
    dir_next                                 0x000023f9   Thumb Code   116  ff.o(i.dir_next)
    i.dir_sdi                                0x0000246c   Section        0  ff.o(i.dir_sdi)
    dir_sdi                                  0x0000246d   Thumb Code   126  ff.o(i.dir_sdi)
    i.disk_initialize                        0x000024ea   Section        0  diskio.o(i.disk_initialize)
    i.disk_read                              0x00002502   Section        0  diskio.o(i.disk_read)
    i.disk_status                            0x00002536   Section        0  diskio.o(i.disk_status)
    i.disp_Tip_Logo                          0x0000253c   Section        0  comupdatecommand.o(i.disp_Tip_Logo)
    disp_Tip_Logo                            0x0000253d   Thumb Code    76  comupdatecommand.o(i.disp_Tip_Logo)
    i.f_close                                0x0000259c   Section        0  ff.o(i.f_close)
    i.f_lseek                                0x000025ae   Section        0  ff.o(i.f_lseek)
    i.f_mount                                0x0000272c   Section        0  ff.o(i.f_mount)
    i.f_open                                 0x0000277c   Section        0  ff.o(i.f_open)
    i.f_read                                 0x000027f8   Section        0  ff.o(i.f_read)
    i.find_volume                            0x00002908   Section        0  ff.o(i.find_volume)
    find_volume                              0x00002909   Thumb Code   476  ff.o(i.find_volume)
    i.follow_path                            0x00002af0   Section        0  ff.o(i.follow_path)
    follow_path                              0x00002af1   Thumb Code   180  ff.o(i.follow_path)
    i.fputc                                  0x00002ba4   Section        0  main.o(i.fputc)
    i.get_fat                                0x00002bcc   Section        0  ff.o(i.get_fat)
    i.get_ldnumber                           0x00002c8e   Section        0  ff.o(i.get_ldnumber)
    get_ldnumber                             0x00002c8f   Thumb Code    60  ff.o(i.get_ldnumber)
    i.ld_clust                               0x00002cca   Section        0  ff.o(i.ld_clust)
    ld_clust                                 0x00002ccb   Thumb Code    30  ff.o(i.ld_clust)
    i.main                                   0x00002ce8   Section        0  main.o(i.main)
    i.mem_cpy                                0x00002ee4   Section        0  ff.o(i.mem_cpy)
    mem_cpy                                  0x00002ee5   Thumb Code    16  ff.o(i.mem_cpy)
    i.move_window                            0x00002ef4   Section        0  ff.o(i.move_window)
    move_window                              0x00002ef5   Thumb Code    40  ff.o(i.move_window)
    i.perform_calibration                    0x00002f1c   Section        0  touchinterface.o(i.perform_calibration)
    perform_calibration                      0x00002f1d   Thumb Code   856  touchinterface.o(i.perform_calibration)
    i.qspi_delay                             0x0000327c   Section        0  m1130_eval_qspi.o(i.qspi_delay)
    qspi_delay                               0x0000327d   Thumb Code    16  m1130_eval_qspi.o(i.qspi_delay)
    i.qspi_flash_SetDriverStrength           0x0000328c   Section        0  m1130_eval_qspi.o(i.qspi_flash_SetDriverStrength)
    i.qspi_flash_enableQE                    0x00003310   Section        0  m1130_eval_qspi.o(i.qspi_flash_enableQE)
    i.qspi_flash_erase_block_4k              0x00003378   Section        0  m1130_eval_qspi.o(i.qspi_flash_erase_block_4k)
    i.qspi_flash_global_unprotect            0x000033d8   Section        0  m1130_eval_qspi.o(i.qspi_flash_global_unprotect)
    i.qspi_flash_read                        0x00003450   Section        0  m1130_eval_qspi.o(i.qspi_flash_read)
    i.qspi_flash_read_buf                    0x00003480   Section        0  m1130_eval_qspi.o(i.qspi_flash_read_buf)
    i.qspi_flash_read_page                   0x000034c4   Section        0  m1130_eval_qspi.o(i.qspi_flash_read_page)
    i.qspi_flash_read_status1                0x0000350c   Section        0  m1130_eval_qspi.o(i.qspi_flash_read_status1)
    i.qspi_flash_read_status2                0x0000353c   Section        0  m1130_eval_qspi.o(i.qspi_flash_read_status2)
    i.qspi_flash_read_status3                0x0000356c   Section        0  m1130_eval_qspi.o(i.qspi_flash_read_status3)
    i.qspi_flash_send_addr                   0x0000359c   Section        0  m1130_eval_qspi.o(i.qspi_flash_send_addr)
    qspi_flash_send_addr                     0x0000359d   Thumb Code    54  m1130_eval_qspi.o(i.qspi_flash_send_addr)
    i.qspi_flash_send_cmd                    0x000035d8   Section        0  m1130_eval_qspi.o(i.qspi_flash_send_cmd)
    qspi_flash_send_cmd                      0x000035d9   Thumb Code    16  m1130_eval_qspi.o(i.qspi_flash_send_cmd)
    i.qspi_flash_write                       0x000035ec   Section        0  m1130_eval_qspi.o(i.qspi_flash_write)
    i.qspi_flash_write_buf                   0x00003660   Section        0  m1130_eval_qspi.o(i.qspi_flash_write_buf)
    i.qspi_flash_write_enable                0x000036a4   Section        0  m1130_eval_qspi.o(i.qspi_flash_write_enable)
    i.qspi_flash_write_page                  0x000036c8   Section        0  m1130_eval_qspi.o(i.qspi_flash_write_page)
    i.quad_spi_flash_init                    0x00003750   Section        0  m1130_eval_qspi.o(i.quad_spi_flash_init)
    i.readFlashUID                           0x000038e8   Section        0  encipher.o(i.readFlashUID)
    readFlashUID                             0x000038e9   Thumb Code    64  encipher.o(i.readFlashUID)
    i.read_prng                              0x00003930   Section        0  prng.o(i.read_prng)
    i.serial_init                            0x00003944   Section        0  main.o(i.serial_init)
    i.spiDisable                             0x000039a4   Section        0  m1130_eval_qspi.o(i.spiDisable)
    spiDisable                               0x000039a5   Thumb Code    10  m1130_eval_qspi.o(i.spiDisable)
    i.spiEnble                               0x000039b4   Section        0  m1130_eval_qspi.o(i.spiEnble)
    spiEnble                                 0x000039b5   Thumb Code    10  m1130_eval_qspi.o(i.spiEnble)
    i.spiErase                               0x000039c4   Section        0  m1130_eval_qspi.o(i.spiErase)
    spiErase                                 0x000039c5   Thumb Code    58  m1130_eval_qspi.o(i.spiErase)
    i.spiReadBuff                            0x00003a04   Section        0  m1130_eval_qspi.o(i.spiReadBuff)
    spiReadBuff                              0x00003a05   Thumb Code    14  m1130_eval_qspi.o(i.spiReadBuff)
    i.spiReadPage                            0x00003a18   Section        0  m1130_eval_qspi.o(i.spiReadPage)
    spiReadPage                              0x00003a19   Thumb Code    52  m1130_eval_qspi.o(i.spiReadPage)
    i.spiSendCMD                             0x00003a50   Section        0  m1130_eval_qspi.o(i.spiSendCMD)
    spiSendCMD                               0x00003a51   Thumb Code    12  m1130_eval_qspi.o(i.spiSendCMD)
    i.spiWritePage                           0x00003a60   Section        0  m1130_eval_qspi.o(i.spiWritePage)
    spiWritePage                             0x00003a61   Thumb Code    52  m1130_eval_qspi.o(i.spiWritePage)
    i.startXIP                               0x00003a98   Section        0  main.o(i.startXIP)
    i.start_quad_spi_dma_rx                  0x00003aa8   Section        0  m1130_eval_qspi.o(i.start_quad_spi_dma_rx)
    start_quad_spi_dma_rx                    0x00003aa9   Thumb Code   152  m1130_eval_qspi.o(i.start_quad_spi_dma_rx)
    i.start_quad_spi_dma_tx                  0x00003b58   Section        0  m1130_eval_qspi.o(i.start_quad_spi_dma_tx)
    start_quad_spi_dma_tx                    0x00003b59   Thumb Code   132  m1130_eval_qspi.o(i.start_quad_spi_dma_tx)
    i.start_xip1                             0x00003bf0   Section        0  main.o(i.start_xip1)
    i.switchQuad                             0x00003c04   Section        0  main.o(i.switchQuad)
    i.switchQuad1                            0x00003c64   Section        0  main.o(i.switchQuad1)
    i.touchReadX                             0x00003cc8   Section        0  touchdriver.o(i.touchReadX)
    i.touchReadY                             0x00003cd2   Section        0  touchdriver.o(i.touchReadY)
    i.validate                               0x00003cdc   Section        0  ff.o(i.validate)
    validate                                 0x00003cdd   Thumb Code    44  ff.o(i.validate)
    i.xipRX                                  0x00003d08   Section        0  m1130_xip_write.o(i.xipRX)
    i.xipTX                                  0x00003d8e   Section        0  m1130_xip_write.o(i.xipTX)
    i.xip_DataConfig                         0x00003e2a   Section        0  m1130_xip_write.o(i.xip_DataConfig)
    i.xip_GetFlagStatus                      0x00003e78   Section        0  m1130_xip_write.o(i.xip_GetFlagStatus)
    .constdata                               0x00003e84   Section       28  m1130_eval_qspi.o(.constdata)
    .constdata                               0x00003ea0   Section     1520  lcddriver.o(.constdata)
    .constdata                               0x00004490   Section       40  lcddriver.o(.constdata)
    .constdata                               0x000044b8   Section    10368  updatelogo.o(.constdata)
    .constdata                               0x00006d38   Section        4  guiconfig.o(.constdata)
    .constdata                               0x00006d3c   Section        4  guiconfig.o(.constdata)
    .data                                    0x00007700   Section       16  m1130_eval_qspi.o(.data)
    qspi_cmd                                 0x00007704   Data           4  m1130_eval_qspi.o(.data)
    qspi_addr                                0x00007708   Data           4  m1130_eval_qspi.o(.data)
    qspi_flash_status                        0x0000770c   Data           4  m1130_eval_qspi.o(.data)
    .data                                    0x00007710   Section       12  ff.o(.data)
    Fsid                                     0x00007710   Data           2  ff.o(.data)
    FatFs                                    0x00007714   Data           8  ff.o(.data)
    .data                                    0x0000771c   Section        1  mmc_sd.o(.data)
    .data                                    0x00007720   Section       16  lcddriver.o(.data)
    .data                                    0x00007730   Section        4  encipher.o(.data)
    ENCIPHER_BASE_ADDR                       0x00007730   Data           4  encipher.o(.data)
    .data                                    0x00007734   Section        4  stdout.o(.data)
    .bss                                     0x00007738   Section       32  mmc_sd.o(.bss)
    SD_WriteReadBuf                          0x00007738   Data          32  mmc_sd.o(.bss)
    .bss                                     0x00007758   Section      840  comupdatecommand.o(.bss)
    FlashWriteBuff                           0x00007758   Data         256  comupdatecommand.o(.bss)
    SD_Fatfs                                 0x00007858   Data         552  comupdatecommand.o(.bss)
    ResourceFile                             0x00007a80   Data          32  comupdatecommand.o(.bss)
    .bss                                     0x00007aa0   Section      162  touchinterface.o(.bss)
    STACK                                    0x00007b48   Section      768  startup_m1130.o(STACK)
    .ARM.__AT_0x00007FF8                     0x00007ff8   Section        8  encipher.o(.ARM.__AT_0x00007FF8)
    flashDriverSN                            0x00007ff8   Data           8  encipher.o(.ARM.__AT_0x00007FF8)
    .ARM.__AT_0x20008000                     0x20008000   Section       56  encipher.o(.ARM.__AT_0x20008000)
    encipherMsg                              0x20008000   Data          56  encipher.o(.ARM.__AT_0x20008000)

    Global Symbols

    Symbol Name                              Value     Ov Type        Size  Object(Section)

    BuildAttributes$$THM_ISAv3M$S$PE$A:L22$X:L11$S22$IEEE1$IW$USESV6$~STKCKD$USESV7$~SHL$OTIME$ROPI$EBA8$MICROLIB$REQ8$PRES8$EABIv2 0x00000000   Number         0  anon$$obj.o ABSOLUTE
    __ARM_use_no_argv                        0x00000000   Number         0  main.o ABSOLUTE
    __Vectors                                0x00000000   Data           4  startup_m1130.o(RESET)
    _printf_a                                0x00000000   Number         0  stubs.o ABSOLUTE
    _printf_c                                0x00000000   Number         0  stubs.o ABSOLUTE
    _printf_charcount                        0x00000000   Number         0  stubs.o ABSOLUTE
    _printf_d                                0x00000000   Number         0  stubs.o ABSOLUTE
    _printf_e                                0x00000000   Number         0  stubs.o ABSOLUTE
    _printf_f                                0x00000000   Number         0  stubs.o ABSOLUTE
    _printf_flags                            0x00000000   Number         0  stubs.o ABSOLUTE
    _printf_fp_dec                           0x00000000   Number         0  stubs.o ABSOLUTE
    _printf_fp_hex                           0x00000000   Number         0  stubs.o ABSOLUTE
    _printf_g                                0x00000000   Number         0  stubs.o ABSOLUTE
    _printf_i                                0x00000000   Number         0  stubs.o ABSOLUTE
    _printf_int_dec                          0x00000000   Number         0  stubs.o ABSOLUTE
    _printf_l                                0x00000000   Number         0  stubs.o ABSOLUTE
    _printf_lc                               0x00000000   Number         0  stubs.o ABSOLUTE
    _printf_ll                               0x00000000   Number         0  stubs.o ABSOLUTE
    _printf_lld                              0x00000000   Number         0  stubs.o ABSOLUTE
    _printf_lli                              0x00000000   Number         0  stubs.o ABSOLUTE
    _printf_llo                              0x00000000   Number         0  stubs.o ABSOLUTE
    _printf_llu                              0x00000000   Number         0  stubs.o ABSOLUTE
    _printf_llx                              0x00000000   Number         0  stubs.o ABSOLUTE
    _printf_longlong_dec                     0x00000000   Number         0  stubs.o ABSOLUTE
    _printf_longlong_hex                     0x00000000   Number         0  stubs.o ABSOLUTE
    _printf_longlong_oct                     0x00000000   Number         0  stubs.o ABSOLUTE
    _printf_ls                               0x00000000   Number         0  stubs.o ABSOLUTE
    _printf_mbtowc                           0x00000000   Number         0  stubs.o ABSOLUTE
    _printf_n                                0x00000000   Number         0  stubs.o ABSOLUTE
    _printf_o                                0x00000000   Number         0  stubs.o ABSOLUTE
    _printf_p                                0x00000000   Number         0  stubs.o ABSOLUTE
    _printf_percent                          0x00000000   Number         0  stubs.o ABSOLUTE
    _printf_pre_padding                      0x00000000   Number         0  stubs.o ABSOLUTE
    _printf_return_value                     0x00000000   Number         0  stubs.o ABSOLUTE
    _printf_s                                0x00000000   Number         0  stubs.o ABSOLUTE
    _printf_sizespec                         0x00000000   Number         0  stubs.o ABSOLUTE
    _printf_str                              0x00000000   Number         0  stubs.o ABSOLUTE
    _printf_truncate_signed                  0x00000000   Number         0  stubs.o ABSOLUTE
    _printf_truncate_unsigned                0x00000000   Number         0  stubs.o ABSOLUTE
    _printf_u                                0x00000000   Number         0  stubs.o ABSOLUTE
    _printf_wc                               0x00000000   Number         0  stubs.o ABSOLUTE
    _printf_wctomb                           0x00000000   Number         0  stubs.o ABSOLUTE
    _printf_widthprec                        0x00000000   Number         0  stubs.o ABSOLUTE
    _printf_x                                0x00000000   Number         0  stubs.o ABSOLUTE
    __cpp_initialize__aeabi_                  - Undefined Weak Reference
    __cxa_finalize                            - Undefined Weak Reference
    __decompress                              - Undefined Weak Reference
    _clock_init                               - Undefined Weak Reference
    _microlib_exit                            - Undefined Weak Reference
    __Vectors_End                            0x000000ac   Data           0  startup_m1130.o(RESET)
    __Vectors_Size                           0x000000ac   Number         0  startup_m1130.o ABSOLUTE
    __main                                   0x000000ad   Thumb Code     0  entry.o(.ARM.Collect$$$$00000000)
    _main_stk                                0x000000ad   Thumb Code     0  entry2.o(.ARM.Collect$$$$00000001)
    _main_scatterload                        0x000000b1   Thumb Code     0  entry5.o(.ARM.Collect$$$$00000004)
    __main_after_scatterload                 0x000000b5   Thumb Code     0  entry5.o(.ARM.Collect$$$$00000004)
    _main_clock                              0x000000b5   Thumb Code     0  entry7b.o(.ARM.Collect$$$$00000008)
    _main_cpp_init                           0x000000b5   Thumb Code     0  entry8b.o(.ARM.Collect$$$$0000000A)
    _main_init                               0x000000b5   Thumb Code     0  entry9a.o(.ARM.Collect$$$$0000000B)
    __rt_final_cpp                           0x000000bd   Thumb Code     0  entry10a.o(.ARM.Collect$$$$0000000D)
    __rt_final_exit                          0x000000bd   Thumb Code     0  entry11a.o(.ARM.Collect$$$$0000000F)
    Reset_Handler                            0x000000c1   Thumb Code     8  startup_m1130.o(.text)
    ADC0_IRQHandler                          0x000000d3   Thumb Code     0  startup_m1130.o(.text)
    BOD_IRQHandler                           0x000000d3   Thumb Code     0  startup_m1130.o(.text)
    BOR_IRQHandler                           0x000000d3   Thumb Code     0  startup_m1130.o(.text)
    DMA_IRQHandler                           0x000000d3   Thumb Code     0  startup_m1130.o(.text)
    GPIO0_IRQHandler                         0x000000d3   Thumb Code     0  startup_m1130.o(.text)
    GPIO1_IRQHandler                         0x000000d3   Thumb Code     0  startup_m1130.o(.text)
    I2C0_IRQHandler                          0x000000d3   Thumb Code     0  startup_m1130.o(.text)
    LED_IRQHandler                           0x000000d3   Thumb Code     0  startup_m1130.o(.text)
    QSPI0_IRQHandler                         0x000000d3   Thumb Code     0  startup_m1130.o(.text)
    QSPI1_IRQHandler                         0x000000d3   Thumb Code     0  startup_m1130.o(.text)
    RTC_IRQHandler                           0x000000d3   Thumb Code     0  startup_m1130.o(.text)
    TIM15_IRQHandler                         0x000000d3   Thumb Code     0  startup_m1130.o(.text)
    TIM16_IRQHandler                         0x000000d3   Thumb Code     0  startup_m1130.o(.text)
    TIM17_IRQHandler                         0x000000d3   Thumb Code     0  startup_m1130.o(.text)
    TIM1_IRQHandler                          0x000000d3   Thumb Code     0  startup_m1130.o(.text)
    TIM4_IRQHandler                          0x000000d3   Thumb Code     0  startup_m1130.o(.text)
    UART0_IRQHandler                         0x000000d3   Thumb Code     0  startup_m1130.o(.text)
    UART1_IRQHandler                         0x000000d3   Thumb Code     0  startup_m1130.o(.text)
    USB0_DMA_IRQHandler                      0x000000d3   Thumb Code     0  startup_m1130.o(.text)
    USB0_IRQHandler                          0x000000d3   Thumb Code     0  startup_m1130.o(.text)
    WKT_IRQHandler                           0x000000d3   Thumb Code     0  startup_m1130.o(.text)
    __aeabi_uidiv                            0x000000dd   Thumb Code     0  uidiv.o(.text)
    __aeabi_uidivmod                         0x000000dd   Thumb Code    44  uidiv.o(.text)
    __aeabi_idiv                             0x00000109   Thumb Code     0  idiv.o(.text)
    __aeabi_idivmod                          0x00000109   Thumb Code    40  idiv.o(.text)
    __aeabi_memset                           0x00000131   Thumb Code    14  memseta.o(.text)
    __aeabi_memset4                          0x00000131   Thumb Code     0  memseta.o(.text)
    __aeabi_memset8                          0x00000131   Thumb Code     0  memseta.o(.text)
    __aeabi_memclr                           0x0000013f   Thumb Code     4  memseta.o(.text)
    __aeabi_memclr4                          0x0000013f   Thumb Code     0  memseta.o(.text)
    __aeabi_memclr8                          0x0000013f   Thumb Code     0  memseta.o(.text)
    _memset$wrapper                          0x00000143   Thumb Code    18  memseta.o(.text)
    __aeabi_uread4                           0x00000155   Thumb Code    20  uread4.o(.text)
    __rt_uread4                              0x00000155   Thumb Code     0  uread4.o(.text)
    _uread4                                  0x00000155   Thumb Code     0  uread4.o(.text)
    __aeabi_fadd                             0x00000169   Thumb Code   162  fadd.o(.text)
    __aeabi_fsub                             0x0000020b   Thumb Code     8  fadd.o(.text)
    __aeabi_frsub                            0x00000213   Thumb Code     8  fadd.o(.text)
    __aeabi_fmul                             0x0000021b   Thumb Code   122  fmul.o(.text)
    __aeabi_fdiv                             0x00000295   Thumb Code   124  fdiv.o(.text)
    __aeabi_i2f                              0x00000311   Thumb Code    22  fflti.o(.text)
    __aeabi_f2iz                             0x00000327   Thumb Code    50  ffixi.o(.text)
    __I$use$fp                               0x00000359   Thumb Code     0  iusefp.o(.text)
    _float_round                             0x00000359   Thumb Code    16  fepilogue.o(.text)
    _float_epilogue                          0x00000369   Thumb Code   114  fepilogue.o(.text)
    __scatterload                            0x000003dd   Thumb Code    28  init.o(.text)
    __scatterload_rt2                        0x000003dd   Thumb Code     0  init.o(.text)
    CheckUpade                               0x00000401   Thumb Code   426  comupdatecommand.o(i.CheckUpade)
    GPIO_ConfigDriver                        0x000006e1   Thumb Code    88  m1130_gpio.o(i.GPIO_ConfigDriver)
    GPIO_ConfigPull                          0x00000741   Thumb Code    88  m1130_gpio.o(i.GPIO_ConfigPull)
    GPIO_ReadInputDataBit                    0x000007a1   Thumb Code    14  m1130_gpio.o(i.GPIO_ReadInputDataBit)
    GPIO_SetBits                             0x000007af   Thumb Code     4  m1130_gpio.o(i.GPIO_SetBits)
    GPIO_SetPinDir                           0x000007b5   Thumb Code    40  m1130_gpio.o(i.GPIO_SetPinDir)
    GPIO_SetPinMux                           0x000007e9   Thumb Code    90  m1130_gpio.o(i.GPIO_SetPinMux)
    HardFault_Handler                        0x0000084d   Thumb Code     8  m1130_it.o(i.HardFault_Handler)
    ILI9488_CTC35_Initial_Code               0x00000869   Thumb Code   372  lcdinit.o(i.ILI9488_CTC35_Initial_Code)
    LCDDelay                                 0x000009e1   Thumb Code    20  lcdinit.o(i.LCDDelay)
    LCD_DispChar_EN                          0x00000a55   Thumb Code   118  lcddriver.o(i.LCD_DispChar_EN)
    LCD_DispString_EN                        0x00000ae1   Thumb Code    76  lcddriver.o(i.LCD_DispString_EN)
    LCD_DrawCross                            0x00000b41   Thumb Code    50  lcddriver.o(i.LCD_DrawCross)
    LCD_DrawLine                             0x00000b73   Thumb Code   156  lcddriver.o(i.LCD_DrawLine)
    LCD_Init                                 0x00000c65   Thumb Code   190  lcdinit.o(i.LCD_Init)
    LCD_SetPointPixel                        0x00000def   Thumb Code    24  lcddriver.o(i.LCD_SetPointPixel)
    LCD_showcolor                            0x00000e85   Thumb Code    78  lcddriver.o(i.LCD_showcolor)
    NMI_Handler                              0x00000ee5   Thumb Code     2  m1130_it.o(i.NMI_Handler)
    OTP_ReadDriverID                         0x00000ee9   Thumb Code     6  mcudriver.o(i.OTP_ReadDriverID)
    OTP_ReadSN                               0x00000ef5   Thumb Code    14  mcudriver.o(i.OTP_ReadSN)
    OTP_Reset                                0x00000f0d   Thumb Code    14  mcudriver.o(i.OTP_Reset)
    PendSV_Handler                           0x00000f1b   Thumb Code     2  m1130_it.o(i.PendSV_Handler)
    QSPI_CS_High                             0x00000f1d   Thumb Code    12  m1130_qspi.o(i.QSPI_CS_High)
    QSPI_CS_Low                              0x00000f29   Thumb Code    12  m1130_qspi.o(i.QSPI_CS_Low)
    QSPI_DMACmd                              0x00000f35   Thumb Code    16  m1130_qspi.o(i.QSPI_DMACmd)
    QSPI_DataConfig                          0x00000f45   Thumb Code    34  m1130_qspi.o(i.QSPI_DataConfig)
    QSPI_GetFlagStatus                       0x00000f67   Thumb Code    14  m1130_qspi.o(i.QSPI_GetFlagStatus)
    QSPI_HwInit                              0x00000f75   Thumb Code    70  m1130_qspi.o(i.QSPI_HwInit)
    QSPI_ModeSet                             0x00000fc1   Thumb Code    36  m1130_qspi.o(i.QSPI_ModeSet)
    QSPI_SetPowerState                       0x00000fe5   Thumb Code    60  m1130_qspi.o(i.QSPI_SetPowerState)
    RCC_GetClocksFreq                        0x00001029   Thumb Code   276  m1130_rcc.o(i.RCC_GetClocksFreq)
    RCC_ResetAHBCLK                          0x0000114d   Thumb Code    28  m1130_rcc.o(i.RCC_ResetAHBCLK)
    RCC_SETCLKDivider                        0x00001169   Thumb Code    10  m1130_rcc.o(i.RCC_SETCLKDivider)
    RCC_SetAHBCLK                            0x00001173   Thumb Code    16  m1130_rcc.o(i.RCC_SetAHBCLK)
    RCC_SetPRESETCTRL                        0x00001183   Thumb Code    16  m1130_rcc.o(i.RCC_SetPRESETCTRL)
    RCC_UARTCLKSel                           0x00001195   Thumb Code    14  m1130_rcc.o(i.RCC_UARTCLKSel)
    SDSpiCS_High                             0x000011a9   Thumb Code    14  mmc_sd.o(i.SDSpiCS_High)
    SDSpiCS_Low                              0x000011bd   Thumb Code    14  mmc_sd.o(i.SDSpiCS_Low)
    SD_DisSelect                             0x000011d1   Thumb Code    12  mmc_sd.o(i.SD_DisSelect)
    SD_ExternCLk                             0x000011dd   Thumb Code    18  mmc_sd.o(i.SD_ExternCLk)
    SD_Initialize                            0x000011f9   Thumb Code   334  mmc_sd.o(i.SD_Initialize)
    SD_ReadDisk                              0x00001359   Thumb Code   102  mmc_sd.o(i.SD_ReadDisk)
    SD_RecvData                              0x000013c5   Thumb Code    76  mmc_sd.o(i.SD_RecvData)
    SD_SPI_Init                              0x0000141d   Thumb Code    88  mmc_sd.o(i.SD_SPI_Init)
    SD_SPI_SpeedHigh                         0x00001495   Thumb Code    28  mmc_sd.o(i.SD_SPI_SpeedHigh)
    SD_SPI_SpeedLow                          0x000014b5   Thumb Code    30  mmc_sd.o(i.SD_SPI_SpeedLow)
    SD_Select                                0x000014d9   Thumb Code    22  mmc_sd.o(i.SD_Select)
    SD_SendCmd                               0x000014f1   Thumb Code   110  mmc_sd.o(i.SD_SendCmd)
    SD_WaitReady                             0x00001569   Thumb Code    40  mmc_sd.o(i.SD_WaitReady)
    SVC_Handler                              0x0000159d   Thumb Code     2  m1130_it.o(i.SVC_Handler)
    SysTick_Handler                          0x0000159f   Thumb Code     2  m1130_it.o(i.SysTick_Handler)
    SystemInit                               0x000015a1   Thumb Code    76  system_m1130.o(i.SystemInit)
    TouchInit                                0x000016c5   Thumb Code   140  touchinit.o(i.TouchInit)
    UART_Cmd                                 0x00001755   Thumb Code    14  m1130_usart.o(i.UART_Cmd)
    UART_GetFlagStatus                       0x00001763   Thumb Code    14  m1130_usart.o(i.UART_GetFlagStatus)
    UART_Init                                0x00001771   Thumb Code   110  m1130_usart.o(i.UART_Init)
    UART_Reset                               0x000017f1   Thumb Code    26  m1130_usart.o(i.UART_Reset)
    UART_SendData                            0x00001815   Thumb Code     4  m1130_usart.o(i.UART_SendData)
    UART_StructInit                          0x00001819   Thumb Code    34  m1130_usart.o(i.UART_StructInit)
    XPT2046_Touch_Calibrate                  0x000019c5   Thumb Code   390  touchinterface.o(i.XPT2046_Touch_Calibrate)
    __0printf$6                              0x00001c4d   Thumb Code    24  printf6.o(i.__0printf$6)
    __1printf$6                              0x00001c4d   Thumb Code     0  printf6.o(i.__0printf$6)
    __2printf                                0x00001c4d   Thumb Code     0  printf6.o(i.__0printf$6)
    __0sprintf$6                             0x00001c6d   Thumb Code    36  printf6.o(i.__0sprintf$6)
    __1sprintf$6                             0x00001c6d   Thumb Code     0  printf6.o(i.__0sprintf$6)
    __2sprintf                               0x00001c6d   Thumb Code     0  printf6.o(i.__0sprintf$6)
    __scatterload_copy                       0x00001c95   Thumb Code    14  handlers.o(i.__scatterload_copy)
    __scatterload_null                       0x00001ca3   Thumb Code     2  handlers.o(i.__scatterload_null)
    __scatterload_zeroinit                   0x00001ca5   Thumb Code    14  handlers.o(i.__scatterload_zeroinit)
    checkCapDly                              0x00002011   Thumb Code   150  main.o(i.checkCapDly)
    checkGuiLibMsg                           0x000020c5   Thumb Code   262  encipher.o(i.checkGuiLibMsg)
    clust2sect                               0x00002285   Thumb Code    24  ff.o(i.clust2sect)
    delay                                    0x000023d1   Thumb Code    14  system_m1130.o(i.delay)
    delay_ms                                 0x000023df   Thumb Code    26  main.o(i.delay_ms)
    disk_initialize                          0x000024eb   Thumb Code    24  diskio.o(i.disk_initialize)
    disk_read                                0x00002503   Thumb Code    52  diskio.o(i.disk_read)
    disk_status                              0x00002537   Thumb Code     4  diskio.o(i.disk_status)
    f_close                                  0x0000259d   Thumb Code    18  ff.o(i.f_close)
    f_lseek                                  0x000025af   Thumb Code   382  ff.o(i.f_lseek)
    f_mount                                  0x0000272d   Thumb Code    74  ff.o(i.f_mount)
    f_open                                   0x0000277d   Thumb Code   124  ff.o(i.f_open)
    f_read                                   0x000027f9   Thumb Code   272  ff.o(i.f_read)
    fputc                                    0x00002ba5   Thumb Code    34  main.o(i.fputc)
    get_fat                                  0x00002bcd   Thumb Code   194  ff.o(i.get_fat)
    main                                     0x00002ce9   Thumb Code   394  main.o(i.main)
    qspi_flash_SetDriverStrength             0x0000328d   Thumb Code   126  m1130_eval_qspi.o(i.qspi_flash_SetDriverStrength)
    qspi_flash_enableQE                      0x00003311   Thumb Code   100  m1130_eval_qspi.o(i.qspi_flash_enableQE)
    qspi_flash_erase_block_4k                0x00003379   Thumb Code    92  m1130_eval_qspi.o(i.qspi_flash_erase_block_4k)
    qspi_flash_global_unprotect              0x000033d9   Thumb Code   114  m1130_eval_qspi.o(i.qspi_flash_global_unprotect)
    qspi_flash_read                          0x00003451   Thumb Code    48  m1130_eval_qspi.o(i.qspi_flash_read)
    qspi_flash_read_buf                      0x00003481   Thumb Code    68  m1130_eval_qspi.o(i.qspi_flash_read_buf)
    qspi_flash_read_page                     0x000034c5   Thumb Code    68  m1130_eval_qspi.o(i.qspi_flash_read_page)
    qspi_flash_read_status1                  0x0000350d   Thumb Code    42  m1130_eval_qspi.o(i.qspi_flash_read_status1)
    qspi_flash_read_status2                  0x0000353d   Thumb Code    42  m1130_eval_qspi.o(i.qspi_flash_read_status2)
    qspi_flash_read_status3                  0x0000356d   Thumb Code    42  m1130_eval_qspi.o(i.qspi_flash_read_status3)
    qspi_flash_write                         0x000035ed   Thumb Code   116  m1130_eval_qspi.o(i.qspi_flash_write)
    qspi_flash_write_buf                     0x00003661   Thumb Code    68  m1130_eval_qspi.o(i.qspi_flash_write_buf)
    qspi_flash_write_enable                  0x000036a5   Thumb Code    34  m1130_eval_qspi.o(i.qspi_flash_write_enable)
    qspi_flash_write_page                    0x000036c9   Thumb Code   130  m1130_eval_qspi.o(i.qspi_flash_write_page)
    quad_spi_flash_init                      0x00003751   Thumb Code   388  m1130_eval_qspi.o(i.quad_spi_flash_init)
    read_prng                                0x00003931   Thumb Code    16  prng.o(i.read_prng)
    serial_init                              0x00003945   Thumb Code    88  main.o(i.serial_init)
    startXIP                                 0x00003a99   Thumb Code    16  main.o(i.startXIP)
    start_xip1                               0x00003bf1   Thumb Code    16  main.o(i.start_xip1)
    switchQuad                               0x00003c05   Thumb Code    88  main.o(i.switchQuad)
    switchQuad1                              0x00003c65   Thumb Code    90  main.o(i.switchQuad1)
    touchReadX                               0x00003cc9   Thumb Code    10  touchdriver.o(i.touchReadX)
    touchReadY                               0x00003cd3   Thumb Code    10  touchdriver.o(i.touchReadY)
    xipRX                                    0x00003d09   Thumb Code   134  m1130_xip_write.o(i.xipRX)
    xipTX                                    0x00003d8f   Thumb Code   156  m1130_xip_write.o(i.xipTX)
    xip_DataConfig                           0x00003e2b   Thumb Code    78  m1130_xip_write.o(i.xip_DataConfig)
    xip_GetFlagStatus                        0x00003e79   Thumb Code    10  m1130_xip_write.o(i.xip_GetFlagStatus)
    Flash_Des                                0x00003e84   Data          28  m1130_eval_qspi.o(.constdata)
    ucAscii_1608                             0x00003ea0   Data        1520  lcddriver.o(.constdata)
    Lcd_Driver                               0x00004490   Data          40  lcddriver.o(.constdata)
    gImage_updateLogo                        0x000044b8   Data       10368  updatelogo.o(.constdata)
    FLASH_SECTOR_SIZE                        0x00006d38   Data           4  guiconfig.o(.constdata)
    FLASH_RES_START_ADDR                     0x00006d3c   Data           4  guiconfig.o(.constdata)
    Region$$Table$$Base                      0x00006d40   Number         0  anon$$obj.o(Region$$Table)
    Region$$Table$$Limit                     0x00006d60   Number         0  anon$$obj.o(Region$$Table)
    _4ByteAddrMode                           0x00007700   Data           1  m1130_eval_qspi.o(.data)
    SD_Type                                  0x0000771c   Data           1  mmc_sd.o(.data)
    lcdPara                                  0x00007720   Data          16  lcddriver.o(.data)
    __stdout                                 0x00007734   Data           4  stdout.o(.data)
    cal_value                                0x00007aa0   Data         112  touchinterface.o(.bss)
    displaychar                              0x00007b10   Data          50  touchinterface.o(.bss)
    __initial_sp                             0x00007e48   Data           0  startup_m1130.o(STACK)



==============================================================================

Memory Map of the image

  Image Entry point : 0x000000ad

  Load Region LR_IROM1 (Base: 0x00000000, Size: 0x00006d98, Max: 0x00007700, ABSOLUTE)

    Execution Region ER_IROM1 (Base: 0x00000000, Size: 0x00006d60, Max: 0x00007700, ABSOLUTE)

    Base Addr    Size         Type   Attr      Idx    E Section Name        Object

    0x00000000   0x000000ac   Data   RO           66    RESET               startup_m1130.o
    0x000000ac   0x00000000   Code   RO         1956  * .ARM.Collect$$$$00000000  mc_p.l(entry.o)
    0x000000ac   0x00000004   Code   RO         2238    .ARM.Collect$$$$00000001  mc_p.l(entry2.o)
    0x000000b0   0x00000004   Code   RO         2241    .ARM.Collect$$$$00000004  mc_p.l(entry5.o)
    0x000000b4   0x00000000   Code   RO         2243    .ARM.Collect$$$$00000008  mc_p.l(entry7b.o)
    0x000000b4   0x00000000   Code   RO         2245    .ARM.Collect$$$$0000000A  mc_p.l(entry8b.o)
    0x000000b4   0x00000008   Code   RO         2246    .ARM.Collect$$$$0000000B  mc_p.l(entry9a.o)
    0x000000bc   0x00000000   Code   RO         2248    .ARM.Collect$$$$0000000D  mc_p.l(entry10a.o)
    0x000000bc   0x00000000   Code   RO         2250    .ARM.Collect$$$$0000000F  mc_p.l(entry11a.o)
    0x000000bc   0x00000004   Code   RO         2239    .ARM.Collect$$$$00002712  mc_p.l(entry2.o)
    0x000000c0   0x0000001c   Code   RO           67    .text               startup_m1130.o
    0x000000dc   0x0000002c   Code   RO         1959    .text               mc_p.l(uidiv.o)
    0x00000108   0x00000028   Code   RO         1961    .text               mc_p.l(idiv.o)
    0x00000130   0x00000024   Code   RO         1963    .text               mc_p.l(memseta.o)
    0x00000154   0x00000014   Code   RO         2226    .text               mc_p.l(uread4.o)
    0x00000168   0x000000b2   Code   RO         2228    .text               mf_p.l(fadd.o)
    0x0000021a   0x0000007a   Code   RO         2230    .text               mf_p.l(fmul.o)
    0x00000294   0x0000007c   Code   RO         2232    .text               mf_p.l(fdiv.o)
    0x00000310   0x00000016   Code   RO         2234    .text               mf_p.l(fflti.o)
    0x00000326   0x00000032   Code   RO         2236    .text               mf_p.l(ffixi.o)
    0x00000358   0x00000000   Code   RO         2255    .text               mc_p.l(iusefp.o)
    0x00000358   0x00000082   Code   RO         2256    .text               mf_p.l(fepilogue.o)
    0x000003da   0x00000002   PAD
    0x000003dc   0x00000024   Code   RO         2268    .text               mc_p.l(init.o)
    0x00000400   0x000002e0   Code   RO         1357    i.CheckUpade        comupdatecommand.o
    0x000006e0   0x00000060   Code   RO           73    i.GPIO_ConfigDriver  m1130_gpio.o
    0x00000740   0x00000060   Code   RO           74    i.GPIO_ConfigPull   m1130_gpio.o
    0x000007a0   0x0000000e   Code   RO           86    i.GPIO_ReadInputDataBit  m1130_gpio.o
    0x000007ae   0x00000004   Code   RO           91    i.GPIO_SetBits      m1130_gpio.o
    0x000007b2   0x00000002   PAD
    0x000007b4   0x00000034   Code   RO           92    i.GPIO_SetPinDir    m1130_gpio.o
    0x000007e8   0x00000064   Code   RO           93    i.GPIO_SetPinMux    m1130_gpio.o
    0x0000084c   0x0000001c   Code   RO          851    i.HardFault_Handler  m1130_it.o
    0x00000868   0x00000178   Code   RO         1654    i.ILI9488_CTC35_Initial_Code  lcdinit.o
    0x000009e0   0x00000014   Code   RO         1655    i.LCDDelay          lcdinit.o
    0x000009f4   0x00000060   Code   RO         1498    i.LCD_Clear         lcddriver.o
    0x00000a54   0x0000008c   Code   RO         1499    i.LCD_DispChar_EN   lcddriver.o
    0x00000ae0   0x0000004c   Code   RO         1501    i.LCD_DispString_EN  lcddriver.o
    0x00000b2c   0x0000000a   Code   RO         1502    i.LCD_DisplayOff    lcddriver.o
    0x00000b36   0x0000000a   Code   RO         1503    i.LCD_DisplayOn     lcddriver.o
    0x00000b40   0x00000032   Code   RO         1504    i.LCD_DrawCross     lcddriver.o
    0x00000b72   0x0000009c   Code   RO         1505    i.LCD_DrawLine      lcddriver.o
    0x00000c0e   0x00000002   PAD
    0x00000c10   0x00000054   Code   RO         1506    i.LCD_Fill_UseOneData  lcddriver.o
    0x00000c64   0x000000d0   Code   RO         1656    i.LCD_Init          lcdinit.o
    0x00000d34   0x00000004   Code   RO         1508    i.LCD_Read_DATA     lcddriver.o
    0x00000d38   0x00000024   Code   RO         1509    i.LCD_Scan_Dir      lcddriver.o
    0x00000d5c   0x0000004a   Code   RO         1510    i.LCD_Scroll        lcddriver.o
    0x00000da6   0x00000048   Code   RO         1511    i.LCD_SetCursor     lcddriver.o
    0x00000dee   0x00000018   Code   RO         1512    i.LCD_SetPointPixel  lcddriver.o
    0x00000e06   0x00000010   Code   RO         1513    i.LCD_WriteReg      lcddriver.o
    0x00000e16   0x00000002   PAD
    0x00000e18   0x00000038   Code   RO         1514    i.LCD_Write_CMD     lcddriver.o
    0x00000e50   0x00000034   Code   RO         1515    i.LCD_Write_DATA    lcddriver.o
    0x00000e84   0x00000060   Code   RO         1516    i.LCD_showcolor     lcddriver.o
    0x00000ee4   0x00000002   Code   RO          853    i.NMI_Handler       m1130_it.o
    0x00000ee6   0x00000002   PAD
    0x00000ee8   0x0000000c   Code   RO         1932    i.OTP_ReadDriverID  LoaderLib_ASM11xx.lib(mcudriver.o)
    0x00000ef4   0x00000018   Code   RO         1933    i.OTP_ReadSN        LoaderLib_ASM11xx.lib(mcudriver.o)
    0x00000f0c   0x0000000e   Code   RO         1934    i.OTP_Reset         LoaderLib_ASM11xx.lib(mcudriver.o)
    0x00000f1a   0x00000002   Code   RO          854    i.PendSV_Handler    m1130_it.o
    0x00000f1c   0x0000000c   Code   RO          587    i.QSPI_CS_High      m1130_qspi.o
    0x00000f28   0x0000000c   Code   RO          588    i.QSPI_CS_Low       m1130_qspi.o
    0x00000f34   0x00000010   Code   RO          589    i.QSPI_DMACmd       m1130_qspi.o
    0x00000f44   0x00000022   Code   RO          590    i.QSPI_DataConfig   m1130_qspi.o
    0x00000f66   0x0000000e   Code   RO          591    i.QSPI_GetFlagStatus  m1130_qspi.o
    0x00000f74   0x0000004c   Code   RO          592    i.QSPI_HwInit       m1130_qspi.o
    0x00000fc0   0x00000024   Code   RO          593    i.QSPI_ModeSet      m1130_qspi.o
    0x00000fe4   0x00000044   Code   RO          595    i.QSPI_SetPowerState  m1130_qspi.o
    0x00001028   0x00000124   Code   RO          248    i.RCC_GetClocksFreq  m1130_rcc.o
    0x0000114c   0x0000001c   Code   RO          257    i.RCC_ResetAHBCLK   m1130_rcc.o
    0x00001168   0x0000000a   Code   RO          258    i.RCC_SETCLKDivider  m1130_rcc.o
    0x00001172   0x00000010   Code   RO          260    i.RCC_SetAHBCLK     m1130_rcc.o
    0x00001182   0x00000010   Code   RO          261    i.RCC_SetPRESETCTRL  m1130_rcc.o
    0x00001192   0x00000002   PAD
    0x00001194   0x00000014   Code   RO          263    i.RCC_UARTCLKSel    m1130_rcc.o
    0x000011a8   0x00000014   Code   RO         1236    i.SDSpiCS_High      mmc_sd.o
    0x000011bc   0x00000014   Code   RO         1237    i.SDSpiCS_Low       mmc_sd.o
    0x000011d0   0x0000000c   Code   RO         1238    i.SD_DisSelect      mmc_sd.o
    0x000011dc   0x0000001c   Code   RO         1239    i.SD_ExternCLk      mmc_sd.o
    0x000011f8   0x00000160   Code   RO         1243    i.SD_Initialize     mmc_sd.o
    0x00001358   0x0000006c   Code   RO         1244    i.SD_ReadDisk       mmc_sd.o
    0x000013c4   0x00000058   Code   RO         1245    i.SD_RecvData       mmc_sd.o
    0x0000141c   0x00000078   Code   RO         1246    i.SD_SPI_Init       mmc_sd.o
    0x00001494   0x00000020   Code   RO         1247    i.SD_SPI_SpeedHigh  mmc_sd.o
    0x000014b4   0x00000024   Code   RO         1248    i.SD_SPI_SpeedLow   mmc_sd.o
    0x000014d8   0x00000016   Code   RO         1249    i.SD_Select         mmc_sd.o
    0x000014ee   0x00000002   PAD
    0x000014f0   0x00000078   Code   RO         1251    i.SD_SendCmd        mmc_sd.o
    0x00001568   0x00000034   Code   RO         1252    i.SD_WaitReady      mmc_sd.o
    0x0000159c   0x00000002   Code   RO          855    i.SVC_Handler       m1130_it.o
    0x0000159e   0x00000002   Code   RO          856    i.SysTick_Handler   m1130_it.o
    0x000015a0   0x0000005c   Code   RO            3    i.SystemInit        system_m1130.o
    0x000015fc   0x000000c8   Code   RO         1824    i.TP_Read_AD        touchdriver.o
    0x000016c4   0x00000090   Code   RO         1801    i.TouchInit         touchinit.o
    0x00001754   0x0000000e   Code   RO          408    i.UART_Cmd          m1130_usart.o
    0x00001762   0x0000000e   Code   RO          410    i.UART_GetFlagStatus  m1130_usart.o
    0x00001770   0x00000080   Code   RO          413    i.UART_Init         m1130_usart.o
    0x000017f0   0x00000024   Code   RO          422    i.UART_Reset        m1130_usart.o
    0x00001814   0x00000004   Code   RO          423    i.UART_SendData     m1130_usart.o
    0x00001818   0x00000022   Code   RO          425    i.UART_StructInit   m1130_usart.o
    0x0000183a   0x0000001c   Code   RO         1727    i.XPT2046_DelayUS   touchinterface.o
    0x00001856   0x00000002   PAD
    0x00001858   0x0000016c   Code   RO         1729    i.XPT2046_ReadAdc_Smooth_XY  touchinterface.o
    0x000019c4   0x00000288   Code   RO         1731    i.XPT2046_Touch_Calibrate  touchinterface.o
    0x00001c4c   0x00000020   Code   RO         2120    i.__0printf$6       mc_p.l(printf6.o)
    0x00001c6c   0x00000028   Code   RO         2122    i.__0sprintf$6      mc_p.l(printf6.o)
    0x00001c94   0x0000000e   Code   RO         2282    i.__scatterload_copy  mc_p.l(handlers.o)
    0x00001ca2   0x00000002   Code   RO         2283    i.__scatterload_null  mc_p.l(handlers.o)
    0x00001ca4   0x0000000e   Code   RO         2284    i.__scatterload_zeroinit  mc_p.l(handlers.o)
    0x00001cb2   0x00000002   PAD
    0x00001cb4   0x00000304   Code   RO         2127    i._printf_core      mc_p.l(printf6.o)
    0x00001fb8   0x00000020   Code   RO         2128    i._printf_post_padding  mc_p.l(printf6.o)
    0x00001fd8   0x0000002c   Code   RO         2129    i._printf_pre_padding  mc_p.l(printf6.o)
    0x00002004   0x0000000a   Code   RO         2131    i._sputc            mc_p.l(printf6.o)
    0x0000200e   0x00000002   PAD
    0x00002010   0x000000b4   Code   RO          920    i.checkCapDly       main.o
    0x000020c4   0x00000128   Code   RO         1876    i.checkGuiLibMsg    LoaderLib_ASM11xx.lib(encipher.o)
    0x000021ec   0x0000006c   Code   RO         1072    i.check_fs          ff.o
    0x00002258   0x0000002c   Code   RO         1073    i.clmt_clust        ff.o
    0x00002284   0x00000018   Code   RO         1074    i.clust2sect        ff.o
    0x0000229c   0x00000134   Code   RO         1075    i.create_name       ff.o
    0x000023d0   0x0000000e   Code   RO            4    i.delay             system_m1130.o
    0x000023de   0x0000001a   Code   RO          921    i.delay_ms          main.o
    0x000023f8   0x00000074   Code   RO         1076    i.dir_next          ff.o
    0x0000246c   0x0000007e   Code   RO         1078    i.dir_sdi           ff.o
    0x000024ea   0x00000018   Code   RO         1021    i.disk_initialize   diskio.o
    0x00002502   0x00000034   Code   RO         1023    i.disk_read         diskio.o
    0x00002536   0x00000004   Code   RO         1024    i.disk_status       diskio.o
    0x0000253a   0x00000002   PAD
    0x0000253c   0x00000060   Code   RO         1359    i.disp_Tip_Logo     comupdatecommand.o
    0x0000259c   0x00000012   Code   RO         1079    i.f_close           ff.o
    0x000025ae   0x0000017e   Code   RO         1083    i.f_lseek           ff.o
    0x0000272c   0x00000050   Code   RO         1084    i.f_mount           ff.o
    0x0000277c   0x0000007c   Code   RO         1085    i.f_open            ff.o
    0x000027f8   0x00000110   Code   RO         1087    i.f_read            ff.o
    0x00002908   0x000001e8   Code   RO         1090    i.find_volume       ff.o
    0x00002af0   0x000000b4   Code   RO         1091    i.follow_path       ff.o
    0x00002ba4   0x00000028   Code   RO          922    i.fputc             main.o
    0x00002bcc   0x000000c2   Code   RO         1092    i.get_fat           ff.o
    0x00002c8e   0x0000003c   Code   RO         1094    i.get_ldnumber      ff.o
    0x00002cca   0x0000001e   Code   RO         1095    i.ld_clust          ff.o
    0x00002ce8   0x000001fc   Code   RO          923    i.main              main.o
    0x00002ee4   0x00000010   Code   RO         1096    i.mem_cpy           ff.o
    0x00002ef4   0x00000028   Code   RO         1097    i.move_window       ff.o
    0x00002f1c   0x00000360   Code   RO         1732    i.perform_calibration  touchinterface.o
    0x0000327c   0x00000010   Code   RO          662    i.qspi_delay        m1130_eval_qspi.o
    0x0000328c   0x00000084   Code   RO          664    i.qspi_flash_SetDriverStrength  m1130_eval_qspi.o
    0x00003310   0x00000068   Code   RO          665    i.qspi_flash_enableQE  m1130_eval_qspi.o
    0x00003378   0x00000060   Code   RO          666    i.qspi_flash_erase_block_4k  m1130_eval_qspi.o
    0x000033d8   0x00000078   Code   RO          667    i.qspi_flash_global_unprotect  m1130_eval_qspi.o
    0x00003450   0x00000030   Code   RO          668    i.qspi_flash_read   m1130_eval_qspi.o
    0x00003480   0x00000044   Code   RO          670    i.qspi_flash_read_buf  m1130_eval_qspi.o
    0x000034c4   0x00000048   Code   RO          671    i.qspi_flash_read_page  m1130_eval_qspi.o
    0x0000350c   0x00000030   Code   RO          672    i.qspi_flash_read_status1  m1130_eval_qspi.o
    0x0000353c   0x00000030   Code   RO          673    i.qspi_flash_read_status2  m1130_eval_qspi.o
    0x0000356c   0x00000030   Code   RO          674    i.qspi_flash_read_status3  m1130_eval_qspi.o
    0x0000359c   0x0000003c   Code   RO          675    i.qspi_flash_send_addr  m1130_eval_qspi.o
    0x000035d8   0x00000014   Code   RO          676    i.qspi_flash_send_cmd  m1130_eval_qspi.o
    0x000035ec   0x00000074   Code   RO          677    i.qspi_flash_write  m1130_eval_qspi.o
    0x00003660   0x00000044   Code   RO          678    i.qspi_flash_write_buf  m1130_eval_qspi.o
    0x000036a4   0x00000022   Code   RO          679    i.qspi_flash_write_enable  m1130_eval_qspi.o
    0x000036c6   0x00000002   PAD
    0x000036c8   0x00000088   Code   RO          680    i.qspi_flash_write_page  m1130_eval_qspi.o
    0x00003750   0x00000198   Code   RO          681    i.quad_spi_flash_init  m1130_eval_qspi.o
    0x000038e8   0x00000048   Code   RO         1877    i.readFlashUID      LoaderLib_ASM11xx.lib(encipher.o)
    0x00003930   0x00000014   Code   RO         1917    i.read_prng         LoaderLib_ASM11xx.lib(prng.o)
    0x00003944   0x00000060   Code   RO          925    i.serial_init       main.o
    0x000039a4   0x00000010   Code   RO          682    i.spiDisable        m1130_eval_qspi.o
    0x000039b4   0x00000010   Code   RO          683    i.spiEnble          m1130_eval_qspi.o
    0x000039c4   0x00000040   Code   RO          684    i.spiErase          m1130_eval_qspi.o
    0x00003a04   0x00000014   Code   RO          685    i.spiReadBuff       m1130_eval_qspi.o
    0x00003a18   0x00000038   Code   RO          686    i.spiReadPage       m1130_eval_qspi.o
    0x00003a50   0x00000010   Code   RO          687    i.spiSendCMD        m1130_eval_qspi.o
    0x00003a60   0x00000038   Code   RO          688    i.spiWritePage      m1130_eval_qspi.o
    0x00003a98   0x00000010   Code   RO          926    i.startXIP          main.o
    0x00003aa8   0x000000b0   Code   RO          689    i.start_quad_spi_dma_rx  m1130_eval_qspi.o
    0x00003b58   0x00000098   Code   RO          690    i.start_quad_spi_dma_tx  m1130_eval_qspi.o
    0x00003bf0   0x00000014   Code   RO          927    i.start_xip1        main.o
    0x00003c04   0x00000060   Code   RO          928    i.switchQuad        main.o
    0x00003c64   0x00000064   Code   RO          929    i.switchQuad1       main.o
    0x00003cc8   0x0000000a   Code   RO         1825    i.touchReadX        touchdriver.o
    0x00003cd2   0x0000000a   Code   RO         1826    i.touchReadY        touchdriver.o
    0x00003cdc   0x0000002c   Code   RO         1098    i.validate          ff.o
    0x00003d08   0x00000086   Code   RO         1394    i.xipRX             m1130_xip_write.o
    0x00003d8e   0x0000009c   Code   RO         1395    i.xipTX             m1130_xip_write.o
    0x00003e2a   0x0000004e   Code   RO         1396    i.xip_DataConfig    m1130_xip_write.o
    0x00003e78   0x0000000a   Code   RO         1397    i.xip_GetFlagStatus  m1130_xip_write.o
    0x00003e82   0x00000002   PAD
    0x00003e84   0x0000001c   Data   RO          691    .constdata          m1130_eval_qspi.o
    0x00003ea0   0x000005f0   Data   RO         1517    .constdata          lcddriver.o
    0x00004490   0x00000028   Data   RO         1518    .constdata          lcddriver.o
    0x000044b8   0x00002880   Data   RO         1716    .constdata          updatelogo.o
    0x00006d38   0x00000004   Data   RO         1860    .constdata          guiconfig.o
    0x00006d3c   0x00000004   Data   RO         1861    .constdata          guiconfig.o
    0x00006d40   0x00000020   Data   RO         2280    Region$$Table       anon$$obj.o


    Execution Region RW_IRAM1 (Base: 0x00007700, Size: 0x00000748, Max: 0x000008f8, ABSOLUTE)

    Base Addr    Size         Type   Attr      Idx    E Section Name        Object

    0x00007700   0x00000010   Data   RW          692    .data               m1130_eval_qspi.o
    0x00007710   0x0000000c   Data   RW         1099    .data               ff.o
    0x0000771c   0x00000001   Data   RW         1255    .data               mmc_sd.o
    0x0000771d   0x00000003   PAD
    0x00007720   0x00000010   Data   RW         1519    .data               lcddriver.o
    0x00007730   0x00000004   Data   RW         1880    .data               LoaderLib_ASM11xx.lib(encipher.o)
    0x00007734   0x00000004   Data   RW         2252    .data               mc_p.l(stdout.o)
    0x00007738   0x00000020   Zero   RW         1254    .bss                mmc_sd.o
    0x00007758   0x00000348   Zero   RW         1360    .bss                comupdatecommand.o
    0x00007aa0   0x000000a2   Zero   RW         1733    .bss                touchinterface.o
    0x00007b42   0x00000006   PAD
    0x00007b48   0x00000300   Zero   RW           64    STACK               startup_m1130.o



  Load Region LR$$.ARM.__AT_0x00007FF8 (Base: 0x00007ff8, Size: 0x00000000, Max: 0x00000008, ABSOLUTE)

    Execution Region ER$$.ARM.__AT_0x00007FF8 (Base: 0x00007ff8, Size: 0x00000008, Max: 0x00000008, ABSOLUTE, UNINIT)

    Base Addr    Size         Type   Attr      Idx    E Section Name        Object

    0x00007ff8   0x00000008   Zero   RW         1878    .ARM.__AT_0x00007FF8  LoaderLib_ASM11xx.lib(encipher.o)



  Load Region LR$$.ARM.__AT_0x20008000 (Base: 0x20008000, Size: 0x00000000, Max: 0x00000038, ABSOLUTE)

    Execution Region ER$$.ARM.__AT_0x20008000 (Base: 0x20008000, Size: 0x00000038, Max: 0x00000038, ABSOLUTE, UNINIT)

    Base Addr    Size         Type   Attr      Idx    E Section Name        Object

    0x20008000   0x00000038   Zero   RW         1879    .ARM.__AT_0x20008000  LoaderLib_ASM11xx.lib(encipher.o)


==============================================================================

Image component sizes


      Code (inc. data)   RO Data    RW Data    ZI Data      Debug   Object Name

       832        330          0          0        840       5289   comupdatecommand.o
        80          0          0          0          0       3560   diskio.o
      2654         50          0         12          0      22347   ff.o
         0          0          8          0          0       1790   guiconfig.o
      1052        102       1560         16          0      15747   lcddriver.o
       604         22          0          0          0       2419   lcdinit.o
      2214        158         28         16          0      24137   m1130_eval_qspi.o
       362         38          0          0          0       5279   m1130_gpio.o
        36         20          0          0          0       2283   m1130_it.o
       268         14          0          0          0       9964   m1130_qspi.o
       382         22          0          0          0       5789   m1130_rcc.o
       230         28          0          0          0       5063   m1130_usart.o
       378          0          0          0          0       4036   m1130_xip_write.o
      1082        180          0          0          0       6405   main.o
      1010        122          0          1         32       8888   mmc_sd.o
        28          8        172          0        768        760   startup_m1130.o
       106         16          0          0          0      79873   system_m1130.o
       220          4          0          0          0       2538   touchdriver.o
       144          4          0          0          0        524   touchinit.o
      1904        274          0          0        162       6424   touchinterface.o
         0          0      10368          0          0        544   updatelogo.o

    ----------------------------------------------------------------------
     13606       1392      12168         48       1808     213659   Object Totals
         0          0         32          0          0          0   (incl. Generated)
        20          0          0          3          6          0   (incl. Padding)

    ----------------------------------------------------------------------

      Code (inc. data)   RO Data    RW Data    ZI Data      Debug   Library Member Name

       368         42          0          4         64       3225   encipher.o
        50         16          0          0          0       1292   mcudriver.o
        20          4          0          0          0        460   prng.o
         0          0          0          0          0          0   entry.o
         0          0          0          0          0          0   entry10a.o
         0          0          0          0          0          0   entry11a.o
         8          4          0          0          0          0   entry2.o
         4          0          0          0          0          0   entry5.o
         0          0          0          0          0          0   entry7b.o
         0          0          0          0          0          0   entry8b.o
         8          4          0          0          0          0   entry9a.o
        30          0          0          0          0          0   handlers.o
        40          0          0          0          0         72   idiv.o
        36          8          0          0          0         68   init.o
         0          0          0          0          0          0   iusefp.o
        36          0          0          0          0        100   memseta.o
       930         16          0          0          0        468   printf6.o
         0          0          0          4          0          0   stdout.o
        44          0          0          0          0         72   uidiv.o
        20          0          0          0          0         60   uread4.o
       178          0          0          0          0        108   fadd.o
       124          0          0          0          0         72   fdiv.o
       130          0          0          0          0        144   fepilogue.o
        50          0          0          0          0         60   ffixi.o
        22          0          0          0          0         68   fflti.o
       122          0          0          0          0         72   fmul.o

    ----------------------------------------------------------------------
      2226         94          0          8         64       6341   Library Totals
         6          0          0          0          0          0   (incl. Padding)

    ----------------------------------------------------------------------

      Code (inc. data)   RO Data    RW Data    ZI Data      Debug   Library Name

       438         62          0          4         64       4977   LoaderLib_ASM11xx.lib
      1156         32          0          4          0        840   mc_p.l
       626          0          0          0          0        524   mf_p.l

    ----------------------------------------------------------------------
      2226         94          0          8         64       6341   Library Totals

    ----------------------------------------------------------------------

==============================================================================


      Code (inc. data)   RO Data    RW Data    ZI Data      Debug   

     15832       1486      12168         56       1872     213332   Grand Totals
     15832       1486      12168         56       1872     213332   ELF Image Totals
     15832       1486      12168         56          0          0   ROM Totals

==============================================================================

    Total RO  Size (Code + RO Data)                28000 (  27.34kB)
    Total RW  Size (RW Data + ZI Data)              1928 (   1.88kB)
    Total ROM Size (Code + RO Data + RW Data)      28056 (  27.40kB)

==============================================================================

