:020000040000FA
:1000000048110020B1000000B9000000CD00000040
:1000100000000000000000000000000000000000E0
:10002000000000000000000000000000D1000000FF
:100030000000000000000000CF000000D30000001E
:10004000C3000000C3000000ED0E0000C30000006C
:10005000C3000000C3000000C3000000C300000094
:10006000C3000000C90F0000DD0F0000C300000046
:10007000AD2A0000C3000000C3000000C300000060
:1000800011070000C3000000C3000000C30000000F
:1000900000000000C3000000C3000000C300000017
:1000A0000000000000000000C3000000C3000000CA
:1000B0000448804704480047FEE7FEE7FEE7FEE706
:1000C000FEE7FEE7910E0000E9000000FEE7704742
:1000D0007047704701B502E00098401E00900098FC
:1000E0000028F9D108BD00000348854600F006F855
:1000F000004800475139000048110020064C0125F6
:10010000064E05E0E36807CC2B430C3C98471034BF
:10011000B442F7D3FFF7ECFF2006000040060000D2
:10012000F8B505460E4672B61120224F4006B8605B
:10013000781478610020204A00211154401C0828BE
:10014000FBDB38680124E4062043386008221A49A2
:10015000384600F0F4F83868A04338603869C008C1
:10016000C000386115480168890889000160C168CC
:1001700089088900C160384600F086F9002405E04E
:1001800020034119384600F068F9641CB442F7D3E3
:100190000A48016889088900491C0160C16889080A
:1001A0008900491CC1604014B8610003786062B6E0
:1001B000F8BD000000000140200000208010004039
:1001C000F8B506460D46144672B61120294B400676
:1001D0009860581458610021274A00205054491C47
:1001E0000829FBDB234F3868F902084338600822EE
:1001F0002149384600F0A3F83968F8028143396094
:100200003869C008C00038611C4801688908890045
:100210000160C16889088900C160384600F034F97E
:10022000E9B2B815471ABC421BD8A7B219E0134867
:10023000016889088900491C0160C1688908890032
:10024000491CC16041140B4881614102416062B6A2
:10025000F8BDF619ED19E41BFF270137BC4200D8A1
:10026000A7B23B462A463146024800F06FF9BC422D
:10027000EFD1DCE7000001402000002080100040AA
:1002800002E008C8121F08C1002AFAD1704770475F
:10029000002001E001C1121F002AFBD1704710B5F8
:1002A0000123DB03C31A002002E01C5C0C54401C39
:1002B0009042FAD310BDF7B583B006460D46002430
:1002C0000598870814E004200190800600908010B3
:1002D00002906946304600F083F80121304600F074
:1002E000ACF80128F9D0306CA1006850641CA4B2AD
:1002F000A742E8D805988707BF0F002F1CD00197A9
:10030000012000070090801002906946304600F0FE
:1003100067F80121304600F090F80128F9D0306CE0
:10032000A1006854012F02D9020A4B195A70022FFA
:1003300002D9000C49198870002006B0F0BDF7B54D
:1003400084B007460E460024069885081AE004206B
:100350000290800601900020039001A9384600F029
:100360003FF8A000305838642021384600F065F886
:100370000028F9D00121384600F05FF80128F9D0B3
:10038000641CA4B2A542E2D806988507AD0F002DE3
:1003900023D038464030009002950120000701909C
:1003A0000020039001A9384600F01AF80020A100AF
:1003B00005E00A18B35C009A1370401C80B2A84292
:1003C000F7D32021384600F038F80028F9D0012171
:1003D000384600F032F80128F9D0002007B0F0BD0F
:1003E00010B50268520102D501239B0600E00023EC
:1003F0004A68026701248A6864079A420DD103683B
:100400001B0105D5096811430522D206114302E0FC
:10041000096811432143016010BD03681B0105D524
:10042000096811430122D206114301E00968114312
:10043000016001682143016010BD006D084201D0D8
:10044000012070470020704701B502E00098401E6F
:10045000009000980028F9D108BD70B504460E46FA
:10046000204600F095F820680125ED06284320601D
:1004700032462021204600F059F82068A843206029
:10048000204600F0B9F870BD1CB504460121019169
:100490000091204600F07CF8204600F00FF8019013
:1004A000204600F027F800906A461179C3201278A0
:1004B0000140204600F080F81CBD000070B50446E5
:1004C00020680125ED0628432060094E0520307084
:1004D000012231462046FFF732FF042231462046F2
:1004E000FFF7E9FE2068A8432060307870BD000067
:1004F0000000002070B5044620680125ED06284361
:100500002060094E35203070012231462046FFF729
:1005100016FF042231462046FFF7CDFE2068A8438F
:100520002060307870BD00000000002000B5064B50
:100530001970110C5970110A9970DA700422194659
:10054000FFF7FDFE00BD000000000020FFB581B0F8
:1005500004460F461E4601200090204600F018F881
:1005600020680125ED062843206002212046039AD9
:10057000FFF7DCFF324639462046FFF7E0FE2068F1
:10058000A8432060204600F037F8304605B0F0BDA3
:1005900030B5044620680125ED0628432060054952
:1005A0000620087001222046FFF7C9FE2068A843F4
:1005B000206030BD00000020F8B504460E46174606
:1005C0002046FFF7E5FF20680125ED06284320605F
:1005D00008480121017046708770014603222046B9
:1005E000FFF7ADFE2068A8432060204600F004F825
:1005F000F8BD00000000002038B50546012000903D
:100600007D24E40006E02846FFF758FF00902046CE
:10061000FFF71AFF68460078C007F4D138BD000024
:10062000043A0000000000201000000080020000DA
:10063000143A000010000020381100009002000061
:1006400030B50B46014600202022012409E00D466A
:10065000D5409D4205D31D469540491B25469540F2
:1006600040191546521E002DF1DC30BDF0B51FB407
:100670000646002082B005464024019100901BE010
:10068000019922460F46304600F030F8049A059B47
:10069000801A994110D310461946224600F016F8E8
:1006A000361A8F410197224601200021009F00F059
:1006B0000DF838184D4100902046641E0028DFDCFC
:1006C000019B00982946324607B0F0BD10B5202A9C
:1006D00004DB0146203A9140002010BD91402023C8
:1006E0009C1A0346E3401943904010BD10B5202AE0
:1006F00004DB0846203AD040002110BD0B46D34011
:10070000D0402024A21A91400843194610BD000091
:1007100010B50121002000F069F8194C002806D01E
:100720002068002800D08047002000F02BF801212D
:10073000084600F05BF8002806D06068002800D06A
:100740008047012000F01EF80121022000F04EF841
:10075000002806D0A068002800D08047022000F0C2
:1007600011F80121032000F041F8002806D0E068CC
:10077000002800D08047032000F004F810BD0000DE
:100780001000002010B50446002C0AD0012C08D01F
:10079000022C06D0032C04D0FF21A43103A003F0C7
:1007A000A5F801201049A040886310BD2E2E5C2EB4
:1007B0002E5C2E2E5C4C69627261726965735C4DB1
:1007C000313133305F5374645065726970685F44CF
:1007D00072697665725C7372635C6D313133305F60
:1007E000646D612E630000000003054070B504468F
:1007F0000D46002C0AD0012C08D0022C06D0032C68
:1008000004D0FF218A3107A003F070F801221448B8
:10081000A240002D02D0806A104070BD00681040D8
:1008200070BD00002E2E5C2E2E5C2E2E5C4C69625C
:100830007261726965735C4D313133305F5374643A
:100840005065726970685F4472697665725C737234
:10085000635C6D313133305F646D612E6300000085
:10086000C002054070B504460D460948844206D0D2
:100870000848844203D0084908A003F037F8002D47
:1008800004D1054905A0491C03F030F8656070BD2E
:100890000000024000000340210200002E2E5C2ECA
:1008A0002E5C2E2E5C4C69627261726965735C4DC0
:1008B000313133305F5374645065726970685F44DE
:1008C00072697665725C7372635C6D313133305F6F
:1008D0006770696F2E630000F8B505460C46164632
:1008E000184FBD4207D01848854204D0FF21AB31D4
:1008F00016A002F0FBFF002C04D1FF21AC3113A0A5
:1009000002F0F4FF012E06D0002E04D0FF21AD31FD
:100910000EA002F0EBFF00222146284600F038F836
:1009200019481A49012E05D0002E02D1BD4207D127
:100930008460F8BDBD4201D14460F8BD4C60F8BD93
:100940008C60F8BD00000240000003402E2E5C2E9B
:100950002E5C2E2E5C4C69627261726965735C4D0F
:10096000313133305F5374645065726970685F442D
:1009700072697665725C7372635C6D313133305FBE
:100980006770696F2E6300000080024000800340A2
:10099000F8B506460D461446284FBE4206D02848F4
:1009A000864203D0BE2127A002F0A0FF002D03D174
:1009B000BF2124A002F09AFF002C11D0012C0FD0EF
:1009C000022C0DD0032C0BD0042C09D0052C07D001
:1009D000062C05D0072C03D0C0211AA002F086FFF8
:1009E000BE4214D10020264A2946C140C907C90F7A
:1009F000002908D0810089180B68DB08DB000B6038
:100A00000B6823430B60401C2028EDD3F8BD002069
:100A10001B4A80322946C140C907C90F002908D0A6
:100A2000810089180B68DB08DB000B600B6823432F
:100A30000B60401C2028EDD3F8BD000000000240F0
:100A4000000003402E2E5C2E2E5C2E2E5C4C696224
:100A50007261726965735C4D313133305F53746418
:100A60005065726970685F4472697665725C737212
:100A7000635C6D313133305F6770696F2E630000E6
:100A80000010004070B50124084D240500222146C5
:100A90002846FFF77DFF012221462846FFF71CFF6D
:100AA00021462846FFF7DEFE70BD00000000024030
:100AB00070B50446A078002805D0012803D088210D
:100AC00013A002F013FFA0780123002817D021788B
:100AD0001D488A089200101802688907C90EFF2570
:100AE0008D40AA436578AD072D0E8D4015430560F6
:100AF0002078C006C00E83401448036070BD207883
:100B0000C006C00E834011488030036070BD0000F5
:100B10002E2E5C2E2E5C2E2E5C4C696272617269E8
:100B200065735C4D313133305F5374645065726965
:100B300070685F4472697665725C7372635C6D693C
:100B400073632E630000000000E400E000E100E0B9
:100B5000F8B5044662490869C0B28A69D5B2896AA3
:100B6000CFB201218907096B5E4AC906C90E0A3155
:100B700051430091002806D0012806D0022806D053
:100B8000032806D006E0574E04E0009E02E0554ED2
:100B900000E0554E5248403001683046FFF750FDA6
:100BA000802C1CD0012080072018902C0AD0942C77
:100BB00008D0982C06D0B42C2BD0B82C4AD0A02C1E
:100BC00074D0FEE70178002908D0002D08D0012D4F
:100BD0000CD0022D10D0032D14D018E00020F8BD49
:100BE00001784048FFF72CFD044610E0017800989A
:100BF000FFF726FD04460AE001783A48FFF720FD9A
:100C0000044604E001783848FFF71AFD0446204600
:100C1000F8BD33484030416B002906D0002F06D084
:100C2000012F0AD0022F0ED012E00020F8BD416B38
:100C30002C48FFF705FD04460AE0416B0098FFF7DA
:100C4000FFFC044604E0416B2648FFF7F9FC04462C
:100C50002046F8BD22484030816B00290CD021008D
:100C60000CD0012C10D0022C14D0032C18D0042C42
:100C70001DD0052C22D026E00020F8BD816B19483C
:100C8000FFF7DEFC04461EE0816B3046FFF7D8FC20
:100C9000044618E0816B1448FFF7D2FC044612E0CA
:100CA000816B1048FFF7CCFC04460CE00DE0816B33
:100CB0007D200002FFF7C4FC044604E0816B0B4872
:100CC000FFF7BEFC04462046F8BD0178002904D099
:100CD00001783046FFF7B4FCF8BD0020F8BD0000F5
:100CE00040000040001BB70010270000006CDC0231
:100CF00000B503460121184600F04EF800211846C1
:100D000000F052F80121184600F04EF800BD000036
:100D100070B504460D46802C1BD0902C19D0942C15
:100D200017D0982C15D0A02C13D0A42C11D0A82CFF
:100D30000FD0AC2C0DD0B42C0BD0B82C09D0BC2CBF
:100D400007D0C02C05D0D02C03D0E92103A002F09D
:100D5000CDFD012080072018057070BD2E2E5C2E61
:100D60002E5C2E2E5C4C69627261726965735C4DFB
:100D7000313133305F5374645065726970685F4419
:100D800072697665725C7372635C6D313133305FAA
:100D90007263632E6300000001229207002901D0D4
:100DA000506170479061704701229207002901D07D
:100DB000506070479060704710B50446002C09D011
:100DC000012C07D0022C05D0032C03D0A72105A0AD
:100DD00002F08CFD124884610021C1610121C161D2
:100DE00010BD00002E2E5C2E2E5C2E2E5C4C6962F7
:100DF0007261726965735C4D313133305F53746475
:100E00005065726970685F4472697665725C73726E
:100E1000635C6D313133305F7263632E63000000B9
:100E2000400000407FB50120800741690213114353
:100E3000416101A800F0BEF85F206A469080124828
:100E4000029000249481D480104D01A9284601F01D
:100E500069FF1021284601F007FF0121284600F014
:100E60005DF801221146284601F0A0FE02216A46E3
:100E700011700120907054706846FFF719FE01212F
:100E8000284601F03BFE7FBDE703000000B00040B4
:100E900010B500200121114A89074A61104B042234
:100EA0001A60104A9368FF241134A34393600E4ADA
:100EB0000A63CA1303E00346401C934202D24B6B01
:100EC000012BF8D17D20C000FFF704F9044801216F
:100ED0004038016100224261416110BD18080000E4
:100EE0008000004000020040160000C008480022B8
:100EF000028208490888401C80B20880FF23F5332D
:100F0000984204D90120044B0005D8600A8070473C
:100F100000B00040080000200000024070B5044608
:100F20000D460F4884420FD00E4884420CD00E4824
:100F3000844209D00D48844206D00D48844203D033
:100F40000C490DA002F0D2FC280A01D1002D04D1D9
:100F5000084909A0491C02F0C9FCE843208270BD81
:100F600000A0004000A8004000B0004000C00040C9
:100F700000C80040770900002E2E5C2E2E5C2E2E1D
:100F80005C4C69627261726965735C4D31313330FA
:100F90005F5374645065726970685F447269766506
:100FA000725C7372635C6D313133305F74696D2EC6
:100FB000630000000021C9434160002101800181DC
:100FC000418081727047000010B50249024802F06A
:100FD000EDF810BD200900200020004010B50249A6
:100FE000024802F0E3F810BD2C0A00200030004057
:100FF00000000000000000000000000000000000F1
:1010000030720000C10000006D040000690400009F
:1010100000000000000000000000000000000000D0
:10102000000000000000000000000000A90900000E
:10103000000000000000000031050000AB090000C6
:10104000D3000000D3000000D3000000D300000054
:10105000D3000000D30000000D0F0000D3000000FB
:10106000D3000000D3000000D3000000D300000034
:1010700000000000D3000000D300000000000000CA
:10108000D3000000D3000000D3000000D300000014
:1010900000000000D3000000D300000000000000AA
:1010A0000000000000000000D30000000348854657
:1010B00000F06EF80048004725150000307200006F
:1010C0000448804704480047FEE7FEE7FEE7FEE7E6
:1010D000FEE7FEE7AD090000AD00000030B50B46AD
:1010E000014600202022012409E00D46D5409D4202
:1010F00005D31D469540491B254695404019154688
:10110000521E002DF1DC30BD70B5002425460028AC
:1011100001DA01244042002901DA01254942FFF7A2
:10112000DDFFAC4200D04042002C00D0494270BDEF
:10113000F0B51FB40646002082B005464024019158
:1011400000901BE0019922460F46304600F042F81D
:10115000049A059B801A994110D3104619462246DD
:1011600000F028F8361A8F4101972246012000210D
:10117000009F00F01FF838184D4100902046641E73
:101180000028DFDC019B00982946324607B0F0BDFD
:10119000064C0125064E05E0E36807CC2B430C3CCA
:1011A00098471034B442F7D3FFF784FF5C1A00006D
:1011B0007C1A000010B5202A04DB0146203A914039
:1011C000002010BD914020239C1A0346E3401943A0
:1011D000904010BD10B5202A04DB0846203AD040CC
:1011E000002110BD0B46D340D0402024A21A9140CC
:1011F0000843194610BD08B5062168460170002154
:101200004170817000F034F908BD08B506216846C8
:101210000170002141700121817000F029F908BDA1
:1012200070B504460D460C48844202D00B488442F7
:1012300000D103E00A490BA001F036F90020002894
:1012400002D1002D00D004E00549491C05A001F0A1
:101250002BF9656070BD00000000024000000340F3
:10126000490200002E2E5C2E2E5C2E2E5C4C6962F4
:101270007261726965735C4D313133305F537464F0
:101280005065726970685F4472697665725C7372EA
:10129000635C6D313133305F6770696F2E630000BE
:1012A00070B506460C4615461948864202D01948C4
:1012B000864200D103E0EA2117A001F0F5F80020F2
:1012C000002802D1002C00D003E0EB2112A001F095
:1012D000EBF8012D01D0002D00D103E0EC210EA090
:1012E00001F0E2F8012D08D10948864202D11948DF
:1012F00044600CE01848446009E0002D07D1044820
:10130000864202D11348846001E01348846070BDB6
:1013100000000240000003402E2E5C2E2E5C2E2E7C
:101320005C4C69627261726965735C4D3131333056
:101330005F5374645065726970685F447269766562
:10134000725C7372635C6D313133305F6770696FEB
:101350002E6300000080024000800340F7B5144671
:101360002F490098884203D02E490098884200D126
:1013700003E0BD212CA001F097F80020002803D144
:101380000198002800D003E0BE2127A001F08CF8CE
:10139000002C0DD0012C0BD0022C09D0032C07D02F
:1013A000042C05D0052C03D0062C01D0072C00D12D
:1013B00003E0BF211CA001F077F81949009888428A
:1013C00016D1002511E00198E8400746FF07FF0FFE
:1013D000002F09D0A800234946183068C008C00073
:1013E00030603068204330606D1C202DEBD316E058
:1013F000002512E00198E8400746FF07FF0F002F85
:101400000AD0A8001749803146183068C008C000CB
:1014100030603068204330606D1C202DEAD3FEBD63
:1014200000000240000003402E2E5C2E2E5C2E2E6B
:101430005C4C69627261726965735C4D3131333045
:101440005F5374645065726970685F447269766551
:10145000725C7372635C6D313133305F6770696FDA
:101460002E6300000010004000BFFEE77047000040
:1014700070B504460025A078002802D0A078012885
:1014800000D103E088211BA001F00EF8A07800280D
:1014900027D02648032109024018217889108900A5
:1014A000455820788007C10EFF2088402946814397
:1014B0000D4660788007000E21788907C90E8840A4
:1014C00005431A4803210902401821788910890030
:1014D00045502078C106C90E012088401349086094
:1014E00007E02078C106C90E012088400F498031ED
:1014F000086070BD2E2E5C2E2E5C2E2E5C4C696218
:101500007261726965735C4D313133305F5374645D
:101510005065726970685F4472697665725C737257
:10152000635C6D6973632E630000000000E100E0FE
:1015300070470000034800680121C906884301493B
:101540000860704700000140034800680121C90697
:10155000084301490860704700000140012803D199
:101560004103044A516103E001214903014A9161A9
:1015700070470000000001400F4B42681A630E4A9A
:10158000403A12685B051A40002A09D09B000268A5
:101590001A4383681A430123DB061146194306E008
:1015A00001235B0702681A43114683681943024A04
:1015B000403A1160704700004000014001460020A1
:1015C000044A12690A40002A01D0012000E00020EC
:1015D000704700004000014038B50446012000F08B
:1015E00049F80020009002E00098401C0090012182
:1015F000090300988842F7DB0D480069400A400261
:1016000038300B490861616820680843A1680843C5
:10161000074948610749206908436169084304494B
:1016200008630020486102498031086038BD00002D
:10163000000001400000FFFF002806D10C490969A5
:10164000C908C9000A4A116110E0012807D10849F8
:101650000969C908C900491C054A116106E0044925
:101660000969C908C900891C014A11617047000055
:101670000000014010B50446012C0CD100214003AC
:1016800000F050F90121480300F04CF90121480312
:1016900000F03EF904E000210120400300F038F999
:1016A00010BD0000B0B588B0044678480069C0B2EB
:1016B000029076488069C0B201907448806AC0B2D6
:1016C0000090734807900298002802D17148069054
:1016D00010E00298012802D1079806900AE00298CB
:1016E000022802D16B48069004E00298032801D139
:1016F000694806906548403001680698FFF7EEFC9F
:101700000590802C01D1059FBDE0902C01D0942C38
:1017100036D10120800720180078002801D108B0B8
:10172000B0BD0198002808D1012080072018017859
:101730005848FFF7E9FC049020E00198012807D100
:101740008007201801780798FFF7C8FC049015E07F
:101750000198022807D14007201801784D48FFF76B
:10176000D3FC04900AE00198032807D101208007E8
:10177000201801784848FFF7C7FC0490049F82E0D6
:10178000B42C27D141484030406B002800D1C6E737
:101790000098002807D13D484030416B3D48FFF795
:1017A0009DFC039014E00098012807D13748403091
:1017B000416B0798FFF792FC039009E0009802281C
:1017C00006D132484030416B3248FFF787FC039026
:1017D000039F58E0B82C43D12C484030806B002840
:1017E00000D19CE7002E07D128484030816B294862
:1017F000FFF774FC054631E0012E07D12348403045
:10180000816B0698FFF76AFC054627E0022E07D198
:101810001E484030816B2048FFF760FC05461DE004
:10182000032E07D119484030816B1A48FFF756FC48
:10183000054613E0042E08D114484030816B7D200A
:101840000002FFF74BFC054608E0052E06D10F48C5
:101850004030816B1148FFF741FC05462F4612E0EE
:10186000A02E0ED1700620180078002800D156E76F
:1018700001208007201801780698FFF72FFC074603
:1018800001E000BFFEE7384649E7000040000040A5
:1018900000D8B805001BB70010270000006CDC0260
:1018A00070B504460D46802C09D0902C07D0942C9E
:1018B00005D0A02C03D0B42C01D0B82C00D103E06B
:1018C000C32104A000F0F0FD01208007201805705E
:1018D00070BD00002E2E5C2E2E5C2E2E5C4C69629C
:1018E0007261726965735C4D313133305F5374647A
:1018F0005065726970685F4472697665725C737274
:10190000635C6D313133305F7263632E63000000BE
:10191000002903D001229207506102E001229207C0
:1019200090617047002903D001229207506002E0C5
:10193000012292079060704710B50446002C05D034
:10194000012C03D0022C01D0032C00D103E086210E
:1019500005A000F0A9FD1348846100201149C86169
:101960000120C86110BD00002E2E5C2E2E5C2E2E94
:101970005C4C69627261726965735C4D3131333000
:101980005F5374645065726970685F44726976650C
:10199000725C7372635C6D313133305F7263632EDE
:1019A00063000000400000407047704700B500220F
:1019B000154801218907486102201449086014482C
:1019C00080681121884312498860124849050863DC
:1019D00006E01046521C0121C903884200D304E0EE
:1019E00001208007406B0128F3D100BF7D20C0009B
:1019F00000F07CFD01200549403908610020486164
:101A00000120486100BD000018080000800000406F
:101A1000000200401E00008070B504460D460E48CE
:101A2000844202D00D48844200D103E0D7210CA0AB
:101A300000F03AFD002D01D0012D00D103E0D821A6
:101A400007A000F031FD002D02D00120606201E00E
:101A50000120A06270BD0000002000400030004066
:101A60002E2E5C2E2E5C2E2E5C4C69627261726989
:101A700065735C4D313133305F5374645065726906
:101A800070685F4472697665725C7372635C6D3115
:101A90003133305F75736172742E630070B5054623
:101AA0000C4600262448854202D02448854200D1B5
:101AB00003E0234923A000F0F7FC01200004844246
:101AC0001AD04000844217D04000844214D0400015
:101AD000844211D0400184420ED0400084420BD099
:101AE0004000844208D04000844205D04000844237
:101AF00002D04000844200D104E01321490111A02A
:101B000000F0D2FC0120000784420BD10A48854234
:101B100002D00A48854200D104E09921890009A039
:101B200000F0C2FC286E2040002801D0012600E011
:101B30000026304670BD000000200040003000400C
:101B40005F0200002E2E5C2E2E5C2E2E5C4C6962F5
:101B50007261726965735C4D313133305F53746407
:101B60005065726970685F4472697665725C737201
:101B7000635C6D313133305F75736172742E630055
:101B8000FEB505460C46002600200290844885429A
:101B900002D08448854200D103E0892182A000F070
:101BA00083FC2069002808D02069202805D02069FE
:101BB000402802D02069602800D103E08B217AA060
:101BC00000F072FC6069002802D06069082800D12A
:101BD00003E08C2174A000F067FCA06900280BD002
:101BE000A069062808D0A069022805D0A06982282B
:101BF00002D0A069862800D103E08D216AA000F000
:101C000053FCFF210131E06988420DD04900E069B1
:101C1000884209D0E069884201D1012000E000201B
:101C2000FF300130002800D003E08E215EA000F0DC
:101C30003BFC206A00280DD001218903206A8842DC
:101C400008D04900206A884204D003218903206A11
:101C5000884200D103E08F2153A000F025FC606A88
:101C6000002804D00121C902606A884200D103E043
:101C700090214DA000F018FC2068002812D001210E
:101C80000904206888420DD049002068884209D0A4
:101C9000032109042068884204D0012189042068B6
:101CA000884200D103E091213FA000F0FDFB606875
:101CB000002812D001210905606888420DD0490032
:101CC0006068884209D0032109056068884204D011
:101CD000012189056068884200D103E0922132A089
:101CE00000F0E2FBA068102802D0A068002800D114
:101CF00003E093212CA000F0D7FB206A002802D13A
:101D0000206A00280AD02648854202D0254885420C
:101D100000D103E0982124A000F0C6FB0320800737
:101D2000A8602E6B2F4806401D48854204D19020A4
:101D3000FFF7B8FC029006E01A48854203D19420D0
:101D4000FFF7B0FC0290E168029A9000FFF7C6F935
:101D50000746B806810C019138463F21C943084027
:101D60008009000400900199009808432169084304
:101D700061690843A1690843A168084306432E63CB
:101D80002E6A19480640616820680843E1690843E3
:101D9000216A0843616A084306432E62FEBD0000C3
:101DA00000200040003000402E2E5C2E2E5C2E2E97
:101DB0005C4C69627261726965735C4D31313330BC
:101DC0005F5374645065726970685F4472697665C8
:101DD000725C7372635C6D313133305F7573617245
:101DE000742E630001C00000FF3488FF10B5044664
:101DF0001148844202D01148844200D103E06C2192
:101E00000FA000F051FB0C48844208D10021202093
:101E1000FFF788FD01212020FFF784FD0AE0074835
:101E2000844207D100214020FFF77CFD01214020A2
:101E3000FFF778FD10BD000000200040003000409A
:101E40002E2E5C2E2E5C2E2E5C4C696272617269A5
:101E500065735C4D313133305F5374645065726922
:101E600070685F4472697665725C7372635C6D3131
:101E70003133305F75736172742E630070B5044640
:101E80000D460748844202D00648844200D104E04F
:101E9000FF217B3104A000F007FB256570BD000029
:101EA00000200040003000402E2E5C2E2E5C2E2E96
:101EB0005C4C69627261726965735C4D31313330BB
:101EC0005F5374645065726970685F4472697665C7
:101ED000725C7372635C6D313133305F7573617244
:101EE000742E630000210160416010218160E121B6
:101EF0004902C160602101610021416181610321CA
:101F00000902C161002101624162704710B50621DA
:101F1000002000F001F810BD38B504460D461F48FA
:101F2000006881790091FFF766F91DA000F062F862
:101F3000684601781FA000F05DF820A000F05AF874
:101F40006846007810210840002809D01CA000F045
:101F500051F801201E490860FFF757F9012038BDEC
:101F60006846007820210840002809D019A000F018
:101F700041F8FFF74AF90020154908600120EEE713
:101F80006846007804210840002802D016A000F01E
:101F900031F8FFF73AF90120E1E700000C7000008A
:101FA0000D0A5553422049525120696E747275735F
:101FB000623D000030782578000000000D0A000026
:101FC000436F6E6E656374204952510D0A00000024
:101FD0001C700000446973636F6E6E656374204902
:101FE00052510D0A00000000526573657420495279
:101FF000510D0A000FB410B503A9044B044A02980E
:1020000000F018F810BC08BC04B01847FD1400001C
:102010002C70000002E008C8121F08C1002AFAD183
:1020200070477047002001E001C1121F002AFBD158
:1020300070470000FFB591B00F460546002606E048
:1020400025280AD0149A139990476D1C761C28787D
:102050000028F5D1304615B0F0BD002400940121D0
:10206000F34A029400E004436D1C2B780846203BA1
:1020700098401042F7D128782A280ED002212878DB
:102080000246303A092A15D8009A0A235A43303AB0
:1020900080180C436D1C0090F1E701CF00900028E0
:1020A00005DA0120400304430098404200900220DA
:1020B00004436D1C28782E2815D104200443687829
:1020C0006D1C2A280AD101CF6D1C02900BE00299E9
:1020D0000A225143303940186D1C0290287801467D
:1020E00030390929F3D928786C2810D006DC4C281F
:1020F0001AD068280ED06A2817D104E0742813D0AB
:102100007A2812D110E00120400504430CE001219F
:10211000090501E0032109050C436978814203D1D7
:102120000120000524186D1C6D1C287803906E2872
:102130001ED00CDC632831D004DC00288AD058285B
:1021400011D1B2E064287BD069280CD178E07328E3
:102150002DD004DC6F2870D0702804D1A7E075283A
:102160006CD078286BD0149A13999047761C62E053
:102170006002400F022807D003280AD004283868DC
:102180000AD006603F1D56E03868F11706604160CE
:10219000F8E738680680F5E70670F3E738786946AF
:1021A00008740020487404A80390012003E03868F4
:1021B00003900020C0433F1D61070FD5002101E0BF
:1021C0000199491C029A0191914213DA8142F7DB8D
:1021D000019A0399895C0029F2D10BE0002101E00A
:1021E0000199491C01918142FADB019A0399895CAA
:1021F0000029F5D101990098139A401A00902146C0
:10220000149B00F03BF901998019461807E00398E8
:1022100003990078491C0391149A139990470198E7
:10222000401E0190401CF2D12146149B139A009845
:1022300000F014F986196D1C09E741E033E034E041
:102240000A200021049005916002410F022905D067
:1022500001CFC2179446032905D007E0FF1DFF08F0
:10226000FF0003CF06E000B2C2179446042902D152
:1022700040B2C1178C4600226146944506DA0A46F0
:102280000021404291418C462D2102E0210504D5D8
:102290002B216A461176012103E0E10701D02021BC
:1022A000F7E7019154E00A200BE0102009E010202C
:1022B000049000210420044308200591029003E0CB
:1022C00008200021059104906002410F022905D0E9
:1022D00001CF00229446032906D006E0FF1DFF0827
:1022E000FF0003CF8C4603E080B2042900D1C0B2C6
:1022F0000021019121072BD50399702906D0049A5A
:102300001021059B4A401A4305D00EE040216A4641
:102310001176012108E06146014306D030216A466A
:1023200011760399517602210191049A0821059BA7
:102330004A401A430CD16146014301D1610707D5D8
:1023400030216A461176012101910299491E0291BC
:102350000399582904D037A103910FA90F910DE0DB
:1023600039A1F9E76146059B049AFEF7E1FE039B5C
:102370008C469B5C0F9A521E0F921370614601436C
:10238000F0D10F9807A9081A20300390600704D5F0
:10239000012000048443029801E001200290039987
:1023A000884201DD401A00E00020411802900198A7
:1023B00009180098401A0090E00306D42146149BA7
:1023C000139A009800F05AF886190020049008E04B
:1023D00006A9085C149A139990470498401C761C2F
:1023E000049001998842F3DBE0030CD52146149B4D
:1023F000139A009800F042F8861904E0149A3020ED
:1024000013999047761C0299481E02900029F5DC2A
:1024100008E00F980F990078491C0F91149A1399AE
:102420009047761C0399481E03900029F1DCFBE6D7
:10243000092801003031323334353637383961629A
:10244000636465660000000030313233343536375E
:10245000383941424344454600000000F8B504467F
:1024600000251E461746880404D405E0394620207E
:10247000B0476D1C641EF9D52846F8BDFFB504466B
:10248000002581B01E46C80301D5302700E0202773
:10249000880404D505E038460399B0476D1C641ED6
:1024A000F9D5284605B0F0BD04460D462A4621461A
:1024B00002A0FFF79FFD00BFFEE7000057726F6E9E
:1024C0006720706172616D65746572732076616CEE
:1024D00075653A2066696C65202573206F6E206CE7
:1024E000696E652025640D0A00000000410008188F
:1024F00000E0401E0028FCD17047000070B5044683
:102500000D46E1B20648FFF7B9FC00BF0121C9063C
:102510000348FFF7C3FA0028F8D0204670BD00003A
:102520000030004000F06AF909A0FFF763FD0420C5
:102530000B494862012100F013F901225203910076
:10254000084800F04FF800F089F900BFFEE70000EE
:102550005374617274204C6F616465720D0A0000DF
:10256000800000400080002001B502E00098401E7D
:10257000009000980028F9D108BD00001CB5044661
:1025800001210191009101A800F078F8684600F05F
:1025900089F8012000F0D3F8FEF7D6FF012000F003
:1025A000A7F8684600790E4908706846007820430D
:1025B000487002210A4800F0A5F8FEF7BBFF012190
:1025C000019106E001A800F059F87D20C000FFF756
:1025D000CBFF68460079C007C00F0028F2D11CBDB0
:1025E00000700000F7B506460F46029C00BFFF20B2
:1025F0000130844201DC204601E0FF200130054625
:102600002A463946304600F024F8641B76197F19B3
:10261000002CECDC2046FEBD3EB505460C46019480
:10262000012000070090801002900120FEF796FF25
:102630006846FEF7A1FF2146284600F02BF9002846
:1026400002D00020C0433EBD0020FEF787FF0020DF
:10265000F9E770B506460D461446FEF775FF0320F0
:1026600000F046F8284600F031F821463046FFF7E2
:10267000D3FFFEF75FFF204670BD000010B5044693
:10268000FEF762FF052000F033F804210448FFF74D
:10269000C3FF034800782070FEF74CFF10BD000018
:1026A0000870000010B50446FEF74EFF352000F01C
:1026B0001FF804210448FFF7AFFF0348007820709B
:1026C000FEF738FF10BD00000870000010B504468A
:1026D0002002000E054908702004000E48708C701E
:1026E0000321024800F00EF810BD00000470000045
:1026F00010B5044602480470012100F003F810BD33
:10270000007000003EB505460C460194012000070C
:102710000090002002900120FEF720FF6846FEF79F
:102720002BFF2146284600F01FF9002802D0002088
:10273000C0433EBD0020FEF711FF0020F9E770B551
:102740000446002C01D0062000E004200546FEF7D8
:10275000FBFEE8B2FFF7CCFFFEF7ECFE70BD000019
:1027600030B587B005460C4601204002019040007C
:102770000290002003902802059006940122022175
:102780001D48FEF7EBFD012204211B48FEF7E6FD84
:10279000012210211848FEF7E1FD012220211648F0
:1027A000FEF7DCFD002201211348FEF7D7FD0122D0
:1027B00011461148FEF774FD01210F48FEF730FD68
:1027C000002208210C48FEF7C9FD012208210A4811
:1027D000FEF766FD08210848FEF722FD01211020C2
:1027E000FFF7A0F801211020FFF792F801A8FEF7EB
:1027F000F3FE002007B030BD0000034000B58BB0F1
:102800000121C802FFF784F801214020FFF780F87A
:102810000120FFF791F801219420FFF741F80222EF
:1028200051040C48FEF79AFD022291040948FEF774
:1028300095FD0948FFF7DAFA01A8FFF753FB01A954
:102840000548FFF79DF901210348FFF7E5F80BB0B4
:1028500000BD0000000002400030004010B5022022
:10286000FFF78CFE012006490860064800F0CAF810
:1028700005A0FFF7BFFB01208107486210BD0000E3
:1028800040020040012000007374617274205849B6
:10289000500D0A00F8B506460C4601256D05B00737
:1028A000800F002803D1A007800F002802D000204D
:1028B000C043F8BD00BF2848006AC007C00F002809
:1028C00003D028466D1E0028F5D1002D02DC002023
:1028D000C043EEE7214F224822490860084686603F
:1028E00087612046E217920F121892102146E317D3
:1028F0009B0F5B189B109B00E31A01D0012300E0A3
:102900000023D218174BDA610020194608611549D7
:10291000403108609920C001486001200E4988615B
:10292000FF200230086201256D0500BF0A48006AD9
:10293000C007C00F002804D10120FEF73FFE012888
:1029400003D128466D1E0028F0D1002D02DC0220A4
:10295000C043AEE70020ACE780030540240420001C
:102960004000014000000540F8B505460E46012430
:10297000640500BF1F48006AC007C00F002803D0CD
:102980002046641E0028F5D1002C02DC0020C04344
:10299000F8BD194F1948056019481849886008465C
:1029A0008761C66100200861144940310860112028
:1029B0008002486001200F498861FF2002300862D0
:1029C0000124640500BF0B48006AC007C00F00283F
:1029D00004D10120FEF7F2FD012803D12046641E38
:1029E0000028F0D1002C02DC0220C043D0E70020F8
:1029F000CEE70000800305400049100000000540BC
:102A00004000014010B50446012211461148FEF76E
:102A1000A5FC012208210F48FEF7A0FCEB200E497F
:102A200008620220FEF708FE02200B49803108618F
:102A300000200862084604600020FEF78FFD012098
:102A4000800605498860800048600520400648608F
:102A5000002010BD00000340000001407C1A00006F
:102A6000007000003000000014100000AC1A0000DC
:102A70003070000000020000241000000000000080
:102A8000000000000000000000000640FFFFFF0300
:102A90000000000000000000000000000000000036
:102AA000FFFFFFFF000000000000000010B502491A
:102AB000024800F07BFB10BD380B00200060004096
:102AC00000210160416010228260E1225202C26056
:102AD0006022026141618161D200C2610162416292
:102AE000704730B47446641E2578641CAB4200D233
:102AF0001D46635D5B00E31830BC184770B50446A3
:102B00000D461448844210D0134884420DD0134817
:102B100084420AD01248844207D01248844204D02A
:102B20001121490110A000F0E1FE002D05D0012D7A
:102B300003D01C490CA000F0D9FE002D04D0206861
:102B400001210843206070BD2068174908402060BB
:102B500070BD000000A0004000A8004000B0004090
:102B600000C0004000C800402E2E5C2E2E5C2E2E91
:102B70005C4C69627261726965735C4D31313330EE
:102B80005F5374645065726970685F4472697665FA
:102B9000725C7372635C6D313133305F74696D2EBA
:102BA0006300000021020000FEFF000070B5044633
:102BB0000D461646174884420FD0174884420CD061
:102BC0001648844209D01648844206D015488442EB
:102BD00003D0154915A000F089FE280A01D1002D67
:102BE00004D1114911A0491C00F080FE002E06D02E
:102BF000012E04D00C490DA0891C00F077FE002E98
:102C000003D0A0892843A08170BDA089A843A081DA
:102C100070BD000000A0004000A8004000B00040CF
:102C200000C0004000C80040B90800002E2E5C2EF5
:102C30002E5C2E2E5C4C69627261726965735C4D0C
:102C4000313133305F5374645065726970685F442A
:102C500072697665725C7372635C6D313133305FBB
:102C600074696D2E6300000070B504460D46184867
:102C700084420FD0174884420CD01748844209D0B0
:102C80001648844206D01648844203D0154916A03F
:102C900000F02CFE002D12D0102D10D0202D0ED0C3
:102CA000302D0CD0402D0AD0502D08D0602D06D0EC
:102CB000702D04D00B490CA0491C00F017FEA08811
:102CC00070218843A080A0882843A08070BD0000A8
:102CD00000A0004000A8004000B0004000C000403C
:102CE00000C80040D60A00002E2E5C2E2E5C2E2E30
:102CF0005C4C69627261726965735C4D313133306D
:102D00005F5374645065726970685F447269766578
:102D1000725C7372635C6D313133305F74696D2E38
:102D200063000000F8B504460D46294E294FB44211
:102D30000ED0BC420CD02848844209D02748844297
:102D400006D02748844203D0F22126A000F0CEFD11
:102D5000688800280BD0102809D0202807D04028E8
:102D600005D0602803D0F3211EA000F0BFFD288904
:102D7000002809D0C11FF93906D0FF39013903D025
:102D8000F42118A000F0B2FD206880B2B44201D056
:102D9000BC4203D170218843698808432049084018
:102DA000298901432160A888A08528882085B4420C
:102DB00008D00948844205D00848844202D0084817
:102DC000844201D1A87A20860120A082F8BD0000AB
:102DD00000A0004000A8004000B0004000C000403B
:102DE00000C800402E2E5C2E2E5C2E2E5C4C69629C
:102DF0007261726965735C4D313133305F53746455
:102E00005065726970685F4472697665725C73724E
:102E1000635C6D313133305F74696D2E6300000087
:102E2000FFFC000070B504460D460E48844209D0F0
:102E30000D48844206D00D48844203D0DF210CA007
:102E400000F054FD002D05D0012D03D0E02108A095
:102E500000F04CFD0120002D01D0606270BDA06229
:102E600070BD0000002000400030004000600040C5
:102E70002E2E5C2E2E5C2E2E5C4C69627261726965
:102E800065735C4D313133305F53746450657269E2
:102E900070685F4472697665725C7372635C6D31F1
:102EA0003133305F75736172742E6300F0B58BB08F
:102EB00004460E4615460120FDF77EFF4E4884422B
:102EC0000AD12020FDF714FF04219020FDF720FFF8
:102ED0000920694608701BE0484884420AD1402016
:102EE000FDF706FF04219420FDF712FF0A20694632
:102EF00008700DE0424884420AD10120C006FDF767
:102F0000F7FE04219820FDF703FF0C2069460870A6
:102F10002A463C4F3C48BD001300FFF7E2FD060483
:102F2000111C27323D470121032209043846FDF7D1
:102F30002FFD0121032249043846FDF729FD35E024
:102F40000222D1050746FDF723FD0222110638466D
:102F5000FDF71EFD2AE0022204213846FDF718FD88
:102F6000022208213846FDF713FD1FE0022251041A
:102F70003846FDF70DFD022229463846FDF708FDCB
:102F800014E0032201213846FDF702FD032202214D
:102F90003846FDF7FDFC09E0022251060746FDF721
:102FA000F7FC022291063846FDF7F2FC0120694643
:102FB0008870022048706846FDF77AFD204600F0D0
:102FC00089FA01A8FFF77CFD049601208005029094
:102FD00001A9204600F06EF9FF200004A0606560A2
:102FE000052101220905204600F012F901212046A1
:102FF000FFF718FF0BB0F0BD00200040003000408C
:10300000006000400000024000000340F8B50546A3
:103010000C460026234FBD4209D02348854206D0E6
:103020002248854203D0224922A000F05FFC012003
:10303000000484421FD0400084421CD040008442DF
:1030400019D04000844216D04001844213D0400081
:10305000844210D0400084420DD0400084420AD007
:103060004000844207D04000844204D04D21C90072
:1030700010A000F03BFC0120000784420CD1BD42AF
:103080000AD00948854207D00848854204D09B21D0
:10309000890008A000F02AFC286E204200D00126FA
:1030A0003046F8BD00200040003000400060004085
:1030B000670200002E2E5C2E2E5C2E2E5C4C696268
:1030C0007261726965735C4D313133305F53746482
:1030D0005065726970685F4472697665725C73727C
:1030E000635C6D313133305F75736172742E6300D0
:1030F00070B505460C4600261948854209D0194886
:10310000854206D01848854203D0184918A000F01F
:10311000EDFB102C1DD0202C1BD0402C19D0802C66
:1031200017D0E01FF93814D0FF38013811D0012032
:10313000800284420DD0400084420AD04000844284
:1031400007D04000844204D05521C90008A000F0F7
:10315000CDFB286C204200D00126304670BD000017
:10316000002000400030004000600040A702000046
:103170002E2E5C2E2E5C2E2E5C4C69627261726962
:1031800065735C4D313133305F53746450657269DF
:1031900070685F4472697665725C7372635C6D31EE
:1031A0003133305F75736172742E6300F8B5064673
:1031B0000D4610213046FFF79BFF0127EC1D3F060F
:1031C000F934002805D10AE0316DA068421CA260E4
:1031D000295439463046FFF719FF0028F4D0402122
:1031E0003046FFF785FF002805D1F8BD316DA06896
:1031F000421CA260295439463046FFF707FF0028D9
:10320000F4D0A0682060012060600020A060F8BDBC
:1032100070B504460D461646134884420AD013483A
:10322000844207D01248844204D0FF213D3111A0CE
:1032300000F05CFBA800800D02D01D48054204D0C0
:10324000FF213E310BA000F051FB002E06D0012ED5
:1032500004D0FF213F3107A000F048FB002E01D031
:10326000656470BDA56470BD002000400030004062
:10327000006000402E2E5C2E2E5C2E2E5C4C69626F
:103280007261726965735C4D313133305F537464C0
:103290005065726970685F4472697665725C7372BA
:1032A000635C6D313133305F75736172742E63000E
:1032B000FFFF0FC0FEB505460C4600200090714E82
:1032C000714FB54208D0BD4206D07048854203D048
:1032D0008F216FA000F00AFB2069002809D0202868
:1032E00007D0402805D0602803D0912168A000F0C5
:1032F000FDFA6069002805D0082803D0922164A057
:1033000000F0F4FAA06900280BD0062809D00228A2
:1033100007D0822805D0862803D093215CA000F036
:10332000E5FAE069C11FF9390AD0FF39013907D040
:1033300003210902884203D0942155A000F0D6FA57
:10334000206A00280ED00121890388420AD0490052
:10335000884207D003218903884203D095214CA0DD
:1033600000F0C4FA606A002807D00121C90288422F
:1033700003D0962146A000F0B9FA2068002812D0A8
:103380000121090488420ED0490088420BD0032154
:103390000904884207D001218904884203D097217B
:1033A0003BA000F0A3FA6068002812D001210905B3
:1033B00088420ED0490088420BD00321090588427B
:1033C00007D001218905884203D0982130A000F060
:1033D0008DFAA068102805D0002803D099212CA0D0
:1033E00000F084FA206A00280AD0B54208D0BD4215
:1033F00006D02648854203D09E2125A000F076FA0B
:1034000003208007A860286B304908400190B5422E
:1034100004D19020FDF79CFB00900DE0BD4204D14B
:103420009420FDF795FB009006E01848854203D1F3
:103430009820FDF78DFB00900098E1688000FDF773
:10344000FFF88106890C8009800180026369226986
:1034500008431A430243A0690243A068024301984B
:1034600002432A63286A1A49084062682168236A6D
:103470001143E2691A431143626A1143014329620D
:10348000FEBD000000200040003000400060004011
:103490002E2E5C2E2E5C2E2E5C4C6962726172693F
:1034A00065735C4D313133305F53746450657269BC
:1034B00070685F4472697665725C7372635C6D31CB
:1034C0003133305F75736172742E630001C0000088
:1034D000FF3488FFF8B50446174D184E184FAC421C
:1034E00007D0B44205D0BC4203D06E2115A000F035
:1034F000FDF9AC4208D100212020FDF755FC012147
:103500002020FDF751FCF8BDB44208D10021402035
:10351000FDF74AFC01214020FDF746FCF8BDBC4206
:10352000FCD10124E40600212046FDF73DFC0121E9
:103530002046FDF739FCF8BD002000400030004077
:10354000006000402E2E5C2E2E5C2E2E5C4C69629C
:103550007261726965735C4D313133305F537464ED
:103560005065726970685F4472697665725C7372E7
:10357000635C6D313133305F75736172742E63003B
:1035800070B504460D46084884420AD00748844274
:1035900007D00748844204D0FF21833105A000F002
:1035A000A5F9256570BD00000020004000300040F6
:1035B000006000402E2E5C2E2E5C2E2E5C4C69622C
:1035C0007261726965735C4D313133305F5374647D
:1035D0005065726970685F4472697665725C737277
:1035E000635C6D313133305F75736172742E6300CB
:1035F0000FB410B503A9044B044A029800F008F870
:1036000010BC08BC04B01847293900000C00002089
:10361000FFB58FB00F460446002606E025280AD0E5
:10362000129A11999047641C761C20780028F5D1D5
:10363000304613B0F0BD00250121A14A009500E0FD
:103640000543641C23780846203B98401042F7D17C
:1036500020782E2815D1042005436078641C2A2880
:103660000AD101CF641C00900BE000990A2251435B
:1036700030394018641C00902078014630390929FF
:10368000F3D920786C280ED004DC4C2813D06A289B
:1036900012D104E074280ED07A280DD10BE001205D
:1036A0004005054307E00121090562780D43824288
:1036B00001D16D18641C641C2078864669284AD0A4
:1036C00008DC0028B4D058286DD0632810D06428B6
:1036D00008D140E070286BD0732812D0752860D0D4
:1036E000782860D0129A704611999047761CE5E0D0
:1036F0003878694608720020487202A801900120BB
:1037000003E0386801900020C0433F1D69070CD5D5
:10371000002500E06D1C00998D420FDA8542F9DB2F
:103720000199495D0029F5D108E0002500E06D1CF4
:103730008542FCDB0199495D0029F8D1761907E043
:10374000019801990078491C0191129A11999047AA
:103750006D1EF5D2B2E00A20029000216802400FEF
:10376000039102280CD001CFC117844600290DDA3D
:103770006246084652420021814194462D2008E0CD
:10378000FF1DFF08FF0003CF8446EFE7280504D59F
:103790002B206A46107401203CE0E8073AD0202034
:1037A000F7E70A2000E0102000210391029007E0D3
:1037B000102002900021042005430820039100906E
:1037C0006802400F022810D001CF0021844600205B
:1037D0000D9028071FD5704670280CD0029A102033
:1037E000039B42401A430CD015E0FF1DFF08FF0069
:1037F00003CF8446EBE740206A46107401200D9009
:103800000CE06046084306D030206A4610747046CB
:10381000507402200D907046582804D029A00190C1
:103820000DA80E900DE02CA0F9E76046039B029ACC
:10383000FCF71CFF019B84469B5C0E9A521E0E9265
:10384000137060460843F0D10E9805A9081A20307D
:103850000190680701D5009801E0012000900199CE
:10386000884203DD01460198081A00E00020002587
:10387000009006E004A8129A405D119990476D1CD3
:10388000761C0D988542F5DB04E0129A30201199E0
:103890009047761C0099481E00900029F5DC08E04E
:1038A0000E980E990078491C0E91129A1199904722
:1038B000761C0199481E01900029F1DC641CB4E6D5
:1038C00009280100303132333435363738396162F6
:1038D00063646566000000003031323334353637BA
:1038E0003839414243444546000000000A4601463B
:1038F00001A0FFF77DFEFEE757726F6E67207061D3
:1039000072616D65746572732076616C75653A20BD
:1039100066696C65202573206F6E206C696E65206A
:1039200025640D0A0000000070B50446074DE1B2A1
:103930002846FFF725FE0126F60631462846FFF702
:1039400065FB0028F9D0204670BD00000030004023
:103950000322E12149021948FFF7A8FA18A0FFF74E
:1039600047FEFDF78FF8FDF75DFA002019490125A4
:10397000AD020854401CA842FBDB032424040121AF
:103980002046FCF7CDFB2A4621461248FCF718FCDE
:103990002A4611492046FCF782FC00240E4E21469F
:1039A000325D0EA0FFF724FE11A0FFF721FE641C7C
:1039B000AC42F4DB0FA0FFF71BFEFEE70030004037
:1039C00053746172742054657374205858580D0AEA
:1039D00000000000200100202005002074656D70AB
:1039E0004275665B25785D3D2030782578000000C3
:1039F0000D0A0000456E64205465737420585858B1
:103A00000D0A00000000000000000000000000009F
:043A100000000000B2
:04000005000000E90E
:00000001FF
