:020000040000FA
:10000000C0380020B1000000B9000000CD000000A1
:1000100000000000000000000000000000000000E0
:10002000000000000000000000000000D1000000FF
:100030000000000000000000CF000000D30000001E
:10004000C3000000C3000000C3000000C3000000A4
:10005000C3000000C3000000C3000000C300000094
:10006000C3000000ED13000001140000C3000000F5
:1000700015140000C3000000C3000000C30000000E
:1000800005020000C3000000C3000000C300000020
:1000900000000000C3000000C3000000C300000017
:1000A0000000000000000000C3000000C3000000CA
:1000B0000448804704480047FEE7FEE7FEE7FEE706
:1000C000FEE7FEE791130000E9000000FEE770473D
:1000D0007047704701B502E00098401E00900098FC
:1000E0000028F9D108BD00000348854600F006F855
:1000F00000480047C93D0000C0380020064C0125DB
:10010000064E05E0E36807CC2B430C3C98471034BF
:10011000B442F7D3FFF7ECFF40010000600100009C
:1001200002E008C8121F08C1002AFAD170477047C0
:10013000002001E001C1121F002AFBD1704700001E
:10014000444D0000000000202800000020010000B5
:100150006C4D00002800002098380000300100009D
:1001600030B50B46014600202022012409E00D464F
:10017000D5409D4205D31D469540491B25469540D7
:1001800040191546521E002DF1DC30BD03460B43CD
:100190009B0703D009E008C9121F08C0042AFAD23D
:1001A00003E00B780370401C491C521EF9D27047C3
:1001B000D2B201E00270401C491EFBD270470022FF
:1001C000F6E710B513460A4604461946FFF7F0FF56
:1001D000204610BDCAB2401E4178401C8A4202D05F
:1001E0000029F9D10020704730B5044600200346AD
:1001F00000E05B1C934203D2E05CCD5C401BF8D076
:1002000030BD000010B50121002000F0A1F8194C0C
:10021000002806D02068002800D08047002000F089
:1002200063F80121084600F093F8002806D06068C2
:10023000002800D08047012000F056F8012102205C
:1002400000F086F8002806D0A068002800D080477B
:10025000022000F049F80121032000F079F800287D
:1002600006D0E068002800D08047032000F03CF86A
:1002700010BD00002800002070B504460D4616464B
:10028000002C09D0012C07D0022C05D0032C03D060
:10029000F82105A001F000FE582044431148201821
:1002A0000564466470BD00002E2E5C2E2E5C2E2E42
:1002B0005C4C69627261726965735C4D31313330D7
:1002C0005F5374645065726970685F4472697665E3
:1002D000725C7372635C6D313133305F646D612EBB
:1002E000630000000000054010B50446002C0AD051
:1002F000012C08D0022C06D0032C04D0FF21A431FD
:1003000003A001F0C9FD01201049A040886310BD81
:100310002E2E5C2E2E5C2E2E5C4C696272617269F0
:1003200065735C4D313133305F537464506572696D
:1003300070685F4472697665725C7372635C6D317C
:100340003133305F646D612E6300000000030540AF
:1003500070B504460D46002C0AD0012C08D0022CA2
:1003600006D0032C04D0FF218A3107A001F094FDB0
:1003700001221448A240002D02D0806A104070BDB6
:100380000068104070BD00002E2E5C2E2E5C2E2EBC
:100390005C4C69627261726965735C4D31313330F6
:1003A0005F5374645065726970685F447269766502
:1003B000725C7372635C6D313133305F646D612EDA
:1003C00063000000C0020540054901220B7882400D
:1003D00093430B700021034A8000115070470000C6
:1003E000000000202800002010B50446002C0AD090
:1003F000012C08D0022C06D0032C04D0FF215E3142
:1004000006A001F049FD1448006A0121A1400842FC
:1004100001D0012010BD002010BD00002E2E5C2E4A
:100420002E5C2E2E5C4C69627261726965735C4D44
:10043000313133305F5374645065726970685F4462
:1004400072697665725C7372635C6D313133305FF3
:10045000646D612E6300000080030540F0B500214B
:100460000D4E0E4C01252A4623788A401A4204D1AB
:10047000376A174204D01A432270491C0429F2DB60
:10048000042902DA064B8A00985020788D400543F3
:100490002570C8B2F0BD00008003054000000020B8
:1004A0002800002010B50446002C0AD0012C08D0EA
:1004B000022C06D0032C04D0FF21073105A001F047
:1004C000EBFC134901208861A04002021018086269
:1004D00010BD00002E2E5C2E2E5C2E2E5C4C696210
:1004E0007261726965735C4D313133305F5374648E
:1004F0005065726970685F4472697665725C737288
:10050000635C6D313133305F646D612E63000000D8
:100510008003054070B504460E460025002C0AD025
:10052000012C08D0022C06D0032C04D0FF21253149
:100530000CA001F0B1FC2046FFF756FF012803D0C4
:100540002046FFF7AFFF00E00125002D02D000207C
:10055000C04370BD002E03D0204601F05DFB70BD8E
:10056000002070BD2E2E5C2E2E5C2E2E5C4C6962FF
:100570007261726965735C4D313133305F537464FD
:100580005065726970685F4472697665725C7372F7
:10059000635C6D313133305F646D612E6300000048
:1005A00070B505460C463C4EB54206D03B488542E8
:1005B00003D067213AA001F06FFC2079002808D110
:1005C0006079012805D0002803D06A2134A001F009
:1005D00063FC2068002803D16C2131A001F05CFC91
:1005E0002179002911D001290FD002290DD003292A
:1005F0000BD0042909D0052907D0062905D00729E1
:1006000003D06D2126A001F047FCB54221D1002086
:10061000324A2168C140C907C90F002909D08100A9
:1006200089180B68DB08DB000B600B6825792B430E
:100630000B60401C2028ECD32079002805D161797B
:100640002748012902D02168816070BD216841607E
:1006500070BD0020214A80322168C140C907C90FFE
:10066000002909D0810089180B68DB08DB000B60CA
:100670000B6825792B430B60401C2028ECD3207994
:100680000028E5D161791748012902D021688160ED
:1006900070BD2168416070BD000002400000034051
:1006A0002E2E5C2E2E5C2E2E5C4C6962726172695D
:1006B00065735C4D313133305F53746450657269DA
:1006C00070685F4472697665725C7372635C6D31E9
:1006D0003133305F6770696F2E6300000010004097
:1006E000008002400080034070B504460D46094872
:1006F000844206D00848844203D0084908A001F08B
:10070000CBFB002D04D1054905A0491C01F0C4FB19
:10071000656070BD0000024000000340210200003F
:100720002E2E5C2E2E5C2E2E5C4C696272617269DC
:1007300065735C4D313133305F5374645065726959
:1007400070685F4472697665725C7372635C6D3168
:100750003133305F6770696F2E630000F8B506466D
:100760000D461446284FBE4206D02848864203D084
:10077000BE2127A001F090FB002D03D1BF2124A0B2
:1007800001F08AFB002C11D0012C0FD0022C0DD0CF
:10079000032C0BD0042C09D0052C07D0062C05D037
:1007A000072C03D0C0211AA001F076FBBE4214D161
:1007B0000020264A2946C140C907C90F002908D090
:1007C000810089180B68DB08DB000B600B68234392
:1007D0000B60401C2028EDD3F8BD00201B4A80325E
:1007E0002946C140C907C90F002908D081008918CE
:1007F0000B68DB08DB000B600B6823430B60401CBD
:100800002028EDD3F8BD00000000024000000340A6
:100810002E2E5C2E2E5C2E2E5C4C696272617269EB
:1008200065735C4D313133305F5374645065726968
:1008300070685F4472697665725C7372635C6D3177
:100840003133305F6770696F2E6300000010004025
:1008500070B50446A078002805D0012803D088216F
:1008600013A001F019FBA0780123002817D02178EC
:100870001D488A089200101802688907C90EFF25D2
:100880008D40AA436578AD072D0E8D401543056058
:100890002078C006C00E83401448036070BD2078E5
:1008A000C006C00E834011488030036070BD000058
:1008B0002E2E5C2E2E5C2E2E5C4C6962726172694B
:1008C00065735C4D313133305F53746450657269C8
:1008D00070685F4472697665725C7372635C6D699F
:1008E00073632E630000000000E400E000E100E01C
:1008F00001680122D206914301607047016801221C
:10090000D20611430160704770B505460C46002CB5
:1009100006D0012C04D0FF21103105A001F0BCFA53
:1009200001204003012C01D0A86170BD686170BD39
:100930002E2E5C2E2E5C2E2E5C4C696272617269CA
:1009400065735C4D313133305F5374645065726947
:1009500070685F4472697665725C7372635C6D3156
:100960003133305F717370692E63000070B50446D7
:100970000D462868002808D001210907884204D0C4
:10098000FF213A311BA001F087FA0126A868B606BC
:10099000002806D0B04204D0FF213B3115A001F061
:1009A0007BFA2068400100D4002668682067012295
:1009B000A8685207B0420DD12168090105D5296800
:1009C00001430520C006014302E0296801431143A9
:1009D000216070BD2168090105D529680143012006
:1009E000C006014301E029680143216020681043EB
:1009F000206070BD2E2E5C2E2E5C2E2E5C4C69620B
:100A00007261726965735C4D313133305F53746468
:100A10005065726970685F4472697665725C737262
:100A2000635C6D313133305F717370692E63000028
:100A300070B506460C460125AD05002C06D0AC422B
:100A400004D0FF21973104A001F026FAAC4201D175
:100A5000756170BDB56170BD2E2E5C2E2E5C2E2E84
:100A60005C4C69627261726965735C4D313133301F
:100A70005F5374645065726970685F44726976652B
:100A8000725C7372635C6D313133305F71737069A6
:100A90002E63000070B504460D46182D0BD0382D7E
:100AA00009D0782D07D0B82D05D0F82D03D0A82176
:100AB00013A001F0F1F9F820782D16D008DC182DDC
:100AC0000ED0382D03D1216981433831216170BDA9
:100AD000B82D0FD0F82DFAD121690143216170BDE5
:100AE000216981431831216170BD216981437831C9
:100AF000216170BD21698143B831216170BD000061
:100B00002E2E5C2E2E5C2E2E5C4C696272617269F8
:100B100065735C4D313133305F5374645065726975
:100B200070685F4472697665725C7372635C6D3184
:100B30003133305F717370692E63000070B5064603
:100B40000D4600240648054204D1FF21B83105A016
:100B500001F0A2F9306D284200D00124204670BD7A
:100B6000F10FF00F2E2E5C2E2E5C2E2E5C4C696247
:100B70007261726965735C4D313133305F537464F7
:100B80005065726970685F4472697665725C7372F1
:100B9000635C6D313133305F717370692E630000B7
:100BA000F8B505460C462068002807D0C11FFF395C
:100BB000FA3903D0612139A001F06EF9606800288C
:100BC00007D001218902884203D0622133A001F0BD
:100BD00063F9A068002807D001218905884203D065
:100BE00063212EA001F058F9E068FF2212020146AD
:100BF000914301D1002803D1642128A001F04CF9D0
:100C00006069C11FF93905D0002803D0662123A0EF
:100C100001F042F9207E002807D0012805D00228E3
:100C200003D067211DA001F037F9E16918290BD025
:100C3000382909D0782907D0B82905D0F82903D058
:100C4000682116A001F028F90121284600F0DCF9FE
:100C5000002600960121090302E00098401C009044
:100C600000988842F9DB217E284600F041F9217F77
:100C70002846FFF70FFF6168206808436169084351
:100C800068612846A168FFF7D3FE2169E068084340
:100C90001149084328636E61F8BD00002E2E5C2EBA
:100CA0002E5C2E2E5C4C69627261726965735C4DBC
:100CB000313133305F5374645065726970685F44DA
:100CC00072697665725C7372635C6D313133305F6B
:100CD000717370692E6300000000FFFFF8B50546D0
:100CE0000F461446B807A107084305D02DA000F011
:100CF000CFFF0120C043F8BD3048844202DD002010
:100D0000C043F8BD0020FFF7A9FB0646042E05D31B
:100D10002BA000F0BDFF0020C043F8BD58202E4995
:100D2000704340182D492A464032026087600022F5
:100D300002618161E117890F09198A10A10700D0AA
:100D400001215118C1612648854206D19922D2015C
:100D500000213046FFF790FA0FE02248854206D185
:100D6000BB22D20100213046FFF786FA05E0FF22C0
:100D7000D20100213046FFF77FFA01213046FFF70C
:100D8000C9FB002808D018A000F082FF3046FFF70A
:100D90001BFB0020C043F8BD3046FFF715FB0020C9
:100DA000F8BD00005153504978205278206E6F747E
:100DB00020616C69676E6564210A0000FC07000011
:100DC000616C6C20646D61206368616E6E656C207F
:100DD000627573790D0A00000000054024042000AC
:100DE0000000014000100140515350493A20444D49
:100DF0004120726F7574696E65206661696C656407
:100E000020666F7220726561642E0000F7B504469B
:100E10000F460020FFF722FB05460026F643042D6F
:100E200004D320A000F034FF3046FEBD58202349F3
:100E300068434018224907602246403282600022FF
:100E4000026181610299C1611E48844206D111226A
:100E5000920200212846FFF70FFA0FE01A48844259
:100E600006D15522120200212846FFF705FA05E0B7
:100E70007722120200212846FFF7FEF901212846B9
:100E8000FFF748FB002807D010A000F001FF28461C
:100E9000FFF79AFA3046FEBD2846FFF795FA002084
:100EA000FEBD0000616C6C20646D61206368616E42
:100EB0006E656C20627573790D0A000000000540B4
:100EC00000491000000001400010014051535049FA
:100ED0003A20444D4120726F7574696E65206661D9
:100EE000696C656420666F722077726974652E0084
:100EF00070B504460D46002D07D0012D05D0022DFA
:100F000003D089210BA000F0C7FF002D07D0012DD1
:100F10000AD02069C008C000801C206170BD206913
:100F2000C008C000206170BD2069C008C000401C1E
:100F3000206170BD2E2E5C2E2E5C2E2E5C4C6962C4
:100F40007261726965735C4D313133305F53746423
:100F50005065726970685F4472697665725C73721D
:100F6000635C6D313133305F717370692E630000E3
:100F7000F8B50F462148224C4078002814D0214D66
:100F8000A61401281DD0022829D003280BD13B46E6
:100F900003223146204603F00AFE3B46032271003D
:100FA000204603F004FEF8BD01223B4611462046D0
:100FB00003F0FDFD3B4601220821204603F0F7FD2A
:100FC000F8BD01213B4603224902284603F0EFFD0C
:100FD0003B4603223146284603F0E9FDF8BD0121D6
:100FE0003B4603220907284603F0E1FD01213B4669
:100FF00003224907284603F0DAFDF8BD0C00002063
:10100000000003400000024070B504460D46012D6B
:1010100005D0002D03D03B2116A000F03DFF01229A
:1010200052032349530096002248012D06D08442E2
:1010300014D10021104600F065F970BD844203D13F
:10104000104600F00BF970BD8C4203D1184600F039
:1010500005F970BD304600F001F970BD8C4204D135
:101060000021184600F04EF970BD0021304600F016
:1010700049F970BD2E2E5C2E2E5C2E2E5C4C6962C2
:101080007261726965735C4D313133305F537464E2
:101090005065726970685F4472697665725C7372DC
:1010A000635C6D313133305F717370692E630000A2
:1010B000001001400000014001627047F8B504468D
:1010C00062490869C0B28A69D5B2896ACFB2012182
:1010D0008907096B5E4AC906C90E0A31514300915E
:1010E000002806D0012806D0022806D0032806D002
:1010F00006E0574E04E0009E02E0554E00E0554EDB
:101100005248403001683046FFF72AF8802C1CD046
:10111000012080072018902C0AD0942C08D0982CFD
:1011200006D0B42C2BD0B82C4AD0A02C74D0FEE71B
:101130000178002908D0002D08D0012D0CD0022DF7
:1011400010D0032D14D018E00020F8BD01784048DD
:10115000FFF706F8044610E001780098FFF700F862
:1011600004460AE001783A48FEF7FAFF044604E034
:1011700001783848FEF7F4FF04462046F8BD3348AE
:101180004030416B002906D0002F06D0012F0AD035
:10119000022F0ED012E00020F8BD416B2C48FEF764
:1011A000DFFF04460AE0416B0098FEF7D9FF0446D2
:1011B00004E0416B2648FEF7D3FF04462046F8BD05
:1011C00022484030816B00290CD021000CD0012C2A
:1011D00010D0022C14D0032C18D0042C1DD0052CB8
:1011E00022D026E00020F8BD816B1948FEF7B8FF39
:1011F00004461EE0816B3046FEF7B2FF044618E05D
:10120000816B1448FEF7ACFF044612E0816B104876
:10121000FEF7A6FF04460CE00DE0816B7D20000286
:10122000FEF79EFF044604E0816B0B48FEF798FF33
:1012300004462046F8BD0178002904D001783046E4
:10124000FEF78EFFF8BD0020F8BD00004000004012
:10125000001BB70010270000006CDC0200B503463D
:101260000121184600F04EF80021184600F052F80F
:101270000121184600F04EF800BD000070B504468C
:101280000D46802C1BD0902C19D0942C17D0982C64
:1012900015D0A02C13D0A42C11D0A82C0FD0AC2C7E
:1012A0000DD0B42C0BD0B82C09D0BC2C07D0C02C3E
:1012B00005D0D02C03D0E92103A000F0EDFD0120E2
:1012C00080072018057070BD2E2E5C2E2E5C2E2EF1
:1012D0005C4C69627261726965735C4D31313330A7
:1012E0005F5374645065726970685F4472697665B3
:1012F000725C7372635C6D313133305F7263632E85
:101300006300000001229207002901D0506170475C
:101310009061704701229207002901D05060704708
:101320009060704710B50446002C09D0012C07D0FE
:10133000022C05D0032C03D0A72105A000F0ACFDA2
:10134000124884610021C1610121C16110BD00000A
:101350002E2E5C2E2E5C2E2E5C4C696272617269A0
:1013600065735C4D313133305F537464506572691D
:1013700070685F4472697665725C7372635C6D312C
:101380003133305F7263632E630000004000004021
:1013900010B500200121114A89074A61104B04222F
:1013A0001A60104A9368FF241134A34393600E4AD5
:1013B0000A63CA1303E00346401C934202D24B6BFC
:1013C000012BF8D17D20C000FEF784FE04480121E6
:1013D0004038016100224261416110BD18080000DF
:1013E0008000004000020040160000C010B5024915
:1013F000024800F0DDF910BD9830002000200040C8
:1014000010B50249024800F0D3F910BDA431002004
:101410000030004010B50249024800F0C9F910BD83
:10142000B03200200060004070B504460D460E4802
:10143000844209D00D48844206D00D48844203D02E
:10144000DF210CA000F028FD002D05D0012D03D0D8
:10145000E02108A000F020FD0120002D01D06062F5
:1014600070BDA06270BD0000002000400030004050
:10147000006000402E2E5C2E2E5C2E2E5C4C69628D
:101480007261726965735C4D313133305F537464DE
:101490005065726970685F4472697665725C7372D8
:1014A000635C6D313133305F75736172742E63002C
:1014B000F0B58BB004460E4615460120FFF732FF0B
:1014C0004E4884420AD12020FFF7C8FE0421902014
:1014D000FFF7D4FE0920694608701BE048488442A3
:1014E0000AD14020FFF7BAFE04219420FFF7C6FE80
:1014F0000A20694608700DE0424884420AD1012062
:10150000C006FFF7ABFE04219820FFF7B7FE0C20C2
:10151000694608702A463C4F3C48BD00130000F065
:10152000C7FB0604111C27323D4701210322090491
:101530003846FFF713F90121032249043846FFF723
:101540000DF935E00222D1050746FFF707F902221F
:1015500011063846FFF702F92AE002220421384634
:10156000FFF7FCF8022208213846FFF7F7F81FE0E2
:10157000022251043846FFF7F1F802222946384684
:10158000FFF7ECF814E0032201213846FFF7E6F8F4
:10159000032202213846FFF7E1F809E00222510652
:1015A0000746FFF7DBF8022291063846FFF7D6F828
:1015B000012069468870022048706846FFF748F9A4
:1015C000204600F089FA01A800F014FB04960120DF
:1015D0008005029001A9204600F06EF9FF2000046A
:1015E000A0606560052101220905204600F012F97E
:1015F00001212046FFF718FF0BB0F0BD002000408E
:101600000030004000600040000002400000034045
:10161000F8B505460C460026234FBD4209D02348A5
:10162000854206D02248854203D0224922A000F0FC
:1016300033FC0120000484421FD0400084421CD0AF
:101640004000844219D04000844216D040018442B8
:1016500013D04000844210D0400084420DD040009E
:1016600084420AD04000844207D04000844204D023
:101670004D21C90010A000F00FFC0120000784429A
:101680000CD1BD420AD00948854207D0084885429E
:1016900004D09B21890008A000F0FEFB286E2042A8
:1016A00000D001263046F8BD002000400030004048
:1016B00000600040670200002E2E5C2E2E5C2E2E55
:1016C0005C4C69627261726965735C4D31313330B3
:1016D0005F5374645065726970685F4472697665BF
:1016E000725C7372635C6D313133305F757361723C
:1016F000742E630070B505460C46002619488542D5
:1017000009D01948854206D01848854203D01849A7
:1017100018A000F0C1FB102C1DD0202C1BD0402C99
:1017200019D0802C17D0E01FF93814D0FF380138B9
:1017300011D00120800284420DD0400084420AD0A2
:101740004000844207D04000844204D05521C900A3
:1017500008A000F0A1FB286C204200D001263046F2
:1017600070BD0000002000400030004000600040DC
:10177000A70200002E2E5C2E2E5C2E2E5C4C696281
:101780007261726965735C4D313133305F537464DB
:101790005065726970685F4472697665725C7372D5
:1017A000635C6D313133305F75736172742E630029
:1017B000F8B506460D4610213046FFF79BFF01277E
:1017C000EC1D3F06F934002805D10AE0316DA06810
:1017D000421CA260295439463046FFF719FF002801
:1017E000F4D040213046FFF785FF002805D1F8BD31
:1017F000316DA068421CA260295439463046FFF77B
:1018000007FF0028F4D0A06820600120606000205D
:10181000A060F8BD70B504460D46164613488442D4
:101820000AD01348844207D01248844204D0FF21D2
:101830003D3111A000F030FBA800800D02D01D4802
:10184000054204D0FF213E310BA000F025FB002E05
:1018500006D0012E04D0FF213F3107A000F01CFB71
:10186000002E01D0656470BDA56470BD00200040ED
:1018700000300040006000402E2E5C2E2E5C2E2E8C
:101880005C4C69627261726965735C4D31313330F1
:101890005F5374645065726970685F4472697665FD
:1018A000725C7372635C6D313133305F757361727A
:1018B000742E6300FFFF0FC0FEB505460C460020E6
:1018C0000090714E714FB54208D0BD4206D07048AD
:1018D000854203D08F216FA000F0DEFA2069002836
:1018E00009D0202807D0402805D0602803D09121B6
:1018F00068A000F0D1FA6069002805D0082803D05C
:10190000922164A000F0C8FAA06900280BD0062834
:1019100009D0022807D0822805D0862803D0932139
:101920005CA000F0B9FAE069C11FF9390AD0FF39AB
:10193000013907D003210902884203D0942155A020
:1019400000F0AAFA206A00280ED0012189038842FB
:101950000AD04900884207D003218903884203D076
:1019600095214CA000F098FA606A002807D0012168
:10197000C902884203D0962146A000F08DFA206863
:10198000002812D00121090488420ED04900884263
:101990000BD003210904884207D001218904884221
:1019A00003D097213BA000F077FA6068002812D09E
:1019B0000121090588420ED0490088420BD003213D
:1019C0000905884207D001218905884203D0982162
:1019D00030A000F061FAA068102805D0002803D0DC
:1019E00099212CA000F058FA206A00280AD0B542AC
:1019F00008D0BD4206D02648854203D09E2125A0AE
:101A000000F04AFA03208007A860286B304908409C
:101A10000190B54204D19020FFF750FB00900DE0FB
:101A2000BD4204D19420FFF749FB009006E018481E
:101A3000854203D19820FFF741FB00900098E168B0
:101A40008000FEF78DFB8106890C800980018002F1
:101A50006369226908431A430243A0690243A068EC
:101A60000243019802432A63286A1A4908406268BF
:101A70002168236A1143E2691A431143626A1143E0
:101A800001432962FEBD00000020004000300040FC
:101A9000006000402E2E5C2E2E5C2E2E5C4C696267
:101AA0007261726965735C4D313133305F537464B8
:101AB0005065726970685F4472697665725C7372B2
:101AC000635C6D313133305F75736172742E630006
:101AD00001C00000FF3488FFF8B50446174D184ECA
:101AE000184FAC4207D0B44205D0BC4203D06E219F
:101AF00015A000F0D1F9AC4208D100212020FFF759
:101B000009FC01212020FFF705FCF8BDB44208D1F3
:101B100000214020FFF7FEFB01214020FFF7FAFBE8
:101B2000F8BDBC42FCD10124E40600212046FFF7A9
:101B3000F1FB01212046FFF7EDFBF8BD002000403E
:101B400000300040006000402E2E5C2E2E5C2E2EB9
:101B50005C4C69627261726965735C4D313133301E
:101B60005F5374645065726970685F44726976652A
:101B7000725C7372635C6D313133305F75736172A7
:101B8000742E630070B504460D46084884420AD09E
:101B90000748844207D00748844204D0FF2183319C
:101BA00005A000F079F9256570BD00000020004017
:101BB00000300040006000402E2E5C2E2E5C2E2E49
:101BC0005C4C69627261726965735C4D31313330AE
:101BD0005F5374645065726970685F4472697665BA
:101BE000725C7372635C6D313133305F7573617237
:101BF000742E630000210160416010228260E122A6
:101C00005202C2606022026141618161D200C26100
:101C1000016241627047000070B505460124240648
:101C2000002D0DD0012D0BD0022D09D0032D07D092
:101C3000BA2108A000F030F902E0641E601C06D052
:101C40002846FEF7D1FB0128F7D0002070BD002008
:101C5000C04370BD2E2E5C2E2E5C2E2E5C4C696215
:101C60007261726965735C4D313133305F537464F6
:101C70005065726970685F4472697665725C7372F0
:101C8000635C6D313133305F646D612E6300000041
:101C90000FB410B503A9044B044A029800F016F8DB
:101CA00010BC08BC04B01847293C000024000020E8
:101CB00030B47446641E2578641CAB4200D21D46C5
:101CC000635D5B00E31830BC18470000FFB58DB0C2
:101CD0000F460546002606E025280AD0109A0F99DF
:101CE00090476D1C761C28780028F5D1304611B03D
:101CF000F0BD00240121674A009400E004436D1CFC
:101D00002B780846203B98401042F7D128782E289F
:101D100015D10420044368786D1C2A280AD101CF0C
:101D20006D1C00900BE000990A2251433039401895
:101D30006D1C00902878014630390929F3D928789C
:101D4000692843D006DC0028D0D063280BD0642853
:101D500004D13BE073280FD075284CD0109A0F990E
:101D60009047761C94E038786946087200204872E3
:101D700002A80190012003E0386801900020C043D0
:101D80003F1D61070CD5002400E0641C00998C42C3
:101D90000FDA8442F9DB0199095D0029F5D108E0E9
:101DA000002400E0641C8442FCDB0199095D0029E9
:101DB000F8D1361907E0019801990078491C019182
:101DC000109A0F999047641EF5D261E00A200190A5
:101DD00001CF002802DA40422D2102E0210504D57E
:101DE0002B216A461172012103E0E10701D0202175
:101DF000F7E70C9104E00A20019001CF00210C913B
:101E00000BA90B9108E00199FEF7AAF90A460B9974
:101E10003032491E0B910A700028F4D10B9803A9A7
:101E2000081A20300190600701D5009801E00120D8
:101E300000900199884203DD01460198081A00E0EC
:101E400000200024009006E002A8109A005D0F997F
:101E50009047641C761C0C988442F5DB04E0109AD1
:101E600030200F999047761C0099481E0090002959
:101E7000F5DC08E00B980B990078491C0B91109A3F
:101E80000F999047761C0199481E01900029F1DCBA
:101E90006D1C28E7092801000A46014601A0FFF74A
:101EA000F7FEFEE757726F6E6720706172616D65B5
:101EB000746572732076616C75653A2066696C652D
:101EC000202573206F6E206C696E652025640D0AD5
:101ED00000000000F8B504460020E070401E2063BA
:101EE000204602F017FA002801D00420F8BD2C4843
:101EF000201801F063FF05463420005D294FEB28D0
:101F000003D0E92801D0E82844D1BD4207D12046BA
:101F1000082225A18630FEF767F9002838D0204630
:101F20003F3001F04BFF264640367178421E10428A
:101F300030D10122520290422CD3D200904229D8B3
:101F4000002927D0481E014224D1B01C01F036FFE1
:101F500000281FD03079401E01281BD8701D01F0C9
:101F60002DFF002816D0F01D01F028FF802807D291
:101F70002046543001F016FF01210904884209D39C
:101F800020464A3001F01AFF002803D00020F8BD97
:101F90000020F8BDBD4201D10220F8BD0320F8BDEC
:101FA0003202000055AA000046415433322020205E
:101FB0000000000010B502460B461068946A241D0C
:101FC0008189408941431846FEF7CAF802CC0029AE
:101FD00004D0884204D22168081810BD002010BD2A
:101FE000401A241DF2E7891E8269921E8A4201D896
:101FF00000207047C26A4089484310187047F3B503
:1020000081B00F4601980568002F07D03946019826
:1020100001F01EFE022809D20120FEBD2E69002E0D
:1020200002D0A869B04207D8012605E0411CF4D0CF
:10203000A9698142F1D83E46686900281CD0002475
:10204000BE4216D1741CA869A04200D802242146C1
:10205000019801F0FDFD0128DFD0411CDDD00028F2
:1020600007D02869022803D3A969814200D906460E
:102070000024002C02D019E00020FEBD3446641C70
:10208000A869A04204D80224022E01D20020FEBD7D
:102090002146019801F0DCFD002807D00128F6D088
:1020A000411CF4D0B442EAD10020FEBD0026F64324
:1020B00032462146284602F048F9002806D1002F72
:1020C00004D022463946284602F03FF9002804D0C1
:1020D00001280FD001242046FEBD2C61A969686942
:1020E000891E884201D8401E686128790121084371
:1020F0002871F0E73446EEE7F3B583B00499096838
:1021000000910746203720220B213846FEF750F871
:1021100000252E4608200190009928460C5C6D1C75
:10212000202C17D92F2C0FD05C2C0DD02E2C02D0A8
:10213000019886421CD301980B2801D02E2C13D075
:10214000062005B0F0BD6D1C0098405D2F28FAD028
:102150005C28F8D00098411904980160002E34D012
:102160003878E52833D034E008260B200190D3E7F7
:10217000204600F0E9F8002815D0284600996D1C8B
:10218000085C0290029800F0E7F8002803D001985C
:10219000401E864201D30620D3E7701CBC5502992D
:1021A000461C3954B8E7214610A0FEF713F8002862
:1021B00001D00620C5E720466138192801D8203C07
:1021C000E4B23046761C3C54A6E70620B9E7052069
:1021D0003870202C03D90098405D202801D80420B5
:1021E00000E00020F8720020ABE700002A2B2C3A18
:1021F0003B3C3D3E5B5D7C223F7F0000FFB589B0EC
:1022000003AA0121099800F079FA002802D00120E0
:102210000DB0F0BD039802903F2001900827FC010B
:1022200001E07806070E002F07D001983946414398
:102230000298FDF795FFA042F3D8002F00D1FF27A9
:10224000012109030C98FDF7BAFF0C9CFF34BF3441
:1022500000200590019E58E0059881000A98455895
:10226000642D05D869D064210298FDF779FF4543B4
:1022700002997019884201D8B04201D20298851B98
:10228000002D4AD020463146083002F084FC20461A
:1022900029460C3002F07FFC0B98207101993046E2
:1022A00079430891FDF75CFF049030460199FDF7F2
:1022B00057FF07913946FDF753FF08460799491C18
:1022C00060700498C022800810400843A0700498F1
:1022D000E0707619701E0899FDF742FF0546701EE2
:1022E0000199FDF73DFF06913946FDF739FF084694
:1022F0000699491C6071A808C02210400843A071CB
:10230000E57110340598401C05900598042804D206
:10231000002E02D0029886429ED30C980949FF30C5
:10232000FF3002F040FC012300220C99099800F0D4
:102330001FFA002803D001206AE7029D98E70020D9
:1023400066E7000055AA0000812803D3FE2801D8C3
:102350000120704700207047402808D37E2801D80C
:102360000120704780387E2801D801207047002066
:1023700070477D22520106E00021491C89B291423A
:10238000FBD3401E80B20028F6D17047F8B5054651
:102390000E462F680021284600F038F9002813D196
:1023A00000243846A96901F0B5FF00280CD1E9697D
:1023B0000978E5290CD000290AD0002401212846FB
:1023C00000F065F80028ECD0042800D10720F8BD03
:1023D000641CB442F8D0F1E7F8B505460C4628462F
:1023E00002F04CFC002801D00120F8BD214628460F
:1023F000FFF7F9FD06462E63284601213430090314
:102400000446FDF7DCFE00940127002400E0E419F7
:102410006889A04207D9321968783B46009900F0D4
:10242000A7F90028F3D06889A04201D00120F8BDA7
:102430000020F8BD70B5044626680021204600F053
:10244000E5F8002820D13046A16901F063FF054678
:10245000280018D1E0690178002916D0C17A8906D0
:10246000890EA171C17A090706D421460B222031B9
:10247000FDF7BAFE002806D00021204600F007F83C
:1024800005462800DFD0284670BD0425FBE7F3B5DC
:1024900081B004462668276920370120400587421D
:1024A00001D30020A061A569002D06D0B18938466E
:1024B000FDF756FE002902D04CE00420FEBD6D1C45
:1024C000A5616569002D10D0B1893846FDF748FE39
:1024D0007189491E08423DD12946204601F0B8FBCA
:1024E0000546012D09D80220FEBD318978098842B0
:1024F00030D30020A0610420FEBD681C18D0B06954
:10250000A84221D80298002814D020466169FFF71C
:1025100076FD0546002D11D0012D11D0681C11D07B
:1025200029463046FFF758FF00280DD00120FEBD98
:102530000120FEBD0020A0610420FEBD0720FEBDDD
:102540000220FEBD0120FEBD656129463046FFF731
:102550004AFDA0612761B1893846FDF701FE88195F
:102560003430E0610020FEBD70B504460D46042005
:10257000266824E0304601F0CDFE002822D1E26931
:102580001178002917D0D27A9206920EA271E5290D
:102590000AD02E2908D00F2A06D0DF210A40082AA7
:1025A0000BD00021A9420DD000212046FFF76FFF7C
:1025B000002804D006E0042004E00121F2E7A1692C
:1025C0000029D7D1002801D00021A16170BD70B5CC
:1025D0000446266801212046FFF7D8FE054628005C
:1025E00012D13046A16901F095FE054628000BD1B5
:1025F0002021E069FDF7E3FD21460B222031E0694F
:10260000FDF7C4FD0120F070284670BDF8B50746FF
:102610000E463D6801204005864201D2F00601D0F9
:102620000220F8BD3E61BC68002C03D12878032845
:1026300000D3AC6A002C04D06889A9894843009073
:102640001AE029897009884201D30220F8BDA86ADE
:10265000B86119E02146384601F0FAFA0446601CD8
:1026600006D0022C02D3A869A04203D80220F8BDEC
:102670000120F8BD0098361A00988642EAD2214619
:102680002846FFF7B0FCB8617C61BC69002C0ED015
:10269000A9893046FDF764FD0019B861A989304663
:1026A000FDF75EFD48193430F8610020F8BD0220C6
:1026B000F8BD00003EB5002801D001203EBD00203D
:1026C00002210D4C00900B4602460191029004211C
:1026D000204601F05DFF0849C0310A690F20000261
:1026E00082430A6108698A1510430861204601F097
:1026F00031FF00203EBD000000100140030008D162
:10270000002907D0012910D0022905D0032908D0BB
:102710000420704700207047012000031080002033
:102720007047012010800020704701208002106057
:1027300000207047F8B50E4615461C46002801D00B
:102740000420F8BD002C0CD001273F032A033B4690
:102750003146054801F058FF6D1CF619641E002C27
:10276000F4D10020F8BD00000010014000207047A7
:10277000F8B50F4615461C46002801D00420F8BDC8
:10278000002C11D029030E46084801F0B3FE324652
:102790000126360333463946044801F09FFF6D1C7D
:1027A000BF19641E002CEDD10020F8BD00100140BF
:1027B00038B50446204601F091F8002807D1694653
:1027C000204602F080FA002801D10021216038BDA6
:1027D000F7B586B01446002205A906A801F03CFC16
:1027E000064630005CD105982060816942698B1EE5
:1027F0009A4202D80798026052E000240278012A27
:1028000005D00491476A0025002D18D01FE002254D
:1028100000902946684601F01BFA411C04D00128AB
:1028200004D0002804D004E001262FE002262DE089
:10283000641C05986D1C80698542EAD326E0394600
:102840007F1C059801F066FD064630001ED10598F4
:102850000178022906D04019343001F0A3FA0001B2
:1028600009D009E04019343001F0A8FA002800D15D
:10287000641CA81C01E0641C281D05998989FDF7CA
:102880006FFC0D460498401E0490BDD1002E07D168
:102890000798046005984461017901221143017190
:1028A000304609B0F0BDF0B589B004460E4605A922
:1028B000204602F008FA06900698002801D1607CB4
:1028C00006900698002802D0069809B0F0BD204670
:1028D0002C30A76A0890002F7ED0701C33D0E0689F
:1028E000B04200D206466661002E58D0711E2046C6
:1028F000FFF760FBA06101460598FFF774FB0746F0
:10290000002F53D0059DA88907900146701EFDF742
:1029100027FC6989491E0840C61960690799FDF7B7
:102920001FFC0029E1D0E269B242DED0207C000623
:1029300043D5687801230899FFF71AFF002838D09B
:1029400001206074C1E701CF00900226A168002930
:102950001ED001910025B61C02916D1C204601F08D
:1029600077F90146012902D802206074ADE7481CBE
:1029700016D00298401C8142EED00098864203D8BF
:102980003D60019878600837059880698842E0D8F2
:10299000A06A06600098864205D800203860CEE024
:1029A0000120607491E711200690C8E00220607455
:1029B0008BE7207C4006400E207405980123407868
:1029C00032460899FFF7B6FE002803D00120607454
:1029D0007BE701E0E661B2E0E068B04203D2217C2F
:1029E000890700D406466069039000200490606166
:1029F000002E6FD0059847898089474303980028A7
:102A000013D03946701EFDF7ABFB054603983946D7
:102A1000401EFDF7A5FB854207D30398401E791E93
:102A200088436061361AA5690DE0A568002D09D1BB
:102A300000212046FFF7E3FA0546012D06D0681C69
:102A400007D0A560A561002D2AD143E00220607463
:102A50003BE70120607438E7F61B6069C0196061CC
:102A6000207C800708D529462046FFF7C8FA05468E
:102A7000002D06D1002615E02946204601F0E8F891
:102A80000546681C08D0012D03D905988069A84225
:102A900005D80220607418E70120607415E7A5616D
:102AA000BE42D9D8606980196061059F3046B989F6
:102AB000FDF756FB00290DD029463846FFF793FA5B
:102AC0000546002D26D0059881893046FDF748FB44
:102AD00040190490E1686069884204D9E060217C73
:102AE000402211432174059DA989FDF739FB002976
:102AF00025D0E2690498824221D0207C000610D5BE
:102B0000687801230899FFF733FE002805D00120DB
:102B10006074DAE602206074D7E6207C4006400E3E
:102B20002074059801234078049A0899FFF702FE63
:102B3000002802D001206074C7E60498E06106987E
:102B4000C3E60000FFB599B00C4619A801F0F8F8EB
:102B5000002802DA0B201DB0F0BDFF498200895821
:102B6000002901D000220A70C0B21490002C00D1BC
:102B7000FA4C1498FFF79EFDC10701D00320EAE745
:102B8000400701D50A20E6E760681190012500287A
:102B900007D111AA03211498FFF7B0FD002800D037
:102BA00011951198002806D00121C903884202D846
:102BB000411E084200D0119513AA02211498FFF774
:102BC0009DFD002801D00120C5E710A88589E449B2
:102BD000E81FFF38FA38884202D2681E054201D049
:102BE0000120B8E720780007000F15906078411E9B
:102BF000012900D901200390A668DA49701E884295
:102C000005D869093046FDF7ABFA002901D0012645
:102C1000760202960121E0680906884202D8411E28
:102C2000084200D000202946FDF79AFA07462946B7
:102C30001C98FDF795FA1290129800280ED01B9D53
:102C4000002D0DD000200D900C900DAA012114989C
:102C5000FFF754FD002805D001207CE711207AE71A
:102C6000112078E71598000706D40D983F2803D95E
:102C70003F210C913F380D900D98802801D20E20F5
:102C800069E7802F00D980271598800702D515980D
:102C9000C00710D01598C0070FD0022601F04EF8DB
:102CA00001460D98189008180E903C46032E06D049
:102CB000002C31D03FE00326F0E713204BE7002C37
:102CC0000ED11898420C00200124A44B103B01E0C7
:102CD000401C64004100595A002901D09142F7D9A3
:102CE00021461898FDF73CFA1090109810A9898990
:102CF00080004018C01DFDF733FA05902020069093
:102D00000020049098491098884203D99749109858
:102D1000884230D90E201EE71898020B00200124AB
:102D20008E4B1E3B01E0401C64004100595A0029B3
:102D300001D09142F7D921461898FDF711FA8C4934
:102D4000884202D94000001D05E0012641004018DC
:102D5000401C4008C01C10A9898917914018401ECA
:102D6000FDF7FEF9059001200690029817994001A1
:102D7000FDF7F6F9049006990C9841180B91039908
:102D80000598049A48430B99891841180A910A99A1
:102D900011980A18521E401E8243501A0F90032E9B
:102DA0001FD003990F98FDF7DBF9002908D00F9881
:102DB000401E0F900698401C06900B98401C0B90EC
:102DC00003990F98FDF7CCF90599401805900A98DA
:102DD000210109180C98091A189881420AD90E2065
:102DE000B9E60F990698401806900F990B9840186D
:102DF0000B90ECE706991898421A039905984843F6
:102E0000111A0498081A2146FDF7AAF91090032E0A
:102E10000AD155491098884206D8002F02D1670878
:102E200000D042E70E2096E6022E21D14E4910989E
:102E3000884212D9002F04D16000402801D80746EB
:102E400033E71598800701D503262EE7002F02D11E
:102E50006700802FE5D90E207DE64549109888420D
:102E600006D8002F02D16700802FDAD90E2072E633
:102E7000012E05D13E491098884201D90E206AE6FC
:102E800010A881892846FDF79AF90B2239A1284616
:102E9000FDF77CF910A8818928460B3001F083FEEC
:102EA0006C73069881B228460E3001F07CFE0398C0
:102EB0002874032E10D0029881B22846113001F0F8
:102EC00072FE01200D990004814207D2284689B282
:102ED000133001F068FE05E00020EDE728462030C1
:102EE00001F059FEF820687528463F21183001F09E
:102EF0005AFE2846FF211A3001F055FE28461C30A4
:102F00000C9901F048FE8027032E47D02846273031
:102F10000E9901F040FE059881B22846163001F066
:102F200042FE28462030077129218171132214A105
:102F30000B30FDF72BF9E81D164FFF30F8303946FE
:102F4000169001F030FE012329460C9A1498FFF7E1
:102F50000FFC002846D01FE020000020344D000068
:102F6000010E0000FF7F0000F5FF0000F5FFFF0FDE
:102F7000F50F0000EBFE904D53444F53352E3000BB
:102F80004E4F204E414D45202020204641542020C8
:102F90002020200055AA00000120DCE5284643300F
:102FA0000E9901F0F8FD28462430059901F0F3FD53
:102FB000284602212C3001F0EEFD28460121303058
:102FC00001F0F1FD28460621323001F0ECFD2846E3
:102FD0004030077029218170132265A1C01DFDF7C3
:102FE000D5F8A8E7032E34D10C9A0123921D294667
:102FF0001498FFF7BDFB10A881892846FDF7DFF87C
:103000006049284601F0C7FD2846FF305E49E5309B
:1030100001F0C1FD10992846FF30491EE93001F04A
:10302000BAFD2846FF300221ED3001F0B4FD3946EB
:10303000169801F0B8FD0C9A0123D21D2946149868
:10304000FFF796FB0C9A0123521C29461498FFF7B0
:103050008FFB10A88089129941432846FDF7AFF8ED
:103060000B980990002001903CE0032E0CD0012E1B
:103070001AD00721C943284601F08DFD059F1298FB
:10308000874213D9129812E00721C943284601F05C
:1030900082FD0021C943281D01F07DFD28463B49E2
:1030A000083001F078FDE9E73949E4E738460F9048
:1030B00029460F9B099A1498FFF75AFB002801D064
:1030C000012048E510A881892846FDF778F80F9976
:1030D0000998401809900F983F1A002FCFD10198F6
:1030E000401C0190039901988842BED3032E00D062
:1030F000049C1298844201D9129F00E027463B4667
:103100002946099A1498FFF733FB002801D00120C3
:1031100021E50998C0190990E41B002CE9D1032E80
:1031200006D001200D990004814203D3062204E059
:103130000C2202E0022E17D00122159800070AD4B3
:103140000D980790002008902B4607A91498FFF7C8
:1031500055F80028B5D1002211461498FFF7CEFA91
:10316000002803D00120F6E40422E6E70020F2E480
:103170004E4F204E414D45202020204641543332B1
:10318000202020005252614172724161FFFFFF0F07
:10319000F8FFFF0017B581B014460298009068460A
:1031A00000F0CEFD002802DA0B2004B010BD0B4A5F
:1031B000810050580023002800D003700198002897
:1031C00000D003705050002C05D0002201A902A8A5
:1031D00000F042FFE9E70020E7E7000020000020C0
:1031E000F7B592B00546002D0AD09606B60E3246C7
:1031F00003A913A800F030FF0446200003D0DAE052
:10320000092015B0F0BD0398049004A8139900F0AC
:10321000CBFC0446200004D108A8C07E000600D5DF
:103220000624F006400F4FD0002C08D0042C03D108
:1032300004A8FFF7CCF904460820064309E06846D5
:10324000807D1121084201D0072402E0700700D5DB
:103250000824002C45D1300743D500F06FFD074608
:103260000B9839460E3001F096FC0B983946163013
:1032700001F091FC0B99039800F081FD07460B9932
:103280002020C87200220B99039801F072FC0B9861
:1032900000211C3001F07FFC03980121C170002F38
:1032A0001FD0006B01900022394604A801F026FCD3
:1032B0000446200015D10199039801F02BF804462B
:1032C00003987F1E07610CE0002C0AD16846807DC0
:1032D000C10601D5042404E0B10702D5C00700D01F
:1032E0000724002C08D1300701D54020064303985D
:1032F000006B28620B986862002C5CD10B990398D4
:1033000000F03DFDA8600B981C3000F04BFDE8601C
:103310000021A96203982860C088A8802E7469746F
:10332000E9616961284601212C3009031190FCF7FD
:1033300046FFB0063FD5EF68002F3CD06F61039881
:103340004189808941430291AE680CE031462846AC
:1033500000F07EFC0646012E00D80224701C00D12D
:10336000012402983F1A002C02D102988742EDD81E
:10337000AE61002C1FD10398109081893846FCF76C
:10338000EFFE002917D031461098FEF72CFE0646B6
:10339000300016D003980F9081893846FCF7E0FE84
:1033A0008219EA610F98012340781199FFF7C2F959
:1033B000002800D00124002C01D0002028602046E5
:1033C0001FE70224F7E70FB4F0B5A1B0002209927D
:1033D00001460DA801F084F828A8209027980178CC
:1033E000401C2790002970D0252903D00DA801F09A
:1033F00044F8F3E70026374620210B91751E047828
:10340000401C2790302C02D02D2C06D009E0302112
:103410000B910478401C279003E002270478401C9D
:1034200027902A2C0FD1209840C820902798047804
:10343000401C27900BE00A2046433619303E27985F
:103440000478401C2790204630380928F3D92E2CC8
:103450001AD127980478401C27902A2C01D00025E7
:103460000EE0209920C920910478401C27900BE0A1
:103470000A2045432D19303D27980478401C279099
:10348000204630380928F3D96C2C05D10420074395
:1034900027980478401C2790002C16D06F2C18D049
:1034A00008DC582C1BD0622C10D0632C1FD0642C4D
:1034B00006D111E0732C22D0752C0DD0782C0ED0B3
:1034C00021460DA800F0D9FF88E79BE002200C9070
:1034D00007E008200C9004E00A200C9001E0102086
:1034E0000C90780742D5209901C9209143E020989B
:1034F0000178001D20900DA800F0BFFF6EE7209816
:1035000002C80A9120900A99002901D109A80A90BD
:10351000002400E0641C0A98005D0028FAD1002D08
:1035200008DBAC4206D92C4604E00DA80B9900F04C
:10353000A4FF641CB80708D4B442F6D305E00A9887
:10354000401C0A900DA800F098FF0A980178002905
:1035500007D06D1E681CF2D103E020210DA800F0F9
:103560008CFF2046641CB042AED2F6E7642C05D036
:10357000209901C92091642C04D008E0209901C948
:103580002091F8E7002802DA404201210F4300258C
:103590000C99FCF7E5FDC9B2092904D9782C14D09F
:1035A00007225118C9B230312A4601AB6D1C99541B
:1035B000002801D0202DEBD3F80704D02D22284677
:1035C00001A96D1C0A542C4606E02722E9E70DA844
:1035D0000B9900F052FF641CB80701D4B442F6D333
:1035E00001AF6D1E795D0DA800F047FF002DF8D1E9
:1035F00003E020210DA800F040FF2046641CB042EB
:10360000B2D2F6E70DA800F055FF21B0F0BC08BC1F
:1036100004B01847FFB585B00446154600910898D8
:103620000021016002A9204601F04DFB002810D1C5
:10363000607C00280DD1207CC00709D06169E0685A
:10364000401A854200D9054620462C300490A6E059
:10365000072009B0F0BD029E6769B1893846FCF7C2
:103660007FFD00297FD17189491E08400646002E42
:1036700017D1002F07D0A06A002806D0394620466F
:10368000FEF798FC05E0A06803E02046A16900F081
:10369000DFFA022802D202206074DAE7411C23D04C
:1036A000A061A1690298FEF79EFC00281FD0801936
:1036B00001900298039081892846FCF751FD074646
:1036C00038002BD00398F1194089814200D9871B1B
:1036D00003983B464078019A0099FFF72BF80028A1
:1036E00008D001206074B4E701206074B1E70220C3
:1036F0006074AEE7207C00060CD5E1690198081AD9
:10370000B84207D202998A89009950434018049917
:10371000FCF73CFD029886897E4334E0E26901981B
:1037200082421ED0207C00060ED5039801234078EB
:103730000499FFF71DF8002802D00120607488E783
:10374000207C4006400E2074029801234078019AA4
:103750000499FEF7EFFF002803D00120607478E79A
:1037600001E00198E0610298868960693146FCF7C2
:10377000F7FC761AAE4200D92E4609192C31324692
:103780000098FCF703FDAD1B0898006881190898A4
:103790000160009880190090606980196061002DB7
:1037A00000D058E7002054E771B593B0022207A972
:1037B00013A800F051FC002833D120220B2101A8CE
:1037C000FCF7F6FC002401AE36E0401C1390E8B292
:1037D000FEF7BAFD00280ED013980078FEF7BCFD66
:1037E000002806D013990878491C13912902084330
:1037F00000E0002085B228466138192801D8203D14
:10380000ADB2002D0CD029463348FCF7E3FC00286C
:1038100006D1FF2D01D90A2000E00B20A04202D8DA
:10382000062014B070BDFF2D03D9290A2046641C60
:1038300031542046641C355413980578202DC4D289
:1038400068460079E52802D10620EAE7641E002CCC
:1038500004D030192038C07F2028F7D0079808906E
:1038600000200A90002108A8FEF7D0FE0028D8D139
:10387000012108A8FEF778FE012500281BD00428A6
:10388000CFD10020002CCCD0012108A8FEF77EFD6E
:103890000028C6D120210F98FCF791FC0F99082031
:1038A000C8720B2201A90F98FCF770FC0798C5702D
:1038B00001F098F9B5E7002C05D00B2201A90F986B
:1038C000FCF764FC02E00F99E52008700798C570CA
:1038D00001F088F9A5E70000044D0000F8B50446A2
:1038E0006946204601F0EFF900280FD1217C4A06F5
:1038F0000CD508060FD500982146E26940780123CF
:103900002C31FEF735FF002801D00120F8BD207CC6
:103910004006400E207400F011FA0646216A009815
:1039200000F0F8FC0028F1D1656A2021E87A08430C
:10393000E8722946A268206801F01BF928461C306D
:10394000E16801F028F928463146163001F023F9E4
:1039500028460021123001F026F900980121C1709B
:1039600001F040F9217CBF2211402174F8BDFFB560
:1039700085B004461546009108980021016002A90F
:10398000204601F0A0F9002806D1607C002803D170
:10399000207C800702D4072009B0F0BD606941197E
:1039A000814201D2401C454220462C300490C0E0A8
:1039B000029E6769B1893846FCF7D2FB00297BD1AA
:1039C0007189491E08400646002E27D1002F07D0D6
:1039D000A06A00280CD039462046FEF7EBFA0BE02F
:1039E000A068002808D100212046FEF708FB03E06C
:1039F0002046A169FEF703FB002872D0012806D0FB
:103A0000411C07D0A061A168002906D006E0022071
:103A10006074C1E701206074BEE7A060207C0006EE
:103A20000FD50298E269407801230499FEF7A0FEC1
:103A3000002802D001206074AEE7207C4006400ED2
:103A40002074A1690298FEF7CEFA00281CD08019D4
:103A500001900298039081892846FCF781FB074674
:103A600038002AD00398F1194089814200D9871B78
:103A700003983B464078019A0099FEF779FE0028AA
:103A800005D00120607487E70220607484E7E16953
:103A90000198081AB8420BD202998A8900995043BA
:103AA00041180498FCF772FB207C4006400E2074FD
:103AB000029886897E432BE016E0E16901988142F5
:103AC00010D0E168606988420CD2039801234078E5
:103AD000019A0499FEF72EFE002803D0012060749D
:103AE0005AE729E00198E0610298868960693146C9
:103AF000FCF736FB761AAE4200D92E4608192C3058
:103B000032460099FCF742FB207C80210843207458
:103B1000AD1B089800688119089801600098801909
:103B20000090606980196061E168884200D80846A9
:103B3000E060002D00D03BE7207C4021084320744A
:103B4000002029E7F0B585B006460D460021304635
:103B5000FEF7C0F9022803D0032823D2002D21D07C
:103B600000246F4620018019FF30FB3000F01AF965
:103B7000A1007850641C042CF4D3002D01D06C1EDD
:103B800000E00024A0003958002903D03046FEF799
:103B9000A1F900E00320002D04D1022802D3641C07
:103BA000042CEFD305B0F0BD73B50446256801E0E1
:103BB000401C0190019801782F29F9D05C29F7D099
:103BC0000020A0600198264600782036202806D2E2
:103BD0008020F07200212046FEF718FD7CBD01A96F
:103BE0002046FEF789FA0028F8D12046FEF722FC8D
:103BF000F17A002805D00428F0D14907EED4052039
:103C00007CBD4907FCD4A079C00601D405207CBD49
:103C1000A9892069FCF7A4FA49193431284600F033
:103C2000AEF8A060DBE7000070B50446074DE1B2D6
:103C30002846FDF7A7FF0126F60631462846FDF780
:103C4000E7FC0028F9D0204670BD0000003000409D
:103C5000FEB50D460468022D02D3A069A84201D822
:103C6000012609E00026F6432078012806D0022824
:103C700037D003284BD001263046FEBD68084719CF
:103C8000A1893846FCF76CFA616A4118204600F0B9
:103C900041FB0028F0D1A0890190781C00903846A3
:103CA0000199FCF75DFA08192030077D0199009809
:103CB000FCF756FA616A4118204600F02BFB0028F9
:103CC000DAD1A1890098FCF74BFA08192030007D61
:103CD00000023843E90701D00609CDE70605360D95
:103CE000CAE7A08941082846FCF73AFA616A4118F8
:103CF000204600F00FFB0028BED1A1896800FCF728
:103D00002FFA0819343000F059F80646B4E7A089B4
:103D100081082846FCF724FA616A4118204600F021
:103D2000F9FA0028A8D1A189A800FCF719FA081906
:103D3000343000F037F8060136099DE7002070475F
:103D400030B505460020C0432C68210008D00A7811
:103D5000491C212A01D33A2AF9D13A2A01D000205C
:103D600030BD01232278303A092A03D8A41C8C42A2
:103D700000D11346012BF3DA1846296030BD70B527
:103D800006460D4628461A3000F018F804463078EA
:103D9000032805D12846143000F010F8000404432D
:103DA000204670BDC1788278090211434278090229
:103DB00011430078090201430846704701464878DC
:103DC0000978000208437047454B9D44E1210322D6
:103DD00049024448FDF76CFB43A0FDF759FF01225F
:103DE0004CA14D48FFF7D6F94C4C207000281DD04F
:103DF00001464BA0FDF74CFF01231B0302AA002143
:103E000044A0FEF79FFE2070002804D0014644A085
:103E1000FDF73EFFFEE73FA0FFF7C6FC45A0FDF71C
:103E200037FF7D20C000FEF7A4FA02E041A0FDF7B5
:103E30002FFF44A0FDF72CFF01AA694635A0FEF72D
:103E4000C7FC2070019881694089891E4143009A0E
:103E500050438200890047A0FDF71AFF51A0FDF7EB
:103E600017FF0B225CA15F48FFF7BAF9207000280A
:103E700004D001465CA0FDF70BFFFEE70021594886
:103E8000FEF711FD2070002825D15DA15548FFF7F0
:103E90009AFA5448FEF78CFC01225DA15148FFF7C5
:103EA0009FF920704F48C5685CA02946FDF7F0FED9
:103EB00000214C48FEF7F7FC2070184B2A461B1DCA
:103EC0005F494848FFF7A6FB2070002803D15C49F2
:103ED0005CA0FDF7DDFE4348FEF76AFCCDE700007D
:103EE000F8EFFFFF003000400A2A2A2A2A2A2A2A4D
:103EF0002A2A2A2A2A2A2A2A20B9D2D4D8C9E8B1B9
:103F0000B8202A2A2A2A2A2A2A2A2A2A2A2A2A2A8D
:103F10002A0D0A00303A000038000020040000207A
:103F20006D6F756E74206661696C65642020256410
:103F30000D0A00006D6F756E742073756363657391
:103F4000730D0A000A2A2A2A2A2A2A2A2A2A2A2A0F
:103F50002A2A2A2A20C9E8B1B8D0C5CFA2BBF1C805
:103F6000A1202A2A2A2A2A2A2A2A2A2A2A2A2A2A44
:103F70002A0D0A00A1B7C9E8B1B8D7DCBFD5BCE4A7
:103F8000A3BA2564204B42A1A30AA1B7BFC9D3C3DA
:103F9000BFD5BCE4A3BA20202564204B42A1A30ACC
:103FA000000000000A2A2A2A2A2A2A2A2A20CEC405
:103FB000BCFEB6A8CEBBBACDB8F1CABDBBAFD0B4BB
:103FC000C8EBB9A6C4DCB2E2CAD4202A2A2A2A2A1B
:103FD0002A2A2A0D0A000000303A746573742E7480
:103FE000787400006C100020212120B4F2BFAACE0A
:103FF000C4BCFECAA7B0DCA3BA25640A0000000056
:104000000A68656C6C6F20776F726C64A3A10A00FC
:10401000303A2F746573742E7478740066696E6418
:104020002061707020636F64652066696C65202C68
:1040300073697A653A2564427974650D0A00000057
:1040400098200020A1B7CEC4BCFEC4DAC8DDA3BA54
:104050000A25730A00000000F7B584B00E46002759
:104060003760FFF76DFE0546280002D50B2007B02C
:10407000F0BD9F49A8000C58002C15D0346006985C
:10408000460876002078002804D06078FEF76EFBA2
:10409000C1070BD000202070E8B26070FEF70AFB69
:1040A000C1070BD00320E2E70C20E0E7002E03D08D
:1040B000400701D50A20DAE70020D8E7002E03D018
:1040C000400701D50A20D2E7224660780C3202214F
:1040D000FEF714FB002801D00120C8E7A089854A1B
:1040E000C11FFF39FA39914202D2411E084201D064
:1040F0000120BCE700212046FFF724FD042803D05F
:10410000022803D30D20B2E70120B0E7266B20463A
:104110003F30FFF753FEA189884201D00D20A6E76A
:1041200020464A30FFF74AFE002803D12046583087
:10413000FFF738FEE061214640310A460979A17057
:10414000012903D0022901D00D2090E741430191BC
:1041500050786081002802D0411E084201D00D2015
:1041600085E720464530FFF729FE2081A1894909CE
:10417000FBF7F6FF002901D00D2078E720464730F5
:10418000FFF71CFE0546002D04D120465430FFF7F2
:1041900009FE054620464230FFF710FE074638006C
:1041A0000ED0A089410920890390FBF7D9FF01991E
:1041B0007918401802900298854203D20D2056E7E4
:1041C0000D2054E702986189281AFBF7C9FF0028DF
:1041D00030D000254849884200D803254749884205
:1041E00000D802254649884200D80125002D23D059
:1041F000801CA0612662F1196162029AB218E26223
:10420000032D1BD0039A002A2DD0019A8918A16290
:10421000022D2AD041004118C0074908C00F0818D4
:10422000A189401E0818FBF79BFFE16988421ED94F
:104230000D201CE70D201AE70D2018E720465E3000
:10424000FFF7BCFD002801D00D2010E720890028D1
:1042500001D00D200BE720466030FFF7A3FDA062E0
:10426000A0698000DCE70D2001E74000D8E70020CE
:10427000C0436061206180202071032D2ED1204633
:104280006430FFF79BFD012828D1711C204600F007
:1042900041F8002822D120711A482018FFF78EFD1E
:1042A000194988421AD120463430FFF77BFD17495F
:1042B000884213D14320C0002018FFF773FD144932
:1042C00088420BD1872080002018FFF76BFD6061CA
:1042D000112040012018FFF765FD20612570044979
:1042E000091F0888401C0880E0800020BFE600000D
:1042F00020000020010E0000F5FFFF0FF5FF000079
:10430000F50F00003202000055AA00005252614130
:104310007272416170B504460E460025206BB042B2
:1043200011D0204600F0AAFC0546002D0BD12146F5
:104330006078012332463431FEF7FCF9002801D0C1
:104340006E1E01252663284670BDF8B504460F464B
:1043500016460225022F4DD3A069B8424AD92078CB
:10436000012804D0022846D0032843D15CE0780815
:10437000C0190090A1890098FBF7F2FE616A41180C
:104380002046FFF7C7FF0546280074D10098A18991
:10439000421C0092FBF7E4FE08193430F90705D0FF
:1043A00001780907090F3201114300E0314601701D
:1043B0000120E070A1890098FBF7D2FE616A4118E4
:1043C0002046FFF7A7FF0546280054D1A189009891
:1043D000FBF7C6FE08193430F90702D03105090E83
:1043E00005E00178320509090901120F1143017036
:1043F0000120E0703FE0A08941083846FBF7B0FE9D
:10440000616A41182046FFF785FF0546280032D132
:10441000A1897800FBF7A4FE08193430B1B200F08E
:10442000C2FB0120E07026E0A08981083846FBF736
:1044300097FE616A41182046FFF76CFF0546280089
:1044400019D1BF00A1893846FBF78AFE081934301C
:10445000FFF7A8FC000F00073101090908430646D1
:10446000A1893846FBF77CFE08193430314600F04C
:1044700092FB0120E0702846F8BDF8B5044660685C
:10448000002816DBA668451C001901733C2D0DDBC6
:1044900021466B462A460C312068FFF768FA0098DF
:1044A000A84201D1002501E00025ED436560761C9E
:1044B000A660F8BD38B504466268002A0DDB2146C7
:1044C0006B460C312068FFF752FA002805D160686E
:1044D0000099884201D1A06838BD0020C04338BD92
:1044E00070B505460C464C212846FBF768FE2C604B
:1044F00070BD0000F8B505460E4601200090144836
:104500000078002801D0212400E020240121284641
:1045100000F040FA2846FCF7F1F9E1B2284600F035
:10452000E7F93146284600F0C1F92846FCF7E0F9E2
:104530007D24E40006E06946284600F087F920461D
:10454000FBF7C8FD68460178C907F4D10020F8BD23
:104550000C0000201CB5044601200190009001A928
:10456000204600F073F96946204600F087F96A4654
:104570001279C320054902400A706A4610784870D3
:104580000222204600F018FA1CBD0000180000208E
:10459000F0B589B00E9F0F9E109D04460120400289
:1045A000019040000290002003901B0204930597A5
:1045B00006926A461077382008901148844203D149
:1045C000A420FCF75BFE09E00E48844203D1A8203A
:1045D000FCF754FE02E0AC20FCF750FE31462046CA
:1045E00000F014FA002D03D000212046FCF7C0FC97
:1045F00001A92046FCF7D4FA002009B0F0BD000064
:104600000000014000100140FFB581B00F46164682
:10461000FF20F1B20130441AA34200DC1C461D1BEE
:10462000681E0012401C009023463246394601980D
:1046300000F01CF8301903903F19002610E0FF2409
:104640000134A54200DC2C4623463946039A0198E2
:1046500000F00CF80398001903903F192D1B761CED
:1046600000988642EBDB002005B0F0BDFFB581B0BD
:10467000074615461E4618480078002801D0EC244D
:1046800000E0EB2401213846FCF772FC3846FCF7C9
:1046900035F921463846FCF70FFD02213846FCF774
:1046A00027FC2946384600F001F90321384600F07E
:1046B00029F932463846029900F08EF83846FCF760
:1046C00017F900213846FCF713FC00213846FCF7A7
:1046D0004FFC002005B0F0BD0C000020FFB581B0FC
:1046E0000F4616461D460198FFF734FFFF20F1B232
:1046F0000130441AA54200DC2C462D1B681E001216
:10470000401C0090234632463946019800F01CF8C0
:10471000301903903F19002610E0FF240134A54210
:1047200000DC2C4623463946039A019800F00CF829
:104730000398001903903F192D1B761C00988642A0
:10474000EBDB002005B0F0BDFFB581B00F4616468B
:104750001D46012000901F480078002801D0342415
:1047600000E0322401210198FCF702FC01210198AC
:1047700000F010F90198FCF7C1F8E1B2019800F0DF
:10478000B7F83146019800F091F802210198FCF742
:10479000AFFB2A463946019800F0C2F80198FCF7B1
:1047A000A7F800210198FCF7A3FB00210198FCF772
:1047B000DFFB7D24E40006E06946019800F046F83E
:1047C0002046FBF787FC68460178C907F4D12846E4
:1047D00005B0F0BD0C000020FEB505460F4616469C
:1047E00001242405019620020090801002900121EE
:1047F0002846FCF789F869462846FCF7B7F83246A0
:1048000039462846FCF76AFA00212846FCF77CF86E
:1048100001212846FCF792F9012802D1641E601C90
:10482000F6D1002C05DC04A0FDF732FA0220C043CB
:10483000FEBD0020FEBD000051535049205278209B
:1048400074696D656F7574210A00000070B50546C6
:104850000C462846FCF752F80521284600F048F897
:10486000042205492846FFF7B7FF034A1278227051
:104870002846FCF73DF870BD1800002070B50546CD
:104880000C462846FCF73AF83521284600F030F867
:10489000042205492846FFF79FFF034A1278227039
:1048A0002846FCF725F870BD1800002070B50F4AA7
:1048B0000B04154616780A020835120E1B0ECCB2F0
:1048C000002E09D0090E29706A70AB70EC700422BA
:1048D000294600F025F870BD2A706B70AC70034952
:1048E0000322083100F01CF870BD00000C0000200D
:1048F00010B5034A11700122014900F011F810BDF2
:104900001000002010B5054B00241C705C709C70DA
:10491000DC700A46194600F003F810BD14000020B0
:10492000FEB505460F4616460124240501962002D1
:1049300000900020029001212846FBF7E5FF694620
:104940002846FCF713F8324639462846FCF75EFA4B
:1049500000212846FBF7D8FF01212846FCF7EEF896
:10496000012802D1641E601CF6D1002C05DC04A0D5
:10497000FDF78EF90220C043FEBD0020FEBD000001
:10498000515350492074782074696D656F75742196
:104990000A00000070B50546002901D0062400E099
:1049A00004242846FBF7AAFFE1B22846FFF7A0FF40
:1049B0002846FBF79DFF70BDF8B505460E46174625
:1049C0000124009401212846FFF7E4FF2846FBF765
:1049D00095FF01212846FFF78BFF3A4631462846CE
:1049E000FFF79EFF2846FBF783FF00947D24E40039
:1049F00006E069462846FFF729FF2046FBF76AFBD9
:104A000068460178C907F4D1F8BD000070B5384890
:104A10004170384C0A001FD0374D2615012A34D07A
:104A2000022A4BD0032A16D101233146204600F03A
:104A3000BEF8012303229903204600F0B8F80123B1
:104A40000322D902204600F0B2F801230322D90341
:104A5000204600F0ACF870BD01231A460221204622
:104A600000F0A5F801231A460421204600F09FF823
:104A700001231A461021204600F099F801231A4616
:104A80002021204600F093F870BD01230322590332
:104A9000284600F08CF8012303223146284600F016
:104AA00086F8012303224021284600F080F80123E4
:104AB00003222021284600F07AF870BD012303224A
:104AC0009906284600F073F801230322D9062846E8
:104AD00000F06DF8012303229907284600F067F8DB
:104AE00003220123D107284600F061F870BD0000C1
:104AF0000C0000200000034000000240F8B50E4604
:104B0000074611463C68022E02D3A069B04201D884
:104B10000220F8BD002906D00022D2432046FFF72C
:104B200014FC0028F5D131463846FFF791F80546C8
:104B3000280018D0012D18D0681C18D0002231464A
:104B40002046FFF702FC0028E3D1A0696169821EBC
:104B5000914205D2491C61612179012211432171E1
:104B60002E46B042DFD80020F8BD0220F8BD01205B
:104B7000F8BD70B506460C4615462046A9B21A3057
:104B800000F011F83078032804D12046290C1430A5
:104B900000F009F870BD0170090A4170090A8170BE
:104BA000090AC17070470170090A417070477CB5ED
:104BB00005460C46002B07D00094684602716946F2
:104BC0002846FBF7EDFC7CBD009400206946087187
:104BD000012048712846FBF7E3FC21462846FBF7F5
:104BE00083FD7CBD70B50446204600F047F80546BD
:104BF000280038D1207803282DD1207901282AD106
:104C00000103204634300646FBF7D9FA1848174905
:104C10002018FFF7C8FF17493046FFF7BCFF4320B5
:104C2000C00015492018FFF7B6FF87208000201824
:104C30006169FFF7B0FF1120400120182169FFF7DB
:104C4000AAFF226A521C2263607801233146FDF7D5
:104C50008FFD00202071002260781146FDF74EFD87
:104C6000002800D00125284670BD000055AA00008C
:104C700032020000525261417272416170B50446C5
:104C80000025E07800280AD02146343160780123DD
:104C90000E46226BFDF76CFD002802D00125284648
:104CA00070BD0020E070616A206B421AE1698A429F
:104CB000F5D2A278022AF2D1421860780123314657
:104CC000FDF756FDEBE770B504460E460925002CAE
:104CD0000FD0206800280CD00178002909D0A188C5
:104CE000C288914205D14078FDF740FDC00700D150
:104CF0000025002D03D000203060284670BD2068BC
:104D0000FAE700002B2E2C3B3D5B5D2F2A3A3C3E00
:104D10007C5C223F7F000100040010004000000185
:104D20000002000001000200040008001000200042
:104D3000000000000700000000000000000000006C
:104D40000000000000000000000000000000000063
:104D50000000000000000000000000000000000053
:0C4D600000000000000000000000000047
:04000005000000E90E
:00000001FF
