:020000040000FA
:10000000A87D0000C100000085090000490500002E
:1000100000000000000000000000000000000000E0
:10002000000000000000000000000000951000002B
:1000300000000000000000002B0A000097100000E4
:10004000D3000000D3000000D3000000AD11000079
:10005000D3000000D3000000D3000000D300000054
:10006000D3000000D3000000D3000000D300000044
:1000700000000000D3000000D300000000000000DA
:10008000D3000000D3000000D3000000D300000024
:1000900000000000D3000000D300000000000000BA
:1000A0000000000000000000D30000000348854667
:1000B00000F034F800480047C5220000A87D000089
:1000C0000448804704480047FEE7FEE7FEE7FEE7F6
:1000D000FEE7FEE751110000AD00000030B50B4611
:1000E000014600202022012409E00D46D5409D4212
:1000F00005D31D469540491B254695404019154698
:10010000521E002DF1DC30BD0321001D401E03787E
:1001100012021A43491EF9D510467047064C0125B4
:10012000064E05E0E36807CC2B430C3C984710349F
:10013000B442F7D3FFF7BEFFB0550000D055000022
:10014000FEB50020009001906D4801690F22120257
:100150009143016101698215114301616848C0380A
:1001600002F0BAF9012267A1674801F0CFFD00282B
:1001700003D066A001F0F6F8FEBD69A001F0F2F828
:1001800001226BA16D4801F0E9FD002843D100F088
:1001900005FB6B48406A804701F0BCFC01200190E0
:1001A0006648C76867A0394601F0DCF80125ED0311
:1001B00008243E0B380500D0761C6BA001F0D2F865
:1001C000A7194F4EC03E04E02103304602F054F917
:1001D000641CA742F8D86AA001F0C4F8002427469E
:1001E000FF226B4601326E495448009701F0F4FD3E
:1001F000009B002B0CD02A466949304602F0AAFA2F
:10020000009824182D1821464C4801F0C0FCE7E75F
:100210004A4801F0B3FC012262A1484801F09EFD6A
:10022000002866D1019800280BD100F0B7FA4448A5
:10023000406A804701F06EFC032280215D4800F097
:100240004BF93E48C7685CA0394601F08BF800F0D6
:1002500075F962490860014661A001F083F86348BE
:100260003E0B0168624800680D182C0B380500D061
:10027000761C60A001F076F8A719214EC03E04E07C
:100280002103304602F0F8F8641CA742F8D85FA0BA
:1002900001F068F800242746FF226B4601324049EE
:1002A0002648009701F098FD009B002B0CD02A46B1
:1002B0003B49304602F04EFA009824182D1821468A
:1002C0001E4801F064FCE7E700F038F9434D296867
:1002D000401A7D21C900FFF701FF044600F02EF906
:1002E00029682246411A51A001F03CF8134801F058
:1002F00045FC002203A1044801F008FDFEBD0000FA
:10030000C0000140303A00005C7800006D6F756EEF
:1003100074207364206572726F720D0A0000000011
:100320006D6F756E74207364206F6B0D0A00000092
:10033000303A2F4170702E62696E0000847A00009E
:10034000002D000066696E642061707020636F6428
:10035000652066696C65202C73697A653A2564426C
:100360007974650D0A000000657261736520617023
:100370007020636F646520666C6173680D0A00000D
:100380007772697465206E65772061707020636F85
:10039000646520746F20666C6173680D0A0000004C
:1003A0005C770000303A2F5265734775692E626999
:1003B0006E0000000000024066696E642072657382
:1003C0006F757263652066696C65202C73697A6548
:1003D0003A2564427974650D0A0000002477000014
:1003E0007469636B3A25640D0A000000AC55000087
:1003F000A85500006572617365207265736F757230
:10040000636520666C6173680D0A00007772697419
:1004100065206E6577207265736F757263652074F1
:100420006F20666C6173680D0A000000BAC4CAB11F
:10043000A3BA2535642C2C2564C3EB0D0A000000FB
:1004400070B5154B9C15984212D1144D00200B46E7
:10045000C340DB07DB0F07D083005B191E68A64390
:100460001E601E6816431E60401C2028EFD370BD1E
:100470000A4D002080350B46C340DB07DB0F07D059
:1004800083005B191E68A6431E601E6816431E602B
:10049000401C2028EFD370BD000002400010004037
:1004A0004160704730B5094B094C0A4D012A05D00F
:1004B000002A02D1984207D1A16030BD984201D1F3
:1004C000616030BD696030BDA96030BD0000024090
:1004D000008002400080034030B5164B984213D193
:1004E000154C00200B46C340DB07DB0F08D0830010
:1004F0001B191D68ED08ED001D601D6815431D608A
:10050000401C2028EED330BD0B4C002080340B461D
:10051000C340DB07DB0F08D083001B191D68ED0803
:10052000ED001D601D6815431D60401C2028EED3A2
:1005300030BD00000000024000100040014800688B
:10054000704700000077000001A000F00BFFFEE7FD
:10055000486172644661756C745F48616E646C6575
:10056000720D0A0070B56B4D08246C600A2001F012
:1005700015FAAC60142001F011FA6C60142001F03F
:100580000DFA6549A0064860644C1120E16888476F
:10059000782001F003FAE168F02088476168C32001
:1005A0008847E168F0208847616896208847E168BD
:1005B00036208847616848208847E168B42088472A
:1005C000616801208847E168B72088476168C620D4
:1005D0008847E168E820884761684020884761686B
:1005E0008A20884761680020884761680020884722
:1005F0006168292088476168192088476168A520BB
:100600008847616833208847E168C120884761686E
:1006100006208847E168C22088476168A72088478C
:10062000E168C5208847616818208847E168E020B4
:1006300088476168F02088476168092088476168B9
:100640000B20884761680620884761680420884736
:1006500061681520884761682F20884761685420A9
:10066000884761684220884761683C208847616804
:1006700017208847616814208847616818208847D8
:1006800061681B208847E168E12088476168F020A5
:10069000884761680920884761680B20884761683E
:1006A00006208847616804208847616803208847DE
:1006B00061682D208847616843208847616842202F
:1006C000884761683B2088476168162088476168D1
:1006D0001420884761681720884761681B20884775
:1006E000E168F020884761683C208847E168F02095
:1006F0008847616869208847E1683A2088476168CF
:1007000055208847782001F049F9E1682920884779
:1007100070BD00000000024000000340002D0000FA
:10072000F8B5144D6C88288821464443491E8BB285
:10073000401E82B20021084600F0C3F82C2000F0D1
:10074000EDF80D48102141600C4E4303B3600D4F8E
:100750000B497960AD88002180222D0403E00560FB
:1007600082604260491CA142F9D30548B8607360B9
:10077000F8BD0000287700000000024000000340A0
:100780007FFF00008080024010B5282000F0C6F8EE
:1007900010BD10B5292000F0C1F810BDF8B52849EA
:1007A00026484860274D002204212846FFF794FE82
:1007B000254E2C03002221463046FFF78DFE0022F5
:1007C00080212846FFF788FE002210212846FFF7E7
:1007D00083FE6700002239463046FFF77DFE002287
:1007E00008212846FFF778FE012280212846FFF7DE
:1007F00059FE012204212846FFF754FE012221461A
:100800003046FFF74FFE012210212846FFF74AFE2F
:10081000012239463046FFF745FE012208212846CD
:10082000FFF740FEFFF79EFE084C002061698847F5
:100830002168887304206860F8BD00000000FFFF95
:10084000008002400000024000000340002D000034
:100850000020704710B5002809D04821362000F04C
:1008600054F80448018842880280418010BDA821C4
:10087000F4E7000028770000F8B514460546001B91
:1008800086B21F46332000F049F8280A00F060F8CD
:10089000E8B200F05DF8300A00F05AF8F0B200F06B
:1008A00057F8380A00F054F8F8B200F051F8372041
:1008B00000F034F8200A00F04BF8E0B200F048F8FD
:1008C000F8BDF8B507461C4615460E462A2000F02E
:1008D00025F8380A00F03CF8F8B200F039F8280A98
:1008E00000F036F8E8B200F033F82B2000F016F8EC
:1008F000300A00F02DF8F0B200F02AF8200A00F0DB
:1009000027F8E0B200F024F8F8BD10B50C4600F06E
:1009100005F8204600F01CF810BD000030B508496D
:1009200010228A60074B4A039A60084C064D6560A6
:1009300000040860A5608020886048605A6030BD6F
:1009400000000240000003407FFF00008080024062
:1009500030B5084910224A60074B4A039A60084C98
:10096000064D656000040860A560802088604860CE
:100970005A6030BD00000240000003407FFF0000CD
:10098000808002407047000030B5837801210278F2
:10099000002B15D094080E4BA400E418236892078E
:1009A000D50EFF22AA40934342789207120EAA4026
:1009B0001A4322600078C006C00E8140054804E05A
:1009C000D006C00E814003488030016030BD000079
:1009D00000E400E000E100E003480068C107FDD04A
:1009E000024800687047000000510040005000407D
:1009F00010B5FFF7F1FF4005400F10BD10B5FFF730
:100A0000EBFFC0B210BD10B5FFF7E6FF8004400F4A
:100A100010BD10B5FFF7E0FF4003C00E10BD10B5CC
:100A2000FF20013000F01AF910BD70470168012263
:100A3000D20691430160704701680122D20611433A
:100A40000160704701225203012901D08261704781
:100A5000426170474A680267026812010A68896841
:100A600003D50A430521C90602E00A4301214907CB
:100A70000A43026070470246126D00200A4200D00D
:100A80000120704738B50D460446012100F032F8C8
:100A90000020012109030090009A521C00928A4212
:100AA000FADB2169490A49023831216106CD114337
:100AB0002A6811436161EA68A9681143034A114336
:100AC000216360618034206038BD00000000FFFFBA
:100AD000002907D00129016908D0C908C900891C6B
:100AE000016170470169C908C900F9E7C908C9006F
:100AF000491CF5E770B5012464030D4A65000D4BF0
:100B0000012904D098420CD1002120460DE09842E2
:100B100001D1204602E0904202D1284600F09EF822
:100B200070BD9042FCD10021284600F0AAF870BDAB
:100B30000010014000000140F8B54449054608692D
:100B40008A69C0B2896AD6B2CFB201218907096B1E
:100B50003F4AC906C90E0A3151430091002808D006
:100B6000012804D0022804D0032804D004E00C4655
:100B700002E0374C00E0374C3448403001682046F2
:100B8000FFF7ACFA2946802D20D0012080070818F5
:100B9000902D08D0942D06D0B42D18D0B82D28D083
:100BA000A02949D0FEE7017800294DD0002E06D0BB
:100BB000012E06D0022E02D0032E04D005E00178CB
:100BC00015E0017811E001782EE02846F8BD1F48B5
:100BD0004030416B002937D0002F03D0012F03D0C4
:100BE000022FF2D1416B02E0416B009814E01848EB
:100BF00012E016484030816B002925D0002D15D019
:100C0000012D0DD0022D0ED0032D0FD0042D0FD0AD
:100C1000052DDAD1816B1048FFF760FA0546D4E75D
:100C2000816B2046F8E7816B0A48F5E7816BDEE7C8
:100C3000816B7D200002EFE70178002904D0017864
:100C40002046FFF74BFAF8BD0020F8BD40000040F9
:100C5000001BB70010270000006CDC0200B5034643
:100C6000012100F00EF80021184600F012F80121D1
:100C7000184600F00EF800BD01229207801801709E
:100C8000704701229207002901D05061704790619E
:100C9000704701229207002901D050607047906090
:100CA00070470000034988610020C8610120C861C5
:100CB0007047000040000040034801680122D2064E
:100CC0009143016070470000001001400348016833
:100CD0000122D2061143016070470000001001405C
:100CE00010B5FFF7E9FF00F001F810BD10B5044999
:100CF000FF2008700122034801F087FF10BD0000AB
:100D00003C77000000100140F8B500F00FF900F04A
:100D10004FF90020504FFF213954401C80B20A285F
:100D2000FAD30A224C494D4801F06FFF14240021E8
:100D30009522084600F05AF90546012804D02046BD
:100D4000641EA4B20028F2D10020454E012D30705F
:100D500072D1FF218722AB31082000F047F9414CC6
:100D600001281FD001220021372000F03FF9012285
:100D70000021292000F03AF9012844D802203070DF
:100D800001220021372000F031F901220021292021
:100D900000F02CF9050044D02046641EA4B20028BF
:100DA000EED13EE004222C492C4801F0EBFEB8784D
:100DB000012841D1F878AA283ED10122002137200C
:100DC00000F014F901229107292000F00FF9050025
:100DD00004D02046641EA4B20028EED1002C2BD0F3
:100DE000012200213A2000F001F9002824D1042238
:100DF00019491A4801F0C6FE3878400601D5062088
:100E000019E0042017E00120307001220021104673
:100E100000F0ECF8050004D02046641EA4B20028BF
:100E2000F3D1002C06D001225102102000F0DEF890
:100E3000002801D000203070FFF752FF00F0A8F822
:100E40003078002801D00020F8BD002D01D02846C0
:100E5000F8BDAA20F8BD00003C770000001001405A
:100E600020770000FEFF0000F8B50646184815463A
:100E70000078062800D0490201277F02012D1AD0F0
:100E80000122122000F0B2F83946304600F022F874
:100E90006D1EFF36FF3602362D0604462D0E01D09C
:100EA000002CF1D0012200210C2000F09FF8FFF768
:100EB00017FF2046F8BD0122112000F097F804002A
:100EC000F5D13946304600F005F80446EFE700005A
:100ED00020770000F3B5FE27114C124E81B0FF259C
:100EE00001221049104801F04DFE3078B84204D07C
:100EF000641E2404240CF3D110E0002C0ED00A4C04
:100F0000029A2046019901F03DFE3570757002226B
:100F10000449204601F079FE0020FEBD0120FEBDFF
:100F2000FFFF00003C7700000010014070B5012079
:100F30008003010448618860486011490820886284
:100F4000104C8006A060104D032220212846FFF798
:100F5000C3FA032240212846FFF7BEFA032280216C
:100F60002846FFF7B9FA032261142846FFF7B4FABE
:100F700006482061201520638004606070BD000079
:100F800080000040001001400000024038200000B6
:100F90000121064849078160016BFF22120291433B
:100FA0000163016B0215114301637047001001409A
:100FB0000121074849078160016BFF22120291431A
:100FC0000163016B0122D2031143016370470000EA
:100FD0000010014010B5FFF779FE00F041F800283D
:100FE00002D0FFF77DFE012010BD0000F8B51746C6
:100FF0000D460646FFF7EEFF002801D0FF20F8BDA2
:101000004020154C30432070280E6070280CA070D2
:10101000280AE07025716771104F06222146384674
:1010200001F0F3FD0C2E06D1FF2060700122214655
:10103000384601F0EAFD1F2501220749384601F034
:10104000A1FD2078000604D528466D1EEDB20028CB
:10105000F2D12078F8BD00003C770000001001407C
:10106000F8B5094D094F0A4E0024012206493846B9
:1010700001F088FD2878FF2804D0641CB442F4D322
:101080000120F8BD0020F8BD3C77000000100140B1
:10109000FFFFFF007047704710B5FFF7C0FCFFF778
:1010A000ADFC0124A407A16A090A09020143A16257
:1010B000FFF79EFCE16AC908C9000143E162FFF73E
:1010C000A2FCA16BC908C9000143A163FFF7A1FC01
:1010D000044A11691F231B0299430002084310614F
:1010E00010BD0000800200407FB5012080074169EB
:1010F000C21211434161684600F0B6F85F206946AC
:1011000008807D20C00001900024104D0C814C808F
:10111000284600F077F81021284600F06BF80121EE
:10112000284600F04FF801221146284600F05AF8F0
:10113000032069460873012088734C7303A8FFF7E6
:1011400023FC0121284600F041F87FBD00C000408B
:1011500010B500210120114A80074261104B042282
:101160001A60104A9368FF241134A34393600E4A17
:101170000263C21303E00B46491C934202D2436B45
:10118000012BF8D17D20C00000F000FC04480121B3
:101190004038016100224261416110BD1808000021
:1011A0008000004000020040160000C003490020FB
:1011B000088203480168491C0160704700C0004074
:1011C00000770000C94301827047000000290168D0
:1011D00002D00122114301E0014A11400160704731
:1011E000FEFF0000002A828901D00A4300E08A4302
:1011F00082817047828870239A43828082880A4362
:101200008280704710B50268114C92B2A04202D0A1
:10121000104B984203D170239A434B881A430E4BCC
:101220001A400B89134303608A8882850A880285E5
:10123000A04208D0094A904205D0094A904202D003
:10124000084A904201D1897A01860121818210BD2C
:1012500000A0004000A80040FFFC000000B00040DB
:1012600000C0004000C800400021C9434160002187
:10127000018001814180817270470122002901D0E3
:1012800042627047826270470246126E00200A4234
:1012900000D001207047000070B50C4605460020C4
:1012A00003218907A9602E6B17490E4017498D420B
:1012B00001D1902003E016498D4202D19420FFF71E
:1012C0003BFC8000E168FEF709FF810680098A0C7B
:1012D0008001810263692069114318430843A169B1
:1012E0000843A168084330432863296A094801403C
:1012F00005CCA369104362691A431043E2691043A5
:101300000843286270BD000001C0000000200040BA
:1013100000300040FF3488FF064910B5884201D1F3
:10132000202003E00449884202D14020FFF796FCC8
:1013300010BD0000002000400030004001657047F3
:101340000021016010228260E12241605202C260ED
:101350006022416102618161D2000162C261416229
:10136000704700000FB410B503A9044B044A02985B
:1013700000F018F810BC08BC04B018478521000024
:101380003877000002E008C8121F08C1002AFAD10D
:1013900070477047002001E001C1121F002AFBD1F5
:1013A00070470000FFB58FB00546002606E02528EF
:1013B0000AD0129A119990476D1C761C2878002843
:1013C000F5D1304613B0F0BD002402940121B54A96
:1013D000009400E004436D1C2B780846203B9840A5
:1013E0001042F7D128782A280ED002222878014608
:1013F0003039092916D802990A235943303940183F
:1014000014436D1C0290F1E7109802C802911090ED
:10141000002904DA012040030443484202900220DC
:1014200004436D1C28782E2817D1042004436878C3
:101430006D1C2A280CD110986D1C02C800911090C8
:101440000BE000990A225143303940186D1C00907E
:101450002878014630390929F3D928786C2810D02A
:1014600006DC4C281AD068280ED06A2817D104E070
:10147000742813D07A2812D110E0012040050443CB
:101480000CE00121090501E0032109050C436978FD
:10149000814203D10120000524186D1C6D1C2878A1
:1014A000692874D006DC00288BD0632827D06428F4
:1014B00006D16CE06E2808D073282CD0752878D01F
:1014C000129A11999047761C5FE06002400F022843
:1014D00009D003280DD00428109801680DD00E60A3
:1014E000001D109051E01098F21701680E604A60DC
:1014F000F6E7109801680E80F2E70E70F0E710989A
:101500006A4601781173001D10900020507303A8E3
:101510000190012005E0109802C801911090002070
:10152000C04361070CD5002700E07F1C00998F4263
:101530000FDA8742F9DB0199C95D0029F5D108E08E
:10154000002700E07F1C8742FCDB0199C95D002970
:10155000F8D102982146C01B0290129B119A00F00C
:10156000B3F88019C61907E0019801990078491C61
:101570000191129A119990477F1EF5D22146129B34
:10158000119A029800F090F886196D1C16E70A204F
:101590000190109901C910916102490F032900D1EE
:1015A00000B2042900D140B2002803DA40422D21C4
:1015B00003E00DE0210504D52B216A4611730121BA
:1015C00003E0E10711D02021F7E70CAF0C9114E004
:1015D0000A200190109901C910916102490F032955
:1015E00000D180B2042900D1C0B20021EDE70199F9
:1015F000FEF774FD30317F1E39700028F7D104A842
:10160000C01B20300190600704D5012000048443F2
:10161000009801E0012000900199884201DD401A04
:1016200000E00020411800900C9809180298401A18
:101630000290E00306D42146129B119A029800F012
:1016400043F8861900200D9008E003A9085C129A5F
:10165000119990470D98401C761C0D900C9988426A
:10166000F3DBE0030CD52146129B119A029800F09F
:101670002BF8861904E0129A302011999047761CB5
:101680000099481E00900029F5DC05E03878129A90
:101690007F1C11999047761C0199481E01900029E2
:1016A000F4DC6BE709280100F8B5044600251E4666
:1016B0001746880404D405E039462020B0476D1C45
:1016C000641EF9D52846F8BDFFB50446002581B053
:1016D0001E46C80301D5302700E02027880404D522
:1016E00005E038460399B0476D1C641EF9D52846BD
:1016F00005B0F0BDF8B525480025ED4301692C463D
:10170000090A09020161224F0026204802690F21BF
:1017100009028A43026101693202114301611B48D7
:101720001023DA023946C03800F012FF38687968B1
:10173000000C000401225207904207D1B12905D1C3
:10174000002D02DA35462C4600E03446761C76B28F
:10175000102EDADB002D15DB601B012801DC214691
:1017600001E060194110094802690F231B029A43E6
:10177000026102690B021A43026106A0FFF7F2FD43
:101780000020F8BD0020C043F8BD0000C0000140AB
:1017900000800020436170446C79206973202530FB
:1017A00032640D0A0000000070B50446002020716C
:1017B000401E6062204600F0CDFD002801D00320CD
:1017C00070BD11481149005B884201D0022070BDF4
:1017D00020465F30FEF798FC5E21095D0002084359
:1017E0000B4D0002A8420AD020467B30FEF78CFC4D
:1017F0006034A17E000208430002A84201D100200B
:1018000070BD012070BD00002602000055AA000036
:101810000046415410B5C4690068241D8278480A06
:101820001146FEF75BFC02CC002904D0884204D3A9
:10183000401A241DF7E7002010BD2168081810BDCC
:10184000C268891E921E8A4201D8002070478278A1
:10185000006A4A4310187047F3B501990C6800E01C
:10186000641C21782F29FBD05C29F9D080692021C4
:1018700003460A220170401C521EFBD200208646FD
:10188000082271469446625C491C202A4ED92F2AB0
:101890004CD05C2A4AD02E2A01D0E6450BD36546AF
:1018A000082D52D12E2A50D1082296460B228006AE
:1018B0009446000EE7E7802A01D303252843154606
:1018C000813D7D2D12D8675C491C3D46403D3F2D32
:1018D00002D3403D7F2D38D265466D1E7646AE451B
:1018E00033D235465A55721C9F541CE023A5164628
:1018F00000E06D1C2F78002F02D0B742F9D124E010
:101900001546413D192D02D80225284308E0154609
:10191000613D192D04D8012528433246203AD2B220
:1019200075465A557246521C9646ACE764180199A2
:10193000202A0C6001D8042100E000217246002A10
:1019400003D01A78E52A02D003E00620FCBD052268
:101950001A706246082A01D18006000E8207920F93
:10196000012A01D1102211430007800F012801D163
:1019700008200143D9720020FCBD0000222A2B2C34
:101980003A3B3C3D3E3F5B5D7C7F000041000818D8
:1019900000E0401E0028FCD170470000002811D054
:1019A000094988420ED8094A0021116191617D23BD
:1019B000DB0058435061012010611069C003FCD561
:1019C00011619161704700008941000000E000E072
:1019D00070B5C58804466D1C2804000C21D0206910
:1019E00000281ED0290724D1401C2061E16800296D
:1019F0000CD020682A0983785B1E1A4219D100F0A6
:101A0000D3FB0146012806D8022070BD206800895A
:101A1000A84206D90DE0481C05D02068C2688A4259
:101A200003D8042070BD012070BDE160FFF708FFFE
:101A30002061E5802807C00D216828300818606102
:101A4000002070BD70B5C18083680D460446012B2F
:101A500035D02068C168994231D9002B05D1017871
:101A6000032905D1C369002B02D08078060110E05C
:101A70000189A94223D9C06911E000F095FB034612
:101A8000401C1AD0022B1AD32068C068984216D97D
:101A9000AD1B2068B5421946EFD2FFF7D1FEE360D7
:101AA00000280CD02909081820612807C00D2168DA
:101AB000283008186061002070BD012070BD022030
:101AC00070BD10B5002806D1FFF71EF940B20028FE
:101AD00001D0042010BD002010BD70B514460D4685
:101AE000002B02D0002810D101E0042070BDDAB232
:101AF00021462846FFF7B8F940B20028F6D0FFF794
:101B000057FAFFF7F3F8FFF743FA012070BD002002
:101B100070470000F8B55125134FAD01FF22C323D4
:101B200014327C213E690F4CCC20B047F9682C2040
:101B300088470E48102141600D4942038A600E49D2
:101B40000C4B4B600021802627883F0407604660CD
:101B5000491CA41CA942F7D307488360044842608B
:101B6000F8BD0000282D0000002D000000000240FC
:101B7000000003407FFF00008080024010B5044653
:101B800000F0EAFF002801D10021216010BDF0B56E
:101B900089B00D46044600F0DFFF089000287BD195
:101BA000E079002878D1E069002850D0691C1DD068
:101BB000E068A84200D20546A560002D43D020462B
:101BC000691EFFF727FE014660612068FFF738FEB7
:101BD00000287ED022686D1E9278690A521E11403C
:101BE00008182189C9052ED0A16982E002C8049194
:101BF00000902169022600291DD00027B61C0791FC
:101C00000D467F1C206800F0CFFA014601287AD9E2
:101C1000481C75D06D1CA942F2D00498864206D8A3
:101C2000009807600098079A42600830009020688A
:101C3000C0688842E1D8E06906600498864203D80B
:101C400000980021016057E01120089054E0E068FE
:101C5000A84200D20546A068029000200390A06030
:101C6000002D41D02068807846020298002814D0C8
:101C70003146681EFEF732FA074602983146401E8A
:101C8000FEF72CFA874208D30298711E401E884343
:101C9000A0602D1A616902E02FE0216961610029CD
:101CA00011D121E0206800F07FFA0146401C27D0C6
:101CB000012928D92068C068884224D96161A068B8
:101CC0008019AD1BA060B542ECD8A0684019A06097
:101CD00000E018E0E80507D02068FFF7B1FD002814
:101CE00011D0690A081803902089C00504D0A169A1
:101CF0000398814200D0A061089809B0F0BDFFE7C9
:101D00000120E071F9E70220E071F6E717B581B034
:101D1000029800901446684600F0A7FA002802DAFC
:101D20000B2004B010BD0C498300C85800220028C5
:101D300000D002700198002800D00270C85000281E
:101D400001D0012C01D00020EBE7002202A901A85C
:101D500000F0CAF8E5E7000018770000F7B58AB090
:101D600004000BD00020D70702462060FF0F0BA90C
:101D7000684600F0B9F8050003D02BE009200DB04B
:101D8000F0BD07A8069068460B9900F0A1F9059EE2
:101D900005001FD1002E04D0F07AC00603D504251B
:101DA00018E0062516E0A7710027E7713146009874
:101DB00000F079FA206130461D30FEF7A5F9317F39
:101DC000A7600002A7610843E761E0600098206017
:101DD000C088A0802846D2E7FFB583B004460191B1
:101DE0000698002101601546204600F0B5FE002847
:101DF0000ED1E07900280BD1A079C00707D0E168A7
:101E0000A0680127081A85426AD9054668E00720BC
:101E100007B0F0BDA168C8053AD120684A0A8378A6
:101E20005B1E1A401606360E12D1002906D0E26952
:101E3000002A05D02046FFF7EDFC04E0206902E00F
:101E4000616900F0B1F902281BD3411C2FD06061F9
:101E500061692068FFF7F4FC002812D08219680A33
:101E6000009014D0311820688378994201D9991BC9
:101E700000914078009B0199FFF72FFE002816D1B2
:101E800002E00220E071C3E7009846021CE0A26174
:101E900020890121C005C00D49020E1AAE4200D9A9
:101EA0002E46A169206800F055FA002802D0E7719B
:101EB0000120ADE720892168C005C00D2830091830
:101EC0003246019800F03EFA019880190190A0680E
:101ED0008019A0600698006881190698AD1B016002
:101EE000002D97D1002093E7F0B585B00027064676
:101EF0000760084600F0B9F9050002D50B2005B0CF
:101F0000F0BD7049A8000C58002C11D03460207826
:101F1000002804D06078FFF7FAFDC007EFD02770E3
:101F2000E8B26070FFF7CDFDC00703D00320E6E7FD
:101F30000C20E4E7002631462046FFF735FC012857
:101F400024D100256F4628010619FF36E73630797F
:101F5000002806D030460930FEF7D6F8317A000264
:101F60000843A9006D1C7850042DECD30025A8006F
:101F70003E58002E06D031462046FFF715FC0028BB
:101F800001D10AE002206D1C042DF0D3032802D0F9
:101F900000287CD101E00120B1E727462337787C77
:101FA000397C00020843C11FFF39FA396FD1E08F35
:101FB000002807D120464D30FEF7A6F84C21095DD8
:101FC000000208432061224620320490117EE17015
:101FD000012901D002295AD141430191557DA570B3
:101FE000002D54D0681E054251D120462130417E3B
:101FF000027E0802104320810390000747D1787EBB
:10200000397E0002084307D120464930FEF77CF8AC
:102010004821095D00020843E18E0091002936D075
:10202000019A8A18039909095118029188422ED3FE
:10203000401A2946FEF752F8002828D022490125E7
:10204000884200D302252149884200D30325871CFA
:10205000E760666100983018A061029971182162EA
:10206000032D16D00399002911D001994018E06181
:10207000022D1CD078003818F9074008C90F401805
:10208000FF30FF3001300499400A814211D20D2007
:1020900035E703980028FAD120465530FEF734F88A
:1020A0005421095D00020843E061B800E8E77800C8
:1020B000E6E704492570091F0888401C0880E08075
:1020C00000201CE718770000F60F0000F6FF000064
:1020D00073B50446019801782F2901D05C2901D1FC
:1020E000401C01900025A56001980078202805D2A9
:1020F00000212046FFF7A6FC65617CBD01A92046B2
:10210000FFF7AAFB0028F8D100212046FFF79AFC30
:10211000002822D12169206800F01CF900281CD178
:1021200061690A78002A05D0CA7A12070FD40A23F7
:10213000A26903E0042010E05B1E06D30D78167838
:10214000491C521CAD1BF7D001E0002D05D0002129
:102150002046FFF73DFC0028DCD0A1690028C97AA1
:1021600005D00428C9D14907C7D405207CBD49073B
:10217000FCD46169C87AC006F7D5206800F093F8EE
:10218000A060BBE770B5074D0446C1B22846FFF713
:10219000D5F8AE0331462846FFF776F80028F9D087
:1021A000204670BD00200040F8B50C4605460229C7
:1021B00009D3E868A04206D92878012805D002286A
:1021C00029D0032838D00120F8BD60080619A86975
:1021D000710A4118284600F0BDF8002834D1F005F6
:1021E000C00D40192030077A761CA869710A411881
:1021F000284600F0AFF8002826D1F005C00D4019A0
:102200002030007A00023843E10701D00009F8BD10
:102210000005000DF8BDA869210A4118284600F004
:1022200099F8002810D12006C00D401928304178B7
:10223000027808021043F8BDA869E1094118284650
:1022400000F088F8002802D00020C043F8BD6006E6
:10225000C00D4019044628342930FDF755FF217878
:102260000002084300010009F8BD10B50446002033
:102270002268C043002A13D0114600E0491C0B78A5
:10228000212B0ED33A2BF9D11378521C303B0A2B59
:1022900006D28A4204D1022B02D2491C1846216080
:1022A00010BD002010BD0246C87E8B7E0002127851
:1022B0001843032A05D14A7D0B7D110219430904F5
:1022C00008437047FEF7E8FE00F03AFBFEF70CFF0C
:1022D00012A0FFF747F8154C0222002311462046B2
:1022E00000F07CFAFDF72CFFFFF704FA002803DA70
:1022F0000FA0FFF737F8FEE70021204600F046F870
:102300000221204600F084F801235B039A000C4967
:10231000204600F01DF900F043FBFEE753746172A4
:1023200074204C6F616465720D0A0000000001406A
:1023300063617020646C79206572726F720D0A009F
:102340000080002003E00B780370401C491C521EE3
:10235000F9D2704770B50446406A0D46A8420BD0CA
:102360000A462146607801232831FFF7B6FB002892
:1023700001D0012070BD6562002070BD01B50098DC
:1023800001E0401E00900028FBD108BD7CB5064648
:1023900001246846047104708D07AD0F694630460C
:1023A00000F064F90121304600F0C2F900216846CE
:1023B00001703046FEF740FB1121304600F08CF9E9
:1023C000684601789F2211406A011048114301704C
:1023D00001460122304600F089F93046FEF726FB1F
:1023E000684604717D24E40006E001A9304600F04F
:1023F0000DF92046FFF7C2FF68460079C007F4D107
:102400006946304600F032F97CBD000008770000D4
:102410007CB501246A460D4606461470147101A964
:1024200000F00CF90121304600F082F93046FEF749
:1024300003FB3121304600F04FF96A4610790D490F
:10244000284308700122304600F050F93046FEF76C
:10245000EDFA6A4614707D24E40006E069463046D1
:1024600000F0D4F82046FFF789FF68460078C007DF
:10247000F4D17CBD08770000F8B5064615480D4636
:102480000078002801D0212400E0202401206946A2
:1024900008700146304600F04BF93046FEF7CCFAA2
:1024A0002146304600F018F92946304600F0F6F88B
:1024B0003046FEF7BBFA7D24E40006E0694630466C
:1024C00000F0A4F82046FFF759FF68460078C007DF
:1024D000F4D1F8BD047700007CB5012469460546B7
:1024E0000C700C7100F092F801A9284600F0A6F8D3
:1024F0000121284600F01CF92846FEF79DFA01212B
:10250000284600F0E9F869460878C32108400F4AD8
:10251000694610700879507002220C49284600F074
:10252000E5F82846FEF782FA69460C707D24E4003F
:1025300006E06946284600F069F82046FFF71EFFCE
:1025400068460078C007F4D17CBD00000877000021
:10255000FFB581B016460F461C46FF250135AC423B
:1025600000DC25462B4632463946019800F02AF811
:10257000641B7F197619002CEFDC204605B0F0BDF6
:10258000FEB5064601200007009080100D4602901F
:102590001446019201213046FEF754FA694630464E
:1025A000FEF758FA22462946304600F001FA002884
:1025B00002D00020C043FEBD00213046FEF742FAA3
:1025C0000020FEBDFFB505460F4881B000781E46CD
:1025D0000C46002801D0132700E003272846FEF709
:1025E0002BFA3946284600F077F82846039900F080
:1025F00055F8324621462846FFF7C2FF2846FEF727
:1026000015FA304605B0F0BD0477000070B50C46F1
:102610000546FEF711FA0521284600F05DF8042270
:1026200005492846FFF7ACFF03480078207028468C
:10263000FEF7FCF970BD00001077000070B50C4685
:102640000546FEF7F9F93521284600F045F8042241
:1026500005492846FFF794FF034800782070284674
:10266000FEF7E4F970BD00001077000070B50C466D
:102670000546FEF7E1F91521284600F02DF8042261
:1026800005492846FFF77CFF03480078207028465C
:10269000FEF7CCF970BD00001077000070B50B029A
:1026A0000C4A1D0E0B0416781C0E0832CBB2002EFD
:1026B00006D0090E117055709470D370042203E097
:1026C00015705470937003220249083100F00EF81F
:1026D00070BD00000477000010B5034A117001229C
:1026E000014900F003F810BD08770000FEB506466A
:1026F00001200007009000200D4602901446019230
:1027000001213046FEF79EF969463046FEF7A2F9F0
:1027100022462946304600F0A3F9002802D00020C6
:10272000C043FEBD00213046FEF78CF90020FEBDFF
:1027300070B50546002901D0062400E00424FEF708
:102740007BF921462846FFF7C7FF2846FEF76EF9BA
:1027500070BD0000FFB581B00E46012069461C46E1
:10276000154608701C480078002801D0122700E0A8
:10277000022701210198FFF7DBFF0198FEF75CF9C2
:1027800039460198FFF7A8FF0027FF4300280CD126
:1027900029460198FFF782FF002806D122463146DC
:1027A0000198FFF7A3FF002802D0384605B0F0BD1E
:1027B0000198FEF73BF97D25ED0006E0694601989A
:1027C000FFF724FF2846FFF7D9FD68460078C007C9
:1027D000F4D12046EAE700000477000070B588B025
:1027E000044601206D46287628764002009040007D
:1027F00001900020029010024C4A04904C4805932E
:10280000944251D141624B4D012202212846FDF7ED
:1028100063FE012204212846FDF75EFE01221021FD
:102820002846FDF759FE012220212846FDF754FED7
:10283000002201212846FDF74FFE012211462846BD
:10284000FDF730FE01212846FDF72AFE002208216F
:102850002846FDF741FE012208212846FDF722FE09
:1028600008212846FDF71CFEA61532460121284600
:10287000FDF7E6FD324608212846FDF7E1FD324628
:1028800002212846FDF7DCFD324604212846FDF7EB
:10289000D7FD324610212846FDF7D2FD32462021D1
:1028A0002846FDF7CDFD37E0234A944234D18162BA
:1028B000224D0121032289062846FDF70DFE032241
:1028C000A9022846FDF708FE0322A1042846FDF7C9
:1028D00003FE0322D1072846FDF7FEFD2604002251
:1028E00031462846FDF7F8FD012231462846FDF71E
:1028F000D9FD31462846FDF7D3FD66040022314656
:102900002846FDF7E9FD012231462846FDF7CAFDBC
:1029100031462846FDF7C4FD1020FEF79FF96946B1
:102920002046FEF7AFF8002008B070BD000001405F
:102930008000004000000340001001400000024001
:1029400010B501208AB0C002FEF788F92020FEF7FA
:1029500085F90120FEF7A6F920219020FEF78CF9D9
:102960000D4C0222D1052046FDF7B6FD02221106CC
:102970002046FDF7B1FD094C2046FEF7CDFC684628
:10298000FEF7DEFC69462046FEF786FC0121204664
:10299000FEF773FC0AB010BD0000034000200040A9
:1029A00010B5002000F0A8F801208107486210BD92
:1029B000F8B50646012408466405104385072248F9
:1029C000234605D1214D2F6AFF0702D05B1EFAD2A4
:1029D000F8BD002BFCDD20481D4B1E4F07608160B9
:1029E0008361D117890F89188910920700D00122BD
:1029F0008918C16100210161174840300160154903
:102A000040398E4202D19921C90104E013498E4216
:102A100002D1BB21C90141600120A861FF20023021
:102A20002862286AC0070AD101213046FEF723F840
:102A3000012804D0002C05DC0220C043F8BD641E30
:102A4000EFD2F9E70020F8BDFFFFFFFF800305404C
:102A50002404200040000140000005400010014017
:102A600070B5012464051F4D06462346286AC00739
:102A700002D05B1EFAD201E0002B02DC0020C04332
:102A800070BD1A48184B0160194981608361C261A9
:102A900000210161154840300160154940398E42DE
:102AA00002D11121890204E012498E4202D155213E
:102AB000090241600120A861FF2002302862286AD3
:102AC000C0070AD101213046FDF7D5FF012804D007
:102AD000002C05DC0220C04370BD641EEFD2F9E774
:102AE000002070BD80030540004910000000054033
:102AF000400001400010014070B5154C0546012210
:102B000011462046FDF7E8FC012208212046FDF78A
:102B1000E3FC104C00212046FDF7DAFF0D48EB21C5
:102B2000803001630B4A0021C03211600221016133
:102B300089030162056000212046FDF783FFA002A2
:102B4000A06080006060052040066060002070BDCD
:102B5000000003400000014010B5002809D00168C2
:102B6000002906D00A78002A03D0CA8880888242C9
:102B700001D0092010BD4878FEF7C9FFC007F9D081
:102B8000032010BDF7B5002483B015460E46970804
:102B900015E00420019080060090801002906946A4
:102BA000039800F080F80121039800F0A3F80128B1
:102BB000F9D00398006CA100641C7050A4B2A74225
:102BC000E7D8AD07AD0F1DD00120000700908010A1
:102BD000029001956946039800F065F80121039879
:102BE00000F088F80128F9D00398006CA100705417
:102BF000012D02D9020A8B195A70022D02D9000C3C
:102C000089198870002006B0F0BDF7B5002483B0A4
:102C10001646054697081BE00420019080060090A8
:102C2000002002906946284600F03DF80498A10073
:102C3000405828642021284600F05CF80028F9D08C
:102C40000121284600F056F80128F9D0641CA4B2EE
:102C5000A742E1D8B607B60F22D0012000070090A6
:102C600000202F460290403701966946284600F022
:102C70001AF80020A10005E00B18049A401CD25C51
:102C80003A7080B2B042F7D32021284600F032F8E3
:102C90000028F9D00121284600F02CF80128F9D0AD
:102CA000002006B0F0BD10B50268520102D5012324
:102CB0009B0600E000234A68026701248A686407D3
:102CC0009A4203680BD109681B0104D51143052200
:102CD000D206114301E011430AE0016010BD09680A
:102CE0001B0102D511430122D20611430160016884
:102CF0002143F2E7006D084000D00120704700003A
:102D00002877000051090000510800001D0900004B
:102D1000C308000055080000930700008907000061
:102D200079080000210700003CE73CE73CE73CE76E
:102D30003CE73CE73CE73CE71CE73CE73CE73CE79B
:102D40003CE73CE73CE73CE73CE73CE73CE73CE76B
:102D50003CE73CE73CE73CE73CE71CE73CE73CE77B
:102D60001CE73CE73CE71CE71DE7FBDEDADEDADECA
:102D7000DADEDADEFBDE1DE71CE73CE73CE71CE7BA
:102D80003CE73CE71CE73CE73CE73CE73CE73CE74B
:102D90003CE73CE73CE73CE73CE73CE73CE73CE71B
:102DA0003CE73CE73CE71CE73CE73CE73CE73CE72B
:102DB0003CE73CE73CE73CE73CE73CE73CE73CE7FB
:102DC0003CE73CE73CE73CE73CE73CE73CE73CE7EB
:102DD0003CE73CE73CE73CE73CE75DEF3CE73CE7B2
:102DE0003CE71CE73CE75DEF3CE73CE75DEF5DEF70
:102DF0003CE75DEF3CE7FBDE7ACE7ACE38C617C6FD
:102E000017C638C67ACE7ACEFBDE3CE73CE73CE715
:102E10003CE73CE73CE75DEF5DEF3CE71CE73CE768
:102E20003CE73CE75DEF3CE73CE73CE73CE73CE761
:102E30003CE73CE73CE73CE73CE73CE73CE73CE77A
:102E40003CE73CE73CE73CE73CE73CE73CE73CE76A
:102E50003CE73CE73CE73CE73CE73CE73CE73CE75A
:102E60003CE73CE73CE73CE71CE75DEF3CE71CE761
:102E70003CE71CE71CE75DEF3CE73CE73CE75DEF28
:102E80003CE75DEF1CE79AD67ACE3DE75DEF3CE785
:102E90003CE75DEF3DE77ACE9AD61CE73CE73CE79E
:102EA0003CE73CE73CE73CE75DEF1CE71CE73CE721
:102EB0001CE73CE75DEF1CE73CE73CE73CE73CE711
:102EC0003CE73CE73CE73CE73CE73CE73CE73CE7EA
:102ED0003CE73CE73CE73CE73CE73CE73CE73CE7DA
:102EE0003CE73CE73CE73CE73CE73CE73CE73CE7CA
:102EF0003CE73CE73CE73CE71CE75DEF3CE71CE7D1
:102F00003CE73CE7FBDE1CE73CE73CE73CE73CE713
:102F10003CE73CE7DBDE18C696B55DEFFFFFFFFF41
:102F2000FFFFFFFF5DEF96B518C6DBDE3CE73CE731
:102F30003CE73CE73CE73CE71CE7FBDE3CE73CE7E3
:102F40001CE73CE75DEF1CE73CE73CE73CE73CE780
:102F50003CE73CE73CE73CE73CE73CE73CE73CE759
:102F60003CE73CE73CE73CE73CE73CE73CE73CE749
:102F70003CE73CE73CE73CE73CE73CE73CE73CE739
:102F80003CE73CE73CE73CE7FBDE5DEF3CE7DBDEB4
:102F9000BAD6BAD6BAD6FBDE1CE75DEF3CE73CE713
:102FA0003CE71CE7BAD6D7BD35A55DEFFFFFFFFFB5
:102FB000FFFFFFFF5DEF35A5D7BDBAD61CE73CE7A5
:102FC0003CE73CE75DEF1CE7FBDEBAD6BAD6BAD6E3
:102FD000DBDE3CE75DEFFBDE3CE73CE73CE73CE764
:102FE0003CE73CE73CE73CE73CE73CE73CE73CE7C9
:102FF0003CE73CE73CE73CE73CE73CE73CE73CE7B9
:103000003CE73CE73CE73CE73CE73CE73CE73CE7A8
:103010003CE73CE73CE73CE71CE7DBDE79CE38C623
:1030200059CE9AD69AD659CEDBDE3CE73CE73CE750
:103030003CE71CE7BAD6B6B5F4A47EEFFFFFFFFF6E
:10304000FFFFFFFF7EEFF4A496B5BAD61CE73CE77E
:103050005DEF3CE73CE7DBDE59CE9AD69AD659CEF7
:1030600038C679CEDBDE1CE73CE73CE73CE73CE7D3
:103070003CE73CE73CE73CE73CE73CE73CE73CE738
:103080003CE73CE73CE73CE73CE73CE73CE73CE728
:103090003CE73CE73CE73CE73CE73CE73CE73CE718
:1030A0003CE73CE71CE7FBDEFBDE38C6F7BD59CE4C
:1030B0001CE79EF7DBDEB6B559CEFBDE1CE73CE72E
:1030C0003CE7FBDEBAD675ADF4A49EF7FFFFFFFF29
:1030D000FFFFFFFF9EF7F4A475ADBAD61CE73CE7EF
:1030E0005DEF1CE7FBDE59CEB6B5DBDE9EF71CE7D5
:1030F00059CEF7BD38C6FBDEFBDE1CE73CE73CE7FC
:103100003CE73CE73CE73CE73CE73CE73CE73CE7A7
:103110003CE73CE73CE73CE73CE73CE73CE73CE797
:103120003CE73CE73CE73CE73CE73CE73CE73CE787
:103130003CE73CE7FBDEFBDE38C638C6FBDEBEF70D
:10314000FFFFFFFF7DEF38C6D7BDBAD6FBDE3CE7F9
:103150001CE7DBDE9AD655AD15A59FF7FFFFFFFFF5
:10316000FFFFFFFF9FF715A555AD9AD6FBDE3CE7A5
:103170003CE7FBDEBAD6D7BD38C67DEFFFFFFFFFC9
:10318000BEF7FBDE38C638C6FBDEFBDE3CE73CE7BD
:103190003CE73CE73CE73CE73CE73CE73CE73CE717
:1031A0003CE73CE73CE73CE73CE73CE73CE73CE707
:1031B0003CE73CE73CE73CE75DEF3CE73CE73CE7CE
:1031C0003CE75DEFFBDE59CE7ACE7EEFDFFFFFFFFF
:1031D000FFFFFFFFFFFFFBDE77C5B8C59AD61ADFFA
:1031E000D9CEB9CED8BDB4A435A57EEFFFFFFEFF82
:1031F000FEFFFDF77BD79395B08D73A6F5B615BF8F
:1032000015BFF5BE93AE119E1BCFFFF7FFFFFFFF6B
:10321000DFFFDFFF7DEF79CE99CE1BDF3CE73CEF90
:103220003CE73BE77CE75BDF3CEF3CEF3DE71DE73E
:103230003CE75CE77CE75CDF3CE73CE73CE73CE7FE
:103240003CE73CE73CE73CE75DEF3CE73CE73CE73D
:103250003CE73CE7DBDE38C635A5BBD6FFFFFFFF0A
:10326000FFFFFFFFDFFFBEF778CE96B597BD18C60C
:1032700017BE37BE39CEB8C57DDEDFFFFCEFD7CF36
:1032800032AFAE8EAF8E4E7E72A6F3B655BF55BF2F
:1032900014BFF4B6B3AE51A6CF8EF19E35BFB9DFE1
:1032A000FEFFFFFFBBD636A5F8C5DBDE1CE73CE71B
:1032B0003CE75DE77DEF1BDF3CEF1CE73DE71DE7EB
:1032C0003DEF3CEF1CE73CE75DEF5DEF3CE73CE7A3
:1032D0003CE73CE73CE73CE75DEF3CE73CE73CE7AD
:1032E0003CE73CE7DBDE59CED39C76B59FF7FFFF8A
:1032F000DFFFFFFFFFFFFFFF7BE716B6D6B59BDEC4
:10330000FDEE5EEFFEF7FEF7F9CF53A70C76C8652A
:10331000296E8B762E97B1A794BFD5C7F6CFF6CF7F
:10332000D5CFD5CFB5C774BF2E9FAB864A764A7628
:10333000AF96D4AEB4A5F49C3AD6FCE63CE73CE7A5
:103340003CE73DE71DEF3CEF9CEF3BDF7CE73CE7D4
:103350001CE71DEF1DEF3DEF5DEF3CE73CE73CE771
:103360003CE73CE73CE73CE73CE73CE73CE73CE745
:103370003CE73CE71CE79AD656AD728C59CEFFFF6E
:10338000DFFFFFFFDFFFDFFF9EF7BDEF9DE77EEF73
:10339000DFFFFFFFFAD731976646474E69660D8714
:1033A00090A7B2B7B2B7D3BF92B792B7B3BFD3BFEC
:1033B000D3BFB3BFD3C7D3C7F5CFD3BFD0AF2C8F45
:1033C00089760A6EAB75AD7DBACE5BDF5AE71BE737
:1033D0003CEF1DEF1DE75DEF16C715BFB7CF58CF08
:1033E0003ADF3DEF3DF73DEF3CE73CE73CE73CE7AC
:1033F0003CE73CE73CE75DEF5DEF3CE73CE73CE763
:103400003CE75DEF3CE7FBDE18C6929414A55DEF48
:10341000FFFFDFFFDFFFBEF7DFFFBFFFDFFFFFFFC5
:10342000DCE7F4AE0C6EE855CB6E0D87909FB2AF23
:1034300071AF71AF50A770AF91AF91AFB1AFB1B7EE
:10344000B1B7B1B7B1B7D2BFD2B7F3C7F4CFD4CF0A
:1034500092B70E97A976465E4F8E14B799DF3CEF70
:10346000FEEE5EF75BE717CF0D8EEF9E91AF12AFCA
:1034700078D77CE73DE73DE73CE73CE73CE73CE7C6
:103480003CE73CE73CE73CE75DEF3CE73CE73CE7FB
:103490003CE73CE73CE7FBDE9AD655AD1184F7BD2F
:1034A000DFFFDFFFDFFFFFFFFFF79FFF9FFFBCE7AF
:1034B000F096075648560D8712A7F19E109F2F973A
:1034C0002E974F9F30A70FA76F9F4F9F6FA770A793
:1034D00070A770A790AF90AFF0AFD1B771B793C797
:1034E000D4CFF3C7D1AF2D97486E4B7EF4B63BDFF8
:1034F0003EEF7DE734C74C964C8EAFA76D976C8638
:1035000077C75CDF1CDF5DE73CE73CE73CE75DEF4E
:103510003CE73CE71CE71CE71CE7FBDE1CE73CE75D
:103520003CE73CE73CE7FBDE7ACE96B5318C76ADE6
:103530007EEFBEF7BEF7BEF7BEEFFFFF9AD7EE7D78
:10354000874D885E4C7F0D87CE8EEE8E0D8F2D8F32
:103550000D8F0E97309F10A72E972F974F974F9F45
:103560006F9F70A790A790A751A791AFB0AFAFA7DB
:103570008FA770AF72B753BF6D976A7E2C86B2A6C5
:1035800078C756BF6D8E487E31B7F2C72C970B7E39
:1035900057CF3CE71DE75CE73CE73CE75DEF5DEFBD
:1035A0003CE71CE71CE7FBDEBAD6BAD6FBDE3CE7FD
:1035B0001CE71CE71CE7FBDE59CEB7B5B7B5BBD699
:1035C000BEF7DFFFBEF7BEF7BFFF37BFEA65854531
:1035D0004966EE86ED86EB7E0A770B7F0D870E8FB0
:1035E000ED860D874C872B7F0E8F2E972E970E978B
:1035F0002E974F9F4F9F2F9732A710A750A76F9FCF
:103600008F9FAFA790A7B1AFB3AF90A7AA86497617
:10361000CD8E6C7E0A768EA775CFF4CFEC960C8695
:1036200078D73DEF3EF7FBE63CE75DEF3CE75DEF2B
:103630001CE7FCDEDCDE39C69AD679CE39C659CE17
:10364000BAD6FBDEDBDE7ACE98B57ACE9DE7BEEF4A
:103650009FFF9FFF7EF7DEF7F6BF6A5D2745CB6EC3
:10366000EA6EAA66EC76AC760C77CC76AB76CB7E3F
:10367000EC86EC86EC86EC86CE8ECD8EED860D87C4
:103680002E870E870E8F0E8F2E8F4E8F4F974F9750
:103690004F974F9F2F9F4FA770A790A76F9FED8EBB
:1036A0004B7E6C860E9FB1AF91B7F2B70B8F497E00
:1036B0003AD71CE75CE75CE73CE75DEF3CE73CE7BB
:1036C0005DEFDCDE39C6F8BDFCDE3DE7DBDE18C6AB
:1036D00018C639C618C6B7B57BD65DE79DE7BEF7F5
:1036E0009FFF7FF7BEF77BDF8B65284DC955CB6EFB
:1036F000AA668A5EAB6E6B6E8A66AB6EAB768B76B5
:103700006B768B76AC76CD7ECC86EC7EEC7E0C7FB9
:103710000C7FEC7E0D874E8F2E970E8F0E8F0E8FA7
:103720000E972F972F9F2E9F4F9F4F9F709F70A791
:103730006F9F70A790A7B1AF71AFD1B70B87497ECC
:103740003AD73DEF5CE75CE73CE75DEF3CE71CE721
:103750001CE759CEB7B57ACE9EF7BFF77DEF1CE7D1
:10376000BAD6F7BD75ADB7B53DE7BEF7BEEFBFF74B
:103770007FF7BEF7BBDFF195A63CA9556B66AA5E45
:103780006956695E8A668B668A668A668A668B6E09
:10379000CC76CC6EAB66AB5E674E4746263E263E89
:1037A000263E2646674E8856AB76CC7EED8E0D8F34
:1037B0000D8F0D8F0E8F2E970E8F0E972E974F9782
:1037C0004F9F6F9F4F9F2F9F30A790AF0B87497ED2
:1037D0003AD73DEF5CE75CE73CE75DEF5DEFFCDE91
:1037E0009AD6D8BDD8BDFCE69EF77EEF5EEF9EF779
:1037F0007EEFBBD67ACE1CE77DEF9EEFBEF79FF73C
:103800007FF7DDEFB4AE6744884D4A5E6A5E485686
:103810006856895649568A5E695E495E8A5ECB66FD
:10382000AA56473EE425A315A0058005600560055E
:1038300080058005A00DA00DC53D264EA966EB7E36
:103840000C870D87ED86ED8E0E8F0E8F0E8F0E8FEF
:103850000E8F0E8F0E972E970F9F6F9F0B7F4976BF
:1038600019D73DEF5CE75CE75DEF5DEF3CE71CE7F8
:1038700059CED8BD9AD65DEF7EF79EF77EF77EEFE4
:103880007EEF7EEF5DEF5DEF9EEF7DEF7EEF3DEF34
:10389000BFF719CF0B5DA534294E4956284E274650
:1038A000684E684E474E484E29566956884E4636F1
:1038B000C31D80058005A005E005C005A105A10583
:1038C000A105A005C005E00D8115A21DC32D45462B
:1038D000A966EB76ED86CD86CD86ED860D870E8FBB
:1038E0000D8F0D8F0E8F2E8F0F974F970A7F497672
:1038F000F9CE3CE73CE75CE75DEF3CE71CE7FBDE2D
:1039000018C6D7BDFCDE9FF77EEF5DEF5DEF7EEF63
:103910007EF77EF77EF77EEF7EF77EEF7DEF7DEF21
:10392000BDEFD18DE42BC7452746274627462746BE
:10393000273E273E4746474669564846042E810D96
:103940008005A00DC00DA00D021D021D032524251C
:1039500023254225822DE32DE31DC21DC11DC22555
:10396000E43D4756AB76ED86CC7ECC7ECC7ECC7EDD
:10397000EC7EED860D870D87EE8E0E8FEA7628762B
:10398000F9C63CE73CE73CE73CE73CE71CE7DBDE0D
:1039900018C676ADD7BDBBD67EEF5EEF5DEF7EEF8E
:1039A0005EEF3DE73DE79EF73EF77EF75CE7DDEF34
:1039B000D8C64A54442C27462636263E263E063E86
:1039C00006360636463E673E4736E425810D8005BD
:1039D0008115421DA2240224832B432B232B643305
:1039E000A53304344434843CA435C435E32DE225A6
:1039F000C225E3354756AA6EEC7ECC7ECC76CC7ED3
:103A0000CC7ECC7ECC7EEC7ECD86ED86EA76286EB2
:103A1000F9C63DE73CE73CE75DEF3CE71CE7FBDE32
:103A20009AD635AD3184B39439C63DE77EF73DEF84
:103A30005EEF7EF75EEF5EEF1EF77EF75CE7DDEF91
:103A4000518D652B884DE535052EE52DE53506367E
:103A5000263E263E463E4636C31D61058005A10D25
:103A6000421D221CA433C8538C74895B663AE42936
:103A70004532E532653BA433833C033DC33D033609
:103A8000E22DE22D043E264E8B6E8B76AB76AC7625
:103A9000AB76AB76AB76AC768C7ECC7EEA76496E36
:103AA000F9C63DEF3CE75CE73CE73CE73CE71CE759
:103AB000BAD638C655AD718CF07B35A559C67EEFA8
:103AC0005DEF3DE75EEF5EEF7DE73EEF1DE75AD726
:103AD0002844A42C063EC42DE52DC52DE535E5353D
:103AE000C42D252E652EE315C005A005C225C12CC9
:103AF000C32B4A5CB3A5DAD61CF7FBDE74A5CA4A11
:103B0000A629C73907426842483B063C0445E345BD
:103B1000033EE235C335E43D475EA966CB6EAB6E2E
:103B20008B6EAB76CB76AB6EAB6ECC7EAA764976DF
:103B300038CF5BE73CE71DEF3CE73CE75DEF5DEF2F
:103B40003CE7FBDE79CED7BD728CF07B318459CE59
:103B50003DE73DE73DE75EEF7DE73DE75DEF76B6AC
:103B6000E63B042DE535E425E425C425C42DC42D0C
:103B7000C4250426E41D810DA005E21D422DA434B8
:103B80004C6DB6B67BDF3BE7FCEE7CEF3BDF78C6E7
:103B90003084C841C73949426732463B8544844531
:103BA0000446043EE335E33DE64D485EAA6E8A6E68
:103BB0006A6E8A6E8A6E8A668B66AC76A96E497664
:103BC00039CF5CE73CE7FDEE5DEF3CE73CE73CE7E7
:103BD0003CE73CE7FBDE9AD618C6728C518C7ACE55
:103BE0005DEF3DE71DE73DE75DE71CE77CE72F85DF
:103BF000E42B652DC325E31DE41DC31DC31DC42592
:103C00000426E425A315610DE21DE4352645AD75B6
:103C100017BF9CE77DEF3CE73DEF3CE77CE79DEF7E
:103C2000BBDEF28B09422942473A4743A654A655C8
:103C3000054E2546043E033EA545075669666A665D
:103C40004A6669668A66AA668A66AB6E896E297656
:103C500039CF5CE75CE71DEF3CE73CE73CE73CE73E
:103C60003CE75DEF3CE7FBDE9AD655A596B5DBDE7B
:103C70003DE73DE73DE73DE73DE71CE7D9CE4A5448
:103C80004324A52DC31DC215C315C31DC31DE425A3
:103C9000252EE425A31DC31D0436A645AC75D7BE4D
:103CA0009EEF1DDFFCDE5DEF3DEF3BDF3BDF1BE703
:103CB0007FFF9CE6D07B483A67436754675DE65DCB
:103CC000054EE5450546254E2756685E69664966F8
:103CD000295E495E695E895EA95E8A6E4866086EE5
:103CE00018CF3CE75CE71DEF3CE73CE73CE75DEFC6
:103CF0003CE75DEF3CE7FBDE39C655A518C61CDF87
:103D00001CE73DE73DE71DE71DE71CE7F5ADC63BBA
:103D1000C42CA325C31D8215A31DE41DE42505267F
:103D2000252EE52DC52D263E274EEB6D94AE1BDFCF
:103D30001EEF3EEF1DE73CEF3DE75CE77CE75CEF05
:103D4000FDEE5EEFB9C6EB5B064DA655265E255629
:103D5000E54DE64D0656265E685E6866496649662C
:103D60004966695E685E68568756695E275EE86DDB
:103D7000F9CE3CE73CE71DEF3CE73CE73CE73CE79E
:103D80003CE73CE71CE7DBDE39C655A57ACE3DE7CC
:103D90003DE71CE7FCDE1DE7FDE6DBDE318DC533CC
:103DA0004535831DA31D6315A425052E262E062E3D
:103DB0000636C635E73D494E2A664F8E39D73DF760
:103DC000DDE63EEF5DEFFBE63DE73CE77CEF3CEFF9
:103DD000FCE67BE736BFAC752656655664566556DD
:103DE0002656485E48664866485E485E485E285EDD
:103DF000485E485E4756264EE43D064EE655E86D61
:103E000019CF3CE75CE75DEF3CE71CE71CE71CE7EC
:103E1000FBDE1CE7FBDEBAD696B535A59AD61CE7C5
:103E20001CE7FCDEDCDE1DE7DDE6BACECF7C063427
:103E30004535831D831D6425C5350636273E273E3F
:103E4000083EE84509564B66EC6D739E3ADF5EF717
:103E50003DEF3CE75CE75CEF5EEF1CE75CE71CE7EF
:103E60007DEF79DF6E8E276668666666465E675E02
:103E7000686649664866686E6866485E485E285EA1
:103E80000756E64DC545C43DC32DE545C54DC86D36
:103E9000D9CE1CE75CE75DEF3CE7FBDEBAD69AD6ED
:103EA00059CE59CE38C6D7BD149D35A5FCDEFCDEF3
:103EB000FCDE3DE71DE7FCDEDDDE7ACECF74263486
:103EC000442D8325421D852DE63D073E2846284684
:103ED00009462A564B666C760E7616BF3BE71CEFFA
:103EE0003CE75BDF5BE75CEF1DE77DEF3CE73CEF2A
:103EF0003CE716C70D97066F096E086E276E486E71
:103F00002966085E075E265E0756075E0756E75578
:103F1000E64DE64D05462546443E264EE655876568
:103F200098C6BADEFADE1CE7FADEBAD69AD6BBD657
:103F30007ACE59C659C679CE18BE7ACEDBD61CDFEA
:103F4000FCDEFCDEFCDE1CDFDCDE38C6AE7C47447B
:103F5000463D43256425E83D08460846294E2A5635
:103F60002A560B5E4C6E6E7ECF8D17C77CE71DE721
:103F70003DEF5CE71CE71DEF3BE75CEF3DEF1CE727
:103F80005BE758CFB1A6CB7DA64D2545654D454590
:103F90000545264D264D0545064DE54CC544E54CE9
:103FA000064D064D064D26552655085D8D7D94B669
:103FB000F9D699CE99D61BE7BAD6F7BD18C6DCDE7E
:103FC0003DE71DDF1CDF1CDFFCDEFCDEFCDEFCDE73
:103FD000FCDEFCDEFCDEFCDEBCDE18BEAF7C484452
:103FE000473D4425852D0946094E294E4A4E4B56DC
:103FF0002B5E2C664D768E7EF08D17C77CE71DE715
:104000003DE75CE73CE73DEF3BE73CEF3DEF1DEF75
:104010005CE79BDF58CF14B774A66C6C684B894B78
:104020008A53AB5B2C6C8E74CF7CCF7C1085518D0A
:1040300072959295F49D35AED4AEB5B6F8C63CDF18
:10404000FCDE19C6F9C5BBDEBAD676AD56AD7BCE61
:10405000DCDEDCD6DCD6DCD6FDDEFCDEDCD6DCD677
:10406000FCDEFCDEFCDEDCDEBCDE39C6D084494C86
:10407000684D653586352A4E4A564B566B5E6C66E2
:104080004C664D6E8E7EAF863096F7BE5CE73DE7A0
:104090003CE75CE73CE73DEF3CE73DE71DEF1DEF0C
:1040A0001DE75DE79CDF9CDF3DEF92942D6BD08395
:1040B000118C329416ADD9C53ACE5BD67BD69CDE38
:1040C0009CDE9CDEBCDEDDE6FCD6FDDEDDDEBEE693
:1040D0005CD657B557AD9BD67AD635A5F5A498B51D
:1040E000B9B5D9B51AC63AC67BCE9BCEBCD6DCD6FE
:1040F000DCD6DCD6BCD6BCD6BCDE59CE12956A5C0A
:104100006955673D873D4B5E4C664C666D666D6ECE
:104110006E6E6E768F86D08E719EF6BE5BDF3DEF43
:104120003CE75CE75CEF3DEF5DE73DE73DEF1DEF12
:104130001DEF1CE73DE75DE77CEF74AD918C55AD5D
:1041400055AD55AD59CEDBDEBBDEBBDEBBDEBCDE26
:10415000BCDEBBDE9BDE7BD63BCE1BC6BABDBABD8A
:1041600099BDD59C34A599CE7ACE15A5D49C37A5FA
:1041700016A5F69C57AD57AD57AD77ADB8B5F9BD9F
:104180001AC63AC65BCE7BCE7BCE5ACE549D6C64AB
:104190004B5D684588454D664D6E4D6E6E6E6E7614
:1041A0006F766F7E908EB196919ED6B63BDF5DEFB7
:1041B0003CE75CE75CE73CEF5DE73CE73CE75CEF56
:1041C0005CEF3CEF3CEF3CEF3CDFB5AD1395B6AD9B
:1041D00075A5B6AD9AC679BE7BCE5AC63AC619BE8B
:1041E000F9BDD8B5B8B577AD77AD57AD169D37A544
:1041F00057A5D49C34A578CE59CE35A5D49C57ADBF
:1042000057AD17A537A537A557AD57A536A536A580
:1042100036A536A537A557ADD8B53AC696AD6D6C5F
:104220002C656A5589554E6E4E766E766F7E8F7E02
:10423000907E7086918EB296B2A6D5B6FAD63CE73D
:104240005DE75CE73CE73CEF5CE73CE73CE73BE7EE
:104250005CEF5CEF3CEF3BEF3DE776ADF49C76B571
:1042600077ADF9BD7BCEB8B537A557A537A5169D57
:10427000169D37A537A537A536A557A5379D58A54F
:1042800057A5F59C55A559CE79CE75ADF4A436A5A4
:1042900037AD37A537A537A5169D37A537A537A55F
:1042A00037A516A537A537A556AD5BCEF8BDB07CB2
:1042B0004E758B5D8A5D4E766F866F7E9086B18679
:1042C000B18E928E9296B39EF3A6D5B6D9CEFCDE71
:1042D0005CE75CE73BE73CE73CE73CE73CE73CE787
:1042E0003CE73CE73CE71BE7FCEE55B535ADB7BD19
:1042F000B7BD39C63ACE36AD16A537A537A537A511
:1043000057A557AD37A516A516A536A537A537A5C8
:10431000179D159D77B57AD6BAD6F7BD14A5738CBF
:10432000128433841284F27B1284949437A578AD7E
:1043300057AD37A537A557AD56A59BD67ACE128D6A
:104340008F7DAC6D8B5D4E76708690869186B18E3A
:10435000D296B396B39ED39E13AFD6B6B9CEFBDE3C
:104360005CE75CE73BE75CEF3CE75DE75DE73DE78B
:104370003DE75EE75EEF3DE79AD635A596B518BEF8
:10438000D7B57AC67AC676A557A537A537A537A576
:1043900057AD37A59494127CF18BF18B1284338442
:1043A000738CF49CD7BDBADEDBDE79CED7BD34A5E5
:1043B000D39CB294718C10846E6BF07B57AD57AD6B
:1043C00037A557A557A536A536A55ACE3DDFB5A5C5
:1043D000318DB18D2D6DEE7DB196718EB296D39EDD
:1043E000939E939EB4A6D5AED5B6F6BEF7BE18CFB3
:1043F00039D73BDF5CE75CEF3CE77DEF5CE71CE730
:104400003CE75DEF3DE73CE75ACE35A5F8BD38C641
:10441000F8BDDBD63AC636A516A537A557AD37A5E4
:1044200057AD57ADF07B6E6B1084718CB294D39CFA
:1044300034A5D7BD79CEDBDE3CE7FBDEBAD659CE5C
:1044400038C618C6D7BD96B5D394728C36A537A595
:1044500037A537A557A557A536ADF9BD3DE758BED9
:104460005295D195AF856D75B296B296B39EB39EB7
:10447000B4A6B4A6B4AED5AED5B6F6BEF7C618CFC0
:1044800039D73BDF3BE75CE75CE73CE73CE73CE7F1
:104490003CE73DE73CE71CE796B5B7B559CE39C6D2
:1044A0007ACEFCDE19BE36A557A557A537A537A588
:1044B00037A536A5728CD39496B5D7BD18C638C625
:1044C00059CEBAD6FBDE3CE71CE71CE71CE7FBDE57
:1044D0001CE7FBDEDBDE9AD696AD939415A557ADAF
:1044E00057AD37A557A557A557AD98B53DE73CDF64
:1044F000D4A5D39532964D757296D39ED4A6B3A605
:10450000D5AEF5B6D5B6D5B6F6BEF6BEF7C618CF5B
:1045100019D73ADF3BDF3CE73CE73CE75CEF5CE781
:104520001CE73DE71CE79AD635A539CE9AD659CE79
:10453000FCDE1DDFD8B536A557AD57A537A557A565
:1045400057ADF5A4939496B59AD6DBDEFBDE1CE757
:10455000FBDE1CE71CE71CE71CE73CE73CE73CE70D
:104560003CE73CE71CE7DBDEF7BDB394F59C77AD99
:1045700078AD57AD77AD57AD57AD77B5DCDE9EEF73
:1045800078BED4A554A6D195D085939EF5AED5AE70
:10459000D5B6F6B6F6BEF6BEF7BEF7C6F8C618CF65
:1045A0001AD71ADF1BDF3BDF1BDF5CE75CEF1CE782
:1045B0003CE75DEFDBD6B7B5B7B59BD69AD6BBD691
:1045C0007EEFDCD697B557AD57AD77AD57AD78AD2B
:1045D00077ADF59CB394F7BDDBDE1CE73CE73CE729
:1045E0003CE73CE73CE71CE75DEF5DEF3CE73CE781
:1045F0003CE75DEF3CE7FBDE9ACEF49C939457A535
:1046000078AD78AD77AD98AD77B598B51AC67EEF31
:104610005DE757B635AE75AE918DF295B5AE17BF65
:10462000F6BED6BEF7BE17C7F8C6F8C618CF19CF64
:104630001AD71ADF1BDF1BDF3CE73CE73CE73CE710
:104640005DE7FCDE39C696B59BD6BBDEDBDE5DEFF3
:104650005EEF5AC677AD98B597AD77AD78AD78ADCA
:1046600057AD9394F49C7ACEFBDE3CE75DEF3CE7DC
:104670003CE73CE75DEF5DEF5DEF3CE73CE71CE7C7
:104680003CE73CE73CE7FBDE7ACEF49C528C36A557
:1046900078AD98AD77AD98AD98B598B598B5DCDEA6
:1046A000DFF71BD757BEB7BE55AEB39DF39DB7BE60
:1046B00018C7F8C6F7C6F7C618CF19CF19CF1AD73B
:1046C0001AD71BDF3BDF3BDF1CE71BE73CE75DEF57
:1046D0001BDF18C6F7BD9ACE1DE7DCDE3DE7BFF74E
:1046E000FCDEB8B577ADB9B597AD77AD98B598ADF7
:1046F00036A5528CF49C79CEFBDE3CE73CE73CE7E8
:104700001CE73CE73CE75DEF5DEF5DEF3CE73CE736
:104710003CE73CE7FBDEBAD6F7BD76ADF49C56AD80
:1047200098ADB9B598AD97ADB8B5B9B5B9BD1AC61C
:104730005EEF9EEFFAD6B9C6F8C656B6F4A535AE0A
:10474000B7BE18C718C7F8C619CF19CF1AD71AD7C6
:104750003BDF3BDF3BDF3BDF1BE71BE71BE7FBDE12
:1047600059CEF8BD7ACE5DEF3EEF3DE79EF75DEFA7
:1047700039C6B8B5B8B5B9B597AD98ADB9B598ADB6
:1047800056ADF49C76ADF7BDBAD6FBDE3CE73CE710
:104790003CE73CE75DEF5DEF3CE73CE73CE73CE7AF
:1047A0001CE7FBDE79CEF7BDF7BD59CEF9BDB8B534
:1047B00077ADFABDF9BDB8B5B8B5D9BDFAC5B8BDC4
:1047C0009BD6DFF77DE7DACEF9CE39CF97BED4A5F9
:1047D000F5AD97BE19CF59D719CF19D71AD73AD7F0
:1047E0003BDF3BDF3BDF5BDF5CE73CE7BAD617BE76
:1047F000F7BDBBD67DEF5DEF5EEF9FF79FF7BBD6B2
:10480000D8BDF9BDF9BD98B5B8B5F9BDF9BD77AD5D
:1048100098B5F9BD7ACEF7BDF7BD79CEFBDE1CE7C2
:104820003CE73CE73CE73CE73DE73DE73CE71CE78E
:10483000BBD65ACE3AC61AC61AC698B578ADB8B520
:1048400077ADB8B55AC6B7B5DABDB9BDFABDF9BDD1
:1048500019C6DCDE9FF79EEF1AD71AD71BD7FACE00
:1048600057BEF6AD16B6B8C6D9CEF9D61ADF3BDFBD
:104870003BDF3BDF1ADFFAD6BAD639C6F8BD59CED0
:104880001CE77EEF5EEF3DE79EF7BFF7DCDE19C663
:1048900019C61AC6D9BDDABDB7B55AC6B8B577AD0F
:1048A000B8B578AD98B51AC61AC63AC65ACEBBD6B0
:1048B0001CE73CE73DE73DE75DEF3DE73CE71CE7F4
:1048C000BAD659CE19C6D8BD78AD57AD78AD98B522
:1048D00077ADB8B53AC619BED9BDD9BD1AC619C685
:1048E000F9BD7ACE3DE79EF77CE73BDF1BD73BDF88
:1048F0003BD7D9CE77BE36B637BE37BE57C658C6B9
:1049000078C658C658C658C618C67ACE1CDF5DE7AA
:104910003DE73DE75EEF9FF79EF73DE77ACEF9BDB5
:1049200019C61AC6D9BDB9BD19BE3AC6B8B577AD54
:1049300098B578AD57AD78ADD8BD19C659CEBAD6B1
:104940001CE73CE73DE75DEF5DEF3DE73CE7FBDE65
:1049500039C697B576AD77AD78AD78AD98B5B9B5C0
:10496000B9B598B5B8B53AC61AC6F9C51AC61AC6C1
:1049700019C619C69BD61CE7DEF79DEF5CDF3BDF4F
:104980005CDF5CDF5BDF3BDFDAD6BAD699CE79CE6F
:1049900079CE9ACEBBD6DBDE3DE75DEF7EEF5DEFF5
:1049A0005DEF7EEF9FF7DFFF1CE77ACE19C619C6D1
:1049B0001AC61AC6F9BDFAC53AC6B8B598B5B9B59A
:1049C000B9B598B578AD78AD77AD76AD97B539C650
:1049D000FBDE3CE73DE75DEF3DE75DEF3CE7DADE20
:1049E000F7BDF4A4D49C57AD58ADB9B5B9B577AD02
:1049F000B8BD1AC6F9BD5ACE5ACE3AC619C619C69E
:104A00005ACE39C639C67ACE3CDF7DEFBEEF7DEF98
:104A10003CE73CDF5CE75CE75DE75DE75DE75DE7C2
:104A20005DE75DEF5DEF5EEF7EEF5DEF3DE75DEF34
:104A30009FF7DFF77EEFFCDE9BD639C639C65ACE2C
:104A40003AC61AC63ACE5ACE5ACEF9BD1AC6B8BD23
:104A500077ADB9B5B9B558AD57ADD49CF4A4F7BD91
:104A6000DADE3CE75DEF3DE71CE75DEF1CE7FBDED0
:104A700079CE14A5939456AD78AD78ADB8B5D9BDBF
:104A8000F9BD36A5B494B7B55ACE7BCE3AC619C691
:104A90007ACE7BCE7ACE7ACE7ACEFCDE7DEF9EEFDA
:104AA0009EEF9DEF7DEF3CE73CE73DE75DE75DE78F
:104AB0005DE75DE73DEF3DE73CE77EEFBFF7BFF722
:104AC000BFF75EEFDCDE5ACE7ACE7ACE9BD67ACEB8
:104AD00039C65ACE7BCE7BCEB7B5B49436A5F9BDD8
:104AE000D9BDB8B578AD78AD56AD939414A579CE4F
:104AF000FBDE1CE75DEF1CE73DE75DEF1BE71BE717
:104B0000DBDE96B59394D49CD9BD98B597B577B5AF
:104B1000D49C8F734D6B318C19C69BD69BD65ACEC5
:104B20007ACE9BD69BD69BD69AD6BBD6DCDE1CE72C
:104B30005DEFBFF7DFFFBFF7BEF79EEF7EEF7EEFC3
:104B40007EEF7EEF9EF79FF7BFF7DFFFBFF77EEFA9
:104B50001DE7DCDEBBD69BD69BD69BD67BCE5ACE42
:104B60005ACE9BD69BD619C6318C4D6B8F73D49C75
:104B700077B597B598B5D9BDD49C939496B5DBDE3F
:104B80001BE71BE75DEF3DE73CE75DEF3BE73BE7FE
:104B90001BE739C615A5939477ADB7B515A5318434
:104BA000F07B728CB294308455A518C6BBD6BBD6A8
:104BB0009BD69BD69BD69BD6DCDEBBDEBBD6BBD6BC
:104BC000DCDE1DE75DEF5DEFBEF7BEF7DFF7DFFF71
:104BD000DFFFDFFFBFF79FF77EEF3DE71CDFFCDE67
:104BE000DCDEDBDEBBD6BBD69BD69BD67BCE7ACEBD
:104BF000BBD6BBD618C635A53084B294728CF07B78
:104C0000318415A5B7B577AD939415A539C61BE7C3
:104C10003BE73BE75DEF3CE73CE73CE75CEF5CE70D
:104C20001CE7DBDEF8C515A514A572943184F49C4D
:104C3000D7BD38C637C654AD318435A55ACEDCDE73
:104C4000DCDEBCD6BBD69BD6DCDEDCDEDCDEDCDE2E
:104C5000FCE6FCE6FCE61CE73CDF3CE75CE75DEFDE
:104C60005DEF3DE73CE71CE71CE7FCDE1CDF1CE7D3
:104C7000FCDEDBD6BBD6FCDEBCD6BBD6BCD6DCDECF
:104C8000DCDE7ACE35A5318454AD37C638C6D7BD03
:104C9000F49C3184729414A515A5F8C5DBDE1CE7DD
:104CA0005CE75CEF3CE73CE73CE73CE73CE75DEF7B
:104CB0003CE7FBDE9AD638C696B575ADD7BD59CE62
:104CC0009AD6DBDEBAD659CE75AD728C929439C6BF
:104CD0001CE7FCDEFCDEBBD6DBDEFCE6DBDEDCDE7E
:104CE0001DE71DE71CE71CE71CE73CE71CE73CE76A
:104CF0003CE71CE73CE71CE71CE71CE71DE71DE75A
:104D0000DCDEDBDEFCE6DBDEBBD6FCDEFCDE1CE74D
:104D100039C69294728C75AD59CEBAD6DBDE9AD66E
:104D200059CED7BD75AD96B538C69AD6FBDE3CE7F1
:104D30005DEF3CE73CE73CE73CE73CE73CE73CE732
:104D40003CE71CE7DBDEBAD69AD679CEBAD6FBDED4
:104D50001CE73CE73CE7FBDE59CED39C318476B5BB
:104D6000BBDEFCDEFCE63DE7DBDEFCE61CE73DEF00
:104D70003DEFFCE61CE77EEF5DEF5DEF5DEF5DEF85
:104D80005DEF5DEF5DEF5DEF7EEF1CE7FCE63DEF75
:104D90003DEF1CE7FCE6DBDE3DE7FCE6FCDEBBDED0
:104DA00076B53184D39C59CEFBDE3CE73CE71CE76B
:104DB000FBDEBAD679CE9AD6BAD6DBDE1CE73CE764
:104DC0003CE73CE73CE73CE73CE73CE73CE73CE7CB
:104DD0003CE73CE73CE71CE71CE7FBDE1CE73CE765
:104DE0001CE73CE73CE71CE7BAD655AD34A539C60D
:104DF000FCDEFCDEDCDE1DE77EF73DEF1CE71CE79A
:104E00003DE75DEF3DE75DEF5DEF5DEF7DEF5DEF72
:104E10005DEF7DEF5DEF5DEF5DEF3DE75DEF3DE762
:104E20001CE71CE73DEF7EF71DE7DCDEFCDEFCDE69
:104E300039C634A555ADBAD61CE73CE73CE71CE7BC
:104E40003CE71CE7FBDE1CE71CE73CE73CE73CE7F4
:104E50003CE73CE73CE73CE73CE73CE73CE73CE73A
:104E60003CE73CE73CE73CE73CE73CE73CE73CE72A
:104E70001CE73CE73CE71CE77ACEB7B559CEFCDE31
:104E8000DBDEDBDEFCDE1CE71CE73DE79EF77DEFAB
:104E90003CE73DE75DEF7DEF7DEF7DEF9EF77DEF3A
:104EA0007DEF9EF77DEF7DEF7DEF5DEF3DE73CE72A
:104EB0007DEF9EF73DE71CE71CE7FCDEDBDEDBDE7B
:104EC000FCDE59CEB7B57ACE1CE73CE73CE71CE7E1
:104ED0003CE73CE73CE73CE73CE73CE73CE73CE7BA
:104EE0003CE73CE73CE73CE73CE73CE73CE73CE7AA
:104EF0003CE73CE73CE73CE73CE73CE75DEF5DEF48
:104F00003CE73CE73CE7FBDE18C6D7BD9AD6DCDEC3
:104F1000BBD6FCDE1DE71CE75DEFBBD6FCDE9EF7D3
:104F2000BFF7BFF79EF79EF7BEF79EF79EF79EF777
:104F30009EF79EF79EF7BEF79EF79EF7BFF7BFF767
:104F40009EF7FCDEBBD65DEF1CE71DE7FCDEBBD6A3
:104F5000DCDE9AD6D7BD18C6FBDE3CE73CE73CE773
:104F60005DEF5DEF3CE73CE73CE73CE73CE73CE7D7
:104F70003CE73CE73CE73CE71CE73CE73CE73CE739
:104F80003CE73CE73CE75DEF3CE73CE75DEF3CE7B7
:104F90001CE73CE7FBDE9AD6D7BD79CEFBDEDBDE35
:104FA000FCDE1DE71DE71CE7FBDE9294108434A5B0
:104FB00079CE3CE77DEFDFFFBEF7BEF79EF7BEF789
:104FC000BEF79EF7BEF7BEF7DFFF7DEF3CE779CE79
:104FD00034A510849294FBDE1CE71DE71DE7FCDE80
:104FE000DBDEFBDE79CED7BD9AD6FBDE3CE71CE7E5
:104FF0003CE75DEF3CE73CE75DEF3CE73CE73CE747
:105000003CE73CE73CE71CE73CE73CE73CE73CE7A8
:105010003CE73CE73CE73CE75DEF3CE75DEF5DEFFD
:105020003CE73CE7FBDE59CE18C6DBDE1CE7DCDEE6
:10503000FCDE1CE71DE73DE7F7BD3084CF7B308405
:1050400030849294D39C34A5BAD69EF79EF79EF7EF
:105050009EF79EF79EF7BAD634A5D39C92943084DF
:105060003084CF7B3084F7BD3DE71DE71CE7FCDED5
:10507000DCDE1CE7DBDE18C659CEFBDE3CE73CE796
:105080005DEF5DEF3CE75DEF3CE73CE73CE73CE78D
:105090003CE73CE73CE73CE75DEF3CE73CE73CE7CF
:1050A0003CE73CE73CE73CE73CE73CE73CE73CE7E8
:1050B0003CE73CE7DBDE38C6F8BDBAD6DBDEFCDE1B
:1050C0001CE71CE73DE7FCDEB294B294B6B5D7BD51
:1050D00075AD55AD718C8E7375AD7DEFBEF75DEF1F
:1050E0005DEFBEF77DEF75AD8E73718C55AD75AD0F
:1050F000D7BDB6B5B294B294FCDE3DE71CE71CE721
:10510000FCDEDBDEBAD6F8BD38C6DBDE3CE73CE7CA
:105110003CE73CE73CE73CE73CE73CE73CE73CE777
:105120003CE73CE73CE75DEF3CE73CE73CE73CE73E
:105130003CE73CE73CE73CE73CE73CE73CE73CE757
:105140003CE71CE7DBDE79CE34A5D39CF7BD1CE73A
:105150003CE75DEFFBDEB6B5B294F7BD79CEDBDEA2
:10516000BAD659CEF7BD929496B59EF79EF79EF7A4
:105170009EF79EF79EF796B59294F7BD59CEBAD694
:10518000DBDE79CEF7BDB294B6B5FBDE5DEF3CE772
:105190001CE7F7BDD39C34A579CEDBDE1CE73CE7EA
:1051A0003CE73CE73CE73CE73CE73CE73CE73CE7E7
:1051B0003CE73CE73CE73CE73CE73CE73CE73CE7D7
:1051C0003CE73CE73CE73CE73CE73CE73CE73CE7C7
:1051D0003CE73CE7FBDEBAD638C6F39C518CD39C47
:1051E00018C63CE779CE929496B59AD6FBDE3CE79A
:1051F0001CE7DBDE79CE34A5D7BD9EF77DEF9EF7A9
:105200009EF77DEF9EF7D7BD34A579CEDBDE1CE798
:105210003CE7FBDE9AD696B5929479CE3CE718C669
:10522000D39C518CF39C38C6BAD6FBDE3CE73CE7F6
:105230003CE73CE73CE73CE73CE73CE73CE73CE756
:105240003CE73CE73CE73CE73CE73CE73CE73CE746
:105250003CE73CE73CE73CE73CE73CE73CE73CE736
:105260003CE73CE73CE71CE7BAD638C655ADB294FC
:10527000D39C96B596B514A559CE1CE73CE75DEFD7
:105280003CE71CE7BAD696B5D7BDBEF77DEF9EF7D3
:105290009EF77DEFBEF7D7BD96B5BAD61CE73CE7C3
:1052A0005DEF3CE71CE759CE14A596B596B5D39CA7
:1052B000B29455AD38C6BAD61CE73CE73CE73CE7AC
:1052C0003CE73CE73CE73CE73CE73CE73CE73CE7C6
:1052D0003CE73CE73CE73CE73CE73CE73CE73CE7B6
:1052E0003CE73CE73CE73CE73CE73CE73CE73CE7A6
:1052F0003CE73CE73CE73CE71CE71CE79AD6F7BDF8
:1053000075AD75ADD7BD38C6BAD61CE73CE73CE7EE
:105310003CE71CE7BAD696B5B6B5BEF79EF77DEF6B
:105320007DEF9EF7BEF7B6B596B5BAD61CE73CE75B
:105330003CE73CE71CE7BAD638C6D7BD75AD75ADBE
:10534000F7BD9AD61CE71CE73CE73CE73CE73CE7A7
:105350003CE73CE73CE73CE73CE73CE73CE73CE735
:105360003CE73CE73CE73CE73CE73CE73CE73CE725
:105370003CE73CE73CE73CE73CE73CE73CE75DEFEC
:105380003CE73CE73CE73CE73CE71CE7FBDEDBDED9
:10539000BAD69AD69AD6DBDE1CE73CE73CE73CE778
:1053A0003CE71CE7BAD6D7BDD7BD9EF7BEF7BEF720
:1053B000BEF7BEF79EF7D7BDD7BDBAD61CE73CE710
:1053C0003CE73CE73CE71CE7DBDE9AD69AD6BAD648
:1053D000DBDEFBDE1CE73CE73CE73CE73CE73CE789
:1053E0005DEF3CE73CE73CE73CE73CE73CE73CE77C
:1053F0003CE73CE73CE73CE73CE73CE73CE73CE795
:105400003CE73CE73CE73CE73CE73CE73CE75DEF5B
:105410003CE73CE73CE73CE73CE73CE75DEF3CE74B
:10542000FBDEDBDEFBDE1CE73CE73CE73CE73CE782
:105430003CE73CE7DBDE38C6F7BD9AD659CE59CEFD
:1054400059CE59CE9AD6F7BD38C6DBDE3CE73CE7ED
:105450003CE73CE73CE73CE71CE7FBDEDBDEFBDE52
:105460003CE75DEF3CE73CE73CE73CE73CE73CE7FB
:105470005DEF3CE73CE73CE73CE73CE73CE73CE7EB
:105480003CE73CE73CE73CE73CE73CE73CE73CE704
:105490003CE73CE73CE73CE75DEF3CE73CE73CE7CB
:1054A0005DEF3CE73CE73CE73CE73CE73CE71CE7DB
:1054B0003CE75DEF5DEF3CE73CE73CE75DEF3CE759
:1054C0003CE73CE7FBDE9AD675ADF39C3084108454
:1054D00010843084F39C75AD9AD6FBDE3CE73CE744
:1054E0003CE75DEF3CE73CE73CE75DEF5DEF3CE729
:1054F0001CE73CE73CE73CE73CE73CE73CE75DEF8B
:105500003CE73CE73CE75DEF3CE73CE73CE73CE75A
:105510003CE73CE73CE73CE73CE73CE73CE73CE773
:105520003CE73CE73CE73CE75DEF3CE73CE73CE73A
:105530005DEF3CE73CE75DEF1CE75DEF5DEF3CE7CF
:105540005DEF3CE71CE73CE73CE73CE75DEF5DEFE8
:105550003CE75DEF1CE7DBDE9AD618C6D7BDD7BDAA
:10556000D7BDD7BD18C69AD6DBDE1CE75DEF3CE79A
:105570005DEF5DEF3CE73CE73CE71CE73CE75DEFB8
:105580003CE75DEF5DEF1CE75DEF3CE73CE75DEF7F
:105590003CE73CE73CE75DEF3CE73CE73CE73CE7CA
:1055A0003CE73CE73CE73CE700100000000010004F
:1055B000D0550000007700003C000000841300007C
:1055C0000C5600003C7700006C06000094130000AD
:1055D00000000000000000000000000000000000CB
:1055E00000000000000000000000000000000000BB
:1055F00000000000000000004001E0013CE7000066
:0C56000000F800000000010000000000A5
:04000005000000AD4A
:00000001FF
