:020000040000FA
:10000000A87A0020B1000000B9000000E90100005A
:1000100000000000000000000000000000000000E0
:100020000000000000000000000000008F0400003D
:1000300000000000000000008D040000910400009A
:10004000C3000000C3000000C300000095040000CE
:10005000A9040000C3000000C3000000C3000000AA
:10006000C300000031060000C3000000C300000010
:10007000C3000000C3000000C3000000C300000074
:10008000D93400001D0100006D010000C300000014
:1000900000000000C3000000C3000000C300000017
:1000A0000000000000000000C3000000C3000000CA
:1000B0000448804704480047FEE7FEE7FEE7FEE706
:1000C000FEE7FEE7B1810000610B0000FFB51049BB
:1000D000104A102313600B60401EFBD1FFBD704718
:1000E000FFB50B4B10240C4DC0C832042A601C60B5
:1000F000320C12042A601C603A042A601C603A0C1C
:1001000012042A601C60091FEED1FFBD704700BFBA
:1001100004000240080002400000024010B50E4CEE
:100120000421204604F0EEFE002806D004212046DB
:1001300004F0B2FE09A008F085FD0821204604F075
:10014000E1FE002806D00821204604F0A5FE05A007
:1001500008F078FD10BD00000080024055500D0AE7
:10016000000000004C4946540D0A000070B50125FE
:10017000164C6D072946204604F0C4FE002806D020
:1001800013A008F05FFD2946204604F085FE0125F6
:10019000AD072946204604F0B5FE002806D02946C2
:1001A000204604F079FE0CA008F04CFD0125ED0777
:1001B0002946204604F0A6FE002806D029462046FF
:1001C00004F06AFE06A008F03DFD70BD008003400B
:1001D0004F4B0D0A00000000444F574E0D0A00001F
:1001E00052494748540D0A0001A008F02BFDFEE7D4
:1001F000486172644661756C745F48616E646C65D9
:10020000720000001CB56A46108051809080D18039
:1002100003480123C2880199009800F077F81CBDBB
:10022000040000207CB51C466D462880131A6980A6
:10023000AA80661AEC8005485B1C761CC288734352
:100240000199009800F062F87CBD000004000020D5
:10025000FFB581B00D46144668465C43C1885B1EFD
:10026000C81883B268468088234F521E8218FE68E1
:1002700092B2B047B9682C208847204E08207060A1
:100280001F49C006886020491E484860E8071027BB
:10029000002808D0002C26D0288800043060776021
:1002A000641EAD1CF6E7A80705D02888000430605E
:1002B0007760641EAD1CA0088000A4070146009072
:1002C000A40F2846FFF70CFF002C0CD0009840002C
:1002D0004119002005E042008A5A1204326077601A
:1002E000401CA042F7D3084906488860C805044965
:1002F000486005B0F0BD0000A445010000000240C8
:1003000000000340EFFF000080800240FFB581B095
:1003100068460E4C43890289C188E5688088A847F1
:10032000A1682C2088470A4808214160094D4403F0
:10033000AC600A4F084E7E6003990904016004987E
:10034000FFF7C4FEBE606C6005B0F0BDA4450100BF
:100350000000024000000340EFFF000080800240E8
:10036000FFB583B06A4601910090D18A558B148BFA
:100370004819401E83B2908A1B4F0219521EFE6814
:1003800092B2B047B9682C208847184808214160CC
:10039000174A41039160184A164951606A46508EC7
:1003A00000218446168E14E06246019B52185A437F
:1003B000009B00205200D31808E0321852009A5ACD
:1003C00017040A4A176010275760401C8442F4D86B
:1003D000491C8D42E8D8084906488860C805044988
:1003E000486007B0F0BD0000A445010000000240D5
:1003F00000000340EFFF000080800240F8B51A4C77
:100400000246E5680B46A847A1682E2088470126CA
:100410001648B607866017491548886016480821AF
:1004200041601021416000F029F86068804700F0C9
:1004300025F860688047C50AED0200F01FF8606883
:100440008047074600F01AF86068804707494E6009
:10045000084A07495160E90A800AC902400101437C
:10046000F80A0843F8BD0000A4450100000003405D
:100470000000FFFF0080024000000240012102480E
:100480000907816041607047000003407047704772
:100490007047000010B503490020088200F092F96F
:1004A00010BD000000C0004007480022028207483B
:1004B0000178491CC9B20170022903D102700448B5
:1004C000006800477047000000C80040000000209E
:1004D00034000020FEB5064630480D46007D002859
:1004E0005AD12E4C203C2089B04201D9012000E095
:1004F00000206189B14201D2012100E000210843BE
:1005000005D004222649684600F090FB40E0A0890F
:10051000A84201D9012000E00020E189A94201D2CE
:10052000012100E000210843EBD13020205E00F0E3
:1005300067FD0746304600F06EFDA16A00F01CFC26
:10054000394600F011FC00F0A8FD86B23220205E92
:1005500000F056FD0746284600F05DFDE16A00F018
:100560000BFC394600F000FC00F097FDFF21413103
:100570008A1B92B280B2628320828E42C1D8FF234E
:10058000E1339842BDD869468880CA8001980090BE
:100590006946012009F0BEF9FEBD000054000020AC
:1005A000304601007047000070B5204CA079C007AC
:1005B00015D00AF09EFC6081E088401C80B2E0808B
:1005C000022815D30025E580A3880120002B0AD03E
:1005D00020892188002288420BD3411A0AE00AF0C0
:1005E00083FC2081E8E7A0802089208060896080EA
:1005F00070BD091A642900DD012261896688B14253
:1006000001D38E1B00E0761A642E00DD521C002AF6
:1006100001D0A58070BD5B1C20809AB26180A28051
:10062000052AF7D3FFF756FF70BD00002800002011
:1006300006480168C90601D5102103E00168490692
:1006400002D5402141600069704700004020004011
:10065000F3B51120224D81B040060E46A860681403
:10066000686100201F4A01461154401C0828FBDB2A
:1006700028680124E40620432860082219492846F6
:1006800000F001F92868A04328602869C008C0006C
:100690002861154C2068800880002060E068800890
:1006A0008000E060284600F07EF9002706E001980F
:1006B00039030918284600F060F97F1CB742F6D3C9
:1006C000206880088000401C2060E068800880006E
:1006D000401CE06001204003A86100036860FEBD8B
:1006E000000001402000002080100040F8B50D46B9
:1006F000064611212848490614468160411441618B
:100700000021264B0A465A54491C0829FBDB224F7C
:100710003868F9020843386008222049384600F05A
:10072000B2F83868F902884338603869C008C000F8
:1007300038611B480168890889000160C16889081F
:100740008900C160384600F02EF9E9B2B815471AA1
:10075000BC4200D8A7B23B462A4631460E4800F0BC
:1007600085F9BC4207D0F619ED19E41BFF270137C4
:10077000BC42F0D8EEE70A48016889088900491CA4
:100780000160C16889088900491CC16041140248A0
:10079000816141024160F8BD00000140200000205D
:1007A0008010004001B5009801E0401E0090002834
:1007B000FBD108BD02490A6A1201FCD508617047E5
:1007C0004020004002480168491C01607047000059
:1007D000E000002010B5002302E0C45CCC545B1C98
:1007E0009342FAD310BD0000014800687047000032
:1007F000E00000200246881A914200D2401E704755
:10080000F7B5002483B015460E46970815E004207E
:10081000019080060090801002906946039800F0D5
:1008200080F80121039800F0A3F80128F9D003987B
:10083000006CA100641C7050A4B2A742E7D8AD07B9
:10084000AD0F1DD00120000700908010029001958F
:100850006946039800F065F80121039800F088F8D4
:100860000128F9D00398006CA1007054012D02D921
:10087000020A8B195A70022D02D9000C891988704E
:10088000002006B0F0BDF7B5002483B0164605463B
:1008900097081BE004200190800600900020029041
:1008A0006946284600F03DF80498A10040582864A5
:1008B0002021284600F05CF80028F9D001212846C4
:1008C00000F056F80128F9D0641CA4B2A742E1D880
:1008D000B607B60F22D001200007009000202F4657
:1008E0000290403701966946284600F01AF8002029
:1008F000A10005E00B18049A401CD25C3A7080B24B
:10090000B042F7D32021284600F032F80028F9D071
:100910000121284600F02CF80128F9D0002006B06B
:10092000F0BD10B50268520102D501239B0600E01C
:1009300000234A68026701248A6864079A420368B0
:100940000BD109681B0104D511430522D2061143BE
:1009500001E011430AE0016010BD09681B0102D5E6
:1009600011430122D2061143016001682143F2E7DD
:10097000006D084000D00120704770B50E46044657
:1009800000F098F820680125ED06284320603246E3
:100990002021204600F05AF82068A8432060204615
:1009A00000F0BAF870BD1CB501216A460446117109
:1009B000117000F07FF8204600F010F86A461071C0
:1009C000204600F027F86A4610701179C32012788B
:1009D0000140204600F082F81CBD000070B50446BE
:1009E00000680125ED0628432060094E052030707F
:1009F000012231462046FFF746FF042231462046B9
:100A0000FFF7FEFE2068A8432060307870BD00002C
:100A10001800002070B5044600680125ED06284343
:100A20002060094E35203070012231462046FFF704
:100A30002AFF042231462046FFF7E2FE2068A84341
:100A40002060307870BD00001800002000B5064B13
:100A50001970110C5970110A9970DA700422194634
:100A6000FFF711FF00BD000018000020FFB581B0A6
:100A70000F4604460120694616460870204600F0DD
:100A800019F820680125ED0628432060324602212E
:100A90002046FFF7DBFF39462046049AFFF7F3FEB6
:100AA0002068A8432060204600F036F8049805B07E
:100AB000F0BD000030B5044600680125ED0628436E
:100AC000206005490620087001222046FFF7DBFE62
:100AD0002068A843206030BD18000020F0B51646FD
:100AE0000F460446FFF7E6FF20680125ED06284380
:100AF000206008480121017047708670014603227A
:100B00002046FFF7C0FE2068A8432060204600F082
:100B100003F8F0BD180000203CB5054601206946E9
:100B200008717D24E40009E02846FFF757FF694675
:100B3000087121460094491E0091FCD16846007955
:100B4000C007F1D13CBD000005020000FD0300001C
:100B5000250200000D0300005102000061030000A7
:100B60000348854600F006F80048004701AA000047
:100B7000A87A0020064C0125064E05E0E36807CC64
:100B80002B430C3C98471034B442F7D3FFF7ECFFEB
:100B9000B80B0000D80B000002E008C8121F08C103
:100BA000002AFAD170477047002001E001C1121FEE
:100BB000002AFBD170470000D4E6010000000020AD
:100BC000980200009C13000088E7010098020020B2
:100BD00010780000A80B000030B50B46014600203D
:100BE0002022012409E00D46D5409D4205D31D4633
:100BF0009540491B2546954040191546521E002D2B
:100C0000F1DC30BD70B500242546002801DA01244E
:100C10004042002901DA01254942FFF7DDFFAC42DD
:100C200000D04042002C00D0494270BD10B5441A9B
:100C30000346944209D28318891803E0491E0C78B0
:100C40005B1E1C70521EF9D210BD0C460443A40753
:100C500003D009E010C9121F10C3042AFAD203E01E
:100C60000C781C70491C5B1C521EF9D210BDD2B20C
:100C700001E00270401C491EFBD270470022F6E7DB
:100C800010B513460A4604461946FFF7F0FF204602
:100C900010BD421C0178401C0029FBD1801A70470E
:100CA0000321001D401E037812021A43491EF9D584
:100CB00010467047034603220870000A491C521E62
:100CC000FAD518467047F8B502464A40D40F42009C
:100CD0004B0052085B089A4202D20246084611466F
:100CE0004A0023D0C30D4A00DDB2120EAD1A202DEA
:100CF00035DA49020126490AF6058A19002C00D086
:100D0000524220214F1B1146B9402A411018C20DF2
:100D10009A4221D0002C17D0012D08DCDA05801A68
:100D2000D20F8019D207DBB200F0A0FAF8BDDA05C5
:100D3000801A012340001B06C01880185A428018F0
:100D4000CA0F1043490007E04908C2071143DA05FA
:100D5000801A80194008801800F080FAF8BD610000
:100D60000122511A001BF7E70122D2075140AAE7DE
:100D70000122D2075040A6E7024670B54A40D30F81
:100D8000DB0740002DD04A002AD0010E140E0002CD
:100D900012020919400A520A8418E5010446544314
:100DA000000A120A2E045043A4194219200CC5430C
:100DB000AA18120C0125AD03521C521912047F39D6
:100DC000240400D0521C104301D44000491EC2B27A
:100DD0000C06C0092018401C4008802A02D003E0FD
:100DE000002070BD40084000002900DA00201843B0
:100DF00070BD70B502464A40D50F40004A00ED076D
:100E000040085208002814D0002A12D0C40DD30D77
:100E100041020120C0055202490A520AE41A091887
:100E200012187D34914201D3641C00E04900002C6B
:100E300001DA002070BD0023914201D3891A0343D7
:100E4000400849000028F7D100290AD0914202D178
:100E50000121C90705E0914201D2012101E00121F0
:100E6000C943E005C018401900F0F8F970BD000052
:100E7000F0B507460846584087B0C00F04904800B8
:100E80000E46590040084908BC1A884105D2384628
:100E900031461E4617460B4602465800400810438E
:100EA0004CD0300D039040055900400D490D059080
:100EB000401A0290402872DA18030121000B09053C
:100EC0000843019004980092002805D001995242ED
:100ED0000020884100920190029840210A1A01994D
:100EE000009800F087F905460C466B4607CB00F0EA
:100EF000A2F9C0197141039A0E0D0023D71756406D
:100F00001A467A40164344D0049A002A2DD0029AF9
:100F1000012A039A15DC1205C01A914101263605F3
:100F2000001C7141D20F059ED207009301920296D8
:100F30002A46234600F0E0F907B0F0BD38463146B6
:100F4000FAE71605224A0F46B218C01AB741012126
:100F50000905001C4F4100187F41114618187941BE
:100F6000E20F10436D19644113E0E2076D08154369
:100F70006408C2071443039A01261205C01A91415E
:100F80003605001C7141CE07400830434908C0189F
:100F900051412A46234600F0A2F9CDE7FFE7049825
:100FA00001224000C117121A00238B4104983146D8
:100FB000C417381AA141EEE730B40124E4076340B6
:100FC00030BC55E730B40124E407614030BC4FE742
:100FD0000000E0FF70B54B005B0803430BD04B00F3
:100FE0005C0D002633466542B341D417AD1AA341C8
:100FF00002DB0020014670BD12053018514170BD62
:10100000C217C10F504010B54018CA0796230021DF
:1010100000F02CF910BD10B500229623114600F007
:1010200025F910BD0EB5C217C10F5040CA074018B0
:101030000021054B0293019200910A460B4600F0F5
:101040005BF903B000BD0000330400000EB5054994
:101050000291002100910A460B46019100F04CF9E3
:1010600003B000BD33040000C20F41004002012361
:10107000400ADB05D207090EC0187F2901DA0020DB
:101080007047962903DC9623591AC84001E0963927
:101090008840002AF4D040427047410040020122BB
:1010A000400AD205090E80187F2901DA0020704716
:1010B000962903DC9622511AC84070479639884019
:1010C0007047000070B5CD0F4A0009030123090BDA
:1010D0001B0519430B4BED070024520D9A4201DA10
:1010E000002070BD074B34339A4203DC9A1A00F09B
:1010F00091F802E00449511888402C43F1D0404255
:1011000070BD0000FF030000CDFBFFFFC20FD20740
:10111000400040080BD0C10D0723DB01C918400275
:101120000905400A1143C2084007114370470020D7
:1011300001467047CB0FDB07490010B5490802464E
:101140000A4307D00A0D07240903E401090B121B07
:10115000002A01DC002010BDC900440F0C43C1006F
:10116000E018D205801800F079F810BD0122D207EE
:10117000002800DB101A002900DB511A8142704759
:101180000122D207002800DB101A002900DB511AC7
:1011900088427047F0B51FB40646002082B005466D
:1011A0004024019100901BE0019922460F463046F1
:1011B00000F030F8049A059B801A994110D310462C
:1011C0001946224600F016F8361A8F41019722463A
:1011D00001200021009F00F00DF838184D410090CB
:1011E0002046641E0028DFDC019B00982946324619
:1011F00007B0F0BD10B5202A04DB0146203A91402B
:10120000002010BD914020239C1A0346E34019435F
:10121000904010BD10B5202A04DB0846203AD0408B
:10122000002110BD0B46D340D0402024A21A91408B
:101230000843194610BD10B5202A06DBCB17084617
:10124000203A1041C1170B4306E00B461341D04032
:101250002024A21A91400843194610BD002904DA3F
:10126000401C490001D140084000704770B4002480
:10127000050C05D11024000402D1002921D011242D
:10128000050E01D100020834050F01D10001241D13
:10129000850F01D18000A41C002801DB4000641CE4
:1012A000002908D020252E1B0D46F540A14000D076
:1012B00001212943084301061B1B000ADB1D02D53F
:1012C000002070BC7047DB05181880180029F8DA78
:1012D000401C4900F5D170BC40084000704710B573
:1012E000002B08DA0024401C614192185B411A432C
:1012F00001D14008400010BDF0B51FB482B00546D2
:101300000C0003D0084607F0C1FC02E007F0BEFC69
:1013100020300246009021462846FFF76BFF049BD1
:10132000059A04460F4618431143084314D0184643
:1013300010431BD0009840210A1A18460599FFF760
:1013400069FF05460E46009A05990498FFF752FF7B
:10135000084305D0012004E02046394607B0F0BD1F
:101360000020C11705430E432C43374300990E98C4
:101370006305401A7905E40A00220C43FD0A0A308D
:1013800002D500200146E9E70105101969410C9CCE
:101390000D9D00196941FFF7A2FFDFE770B58C18BA
:1013A0000578401C6B075B0F01D10378401C2A11A4
:1013B00006D10278401C03E006780E70401C491CE0
:1013C0005B1EF9D12B0705D40023521E0DD40B70E0
:1013D000491CFAE70378401CCB1A921C03E01D78E5
:1013E0000D70491C5B1C521EF9D5A142D8D30020B8
:1013F00070BD000070B5454808F052F843482630EB
:1014000008F04EF841485A3008F04AF83F488E300C
:1014100008F046F83D48C23008F042F83B48F63044
:1014200008F03EF83A4808F03BF839482F3008F009
:1014300037F837485E3008F033F83548923008F016
:101440002FF8344808F02CF832487C3808F028F897
:101450003048483808F024F82E48243808F020F89E
:101460002C48343008F01CF82A484F3008F018F89F
:1014700028486A3008F014F82648853008F010F83B
:101480002448A03008F00CF82248BB3008F008F8D7
:101490002048D63008F004F8214C1FA20421204631
:1014A00007F0E0FF651C1FA20421284607F0DAFFC1
:1014B000261D1EA20421304607F0D4FF1D4A611EDE
:1014C000012008F0F7F91C4AA11C022008F0F2F9EB
:1014D0001A4AE11C022008F0EDF9194A21460120C0
:1014E00008F0E8F9174A3146012008F0E3F9164AF6
:1014F0002946012008F0DEF9144AF11D032008F006
:10150000D9F913490020487170BD0000564E010002
:10151000804F0100C2500100C4A3CABD00000000FA
:101520000B200000B7E7CFF200000000B7E7C1A62C
:1015300000000000451B0000591500006D1500005B
:10154000811500005D17000019160000F517000056
:10155000900000200020704710B50021024808F0DC
:10156000A9FA002010BD00000E20000010B50021D7
:10157000024808F09FFA002010BD00000D20000076
:1015800070B51F4C1F4DA078002806D001280FD041
:1015900002281ED003281AD126E00F21284608F081
:1015A0002BFA17492846083107F0DEFF012009E031
:1015B0001021284608F020FA11492846083107F082
:1015C000D3FF0220A07021890FA007F03BFB002071
:1015D00070BD1121284608F00FFA09492846083144
:1015E00007F0C2FF0320EDE70E21284608F004FAB9
:1015F00003492846083107F0B7FF0020E2E7000062
:1016000090000020102000004D6F64655049435F3A
:1016100049443A25640D0A00F8B54A494A4807F09A
:10162000C5FF48494848091D401C07F0BFFF454C0D
:1016300001250C3CE06802260327002841D02179CF
:10164000002906D0012911D002291CD0032938D144
:1016500026E03D483021401D08F0CEF939493A488E
:10166000091F401D07F080FF257126E03648312113
:10167000401D08F0C1F933493348091F401D07F0E8
:1016800073FF267119E030483221401D08F0B4F98B
:101690002C492D48091F401D07F066FF27710CE0FB
:1016A00029483321401D08F0A7F926492648091F7B
:1016B000401D07F059FF00202071218923A007F069
:1016C000C1FA206900283BD01F482179001D00295C
:1016D00006D001290FD0022918D0032930D120E0EB
:1016E0002C21064608F088F916493046091F07F0F4
:1016F0003BFF257120E02D21054608F07DF91149B9
:101700002846091F07F030FF267115E02E210546F7
:1017100008F072F90B492846091F07F025FF2771C9
:101720000AE02F21054608F067F906492846091FF7
:1017300007F01AFF00202071218904A007F082FA27
:101740000020F8BD9C0000200D2000004D6F646556
:101750005049435F49443A25640D0A0070B51F4C57
:101760001F4DE078002806D001280FD002281ED097
:1017700003281AD126E02921284608F03DF9174907
:101780002846083107F0F0FE012009E02A2128460A
:1017900008F032F911492846083107F0E5FE022029
:1017A000E07021890FA007F04DFA002070BD2B21B9
:1017B000284608F021F909492846083107F0D4FEE7
:1017C0000320EDE72821284608F016F903492846AA
:1017D000083107F0C9FE0020E2E700009000002079
:1017E000132000004D6F64655049435F49443A251A
:1017F000640D0A0010B52D4C6079642806D00028CD
:1018000018D0A179002903D0401C02E00021A17169
:10181000401E60710A21C0B2FFF7DEF920706170CE
:10182000234A030007F049FA0A090B1B1D1F212355
:101830002527290F0121A171E6E7552100E0562156
:10184000104608F0D9F8617819480B00401E07F0DF
:1018500034FA0A16181D1F21232527292B1B57216F
:10186000EEE75821ECE75921EAE75A21E8E75B2146
:10187000E6E75C21E4E75D21E2E75E21E0E74B215A
:1018800000E04C2108F0B8F8002010BD4D21F9E728
:101890004E21F7E74F21F5E75021F3E75121F1E71A
:1018A0005221EFE75321EDE75421EBE790000020B0
:1018B0001520000070B5154B0D1A1A88541EA5424C
:1018C00002DD411E511809B2814200DA0146DC688E
:1018D000944204D20EA007F0E9FD002070BD164C22
:1018E0009D68A5602161E0602046002124300180D0
:1018F000418021884A43521E82805A884A43521EA0
:10190000C28000F0A3F9012070BD00000400002097
:10191000546865204C43442063616368652070729D
:101920006F766964656420697320746F6F20736DCE
:10193000616C6C0D0A000000400200200146303945
:10194000092901D8C8B2704701464139192902D87E
:101950003738C0B2704720280FD024280FD0252850
:101960000FD02A280FD02B280FD02D280FD02E28AB
:101970000FD02F280FD02C2070472420704725200F
:10198000704726207047272070472820704729205D
:1019900070472A2070472B20704700001CB500209C
:1019A0006946009088806A4601A90D4807F0ECFD61
:1019B000009A002A12D06846808800280ED00021A4
:1019C00004E0535C002B03D0491C89B28142F8D358
:1019D000002903D00248801E07F044FD00201CBDF2
:1019E000038000001CB500206946009088806A468C
:1019F00001A90D4807F0C8FD009A002A12D06846D8
:101A0000808800280ED0002104E0535C002B03D016
:101A1000491C89B28142F8D3002903D00248C01E74
:101A200007F020FD00201CBD048000001CB5002034
:101A30006946009088806A4601A90D4807F0A4FD18
:101A4000009A002A12D06846808800280ED0002113
:101A500004E0535C002B03D0491C89B28142F8D3C7
:101A6000002903D00248001F07F0FCFC00201CBD29
:101A70000580000010B50E4807F012FD0C48263016
:101A800007F00EFD0A48553007F00AFD094A0A49D9
:101A9000032007F00FFF0849084A491E012007F0FC
:101AA00009FF0748012101704170002010BD0000AE
:101AB0005E5C0100C91A000063120000D51B000023
:101AC000DC0000200020704770B5164C164D617880
:101AD000284607F081FF60780026401CC0B2607085
:101AE000172800D366702078002806D0012806D079
:101AF00002280FD0032806D10EE07E2100E07F21CE
:101B0000284607F079FF2078401CC0B220700428D6
:101B100004D004E08021F3E78121F1E72670002062
:101B200070BD0000DC0000206212000010B5034A06
:101B30000349012007F03EFE002010BDB9670000F8
:101B40003569000010B5034A0349012007F032FE51
:101B5000002010BDB96700003569000010B5034AC8
:101B60000349012007F026FE002010BDB9670000E0
:101B70003569000010B5034A0349012007F01AFE39
:101B8000002010BDB96700003569000010B5034A98
:101B90000349012007F00EFE002010BDB9670000C8
:101BA0003569000010B5034A0349012007F002FE21
:101BB000002010BDB96700003569000010B5034A68
:101BC0000349012007F0F6FD002010BDB9670000B1
:101BD0003569000010B5034A0349012007F0EAFD0A
:101BE000002010BDB967000035690000010909290E
:101BF00000D909210A2200075143000F092800D902
:101C000009200818C0B2704710B54943541A036838
:101C1000914202DB0021016010BD5B1C1946594353
:101C2000A142FADB5B1E036010BD70B5054664215E
:101C3000FEF7D2FF08460A21FEF7CEFF04010A2173
:101C40002846FEF7C9FF6018C0B270BD10B5084C39
:101C50002169E0680A1A07480021C368521CA0687D
:101C6000984705496161880CE161A06110BD0000E1
:101C700040020020D045010001C0FFFFF8B506007A
:101C800016D00C4D34680EE02068002803D0696837
:101C9000002900D0884768686768002802D001469C
:101CA000204688473C46002CEED100203060706012
:101CB000F8BD0000D0450100F8B5002003460090B3
:101CC000D548C1692CE00022081F864625E035254D
:101CD0001C4601206C438446D04D501C65191124CC
:101CE00011E0AE5C264201D1012700E000272E5C06
:101CF000264201D1012600E00026B74205D1664602
:101D0000761CB446401C8842EBDB6246052A03DBA6
:101D1000009CA218921E009202467245D7DB5B1C03
:101D20008B42D0DB00222EE00024081F844627E0EF
:101D3000601C35256C43B94D01236419A646112456
:101D400015E07546AD5C254201D1012700E0002772
:101D5000352605467543B14EAD19AD5C254201D11E
:101D6000012500E00025AF4203D1401C5B1C8842E6
:101D7000E7DB052B03DB009CE3189B1E0093044666
:101D80006445D5DB521C8A42CEDB00244B1E36E074
:101D9000002031E0352225465543A04AAE18355C77
:101DA000112215402FD000273618B4462036B646EB
:101DB000767D164201D1012600E00026B7421AD1F5
:101DC000002D22D0002667467F78174201D10127D7
:101DD00000E00027BE420ED1002D18D00026754627
:101DE000AD7D154201D1012200E00022964202D1D0
:101DF000009AD21C0092401C9842CBDB641C9C428F
:101E0000C6DB002267E00127CEE70126DBE70126DB
:101E1000E5E700208D1F5BE0002809D035237F4CCB
:101E200053431B191B18203BDC7F11231C424ED14E
:101E3000352314465C43794BE418265C11231E427B
:101E400045D0241866781E4241D1A6781E423ED065
:101E5000E6781E423BD026791E4238D066791E4273
:101E600035D1A6791E4232D0CE1FB04202D0E679DB
:101E70001E422CD1022804DB2646203EB67F1E429D
:101E80000DD1032804DB2646203E767F1E4206D174
:101E9000042819DB2646203E367F1E4214D00E460B
:101EA000083EB04202DA267A1E4210D10E46093EA2
:101EB000B04202DA667A1E4209D10E460A3EB042AC
:101EC00002DAA47A1C4202D1009B28330093401C02
:101ED000A842A1DB521C8A429BDB002272E0002058
:101EE0008C1F6CE0002809D035234C4D43435B190F
:101EF0009B18403BDD7A11231D425FD135230546F7
:101F00005D43464BEB189E5C11252E4256D09B1824
:101F10003526F65C2E4251D16A26F65C2E424DD013
:101F20009F26F65C2E4249D0D426F65C2E4245D040
:101F3000FF260A36F65C2E4240D1FF263F36F65C7D
:101F40002E423BD0CE1FB04204D0FF267436F65C42
:101F50002E4233D102282EDB1E46803EB67D2E4215
:101F60000DD1032827DB1E46A03E76782E4206D1EF
:101F7000042820DB1E46E03E367B2E421BD00E4658
:101F8000083EB04204DAFF26A936F65C2E4215D18F
:101F90000E46093EB04204DAFF26DE36F65C2E42DB
:101FA0000CD10E460A3EB04205DAFF33FF3302334E
:101FB0009B7C2B4202D1009B28330093401CA04203
:101FC00090DB521C8A428ADB00200246134F112408
:101FD0000DE03526154600237543ED1904E0EE5C4F
:101FE000264200D1401C5B1C8B42F8DB521C0B4686
:101FF0008A42EEDB642259435043FEF703FE32214E
:10200000081A00D540420521FEF7FCFD0A2148438D
:1020100000994018F8BD000008010020A816002013
:10202000F3B581B03422BE49BE48FEF7FFFDBD4D79
:1020300001986871000AA87102982C46BA30009085
:10204000E071000A207222276F720020A872E772E6
:102050002073B548B64E0088E075000A2076B34874
:1020600000886876000AA8763088E076000A207733
:1020700030886877000AA877204607F011FAAD4A41
:10208000AD49012007F016FCACA20521AA4807F0D3
:10209000F3FCA349342234312046FEF7C7FD0198F2
:1020A00027306871000AA8710098E071000A207258
:1020B0006F72380AA872E772380A20739A4800884B
:1020C000E075000A2076994800886876000AA876AC
:1020D0003088E076000A207730886877000AA87791
:1020E000204607F0DDF99449964A491C012007F083
:1020F000E1FB914894A20521401C07F0BDFC8849F2
:10210000342268312046FEF791FD01984E30687107
:10211000000AA8710098E071000A20726F72380AF4
:10212000A872E772380A20737F480088E075000AB9
:1021300020767E4800886876000AA8763088E076A7
:10214000000A207730886877000AA877204607F0D1
:10215000A7F979497E4A891C012007F0ABFB764834
:102160007CA20421801C07F087FC6D4934229C313D
:102170002046FEF75BFD019875306871000AA87172
:102180000098E071000A20726F72380AA872E77234
:10219000380A207364480088E075000A2076634896
:1021A00000886876000AA8763088E076000A2077F2
:1021B00030886877000AA877204607F071F95E49F1
:1021C000654AC91C012007F075FB5B4863A2032127
:1021D000C01C07F051FC342261492046FEF726FD61
:1021E00001989C3000906871000AA87102984E30E6
:1021F000E071000A20726F72380AA872E772380A1A
:10220000207349480088E075000A20764748008816
:102210006876000AA8763088E076000A2077308851
:102220006877000AA877204607F03AF942494D4AF4
:10223000891D012007F03EFB3F484BA20521801D70
:1022400007F01AFC4649342234392046FEF7EEFCEA
:1022500000986871000AA87102987230E071000A53
:1022600020726F72380AA872E772380A20732E48FB
:102270000088E075000A20762C4800886876000AFD
:10228000A8763088E076000A207730886877000AE0
:10229000A877204607F004F92749354A491D01204F
:1022A00007F008FB244833A20521401D07F0E4FB9A
:1022B0002B49342268392046FEF7B8FC0098687133
:1022C000000AA87102989630E071000A20726F72BD
:1022D000380AA8724620E072002020731248008855
:1022E000E075000A2076114800886876000AA87612
:1022F0003088E076000A207730886877000AA8776F
:10230000204607F0CDF80C4C1C4A241D2146012024
:1023100007F0D0FA1AA20521204607F0ADFBFEBD5A
:10232000DE860100E62500203C460100384601001B
:102330003A46010091A6000020800000B7FBBAC514
:102340000000000011A60000CAFDD7D60000000062
:1023500065A6000053706100ADA60000D6D0000055
:1023600016880100A5A50000C9BEB3FD000000004D
:102370006DA50000B7B5BBD8000000002DA6000079
:10238000C8B7B6A800000000F3B50E4681B03422ED
:1023900054495548FEF74AFC0198534D903000903F
:1023A0006871000AA87130465A302C46E071000A64
:1023B00020722A2068720020A8722A20E072002071
:1023C00020734A484B4F0088E075000A2076484841
:1023D00000886876000AA8763888E076000A2077B8
:1023E00038886877000AA877204607F059F8424AEB
:1023F0004249012007F05EFA41A205213F4807F05B
:102400003BFB3849342234312046FEF70FFC00985C
:102410006871000AA87130468630E071000A2072A7
:102420002A2068720020A8725620E07200202073D3
:102430002E480088E075000A20762D4800886876CE
:10244000000AA8763888E076000A2077388868770E
:10245000000AA877204607F023F828492A4A491C91
:10246000012007F027FA254828A20521401C07F083
:1024700003FB1C49342234392046FEF7D7FB019870
:10248000B23630306871000AA871E671300A2072E5
:102490005A2068720020A8722A20E072002020735F
:1024A00012480088E075000A207611480088687696
:1024B000000AA8763888E076000A2077388868779E
:1024C000000AA877204606F0EBFF0C4C114A641E68
:1024D0002146012007F0EEF90FA20521204607F062
:1024E000CBFAFEBD128B0100722600203C46010093
:1024F000384601003A46010089A500002580000009
:10250000B7B5BBD800000000FDA50000C9BEB3FDF3
:102510000000000049A60000C8B7B6A800000000EF
:10252000F3B587B03422FE49FE48FEF77FFBFD4D30
:1025300007986871000AA87108982C464E300290DE
:10254000E071000A207222266E720020A872E672E4
:102550002073F548F64F0088E075000A2076F348AE
:1025600000886876000AA8763888E076000A207726
:1025700038886877000AA877204606F091FFED4A70
:10258000ED49012007F096F9E5493422343120461F
:10259000FEF74CFB0798273005906871000AA87178
:1025A0000298E071000A20726E72300AA872E67218
:1025B000300A2073DC480088E075000A2076DB488A
:1025C00000886876000AA8763888E076000A2077C6
:1025D00038886877000AA877204606F061FFD64958
:1025E000D64A491C012007F065F9CD4934226831EB
:1025F0002046FEF71BFB07984E3004906871000AD6
:10260000A8710298E071000A20726E72300AA872F6
:10261000E672300A2073C4480088E075000A20760C
:10262000C24800886876000AA8763888E076000AF2
:10263000207738886877000AA877204606F030FFB0
:10264000BD49BF4A891C012007F034F9B44934223E
:102650009C312046FEF7EAFA0798753003906871BE
:10266000000AA8710298E071000A20726E72300AA6
:10267000A872E672300A2073AB480088E075000A41
:102680002076AA4800886876000AA8763888E0761E
:10269000000A207738886877000AA877204606F075
:1026A000FFFEA549A74AC91C012007F003F99C4970
:1026B0003422D0312046FEF7B9FA07986871000A33
:1026C000A871089872300290E071000A20726E7250
:1026D000300AA872E672300A207393480088E075C9
:1026E000000A2076914800886876000AA876388823
:1026F000E076000A207738886877000AA8772046B5
:1027000006F0CEFE8C49904A091D012007F0D2F850
:1027100034228E492046FEF789FA05986871000A2E
:10272000A8710298E071000A20726E72300AA872D5
:10273000E672300A20737C480088E075000A207633
:102740007A4800886876000AA8763888E076000A19
:10275000207738886877000AA877204606F0A0FE20
:1027600075497B4A491D012007F0A4F877493422B6
:1027700034312046FEF75AFA04986871000AA871AD
:102780000298E071000A20726E72300AA872E67236
:10279000300A207364480088E075000A2076634898
:1027A00000886876000AA8763888E076000A2077E4
:1027B00038886877000AA877204606F071FE5E49DF
:1027C000644A891D012007F075F860493422683198
:1027D0002046FEF72BFA03986871000AA871029848
:1027E000E071000A20726E72300AA872E672300A36
:1027F00020734D480088E075000A20764B48008819
:102800006876000AA8763888E076000A207738884B
:102810006877000AA877204606F042FE46494E4AED
:10282000C91D012007F046F8484934229C31204652
:10283000FEF7FCF907986871000AA87108989630AD
:102840000290E071000A20726E72300AA872E6727D
:10285000300A207334480088E075000A2076334837
:1028600000886876000AA8763888E076000A207723
:1028700038886877000AA877204606F011FE2E49AE
:10288000364A0831012007F015F830493422D0319A
:102890002046FEF7CBF905986871000AA8710298E6
:1028A000E071000A20726E72300AA872E672300A75
:1028B00020731D480088E075000A20761B480088B8
:1028C0006876000AA8763888E076000A207738888B
:1028D0006877000AA877204606F0E2FD1649204AEC
:1028E0000931012006F0E6FF34221E492046FEF79A
:1028F0009DF904986871000AA8710298E071000AB5
:1029000020726E72300AA872E672300A207306488E
:102910000088E075000A207604480088687623E085
:102920006E840100E62500203C4601003846010087
:102930003A460100219B000008800000C99B00006E
:10294000C59C0000C19D0000BD9E00007285010075
:102950005D9F000059A0000055A1000051A2000099
:10296000F1A2000076860100000AA8763888E07699
:10297000000A207738886877000AA877204606F092
:102980008FFD1A4A1A49012006F094FF3422194992
:102990002046FEF74BF903986871000AA871029867
:1029A000E071000A20726E72300AA872E672300A74
:1029B000207311480088E075000A20760F480088CF
:1029C0006876000AA8763888E076000A207738888A
:1029D0006877000AA877204606F062FD0449084A95
:1029E000491C012006F066FF09B0F0BDA9A3000054
:1029F00012800000AA8601003C4601003846010012
:102A000071A40000F3B583B03422FE49FE48FEF7FE
:102A10000DF9FD4D03986871000AA87104982C46C1
:102A20002E300290E071000A20722A266E72002079
:102A3000A872E6722073F548F64F0088E075000A28
:102A40002076F34800886876000AA8763888E07611
:102A5000000A207738886877000AA877204606F0B1
:102A60001FFDED4AED49012006F024FFECA20221F2
:102A7000EA4807F001F8E349342234312046FEF7F2
:102A8000D5F80398303001906871000AA871029857
:102A9000E071000A20726E72300AA872E672300A83
:102AA0002073DA480088E075000A2076D84800884C
:102AB0006876000AA8763888E076000A2077388899
:102AC0006877000AA877204606F0EAFCD349D54A81
:102AD000491C012006F0EEFED048D3A20221401C82
:102AE00006F0CAFFC749342268312046FEF79EF837
:102AF0000398603000906871000AA8710298E07134
:102B0000000A20726E72300AA872E672300A2073D0
:102B1000BE480088E075000A2076BD4800886876C7
:102B2000000AA8763888E076000A20773888687727
:102B3000000AA877204606F0B3FCB849BB4A891CB6
:102B4000012006F0B7FEB548B9A20221801C06F0AC
:102B500093FF3422B7492046FEF768F80398903077
:102B60006871000AA8710298E071000A20726E7202
:102B7000300AA872E672300A2073A4480088E07513
:102B8000000A2076A24800886876000AA87638886D
:102B9000E076000A207738886877000AA877204610
:102BA00006F07EFC9D49A44A0A31012006F082FE0F
:102BB0009A48A2A202210A3006F05EFF914934220F
:102BC0009C312046FEF732F803986871000AA8711C
:102BD00004985A300290E071000A20726E72300A36
:102BE000A872E672300A207388480088E075000AEF
:102BF0002076874800886876000AA8763888E076CC
:102C0000000A207738886877000AA877204606F0FF
:102C100047FC82498A4AC91C012006F04BFE7F48C6
:102C200088A20221C01C06F027FF76493422D03149
:102C30002046FDF7FBFF01986871000AA871029811
:102C4000E071000A20726E72300AA872E672300AD1
:102C500020736E480088E075000A20766C48008872
:102C60006876000AA8763888E076000A20773888E7
:102C70006877000AA877204606F012FC6749724A76
:102C8000091D012006F016FE644870A20221001DF5
:102C900006F0F2FE34226E492046FDF7C7FF009889
:102CA0006871000AA8710298E071000A20726E72C1
:102CB000300AA872E672300A207354480088E07522
:102CC000000A2076524800886876000AA87638887C
:102CD000E076000A207738886877000AA8772046CF
:102CE00006F0DEFB4D495B4A491D012006F0E2FD7E
:102CF0004A4859A20221401D06F0BEFE5449342222
:102D000034312046FDF792FF03986871000AA871DC
:102D1000049886300290E071000A20726E72300AC8
:102D2000A872E672300A207338480088E075000AFD
:102D30002076374800886876000AA8763888E076DA
:102D4000000A207738886877000AA877204606F0BE
:102D5000A7FB3249414A891D012006F0ABFD2F48EF
:102D60003FA20221801D06F087FE394934226831D6
:102D70002046FDF75BFF01986871000AA871029870
:102D8000E071000A20726E72300AA872E672300A90
:102D900020731E480088E075000A20761C480088D1
:102DA0006876000AA8763888E076000A20773888A6
:102DB0006877000AA877204606F072FB1749294A6F
:102DC000C91D012006F076FD144827A20221C01D6E
:102DD00006F052FE1749342268392046FDF726FFD7
:102DE00000986871000AA8710298E071000A2072C8
:102DF0006E72300AA872E672300A207303480088A7
:102E0000E07533E0A2880100722600203C460100F4
:102E1000384601003A460100959B000008800000FA
:102E200031000000919C0000320000008D9D0000E8
:102E300033000000AA8A010039A500002E0000001E
:102E4000899E000034000000299F0000350000002A
:102E5000A689010025A000003600000021A1000085
:102E6000370000001DA2000038000000000A207694
:102E7000284800886876000AA8763888E076000A34
:102E8000207738886877000AA877204606F008FB84
:102E9000214A2249012006F00DFD21A202211F48EE
:102EA00006F0EAFD34221F492046FDF7BFFE0398D5
:102EB0006871000AA8710498B230E071000A2072AB
:102EC0006E72300AA872E672300A207316480088C3
:102ED000E075000A20760F4800886876000AA87618
:102EE0003888E076000A207738886877000AA87763
:102EF000204606F0D5FA094C0C4A641C21460120F4
:102F000006F0D8FC0AA20221204606F0B5FD05B065
:102F1000F0BD000038460100BDA200001080000096
:102F200039000000768A01003C460100ED9A00005D
:102F300030000000F8B506463C480188BE2901D2A1
:102F40003BA003E04088DC2804D240A006F0AEFAA3
:102F50000120F8BD444AC90389180D0C4349C00338
:102F60004018040C262242494248FDF75FFE4148C2
:102F7000290A45718171C471210A01723E48018894
:102F80003C488173090AC17306F08AFA3849394806
:102F9000322226312630FDF749FE3648290A2630EE
:102FA000457181710146CC71220A0A72BE224272B9
:102FB000002282723020C872304F2E480A7339883E
:102FC00048300170090A41702D480188294826308F
:102FD0008175090AC1752B4909880176090A41766C
:102FE00006F05EFA2848002E1DD03A880021521EB5
:102FF00004E0735C002B03D0491C89B29142F8DBDA
:10300000324606F039FD2146284600F0FDF82146FB
:103010002846FFF785FA21462846FFF701F804F015
:10302000AFFC0020F8BD08A20121EAE7040000205F
:103030006C636420776964746820696E7375666672
:10304000696369656E740D0A000000006C6364209A
:1030500068656967687420696E7375666669636917
:10306000656E740D0A0000000000A1FF000092FFD1
:10307000E08201008E250020364601003446010022
:10308000384601003A46010001800000F8B50646C6
:1030900039480188BA2901D238A003E04088DC28E9
:1030A00004D23DA006F002FA0120F8BD414AC9034E
:1030B00089180D0C4049C0034018040C26223F49D2
:1030C0003F48FDF7B3FD3E48290A45718171C4713F
:1030D000210A01723B48018839488173090AC1738A
:1030E00006F0DEF935493648322226312630FDF722
:1030F0009DFD3348290A2630457181710146CC7106
:10310000220A0A72BA224272002282722020C872F7
:103110002D4F2B480A73398848300170090A4170D5
:103120002A480188264826308175090AC175284930
:1031300009880176090A417606F0B2F92548002E81
:1031400017D03A880021521E04E0735C002B03D094
:10315000491C89B29142F8DB324606F08DFC2146CB
:103160002846FFF74FFC21462846FFF70DF90020BF
:10317000F8BD08A20121F0E7040000206C63642080
:10318000776964746820696E7375666669636965DA
:103190006E740D0A000000006C6364206865696746
:1031A000687420696E73756666696369656E740D0F
:1031B0000A0000000000A3FF000092FF4A880100FF
:1031C0001A26002036460100344601003846010028
:1031D0003A4601000180000070B50A4C00252068C5
:1031E00000280CD0014608208847050007D0E06879
:1031F000002804D003460822002128469847284684
:1032000070BD0000D0450100F8B50F4606463222D9
:10321000A249A348FDF70AFDA148310A4671817110
:1032200034370146CF713A0A0A723E2242720022B6
:1032300082721620C8729B480A730188984881756B
:10324000090AC175984909880176090A417606F08C
:1032500027F996A20121964806F00EFC8F49904866
:10326000342232313230FDF7E1FC8D4D30463235BB
:1032700040306871000AA8712C46E771380A207244
:10328000162068720020A8721620E07200202073B9
:1032900088480088E075000A2076824800886876B1
:1032A000000AA87680480088E076000A20777E48E9
:1032B00000886877000AA877204606F0F1F87C4875
:1032C0007AA20121401C06F0D7FB79497A4A491CB1
:1032D000012006F0EFFA7149342266312046FDF7ED
:1032E000A5FC30465A306871000AA871E771380AA7
:1032F0002072162068720020A8721620E07200204A
:1033000020736C480088E075000A207665480088C4
:103310006876000AA87664480088E076000A20777C
:10332000614800886877000AA877204606F0B8F858
:103330005F485EA20121801C06F09EFB5C495F4A4B
:10334000891C012006F0B6FA544934229A312046ED
:10335000FDF76CFC304674306871000AA871E771A3
:10336000380A2072162068720020A8721620E072B7
:10337000002020734F480088E075000A20764948F5
:1033800000886876000AA87647480088E076000A38
:103390002077454800886877000AA877204606F01D
:1033A0007FF8434841A20121C01C06F065FB40495B
:1033B000434AC91C012006F07DFA38493422CE3137
:1033C0002046FDF733FC30468E306871000AA87144
:1033D000E771380A2072162068720020A872162041
:1033E000E0720020207333480088E075000A2076E0
:1033F0002C4800886876000AA8762B480088E0767A
:10340000000A2077284800886877000AA8772046B5
:1034100006F046F826482BA20121001D06F02CFBE1
:103420002349294A091D012006F044FA342227497C
:103430002046FDF7FBFBA8366E71300AA871E771D4
:10344000380A2072162068720020A8721620E072D6
:103450000020207317480088E075000A2076114884
:1034600000886876000AA8760F480088E076000A8F
:1034700020770D4800886877000AA877204606F074
:103480000FF80B4C12A2641D0121204606F0F4FA3D
:10349000104A2146012006F00DFAF8BD38830100DC
:1034A000B4250020364601003A4601000000000025
:1034B000028000003C4601009D190000E519000053
:1034C0002D1A00003C0000001DAE00003A840100EF
:1034D0003E00000011AE000010B50121002000F0F8
:1034E0004BF9194C002806D02068002800D08047EE
:1034F000002000F0DBF80121084600F03DF900282B
:1035000006D06068002800D08047012000F0CEF887
:103510000121022000F030F9002806D0A068002820
:1035200000D08047022000F0C1F80121032000F004
:1035300023F9002806D0E068002800D08047032047
:1035400000F0B4F810BD00009802002070B53248B9
:1035500005F0A6FF3048263005F0A2FF2E48413086
:1035600005F09EFF2C48733005F09AFF2A48A730DB
:1035700005F096FF2848DB3005F092FF274805F05C
:103580008FFF26482F3005F08BFF24485E3005F072
:1035900087FF22488D3005F083FF2048BC3005F0BE
:1035A0007FFF1FA202211F4805F05CFF1D4C1EA2D9
:1035B000641C0321204605F055FF651C1BA2022157
:1035C000284605F04FFF1A4A2146012006F072F9FD
:1035D000184A2946012006F06DF917484169174835
:1035E0008847164C681CE17906F064FAA179A81C9A
:1035F00006F060FA2179E81C06F05CFAE178281DF3
:1036000006F058FAA178681D06F054FA6178A81DF2
:1036100006F050FA002070BD4F58010059590100C2
:103620003230000003600000594553004E4F000047
:10363000C5690000A51B0000F845010078000020C6
:103640000020704770B515460E4604000AD0012CC4
:1036500008D0022C06D0032C04D0FF21013105A094
:1036600005F0F2FD582044430F48201806644564D5
:1036700070BD000041534D313178784253505C4D5C
:10368000313133305F5374645065726970685F44E0
:1036900072697665725C7372635C6D313133305F71
:1036A000646D612E630000000000054010B5040049
:1036B0000AD0012C08D0022C06D0032C04D0FF2104
:1036C000AC3104A005F0C0FD01200F49A040886383
:1036D00010BD000041534D313178784253505C4D5C
:1036E000313133305F5374645065726970685F4480
:1036F00072697665725C7372635C6D313133305F11
:10370000646D612E630000000003054070B50D4636
:1037100004000AD0012C08D0022C06D0032C04D0BF
:10372000FF21793106A005F08FFD0120A0400202A3
:103730001049002D02D01018086170BD0A6170BDDB
:1037400041534D313178784253505C4D31313330F3
:103750005F5374645065726970685F44726976651E
:10376000725C7372635C6D313133305F646D612EF6
:10377000630000000003054070B50D4604000AD048
:10378000012C08D0022C06D0032C04D0FF2192314A
:1037900006A005F059FD01221148A240002D02D0DB
:1037A000806A104070BD0068FBE7000041534D3156
:1037B0003178784253505C4D313133305F5374640B
:1037C0005065726970685F4472697665725C737285
:1037D000635C6D313133305F646D612E63000000D6
:1037E000C002054010B50446064801210278A140F8
:1037F0008A430270204600F05FF80020024AA100D0
:10380000505010BD010000209802002010B50400A7
:103810000AD0012C08D0022C06D0032C04D0FF21A2
:10382000663105A005F010FD1048006A0121A14095
:10383000084000D0012010BD41534D31317878420D
:1038400053505C4D313133305F537464506572694D
:1038500070685F4472697665725C7372635C6D3127
:103860003133305F646D612E6300000080030540DA
:10387000F0B500210D4E0E4B012214461D788C40F0
:103880002C4204D1376A274205D02C431C70491CB6
:103890000429F2DB04E0042902DA064D8C002851E9
:1038A00018788A4002431A70C8B2F0BD8003054000
:1038B000010000209802002070B5174E040009D0C6
:1038C000012C07D0022C05D0032C03D0DB2113A040
:1038D00005F0BAFC0120A0401D4900020862002545
:1038E00000212046FFF712FF6D1C052DF8DB002597
:1038F0002046FFF7DBFE6D1C052DF9DB04E0761E8C
:1039000002D20020C04370BD2046FFF77FFF012890
:10391000F5D0002070BD00000000000141534D3182
:103920003178784253505C4D313133305F53746499
:103930005065726970685F4472697665725C737213
:10394000635C6D313133305F646D612E6300000064
:1039500080030540F0B51C460746081989B0154696
:103960000E4681B2039078191C4A0490126880B206
:1039700090470398194A81B2781B0390126880B26D
:103980009047701981B205903819144A079012684F
:1039900080B29047701B81B20690104A0798126857
:1039A00080B29047002C16D00C4D0498361B2A6824
:1039B000B1B280B2904703982A68B1B280B2904702
:1039C00005983C1B81B22A68A0B2904706982A68E5
:1039D00081B2A0B2904709B0F0BD0000480B0000D2
:1039E000FFB585B0FF32FF3369326933002603909B
:1039F000F6430127FF2014B21DB2693005E0FF3CF9
:103A0000693CFF3D693D24B22DB28442F7DA002DB6
:103A10006CDD5A2C11DA002C00DA00245A2D01DA60
:103A2000284600E05A2083B20E9801960290A2B276
:103A300000970699039800F05BF85A3D5A3C2DB266
:103A400024B2002D52DD5A2C14DA002C00DA0024A6
:103A50005A2D01DA284600E05A200E9902915A2187
:103A60000A1B081A93B2019682B20096069903982F
:103A700000F03EF85A3D5A3C2DB224B2002D35DDFF
:103A80005A2C11DA002C00DA00245A2D01DA2846CB
:103A900000E05A2083B20E9801970290A2B20096DD
:103AA0000699039800F024F85A3D5A3C2DB224B2EE
:103AB000002D1BDD5A2C14DA002C00DA00245A2DBC
:103AC00001DA284600E05A200E9902915A210A1B79
:103AD000081A93B2019782B200970699039800F0F2
:103AE00007F85A3D5A3C2DB224B290E709B0F0BD18
:103AF000FFB597B00F46219C2298FDF793FA00225C
:103B0000844BFDF7B5F90022D243FDF763FA054671
:103B10000E4638460491FDF799FA074633462A4681
:103B20000291FDF749FAFDF705FB06462A4638469D
:103B3000049B0299FDF79CF9FDF7FCFA05461998DC
:103B4000754A8000115806911A9989005758734A8E
:103B5000105804905058314603900846FDF70CF970
:103B6000FDF782FA294608900846FDF705F9FDF7AA
:103B70007BFA079030460699FDF7FEF80A90284632
:103B80000699FDF7F9F80C9039463046FDF7F4F840
:103B90000B9039462846FDF7EFF80D903046049912
:103BA000FDF7EAF80E9028460499FDF7E5F80F9026
:103BB00030460399FDF7E0F8109028460399FDF789
:103BC000DBF812900A98FDF7A1FA554A554BFDF71C
:103BD0004FF9FDF777FA05460D98FDF745FA524E75
:103BE000119010AAF188D38B0593CA1A7188C91A4B
:103BF000012C02D0631C07D00CE0824200DA104690
:103C0000A94207DD0D4605E0AA4200DA15468142C9
:103C100000DD084600210646139110A81491878BF9
:103C200074E0314613A8089AFDF7EEFF314614A858
:103C3000079AFDF7E9FF3046FDF7E2F915900C9978
:103C4000FDF794FA2CD20A990C98FDF78FFA01D15E
:103C50000A9816E00A990C98FDF786F804900E99D8
:103C60000F98FDF781F80499FDF7C3F806900A99BB
:103C70001598FDF779F80699FDF77EF80E99FDF78E
:103C800022F8FDF7F1F903900B991598FDF778FAF2
:103C900022D20B990D98FDF769FA03D111981CE017
:103CA0001498F0E70B990D98FDF75EF809901099BC
:103CB0001298FDF759F80999FDF79BF809900B99AF
:103CC0001598FDF751F80999FDF756F81099FCF78A
:103CD000FAFFFDF7C9F900E0139820990029214661
:103CE00008DD059A71438918039A89B2BA1892B20D
:103CF000381807E0059A71438918381A82B2039878
:103D000089B2381A80B200F0A1FA761EAE4288DA83
:103D10001BB0F0BD0000F83F586C0100FC710100C1
:103D2000E90B21E7FDFFEF3F64020020FFB551489A
:103D30008DB08668C0681F4642086846058F1046E9
:103D40002946FCF749FF04466846418F0C97828E4E
:103D500002840A92C28E428400200B90A14201D3B9
:103D6000081B01E00C4680E0079029461898614343
:103D7000012801D000231CE000203E4A03E0938884
:103D80003380401CB61C8842F9D314E0179A0B9874
:103D90005043420016981218002004E0178837801C
:103DA000401C921CB61C8542F8D80B98401C5B1C2A
:103DB0000B90A342EAD32F480023CE08826833E059
:103DC0000C990C9F09787F1C0C97CF0901D0C788EC
:103DD00017808F09921CFF0701D0C78817804F09F1
:103DE000921CFF0701D0C78817800F09921CFF079C
:103DF00001D0C7881780CF08921CFF0701D0C78861
:103E000017808F08921CFF0701D0C78817804F08C2
:103E1000921CFF0701D0C7881780921CC90701D0E8
:103E2000C1881180921C5B1C9E42C9D88668684676
:103E30000A998180418C0991C1801999018144813D
:103E40001A9800900C48294647693046029B019A0F
:103E5000B84709996846091941840798002806D08F
:103E6000A04201D3001B7FE7044600207CE711B08D
:103E7000F0BD000004000020480B0000FFB56548BD
:103E800089B08468C0681E4642086846008D039069
:103E900001461046FCF7A0FE05466846408D00909E
:103EA0006846818C01820591C18C41821498012859
:103EB00014D15848584982880A80C288CA8001278C
:103EC000B8003818C2B253488188C08801F06EFA31
:103ED0007A0051497F1C8852032FF1DB00200790A4
:103EE00000988DE00890039814996843012901D047
:103EF000002330E00022830816E03178521C880944
:103F000047004548C75B27808F06BF0F7F00C75B10
:103F100067800F07BF0F7F00C75B8907A780490F26
:103F2000405AE0800834761C9342E6D84DE0139A5C
:103F3000079951434A0012995218002104E017884A
:103F40002780491C921CA41C039F8F42F7D8079915
:103F5000491C5B1C0791AB42E9D32E4900228C68B7
:103F60008008009201902DE03778761CB809810016
:103F7000421828482188C08801F018FA2080B80625
:103F8000800F8100421823486188C08801F00EFA32
:103F900060803807800F810042181E48A188C088C1
:103FA00001F004FAA080B807800F81004218194878
:103FB000E188C08801F0FAF9E0800098401C009088
:103FC0000198083400998842CED81248694684681E
:103FD00005988880488A0690C880159808814D8188
:103FE000169800900D48029B47692046019A039954
:103FF000B84706986946401948820898002806D0B4
:10400000A84201D3401B6DE7054600206AE70DB0CA
:10401000F0BD0000040000206C020020480B0000EE
:10402000FFB5524889B08568C0681E464208684698
:10403000008D039001461046FCF7CEFD044668460D
:10404000408D00906846818C01820691C18C41822E
:104050001498012812D14548454982880A80C288AF
:10406000CA8301274148FAB28188C08801F09EF9CD
:104070007A003F497F1C88520F2FF3DB0020089005
:10408000009869E00790039A14986243012801D0D0
:10409000002326E00021364853080BE03278491C03
:1040A00017097F00C75B12072F80D20E825A6A80E1
:1040B0002D1D761C8B42F1D833E0139908984843A4
:1040C000410012980918002004E00F882F80401C3E
:1040D000891CAD1C039F8742F7D80898401C5B1CC5
:1040E0000890A342E9D3214800275108856801912F
:1040F00014E03078009002091C482988C088761C9A
:1041000001F054F928800098698802071748120FB7
:10411000C08801F04BF968802D1D7F1C0198B842C2
:10412000E7D812486946856806988880488A0590CD
:10413000C880159808814C81169800900D48029B04
:1041400047692846019A0399B847059869460019B6
:1041500048820798002806D0A04201D3001B91E7AF
:10416000044600208EE70DB0F0BD000004000020E2
:104170006E250020480B0000F3B50C46084660434E
:104180004908401885B086B26846C08A0390001B73
:1041900000B2029003982C49001900B20190CA881D
:1041A000824202DA0620085E01900298002801DAB5
:1041B000002002906846808A0025274600901CE077
:1041C0000398411B0298814215DB0198814212DC61
:1041D000284668433A467A438218B24202DD7F1E7F
:1041E000BFB2F7E7009889B2C01982B20098C01B2D
:1041F00080B200F02BF86D1CADB2A542E0D30025D3
:1042000027461CE0039841190298814215DB01986A
:10421000814212DC284668433A467A438218B24209
:1042200002DD7F1EBFB2F7E7009889B2C01982B2E3
:104230000098C01B80B200F009F86D1CADB2A54219
:10424000E0D307B0F0BD000064020020F8B50746D7
:1042500016460D46BA4267D3344C28462168FCF70F
:10426000D1FC6169884206D003F030F92846216804
:10427000FCF7C8FC60612D48016838460C46FCF725
:10428000C1FC85B221463046FCF7BCFC81B2274810
:104290008069854201DA254885612448C2699142D6
:1042A00000DDC1612A46C568AA4202DA2A46624395
:1042B00097B20269914203DD521C6243521E96B2CC
:1042C000BE4231D321463846FCF79CFC401B00B26D
:1042D000009021463046FCF795FC401B01B2009847
:1042E0008C46081A401C01B21048826800981018C9
:1042F000012907D0009A03785219521C6243D21B3D
:104300009A1803E00278F11B0BE012190270401CAE
:10431000491E09B202780129F7DC61464919614357
:10432000711A491C51180170F8BD000040020020AC
:10433000F8B5074624481500C4880E4642D0418887
:10434000B1423FDB0088B8423CDB204A0F2D02D34C
:10435000B1B2B8B232E01D4AB1B25268B8B29047B9
:1043600001463F235B0120461840E306DB0E6B430A
:104370009C46E20A1023D2025B1B6A436843CD0AC3
:10438000DBB2ED025D43AD183F2252010A40C9067F
:10439000C90E5A43594310181F232A11DB021A4031
:1043A0003F23614400115B011840C905C90E101874
:1043B00040180549054AC880B1B2B8B212689047A2
:1043C0000148C480F8BD000004000020480B000034
:1043D000F7B50C4606461D218AB04901F748FCF79F
:1043E0004DFC0021F64D0846A9612FE0725C134692
:1043F000303B092B01D8002218E01346413B192B12
:1044000013D9202A11D0242A0FD0252A0DD02A2AE8
:104410000BD02B2A09D02D2A07D02E2A05D02F2ADF
:1044200003D03A2A01D0022200E00122002901D162
:10443000E44B1A70E34B1F5C974201D0401C1A54A6
:10444000DE4A8700D3595B1CD351491CA142CDDB06
:10445000401C0024A8612EE1DA4A135D002B02D033
:10446000012B05D026E110194078012804D021E164
:10447000101940780028F5D1A000D049049006908A
:10448000095818460C9A00F09DFE0746CB4906983D
:104490004018039001904168CA480019079040787D
:1044A0000C9A00F08FFE3F18C44906980C9A0958E0
:1044B000019840680918012000F084FE00908742AE
:1044C000D0DD012C25DB07982038C07F022820D1C1
:1044D0000398BA4980380690C26F0498085811189A
:1044E00002200C9A00F06EFE074603980C9A416871
:1044F0000798407800F066FE3818019006980C9AEC
:10450000C16F022000F05EFE0099411801988142BF
:1045100001DA00200190A869801E84421FDA079802
:10452000A84A807802281AD1A44804994158105DFD
:104530000C9A00F047FE074603980C9A4168806881
:104540000918022000F03EFE3F1803980C9A81687B
:10455000022000F037FE00994018B84200DA002728
:104560000198002805D0002F06D0B84204DB0120B6
:1045700004E0002F04D110E00020C043401C16D0FE
:1045800007980221417003984168806809180398D0
:104590004160A969A01C491E2CE0A8698446801EC0
:1045A000844244DA07988078012827D03FE00398B6
:1045B000824A04998038C36F51585918C167A96954
:1045C0002046491E09E07F4A13185B7813547B4A42
:1045D00083009F187F68D750401C8842F3DB0BE0B4
:1045E000784A13185B781354744A83009F187F68C5
:1045F000D750401C8842F3DBA86958E00398416813
:104600008068091803984160A11C6046401E09E0BB
:104610006C4A53185B785354684A8B009F187F6824
:10462000D750491C8142F3DB6046401EA861654BB0
:1046300001201855614A04981158039840680918D8
:1046400004981150A969601C8C46491E09E05D4A16
:1046500013185B781354594A83009F187F68D7500A
:10466000401C8842F3DB6046401E8446A861012C52
:1046700021DB07982038C07F01281CD103984F4ABE
:1046800004998038C36F51585918C1676046214654
:10469000401E09E04B4A53185B785354474A8B003D
:1046A0009F187F68D750491C8142F3DB6046401E4B
:1046B000A86100E0641CA869401E844200DACBE6D1
:1046C0000C98002480000790B3E0A0003B490390C1
:1046D000009009583B480C9A005D00F073FD0746B6
:1046E000364900980C9A401801900490416835486A
:1046F00000190890407800F065FD3F182F49009898
:104700000C9A0958049840680918022000F05AFDD4
:104710000146012C09DB08982038C07F022804D10B
:104720002948079A8058091A091FA8698446801EDB
:10473000844208DA08988078022804D1224B079A2C
:104740009858091A091F8F4272DD012C20DB089846
:104750002038C07F02281BD1019B184A0398803B58
:10476000D96F10580818D86760462146401E09E0E6
:10477000144A53185B785354104A8B009F187F6873
:10478000D750491C8142F3DB6046401E641EA8617D
:10479000A8698446801E844227DA0A4F3819807837
:1047A000022822D1054BA000C018826841688918F0
:1047B0004160A11C6046401E12E00000081300206A
:1047C00008010020C5220020A0600100844A53187F
:1047D0005B785354834A8B009F187F68D750491CDD
:1047E0008142F3DB6046401EA8617D4F02203855B0
:1047F0007C48A1000B1842585B68D2184250AA6945
:10480000611C9446521E09E0754843185B78435476
:1048100074488B001F187F68C750491C9142F3DB16
:104820006046401EA861012C03DB641E01E0FFE727
:10483000641CA869401E844200DA46E768480024E8
:10484000E821E830EC60FCF719FA0020A5E06449A3
:10485000009A895C002914D001295FD004221146F6
:10486000614D02F0C7FEE860604A0799525800990E
:104870008F005C49C95B89B202F0BCFEE86000258C
:10488000A0E004220121584D02F0B4FEE860574A2E
:104890000799183A525800998F005249C95B89B25A
:1048A00002F0A8FEE860002531E0811EA94211DD7A
:1048B00060198119305C8A786423303858431218A3
:1048C00048780A21484321210901401A101881B271
:1048D0000A2215E0A9420BD160198119305C0A2225
:1048E0003038497850433038081881B2072207E041
:1048F000401EA8420AD16019305C303881B20422CF
:104900003948C06802F076FE3749C860ED1C35486A
:10491000C059A842C9DC3348C0593BE004220221F7
:10492000314D02F067FEE860304A07990C3A525860
:1049300000992C4F89000591795A89B202F05AFEEC
:10494000E86000251EE0401EA8420FDD60190490BB
:10495000305CFCF7F3FF074604982D2180194F4384
:104960004078FCF7EBFF39180B2205E06019305C4A
:10497000FCF7E4FF014606221B4FF86802F03AFEFE
:10498000AD1CF860174905980858A842DBDC1548AB
:104990000599405804190098401C134B00909969E0
:1049A000884214DAD868411C00D050E716E060193C
:1049B000315C0D480822C06802F01CFE01460A481E
:1049C0006D1CC1600748C059A842F0DCA3E7064847
:1049D000C068401C02D001200DB0F0BD0020FBE7F4
:1049E000C52200200813002008010020A06001005B
:1049F00070B521492148FCF741F902F021FF02F08E
:104A00002BFE1F4EB068401C18D1B06003F0A8F90F
:104A1000B06802F087FEFDF74FF9044601252846ED
:104A200003F09EF9284602F07DFEFDF745F9A0420D
:104A300001DA0446B5606D1C072DF0DDB06803F0A7
:104A40008FF9B06802F06EFE00200C4B1125F26960
:104A50000EE03526044600217443E41805E0665C48
:104A60002E4000D001266654491C9142F7DB401CC1
:104A70009042EEDB70BD0000F90A0000A81600208D
:104A80000801002010B5594804F00AFD57482630A7
:104A900004F006FD5548553004F002FD53488430BB
:104AA00004F0FEFC5148B33004F0FAFC4F48E73004
:104AB00004F0F6FC4E4804F0F3FC4D48343004F0AA
:104AC000EFFC4B48683004F0EBFC49489C3004F0A4
:104AD000E7FC4748D03004F0E3FC464804F0E0FC33
:104AE0004448323004F0DCFC4248423004F0D8FC48
:104AF0004048663004F0D4FC3E488A3004F0D0FCD4
:104B00003C48E03004F0CCFC3A48AE3004F0C8FC3D
:104B1000394804F0C5FC3848323004F0C1FC36484E
:104B2000643004F0BDFC3448963004F0B9FC3248DF
:104B3000B13004F0B5FC3048CC3004F0B1FC2FA209
:104B40000421304804F08EFC2F49012008702D48C4
:104B50002EA20F21401C04F085FC2A482FA206211A
:104B60000B3004F07FFC27482EA206210C3004F005
:104B700079FC24482DA206210D3004F073FC214954
:104B80002C4A0A31012004F095FE1E492A4A491E8A
:104B9000012004F08FFE1B49284AC91C032004F0A1
:104BA00089FE184C264A241D2146022004F082FE6C
:104BB000244A2146012004F07DFE641C224A21463D
:104BC000022004F077FE1F4A2146012004F072FE05
:104BD000641C1E4A2146022004F06CFE194A21463C
:104BE000012004F067FE002010BD00003E4A0100D5
:104BF000594B01005B4C01006F4D0100D6C7C4DC6E
:104C0000000000000B10000080000020C9CFBAA3F4
:104C1000CAD020C7E70A3230A1E60000C9FACFCADD
:104C2000CAD20000C8EDB6B3CAD20000C0E4B6B321
:104C3000CAD200002D1B0000E54C0000094E000008
:104C4000794D0000514C0000A94D0000D94D0000E5
:104C500010B51C491C4804F0A9FC1A491A48091D42
:104C6000401C04F0A3FC174917480831801C04F0CD
:104C70009DFC1448001F82684168C06811430143CD
:104C80000FD11148401E04F079FE1048FCF701F8DE
:104C900081B20D480D4AC01C04F0EEFE0CA003F0DA
:104CA000D1FF09485F210A3004F0A6FE06486121C1
:104CB0000B3004F0A1FE044863210C3004F09CFE8C
:104CC000002010BD840000200F100000364A0100B3
:104CD00053657444697361626C65206F6B0D0A00E3
:104CE0000020704730B51CA103C987B00191009026
:104CF0001BA103C9039102901BA103C91C4C059180
:104D0000049020781B4D002804D001280CD00228E4
:104D100014D116E06846FBF7BCFF81B26A4628460C
:104D200004F0AAFE012008E002A8FBF7B2FF81B25E
:104D300002AA284604F0A0FE02202070002007B03E
:104D400030BD04A8FBF7A5FF81B204AA284604F0F1
:104D500093FE0020F1E70000D6C7C4DC000000008D
:104D6000D5E4C6B700000000CBD9B6B30000000000
:104D7000800000200B10000010B50021084804F04E
:104D800099FE07480021401C04F094FE04480121CC
:104D9000801E04F0F3FD034901208870002010BD3F
:104DA000101000008000002010B50021084804F019
:104DB00081FE07480021801C04F07CFE044801218C
:104DC000401E04F0DBFD034902208870002010BD66
:104DD0000F1000008000002010B50021084804F0EA
:104DE00069FE07480021401C04F064FE04480121CC
:104DF000401E04F0C3FD034903208870002010BD4D
:104E00000F1000008000002070B5204C6078002852
:104E10000AD000201E4D6070002807D01D48FBF707
:104E200038FF81B21B4A08E00120F3E71948083037
:104E3000FBF72FFF174A81B20832284604F01CFE08
:104E4000A078012804D002280BD003281CD111E03F
:104E50000F486178C01D002901D05F2112E0602158
:104E600010E00B4861780830002901D0612109E089
:104E7000622107E0064861780930002901D06321EA
:104E800000E0642104F0B8FD002070BD8000002027
:104E9000121000002E4A010070B5044609480D4664
:104EA000844207D00848844204D0B521890007A075
:104EB00004F0CAF9002D03D1114904A004F0C4F98B
:104EC000656770BD008002400080034041534D3152
:104ED0003178784253505C4D313133305F537464D4
:104EE0005065726970685F4472697665725C73724E
:104EF000635C6D313133305F6770696F2E63000022
:104F0000D502000070B50546384800260C4685429B
:104F100006D03748854203D0364937A004F094F9CB
:104F2000012C5DD0022C5BD0042C59D0082C57D01A
:104F3000102C55D0202C53D0402C51D0802C4FD049
:104F4000E01FF9384CD0FF38013849D001208002E9
:104F5000844245D04000844242D0400084423FD049
:104F6000400084423CD04000844239D0400084421A
:104F700036D04000844233D04000844230D04000DC
:104F800084422DD0400084422AD04000844227D061
:104F90004000844224D04000844221D0400084421A
:104FA0001ED0400084421BD04000844218D04000F4
:104FB000844215D04000844212D0400084420FD079
:104FC000400084420CD04000844209D0400084421A
:104FD00006D0601C04D05D21C90007A004F034F99C
:104FE000286D204200D00126304670BD008002406E
:104FF00000800340E702000041534D313178784290
:1050000053505C4D313133305F5374645065726975
:1050100070685F4472697665725C7372635C6D314F
:105020003133305F6770696F2E630000F8B51A4F37
:1050300015460C460646B84207D01848864204D0AA
:10504000FF21AB3116A004F0FFF8002C04D1FF21A2
:10505000AC3113A004F0F8F8012D06D0002D04D0D7
:10506000FF21AD310EA004F0EFF8002221463046BA
:1050700000F034F817481849012D05D0002D02D151
:10508000BE4207D18460F8BDBE4201D14460F8BD84
:105090004C60F8BD8C60F8BD000002400000034089
:1050A00041534D313178784253505C4D313133307A
:1050B0005F5374645065726970685F4472697665A5
:1050C000725C7372635C6D313133305F6770696F2E
:1050D0002E6300000080024000800340F8B5294F95
:1050E00014460D460646B84206D02748864203D0ED
:1050F000BE2126A004F0A8F8002D03D1BF2123A0D3
:1051000004F0A2F8002C11D0012C0FD0022C0DD0ED
:10511000032C0BD0042C09D0052C07D0062C05D06D
:10512000072C03D0C02119A004F08EF8BE4213D181
:10513000234A00202946C140C907C90F08D0810071
:1051400089180B68DB08DB000B600B6823430B60DE
:10515000401C2028EED3F8BD194A00208032294691
:10516000C140C907C90F08D0810089180B68DB0846
:10517000DB000B600B6823430B60401C2028EED340
:10518000F8BD0000000002400000034041534D31D3
:105190003178784253505C4D313133305F53746411
:1051A0005065726970685F4472697665725C73728B
:1051B000635C6D313133305F6770696F2E6300005F
:1051C0000010004010B594000B46002805D00128BF
:1051D00016D014480159D80020E003211846FBF7E7
:1051E00011FD0A2250430F4A001D183A1259801827
:1051F000012903D0022900D1C01D10BD001D10BD22
:1052000008480C380259D80FC01841100B246143CC
:10521000511840084000181A06225043001D081873
:1052200010BD0000A060010010B50949094804F054
:10523000BDF907482322001F41685143064A8918D7
:1052400041600448801C04F035FC002010BD0000C3
:10525000A800002010300000B80B0000F7B51B2894
:1052600001DB022404E00A2801DB012400E0002421
:10527000124D134E224602990198FFF7A9F8002813
:1052800001D0002C04D0641C022CF3DD0020FEBDF4
:10529000EA682968D21DD7174B007F0F0120B91883
:1052A000CA102C274743BF19FF18BF889742EEDA70
:1052B000401C0928F5DD641CDCE700000801002023
:1052C000D05C010010B581200749800004F04CF942
:1052D00005480088FE2804D1044A0549012004F04D
:1052E00069FA002010BD000074000020B9670000BA
:1052F0003569000010B50849084804F057F9064C14
:1053000006482168801C04F0D5FB05492088096AFD
:1053100080B28847002010BDA40000200F3000009C
:10532000A4450100F7B5054684B00020009005981B
:10533000144607197F1E00982DE02878002825D0F4
:1053400017490026085C0290A00001900FE0154963
:1053500001980858815D02980818FF21FBF73CFC72
:10536000114AA8194078515C4840A855761CA642BD
:10537000EDDB204603E0291849782954401C874278
:10538000F9DC05E0291849782954401C8742F9DCEA
:105390000098401C009005998842CEDB07B0F0BD14
:1053A000885F010028010020885E010070B5044676
:1053B000002A26D00F2A23D2E50A3F235B01E40608
:1053C000ED021840E40E5543504354431026B21AE0
:1053D000CE0AD2B2F602564376190D461D40554309
:1053E000C906C90E51430A1928181F243111E402B5
:1053F000001121401840D205D20E0818801880B242
:1054000070BD084670BD000010B51D4804F048F896
:105410001B48263004F044F81948413004F040F8A5
:1054200017485C3004F03CF81648174C41680029D6
:1054300002D0204604F03EFB11488E3004F030F8D4
:105440000F48C03004F02CF8104804F029F80E4939
:105450000F4A891E012004F02DFA0B490C4A491EFF
:10546000012004F027FA0B4A2146042004F022FA16
:105470000549094AC91C032004F01CFA002010BD8C
:10548000445A0100D4000020047000004E5B01006B
:10549000BD1B0000ED540000A15400000020704727
:1054A00070B5104C0E4821880F4D405C0121420818
:1054B000284604F07FFA208803214208284604F099
:1054C00079FA284604F0DCF92088401C80B2C11F1C
:1054D0002080F93901D100202080002070BD00001B
:1054E0005E5B0100D40000200670000010B5084982
:1054F000084804F05BF80648001F4068014614396C
:10550000502903D8044980B2096A8847002010BD99
:10551000D800002004700000A4450100F0B5044646
:1055200093B0401C0A90417900790B0203430A981A
:105530000793417A007A090201435818401E80B24D
:105540000590207AE279000210430690227BE57AEA
:1055500012022A4385186D1EADB20D956D462B8142
:105560006881E07BE71C002804D0012805D00228D0
:1055700005D006E0921E90B202E0500800E0012043
:105580000E90207C002804D0012804D0022804D0EA
:1055900006E0012003E0480801E0491E88B20990B6
:1055A0000126204620300490EFE07D4A00219068DB
:1055B0000CE0099BB34202D1E37CA57C01E0637D52
:1055C000257D1B022B430380801C491C7B7A3D7A7E
:1055D0001B022B438B42ECDA7148217E856800293F
:1055E00013D03046FBF7F8FA00290ED1002006E070
:1055F000E17DA27D090211432980401CAD1C797A0E
:105600003A7A090211438142F2DA65488168607E84
:1056100000280ED0059B079A00209A1A07E0E37D28
:10562000A57D1B022B4345004B53637E1818824215
:10563000F5DAE07CA27C000210430E9A52008852F8
:10564000574880680190002083E0800000192630D0
:105650000C90FBF725FB855D0146701E1090085CE1
:1056600085422AD904994A790B7911021943484392
:10567000054615E0787A397A00020843411B0ED4BA
:1056800081420CDC0F9949000A19517F127F0902EF
:1056900011434200019812186800101A01806D1C15
:1056A0000C98FBF7FDFA815D0498427903791002AA
:1056B00018434143A942DDDC48E085422AD20498E0
:1056C0004179027908021043454315E0787A397A26
:1056D00000020843411B0ED481420CDC0F994900A3
:1056E0000A19517F127F09021143420001981018D4
:1056F0006A00801A01806D1C0C98FBF7D1FA109992
:10570000415C049842790379100218434143A9424D
:10571000DCDC1BE0291A0498427903791002184353
:10572000414313D14543787A397A000208438542D0
:105730000CD84200019869001018411A0F984000D7
:105740000219507F127F0002104308800F98401CFE
:10575000C0B20F90617C814200D976E706990D981E
:10576000401A83B20F480122056901990298A8479F
:10577000A07B002803D005986946801B02E069469B
:105780000889401C761C0881B6B20A98417A027AD0
:1057900008021043B04200D907E713B0F0BD000083
:1057A00004000020480B0000F8B505460C46802098
:1057B00001F0D8FC504E002C04D0012C0AD0022C51
:1057C00011D01BE0022201213046FFF787FC0222A4
:1057D000114606E0032208213046FFF77FFC032232
:1057E0001021304608E0454C0222D1062046FFF742
:1057F00075FC022211072046FFF770FC01221204FB
:105800003F480021C1623E49403103E00023C362AA
:10581000521E32D0036BDB07F8D1CB69DB07F5D121
:10582000374C403C226B120B120322630A6863154B
:105830009A430A6061689A009143616040696E0012
:10584000B01C612108432060802001F0F7FB7D211E
:10585000C900FBF7C1F92B4A2B4F90420FD31146D9
:10586000FBF7BAF9B95B0831414308398FB22649D1
:10587000091D895B491C484324E024A133E0012D24
:1058800000D100252449884206D07D214901884263
:1058900002D02249884225D101461046FBF79CF9E7
:1058A0006E000090BA5B014610460830FBF794F991
:1058B0000838154987B2091D00988A5B0146501CBB
:1058C000FBF78AF9401E80B2002D12D0E7612062FA
:1058D0000020A063E063606001208004FAF762FFAB
:1058E0000020F8BD0EA119A003F0ACF90020C043C0
:1058F000F8BD6761A061EBE70000024000000340D3
:1059000040400040E02E0000C8450100696E697407
:10591000206661696C65640070170000B80B0000B8
:10592000737973636C6B20646F206E6F7420737572
:1059300070706F72742073656C6563746564207336
:1059400070656564206D6F646500000069326320D6
:105950006572726F723A2025730D0A00FFB581B02F
:105960005B490A98884201DD5AA10AE0FF21634899
:10597000013101600020FDF77BFF0546032804D9B3
:105980005FA163A003F05EF99FE00020FDF770FFC8
:105990000446032805D962A15DA003F053F9284607
:1059A00091E058202946414361480F18582161432E
:1059B0000E186049012088611122520200212846F8
:1059C000FDF740FE5522D20100212046FDF73AFEA8
:1059D00059494A4838605948B860B9610A99F9612B
:1059E000574930600498B060B1610A98F0610121B4
:1059F00009045248002330300A46C36202E0C36201
:105A0000521E19D0066BF607F9D14C4E7036F66966
:105A1000F607F4D1494E103E326820273A433260EF
:105A20007268920A920237153A43019F3A437260B4
:105A30000122C262039A15E042A13DE0029ED70016
:105A4000FE40F7B23D4E0846103E37613B4E3036C1
:105A500000E0401E376B7F0702D40028F9D116E022
:105A6000002814D0521EE9D5344A01207032D0608B
:105A700013619368032633439360FF220232134677
:105A8000AB40A24013432B4A1362A04002E030A176
:105A900012E0491E136A034202D00029F9D10AE03C
:105AA000002908D02846FDF79DFE2046FDF79AFE06
:105AB000002005B0F0BD31A115A003F0C3F82846C1
:105AC000FDF790FE2046FDF78DFE0020C043F0E775
:105AD000FF0100007472616E736D69742073697ADE
:105AE00065206265796F6E6420646D6120747261F7
:105AF0006E732D6162696C69747900001400002076
:105B00006E6F207478206368616E6E656C000000B3
:105B1000693263206572726F723A2025730D0A0034
:105B20006E6F207278206368616E6E656C00000095
:105B3000000005408003054024051000104000408F
:105B400001042000696E6974206661696C656400F7
:105B5000446D6120526561642066756E63207365D3
:105B60006E6420696E7465726E616C20616464722B
:105B7000657373206661696C65640000446D612023
:105B8000526561642066756E632074696D656F751A
:105B900074000000FFB581B047480A9F0D46874258
:105BA00001DD46A106E00020FDF762FE0446032861
:105BB00004D94CA151A003F045F87AE0582053498C
:105BC0006043461852490120886111225202002187
:105BD0002046FDF737FD049830604E48B0604E48CF
:105BE000B061F761012212044A49002330311046A6
:105BF000CB6202E0CB62401E19D00E6BF607F9D1E2
:105C0000444E7036F669F607F4D1424E103E3068C5
:105C10002023984330607068800A80025B0118433B
:105C2000019B184370600123CB62039815E03BA1F0
:105C300039E0C7002E46FE40F7B2364E1146103E00
:105C40003761344E303600E0491E376B7F0702D48F
:105C50000029F9D111E000290FD0401EE9D52D48C7
:105C60007030C3608168022529438160FF210231C1
:105C70002748A1400162A34002E02BA113E0521E7D
:105C8000016A194202D0002AF9D107E0002A05D0A2
:105C90002046FDF7A7FD002005B0F0BD0021084615
:105CA000FFF782FD2BA115A002F0CCFF2046FDF7E7
:105CB00099FD0020C043EFE7FF0100007472616EA0
:105CC000736D69742073697A65206265796F6E649B
:105CD00020646D61207472616E732D6162696C69FC
:105CE00074790000616C6C20646D61206368616E82
:105CF0006E656C2062757379000000006932632064
:105D00006572726F723A2025730D0A00000005401B
:105D1000800305401040004000016000696E697416
:105D2000206661696C656400446D61205772697416
:105D3000652066756E632073656E6420696E746598
:105D4000726E616C20616464726573732066616950
:105D50006C656400446D61205772697465206675D6
:105D60006E632074696D656F7574000010B5614CC9
:105D7000E020A16888472168002088472168012029
:105D800088472168022088472168042088472168C5
:105D90001420884721680920884721683F208847C8
:105DA00021685720884721684D20884721680520B1
:105DB000884721680B208847216809208847216887
:105DC0001A20884721681D20884721680F208847AE
:105DD000A168E120884721680020884721681D20AC
:105DE0008847216820208847216802208847216849
:105DF0000E2088472168032088472168352088477E
:105E0000216812208847216847208847216802209E
:105E1000884721680D20884721680C208847216821
:105E20003820884721683920884721680F20884713
:105E3000A168C0208847216818208847216816205B
:105E40008847A168C1208847216841208847A16808
:105E5000C52088472168002088472168242088477A
:105E6000216880208847A16836208847216808205B
:105E70008847A1683A208847216855208847A1684B
:105E8000B0208847216800208847A168B120884752
:105E90002168B0208847A168B42088472168022083
:105EA0008847A168B6208847216802208847216872
:105EB00022208847A168E920884721680020884778
:105EC000A168F72088472168A920884721685120C8
:105ED000884721682C208847216882208847A1684C
:105EE00011208847782000F018F8A16829208847F9
:105EF00010BD0000A445010000B50B46020008D00B
:105F000000F0DAFB102806D0506843600020536090
:105F100000BD012000BD1360F8E7002104E002226B
:105F2000521CFF2AFCD3491C8142F8D3704710B59C
:105F3000282000F0EDF810BD10B5292000F0E8F899
:105F400010BD0000F8B53549334848600125344E8E
:105F50006D07002229463046FFF7C0F86F10002277
:105F600039463046FFF7BAF82E4C00221021204661
:105F7000FFF7B4F8002208212046FFF7AFF800220F
:105F800061033046FFF7AAF8002204212046FFF7FC
:105F9000A5F8012210212046FFF748F801222946E2
:105FA0003046FFF743F8012239463046FFF73EF806
:105FB000012208212046FFF739F8012291073046D7
:105FC000FFF734F8012204212046FFF72FF8B560CF
:105FD000042363606420FFF7A0FFA3606420FFF741
:105FE0009CFF6360104C0120A16888477820FFF770
:105FF00094FFA16828208847FFF7B8FEA1682020F9
:106000008847A16829208847216901208847756051
:1060100006A002F017FEF8BD0000FFFF008002405E
:106020000000034000000240A44501004C43445FCF
:10603000496E697420200D0A0000000001480068C4
:10604000000C70470000024010B5012809D048211B
:10605000362000F054F804480188428802804180CC
:1060600010BD6821F4E7000004000020F8B51446D4
:106070000546001B86B21F46332000F049F8280A67
:1060800000F064F8E8B200F061F8300A00F05EF861
:10609000F0B200F05BF8380A00F058F8F8B200F0FF
:1060A00055F8372000F034F8200A00F04FF8E0B23D
:1060B00000F04CF8F8BDF8B507461C4615460E46EC
:1060C0002A2000F025F8380A00F040F8F8B200F075
:1060D0003DF8280A00F03AF8E8B200F037F82B2033
:1060E00000F016F8300A00F031F8F0B200F02EF8A7
:1060F000200A00F02BF8E0B200F028F8F8BD10B547
:106100000C4600F005F8204600F020F810BD000015
:10611000F0B50A4908238B60094ACC025460102468
:106120004C604D039560084F064E7E600004086089
:10613000BE604C6055604B60F0BD00000000024046
:1061400000000340EFFF00008080024070B5094965
:1061500008224A60084ACB02536010234B604C036C
:106160009460074D054E6E6000040860AE604B60A1
:10617000546070BD0000024000000340EFFF0000CB
:106180008080024010B5104803F08AF90E486C3048
:1061900003F086F90C48413003F082F90A487C305C
:1061A00003F07EF90848263003F07AF9074A0849D7
:1061B000032003F07FFB064806A21A21401C03F0CF
:1061C0005BFC002010BD000040460100C5520000ED
:1061D00005020000687474703A2F2F7777772E616C
:1061E0006C7068617363616C652E636F6D00000095
:1061F00010B50146014802F0A5F910BD00A000400D
:1062000003490868C007FCD0024840687047000096
:106210000051004000500040FF21013188054161DC
:10622000816041607047000010B50021144803F000
:1062300041FC13480021801C03F03CFC1048002165
:10624000C01C03F037FC0E480021001D03F032FC97
:106250000B481E210C3003F02DFC094806210D309F
:1062600003F028FC06481E210E3003F023FC0448EE
:106270001921C9010F3003F01DFC002010BD0000E2
:106280000330000010B50021134803F013FC12483E
:106290000021401C03F00EFC0F480021801C03F07D
:1062A00009FC0D480021C01C03F004FC0A486421CD
:1062B0000C3003F0FFFB084864210D3003F0FAFBBB
:1062C000054864210E3003F0F5FB034803490F3005
:1062D00003F0F0FB002010BD033000006419000043
:1062E00010B50021134803F0E5FB12480021401CC3
:1062F00003F0E0FB0F480021801C03F0DBFB0D489E
:106300000021001D03F0D6FB0A4832210C3003F0B7
:10631000D1FB08482B210D3003F0CCFB054832217E
:106320000E3003F0C7FB034803490F3003F0C2FBF4
:10633000002010BD033000009411000010B50021B2
:10634000134803F0B7FB12480021401C03F0B2FBD6
:106350000F480021C01C03F0ADFB0D480021001DBB
:1063600003F0A8FB0A4846210C3003F0A3FB0848C1
:106370003A210D3003F09EFB054846210E3003F014
:1063800099FB034803490F3003F094FB002010BD34
:10639000033000008813000010B50021144803F0FA
:1063A00089FB13480021401C03F084FB10480021A6
:1063B000801C03F07FFB0E480021C01C03F07AFB19
:1063C0000B480A210B3003F075FB094806210C30FD
:1063D00003F070FB06480A210D3003F06BFB044804
:1063E0001921C9010E3003F065FB002010BD00002B
:1063F0000430000010B55B4803F052F859482630CD
:1064000003F04EF857485B3003F04AF85548903097
:1064100003F046F85348C53003F042F85148FA30CB
:1064200003F03EF8504803F03BF84F48353003F096
:1064300037F84D48693003F033F84B488D3003F09E
:106440002FF84948B13003F02BF84748D53003F016
:1064500027F8464803F024F84448323003F020F887
:106460004248643003F01CF84048963003F018F8B6
:106470003E48C83003F014F83C48F73003F010F8F9
:106480003B4803F00DF83A482F3003F009F838483C
:106490005E3003F005F836488D3003F001F835A280
:1064A0000621364802F0DEFF344835A20621401CA2
:1064B00002F0D8FF314834A20421801C02F0D2FF40
:1064C00033480168002902D0324803F0F3FA2B491F
:1064D000314A091F012003F0EDF928492F4A0A39F2
:1064E000012003F0E7F925492D4A0939022003F07C
:1064F000E1F922492B4A0839022003F0DBF91F4950
:10650000294AC91F022003F0D5F91C49274A891FCF
:10651000022003F0CFF91949254A491F022003F050
:10652000C9F91649234AC91E022003F0C3F91349C9
:10653000214A891E022003F0BDF910491F4A491E55
:10654000022003F0B7F90D491D4AC91C042003F0CD
:10655000B1F90A491B4A091D042003F0ABF90020D8
:1065600010BD000037520100665301006D54010058
:1065700093550100B2CDB5F5B5C600000C30000052
:10658000CEFCB6A5B5C60000CCA8B5C6000000007C
:10659000A4000020047000005D1B0000CD65000019
:1065A00099630000296200003D630000E162000081
:1065B00085620000E96500000566000021660000B4
:1065C000F5520000295200000020704710B5034A20
:1065D0000349044803F0EEF8002010BD7166000086
:1065E000B56600000131000010B50021044803F039
:1065F00061FA03480021401C03F05CFA002010BD42
:106600000A30000010B50021044803F053FA034893
:106610000021801C03F04EFA002010BD093000005C
:1066200010B50021044803F045FA03480021401C3E
:1066300003F040FA002010BD0930000010B5034AF5
:106640000349044803F0B6F8002010BDF5630000CC
:10665000C96500000130000010B5034A034901205C
:1066600003F0A8F8002010BDB967000035690000EC
:1066700010B50C4802F014FF0A48263002F010FF53
:1066800008485A3002F00CFF074A0849012003F07D
:1066900011F90649064A491E012003F00BF90020B2
:1066A00010BD0000A85101003D660000033100004C
:1066B000596600000020704700280BD001680029AF
:1066C00000D001214068002800D00120014301D002
:1066D000202070471020704710B5034A0349044832
:1066E00003F068F8002010BD854A0000E14C00006E
:1066F0000110000010B5034A0349044803F05AF89A
:10670000002010BDF5130000551500000120000009
:1067100010B5034A0349044803F04CF8002010BDAB
:1067200071660000B56600000131000010B5034A33
:106730000349044803F03EF8002010BDB56E000088
:10674000196F00000140000010B5034A03490448D6
:1067500003F030F8002010BDDD6B0000796C000004
:106760000150000010B5034A0349044803F022F821
:10677000002010BD4D3500004136000001600000D2
:1067800010B5034A0349044803F014F8002010BD73
:10679000095400009D5400000170000010B5034A28
:1067A0000349044803F006F8002010BD751A0000E4
:1067B000C51A0000611200001CB5474802F070FEC7
:1067C0004548263002F06CFE43485A3002F068FE1D
:1067D00041488E3002F064FE3F48C23002F060FE55
:1067E0003D48F63002F05CFE3C4802F059FE3B4862
:1067F000343002F055FE3948683002F051FE374817
:106800009C3002F04DFE3548E13002F049FE33483D
:10681000F13002F045FE324802F042FE30482F309F
:1068200002F03EFE2E485E3002F03AFE2D4A022172
:10683000012003F03FF82C4A0321012003F03AF82D
:106840002A4A0421012003F035F8294A05210120B4
:1068500003F030F8274A0621012003F02BF8264ADE
:106860000721012003F026F8244A0821012003F023
:1068700021F8234A0921012003F01CF8214A0B21A9
:10688000032003F017F820488168204888471F48F4
:10689000114A4179703A09018918027901910092EF
:1068A0008379C2791AA1204802F0DCF91E48FAF770
:1068B000F0F981B21C4A0A2003F0DEF81BA2052180
:1068C0000F2002F0CFFD11480021801E41700121F0
:1068D000017000201CBD0000544701007E480100EB
:1068E0009E490100D9660000F566000011670000AE
:1068F0002D670000496700006567000081670000A0
:106900009D67000039690000F8450100780000200B
:10691000323025303264C4EA25303264D4C22530A6
:106920003264C8D520257300501200203A20202060
:106930003A000000002070477CB5184841691848AB
:106940008847174C0C20E17803F0B4F8A1780D20AB
:1069500003F0B0F861780E2003F0ACF8A51E68785B
:10696000401CC0B26870152816D160790D4900012D
:106970004018217900910190A379E2790AA1104889
:1069800002F070F90E48FAF784F981B20C4A0A2035
:1069900003F072F80020687000207CBDF84501000B
:1069A00078000020E4460100323025303264C4EA29
:1069B00025303264D4C225303264C8D52025730016
:1069C0005012002010B52349234802F0EFFD214961
:1069D0002148091D401C02F0E9FD1E491E480831EE
:1069E000801C02F0E3FD1B491B480C31C01C02F067
:1069F000DDFD184918481031001D02F0D7FD15497A
:106A000015481431401D02F0D1FD12481349027897
:106A1000CA714268531E0B2B00D88A718268531EBC
:106A20001E2B00D80A71C268182A00D8CA700269E1
:106A30003B2A00D88A7040693B2800D84870084833
:106A4000816806488847074A0749012002F0B2FEDC
:106A5000002010BDBC00002006600000780000206F
:106A6000F8450100B96700003569000070B50446BB
:106A70008078012500281FD0012806D0882112A087
:106A800002F0E2FBA078002816D020781A4982088C
:106A90009200521811688007C30EFF20984081436E
:106AA00060788007000E9840084310602078C00688
:106AB000C00E8540114805E02078C006C00E854014
:106AC0000E488030056070BD41534D3131787842B9
:106AD00053505C4D313133305F537464506572698B
:106AE00070685F4472697665725C7372635C6D692D
:106AF00073632E630000000000E400E000E100E0AA
:106B00000148006A704700000002004010B5314C97
:106B10006068002806D0642807D0A178002906D034
:106B2000401C05E00121A170FAE70021A170401E80
:106B30000A216060FAF750F8C2B2227061702648EC
:106B4000130002F0BAF80B0709181A1C1E202224A1
:106B500026280C00352100E0362102F04DFF617837
:106B60001D480B00401C02F0A8F80A181A24262819
:106B70002A2C2E30321D3721EFE73821EDE739215D
:106B8000EBE73A21E9E73B21E7E73C21E5E73D2157
:106B9000E3E73E21E1E74921DFE73F2100E0402133
:106BA00002F02AFF0C486168801C02F083FF00207D
:106BB00010BD4121F4E74221F2E74321F0E74421EF
:106BC000EEE74521ECE74621EAE74721E8E74821DF
:106BD000E6E70000AC0000200240000070B520484D
:106BE00002F05EFC1E48F63002F05AFC1D4802F02E
:106BF00057FC1B48263002F053FC19485A3002F06B
:106C00004FFC17488E3002F04BFC16486B3802F0F0
:106C100047FC154A1549012002F04CFE134C144A5A
:106C2000641F2146042002F045FEFF21D2224B3191
:106C3000204602F00FFF651C0E49284602F0B6FC04
:106C40000C492046091D02F0B1FCFF212D312846D8
:106C500002F030FFD221204602F02CFF002070BD50
:106C6000FA560100275801008D1B00000750000054
:106C70007D6C0000B40000200020704710B515495D
:106C8000154802F093FC144C1249641C091F20465D
:106C900002F08CFC0F4A121F5168D22902D3084619
:106CA0005A301060FF200F30814201D10023136061
:106CB000814203D30846FF380F3810600846FF387A
:106CC0004B3801D13C2010602046116802F0F2FEE2
:106CD000002010BDB800002002500000FEB50446A0
:106CE000401C4179027909021143427A007A150267
:106CF0000543680802900818FAF78DF90190217A87
:106D0000E27909021143227BE07A170207437808EF
:106D100000900818FAF77FF90646BD4201D900989D
:106D200000E00298FAF777F90546E07DA17D0002C0
:106D30000843FF216931884202D30020A075E07525
:106D4000E07DA17D0002084387000D482946C05917
:106D5000FAF712F80199F9F7B6FFFAF79EF92076DB
:106D6000000A607607482946C059FAF705F8314607
:106D7000F9F7A9FFFAF791F9A076000AE076FEBDCF
:106D8000407D0100A0770100F0B585B000287CD0DF
:106D90000446401C4179027909021143427A037A80
:106DA000100218434008081880B20390217AE27953
:106DB00009021143227BE37A1002184340080818A5
:106DC00085B2607E227E010203981143814201D97F
:106DD0000A4601E002460846E17EA67E0B023343E6
:106DE000AB4202D929461F4601E02F461946637B74
:106DF000022B04D0032B14D0012B24D02DE0E37BF5
:106E0000A67B1B0233437E1AB446761C171AB6B211
:106E10007A1C92B20196029300926646B3B2BAB25D
:106E20000EE0E37BA67B1B023343121A7E1A521C30
:106E3000761C92B2B6B20293009201960B460246BD
:106E400004F038FC09E0637C267C1B023343174EB8
:106E5000F380174B9E683B46B047E07DA17D000262
:106E60000843FF216931884202D30020A075E075F4
:106E7000E07CA17C000208430C49C880627D294661
:106E8000039804F071FA204600E00DE0FFF726FFBA
:106E9000E07EA17E0302607E0B43217E02020A4354
:106EA0002946039804F0B6FB05B0F0BD04000020AD
:106EB000480B000010B5134802F0F2FA11485C309C
:106EC00002F0EEFA0F48263002F0EAFA0D4841309F
:106ED00002F0E6FA0B48803002F0E2FA09489030FE
:106EE00002F0DEFA084A0949032002F0E3FC0749F0
:106EF000074A091F012002F0DDFC06490020486016
:106F000010BD00004F5601000D6B00000540000051
:106F1000751B0000AC0000200020704778B51D46AE
:106F2000059E04460023521E30090CD03009009003
:106F30002B462046FFF7F2FF0346E41805E02170D8
:106F4000521E5B1C641C002AF9DC3007000F0A2863
:106F500001D2303004E0002D01D0373000E057304E
:106F60002070581C78BDFFB5002581B00446002B69
:106F700001DA5E4200E01E46521E1746092E14D961
:106F8000002B05DA0A213046F9F726FE434204E0D9
:106F90000A213046F9F720FE03463A462046029978
:106FA000FFF7E1FF0546641910E0002B06DA571ED3
:106FB00004E002982070641C6D1C7F1E002FF8DC1A
:106FC000002B03DA2D202070641C6D1C0A21304632
:106FD000F9F702FE30312170681C05B0F0BD0246A1
:106FE000002003E01370401C491C521C0B78002B3E
:106FF000F8D17047FFB581B0044604980025561EAD
:107000000F4609280FD90A21F9F7E6FD0346324653
:1070100039462046FFF7EEFF0546641905E0277064
:10702000641C6D1C761E002EF9DC0A210498F9F709
:10703000D3FD30312170681C05B0F0BDF8B545496D
:10704000044608698A69C0B2896AD6B2CFB2012102
:107050008907096B404AC906C90E0A31514300919C
:10706000002808D0012804D0022804D0032804D026
:1070700004E00D4602E0384D00E0384D3548403020
:1070800001682846F9F7A8FD2146802C22D001206E
:1070900080070818902C0AD0942C08D0982C06D081
:1070A000B42C18D0B82C28D0A02949D0FEE70178FC
:1070B00000294DD0002E06D0012E06D0022E02D07F
:1070C000032E04D005E0017815E0017811E0017885
:1070D0002EE02046F8BD1F484030416B002937D0D4
:1070E000002F03D0012F03D0022FF2D1416B02E019
:1070F000416B009814E0184812E016484030816B4C
:10710000002925D0002C15D0012C0DD0022C0ED03A
:10711000032C0FD0042C0FD0052CDAD1816B104832
:10712000F9F75AFD0446D4E7816B2846F8E7816BEE
:107130000A48F5E7816BDEE7816B7D200002EFE70F
:107140000178002904D001782846F9F745FDF8BDFB
:107150000020F8BD40000040001BB70010270000D1
:10716000006CDC0200B50346012100F049F8002163
:10717000184600F04DF80121184600F049F800BD0E
:1071800070B50D46044680281BD0902C19D0942C45
:1071900017D0982C15D0A02C13D0A42C11D0A82C2B
:1071A0000FD0AC2C0DD0B42C0BD0B82C09D0BC2CEB
:1071B00007D0C02C05D0D02C03D0E92103A002F0C9
:1071C00043F8012080072018057070BD41534D31F0
:1071D0003178784253505C4D313133305F537464B1
:1071E0005065726970685F4472697665725C73722B
:1071F000635C6D313133305F7263632E6300000076
:1072000001229207002901D05061704790617047B8
:1072100001229207002901D05060704790607047AA
:1072200010B5040009D0012C07D0022C05D0032C86
:1072300003D0A72104A002F007F8104884610021C0
:10724000C1610121C16110BD41534D313178784296
:1072500053505C4D313133305F5374645065726903
:1072600070685F4472697665725C7372635C6D31DD
:107270003133305F7263632E6300000040000040D2
:10728000F8B5064604200090154B01220521512037
:10729000FEF764FB002802DA0020C043F8BD104C62
:1072A00020788006800E207060784007400F607064
:1072B000A078C006C00EA0700025605DFAF796FCAD
:1072C00060556D1CEDB2042DF7D3207830706078D6
:1072D0007070A078B070E078F0700020F8BD000009
:1072E0006C000020F8B50546072000901E4B0122D7
:1072F00002215120FEF732FB002802DA0020C043B1
:10730000F8BD194C20784006400E20706078400689
:10731000400E6070A0788006800EA070E078800635
:10732000800EE07020794007400F20716079C00620
:10733000C00E60710026A05DFAF758FCA055761CBF
:10734000F6B2072EF7D3207868706078A870A0781E
:10735000E870E0782871207968716079A871A07967
:10736000E8710020F8BD00006C000020F8B506466A
:1073700003200090144B012202215120FEF7EEFA67
:10738000002802DA0020C043F8BD0F4C20784006E8
:10739000400E207060784006400E6070A078800635
:1073A000800EA0700025605DFAF720FC60556D1C12
:1073B000EDB2032DF7D3207870706078B070A078AC
:1073C000F0700020F8BD00006C00002038B50446C5
:1073D0000078FAF72AFC0E4D28706078FAF725FC41
:1073E0006870A078FAF721FCA870E078FAF71DFC25
:1073F000E870042000902B46012205215120FEF761
:10740000C9FB002802DA0020C04338BD002038BD87
:107410006C00002038B504464078FAF706FC164D9B
:107420002870A078FAF701FC6870E078FAF7FDFBA5
:10743000A8702079FAF7F9FBE8706079FAF7F5FBA4
:107440002871A079FAF7F1FB6871E079FAF7EDFBA2
:10745000A871072000902B46012202215120FEF73F
:1074600099FB002805DA05A001F0ECFB0020C043E1
:1074700038BD002038BD00006C00002077726974B0
:1074800065206572726F720D0A00000038B50446FF
:107490004078FAF7CAFB0C4D2870A078FAF7C5FBC4
:1074A0006870E078FAF7C1FBA870032000902B46C3
:1074B000012202215120FEF76DFB002802DA002094
:1074C000C04338BD002038BD6C000020F8B53048FE
:1074D000C269C16805688069561A6D43471A52E04F
:1074E0002B488168C85D00284CD0A8423AD13C4660
:1074F000274804E00A195278AA4202D1641CB44217
:10750000F8DB4169BC421AD0002916DD214B5A88AC
:107510008A4212DDC268D0191219002800DA002050
:107520001B88934200DA1A46824206DD1A4F8BB25C
:10753000BF6892B289B280B2B847274622E00029DC
:1075400020DD144A53888B421CDDC068C019002816
:1075500018DD1288904215DD0F4A89B2126880B298
:1075600090470FE00101081AE90F49194910401826
:107570002946F9F747FB0649C2B2C8684969C019EC
:10758000FCF7D6FE7F1CB742AADDFAF75FFBF8BD19
:107590004002002004000020480B0000F0B5352216
:1075A00003465343114A9B185B5C9B061DD4891EFE
:1075B00000238C46801E0E490022CC5C6146CE180A
:1075C00004218F1A0125BD402C4201D0302100E05A
:1075D0002021851835277D43044F521CED19A955EC
:1075E000052AEDDB5B1C052BE5DBF0BDA8160020B2
:1075F000C45C0100F7B5411C04D01D218518890128
:107600008D4202DD0020C043FEBD002101241CE0AC
:10761000561A2346761EB340019E334214D04318B7
:10762000DE17760FF7189C46FB100A4EFF089B19D1
:107630009E461E78FF006346DB1B0727FF1A234682
:10764000BB401E4373461E70491C9142E0DB284636
:10765000FEBD0000AD230020FCB51D4A0123D0690A
:107660000090411E12699E46002401922DE00022E6
:10767000C0185B4210D5714400290ADB009DA94265
:107680000AD1691E75466D42801EAE46062802D09C
:1076900002E00021F6E70520352506466E430D4D34
:1076A0007519AC466D5CAD06E2D40B4D0726B71AD2
:1076B0002D5D0126BE40354000D002256646521C95
:1076C0007554082AD4DB019A641C9442CFDBFCBDBC
:1076D00008010020A8160020A1210020F0B50023F9
:1076E0008E46844606260D480022C45C7046C718A4
:1076F000B01A012585402C4201D0302000E0202026
:107700006546AD1835214D430549521C6D18E855A5
:10771000072AEDDB5B1C072BE5DBF0BDC95C010034
:10772000A8160020F0B5414C2168002922D001297B
:1077300022D0022922D010210818810200220E2511
:107740000E460120AF1A0346BB400B4204D004236F
:107750009F1A374BBB405940521C052AF2DB721866
:1077600034494A403449002306469E40164207D019
:10777000302606E00821DFE70021DDE71821DBE7FE
:107780002026CF18FF37A1375B1C3E72052BEBDD9F
:10779000530601D5302600E02026284BDE7316065E
:1077A00001D5302600E020261E74D30501D53026F1
:1077B00000E02026214B403BDE76092305469D4014
:1077C000154201D0302600E020260E25ED1A35277F
:1077D0007D436D185B1C2E720E2BEFDDE4690023D8
:1077E00005469D40154201D0302600E02026E51ACE
:1077F00035277D436D18403D5B1CEE74072BEFDD94
:107800000D19FF353023A1352B70082305469D4007
:10781000154201D0302500E02025E6187618FF3605
:1078200081365B1C75760E2BF0DDF0BD0801002063
:107830003705000012540000A81600204818002048
:10784000F8B500210846FFF749FF4A4C0021E069DE
:10785000C01FFFF743FFE1690020C91FFFF73EFF8C
:10786000E0693521444C414300220F198446202110
:10787000A318FF336133D974352353431D1983187B
:1078800035265E433619FF3EE971C13EF177BE18D9
:10789000FF3E1B19C13EFF3331766133D9722B187D
:1078A000203B521C1976082AE2DB00202218FF3206
:1078B000A1321172352242431219401C117209285B
:1078C000F4DB2C4E0020624613181D19FF35A1353C
:1078D000297035256B431B19FF3BA13B401C1970D8
:1078E0000828F1DB00F0ACFA002520E04019234F16
:1078F000407B0621FFF752FE70682C214843C019D7
:107900004019417B0620FFF749FE002706E0C11918
:107910004019497B407BFFF741FE7F1C71682C209A
:10792000414316480818017BB942F0DC6D1C7068B1
:107930002C21484311494018027BAA42D6DCF16948
:10794000082009390EE0C2070FD020233522424318
:1079500012199371C2070AD020232218FF32213254
:107960009377401C8842EEDDF8BD3023EEE73023EC
:10797000F3E7000008010020A8160020D05C0100F9
:10798000F8B5BEA20121BE4802F076F8BC48BBA201
:107990000121401C02F070F8B948B8A20121801CF6
:1079A00002F06AF8B74C0025B548A560A580B3A2DF
:1079B0000121401E02F060F8A560A5802178B04C3E
:1079C000AF48641D2030651CA61CE71C0B0001F0AD
:1079D00074F905044882C6FEFD00ABA2052102F041
:1079E0004BF8ABA20221204602F046F8A9A20421DE
:1079F000284602F041F8A8A20421304602F03CF8E3
:107A0000A6A20421384602F037F89D48A4A202211C
:107A1000093002F031F89A48A2A204210A3002F09B
:107A20002BF89748A0A204210B3002F025F89448C7
:107A30009EA204210C3002F01FF891489CA2022162
:107A40000D3002F019F88E489AA202210E3002F091
:107A500013F88B4898A204210F3002F00DF897A27A
:107A600031E097A2052102F007F889A20221204601
:107A700002F002F894A20421284601F0FDFF93A22F
:107A80000421304601F0F8FF91A20421384601F0AC
:107A9000F3FF7B4882A20221093001F0EDFF784814
:107AA0008CA204210A3001F0E7FF75488AA2042164
:107AB0000B3001F0E1FF724888A204210C3001F084
:107AC000DBFF7BA238E004216D48103001F0D4FFC9
:107AD00083A204218CE083A2052101F0CDFF83A2C3
:107AE0000221204601F0C8FF77A20421284601F0B8
:107AF000C3FF76A20421304601F0BEFF74A2042128
:107B0000384601F0B9FF5E4879A20221093001F040
:107B1000B3FF5B486FA204210A3001F0ADFF584863
:107B20006DA204210B3001F0A7FF55486BA2042180
:107B30000C3001F0A1FF6FA2514802210D3001F07D
:107B40009BFF4F486CA202210E3001F095FF4C487C
:107B50006AA204210F3001F08FFF69A2B3E750A29F
:107B60000121204601F088FF66A20221284601F08B
:107B700083FF65A20221304601F07EFF63A202214D
:107B8000384601F079FF3E483CA20121093001F05E
:107B900073FF3B485EA202210A3001F06DFF3848B6
:107BA0005CA202210B3001F067FF35485AA2022186
:107BB0000C3001F061FF324830A201210D3001F09C
:107BC0005BFF2F48022155A20E3001E014E014E0C3
:107BD00001F052FF2A4852A202210F3001F04CFF5F
:107BE000274850A20221103001F046FF4EA2022188
:107BF00023481F3001F040FFF8BD4CA2042120466D
:107C000001F03AFF4AA20421284601F035FF49A2BB
:107C10000421304601F030FF47A20421384601F02C
:107C20002BFF174845A20421093001F025FF144815
:107C300043A204210A3001F01FFF114841A2042190
:107C40000B3001F019FF0E483FA204210C3001F067
:107C500013FF0B483DA204210D3001F00DFF084831
:107C60003BA204210E3001F007FF054839A2042190
:107C70000F3001F001FF38A2052125E700000000C8
:107C80000380000074020020B4F3D0B400000000B0
:107C90002C0000004142430044454600474849004B
:107CA0002E0000004A4B4C004D4E4F0050515200E8
:107CB0003F000000535400005556570058595A00D1
:107CC000D0A1D0B40000000061626300646566006A
:107CD000676869006A6B6C006D6E6F00707172008E
:107CE00073706100D6D0CEC40000000061000000B7
:107CF0006200000063000000737400007576770076
:107D000078797A0031000000320000003300000072
:107D1000340000003500000036000000370000008D
:107D2000380000003900000030000000212223004C
:107D300024252600272829002A2E2C002D2B3D0043
:107D40003A3B2F003C3E3F00405B5D005C5E5F00C5
:107D5000607B7D007C7E0000A3ACA1A3000000003E
:107D6000F1B5354882B00024C66962E000255DE0C7
:107D7000352029464143314808180090075DB80670
:107D800053D40298030000F098FF0705090D10175F
:107D9000213A440020466840C00700E0E007C017D1
:107DA000401C24E00321284601E060190321F8F774
:107DB00029FF002932D019E003212846F8F722FFD5
:107DC000E10F091949104840C0070DE020466843FB
:107DD00003210190F8F716FF0198C20F101842080E
:107DE00001985200801A0818002817D0002079083E
:107DF000022249001740012F12D9012211E020462A
:107E0000684301900321F8F7FDFE01984140C8073F
:107E1000EAE76019019020466843F3E70120E6E7AE
:107E2000002242400098114301556D1CB5429FDB72
:107E3000641CB4429ADBFEBD08010020A816002095
:107E4000F0B51F4F7868062838DD000300211125A2
:107E5000044601226E1A1346B340034204D00523A0
:107E60005E1A184BB3405840491C0629F2DB201813
:107E7000F9698646144A00208C464300C51835230C
:107E8000002143439C186E180123B34076463342C9
:107E900001D0302600E0202667467B18E718203FF7
:107EA0007E7535277B439B181F18084B491CFB1810
:107EB0005E760329E7DB401C0628DEDBF0BD000010
:107EC00008010020251F0000A8160020A0FDFFFFCC
:107ED000F0B58BB0411C0691074680790A79030200
:107EE00013433A7AFC79150225434A7F0C7F12022C
:107EF000224309924C7A097A24020C43F81CA646C4
:107F00006108AC46447A057A24022C436408644430
:107F1000A5B20646447D307D24025B1820439CB206
:107F2000002A55D05A2A5DD0B42A62D013466A4638
:107F3000FF3B14800F3B558046D04008081AF9F7E4
:107F40005FF80999414A8900079003915158F8F761
:107F500013FF00902046F9F75EF80099F8F7B3FE9A
:107F6000F9F79BF83A4A039984B251580798F8F701
:107F700003FF00902846F9F74EF80099F8F7A3FEA2
:107F8000F9F78BF885B23477200A707738462130BC
:107F90000570290A4170B87D022832D0012811D11C
:107FA0006846048045800698417E027E0802294981
:107FB0001043C880707D317D00020843410800985D
:107FC00003F038FC0BB0F0BD4008081A281AD9E7B6
:107FD00069460C804D807146081AC10F0818401080
:107FE00020180CE06A4640081480081A5580401991
:107FF000C8E76A4640081480081A5580201A84B2DF
:10800000C1E7707D317D000208434008211A281A1B
:1080100083B206988AB2417E047E0802797D2043AD
:108020000C023D7D717E2C43357E0902294301946B
:1080300000910290707934790102069821434479C5
:1080400005792002284303F0BBF8BBE7FC7101006F
:10805000586C010004000020FEB5817943790E02BE
:108060001E43037AC5791B022B430093857A477A16
:108070002A023A43457E077E2D023D43551B427F2F
:10808000077F12023A430446C11C437BC77EA07E91
:108090003F0207430297487A097A00020843C71B48
:1080A0000190002B36D0B9B2104648436421F8F74E
:1080B000A9FD009A01998918091A0298081A81B233
:1080C000E80F40194010801980B2A077030AE377C7
:1080D0002246203211700B0A5370E27C022A28D00B
:1080E000012A16D1627D237D12021A43144BDA80D5
:1080F000E27EA37E12021A434B1ED21893B2627E16
:10810000247E12022243441E12190E4C92B2A4681D
:10811000A047FEBDA9B2104648436421F8F772FD9E
:10812000F90FC9194A103018009980B2511889B254
:10813000CBE7E27DA37D12021A4303F08FF9FEBD67
:1081400004000020480B00007FB501208007416932
:10815000C21211434161684600F0AEFA5F206946E1
:1081600008807D20C00001900024104D0C814C80BF
:10817000284600F025FA1021284600F089F901214F
:10818000284600F097F801221146284600F02AF907
:10819000032069460873012088734C7303A8FEF717
:1081A00065FC0121284600F0CDF87FBD00C00040ED
:1081B00010B500210120114A80074261104B0422B2
:1081C0001A60104A9368FF241134A34393600E4A47
:1081D0000263C21303E00B46491C934202D2436B75
:1081E000012BF8D17D20C000F8F7DCFA044801210A
:1081F0004038016100224261416110BD1808000051
:108200008000004000020040160000C030B5044667
:108210008BB02020FEF7A6FF244D0222D105284670
:10822000FCF75CFF022211062846FCF757FF01A865
:1082300000F0F6FC002010210290019004940391BC
:108240000A90099003210790069009026020089186
:10825000059001212020FEF7D3FF0120FEF7E0FF6B
:1082600020219020FEF78CFF114C204600F08CFC62
:1082700001A9204600F084FB092168460170012114
:10828000817003214170FEF7F1FBFF200004A06024
:10829000E0016060052101220905204600F024FB71
:1082A0000121204600F0E2FA0BB030BD000003408F
:1082B0000020004070B504460F480D4684420FD0A0
:1082C0000E4884420CD00E48844209D00D488442A6
:1082D00006D00D48844203D00C490DA000F0B4FF35
:1082E000280A01D1002D04D1084909A0491C00F039
:1082F000ABFFE843208270BD00A0004000A8004012
:1083000000B0004000C0004000C8004077090000F5
:1083100041534D313178784253505C4D31313330D7
:108320005F5374645065726970685F447269766502
:10833000725C7372635C6D313133305F74696D2EC2
:108340006300000070B5044612480D46844210D008
:10835000114884420DD0114884420AD0104884420A
:1083600007D01048844204D0112149010EA000F02A
:108370006BFF002D09D0012D03D018490AA000F091
:1083800063FF20680121084302E020681449084087
:10839000206070BD00A0004000A8004000B0004078
:1083A00000C0004000C8004041534D313178784250
:1083B00053505C4D313133305F5374645065726992
:1083C00070685F4472697665725C7372635C6D316C
:1083D0003133305F74696D2E6300000021020000AC
:1083E000FEFF000070B50446164816460D4684424E
:1083F0000FD0154884420CD01448844209D0144848
:10840000844206D01348844203D0134913A000F0DD
:108410001BFF280A01D1002D04D10F490FA0491CD0
:1084200000F012FF002E09D0012E04D00A490BA043
:10843000891C00F009FFA089284301E0A089A84316
:10844000A08170BD00A0004000A8004000B0004026
:1084500000C0004000C80040B908000041534D3141
:108460003178784253505C4D313133305F5374640E
:108470005065726970685F4472697665725C737288
:10848000635C6D313133305F74696D2E63000000C1
:1084900070B5054618480C4685420FD017488542EE
:1084A0000CD01748854209D01648854206D0164898
:1084B000854203D0154916A000F0C6FE002C12D04C
:1084C000102C10D0202C0ED0302C0CD0402C0AD0E8
:1084D000502C08D0602C06D0702C04D00B490CA076
:1084E000491C00F0B1FEA88870218843A880A888A4
:1084F0002043A88070BD000000A0004000A80040FC
:1085000000B0004000C0004000C80040D60A000093
:1085100041534D313178784253505C4D31313330D5
:108520005F5374645065726970685F447269766500
:10853000725C7372635C6D313133305F74696D2EC0
:108540006300000070B504460A480D4684420FD00F
:10855000094884420CD00948844209D00848844222
:1085600006D00848844203D0074908A000F06CFEFA
:10857000A58670BD00A0004000A8004000B00040EB
:1085800000C0004000C800405104000041534D317C
:108590003178784253505C4D313133305F537464DD
:1085A0005065726970685F4472697665725C737257
:1085B000635C6D313133305F74696D2E6300000090
:1085C000F8B52A4E2A4F0D460446B0420ED0BC42A2
:1085D0000CD02848844209D02748844206D0274836
:1085E000844203D0F22126A000F02EFE68880028E5
:1085F0000BD0102809D0202807D0402805D06028AB
:1086000003D0F3211EA000F01FFE2889002809D006
:10861000C11FF93906D0FF39013903D0F42118A060
:1086200000F012FE2068B44280B201D0BC4203D1F7
:1086300070218843698808431E49084029890143FD
:108640002160A888A08528882085B44208D00948E0
:10865000844205D00848844202D00848844201D1AF
:10866000A87A20860120A082F8BD000000A000406A
:1086700000A8004000B0004000C0004000C800401A
:1086800041534D313178784253505C4D3131333064
:108690005F5374645065726970685F44726976658F
:1086A000725C7372635C6D313133305F74696D2E4F
:1086B00063000000FFFC00000021C943416000216D
:1086C000018001814180817270470000F0B5002374
:1086D00001222B49D2028A600D158D60D6018E6071
:1086E0001C46070601D54D6000E08D6000BF00BF4D
:1086F00000BF00BF00BF00BF00BF00BF8A604006D0
:10870000000E4A60641CE4B2082CEAD300BF00BF2C
:1087100000BF00BF00BF00BF00BF00BF00BF00BF61
:1087200000BF00BF8A6000BF00BF00BF00BF00BF26
:1087300000BF00BF00BF00BF00BF00BF00BF4A6056
:108740008A6000200124A4035B041B0C4A6000BF64
:1087500000BF00BF00BF00BF00BF00BF00BF00BF21
:1087600000BF00BF00BF0D68254201D05B1C9BB25B
:108770008A60401CC0B21028E6D318094E60F0BDD4
:108780000000034070B501251C4CAD0400222946B1
:108790002046FCF7A3FC012229462046FCF746FCB4
:1087A000174D002220212846FCF798FC01222021A9
:1087B0002846FCF73BFC0125AD0300222946204654
:1087C000FCF78CFC002229462046FCF72FFC2515DF
:1087D000002229462046FCF781FC0122294620463A
:1087E000FCF724FCE514002229462046FCF776FC21
:1087F000012229462046FCF719FC70BD0000034009
:10880000000002407FB501208007416982121143B8
:1088100041616846FFF750FF5F20694608807D2070
:10882000C00001900024104D0C814C802846FFF7B9
:10883000C7FE10212846FFF72BFE01212846FFF72F
:1088400039FD012211462846FFF7CCFD0420694678
:108850000873012088734C7303A8FEF707F9012100
:108860002846FFF76FFD7FBD00C8004070B5044685
:108870000D480D46844209D00C48844206D00C486D
:10888000844203D0DF210BA000F0DEFC0126002D86
:1088900007D0012D03D0E02106A000F0D5FC6662D0
:1088A00070BDA66270BD0000002000400030004096
:1088B0000060004041534D313178784253505C4D57
:1088C000313133305F5374645065726970685F444E
:1088D00072697665725C7372635C6D313133305FDF
:1088E00075736172742E630070B5044613481646A2
:1088F0000D4684420AD01248844207D0114884426F
:1089000004D0FF213D3110A000F09EFCA800800D96
:1089100002D01A48054204D0FF213E310AA000F0DF
:1089200093FC002E08D0012E04D0FF213F3106A079
:1089300000F08AFC656470BDA56470BD0020004035
:10894000003000400060004041534D3131787842A2
:1089500053505C4D313133305F53746450657269EC
:1089600070685F4472697665725C7372635C6D31C6
:108970003133305F75736172742E6300FFFF0FC077
:10898000FEB5054600206E4E6E4F0C460190B54276
:1089900008D0BD4206D06C48854203D08F216BA021
:1089A00000F052FC2069002809D0202807D0402878
:1089B00005D0602803D0912164A000F045FC6069D7
:1089C000002805D0082803D0922160A000F03CFCCC
:1089D000A06900280BD0062809D0022807D08228D9
:1089E00005D0862803D0932158A000F02DFCE06923
:1089F000C11FF9390AD0FF39013907D00321090213
:108A0000884203D0942151A000F01EFC206A002867
:108A10000ED00121890388420AD04900884207D03C
:108A200003218903884203D0952148A000F00CFC63
:108A3000606A002807D00121C902884203D096212C
:108A400042A000F001FC2068002812D00121090496
:108A500088420ED0490088420BD003210904884285
:108A600007D001218904884203D0972137A000F064
:108A7000EBFB6068002812D00121090588420ED066
:108A8000490088420BD003210905884207D0012103
:108A90008905884203D098212CA000F0D5FBA0685E
:108AA000102805D0002803D0992128A000F0CCFB85
:108AB000206A00280AD0B54208D0BD4206D022481C
:108AC000854203D09E2121A000F0BEFB0320800739
:108AD000A860286B2A4908400090B54201D1902037
:108AE00007E0BD4201D1942003E01748854203D13D
:108AF0009820FEF7A3FA01900198E1688000F8F74A
:108B00006BF8810680098A0C800181026369206903
:108B1000114318430843A1690843A1680843009919
:108B200008432863296A1748014005CCA36910430C
:108B300062691A431043E269104308432862FEBD8C
:108B400000200040003000400060004041534D31A3
:108B50003178784253505C4D313133305F53746417
:108B60005065726970685F4472697665725C737291
:108B7000635C6D313133305F75736172742E6300E5
:108B800001C00000FF3488FF70B5044614488442D9
:108B900012D0144D144EAC4205D0B44215D06E2103
:108BA00012A000F051FBAC420DD100214020FEF795
:108BB0002FFB0121402010E000212020FEF728FBA0
:108BC0000121202009E0B44209D10124E40600215A
:108BD0002046FEF71DFB01212046FEF719FB70BD64
:108BE00000200040003000400060004041534D3103
:108BF0003178784253505C4D313133305F53746477
:108C00005065726970685F4472697665725C7372F0
:108C1000635C6D313133305F75736172742E630044
:108C20000021016010228260E12241605202C26094
:108C30006022416102618161D2000162C2614162D0
:108C4000704700000FB410B503A9044B044A029802
:108C500000F096F810BC08BC04B01847B507000037
:108C60008C0200200FB410B504A9074B02AA039888
:108C700000F086F8044602A9002000F0BBFA204666
:108C800010BC08BC04B01847F59100002021020C6C
:108C900001D010211046020A01D0104608390209FD
:108CA00001D01046091F820801D01046891E4208D3
:108CB00001D0881E7047081A704730B47446641E8D
:108CC0002578641CAB4200D21D46635D5B00E3184F
:108CD00030BC184730B5002805D0164C021F20685C
:108CE0000023014605E0084630BD904203D8034604
:108CF00040680028F9D1002B00D05968002B0AD019
:108D00001C68D51AA54204D11268A4181A461C6022
:108D100002E05A6000E02260002807D01468851A3B
:108D2000A54203D105686419146040685060184674
:108D300030BD000090020020F1B50E4C0F480C4EE3
:108D4000001B0D4FC508ED0000221146009801F0F0
:108D5000C9FD002803D13068002801D00020F8BDEB
:108D60003C6000202560606001203060ECE700007E
:108D700094020020AC26002090020020A87600205B
:108D8000FFB591B00F460546002606E025280AD01B
:108D9000149A139990476D1C761C28780028F5D1F9
:108DA000304615B0F0BD002400940121F34A02942E
:108DB00000E004436D1C2B780846203B984010428D
:108DC000F7D128782A280ED0022128780246303A96
:108DD000092A15D8009A0A235A43303A80180C43BE
:108DE0006D1C0090F1E701CF0090002805DA01200A
:108DF00040030443009840420090022004436D1C4D
:108E000028782E2815D10420044368786D1C2A2860
:108E10000AD101CF6D1C02900BE002990A22514346
:108E2000303940186D1C02902878014630390929E4
:108E3000F3D928786C2810D006DC4C281AD0682882
:108E40000ED06A2817D104E0742813D07A2812D1E2
:108E500010E00120400504430CE00121090501E078
:108E6000032109050C436978814203D101200005E3
:108E700024186D1C6D1C287803906E281ED00CDC05
:108E8000632831D004DC00288AD0582811D1B2E000
:108E900064287BD069280CD178E073282DD004DCBD
:108EA0006F2870D0702804D1A7E075286CD078287E
:108EB0006BD0149A13999047761C62E06002400FC1
:108EC000022807D003280AD0042838680AD0066090
:108ED0003F1D56E03868F11706604160F8E73868D2
:108EE0000680F5E70670F3E73878694608740020D5
:108EF000487404A80390012003E038680390002020
:108F0000C0433F1D61070FD5002101E00199491CB5
:108F1000029A0191914213DA8142F7DB019A039997
:108F2000895C0029F2D10BE0002101E00199491C84
:108F300001918142FADB019A0399895C0029F5D1FC
:108F400001990098139A401A00902146149B00F052
:108F50003BF901998019461807E0039803990078B6
:108F6000491C0391149A139990470198401E01904F
:108F7000401CF2D12146149B139A009800F014F97A
:108F800086196D1C09E741E033E034E00A20002136
:108F9000049005916002410F022905D001CFC2174C
:108FA0009446032905D007E0FF1DFF08FF0003CF0B
:108FB00006E000B2C2179446042902D140B2C1179C
:108FC0008C4600226146944506DA0A46002140425A
:108FD00091418C462D2102E0210504D52B216A46C2
:108FE0001176012103E0E10701D02021F7E701918B
:108FF00054E00A200BE0102009E01020049000212A
:109000000420044308200591029003E00820002179
:10901000059104906002410F022905D001CF002282
:109020009446032906D006E0FF1DFF08FF0003CF8A
:109030008C4603E080B2042900D1C0B20021019126
:1090400021072BD50399702906D0049A1021059B7E
:109050004A401A4305D00EE040216A4611760121AC
:1090600008E06146014306D030216A461176039933
:10907000517602210191049A0821059B4A401A4326
:109080000CD16146014301D1610707D530216A4601
:109090001176012101910299491E029103995829E3
:1090A00004D037A103910FA90F910DE039A1F9E781
:1090B0006146059B049AF8F76DF8039B8C469B5C10
:1090C0000F9A521E0F92137061460143F0D10F9810
:1090D00007A9081A20300390600704D50120000476
:1090E0008443029801E0012002900399884201DD47
:1090F000401A00E0002041180290019809180098D9
:10910000401A0090E00306D42146149B139A00985D
:1091100000F05AF886190020049008E006A9085CBF
:10912000149A139990470498401C761C0490019956
:109130008842F3DBE0030CD52146149B139A009878
:1091400000F042F8861904E0149A302013999047F1
:10915000761C0299481E02900029F5DC08E00F9861
:109160000F990078491C0F91149A13999047761C17
:109170000399481E03900029F1DCFBE60928010051
:10918000303132333435363738396162636465667D
:10919000000000003031323334353637383941423F
:1091A0004344454600000000F8B5044600251E462D
:1091B0001746880404D405E039462020B0476D1CCA
:1091C000641EF9D52846F8BDFFB50446002581B0D8
:1091D0001E46C80301D5302700E02027880404D5A7
:1091E00005E038460399B0476D1C641EF9D5284642
:1091F00005B0F0BD0A68531C0B601070704700008A
:109200001CB500216A460091918001A900F0BCF9CB
:10921000009A002A14D068468188002910D00020C6
:1092200004E0135C002B03D0401C80B28842F8D3CA
:10923000002805D00121034800F014F901F000FCDA
:109240001CBD0000028000000A46014601A0FFF795
:10925000F9FCFEE757726F6E6720706172616D6591
:10926000746572732076616C75653A2066696C6509
:10927000202573206F6E206C696E652025640D0AB1
:1092800000000000F8B53148314900680968314AEA
:10929000401A0121C9024118002000910B5C1354AF
:1092A000401C3828FAD32C482A4C816BA161C06B32
:1092B000E061FCF7B1FFFDF723FCC043E060FCF781
:1092C0009FFF60612269A168244D8918A269AC469C
:1092D0008B18E16800220818E16944181D483030F5
:1092E000014618C010391446083843680E681D013D
:1092F0006244AD199E1875404F685E09F6197540B5
:109300000668641CAD1905608F682E01F619AF1848
:109310007E40CF686D09ED196E40F3184360082C4C
:10932000E3D30C490E4AC868904208D1002082005D
:1093300053181C6B009BD218126B944201D0012071
:10934000F8BD401C0228F2D30020F8BD24460100DD
:1093500028460100C0120020C07F0020B979379E46
:10936000CFEEFFFF7CB50E46054600F081FA02F015
:1093700071FB04460168104801606168416000208B
:1093800020606060002D02D03046A8470646002EBF
:1093900005D000221146104601F0CCFA7CBD00F049
:1093A00067FA0420694608802046891CF7F782FC8A
:1093B000684602F083FF7CBD84020020F8B5864633
:1093C00000200546034605E07246D25C002A04D020
:1093D0005B1CDBB28B42F7D3F8BD002BFCD0FF2126
:1093E0009931002200910C2716467E430021104F30
:1093F0000C46F619B4460CE07646365D2146002E42
:1094000009D067467F683F5D002F04D0BE4202D17D
:109410004C1C9C42F0D98D4201D20D461046994217
:1094200001D31046F8BD0099521C8A42DBD3F8BD27
:109430000CC5010000487047E4000020002804D05B
:10944000FF219931884201D3002070470C21484305
:1094500001494018806870470CC5010000487047FA
:10946000FC0000207CB515460E4602F006FC040008
:1094700011D02A463146206801F0D0FD050008D100
:1094800069460880891C2068F7F714FC684602F0DA
:1094900015FF28467CBD01487CBD00000500030087
:1094A00008B5694601F0FAFD08BD00000FB430B5FB
:1094B0001348A3B0007800281DD012480068002887
:1094C00019D011480068002815D027AC24220FA11C
:1094D00019A8269DF7F7AAFB23462A466421684669
:1094E00001F00CFD642803D319A801F0CBFAFEE7C4
:1094F000684601F0C7FA23B030BC08BC04B0184776
:1095000010460100E4000020F04501007374646916
:109510006F2E633A20696E637265617365204D41F9
:10952000585F535452494E475F53495A450A0D00FC
:109530007CB50D4602F0A1FB040010D0294620683E
:1095400001F020FE050008D169460880891C2068CA
:10955000F7F7B0FB684602F0B1FE28467CBD014833
:109560007CBD00000500030010B50C4602F085FB31
:10957000002804D00068214602F094FB10BD014889
:1095800010BD00000500030070B514460D4602F042
:1095900074FB002805D000682246294602F0A0FB93
:1095A00070BD014870BD00000500030010B50C46F9
:1095B00002F063FB002804D00068214602F0AEFBF5
:1095C00010BD014810BD00000500030010B500F0FB
:1095D00003F802F02BFC10BD70B52E4C206800285B
:1095E0001CD02D480078012807D1FFF723FF05463E
:1095F0002A4821680068884728602948007801289F
:109600000CD1FFF72BFF0546012021684002884757
:109610002860000002D123A0FFF748FF274C01215A
:1096200020680905884203D225A0FFF73FFFFEE727
:109630002F4801682068F7F7CFFA002904D02521C8
:109640002CA0FFF733FFFEE73649206809688842FF
:1096500003D335A0FFF72AFFFEE702F067FC02F014
:10966000C3FB3E48FFF722FF3D48FFF71FFF3DA029
:10967000FFF71CFF41A0FFF719FFFFF703FE0028CB
:1096800006D043A0FFF712FF3448FFF70FFF70BD6D
:1096900044A0F7E7D0450100104601001446010040
:1096A000184601005152636F6465427566206D650E
:1096B0006D6F7279206E756C6C0D0A002446010086
:1096C0007265736F75726520626173652061646491
:1096D00072206D757374206D6F7265207468616E91
:1096E00020307830303130303030300D0A0000001A
:1096F00020460100464C4153485F5245535F42416A
:1097000053455F4144445220256320464C41534811
:109710005F534543544F525F53495A4520213D20E2
:10972000300D0A001C4601007265736F757265206A
:10973000626173652061646472206D757374206C5E
:10974000657373207468616E20666C617368207441
:109750006F74616C2073697A650D0A002CD8010062
:109760007CD801002A446174653A202020202032F0
:109770003032312D322D32350D0A00002A566572F5
:1097800073696F6E733A2056312E312E350D0A00F3
:109790002A5374617475733A2020206572726F7257
:1097A0000D0A00002A5374617475733A2020206FEB
:1097B0006B0D0A00F7B5244F82B01646384602F00A
:1097C00047FA002808D000681630F7F769FA020057
:1097D00002D000210846904702F03CF905000AD06B
:1097E0002C6803E0206801F0B9FC6468002CF9D112
:1097F0002846F8F743FA029802F07CFE002E02D0C9
:1098000000210846B047384602F022FA04000BD087
:10981000FF2032460230216802F074FCFF202168EC
:109820000330039A02F06EFC00F022F8042069462F
:1098300008802846891CF7F73DFA684602F03EFD8D
:10984000002005B0F0BD00000180000010B502F05E
:1098500059FB02F081FA02F0A9FE10BD10B50021FB
:10986000024A0846FFF7A6FF10BD00008561000010
:1098700010B5024802F0B2FB10BD0000F812002043
:109880007CB502F0FAF904000FD0206802F020FC49
:10989000050008D169460880891C2068F7F70AFA94
:1098A000684602F00BFD28467CBD01487CBD0000E7
:1098B0000500030070B514460E460546FFF7E2FCAE
:1098C000002804D008A0FFF7F1FD012070BD30464C
:1098D00002F0D3F9002805D001682246284602F09C
:1098E00011FC70BD0A4870BD4775694C6962204320
:1098F0006F6E666967205461626C65205374617491
:1099000075733A2020206572726F720D0A00000094
:1099100004000300F0B587B00F46064600216846F4
:109920000180134800240188684641806D46A000EC
:10993000401904220F49001DF7F778F9641C052C23
:10994000F5DB0024002E02DC0BE0052C09DAA00078
:10995000C11940190422001DF7F768F9641CB442CC
:10996000F3DB6946044802F03FFB07B0F0BD00009E
:109970002E460100304601006C1200207CB50D46D9
:1099800002F07BF9040010D02946206802F09EFC0A
:10999000050008D169460880891C2068F7F78AF914
:1099A000684602F08BFC28467CBD01487CBD000067
:1099B0000500030070B514460D4602F05EF900285C
:1099C00005D000682246294602F09EFC70BD014881
:1099D00070BD00000500030010B50C4602F04DF903
:1099E000002804D00068214602F0ACFC10BD0148FC
:1099F00010BD0000050003007CB50D4602F03DF9E6
:109A000004001DD02946032001F034FF0D490E4A01
:109A1000096812688918814201D90C487CBD294621
:109A2000206802F0ADFC050008D169460880891C59
:109A30002068F7F73FF9684602F040FC28467CBDF5
:109A400003487CBD244601002046010003000200BB
:109A50000500030070B514460D4602F00EF900280B
:109A600005D000682246294602F0A8FC70BD0148D6
:109A700070BD0000050003007CB515460E4602F0DF
:109A8000FCF8040011D02A463146206802F0B4FCEC
:109A9000050008D169460880891C2068F7F70AF993
:109AA000684602F00BFC28467CBD01487CBD0000E6
:109AB000050003007CB50D4602F0DFF8040010D06D
:109AC0002946206802F0B6FC050008D169460880E6
:109AD000891C2068F7F7EEF8684602F0EFFB28468D
:109AE0007CBD01487CBD0000050003001CB50020C2
:109AF0006946009088806A4601A90848FFF744FD3E
:109B0000009A002A08D068468088002804D00348BC
:109B100001211038FFF7A6FC00201CBD11800000B9
:109B200010B51548017815480B00FFF7C6F8050475
:109B300004060B10220012A205E01048C01DFFF71A
:109B40005FFB16E00FA20121FFF78CFC11E00B4830
:109B50000DA20121801CFFF78FFF08480BA20121F5
:109B6000C01CFFF789FF054809A20121001DFFF76E
:109B700083FF002010BD000074020020018000005F
:109B80002C0000002E000000210000002200000038
:109B9000230000001CB500206946009088806A46BA
:109BA00001A90848FFF7F0FC009A002A08D068468F
:109BB0008088002804D003480121C01FFFF752FC11
:109BC00000201CBD0880000070B52548017825489C
:109BD0000B00441C851CFFF770F805040F1E2F377F
:109BE000350021A20121FFF747FF20A201212046D5
:109BF000FFF742FF1EA209E01EA20121FFF73CFF72
:109C00001DA201212046FFF737FF1CA20121284693
:109C1000FFF732FF16E0134816A20121401DFFF79F
:109C20002BFF104814A201210930FFF725FF0D4832
:109C3000012112A20D30EBE70A4811A20121801E7A
:109C4000FFF710FC002070BD0EA20121FFF714FFEA
:109C50000DA201212046FFF70FFF0CA2D6E700005E
:109C60007402002003800000410000004200000058
:109C7000430000006100000062000000630000007B
:109C80003100000024000000250000002600000034
:109C90001CB500206946009088806A4601A90848E2
:109CA000FFF772FC009A002A08D0684680880028D6
:109CB00004D0034801210838FFF7D4FB00201CBD65
:109CC0000980000070B52548017825480B00441C28
:109CD000851CFEF7F2FF05040F1E2F37350021A269
:109CE0000121FFF7C9FE20A201212046FFF7C4FE93
:109CF0001EA209E01EA20121FFF7BEFE1DA2012146
:109D00002046FFF7B9FE1CA201212846FFF7B4FE4A
:109D100016E0134816A20121401DFFF7ADFE1048C2
:109D200014A201210930FFF7A7FE0D48012112A25C
:109D30000D30EBE70A4811A20121801EFFF792FBCC
:109D4000002070BD0EA20121FFF796FE0DA2012199
:109D50002046FFF791FE0CA2D6E700007402002017
:109D600003800000440000004500000046000000A1
:109D70006400000065000000660000003200000082
:109D80002700000028000000290000001CB500206A
:109D90006946009088806A4601A90848FFF7F4FBED
:109DA000009A002A08D068468088002804D003481A
:109DB00001210938FFF756FB00201CBD0A80000076
:109DC00070B52548017825480B00441C851CFEF71A
:109DD00074FF05040F1E2F37350021A20121FFF764
:109DE0004BFE20A201212046FFF746FE1EA209E0FD
:109DF0001EA20121FFF740FE1DA201212046FFF710
:109E00003BFE1CA201212846FFF736FE16E0134850
:109E100016A20121401DFFF72FFE104814A20121B8
:109E20000930FFF729FE0D48012112A20D30EBE7A2
:109E30000A4811A20121801EFFF714FB002070BD0B
:109E40000EA20121FFF718FE0DA201212046FFF707
:109E500013FE0CA2D6E7000074020020038000006D
:109E600047000000480000004900000067000000B3
:109E70006800000069000000330000002A000000B4
:109E80002E0000002C0000001CB500206946009048
:109E900088806A4601A90848FFF776FB009A002AE5
:109EA00008D068468088002804D0034801210A3879
:109EB000FFF7D8FA00201CBD0B80000010B5144835
:109EC000017814480B00FEF7F8FE05040409200E83
:109ED000200011A20121FFF7C5FA16E00D480B3052
:109EE000FFF78EF911E00B480CA20121801CFFF74F
:109EF000C3FD08480AA20121C01CFFF7BDFD0548AB
:109F000008A20121001DFFF7B7FD002010BD0000D1
:109F100074020020018000002E0000002D000000CF
:109F20002B0000003D0000001CB500206946009099
:109F300088806A4601A90848FFF726FB009A002A94
:109F400008D068468088002804D0034801210B38D7
:109F5000FFF788FA00201CBD0C80000070B5254872
:109F6000017825480B00441C851CFEF7A6FE05045D
:109F70000F1E2F37350021A20121FFF77DFD20A202
:109F800001212046FFF778FD1EA209E01EA2012153
:109F9000FFF772FD1DA201212046FFF76DFD1CA2F7
:109FA00001212846FFF768FD16E0134816A201219B
:109FB000401DFFF761FD104814A201210930FFF791
:109FC0005BFD0D48012112A20D30EBE70A4811A2FA
:109FD0000121801EFFF746FA002070BD0EA201216C
:109FE000FFF74AFD0DA201212046FFF745FD0CA217
:109FF000D6E7000074020020038000004A00000041
:10A000004B0000004C0000006A0000006B000000E4
:10A010006C000000340000003A0000003B0000002B
:10A020002F0000001CB500206946009088806A4619
:10A0300001A90848FFF7A8FA009A002A08D0684644
:10A040008088002804D0034801210C38FFF70AFA61
:10A0500000201CBD0D80000070B525480178254802
:10A060000B00441C851CFEF728FE05040F1E2F372D
:10A07000350021A20121FFF7FFFC20A2012120468B
:10A08000FFF7FAFC1EA209E01EA20121FFF7F4FC73
:10A090001DA201212046FFF7EFFC1CA2012128464A
:10A0A000FFF7EAFC16E0134816A20121401DFFF756
:10A0B000E3FC104814A201210930FFF7DDFC0D4834
:10A0C000012112A20D30EBE70A4811A20121801EE6
:10A0D000FFF7C8F9002070BD0EA20121FFF7CCFCEC
:10A0E0000DA201212046FFF7C7FC0CA2D6E7000015
:10A0F00074020020038000004D0000004E000000AC
:10A100004F0000006D0000006E0000006F000000B6
:10A11000350000003C0000003E0000003F00000051
:10A120001CB500206946009088806A4601A908484D
:10A13000FFF72AFA009A002A08D06846808800288B
:10A1400004D0034801210D38FFF78CF900201CBD15
:10A150000E80000070B52548017825480B00441C8E
:10A16000851CFEF7AAFD05040F1E2F37350021A21E
:10A170000121FFF781FC20A201212046FFF77CFC92
:10A180001EA209E01EA20121FFF776FC1DA20121FB
:10A190002046FFF771FC1CA201212846FFF76CFC4A
:10A1A00016E0134816A20121401DFFF765FC104878
:10A1B00014A201210930FFF75FFC0D48012112A212
:10A1C0000D30EBE70A4811A20121801EFFF74AF982
:10A1D000002070BD0EA20121FFF74EFC0DA201214F
:10A1E0002046FFF749FC0CA2D6E7000074020020CD
:10A1F00003800000500000005100000052000000E9
:10A2000070000000710000007200000036000000C5
:10A21000400000005B0000005D0000001CB5002055
:10A220006946009088806A4601A90848FFF7ACF9A2
:10A23000009A002A08D068468088002804D0034885
:10A2400001210E38FFF70EF900201CBD0F80000021
:10A2500010B51448017814480B00FEF72EFD0504D4
:10A260000409200E200011A20121FFF7FBF816E0DF
:10A270000D480F30FEF7C4FF11E00B480CA201217E
:10A28000801CFFF7F9FB08480AA20121C01CFFF758
:10A29000F3FB054808A20121001DFFF7EDFB00209C
:10A2A00010BD000074020020018000003F0000008B
:10A2B0005C0000005E0000005F0000001CB5002094
:10A2C0006946009088806A4601A90848FFF75CF952
:10A2D000009A002A08D068468088002804D00348E5
:10A2E00001210F38FFF7BEF800201CBD10800000D0
:10A2F00070B52248017822480B00441C851CFEF7EB
:10A30000DCFC05040A192A3230001EA20121FFF7E5
:10A31000B3FB1DA204E01DA20121FFF7ADFB1CA2AF
:10A3200001212046FFF7A8FB1AA201212846FFF7CA
:10A33000A3FB16E0124815A20121401DFFF79CFB6C
:10A340000F4813A201210930FFF796FB0C480121A9
:10A3500010A20D30EBE70A480FA20121801EFFF783
:10A3600081F8002070BD0DA20121FFF785FB0CA232
:10A3700001212046FFF780FB0AA2D6E774020020E5
:10A380000380000053000000540000007300000030
:10A3900074000000000000003700000060000000B2
:10A3A0007B0000007D00000070B52548017825483D
:10A3B0000B00441C851CFEF780FC05040F1E2F3784
:10A3C000350021A20121FFF757FB20A201212046E1
:10A3D000FFF752FB1EA209E01EA20121FFF74CFB72
:10A3E0001DA201212046FFF747FB1CA201212846A0
:10A3F000FFF742FB16E0134816A20121401DFFF7AC
:10A400003BFB104814A201210930FFF735FB0D4832
:10A41000012112A20D30EBE70A4811A20121801E92
:10A42000FFF720F8002070BD0EA20121FFF724FBEA
:10A430000DA201212046FFF71FFB0CA2D6E700006A
:10A440007402002003800000550000005600000048
:10A450005700000075000000760000007700000043
:10A4600038000000000000007C0000007E000000BA
:10A4700070B52548017825480B00441C851CFEF763
:10A480001CFC05040F1E2F37350021A20121FFF708
:10A49000F3FA20A201212046FFF7EEFA1EA209E0FE
:10A4A0001EA20121FFF7E8FA1DA201212046FFF7B5
:10A4B000E3FA1CA201212846FFF7DEFA16E0134852
:10A4C00016A20121401DFFF7D7FA104814A201215E
:10A4D0000930FFF7D1FA0D48012112A20D30EBE748
:10A4E0000A4811A20121801EFEF7BCFF002070BDAA
:10A4F0000EA20121FFF7C0FA0DA202212046FFF7AC
:10A50000BBFA0CA20221D6E77402002003800000EF
:10A5100058000000590000005A00000078000000B8
:10A52000790000007A0000003900000000000000FF
:10A53000A3AC0000A1A300001CB500206946009058
:10A5400088806A4601A90848FFF71EF8009A002A89
:10A5500008D068468088002804D0034801211138BB
:10A56000FEF780FF00201CBD1280000010B50548DA
:10A57000034A4188002000F0DDF9002010BD0000F2
:10A58000018000007402002010B50548034A0188CC
:10A59000002000F0CFF9002010BD00000180000075
:10A5A000800200207CB50020694600908880124C13
:10A5B0006A4601A92046FEF7E7FF009B601E002BBC
:10A5C00016D069468A88002A12D0002104E05D5C1A
:10A5D000002D03D0491C89B29142F8D3002907D03D
:10A5E00001212046FEF7A4FF00F02AFA00207CBDDE
:10A5F0000121FEF79DFFF9E70280000010B501215F
:10A600000248FEF795FF002010BD00000180000009
:10A6100010B505480178032903D003210170FDF727
:10A62000AFF9002010BD00007402002010B50548ED
:10A63000034A4188012000F07DF9002010BD000090
:10A64000018000007402002010B50548034A01880B
:10A65000012000F06FF9002010BD00000180000013
:10A660008002002010B5064801780648032905D06D
:10A6700005A20121FEF7F6FE002010BD03A2F8E7B7
:10A680007402002001800000200000003000000063
:10A6900010B505480178042903D004210170FDF7A5
:10A6A0006FF9002010BD00007402002010B50948A9
:10A6B0000178022902D94178017007E0491CC9B22A
:10A6C0000170022901D9002101704170FDF758F98C
:10A6D000002010BD74020020F0B58BB007460024A6
:10A6E000A0007E49C61948780B78B288000218434A
:10A6F000824201D3012300E00023CD788878F288DC
:10A70000290201438A4201D3012000E000200343D3
:10A7100038D00D20264646437148815D00297DD002
:10A720003518691C04226846F6F780FA009801F093
:10A7300095F9002814D001684A780B781102194362
:10A74000CAB2152A0CD80906090E09D002216A4698
:10A75000118000686944F6F7ADFA684601F0AEFD75
:10A760005F4900208855681C04225C49F6F75EFAB0
:10A77000681D04225949F6F759FA2846093004227F
:10A780005649A3E00D20254645435548415D002923
:10A7900013D02D1828460930311D04220290F6F7F7
:10A7A00045FAA9796A7909021143AA7A6B7A1002EB
:10A7B000184381423AD3081A39E04948311D281814
:10A7C000009002900422401CF6F730FA029804220E
:10A7D000411C01A8F6F72AFA019801F03FF9002878
:10A7E00014D001684A780B7811021943CAB2152AAD
:10A7F0000CD80906090E09D001216A46918000682B
:10A80000911DF6F757FA01A801F058FD34480121CF
:10A8100041550098311D0422401D00E058E0F6F734
:10A8200005FA0098311D042209304FE0401A297AB8
:10A83000EB7982B20902E81C19430346287B1B7A94
:10A8400000021843814201D3081A00E0401A80B286
:10A85000082A01D3012100E00021082801D30120AA
:10A8600000E00020014333D0042201A80299F6F74A
:10A87000DDF9691D04226846F6F7D8F901990098B8
:10A8800001F052F906001ED033685878197800029A
:10A890000843C1B2152916D80106090E13D0400489
:10A8A00011D502980790069306AA0021184601F0D8
:10A8B000DFFD00206946088422313068F6F7FAF996
:10A8C00008A801F0FBFC681D04220299F6F7AEF916
:10A8D000641C052C00D203E70BB0F0BD304601002C
:10A8E0007C120020F8B50B30C608F600104D19E0B8
:10A8F0002068B04215D3B0420BD96368871B201D76
:10A900000093F6F793F9A019009B07604360286055
:10A9100004E060682860201DF6F788F9201D266095
:10A92000F8BD251D2C68002CE2D10020F8BD0000E8
:10A9300090020020F7B584B01746064601F08AF869
:10A9400005460024301E264624D0684600968680A0
:10A950006A4601A93846FEF717FE0098002819D06C
:10A9600068468088002815D022480168002911D047
:10A97000214F3888884704000CD0002006E0398831
:10A98000884207D20099095C2154401C6946898895
:10A990008842F4D3002D0AD02F6803E0386800F015
:10A9A000DDFB7F68002FF9D12846F7F767F91348D8
:10A9B000016829604168696006604660FEF758FFDB
:10A9C0000420694608810A312846F6F773F902A87F
:10A9D00001F074FC002C0BD0074822460188059832
:10A9E000FFF74AF803484168002901D0204688470C
:10A9F00007B0F0BDD04501003446010084020020BC
:10AA0000FDF7A2FBE1204002FDF700FC07A0FEF7E6
:10AA100019F9FBF797FAFDF7B5FEFDF7F3FEFEF720
:10AA2000D5FDFEF71BFFFEF711FFFCE7415050205C
:10AA3000537461727420496E69740D0A000000003D
:10AA40007CB50E4D0024AC806846009484806A4634
:10AA500001A90B48FEF798FD009800280BD0694625
:10AA60008988002907D0C9B2FEF7A8FCA860022097
:10AA700000F0DAF97CBDAC607CBD000074020020FF
:10AA80000280000070B50446054D04E02A680121EB
:10AA900020469047641C20780028F7D170BD000044
:10AAA000F045010010B50022054B05E01C6A2401A9
:10AAB000FCD5845C1C61521C8A42F7D310BD000097
:10AAC0004020004030B589B014460546002911D019
:10AAD00020220B496846F6F7A9F86807E90800281C
:10AAE0000AD06A07D20E6B46D218803A605CD26FE9
:10AAF0005040605409B030BD491E605C079AF7E7CA
:10AB0000AC600100FFB5A04F8FB004463860002054
:10AB10000D46C043FF21B8601E4661311898F6F714
:10AB2000ADF8002E01D0304602E01198F6F7B1F8EA
:10AB3000002828D0024628461199FAF78FFB786141
:10AB4000002820D0002D04D0A8421CDC28467D60BF
:10AB500000E078602C2148438C4D6100401940187A
:10AB60008688F868F1000A1A042A00DA0422002113
:10AB7000FCF740FDF860C01DC217520FEC21101801
:10AB8000C010834F08E00020C04313B0F0BD39541B
:10AB9000EC2921D0EC21401CB042F8DB7A482C2271
:10ABA000416851434D1969880161FF212531794878
:10ABB000F6F764F86100611869180991CA7C079278
:10ABC000CB7F00200B93D4184D7D20310D91497817
:10ABD00003918446014614E01121DCE76D4A00210F
:10ABE0006346D31806E06A4A175C22464A43401C73
:10ABF000D754491CA942F6DB6146491C8C46714674
:10AC0000491C8E4607998E45E8DB00218E46214679
:10AC100069430C911DE05F4A00216346D3187244DA
:10AC20000E930A920CE05A4AA942175C03DA2246B4
:10AC30004A430E9B01E00A9B0C9A401CD754491CC6
:10AC4000039A9142EFDB6146491C8C467146491CD0
:10AC50008E460B998E45DEDB0998007D401B0A90DD
:10AC60000D9801780398081A099000200490089024
:10AC700029E047489921E830F6F700F8444804995C
:10AC80002A464118E830F5F7D1FF41482946E83017
:10AC90000A9AFAF747FB089A00203E49B21807E0E3
:10ACA0003B4BE8331F5C234643435B189F54401CD7
:10ACB0000A9B9842F4DB0498401904900898401CC1
:10ACC00008900298401C029007998842D1DB00202E
:10ACD0002AE02F489921E830F5F7D0FF2C48049955
:10ACE000039A4118E830F5F7A1FF2948099AE8309E
:10ACF0000399FAF717FB264B08990020E833254AF9
:10AD0000751805E0214641431F5C89184F55401CCA
:10AD100009998842F6DB049903980818049008986A
:10AD2000401C08900298401C0B9902908842D0DB8E
:10AD3000154D686880001130E861F9F759FE00246C
:10AD400016E0214635225143134A00258F18661C10
:10AD500009E0795D002911D0684380190121189A12
:10AD6000FFF7B0FE6D1C0848C0698542F1DB641C2A
:10AD70000548C1698C42E4DBC06906E76843801975
:10AD80000021189AECE7000008010020D05C0100C7
:10AD9000AD230020A1210020A8160020F3B583B028
:10ADA00005001AD028680190284680380290C76FA5
:10ADB00004983E1F864200D906462846FDF78AFFC2
:10ADC00004460091324629460498FFF78BFD01990D
:10ADD000002806D0016005B0F0BD0498FDF7ACFF77
:10ADE000F9E729600299002CCF670AD02168621820
:10ADF000291F8A4202D9291B091F2160009961601D
:10AE0000E9E7024A00991160E5E70000900200209E
:10AE100010B5002000F008F8002010BD10B501208A
:10AE200000F002F8002010BDF8B52C4C0546A068D3
:10AE300000284CD0FEF702FB06460020315C0029BA
:10AE400002D0401C80B2F9E7002E40D00021002D36
:10AE500002D0012D0AD106E0A288921D92B2A280F2
:10AE6000824203D206E0A088062801D2A18001E038
:10AE7000801FA0801B4F1AA201213846FEF7FCFD5F
:10AE800017A20121781CFEF7F7FD15A20121B81CBD
:10AE9000FEF7F2FD0025A08869000918715C002901
:10AEA00015D0002D04D0012D06D0022D10D00AE0BF
:10AEB00082190221384604E0801C821909480221C7
:10AEC000401CFEF7D9FD6D1CEDB2032DE3D3F8BD98
:10AED000001D821903480221801CF2E77402002041
:10AEE000000000000380000010B5D020FDF7EEFB4D
:10AEF00010BD10B59020FDF7E9FB10BDFFB5002592
:10AF000081B004462E46002878D0267076E02528A9
:10AF100002D02070521C0CE05078252806D0571C17
:10AF2000527820210020302A06D00DE02520207004
:10AF3000921C641C6D1C61E0302104E00A2358431C
:10AF400030381018C0B27F1C3A781346303B092BBA
:10AF5000F4D9029A2B18934201D9501BC0B23A7807
:10AF6000692A10D006DC582A29D0632A3CD0642AEA
:10AF700006D108E0732A2ED0752A0ED0782A16D072
:10AF8000002005B0F0BD049A121D0492121F136830
:10AF900002462046FBF7E7FF2DE0049A121D0492BB
:10AFA000121F136802462046FCF724F823E0049A97
:10AFB000121D0492121F12680023009206E0049AE8
:10AFC000121D0492121F12680123009202462046AD
:10AFD000FBF7A4FF0FE00498001D0490001F016818
:10AFE0002046FBF7FCFF06E00498001D0490001FBC
:10AFF0000078207001207A1C24182D181078002861
:10B0000002D002998D4282D30298854201D22670E5
:10B0100002E0641E26706D1E2846B2E730B4002898
:10B020000ED0437805781C022C43E3B2152B0AD8C6
:10B030002406240E07D0054C9B00E35830BC18476B
:10B04000034830BC70470348FBE70000406901003B
:10B05000010001000100030070B50E4C0B46217089
:10B0600000250121002B04D0012B04D0022B08D095
:10B0700002E00D4600E00D430026354303D0637027
:10B0800002E00126F9E76170608011460248FEF790
:10B0900069F970BD74020020352F000070B50D46AF
:10B0A00004001CD06078227801021143C8B2152830
:10B0B00017D80806000E14D0E278A07812020243D6
:10B0C00009A0FEF7F3F96178227808021043000620
:10B0D0000E49800D0A5829462046904770BD0C48FD
:10B0E00070BD0C4870BD00004372656174652077C7
:10B0F000547970653A203078253038782077494483
:10B100003A203078253038780D0A00007865010043
:10B11000010001000100030010B51446002903D00E
:10B12000012906D0064810BD1A462146FFF794FFB4
:10B1300003E01A46214600F005F8002010BD00008B
:10B1400001000600114610B5024A10800248FEF7C1
:10B1500009F910BD800200208D30000000280DD0BC
:10B160004178027809021143CAB2152A06D80906A5
:10B17000090E03D09100024A515808477047000059
:10B180008867010030B400280ED04278047813029A
:10B190002343DAB2152A0AD81B061B0E07D0054B2B
:10B1A00092009A5830BC1047034830BC704703489F
:10B1B000FBE70000986901000100010001000300A5
:10B1C000FFB5494895B0C0681F99C003000C0190B5
:10B1D0001D4617461E9E032000F04CFB04463146D8
:10B1E000032000F047FB06464048016840480068DD
:10B1F0000918A14201D8B14205D93E48FEF756F9D7
:10B200003D4819B0F0BD3D4808220068241A214687
:10B2100008A8F5F70BFD394808220068361A3146B0
:10B2200006A8F5F703FD16980836291A12966846FF
:10B23000408C0C90414315980834381A0818400087
:10B240000619684607824582408B009001460290AD
:10B250000198F5F7C1FC01906846808B0199F5F7DC
:10B26000BBFC002504461391002900D0441C6D1C32
:10B27000A54202D3139825460190029A01990C9F8A
:10B280005143009B00208C461749FB1A5B008968DC
:10B2900002469E4612E0129B209F1B88BB4200D1B3
:10B2A00033880B80129B401C9B1C1293009B891CB3
:10B2B000B61C834201D876440020521C6245EAD372
:10B2C0000948009A8168019883B20D48076904987B
:10B2D000B8476946498A0198081869464882A542D4
:10B2E000C5D100208DE700000400002024460100A5
:10B2F0002046010010D90100030002002846010089
:10B30000480B0000F7B51749104648437D21144605
:10B31000C900F5F761FC451C2046604361084618EA
:10B32000274600233A4601990098F8F713FB0124B9
:10B3300014E020463946604379434018B04206DDA8
:10B340003B46224601990098F8F704FB7F1E3B46D6
:10B35000224601990098F8F7FDFA641CAC42E8DD3A
:10B36000FEBD0000C3020000F7B506462F49104697
:10B3700048437D2184B01446C900F5F72DFC401CDC
:10B380000090204660436108401802903019284917
:10B3900082B2059B301B8D6880B21946A8470125F3
:10B3A0003EE02846214668436143411802988142A5
:10B3B0001DDD0098844219DD05981D4F0119701993
:10B3C000401E82B20390701B401C01908BB2BF687C
:10B3D00089B280B2B8470598154F011B03988BB20C
:10B3E00082B20198BF6889B280B2B847641E0598DE
:10B3F000311940198AB2039183B281B2301B0C4FCC
:10B400000190BF6880B2B84705980399401B8AB283
:10B4100083B281B2064F0198BF6880B2B8476D1CF5
:10B4200000988542BDDD07B0F0BD0000C3020000FA
:10B43000480B000000280DD0417802780902114322
:10B44000CAB2152A06D80906090E03D09100024A8D
:10B450005158084770470000D0650100F8B50C4608
:10B4600005461146032000F005FA1C490A681C49EC
:10B4700009685118814204D91A48FEF717F81A488A
:10B48000F8BD1A490968411AC8788B780202184831
:10B490001A4306885319B34201D9012600E0002659
:10B4A0004B790F791B023B4340881F19874201D912
:10B4B000012000E00020064305D00EA0FDF7F6FFB6
:10B4C0000948801EF8BD684605804480134808314D
:10B4D00004690098A0470020F8BD00002446010040
:10B4E0002046010010D90100030002002846010097
:10B4F000040000207744697370496D616765A3BAE1
:10B50000204755495F444953505F494E56414C4985
:10B51000445F4C4F43200D0A00000000480B000020
:10B52000FFB581B01E46174603200A9900F0A2F924
:10B5300026490A68264909685118814205D92548D3
:10B54000FDF7B4FF244805B0F0BD24490968411A4D
:10B55000C8788B78020201981A431318204804888F
:10B56000A34201D9012400E000244B790D791B028C
:10B570002B43029D40885D19854201D9012000E0DE
:10B580000020184D044303D017A0FDF78FFF03E000
:10B59000BA4201D8B34201D92846D4E7B81AC40F39
:10B5A00020184410019820186C462080F01AC40F0F
:10B5B00020184410029820186C4660801448083106
:10B5C00004690098A0470020BDE700002446010060
:10B5D0002046010010D901000300020028460100A6
:10B5E00004000020010002007744697370496D6116
:10B5F0006765A3BA204755495F444953505F494E98
:10B6000056414C49445F4C4F43200D0A0000000056
:10B61000480B0000F0B587B00024161A01905D1A9F
:10B62000601E274604940091002E01DD012108E0F0
:10B63000002E05D076420390002D04DD01200BE0A2
:10B6400000210391F8E7002D05D06D420290AE4233
:10B6500004DD344603E000200290F8E72C46002089
:10B660000590601C069005981DE00098104A81B274
:10B670000198126880B2904704987F19801904904D
:10B68000A04205DD001B0490039901984018019029
:10B69000A74204DD029900983F1B401800900598CE
:10B6A000401C80B2059006998842DEDD07B0F0BDEF
:10B6B000480B0000FFB583B003200C9E0D9D0E9932
:10B6C00000F0D8F82C492D4A09681268891881427F
:10B6D00002D92B4807B0F0BD2A490968441A0398DB
:10B6E000811929480288914201D9012100E00021F5
:10B6F000049A40885219824201D9012000E00020BA
:10B70000014317D1E2780598A378110280191943F3
:10B71000884201D9012000E00020069A27795319B8
:10B72000627912023A43934201D9012300E00023D7
:10B73000184302D01248801ECCE71148401C002953
:10B74000C8D0002AC6D0002EC4D0002DC2D0684672
:10B75000039A8280049AC28006814581059A0280FC
:10B76000069A42800948029B456920460830019AA2
:10B77000A8470020AEE70000244601002046010053
:10B78000030002002846010004000020480B0000CE
:10B79000FFB581B01E460D4C029BA56807461946B1
:10B7A000039AA8473A46A568334610460299A84727
:10B7B0003346A56819463846039AA847039AA468F1
:10B7C000334610460299A04705B0F0BD480B000073
:10B7D00030B4024CA468A44630BC6047480B00005B
:10B7E000FFB581B00D46684681880A9C481B2A191E
:10B7F00089180FB20E49001B096800B20091F5F7D5
:10B8000001FA06B238460099F5F7FCF901B2304664
:10B81000F6F750F8002808D000942946049B039AB4
:10B820000198F8F7DDF8FBF751FE05B0F0BD000018
:10B8300040020020F3B50C4681B00D49684685886A
:10B840000968281B0E46F5F7DDF907462819314629
:10B85000F5F7D8F901B238B2F6F72CF8002805D080
:10B8600021460198F8F788FCFBF730FEFEBD00008A
:10B8700040020020F3B5284E284C3068216883B080
:10B88000401845182648C168002904D00B460C22F0
:10B890000021684698472348234F00682D1AB8684E
:10B8A000002804D003460C2269462846984768467B
:10B8B0000088002809D00021019A002A07D0002220
:10B8C0001143092805D3012204E00121F4E70122F4
:10B8D000F6E700221143019A521C08D000221143BE
:10B8E00007D012A0FDF7E2FD002005B0F0BD012257
:10B8F000F5E7039988420DD1684641880498814252
:10B9000008D1029831684118206808300818114998
:10B910004860EAE70C35C2E72446010020460100F2
:10B92000D045010028460100E445010077457870C4
:10B930006C6F7265722D3E5265736F757263652010
:10B94000736561726368205461626C6520656E6422
:10B95000210D0A00E8000020F7B52F482F4E00689F
:10B96000316884B0401845182D481446C168002934
:10B9700004D00B460C2200216846984729482A4FDC
:10B9800000682D1AB868002804D003460C226946C6
:10B990002846984768460088002809D00021019A67
:10B9A000002A07D000221143092805D3012204E010
:10B9B0000121F4E70122F6E700221143019A521C0B
:10B9C00008D00022114307D018A0FDF76FFD00201A
:10B9D00007B0F0BD0122F5E7049988421AD1684604
:10B9E00041880598814215D1684600882070000A78
:10B9F000607068464088A070000AE070211D0198C0
:10BA0000F5F758F9044802990068091830680830B9
:10BA10000818DDE70C35B5E7244601002046010093
:10BA2000D045010028460100E445010077457870C3
:10BA30006C6F7265722D3E5265736F75726365200F
:10BA4000736561726368205461626C6520656E6421
:10BA5000210D0A000048704700010020F1B50020C8
:10BA600082B004460090FFF7F5FF002857D06946E2
:10BA7000098900688C4669464A894BE001680029BB
:10BA800047D04B780D781B022B439E461B0440D5B4
:10BA9000244DAE4501D100903BE08B794E791B02DD
:10BAA0003343491D9C4501D3012500E000254E7913
:10BAB0000F7936023E439B19634501D3012300E011
:10BAC00000231D40CB788E781B0233439A4201D36A
:10BAD000012600E00026CF7989793F020F43D9196A
:10BAE000914201D3012100E000210E40354210D0E7
:10BAF0000C4BDB1D9E4501D1012100E00021094CCA
:10BB00000834A64501D1012300E00023194306D0E3
:10BB1000044640680028B1D1002C01D02046FEBD6B
:10BB20000098FEBD01800000F3B5002087B00446F8
:10BB30000590FFF78FFF002871D06A460068118CCE
:10BB40000391518C8E46918BD28B944675E002689E
:10BB5000002A71D0537815781B022B4304931B04E1
:10BB60006AD53A4D049BAB4201D1059064E0521D69
:10BB70000092557812782D021543039B0295AB4233
:10BB800001D3012200E000222E46009D6F792D791D
:10BB90003F022F43F319039D0693AB4201D30123C8
:10BBA00000E00023009E1A40F578B6782D02354358
:10BBB0000195AE4501D3012500E00025009B019EC3
:10BBC000DF799B793F021F43F319734501D30126A7
:10BBD00000E0002635402A40029DA94201D30125FC
:10BBE00000E00025069E8E4201D3012600E00026DB
:10BBF00035402A40019DAC4501D3012500E00025D8
:10BC0000634501D3012300E000231D402A4213D0E5
:10BC10000E4B049ADB1D9A4202D1012201E011E091
:10BC200000220A4C049B0834A34201D1012300E006
:10BC300000231A4306D004464068002887D1002C10
:10BC400002D0204609B0F0BD0598FBE70180000056
:10BC500010B50446FFF7FEFE00280DD0006809E08D
:10BC60000168002905D04A780B7811021943A142D6
:10BC700002D040680028F3D110BD10B50446FFF78C
:10BC8000E9FE00280DD0006809E00168002905D010
:10BC9000CA788B7811021943A14202D0406800286B
:10BCA000F3D110BD30B400280ED0427804781302CE
:10BCB0002343DAB2152A0AD81B061B0E07D0054B00
:10BCC00092009A5830BC1047034830BC7047034874
:10BCD000FBE70000A86B0100010001000100030068
:10BCE00030B400280ED0437805781C022C43E3B210
:10BCF000152B0AD82406240E07D0054C9B00E358C8
:10BD000030BC1847034830BC70470348FBE70000CD
:10BD1000F0690100010001000100030030B40028B7
:10BD20000ED04278047813022343DAB2152A0AD8D7
:10BD30001B061B0E07D0054B92009A5830BC1047CB
:10BD4000034830BC70470348FBE70000A06A0100CD
:10BD500001000100010003001CB56946214800F004
:10BD60008BF900280FD1684601880B00FCF7A5FF6E
:10BD700005040C141C240B00801CF4F791FF002216
:10BD8000114600F0A1FB1CBD801CF4F789FF0022C6
:10BD9000114600F00DF91CBD801CF4F781FF002254
:10BDA000114600F0CDF91CBD801CF4F779FF00228C
:10BDB000114600F073FB1CBD801CF4F771FF046892
:10BDC0000DE020684178027809021143CAB2152AB1
:10BDD00004D80906090E01D0FFF72CFB6468002C7B
:10BDE000EFD11CBDF812002010B5062240210548F5
:10BDF00000F026F9002803D003A0FDF757FBFEE76B
:10BE000010BD0000F81200206572726F723A696E00
:10BE10007075744D73675175657565206861732021
:10BE20006E6F74206D656D6F72790000FEB52348EA
:10BE3000016823480268234889188C18C1680029C2
:10BE400004D00B460C220021684698471E481F4E1E
:10BE50000068251A0024B068002804D003460C228C
:10BE600069462846984768460188002909D000207D
:10BE7000019A002A07D000221043092905D3012284
:10BE800004E00120F4E70122F6E700221043019AC2
:10BE9000521C07D00022104306D021460CA0FDF70B
:10BEA00005FBFEBD0122F6E7684642881448641C83
:10BEB000019BFDF7FBFA0C35CDE70000244601009D
:10BEC00020460100D045010028460100E44501005C
:10BED000774578706C6F7265722D3E5265736F7521
:10BEE000726365205461626C6520656E6421205226
:10BEF0006573436F756E74203D2025640D0A000044
:10BF0000C8D8010000B587B06946074800F0B4F80A
:10BF1000002806D168460088002802D16846FEF74E
:10BF2000DBFB07B000BD00006C120020F8B5144820
:10BF300018220188134800F083F8002803D012A0CB
:10BF4000FDF7B4FAFEE700240E4D264610352046D4
:10BF50000D2148432E544719781C04221349F4F745
:10BF600065FE781D04221149F4F760FE3846093059
:10BF700004220E49F4F75AFE641C052CE7D3F8BDE1
:10BF80002C4601006C1200206572726F723A696E65
:10BF90007075744D736751756575652068617320A0
:10BFA0006E6F74206D656D6F727900003046010010
:10BFB00030B400280ED0437805781C022C43E3B23D
:10BFC000152B07D82406240E04D0034C9B00E358FD
:10BFD00030BC184730BC70478066010000210180EA
:10BFE000418081807047000070B50446C068002819
:10BFF00009D020886288904207D1A088E2889042C8
:10C0000003D10D4870BD0D4870BD002006E0638867
:10C010000D5C5343E2689A188554401C2289824281
:10C02000F5DC6088E188401CF4F7D6FD6180A088CB
:10C03000401CA080002070BD010004000100010030
:10C0400010B50446002020806080A080E18022811D
:10C05000074BE0601868002806D00846196850436E
:10C060008847E060002801D0002010BD014810BDC5
:10C07000D04501000100010010B50446C068002849
:10C0800008D020886288904202D1A088002803D07E
:10C0900000200AE00C4810BD0C4810BD2388534313
:10C0A000E2689A18825C0A54401C22898242F5DCBC
:10C0B0002088E188401CF4F78FFD2180A088401E75
:10C0C000A080002010BD000001000100020004005B
:10C0D00000280DD04178027809021143CAB2152A0E
:10C0E00008D80906090E05D09100034A515808479F
:10C0F0000248704702487047006C010001000100CF
:10C100000100030030B400290ED04B780D781C02DA
:10C110002C43E3B2152B0AD82406240E07D0054C75
:10C120009B00E35830BC1847034830BC70470348B5
:10C13000FBE700009068010001000100010003001E
:10C1400030B400280ED0437805781C022C43E3B2AB
:10C15000152B07D82406240E04D0034C9B00E3586B
:10C1600030BC184730BC7047D8660100F7B590B0B6
:10C170000E46012069464D4C8881E068154600282E
:10C180000ED003461022002101A898470C22E36834
:10C1900000210BA898470822E368002108A89847C7
:10C1A000434C2088854204D1083407CC0992089179
:10C1B0000AE00BAA29460420FFF7CEFBA060099AEB
:10C1C00008992261E1602580002863D039490A6816
:10C1D00090425FD3851A0C9810380C9036488168CD
:10C1E000002957D08368082208A92846984768463E
:10C1F000038C8380448CC480828C0281C18C4181F9
:10C20000D8085B0700D0401C4C43444310041BD5A6
:10C210000027A41D083511E02748022283680AA9D7
:10C22000284698476846008DB04204D1AD1D0020D5
:10C23000694604952DE02D197F1CBFB238460C9934
:10C2400060438842E8D325E00021330AC943241D16
:10C25000F0B2A12B0ED3FE2B0CD8A1280AD3FE28B6
:10C2600008D8012A1CD0A13BD9B2A1385E22C0B2A5
:10C270005143091800206A4690814C430C356019DF
:10C2800004900220002900DA90810C998C4201D39D
:10C290001146888101AD1ECD10981EC013B0F0BDAF
:10C2A000A32BE7D1A038C1B2E4E70000D0450100DC
:10C2B000E800002028460100E445010010B50146D1
:10C2C0000148FFF791FE10BDF812002030B400289D
:10C2D0000ED04278047813022343DAB2152A0AD822
:10C2E0001B061B0E07D0054B92009A5830BC104716
:10C2F000034830BC70470348FBE70000F86A0100C0
:10C30000010001000100030010B500280FD04378A0
:10C3100004781B022343DCB2152C0AD81C06240E19
:10C3200007D0054CA34204D101F0B2FE10BD034872
:10C3300010BD034810BD00000C800000010001008A
:10C340000100030010B500280FD0427803781202D4
:10C350001A43D3B2152B0AD813061B0E07D0054B70
:10C360009A4204D102F008F810BD034810BD0348FA
:10C3700010BD000015A00000010001000100030035
:10C3800030B400280ED04278047813022343DAB286
:10C39000152A0AD81B061B0E07D0054B92009A5887
:10C3A00030BC1047034830BC70470348FBE700002F
:10C3B000506B0100010001000100030010B50028CE
:10C3C0000FD0437804781B022343DCB2152C0AD823
:10C3D0001C06240E07D0054CA34204D101F08AFFAD
:10C3E00010BD034810BD034810BD000014C000007C
:10C3F000010001000100030030B400280ED0437892
:10C4000005781C022C43E3B2152B0AD82406240E0F
:10C4100007D0054C9B00E35830BC1847034830BC9C
:10C4200070470348FBE70000E868010001000100D5
:10C430000100030030B400280ED0427804781302C3
:10C440002343DAB2152A0AD81B061B0E07D0054B68
:10C4500092009A5830BC1047034830BC70470348DC
:10C46000FBE70000486A0100010001000100030031
:10C4700030B400280ED0437805781C022C43E3B278
:10C48000152B07D82406240E04D0034C9B00E35838
:10C4900030BC184730BC70473067010030B400280A
:10C4A0000ED0437805781C022C43E3B2152B07D835
:10C4B0002406240E04D0034C9B00E35830BC1847DC
:10C4C00030BC70473868010030B400280ED0437883
:10C4D00005781C022C43E3B2152B07D82406240E42
:10C4E00004D0034C9B00E35830BC184730BC704765
:10C4F00028660100F8B50025014602200095FFF7E7
:10C50000B9F91049104A096812688918814215D88A
:10C510000E490F4E0968441A694620460095FEF7F9
:10C52000BDFD010005D0B14202D00AA0FCF7BEFF5C
:10C53000F8BD00980028F8D02418EDE70FA0FCF70C
:10C54000B5FFF8BD24460100204601002846010041
:10C550000100030043726561746520776964676553
:10C5600074206661696C656420206265636175731F
:10C57000653A203078253038780D0A00775769649D
:10C580006765744C6F6164206572726F72206265BA
:10C59000636175736520696E76616C69642072658C
:10C5A0007320616464720D0A000000007CB51448B9
:10C5B000046821E02568687829780002084380042F
:10C5C00019D5F4F711F96A782B7812021A4312067A
:10C5D0000C4B920D01469A58206890470A498842B0
:10C5E00009D1032069460880891C2068F4F762FBA2
:10C5F0006846FFF763FE6468002CDBD17CBD000059
:10C6000000010020E067010001000500F7B51A4CA9
:10C610000F4600280BD023300646F4F741FB0028D4
:10C6200005D07179327900240902114306E02046D1
:10C63000FEBD025D002A03D0641CA4B2A142F8D85A
:10C64000491EA14201DC0D48FEBD2546E7190EE05A
:10C650007079317900020843401EA84209D930465A
:10C66000F4F71EFB02992A1B895C41556D1CAF42F1
:10C67000EED80020FEBD000001000100070003000D
:10C68000F7B51A4C0F4600280BD022300646F4F7B7
:10C6900007FB002805D07179327900240902114383
:10C6A00006E02046FEBD025D002A03D0641CA4B251
:10C6B000A142F8D8491EA14201DC0D48FEBD254625
:10C6C000E7190EE07079317900020843401EA84254
:10C6D00009D93046F4F7E4FA02992A1B895C4155DE
:10C6E0006D1CAF42EED80020FEBD0000010001002D
:10C6F00007000300F7B51B4C82B00F4600280CD092
:10C7000006460A300090F4F7CBFA002805D0F17BFA
:10C71000B27B00240902114307E0204605B0F0BDBA
:10C72000025D002A03D0641CA4B2A142F8D8491EBD
:10C73000A14201DC0C48F1E72546E7190EE0F07B49
:10C74000B17B00020843401EA84209D90098F4F7C3
:10C75000A7FA04992A1B895C41556D1CAF42EED89B
:10C760000020DBE7010001000700030000487047DC
:10C7700006000300F7B51B4C82B00F4600280CD012
:10C78000064614300090F4F78BFA002805D0717E2D
:10C79000327E00240902114307E0204605B0F0BDB7
:10C7A000025D002A03D0641CA4B2A142F8D8491E3D
:10C7B000A14201DC0C48F1E72546E7190EE0707E46
:10C7C000317E00020843401EA84209D90098F4F7C0
:10C7D00067FA04992A1B895C41556D1CAF42EED85B
:10C7E0000020DBE70100010007000300F7B51C4C47
:10C7F00082B00E4600280ED005461E300090F4F799
:10C800004FFA002807D02F46223779783A7800244B
:10C810000902114307E0204605B0F0BD025D002A81
:10C8200003D0641CA4B2A142F8D8491EA14201DC85
:10C830000C48F1E72546A6190EE078783978000211
:10C840000843401EA84209D90098F4F729FA049930
:10C850002A1B895C41556D1CAE42EED80020DBE7F7
:10C860000100010007000300F7B51F4C82B00E461F
:10C8700000280ED005461E300090F4F711FA00286B
:10C8800007D02F46223779783A78002409021143DD
:10C8900007E0204605B0F0BD025D002A03D0641C0D
:10C8A000A4B2A142F8D8491EA14201DC0F48F1E729
:10C8B0002546A6190EE07878397800020843401E14
:10C8C000A84209D90098F4F7EBF904992A1B895C6E
:10C8D00041556D1CAE42EED80098F4F7E1F9002105
:10C8E00041550846D6E7000001000100070003009B
:10C8F000F3B500261F4C83B000280CD023300090E5
:10C90000F4F7CEF9002806D0009900244A790B7973
:10C910001102194307E0204605B0F0BD025D002A70
:10C9200003D0641CA4B2A142F8D800252F461DE014
:10C93000049886421CD8AC4211D00098F4F7B0F9A4
:10C94000611B0191415C090609D501994754009882
:10C95000F4F7A6F90199491E4754AD1C05E000986B
:10C96000F4F79EF9611B47546D1C761CA542DFD974
:10C970000020D1E701000100F3B500261F4C83B071
:10C9800000280CD022300090F4F78AF9002806D055
:10C99000009900244A790B791102194307E02046D7
:10C9A00005B0F0BD025D002A03D0641CA4B2A14210
:10C9B000F8D800252F461DE0049886421CD8AC42CA
:10C9C00011D00098F4F76CF9611B0191415C0906E4
:10C9D00009D5019947540098F4F762F90199491E65
:10C9E0004754AD1C05E00098F4F75AF9611B475411
:10C9F0006D1C761CA542DFD90020D1E701000100A3
:10CA0000F3B500261F4C83B000280CD005460A3031
:10CA10000090F4F745F9002805D0E97BAA7B0024B3
:10CA20000902114307E0204605B0F0BD025D002A6F
:10CA300003D0641CA4B2A142F8D800252F461DE003
:10CA4000049886421CD8AC4211D00098F4F728F91B
:10CA5000611B0191415C090609D501994754009871
:10CA6000F4F71EF90199491E4754AD1C05E00098E2
:10CA7000F4F716F9611B47546D1C761CA542DFD9EB
:10CA80000020D1E7010001000048704706000300C4
:10CA9000F3B500261F4C83B000280CD00546143097
:10CAA0000090F4F7FDF8002805D0697E2A7E002466
:10CAB0000902114307E0204605B0F0BD025D002ADF
:10CAC00003D0641CA4B2A142F8D800252F461DE073
:10CAD000049886421CD8AC4211D00098F4F7E0F8D4
:10CAE000611B0191415C090609D5019947540098E1
:10CAF000F4F7D6F80199491E4754AD1C05E000989B
:10CB0000F4F7CEF8611B47546D1C761CA542DFD9A3
:10CB10000020D1E701000100F3B50026204C83B0CE
:10CB200000280DD005461E300090F4F7B9F8002813
:10CB300006D0223569782A7800240902114307E0DB
:10CB4000204605B0F0BD025D002A03D0641CA4B2EB
:10CB5000A142F8D800252F461DE0049886421CD833
:10CB6000AC4211D00098F4F79BF8611B0191415C35
:10CB7000090609D5019947540098F4F791F80199ED
:10CB8000491E4754AD1C05E00098F4F789F8611B75
:10CB900047546D1C761CA542DFD90020D1E7000068
:10CBA00001000100F3B50026204C83B000280DD011
:10CBB00005461E300090F4F773F8002806D02235A1
:10CBC00069782A7800240902114307E0204605B05D
:10CBD000F0BD025D002A03D0641CA4B2A142F8D8C3
:10CBE00000252F461DE0049886421CD8AC4211D087
:10CBF0000098F4F755F8611B0191415C090609D5CD
:10CC0000019947540098F4F74BF80199491E47548D
:10CC1000AD1C05E00098F4F743F8611B47546D1C08
:10CC2000761CA542DFD90020D1E7000001000100F9
:10CC3000002806D0827B437B100218430880002026
:10CC4000704701487047000001000100002806D02D
:10CC5000427D037D10021843088000207047014880
:10CC60007047000001000100002806D0C27E837ECC
:10CC700010021843088000207047014870470000E8
:10CC8000010001000048704706000300002806D09C
:10CC9000427D037D10021843088000207047014840
:10CCA0007047000001000100002806D0027CC37B11
:10CCB00010021843088000207047014870470000A8
:10CCC00001000100002806D0827B437B100218433C
:10CCD00008800020704701487047000001000100F3
:10CCE000002806D0C27B837B1002184308800020F6
:10CCF000704701487047000001000100002806D07D
:10CD0000427D037D100218430880002070470148CF
:10CD10007047000001000100002806D0427D037D1D
:10CD20001002184308800020704701487047000037
:10CD300001000100002806D0827E437E10021843C5
:10CD40000880002070470148704700000100010082
:10CD5000FFB589B01D460E46074637E0200607D5C9
:10CD600069786D1C002934D02006000C014304E0D2
:10CD70001A4920462038401881B204A80B9AFFF7C0
:10CD8000F5F904A80FC80090039302920191684638
:10CD90000089002811D11249124A096812688918BD
:10CDA0008B420AD3181F991E09780078081A316837
:10CDB00080B208180C49098805E00A2C05D069469C
:10CDC000098830684908401830606D1C2C78002CA8
:10CDD000C4D16C460FCC0FC70DB0F0BDA0A30000AE
:10CDE00024460100204601003E46010010B51446CD
:10CDF00000280AD023304279037912021A430A80AC
:10CE0000F3F74EFF2060002010BD014810BD000068
:10CE10000100010010B5144600280AD022304279E2
:10CE2000037912021A430A80F3F73AFF20600020C8
:10CE300010BD014810BD00000100010010B51446EE
:10CE400000280AD0C27B837B12021A430A800A3070
:10CE5000F3F726FF2060002010BD014810BD000040
:10CE600001000100004870470600030010B5144699
:10CE700000280AD0427E037E12021A430A80143030
:10CE8000F3F70EFF2060002010BD014810BD000028
:10CE90000100010070B5144600280CD00246223271
:10CEA000537815781A022A430A801E30F3F7F8FEE9
:10CEB0002060002070BD014870BD0000010001002D
:10CEC00070B5144600280CD00246223253781578EB
:10CED0001A022A430A801E30F3F7E2FE2060002087
:10CEE00070BD014870BD000001000100002804D0A1
:10CEF00020308078086000207047014870470000AB
:10CF00000100010010B50C46002805D01E30F3F7D3
:10CF1000C7FE2060002010BD004810BD01000100C8
:10CF200010B50C46002805D0801DF3F7B9FE20602F
:10CF3000002010BD004810BD0100010000487047EE
:10CF40000600030010B50C46002805D01E30F3F78C
:10CF5000A7FE2060002010BD004810BD01000100A8
:10CF6000002803D0C07D086000207047004870474B
:10CF700001000100002806D0C27D837D1002184305
:10CF80000860002070470148704700000100010060
:10CF9000002803D0C07B086000207047004870471D
:10CFA00001000100002806D0827F437F1002184351
:10CFB0000860002070470148704700000100010030
:10CFC000002806D0427F037F10021843086000202B
:10CFD00070470148704700000100010070B5154618
:10CFE0000E46002812D0014620318A780446002AD5
:10CFF0000DD000228A7003F06BFE20462930F3F733
:10D000004FFE020002D029463046904770BD0122F3
:10D01000F0E70000F7B586B000287DD041780278AF
:10D0200009021143654A0446914275D1617BC51CD2
:10D03000661C032904D002291ED001292BD0B1E09F
:10D04000687C297C00020843697A2A7A0902114324
:10D05000727A337A12021A4300920191029068792F
:10D060002A790102114370793279000210430B468C
:10D070000246FEF71FFB95E0687C297C0202687976
:10D080000A432B790102194370793379000218435E
:10D09000FEF7E4F986E0687D297D000208434849EF
:10D0A000C8806879297903020B43687A297A0002DB
:10D0B00008431918207C3279091A491E89B28E4614
:10D0C0007179377A09021143727A1B1812023A43B6
:10D0D0008A18121A521E08189BB23A499C468F6849
:10D0E00092B280B273466146B847707931790002D6
:10D0F0000843217C41186846C1806879297900027B
:10D100000843217C41186846018170793179000219
:10D110000843717A327A00E04DE009021143401869
:10D12000217C411A684641816879297900020843C7
:10D13000697A2A7A090211434018217C411A68460B
:10D140008181687E297E000208431D49C880687D70
:10D15000297D000208431A498880E07BA27B0102F6
:10D16000114368460180214620314A7842710022ED
:10D170000271E27F82700978C17020462230F3F795
:10D180008FFD04A90131F3F795FD617B684681733A
:10D19000687C2A7C010211436846C173090A017444
:10D1A00004F032F820462830F3F77AFD020002D06E
:10D1B00008990798904709B0F0BD0000068000006C
:10D1C00004000020480B000070B514460D460028EE
:10D1D00007D00F30F3F764FD020002D02146284645
:10D1E000904770BD70B514460D46002807D0233017
:10D1F000F3F756FD020002D021462846904770BD45
:10D2000070B50D46074914460978012909D100284F
:10D2100007D03E30F3F744FD020002D021462846F5
:10D22000904770BD19460100704770B514460D4611
:10D23000002807D02330F3F733FD020002D0214647
:10D240002846904770BD70B515460E46040010D0B4
:10D2500020461830F3F724FD020002D0294630465C
:10D260009047E07D002805D000212046E17504F0BC
:10D27000B7FD70BD0121F8E770B514460D460028D2
:10D2800007D01A30F3F70CFD020002D021462846E1
:10D29000904770BD70B514460D46002807D01F306A
:10D2A000F3F7FEFC020002D021462846904770BDED
:10D2B00070B514460D46002807D00F30F3F7F0FC88
:10D2C000020002D021462846904770BD70B5144632
:10D2D0000D46002807D01C30F3F7E2FC020002D014
:10D2E00021462846904770BD70B514460D4600286B
:10D2F00007D01830F3F7D4FC020002D021462846AC
:10D30000904770BD70B50D4609491446097801294A
:10D310000DD108490968002909D0002807D01C3020
:10D32000F3F7BEFC020002D021462846904770BDAC
:10D3300018460100FC00002070B514460D46002878
:10D3400007D03530F3F7ACFC020002D02146284666
:10D35000904770BD70B514460D46002807D02730A1
:10D36000F3F79EFC020002D021462846904770BD8C
:10D3700070B514460D46002807D02230F3F790FC14
:10D38000020002D021462846904770BD70B5144671
:10D390000D46002807D02630F3F782FC020002D0A9
:10D3A00021462846904770BD70B514460D460028AA
:10D3B00007D00D30F3F774FC020002D02146284656
:10D3C000904770BD70B514460D46002807D01B303D
:10D3D000F3F766FC020002D021462846904770BD54
:10D3E000002801D00020704700487047010001006C
:10D3F000004870470600030070B514460D4600282B
:10D4000007D02D30F3F74CFC020002D0214628460D
:10D41000904770BDF7B586B000287DD0417802787E
:10D4200009021143684A0446914275D1617B451C4B
:10D43000E01C032904D002291ED001292BD0B8E01A
:10D44000697D2B7D0A02417A1A430B02067A697ABA
:10D4500033432E7A090231430193029200914179BC
:10D4600000790902014368792A79000210430B46CA
:10D470000246FEF71FF99CE0697D2B7D0A02417987
:10D480000079090201431A4368792B790002184395
:10D49000FDF7E4FF8DE0697E2A7E090211434B4AC5
:10D4A0000646D180417900790B02717A0343327AC2
:10D4B000080210431918207C2A79091A491E89B2DA
:10D4C0008E4669792F7A090211436A7A1B18120273
:10D4D0003A438A18121A521E08189BB23C499C46BD
:10D4E0008F6892B280B273466146B847687F297FE1
:10D4F000000208433549C880687E297E000208433F
:10D50000324988806879297900020843217C4118D2
:10D510006846C180717900E054E032790802217CCC
:10D52000104341186846018168792979000208434F
:10D53000697A2A7A090211434018217C411A684607
:10D540004181717930790902727A0143337A10028C
:10D5500018430818217C411A68468181687F297F19
:10D56000000208431949C880E07BA27B01021143F5
:10D5700068460180214620314A78427100220271BA
:10D58000E27F82700978C17020462230F3F788FB71
:10D5900004A90131F3F78EFB617B68468173687DD6
:10D5A0002A7D010211436846C173090A017403F020
:10D5B0002BFE20462C30F3F773FB020002D00899B3
:10D5C0000798904709B0F0BD0680000004000020D5
:10D5D000480B000070B514460D46002807D01330E4
:10D5E000F3F75EFB020002D021462846904770BD4B
:10D5F000F7B584B0002868D0074600251E30F3F741
:10D600004FFB04466D1CEDB20A21F3F7E5FA002842
:10D61000F8D1204601246E4606E00A21F3F7DCFA31
:10D620002A1B3031B154641CAC42F6D9387F00213A
:10D630002C4600282AD0A0420CD2201AC0B232199F
:10D64000203AD27F3255641EE4B28442F7D82E22AB
:10D65000325418E0401CC0B23022002C08D03319DC
:10D66000203BDB7F3354401E641EC0B2E4B204E0B2
:10D670003254401E6D1CC0B2EDB20028EDD1684698
:10D6800002702E2242707019417000E03155F87816
:10D69000BA7800021043B97B6B460322FDF73CFDCC
:10D6A0000B49884202D10BA0FBF700FF10484168EC
:10D6B000002901D06846884738462730F3F7F0FA4A
:10D6C000020002D006990598904707B0F0BD00000F
:10D6D00001000600776964676574206B65794944C9
:10D6E00020697320696E76616C69640D0A00000020
:10D6F000D045010070B50D46074914460978012947
:10D7000009D1002807D04230F3F7CAFA020002D04C
:10D7100021462846904770BD194601007047000019
:10D72000F7B584B0002838D005461E30F3F7B8FAB4
:10D73000064600240A2805D30A21F3F74DFA641C93
:10D7400024B2F7E7641C24B2304627466E4608E050
:10D750000A21F3F741FA32193031203A641ED177A9
:10D7600024B2002CF4DC0020F055E878AA780002FE
:10D770001043A97B6B460322FDF7CEFC0849884283
:10D7800002D108A0FBF792FE28462730F3F788FA6B
:10D79000020002D006990598904707B0F0BD00003E
:10D7A00001000600776964676574206B65794944F8
:10D7B00020697320696E76616C69640D0A0000004F
:10D7C00070B514460D46002807D01C30F3F768FAF0
:10D7D000020002D021462846904770BD70B514461D
:10D7E0000D46002807D01E30F3F75AFA020002D087
:10D7F00021462846904770BD70B514460D46002856
:10D8000007D02330F3F74CFA020002D02146284615
:10D81000904770BD70B514460D46002807D01330F0
:10D82000F3F73EFA020002D021462846904770BD29
:10D8300070B514460D46002807D02030F3F730FAB3
:10D84000020002D021462846904770BD70B51446AC
:10D850000D46002807D01C30F3F722FA020002D050
:10D8600021462846904770BD70B50D4609491446BB
:10D87000097801290DD108490968002909D0002833
:10D8800007D02030F3F70CFA020002D021462846D8
:10D89000904770BD18460100FC00002070B5154689
:10D8A0000E4600281CD004461E30F3F7F9F9030099
:10D8B00017D0E078A27800021043A17B0122FDF787
:10D8C0002BFC0949884202D108A0FBF7EFFD204656
:10D8D0003930F3F7E5F9020002D029463046904787
:10D8E00070BD09A0F1E700000100060077696467D8
:10D8F0006574206B6579494420697320696E76618F
:10D900006C69640D0A0000007769646765742074AF
:10D9100065787420706F696E746572206973206E0B
:10D92000756C6C0D0A00000070B514460D46002899
:10D9300007D02B30F3F7B4F9020002D02146284675
:10D94000904770BD70B514460D46002807D02630AC
:10D95000F3F7A6F9020002D021462846904770BD91
:10D9600070B515460E4600281CD004461E30F3F74D
:10D9700097F9030017D0E078A27800021043A17B4A
:10D980000122FDF7C9FB0949884202D108A0FBF733
:10D990008DFD20462A30F3F783F9020002D0294694
:10D9A0003046904770BD09A0F1E700000100060075
:10D9B000776964676574206B6579494420697320D1
:10D9C000696E76616C69640D0A00000077696467AE
:10D9D0006574207465787420706F696E7465722048
:10D9E0006973206E756C6C0D0A00000070B51446EA
:10D9F0000D46002807D01130F3F752F9020002D08B
:10DA000021462846904770BD70B514460D46002843
:10DA100007D01F30F3F744F9020002D02146284610
:10DA2000904770BD10B500280BD0044600290AD0DD
:10DA30000120E071F2F7D8FE21460831F3F73AF9F8
:10DA400003E0034810BD0020E071002010BD00007D
:10DA5000010001000048704706000300002805D0BF
:10DA6000002900D00121417500207047004870470F
:10DA700001000100002805D0002900D001214173D8
:10DA8000002070470048704701000100002806D0C0
:10DA90002030002900D00121017200207047014888
:10DAA0007047000001000100002805D0002900D0C7
:10DAB0000121C17400207047004870470100010037
:10DAC000002804D04173090A81730020704701487F
:10DAD0007047000001000100002804D00175090A08
:10DAE00041750020704701487047000001000100A7
:10DAF000002804D08176090AC176002070470148C9
:10DB00007047000001000100004870470600030054
:10DB1000002804D00175090A4175002070470148AA
:10DB2000704700000100010010B5002810D0037CF0
:10DB3000C47B1B02234343731B0A8373C173090A0B
:10DB40000174002141778177C1760177084610BDC5
:10DB5000004810BD01000100002804D04173090AEB
:10DB600081730020704701487047000001000100E8
:10DB7000002804D08173090AC1730020704701484E
:10DB80007047000001000100002804D00175090A57
:10DB900041750020704701487047000001000100F6
:10DBA000002804D00175090A41750020704701481A
:10DBB0007047000001000100F7B5174C0D46002822
:10DBC00008D023300646F3F76BF8002802D0002473
:10DBD000274607E02046FEBD3046F3F761F80755BB
:10DBE000641CA4B27079317900020843A042F3D8D2
:10DBF00000240DE07079317900020843401EA042F4
:10DC000008D93046F3F74CF80299095D0155641CB8
:10DC1000AC42EFD30020FEBD01000100F7B5174C68
:10DC20000D46002808D022300646F3F739F80028C0
:10DC300002D00024274607E02046FEBD3046F3F719
:10DC40002FF80755641CA4B270793179000208439B
:10DC5000A042F3D800240DE0707931790002084326
:10DC6000401EA04208D93046F3F71AF80299095D20
:10DC70000155641CAC42EFD30020FEBD0100010041
:10DC8000F7B588B0174600280CD0014606461E316D
:10DC900000200191F3F70EF800210D460C460A46CC
:10DCA000084609E050480BB0F0BD3B5C002B06D0A5
:10DCB000641C401CA4B280B2099B9842F5D300209A
:10DCC00004E03B5C2E2B1CD0401C80B2A042F8D359
:10DCD0002220805D002819D0337FC01A80B200292D
:10DCE00016D0367F29468E4200D23146631B5C1E19
:10DCF000844202DD181A401E82B258181446009061
:10DD00005FE0201A401E85B2491CE1E72046E6E7A5
:10DD1000A0421AD8201A85B214E0785D03903038FA
:10DD2000092809D80198F2F7BBFF0A214843039953
:10DD300030384018019901E000200199F2F7BAFF4C
:10DD40006D1CADB2A542E8D318E0002514E0785D63
:10DD500003903038092809D80198F2F7A1FF0A2169
:10DD60004843039930384018019901E00020019997
:10DD7000F2F7A0FF6D1CADB2A542E8D30024357FB9
:10DD800009E00198F2F78CFF0A2148430199F2F764
:10DD900091FF641CA4B2A542F3D823E0385D05903E
:10DDA000303809280AD80198F2F77AFF0A21484347
:10DDB0000599303840180199F2F77CFF641C0098EF
:10DDC000A4B2A042EADC0024751B09E00198F2F736
:10DDD00067FF0A2148430199F2F76CFF641CA4B263
:10DDE000A542F3DC00205EE701000100F7B5194D04
:10DDF00082B00E46002809D004460A300090F2F79F
:10DE00004FFF002802D000252F4608E0284605B025
:10DE1000F0BD0098F2F744FF47556D1CADB2E07BB2
:10DE2000A17B00020843A842F3D800250DE0E07B67
:10DE3000A17B00020843401EA84208D90098F2F7CF
:10DE40002FFF0499495D41556D1CB542EFD3002069
:10DE5000DDE70000010001000048704706000300F4
:10DE6000F8B516460F46002809D0014604461E3173
:10DE700000200091F2F71EFF0025284608E0174811
:10DE8000F8BD315C002905D06D1C401CADB280B2DC
:10DE9000B842F6D32034A078002801D0A84201D39C
:10DEA000002416E0281A84B213E0375D3846303873
:10DEB000092808D80098F2F7F3FE0A2148433038C1
:10DEC000C019009901E000200099F2F7F3FE641CEC
:10DED000A4B2AC42E9D30020F8BD0000010001006B
:10DEE000F7B51B4C82B00E46002809D00546143009
:10DEF0000090F2F7D5FE002802D00024274608E063
:10DF0000204605B0F0BD0098F2F7CAFE0755641C24
:10DF1000A4B2687E297E00020843A042F3D8002400
:10DF20000FE0687E297E00020843401EA0420AD905
:10DF30000498075D002F06D00098F2F7B1FE075550
:10DF4000641CB442EDD3AC76200AE8760020D8E712
:10DF500001000100F7B5234D82B00F4600280AD01A
:10DF600004461E300090F2F79BFE002803D00025E7
:10DF70002646223609E0284605B0F0BD0098F2F7A3
:10DF80008FFE002141556D1CADB2707831780002D2
:10DF90000843A842F2D8002511E0707831780002D9
:10DFA0000843401EA8420CD90498405D0190002807
:10DFB00007D00098F2F774FE019941556D1CBD42DF
:10DFC000EBD3ADB2214621310D73280A4873009876
:10DFD000F2F766FE214640192F31F2F76BFE002062
:10DFE000CAE7000001000100F7B5194D82B00E46E6
:10DFF00000280AD004461E300090F2F751FE002897
:10E0000003D000252F46223408E0284605B0F0BD95
:10E010000098F2F745FE47556D1CADB26078217847
:10E0200000020843A842F3D800250DE0607821786B
:10E0300000020843401EA84208D90098F2F730FEBB
:10E040000499495D41556D1CB542EFD30020DDE7D1
:10E0500001000100002807D020308170002901D084
:10E0600001218170002070470048704701000100C5
:10E0700010B50A46002806D001461E311046F2F7B8
:10E0800019FE002010BD014810BD00000100010074
:10E09000FEB5002810D00446480005192235687DD9
:10E0A0002E7D0302D0B2009033438800002B05D0B0
:10E0B00000270619263614E01848FEBD0019263040
:10E0C000F2F7EEFD00990170687D297D000208439A
:10E0D0001DE0F2F7E5FD0199C91B4A1E825C42541E
:10E0E0007F1C687D297D000208430190B8423046BC
:10E0F000EFDCF2F7D5FD00990170687D297D000203
:10E100000843A17A627A09021143884203D2401C73
:10E110002875000A68750020FEBD0000010001009E
:10E1200010B50A46002805D0811D1046F2F7C2FD41
:10E13000002010BD004810BD0100010000487047DC
:10E140000600030010B50A46002806D001461E311D
:10E150001046F2F7AFFD002010BD014810BD0000D1
:10E1600001000100002806D0C175002901D001215D
:10E17000C175002070470148704700000100010090
:10E1800070B500280AD0FF2568350446A94207D992
:10E1900006A0FBF78BF9A575280A03E00F4870BDB0
:10E1A000A175080AE075002070BD0000636F6E74F1
:10E1B000726F6C2076616C75652070726F7065721D
:10E1C0007479206F7574206F662072616E676520A8
:10E1D00028302D33353929210D0A000001000100B6
:10E1E00010B5002808D00446642907D905A0FBF71C
:10E1F0005DF96420E07302E00E4810BDC173002099
:10E2000010BD0000636F6E74726F6C2076616C7568
:10E21000652070726F7065727479206F7574206FED
:10E22000662072616E67652028302D3130302921DB
:10E230000D0A00000100010070B500280AD0FF257A
:10E240006935441CA94207D906A0FBF72FF92577A9
:10E25000280A03E00F4870BD2177080A6077002084
:10E2600070BD0000636F6E74726F6C2076616C75A8
:10E27000652070726F7065727479206F7574206F8D
:10E28000662072616E67652028302D333630292173
:10E290000D0A00000100010010B5002809D0044655
:10E2A000642908D906A0FBF701F964202077002033
:10E2B00003E00F4810BD2177080A6077002010BDE9
:10E2C000636F6E74726F6C2076616C75652070720E
:10E2D0006F7065727479206F7574206F662072613B
:10E2E0006E67652028302D31303029210D0A00005D
:10E2F00001000100F8B51446050010D08C4202D987
:10E3000090B20C460146FF272E4669372136B942A6
:10E3100007D90CA0FBF7CAF83771380A03E0154893
:10E32000F8BD3171080A23357071BC4205D905A0CA
:10E33000FBF7BCF82F70380A01E02C70200A6870D7
:10E340000020F8BD636F6E74726F6C2076616C751F
:10E35000652070726F7065727479206F7574206FAC
:10E36000662072616E67652028302D333630292192
:10E370000D0A000001000100002802D0C174002035
:10E38000704701487047000001000100704770B5F8
:10E3900014460D4600280DD006463146606800F050
:10E3A00021FB30462F30F2F77BFC020002D02146E1
:10E3B0002846904770BD70B514460D4600280DD014
:10E3C00006463146606800F043FC30462A30F2F7DA
:10E3D00067FC020002D021462846904770BD70B508
:10E3E00014460D46002807D00C30F2F759FC020005
:10E3F00002D021462846904770BD7047F8B51546B3
:10E400000E4600281BD0027FC37E1102194304462A
:10E41000012909D0611CA37F0A46677F190239438D
:10E42000491C1177090A517703F034FE20462B303E
:10E43000F2F736FC020002D0294630469047F8BD7C
:10E4400070B514460D4600280BD0064605F060F85E
:10E4500030464130F2F724FC020002D02146284623
:10E46000904770BDF8B515460F46002824D0827E2F
:10E47000467E13023343067CC27B3602411C1643A0
:10E480000446B34203D25B1C0B761A0A08E0227DD5
:10E49000002A06D04A7B0B7B12021A430A76120A24
:10E4A0004A7605F0CBFC20462730F2F7F9FB020054
:10E4B00002D0294638469047F8BD70B514460D463F
:10E4C00000280BD0064602F003FC30463130F2F74C
:10E4D000E7FB020002D021462846904770BD0000AD
:10E4E00070B515460E46040012D041780278090234
:10E4F0001143084A91420BD120463030F2F7D0FB4D
:10E50000020002D0294630469047204602F04EFDD8
:10E5100070BD000006800000F7B584B015460028E5
:10E5200025D00446421C807B137B01021943237BC8
:10E53000E67A1B023343567A177A36023E43009638
:10E5400001930291217AE07909020143507912790D
:10E55000000210430B460246FDF7ACF82046173088
:10E56000F2F79EFB020002D029460598904707B0BB
:10E57000F0BD70B514460D4600280BD0064603F0DA
:10E5800017F830462B30F2F78BFB020002D0214601
:10E590002846904770BD000070B504460A481546ED
:10E5A00000780E4601280DD1002C0BD0204603F038
:10E5B00007FA20464630F2F773FB020002D02946E4
:10E5C0003046904770BD000019460100704770B595
:10E5D00015460E4604000AD003F034FA20462B30CC
:10E5E000F2F75EFB020002D029463046904770BD2C
:10E5F00070B515460E4604000BD020462030F2F7C9
:10E600004FFB020002D0294630469047204603F0D7
:10E61000E7FB70BD70B514460D46002807D02230C8
:10E62000F2F73EFB020002D021462846904770BD1B
:10E6300070B514460D46002807D02730F2F730FB9E
:10E64000020002D021462846904770BD70B515469D
:10E650000E4600280BD0044604F0B5FC20461730C7
:10E66000F2F71EFB020002D029463046904770BDEB
:10E6700070B515460E46002816D00446407E217E11
:10E680000002084309498842204602D104F0AEFC4A
:10E6900001E0F8F779FB20462430F2F701FB020095
:10E6A00002D029463046904770BD0000FFFF0000B1
:10E6B00070B515460E4604000AD004F027FD20462A
:10E6C0002030F2F7EDFA020002D02946304690479A
:10E6D00070BD000070B504460C48154600780E4623
:10E6E000012811D10A48006800280DD0002C0BD059
:10E6F000204604F0D1FD20462430F2F7D1FA020082
:10E7000002D029463046904770BD000018460100EF
:10E71000FC00002070B514460D46002807D03D309F
:10E72000F2F7BEFA020002D021462846904770BD9B
:10E73000F7B584B0174604007ED0617B2246E01C0A
:10E740002132022904D003293BD0012951D08FE086
:10E75000A37D611C022B02D0012B0BD088E0657DCC
:10E76000267D2B023343457D067D2D0235430095E2
:10E7700001950BE0657D267D2B023343457D067DAB
:10E780002D0235436E1CB6B2009601960293537863
:10E7900012781B0213436A089D1A437906791B02FB
:10E7A0003343467F007F36020643B01A4A7909791F
:10E7B000EB1A12020A43811A8AB29BB2A9B280B242
:10E7C00014E0637D217D1B020B43417D057D090221
:10E7D0002943009102930191517812780902114363
:10E7E000427F037F100218430B460246FCF762FF8C
:10E7F0003EE0A37D2549022B02D0012B20D037E03B
:10E80000E57BA67B2B023343CB805178127809023B
:10E810001143427D037D12021A4355084A1993B2EF
:10E82000427F067F100230434219491B401B92B2BF
:10E8300089B280B2164D00E026E0AD68A84717E027
:10E84000E57BA67B2B023343CB80417F037F09020C
:10E8500019436B4619805178127809021143598087
:10E86000417D027D0802104341080098FCF7E2FF59
:10E870002046F9F72DFB20463330F2F711FA02005B
:10E8800002D039460598904707B0F0BD040000203B
:10E89000480B0000F7B584B0040079D0A37B214673
:10E8A000621C2031E71CA01C022B04D0032B28D0B3
:10E8B000012B42D060E0537C9446157C1A022A4317
:10E8C000E37EA57E1B022B43657E267E2D0235430B
:10E8D0000095019302924A780B78110219437A79D4
:10E8E0003B7912021A438A1A93B2427F057F1002C3
:10E8F00028436246557912792D021543421B92B284
:10E9000018E0537C157C1A022A43E57EA67E2B0272
:10E910003343657E267E2D02354300950193029296
:10E920004A780B7811021943427F037F1002184383
:10E930000B460246FCF7BEFE1EE07A7B3B7B1202D2
:10E940001A43144BDA804A780B7811021943E37E9C
:10E95000A57E1A022A438A18521E93B2427F057F6F
:10E9600010022843627E257E12022A430A4D821835
:10E97000521EAD6892B2A8472046F9F76DFB2046BB
:10E980002E30F2F78DF9020002D0069905989047D3
:10E9900007B0F0BD04000020480B000070B515461C
:10E9A0000E4604000AD005F0F1F820462E30F2F7AA
:10E9B00077F9020002D029463046904770BD70B505
:10E9C00015460E4600280BD0044605F037FA2046BF
:10E9D0002330F2F765F9020002D02946304690470D
:10E9E00070BD0000F0B5427803781702C2788078D5
:10E9F00015021F4305438BB000297DD00791491CA8
:10EA0000049148790A79000210434A7A0B7A11027C
:10EA100019434908401880B26946888007990090D8
:10EA2000087ACA79000210430A7BCB7A1102194393
:10EA30004908401886B26946CE80AE4205D100989A
:10EA4000B84201D2002400E0B4240098B84205D1B5
:10EA5000AE4201D25A2401E0FF240F34AE4230D23C
:10EA6000B8422ED2A81BF2F7CBFA05900098381ABC
:10EA7000F2F7C6FA014601270598F2F7BAF90990AC
:10EA800005907049B800704A09581058F2F7B1F96A
:10EA9000014600900598F2F773FB04D2009905989F
:10EAA00003E0BCB2ADE005990098F2F75DF9674963
:10EAB0000968F2F75BFBF4D37F1C5A2F7EDA0998C2
:10EAC000DEE7AE4232D2B84230D9A81BF2F798FA4C
:10EAD00005900098C01BF2F793FA014601270598AC
:10EAE000F2F787F9099005905649B800564A095837
:10EAF0001058F2F77EF900E0A1E001460090059879
:10EB0000F2F73EFB02D20099059801E005990098C2
:10EB1000F2F72AF94D490968F2F728FB01D2B4202F
:10EB20005EE07F1C5A2F6CDA0998DCE7AE4230D9E0
:10EB3000B8422ED9701BF2F763FA05900098C01BFB
:10EB4000F2F75EFA014601270598F2F752F90990AB
:10EB500000903C49B8003C4A09581058F2F749F96E
:10EB6000014605900098F2F70BFB04D20599009836
:10EB700003E0B43795E700990598F2F7F5F83349C3
:10EB80000968F2F7F3FAF4D37F1C5A2F39DA09989F
:10EB9000DEE7AE4235D9B84233D2701BF2F730FA15
:10EBA00005900098381AF2F72BFA014601270598CC
:10EBB000F2F71FF909900590B80000E021E0214923
:10EBC000214A09581058F2F714F9014600900598A7
:10EBD000F2F7D6FA07D20099059806E0FF206930CF
:10EBE000C01B84B20DE005990098F2F7BDF81749F3
:10EBF0000968F2F7BBFAF1D37F1C5A2F01DA0998A2
:10EC0000D9E7FF206A30844205D9AE4202D9FF24F9
:10EC10000F3400E05A240798233041780278080224
:10EC20001043A0420BD8079821304179027908029D
:10EC30001043A04203D30498210A047741770BB014
:10EC4000F0BD0000FC710100586C01003C02002086
:10EC500070B54278037812021A43C3788478180298
:10EC60002043002920D00C46497B00291DD0227A60
:10EC7000E37912021A43237BE57A190229435218D9
:10EC8000824200D290B2E37EA57E1B022B43C91ABA
:10EC900089B2101A64225043F1F79EFF642800D312
:10ECA00064202077000A607770BDA179607A0B023A
:10ECB000A17A657909020143607E267E2B4300021A
:10ECC0005D1830432D1A954200DAAAB2081A81B2B3
:10ECD000D01ADFE7F3B583B0F4F77EFA0090002096
:10ECE00001460190049801600098002839D05F4DDA
:10ECF000352029688847040024D02869002804D0DA
:10ED000003462922204603999847286800280BD0FB
:10ED1000214623310E4648790979000208432968C3
:10ED200088473146F1F7C6FF204623300746F1F702
:10ED3000B7FF00280CD0787939790002084332D027
:10ED400000261BE068680028D0D00146009807E044
:10ED500068680028CAD0014600988847696820463C
:10ED6000884781E03846F1F79BFF0021815578798B
:10ED7000397900020843761CB6B201907879397966
:10ED800000020843B042EDD8286900280FD0384669
:10ED9000F1F786FF79793B790A021A4303992B69C7
:10EDA0002931984703E039460020F1F783FFA17924
:10EDB00063790A02A17A607A09021A430143501862
:10EDC0002B4A2C4E138898420BD8237AE0791B02E9
:10EDD0000343207BE77A0002384352881B18934292
:10EDE0000ED925A0FAF762FB6868002805D0014615
:10EDF00000988847696820468847304605B0F0BDCE
:10EE0000224620329378002B01D001239370227C7C
:10EE10005200914201D3904208D2814201D8480861
:10EE200000E04008207420A0FAF740FB2146293179
:10EE30000020F1F73FFF21462D310020F1F73AFF86
:10EE4000214631310020F1F735FF00980460FCF7CE
:10EE500001FE002808D00099F7F74EF801980499B0
:10EE6000293008600020C9E71948C7E7D0450100EC
:10EE700004000020010002004572726F7220736569
:10EE80007474696E6720636F6E74726F6C206C6F40
:10EE9000636174696F6E20696E666F726D6174690B
:10EEA0006F6E210D0A000000436F6E74726F6C204C
:10EEB000626F726465722077696474682069732078
:10EEC000746F6F206C61726765210D0A000000008D
:10EED00001000100F3B583B0F4F77EF90090002043
:10EEE00001460190049801600098002839D05C4CDC
:10EEF000342021688847050024D02069002804D0E8
:10EF000003462822284603999847206800280BD0FA
:10EF1000294622310E4648790979000208432168C2
:10EF200088473146F1F7C6FE284622300746F1F7FA
:10EF3000B7FE00280CD0787939790002084332D026
:10EF400000261BE060680028D0D00146009807E04A
:10EF500060680028CAD00146009888476168284642
:10EF600088477AE03846F1F79BFE00218155787991
:10EF7000397900020843761CB6B201907879397964
:10EF800000020843B042EDD8206900280FD038466F
:10EF9000F1F786FE79793B790A021A4303992369CE
:10EFA0002831984703E039460020F1F783FEA9791C
:10EFB0006B790A02A97A687A09021A430143501848
:10EFC000284A294E138898420BD82B7AE8791B02DD
:10EFD0000343287BEF7A0002384352881B18934280
:10EFE0000ED922A0FAF762FA6068002805D001461F
:10EFF00000988847616828468847304605B0F0BDCC
:10F000002A7C5200914201D3904208D2814201D819
:10F01000480800E04008287420A0FAF747FA29467B
:10F0200028310020F1F746FE29462C310020F1F767
:10F0300041FE294630310020F1F73CFE0098056082
:10F04000FCF708FD002808D00099F6F755FF019855
:10F050000499283008600020D0E71A48CEE7000065
:10F06000D045010004000020010002004572726FCB
:10F07000722073657474696E6720636F6E74726F4B
:10F080006C206C6F636174696F6E20696E666F725D
:10F090006D6174696F6E210D0A000000436F6E741C
:10F0A000726F6C20626F7264657220776964746835
:10F0B00020697320746F6F206C61726765210D0A7F
:10F0C0000000000001000100F3B581B00746F4F72D
:10F0D00083F8064600210298002E01604FD0294D8A
:10F0E0001B2029688847040043D02869002804D0E1
:10F0F00003460F22394620469847601CA17A0546F0
:10F10000214F627A080239881043884206D91FA02D
:10F11000FAF7CCF938882872000A6872207BE17A05
:10F12000000208437988E51C884206D925A0FAF731
:10F13000BDF978882872000A687221460F310020D4
:10F14000F1F7B8FD214613310020F1F7B3FD214658
:10F1500017310020F1F7AEFD3460FCF77BFC00288E
:10F160000DD03146F6F7C8FE02980F21016000204D
:10F17000FEBD6868002802D0014630468847204816
:10F18000FEBD0000D045010004000020436F6E74F6
:10F19000726F6C2077696474682069732067726588
:10F1A00061746572207468616E20746865204C43D8
:10F1B0004420646973706C61792077696474682194
:10F1C0000D0A0000436F6E74726F6C20686569678A
:10F1D0006874206973206772656174657220746851
:10F1E000616E20746865204C434420646973706CC0
:10F1F000617920686569676874210D0A0000000064
:10F2000001000100F3B581B00F46F3F7E5FF0646B4
:10F2100000203860002E70D0394D2F202968884793
:10F2200004002FD02869002804D00346232220465A
:10F2300001999847A179607A0A02A17A6379090253
:10F24000014330481A430088521882420CD8227A6F
:10F25000E07912020243207BE37A0002184313187C
:10F26000284A5288934214D927A0FAF71FF96868F0
:10F27000002805D0014630468847696820468847FF
:10F280002D48FEBD6868002837D0014630468847C3
:10F2900033E0627C5200914201D3904208D2814215
:10F2A00001D8480800E04008607424A0FAF7FEF88E
:10F2B000214620318A78002A04D0207F824201D85A
:10F2C000401C8870214623310020F1F7F3FC2146D1
:10F2D00027310020F1F7EEFC21462B310020F1F719
:10F2E000E9FC3460FCF7B6FB002806D03146F6F79F
:10F2F00003FE232038600020FEBD1A48FEBD00003A
:10F30000D0450100040000204572726F72207365C1
:10F310007474696E6720636F6E74726F6C206C6FAB
:10F32000636174696F6E20696E666F726D61746976
:10F330006F6E210D0A00000001000200436F6E7421
:10F34000726F6C20626F7264657220776964746892
:10F3500020697320746F6F206C61726765210D0ADC
:10F360000000000001000100F3B506464F4881B0DF
:10F370000078012801D04E48FEBDF3F72DFF074667
:10F3800000200299002F08603DD04A4D4A2029688C
:10F390008847040031D02869002804D0034626227B
:10F3A000314620469847601C0090A1796279090295
:10F3B0001143A27A637A1002184308183E493F4E5F
:10F3C0000A8890420BD8227AE37912021A43237BEF
:10F3D000E07A1B0203434988D018884214D938A028
:10F3E000FAF764F86868002805D00146384688476F
:10F3F0006968204688473046FEBD6868002852D0BC
:10F400000146384688474EE00026B000011900202A
:10F410002631F1F74FFC761C042EF6DB0026617CCA
:10F42000701C814220DB0098417A027A0802296828
:10F4300010438847B10009192631F1F73BFC844697
:10F44000002811D0E868002808D00098EB68417ABD
:10F45000007A0A02024300216046984771000020AA
:10F460000919223108754875761C042ED7DB214610
:10F470003E310020F1F71EFC214642310020F1F719
:10F4800019FC214646310020F1F714FC3C60FCF7E2
:10F49000E1FA002807D03946F6F72EFD029826211A
:10F4A00001600020FEBD1248FEBD000019460100AB
:10F4B00001000300D045010004000020010002000B
:10F4C0004572726F722073657474696E6720636F22
:10F4D0006E74726F6C206C6F636174696F6E2069FB
:10F4E0006E666F726D6174696F6E210D0A000000A7
:10F4F00001000100F3B581B00F46F3F76DFE06463B
:10F5000000203860002E2AD0164D10202968884728
:10F5100004001ED02869002804D003460822204693
:10F520000199984721460C310020F1F7C3FBF1F710
:10F530005BF921460831F1F7BDFB3460FCF78AFA2C
:10F5400000280CD03146F6F7D7FC082038600020A0
:10F55000FEBD6868002802D0014630468847024850
:10F56000FEBD0000D045010001000100F3B581B0EF
:10F57000F3F732FE0026029907460E6000286DD090
:10F58000374D102029688847040024D028690028B6
:10F5900004D003461022204601999847304800685D
:10F5A00000280AD0E07BA17B000208432C490968AF
:10F5B000884721460A31F1F77DFB20460A3000904A
:10F5C000F1F76EFB00280CD0E07BA17B0002084322
:10F5D00033D000251BE0686800283FD0014638463C
:10F5E00008E01F4D6868002838D001463846884733
:10F5F00069682046884731E00098F1F751FB002107
:10F600004155E07BA17B06020E436D1CADB2E07B51
:10F61000C9B200020843A842EED8114D286900285B
:10F620000FD00098F1F73CFBE17BA37B0A021A4361
:10F6300001992B691031984703E000200099F1F7F8
:10F6400039FB3C60FCF706FA002807D03946F6F78C
:10F6500053FC0298103606600020FEBD0148FEBD36
:10F66000D0450100010001000020086000487047FB
:10F6700001000300F3B581B00F46F3F7ADFD064678
:10F6800000203860002E66D0344D2F20296888472E
:10F6900004003FD02869002804D0034623222046D6
:10F6A00001999847214623310020F1F703FB2146B9
:10F6B00027310020F1F7FEFA21462B310020F1F727
:10F6C000F9FA3460A179607A0A02A17A63790902B1
:10F6D000014323481A430088521882420CD8227AE8
:10F6E000E07912020243207BE37A000218431318E8
:10F6F0001B4A5288934214D91AA0F9F7D7FE6868BA
:10F70000002805D00146304688476968204688476A
:10F710002048FEBD686800281DD001463046884755
:10F7200019E0627C5200914201D3904208D281429A
:10F7300001D8480800E04008607417A0F9F7B6FE49
:10F74000FCF788F9002806D03146F6F7D5FB2320D0
:10F7500038600020FEBD1A48FEBD0000D045010003
:10F76000040000204572726F722073657474696EB4
:10F770006720636F6E74726F6C206C6F6361746965
:10F780006F6E20696E666F726D6174696F6E210DA8
:10F790000A00000001000200436F6E74726F6C205B
:10F7A000626F72646572207769647468206973207F
:10F7B000746F6F206C61726765210D0A0000000094
:10F7C00001000100F3B581B00F46F3F705FD0646D1
:10F7D00000203860002E5BD02E4D242029688847F9
:10F7E00004002ED02869002804D0034618222046A1
:10F7F00001999847A179627909021143A27A637A43
:10F8000010021843081824490A8890420BD8227A1B
:10F81000E37912021A43237BE07A1B0203434988EF
:10F82000D018884214D91DA0F9F740FE6868002856
:10F8300005D00146304688476968204688472348F6
:10F84000FEBD6868002823D00146304688471FE087
:10F85000E07D002801D00120E0752146183100200C
:10F86000F1F728FA21461C310020F1F723FA21464E
:10F8700020310020F1F71EFA3460FCF7EBF8002885
:10F8800006D03146F6F738FB182038600020FEBD60
:10F890000F48FEBDD0450100040000204572726F84
:10F8A000722073657474696E6720636F6E74726F13
:10F8B0006C206C6F636174696F6E20696E666F7225
:10F8C0006D6174696F6E210D0A0000000100020075
:10F8D00001000100F3B581B00F46F3F77DFC064649
:10F8E00000203860002E38D01D4D2620296888471A
:10F8F00004002CD02869002804D003461222204698
:10F900000199984721461A310020F1F7D3F9214691
:10F910001E310020F1F7CEF9214612310020F1F717
:10F92000C9F9214616310020F1F7C4F921462231E8
:10F930000020F1F7BFF93460FCF78CF800280CD0F8
:10F940003146F6F7D9FA122038600020FEBD68680B
:10F95000002802D00146304688470248FEBD00001C
:10F96000D045010001000100F3B581B00746F3F76F
:10F9700033FC064600200299002E08606CD0374DFB
:10F980002F2029688847040032D02869002804D035
:10F9900003461722394620469847601C0090A179FB
:10F9A000627909021143A27A637A10021843081897
:10F9B0002B490A8890420DD8227AE3791202E01C82
:10F9C0001A430746237BE07A1B0203434988D01879
:10F9D000884214D923A0F9F769FD6868002805D08A
:10F9E0000146304688476968204688472948FEBD59
:10F9F0006868002830D00146304688472CE0214610
:10FA00001F310020F1F756F9214623310020F1F78C
:10FA100051F9214627310020F1F74CF921462B31CD
:10FA20000020F1F747F900203876787600990877BA
:10FA30004877F0F7D9FE21461731F1F73BF93460EA
:10FA4000FCF708F8002807D03146F6F755FA029877
:10FA5000172101600020FEBD0F48FEBDD04501000A
:10FA6000040000204572726F722073657474696EB1
:10FA70006720636F6E74726F6C206C6F6361746962
:10FA80006F6E20696E666F726D6174696F6E210DA5
:10FA90000A0000000100020001000100F3B581B07E
:10FAA0000F46F3F799FB064600203860002E56D02B
:10FAB0002C4C1B202168884705002ED02069002887
:10FAC00004D003460F22284601999847A9796A79FC
:10FAD00009021143AA7A6B7A1002184308182249C6
:10FAE0000A8890420BD82A7AEB7912021A432B7BB0
:10FAF000E87A1B0203434988D018884214D91BA016
:10FB0000F9F7D4FC6068002805D0014630468847E4
:10FB10006168284688472148FEBD606800281ED0DD
:10FB20000146304688471AE029460F310020F1F798
:10FB3000C1F8294613310020F1F7BCF829461731E6
:10FB40000020F1F7B7F83560FBF784FF002806D0F6
:10FB50003146F6F7D1F90F2038600020FEBD10487D
:10FB6000FEBD0000D0450100040000204572726F08
:10FB7000722073657474696E6720636F6E74726F40
:10FB80006C206C6F636174696F6E20696E666F7252
:10FB90006D6174696F6E210D0A00000001000200A2
:10FBA00001000100F3B581B00F46F3F715FB0646DF
:10FBB00000203860002E6BD0374D282029688847F8
:10FBC00004002ED02869002804D0034618222046BD
:10FBD00001999847A179627909021143A27A637A5F
:10FBE0001002184308182D490A8890420BD8227A2F
:10FBF000E37912021A43237BE07A1B02034349880C
:10FC0000D018884214D926A0F9F750FC686800285B
:10FC100005D00146304688476968204688472C4809
:10FC2000FEBD6868002833D00146304688472FE083
:10FC3000E07DA17D0002FF2508436835A84205D973
:10FC400024A0F9F733FCA575280AE0752D48207625
:10FC5000010A6176A076000AE07621461C31002078
:10FC6000F1F728F8214620310020F1F723F821464A
:10FC700024310020F1F71EF83460FBF7EBFE00287A
:10FC800006D03146F6F738F9182038600020FEBD5E
:10FC90001C48801CFEBD0000D0450100040000206F
:10FCA0004572726F722073657474696E6720636F3A
:10FCB0006E74726F6C206C6F636174696F6E206913
:10FCC0006E666F726D6174696F6E210D0A000000BF
:10FCD00001000200636F6E74726F6C2076616C7548
:10FCE000652070726F7065727479206F7574206F03
:10FCF000662072616E67652028302D3335392921E1
:10FD00000D0A0000FFFF0000F3B581B00F46F3F7C6
:10FD100063FA064600203860002E5ED0304D242065
:10FD20002968884704002ED02869002804D003469B
:10FD30001822204601999847A17962790902114356
:10FD4000A27A637A10021843081826490A8890425A
:10FD50000BD8227AE37912021A43237BE07A1B0242
:10FD600003434988D018884214D91FA0F9F79EFB95
:10FD70006868002805D001463046884769682046F3
:10FD800088472548FEBD6868002826D001463046D1
:10FD9000884722E0E07B642804D920A0F9F786FB9D
:10FDA0006420E073214618310020F0F783FF2146DC
:10FDB0001C310020F0F77EFF214620310020F0F7B3
:10FDC00079FF3460FBF746FE002806D03146F6F78F
:10FDD00093F8182038600020FEBD1C48FEBD0000CE
:10FDE000D0450100040000204572726F72207365D7
:10FDF0007474696E6720636F6E74726F6C206C6FC1
:10FE0000636174696F6E20696E666F726D6174698B
:10FE10006F6E210D0A00000001000200636F6E7416
:10FE2000726F6C2076616C75652070726F70657290
:10FE30007479206F7574206F662072616E6765201B
:10FE400028302D31303029210D0A00000100010039
:10FE5000F3B583B00499002755480F600078012856
:10FE600002D0544805B0F0BD53480068002831D096
:10FE7000F3F7B2F90600FAD0504D282029688847D8
:10FE8000040021D02869002804D003461A22204605
:10FE9000039998472046143000900190F0F700FF36
:10FEA000A076000AE076607E217E00020843434986
:10FEB000096888470199F0F7FDFE607E217E000207
:10FEC000084329D0002511E0686800286DD001465C
:10FED0003046884769E00098F0F7E2FE002141557E
:10FEE000607E217E07020F436D1CADB2607EC9B2F9
:10FEF00000020843A842EED8304D286900280FD0F0
:10FF00000098F0F7CDFE617E237E0A021A43039922
:10FF10002B691A31984703E000200099F0F7CAFED8
:10FF2000A179627909021143A27A637A1002184317
:10FF300008182349234D0A8890420BD8227AE37986
:10FF400012021A43237BE07A1B0203434988D0182C
:10FF500088420ED91CA0F9F7A9FA184F7868002832
:10FF600005D00146304688477968204688472846AC
:10FF700078E721461C310020F0F79CFE2146203115
:10FF80000020F0F797FE214624310020F0F792FE82
:10FF90003460FBF75FFD002807D03146F5F7ACFF72
:10FFA00004981A37076000205CE713485AE70000FE
:10FFB0001846010001000300FC000020D0450100AC
:10FFC00004000020010002004572726F7220736508
:10FFD0007474696E6720636F6E74726F6C206C6FDF
:10FFE000636174696F6E20696E666F726D617469AA
:10FFF0006F6E210D0A00000001000100F3B58FB003
:020000040001F9
:10000000F3F7EAF80390002006901099086003982F
:10001000002844D0874D45202968884704002FD008
:100020002869002804D00346292220460F999847C2
:1000300020461E300190F0F733FE01462046213065
:1000400005900173090A4173286800280AD02046E8
:1000500022304178027808022968104388470199C4
:10006000F0F728FE0198F0F71BFE00280ED0264678
:100070002236707831780002084366D000271BE0F2
:1000800068680028C5D00146039807E06868002822
:10009000BFD0014603988847696820468847C6E074
:1000A0000198F0F7FDFD0021C1557078317800020C
:1000B00008437F1CBFB20690707831780002084375
:1000C000B842EDD8286900280AD00198F0F7E8FD79
:1000D000717833780A021A430F992B6929319847AE
:1000E0000198F0F7DDFD717832780902114341186B
:1000F00000202039C8772820005D0028019808D00A
:10010000F0F7CEFD05994A7B0B7B1102194340188D
:1001100001E0F0F7C5FD21462F31F0F7CBFD207C43
:10012000E17B02020A43E71C434907A8FCF71EF8DB
:1001300007AE0FCE0FC66846808E00280DD03FA0B8
:10014000F9F7B4F9434811B0F0BD00200199F0F778
:10015000B1FD21462F310020DFE7A079627901024D
:100160001143A07A627A000210430A183A49661CC9
:100170000B889A420BD87A793B7912021A437B7A20
:100180003F7A1B023B434988D2188A420ED933A0DA
:10019000F9F78CF96868002805D00146039888476C
:1001A0006968204688472B48401ECCE7617C49009F
:1001B000884201D38B4208D2984201D8400800E01F
:1001C0005808607431A0F9F771F97079317900023B
:1001D0000843214623310874000A4874F0F704FBF1
:1001E00021462931F0F766FD214635310020F0F730
:1001F00061FD214639310020F0F75CFD21463D319B
:100200000020F0F757FD214641310020F0F752FD64
:1002100003980460FBF71EFC002808D00399F5F74B
:100220006BFE069810992930086000208BE7214862
:1002300089E70000D0450100A1A30000496E636F6B
:100240007272656374206C696272617279204944CC
:10025000210D0A0002000200040000204572726FA6
:10026000722073657474696E6720636F6E74726F49
:100270006C206C6F636174696F6E20696E666F725B
:100280006D6174696F6E210D0A000000436F6E741A
:10029000726F6C20626F7264657220776964746833
:1002A00020697320746F6F206C61726765210D0A7D
:1002B0000000000001000100F3B581B00746F2F72D
:1002C0008BFF00900298002606600098002846D018
:1002D000444D37202968884704003AD028460069F1
:1002E000002805D0284603691F2239462046984732
:1002F0000020E61CE0772746707721373870787049
:10030000A079617900020843A17A627A0902114357
:1003100041183548651C028891420BD871793279B1
:1003200009021143727A337A12021A4340888918FB
:10033000814215D92DA0F9F7B9F82A4D686800282F
:1003400005D00146009888476968204688473348A9
:10035000FEBD6868002843D00146009888473FE00A
:10036000687F297F00020843FF216931884207D94D
:100370002BA0F9F79BF8FF2069302877000A6877EF
:10038000214627310020F0F795FC21462B31002033
:10039000F0F790FC21462F310020F0F78BFC21462E
:1003A00033310020F0F786FC00203077707738700A
:1003B00021467870233108704870FF206930387109
:1003C000000A787100980460FBF744FB002807D00E
:1003D0000099F5F791FD02981F2101600020FEBDF4
:1003E0001B48FEBDD0450100040000204572726F1D
:1003F000722073657474696E6720636F6E74726FB8
:100400006C206C6F636174696F6E20696E666F72C9
:100410006D6174696F6E210D0A0000000100020019
:10042000636F6E74726F6C2076616C75652070728C
:100430006F7065727479206F7574206F66207261B9
:100440006E67652028302D33363029210D0A0000D3
:1004500001000100F3B581B00F46F2F7BDFE06467C
:1004600000203860002E6FD0384D32202968884730
:10047000040035D02869002804D003461E222046F7
:10048000019998470020A0772146E0772031087035
:100490004870A179627909021143A27A637A100245
:1004A000184308182A490A8890420BD8227AE3791F
:1004B00012021A43237BE07A1B0203434988D018B7
:1004C000884214D923A0F8F7F1FF6868002805D006
:1004D0000146304688476968204688472948FEBD5E
:1004E0006868002830D00146304688472CE0607F9D
:1004F000217F00020843642806D923A0F8F7D6FF1D
:100500006420207700206077214622310020F0F718
:10051000D1FB214626310020F0F7CCFB21462A31C1
:100520000020F0F7C7FB21462E310020F0F7C2FB78
:100530003460FBF78FFA002806D03146F5F7DCFC73
:100540001E2038600020FEBD1B48FEBDD0450100C6
:10055000040000204572726F722073657474696EB6
:100560006720636F6E74726F6C206C6F6361746967
:100570006F6E20696E666F726D6174696F6E210DAA
:100580000A00000001000200636F6E74726F6C203D
:1005900076616C75652070726F7065727479206F0A
:1005A0007574206F662072616E67652028302D316A
:1005B000303029210D0A000001000100F3B583B09D
:1005C000F2F70AFE009000200146029004980160B4
:1005D0000098002841D0604D3220296888470400E7
:1005E0002CD02869002804D00346242220460399F1
:1005F000984720461E300190F0F752FB21462031EB
:100600000871000A48712868002809D0881C4178C0
:10061000027808022968104388470199F0F74AFBDD
:100620000198F0F73DFB00280ED027462237787856
:1006300039780002084332D000261BE068680028A1
:10064000C8D00146009807E068680028C2D001467B
:10065000009888476968204688477AE00198F0F753
:100660001FFB002181557878397800020843761CF9
:10067000B6B202907878397800020843B042EDD8DB
:10068000286900280FD00198F0F70AFB79783B78A9
:100690000A021A4303992B692431984703E000208A
:1006A0000199F0F707FBA17963790A02A17A607AD0
:1006B00009021A4301435018284A294E13889842C8
:1006C0000BD8237AE0791B020343207BE77A0002F0
:1006D000384352881B1893420ED922A0F8F7E6FE41
:1006E0006868002805D00146009888476968204658
:1006F0008847304605B0F0BD627C5200914201D37C
:10070000904208D2814201D8480800E04008607455
:1007100020A0F8F7CBFE214626310020F0F7CAFAD8
:1007200021462A310020F0F7C5FA21462E3100205B
:10073000F0F7C0FA00980460FBF78CF9002808D0A5
:100740000099F5F7D9FB029804992430086000203D
:10075000D0E71A48CEE70000D04501000400002091
:10076000010002004572726F722073657474696EC5
:100770006720636F6E74726F6C206C6F6361746955
:100780006F6E20696E666F726D6174696F6E210D98
:100790000A000000436F6E74726F6C20626F7264A7
:1007A000657220776964746820697320746F6F20A4
:1007B0006C61726765210D0A0000000001000100F4
:1007C000F3B581B00F46F2F707FD0646002038600A
:1007D000002E2ED0184D192029688847040022D0F9
:1007E0002869002804D003460D2220460199984725
:1007F00021460D310020F0F75DFA2146113100202D
:10080000F0F758FA214615310020F0F753FA34601A
:10081000FBF720F900280CD03146F5F76DFB0D20D1
:1008200038600020FEBD6868002802D001463046CE
:1008300088470248FEBD0000D045010001000100CC
:10084000F3B581B00646F2F7C7FC074600210298CF
:10085000002F01606AD0364D2B202968884704009C
:100860002FD02869002804D003461522314620469F
:100870009847A079617900020843A17A627A090257
:10088000114340182B49661C0A8890420BD8227AE3
:10089000E37912021A43237BE07A1B02034349885F
:1008A000D018884214D924A0F8F700FE6868002800
:1008B00005D00146384688476968204688472A4857
:1008C000FEBD6868002831D00146384688472DE0D3
:1008D00021461B310020F0F7EDF921461F310020A1
:1008E000F0F7E8F9214623310020F0F7E3F921463B
:1008F00027310020F0F7DEF9707B317B00020843DE
:100900003076000A7076EFF76FFF21461531F0F769
:10091000D1F93C60FBF79EF8002807D03946F5F77F
:10092000EBFA0298152101600020FEBD0F48FEBDC4
:10093000D0450100040000204572726F722073657B
:100940007474696E6720636F6E74726F6C206C6F65
:10095000636174696F6E20696E666F726D61746930
:100960006F6E210D0A00000001000200010001006D
:1009700070B5044623300646F0F792F9094D002879
:1009800007D06968002900D0884731460020F0F779
:1009900091F9E868002804D003463522002120465A
:1009A000984770BDD045010070B504462230064618
:1009B000F0F776F9094D002807D06968002900D0C2
:1009C000884731460020F0F775F9E868002804D020
:1009D0000346342200212046984770BDD0450100CF
:1009E0000449CA68002A03D013461B220021184775
:1009F00070470000D04501000449CA68002A03D0AE
:100A000013462F220021184770470000D0450100EF
:100A100070B525490978012944D105462630064696
:100A2000F0F73EF9214C002803D06168002900D07E
:100A3000884731460020F0F73DF928462A3006461F
:100A4000F0F72EF9002803D06168002900D088470C
:100A500031460020F0F72EF928462E300646F0F7F2
:100A60001FF9002803D06168002900D0884731466B
:100A70000020F0F71FF9284632300646F0F710F94B
:100A8000002803D06168002900D088473146002043
:100A9000F0F710F9E068002804D003464A2200214C
:100AA0002846984770BD000019460100D045010056
:100AB0000449CA68002A03D01346102200211847AF
:100AC00070470000D045010070B504460A30064664
:100AD000F0F7E6F8094D002807D06968002900D032
:100AE000884731460020F0F7E5F8E868002804D090
:100AF0000346102200212046984770BDD0450100D2
:100B0000704700000449CA68002A03D013462F2208
:100B10000021184770470000D04501000449CA6809
:100B2000002A03D0134624220021184770470000F2
:100B3000D04501000449CA68002A03D01346262282
:100B40000021184770470000D04501000449CA68D9
:100B5000002A03D013462F220021184770470000B7
:100B6000D04501000449CA68002A03D013461B225D
:100B70000021184770470000D0450100002807D029
:100B80000449CA68002A03D01346282200211847C6
:100B900070470000D04501000449CA68002A03D00C
:100BA000134624220021184770470000D045010059
:100BB00070B51049097801291BD10F49096800292E
:100BC00017D0044614300646F0F76AF80B4D00289B
:100BD00007D06968002900D0884731460020F0F727
:100BE00069F8E868002804D003462822002120463E
:100BF000984770BD18460100FC000020D045010058
:100C000070B504461E300646F0F74AF8094D002834
:100C100007D06968002900D0884731460020F0F7E6
:100C200049F8E868002804D0034645220021204600
:100C3000984770BDD04501000449CA68002A03D016
:100C4000134637220021184770470000D0450100A5
:100C50000449CA68002A03D01346322200211847EB
:100C600070470000D045010070B504461E300646AE
:100C7000F0F716F8094D002807D06968002900D060
:100C8000884731460020F0F715F8E868002804D0BE
:100C90000346322200212046984770BDD04501000E
:100CA0000449CA68002A03D01346192200211847B4
:100CB00070470000D04501000449CA68002A03D0EB
:100CC000134604220021184770470000D045010058
:100CD000F0B589B0002879D0427B01462031C61C8E
:100CE000451C0446032A04D0022A44D0012A57D0C6
:100CF000F7E0887801283BD0687D297D0002084311
:100D0000717A327A090211436A7A2B7A12021A43F3
:100D10000092019102907079327901021143687951
:100D20002A79000210430B460246FAF7C3FC6879A1
:100D30002A790102114368464182707932790102B1
:100D40001143684681826879297900020843697AEB
:100D50002A7A0902114341186846C18270793179B3
:100D600000020843717A327A090211434118B6E051
:100D7000707C317CC2E7887801280ED0687D297D9F
:100D8000020270790A4333790102194368792B7999
:100D900000021843FAF762FBC9E7707C317CEFE789
:100DA000687A297A00020843217C4900884205D3E9
:100DB000727A337A12021A438A420DD2717A327AE7
:100DC00009021143884202D8400801E0C0E0480807
:100DD00020746AA0F8F76AFB687C297C000208434B
:100DE00070490027C880E61C20E070793279010242
:100DF0001143707A327A000210430818C01B401E5B
:100E000083B28C466879297900020843697A2A7A84
:100E1000090211434118C91B491E8AB26146C9190A
:100E2000C01989B280B2FAF7B3FC7F1C207CB842AB
:100E3000DBDC2220005D01287ED0687E297E000256
:100E400008435849C8807079317903020B43707A9E
:100E5000317A000208431918207C2A79091A491EA0
:100E600089B28E4669792F7A090211436A7A1B1872
:100E700012023A438A18121A521E08189BB24A49A3
:100E80009C468F6892B280B273466146B8476879D3
:100E9000297900020843217C411868464182707913
:100EA000317900020843217C4118684681826879C3
:100EB000297900020843697A2A7A09021143401805
:100EC000217C411A6846C182707931790002084359
:100ED000717A327A090211434018217C411A68461E
:100EE000018325462035A878012836D0A17F637F6D
:100EF0000A022C491A43CA80A27E637E100218435C
:100F00008880E07BA27B0102114368468181697879
:100F10004174E17F81732978C17320462330EFF754
:100F2000BFFE07A90131EFF7C5FE617B68468176F8
:100F3000A87801281FD000E00CE0A07D617D0002B0
:100F400008436946C876000A087703A800F05CF9F0
:100F500009B0F0BD707D317D71E7E01C0146227F54
:100F6000E07E120202430F48C2804A7D0B7D1102CF
:100F700019438180C5E7207DE17CE0E7436F6E7413
:100F8000726F6C20626F7264657220776964746836
:100F900020697320746F6F206C61726765210D0A80
:100FA0000000000004000020480B0000F0B587B0EE
:100FB000002842D04178027809021143854A04464C
:100FC00091423AD1627BC11C601C032A1AD0022ACA
:100FD00035D0012A31D1427A037A05461002227CAB
:100FE00018435200904205D34B7A0E7A1B023343CA
:100FF000934238D24A7A0B7A1102194388422DD88B
:1010000040082CE0427D037D12021A434B7A0C7A91
:101010001B022343447A057A24022C430094019353
:1010200002924A790B79110219434279037910022D
:1010300018430B460246FAF73DFB07B0F0BD427D70
:10104000037D12021A434B790C791902214343792B
:10105000047918022043FAF701FAEEE748082074F1
:101060005DA0F8F723FA687C297C000208436449F4
:101070000027C880E61C20E0707932790102114314
:10108000707A327A000210430818C01B401E83B2E7
:101090008C466879297900020843697A2A7A09021C
:1010A00011434118C91B491E8AB26146C919C019AA
:1010B00089B280B2FAF76CFB7F1C207CB842DBDC83
:1010C000687E297E000208434D49C88070793279D4
:1010D00001021143707A327A000210430A18207C10
:1010E0006B79121A521E92B294462A791F02174344
:1010F0006A7A2B7A12021A43BA18121A521E091867
:101100003818404B92B29F6889B280B26346B847A4
:10111000687F297F000208433949C880687E297E9C
:10112000000208433649888068792979000208431B
:10113000217C41186846C1807079317900020843EA
:10114000217C4118684601816879297900020843A9
:10115000697A2A7A090211434018217C411A6846AB
:1011600041817079317900020843717A327A09023B
:1011700011434018217C411A68468181687F297F8C
:10118000000208431E49C880E07BA27B0102114394
:1011900068460180214620314A784271002202715E
:1011A000E27F82700978C17020462230EFF778FD27
:1011B00004A90131EFF77EFD617B68468173687D8C
:1011C0002A7D010211436846C173090A017400F0C7
:1011D0001BF832E706800000436F6E74726F6C205C
:1011E000626F726465722077696474682069732025
:1011F000746F6F206C61726765210D0A000000003A
:1012000004000020480B0000F0B5044697B01130F0
:101210000990EFF745FD002817D000270D9761785A
:1012200023780A021A4303463E460DA90EA8FBF78F
:101230008FFD0EAD0FCD05AD0FC56846808B002824
:1012400006D0BFA0F8F732F9D5E0C24817B0F0BD1C
:10125000E07AA27A01021143E079A27900021043F8
:10126000091A491C8DB2A178022902D0012906D0A1
:101270000AE00D998D4207D96F1A7F1E04E00D997F
:101280008D4201D3691A4F08C01980B20E90099897
:10129000EFF706FD00210491069006E00A2903D12C
:1012A0000499491C89B20491401C01780029F5D1A8
:1012B000607900280CD029460D98EFF78DFC0029A5
:1012C00000D0401C049941186846C08A484301E098
:1012D0006846C08A627B217B12020A43617A237AC4
:1012E00009021943521A521C92B2904201D30C9136
:1012F0000DE0E378022B02D0012B03D004E0161A94
:10130000761E01E0101A4608881980B20C90A07B66
:10131000069D002820D001281ED0217CE07B0902F8
:1013200001430320FAF7A6FA8B490968884262D97B
:101330008A490968401AC1788278090211430991E3
:10134000A17B083002290AD0099A0C9951430E9AC0
:10135000891849000E18EDE000260996EAE009997F
:101360004E43F119F5E70290010608D569786D1C26
:10137000002978D00006000C01430F4603E07849AD
:101380002038401887B276498F4205D16846808A56
:1013900041080E980818BEE06078217802020A43DE
:1013A000394612A8FAF7E2FE12A80FC80590089372
:1013B000079206916846808B002803D002980A287D
:1013C0007ED0B6E0181F011D15D00146807809783F
:1013D000634A401A80B252421090B8185E2843D82F
:1013E000109A0E98A37A8218E07A0002184382427B
:1013F00003D9012302E05B4828E700236846C08A3E
:101400000C9A8446821840E03B430ED06379002B4F
:1014100029D0E379A77992B20C9262461B02801A16
:101420003B430C9A0E9390421DDB6846808AC308AA
:10143000420700D05B1C6F467A8B53439BB29E469B
:10144000089B9C460E9B3B830C9B7B83B883F88A4E
:10145000F88300200190B980012A20D0022A30D0E0
:10146000042A4FD13EE069E00E9A1098A37A121830
:10147000E07A00021843824201D9012300E00023F0
:101480006846C28A0C9894461218607B277B00023B
:101490003843824201D90127B6E70027B4E7019813
:1014A0000490A27B109809990292039001917046D2
:1014B000C2B20096634607990698F2F737FC21E01E
:1014C0002CE001980490A17B1098099A0390019256
:1014D00070460291C2B20096634607990698F2F7E9
:1014E000CDFC0FE001980490A17B1098099A03901D
:1014F000019270460291C2B200966346079906981F
:10150000F2F78EFD10981099400086190E98401839
:1015100015490988401880B20E900AE0E079A17957
:10152000000208430E906846C18A0C98081880B2E1
:101530000C906D1C2878002800D014E7002085E668
:10154000666F6E74206C696220696E76616C696486
:101550000D0A000001000100244601002846010098
:10156000A0A30000020002003E4601003EB5002894
:101570001CD00146401C427B037B12021A430B7BAA
:10158000CC7A1B022343447A057A24022C4300942C
:10159000019302920A7ACB791102194342790379B5
:1015A000100218430B460246FAF784F83EBD0000CD
:1015B000F0B589B0002876D0427BC11C451C04469A
:1015C000032A04D0022A3ED0012A6ED007E1607DB2
:1015D000227D00020E461043497A327A09021143F5
:1015E0006A7A2B7A12021A43009201910290707962
:1015F00032790102114368792A79000210430B46BF
:101600000246FAF757F868792A79010211436846C9
:10161000418270793279010211436846818268798A
:10162000297900020843697A2A7A0902114341188C
:101630006846C1827079317900020843717A327A42
:10164000090211432DE0607D237D02021A4348798F
:101650000E460B790102194368792B790002184371
:10166000F9F7FCFE68792A79010211436846418244
:10167000707932790102114368468182687929794B
:1016800000020843697A2A7A090211434118684620
:10169000C182707931790002727A0843337A11027B
:1016A0001943411899E06DE1FFE7687A2A7A000250
:1016B0001043627C5200904205D34B7A0E7A1B0293
:1016C000334393420CD24A7A0B7A1102194388426F
:1016D00001D8400800E048086074ABA0F7F7E6FEC8
:1016E000E07CA17C00020843B1490027C880E61CC9
:1016F00020E07079327901021143707A327A000267
:1017000010430818C01B401E80B2844668792A79AD
:10171000000210436A7A2B7A12021A438218D21BF3
:10172000521EC919C01992B289B280B26346FAF743
:101730002FF87F1C607CB842DBDCE07DA17D0002DD
:1017400008439B49C8807079327901021143707A4D
:10175000327A000210430A18607C6B79121A521E0A
:1017600092B294462A791F0217436A7A2B7A1202A0
:101770001A43BA18121A521E091838188D4B92B211
:101780009F6889B280B26346B847687929790002B8
:101790000843617C411868464182707931790002C2
:1017A0000843617C41186846818268792979000282
:1017B0000843697A2A7A090211434018617C411A68
:1017C0006846C1827079317900020843717A327AB1
:1017D000090211434018617C411A6846018376482A
:1017E0002022C36800217548984727462037B878DB
:1017F0001F2801D91F20B87020461E3000260190F6
:10180000EFF74EFA0546761CF6B20A21EFF7E4F937
:101810000028F8D12846012508E00A21EFF7DCF975
:10182000731B3031654A6D1CD154EDB2B542F4D909
:10183000BD78002D00D135460027B54228D20020C2
:101840000199EFF737FA002014E08019411B5B483B
:10185000009A415C815402910198EFF721FA0A2124
:1018600048430299303840180199EFF723FA00985D
:10187000401CC0B20090A842E7D3284600214F4A3E
:1018800002E01154401CC0B2B042FAD32E4603E02D
:10189000B54201D9A81BC7B2207F00282FD0B04283
:1018A00010D2301AC1B245488219203AD27F8255EF
:1018B000761EF6B28E42F7D82E224254207F281A86
:1018C000401A1BE0401C3D49C0B23022002E08D017
:1018D0008B19203BDB7F0B54401E761EC0B2F6B244
:1018E00002E00A54401EC0B20028EFD10A702E2038
:1018F0004870207FA84202D2281A401EC7B2002F8B
:1019000014D02E48EFF7C5F92C49C0B2C3190A5CB0
:10191000CA54002802D0401EC0B2F7E7002030228F
:1019200002E00A54401CC0B2B842FAD3607E227E64
:1019300001021F481143C180E17DA27D09021143CC
:101940008180217CE07B0902014368468181617FBF
:10195000417400210174A17E8173E17EC17307A9E6
:1019600001311648EFF7A6F9617B68468176607D04
:10197000227D010211436846C176090A017703A856
:10198000FFF742FC09B0F0BD436F6E74726F6C20BC
:10199000626F72646572207769647468206973206D
:1019A000746F6F206C61726765210D0A0000000082
:1019B00004000020480B0000D04501002E25002027
:1019C0003EB51E49097801290CD100280AD0427B76
:1019D000C11C441C032A06D0022A20D0012A01D1AE
:1019E000F3F79CFD3EBDC27E807E12020243487A20
:1019F0000B7A00021843637A257A1B022B4300936B
:101A00000292019048790A790102114360792279A2
:101A1000000210430B460246F9F74CFE3EBDC27E63
:101A2000807E1202024348790B79010219436079E2
:101A3000237900021843F9F711FD3EBD1946010054
:101A400070470000F0B58FB000287CD00446417B81
:101A5000451CC01C002921D169792B790A021A433F
:101A600069464A82417903790A021A4369468A82A1
:101A700069792A79090211436A7A2B7A12021A4388
:101A80008A186946CA824179027909021143427A69
:101A9000037A12021A438A1869460A83617B032972
:101AA00004D002291FD001294ED0E7E0617D227DBC
:101AB000090211430646427A007A12020243687A0A
:101AC0002B7A0002184301920291009071793079CB
:101AD0000902014368792A79000210430B46024645
:101AE000F9F7E8FD0EE0617D06460A0241790079CA
:101AF000237D090201431A4368792B7900021843B8
:101B0000F9F7ACFC68792A790102114368464182F1
:101B100071793079090201436846818268792979AF
:101B200000020843697A2A7A09021143411868467B
:101B3000C182717930790902727A0143337A1002D5
:101B40001843091898E028E1697A2A7A09021143B2
:101B5000627C5200914205D3437A067A1B023343DA
:101B600093420CD2427A037A10021843814201D880
:101B7000480800E04008607489A0F7F797FCE07C13
:101B8000A17C0002084390490027C880E61C20E0A1
:101B90007079327901021143707A327A000210436F
:101BA0000818C01B401E80B2844668792A7900025A
:101BB00010436A7A2B7A12021A438218D21B521EE1
:101BC000C919C01992B289B280B26346F9F7E0FD33
:101BD0007F1C607CB842DBDCE07DA17D0002084315
:101BE0007949C8807079327901021143707A327A6A
:101BF000000210430A18607C6B79121A521E92B2CE
