:020000040000FA
:10000000787A0020B1000000B90000001D01000056
:1000100000000000000000000000000000000000E0
:100020000000000000000000000000004D0500007E
:100030000000000000000000A10300004F050000C8
:10004000C3000000C3000000C30000005105000011
:100050006505000071700000C3000000C3000000CF
:10006000C3000000C3000000C3000000C300000084
:10007000C3000000C3000000C3000000C300000074
:10008000AD360000C3000000C3000000C300000044
:1000900000000000C3000000C3000000C300000017
:1000A0000000000000000000C3000000C3000000CA
:1000B0000448804704480047FEE7FEE7FEE7FEE706
:1000C000FEE7FEE72D7E00007D0D0000FFB5104924
:1000D000104A102313600B60401EFBD1FFBD704718
:1000E000FFB50B4B10240C4DC0C832042A601C60B5
:1000F000320C12042A601C603A042A601C603A0C1C
:1001000012042A601C60091FEED1FFBD704700BFBA
:1001100004000240080002400000024001A008F074
:10012000EBFDFEE7486172644661756C745F48617F
:100130006E646C65720000001CB56A4610805180C8
:100140009080D18003480123C2880199009800F073
:1001500061F81CBD000000207CB51C466D4628805F
:10016000131A6980AA80661AEC8005485B1C761C0D
:10017000C28873430199009800F04CF87CBD0000E0
:1001800000000020FFB581B00D46144668465C4370
:10019000C1885B1EC81883B268468088194F521EFA
:1001A0008218FE6892B2B047B9682C2088470120B7
:1001B000154E800270604710B760154913484860BB
:1001C000A800400F07280BD0002C14D0102029883D
:1001D000090431607060641EAD1C002CF7D10AE088
:1001E0001920C0062D1800F06FFB2146284600F0AC
:1001F00051FA00F0EFFB064904488860776005B0CB
:10020000F0BD0000B847010000000240EFFF000011
:1002100080800240FFB581B06846154C1D46438979
:100220000289C188E6688088B047A1682C20884789
:100230000120104C800260604610A6600F480E4FEF
:10024000476003980104022D04D321602846FFF77C
:100250003DFF07E00020102202E021606260401CA8
:10026000A842FAD305488760666005B0F0BD00007B
:10027000B847010000000240EFFF0000808002400C
:10028000FFB583B06A4601910090D18A558B148BDB
:100290004819401E83B2908A1B4F0219521EFE68F5
:1002A00092B2B047B9682C208847012117488902CB
:1002B000416041158160174A154951606A46508E68
:1002C00000218446168E14E06246019B52185A4360
:1002D000009B00205200D31808E0321852009A5AAE
:1002E00017040A4A176010275760401C8442F4D84C
:1002F000491C8D42E8D807490548886048150349DC
:10030000486007B0F0BD0000B8470100000002409F
:10031000EFFF000080800240F8B5194C0246E56806
:100320000B46A847A1682E2088470120154D4002A2
:10033000A860164914488860081568601020686035
:1003400000F026F86068804700F022F86068804777
:10035000C60AF60200F01CF860688047074600F005
:1003600017F86068804769156960084A0649516056
:10037000F10A800AC90240010143F80A0843F8BDA6
:10038000B8470100000002400000FFFF008002406B
:10039000FF21024801318160416070470000024046
:1003A0007047000070B5032902D90120C04370BD19
:1003B000940702D00220C04370BD0124640344614D
:1003C0000367E4034460A4104460E40044605824DC
:1003D0001A4D4C4364190646194D40362660A260FA
:1003E000A5619A089B0700D0521CE261002222619D
:1003F0002264144A904204D19920C0016064802094
:100400000EE0114A904204D1BB20C001606460201C
:1004100006E00E4A904204D1FF20C00160644020F3
:1004200020640B4B012098610C4608340246A24020
:10043000884002431A62002070BD000000000540A1
:100440002404200000000140001001400020014071
:100450008003054070B5032902D90120C04370BD57
:10046000234C0026A34205D901265D08DB0702D0F4
:100470006D1C00E01D4601235B0343610567DB0340
:1004800043609B108360DB0043605823194C4B434F
:100490001C193301184E22609B1902464032A2609B
:1004A000A361E56100222261144A904204D1112027
:1004B00080026064E0200EE0114A904204D1552091
:1004C00000026064C02006E00E4A904204D177200A
:1004D00000026064A02020640B4B012098610C4650
:1004E00008340246A240884002431A62002070BDD0
:1004F000FF0100000000054000491000000001401D
:1005000000100140002001408003054030B5044642
:100510000020032901D9801E30BD0122D2050A4DD9
:1005200001238B40296A194202D1216DC90702D0EB
:10053000521EF7D201E0002A01DC0020C043012155
:100540004903A16130BD000080030540704770473A
:1005500010B503490020088200F02AFA10BD0000FF
:1005600000C000400249002008820248006800479D
:1005700000C8004030000020F0B507461F4885B095
:10058000007D0E46002837D11D4C606821687843F5
:100590000918A06870430818A169009100F040FC98
:1005A00085B22069E16878430918606970430818CA
:1005B000009900F035FC81B2FF204130421B94B21B
:1005C0000E4AF023203A5B1A14829BB25383854271
:1005D00001D8F02905D904220A4901A800F034FC09
:1005E00006E0834204D26846048143810298019068
:1005F00001A9012009F0ACFA05B0F0BD50000020BF
:1006000000220020844801007047000070B5204C93
:10061000A079C00715D00AF0B4FD6081E088401CC5
:1006200080B2E080022815D30025E580A388012050
:10063000002B0AD020892188002288420BD3411A3E
:100640000AE00AF099FD2081E8E7A0802089208057
:100650006089608070BD091A502900DD012261891E
:100660006688B14201D38E1B00E0761A502E00DD61
:10067000521C002A01D0A58070BD5B1C20809AB25C
:100680006180A280042AF7D3FFF776FF70BD0000D7
:1006900024000020F8B50C46002601212D4FC90684
:1006A000796002460321384600F040F97D231B01A2
:1006B000294A03213846FFF775FE7D20C000844299
:1006C00002D9251A044600E0002503212148FFF73E
:1006D0001DFF761C012E00D9002620481E4F7043B6
:1006E000C2197D231B0103211A48FFF75BFE01207D
:1006F0001A49801B4843C719A0088000A407014677
:100700000090A40F3846FFF7EBFC002C0ED00098A9
:1007100013494000C2190020102705E04300D35AB6
:100720001B040B604F60401CA042F7D3002D05D086
:100730007D24E400A5420BD32D1BC6E7054C032105
:100740002046FFF7E3FE0120C006A0600020F8BDB0
:100750002C46B9E70010014058120020D4070000D1
:1007600000000240F3B51120224D81B040060E4634
:10077000A8606814686100201F4A01461154401C9B
:100780000828FBDB28680124E406204328600822AF
:100790001949284600F085F92868A043286028698F
:1007A000C008C0002861154C2068800880002060C7
:1007B000E06880088000E060284600F002FA002728
:1007C00006E0019839030918284600F0E4F97F1C77
:1007D000B742F6D3206880088000401C2060E068A3
:1007E00080088000401CE06001204003A8610003F5
:1007F0006860FEBD0000014018000020801000402D
:10080000F8B50D4606461121284849061446816070
:10081000411441610021264B0A465A54491C0829BB
:10082000FBDB224F3868F902084338600822204970
:10083000384600F036F93868F9028843386038697C
:10084000C008C00038611B48016889088900016040
:10085000C16889088900C160384600F0B2F9E9B280
:10086000B815471ABC4200D8A7B23B462A463146C3
:100870000E4800F009FABC4207D0F619ED19E41B46
:10088000FF270137BC42F0D8EEE70A480168890823
:100890008900491C0160C16889088900491CC16040
:1008A00041140248816141024160F8BD00000140ED
:1008B000180000208010004001B5009801E0401EA3
:1008C00000900028FBD108BD30B51120144C400623
:1008D000A060601460610020124902460A54401C66
:1008E0000828FBD30125ED06656008230D4A032186
:1008F0002046FFF7AFFD03212046FFF707FEA56066
:100900002069C008C00020610748816B8908890000
:100910008163C16B89088900C163002030BD00007C
:10092000001001407400002000100040F0B5194C88
:100930000746EB20154620700E4601232246384616
:10094000FFF788FD31463846FFF7E0FD1248826B1D
:1009500003210A438263C26B0A43C2630F480169E1
:10096000C908C900891C0161280C2070280A607020
:10097000A570FF20E07000202071607106232246E0
:1009800031463846FFF766FD31463846FFF7BEFD73
:100990000020F0BD74000020001000400010014055
:1009A00002490A6A1201FCD50861704740300040D4
:1009B00002480168491C016070470000E8000020FF
:1009C00010B5002302E0C45CCC545B1C9342FAD304
:1009D00010BD00000948826B03210A438263C26B89
:1009E0000A43C26306480169C908C900891C01613C
:1009F00041148161090341600020704700100040EC
:100A0000001001400148006870470000E800002025
:100A10000246881A914200D2401E7047F7B5002462
:100A200083B015460E46970815E004200190800615
:100A30000090801002906946039800F080F8012130
:100A4000039800F0A3F80128F9D00398006CA100E6
:100A5000641C7050A4B2A742E7D8AD07AD0F1DD0FB
:100A600001200007009080100290019569460398CC
:100A700000F065F80121039800F088F80128F9D00A
:100A80000398006CA1007054012D02D9020A8B1941
:100A90005A70022D02D9000C89198870002006B006
:100AA000F0BDF7B5002483B01646054697081BE055
:100AB000042001908006009000200290694628469C
:100AC00000F03DF80498A1004058286420212846F1
:100AD00000F05CF80028F9D00121284600F056F813
:100AE0000128F9D0641CA4B2A742E1D8B607B60F1A
:100AF00022D001200007009000202F4602904037AE
:100B000001966946284600F01AF80020A10005E089
:100B10000B18049A401CD25C3A7080B2B042F7D3F2
:100B20002021284600F032F80028F9D0012128467B
:100B300000F02CF80128F9D0002006B0F0BD10B567
:100B40000268520102D501239B0600E000234A6897
:100B5000026701248A6864079A4203680BD1096816
:100B60001B0104D511430522D206114301E01143B4
:100B70000AE0016010BD09681B0102D51143012282
:100B8000D2061143016001682143F2E7006D08407D
:100B900000D00120704770B50E46044600F098F86A
:100BA00020680125ED06284320603246202120469A
:100BB00000F05AF82068A8432060204600F0BAF8F8
:100BC00070BD1CB501216A4604461171117000F018
:100BD0007FF8204600F010F86A461071204600F0B9
:100BE00027F86A4610701179C32012780140204618
:100BF00000F082F81CBD000070B5044600680125B5
:100C0000ED0628432060094E052030700122314650
:100C10002046FFF746FF042231462046FFF7FEFE3E
:100C20002068A8432060307870BD000010000020CC
:100C300070B5044600680125ED0628432060094E82
:100C400035203070012231462046FFF72AFF04226A
:100C500031462046FFF7E2FE2068A8432060307846
:100C600070BD00001000002000B5064B1970110C7B
:100C70005970110A9970DA7004221946FFF711FFB2
:100C800000BD000010000020FFB581B00F460446F3
:100C90000120694616460870204600F019F82068C1
:100CA0000125ED0628432060324602212046FFF749
:100CB000DBFF39462046049AFFF7F3FE2068A8437D
:100CC0002060204600F036F8049805B0F0BD000022
:100CD00030B5044600680125ED062843206005492B
:100CE0000620087001222046FFF7DBFE2068A8439B
:100CF000206030BD10000020F0B516460F460446B7
:100D0000FFF7E6FF20680125ED062843206008482C
:100D10000121017047708670014603222046FFF7CB
:100D2000C0FE2068A8432060204600F003F8F0BD14
:100D3000100000203CB505460120694608717D245D
:100D4000E40009E02846FFF757FF6946087121468D
:100D50000094491E0091FCD168460079C007F1D18A
:100D60003CBD0000390100001903000059010000DA
:100D7000150200008501000081020000034885463D
:100D800000F006F80048004769AC0000787A0020BF
:100D9000064C0125064E05E0E36807CC2B430C3CCE
:100DA00098471034B442F7D3FFF7ECFFD40D00009E
:100DB000F40D000002E008C8121F08C1002AFAD191
:100DC00070477047002001E001C1121F002AFBD1CB
:100DD0007047000028E9010000000020A002000088
:100DE000B8150000E0E90100A0020020D87700005B
:100DF000C40D000030B50B4601460020202201241E
:100E000009E00D46D5409D4205D31D469540491B3E
:100E10002546954040191546521E002DF1DC30BD87
:100E200070B500242546002801DA0124404200293B
:100E300001DA01254942FFF7DDFFAC4200D0404214
:100E4000002C00D0494270BD10B5441A03469442AC
:100E500009D28318891803E0491E0C785B1E1C70A8
:100E6000521EF9D210BD0C460443A40703D009E07A
:100E700010C9121F10C3042AFAD203E00C781C70A8
:100E8000491C5B1C521EF9D210BDD2B201E00270A7
:100E9000401C491EFBD270470022F6E710B51346EE
:100EA0000A4604461946FFF7F0FF204610BD421CD3
:100EB0000178401C0029FBD1801A70470321001DD6
:100EC000401E037812021A43491EF9D51046704796
:100ED000034603220870000A491C521EFAD5184620
:100EE0007047F8B502464A40D40F42004B00520802
:100EF0005B089A4202D20246084611464A0023D0B5
:100F0000C30D4A00DDB2120EAD1A202D35DA4902AA
:100F10000126490AF6058A19002C00D052422021E8
:100F20004F1B1146B9402A411018C20D9A4221D0D8
:100F3000002C17D0012D08DCDA05801AD20F801999
:100F4000D207DBB200F0A0FAF8BDDA05801A01235F
:100F500040001B06C01880185A428018CA0F104360
:100F6000490007E04908C2071143DA05801A8019D1
:100F70004008801800F080FAF8BD61000122511A83
:100F8000001BF7E70122D2075140AAE70122D2074E
:100F90005040A6E7024670B54A40D30FDB07400039
:100FA0002DD04A002AD0010E140E00021202091997
:100FB000400A520A8418E50104465443000A120A02
:100FC0002E045043A4194219200CC543AA18120C30
:100FD0000125AD03521C521912047F39240400D09C
:100FE000521C104301D44000491EC2B20C06C00975
:100FF0002018401C4008802A02D003E0002070BD69
:1010000040084000002900DA0020184370BD70B588
:1010100002464A40D50F40004A00ED0740085208FA
:10102000002814D0002A12D0C40DD30D4102012093
:10103000C0055202490A520AE41A091812187D34EE
:10104000914201D3641C00E04900002C01DA002029
:1010500070BD0023914201D3891A0343400849001F
:101060000028F7D100290AD0914202D10121C907F5
:1010700005E0914201D2012101E00121C943E005CF
:10108000C018401900F0F8F970BD0000F0B507462F
:101090000846584087B0C00F049048000E465900DB
:1010A00040084908BC1A884105D2384631461E46D8
:1010B00017460B4602465800400810434CD0300DEE
:1010C000039040055900400D490D0590401A0290CB
:1010D000402872DA18030121000B0905084301902A
:1010E00004980092002805D00199524200208841BE
:1010F00000920190029840210A1A0199009800F08C
:1011000087F905460C466B4607CB00F0A2F9C019DB
:101110007141039A0E0D0023D71756401A467A40A4
:10112000164344D0049A002A2DD0029A012A039A29
:1011300015DC1205C01A914101263605001C7141CB
:10114000D20F059ED2070093019202962A462346AB
:1011500000F0E0F907B0F0BD38463146FAE7160571
:10116000224A0F46B218C01AB74101210905001CD6
:101170004F4100187F41114618187941E20F104382
:101180006D19644113E0E2076D0815436408C20756
:101190001443039A01261205C01A91413605001C1A
:1011A0007141CE07400830434908C01851412A46D2
:1011B000234600F0A2F9CDE7FFE7049801224000A2
:1011C000C117121A00238B4104983146C417381AEC
:1011D000A141EEE730B40124E407634030BC55E799
:1011E00030B40124E407614030BC4FE70000E0FF69
:1011F00070B54B005B0803430BD04B005C0D002621
:1012000033466542B341D417AD1AA34102DB002037
:10121000014670BD12053018514170BDC217C10F93
:10122000504010B54018CA079623002100F02CF951
:1012300010BD10B500229623114600F025F910BD0F
:101240000EB5C217C10F5040CA0740180021054B08
:101250000293019200910A460B4600F05BF903B03D
:1012600000BD0000330400000EB5054902910021C5
:1012700000910A460B46019100F04CF903B000BD05
:1012800033040000C20F410040020123400ADB0585
:10129000D207090EC0187F2901DA0020704796296D
:1012A00003DC9623591AC84001E096398840002A89
:1012B000F4D040427047410040020122400AD2056A
:1012C000090E80187F2901DA00207047962903DC77
:1012D0009622511AC84070479639884070470000DE
:1012E00070B5CD0F4A0009030123090B1B051943F3
:1012F0000B4BED070024520D9A4201DA002070BD1D
:10130000074B34339A4203DC9A1A00F091F802E05A
:101310000449511888402C43F1D0404270BD000070
:10132000FF030000CDFBFFFFC20FD20740004008C3
:101330000BD0C10D0723DB01C91840020905400A83
:101340001143C2084007114370470020014670470F
:10135000CB0FDB07490010B5490802460A4307D006
:101360000A0D07240903E401090B121B002A01DC02
:10137000002010BDC900440F0C43C100E018D20585
:10138000801800F079F810BD0122D207002800DB98
:10139000101A002900DB511A814270470122D2073E
:1013A000002800DB101A002900DB511A8842704720
:1013B000F0B51FB40646002082B0054640240191D6
:1013C00000901BE0019922460F46304600F030F8AD
:1013D000049A059B801A994110D31046194622465B
:1013E00000F016F8361A8F4101972246012000219D
:1013F000009F00F00DF838184D4100902046641E03
:101400000028DFDC019B00982946324607B0F0BD7A
:1014100010B5202A04DB0146203A9140002010BD7F
:10142000914020239C1A0346E3401943904010BD8D
:1014300010B5202A04DB0846203AD040002110BD18
:101440000B46D340D0402024A21A914008431946AD
:1014500010BD10B5202A06DBCB170846203A1041F4
:10146000C1170B4306E00B461341D0402024A21ABB
:1014700091400843194610BD002904DA401C490078
:1014800001D140084000704770B40024050C05D11C
:101490001024000402D1002921D01124050E01D10D
:1014A00000020834050F01D10001241D850F01D170
:1014B0008000A41C002801DB4000641C002908D027
:1014C00020252E1B0D46F540A14000D001212943C7
:1014D000084301061B1B000ADB1D02D5002070BC5F
:1014E0007047DB05181880180029F8DA401C4900FD
:1014F000F5D170BC40084000704710B5002B08DAE9
:101500000024401C614192185B411A4301D14008FC
:10151000400010BDF0B51FB482B005460C0003D0EA
:10152000084607F00DFC02E007F00AFC20300246F6
:10153000009021462846FFF76BFF049B059A04465E
:101540000F4618431143084314D0184610431BD0CC
:10155000009840210A1A18460599FFF769FF0546C9
:101560000E46009A05990498FFF752FF084305D0EC
:10157000012004E02046394607B0F0BD0020C11725
:1015800005430E432C43374300990E986305401AD8
:101590007905E40A00220C43FD0A0A3002D5002036
:1015A0000146E9E70105101969410C9C0D9D0019E0
:1015B0006941FFF7A2FFDFE770B58C180578401C82
:1015C0006B075B0F01D10378401C2A1106D102780A
:1015D000401C03E006780E70401C491C5B1EF9D1CC
:1015E0002B0705D40023521E0DD40B70491CFAE7BB
:1015F0000378401CCB1A921C03E01D780D70491C27
:101600005B1C521EF9D5A142D8D3002070BD00004A
:1016100070B5454808F05EF84348263008F05AF89F
:1016200041485A3008F056F83F488E3008F052F8DA
:101630003D48C23008F04EF83B48F63008F04AF812
:101640003A4808F047F839482F3008F043F837484F
:101650005E3008F03FF83548923008F03BF83448E7
:1016600008F038F832487C3808F034F83048483808
:1016700008F030F82E48243808F02CF82C48343084
:1016800008F028F82A484F3008F024F828486A3033
:1016900008F020F82648853008F01CF82448A030CF
:1016A00008F018F82248BB3008F014F82048D6306B
:1016B00008F010F8214C1FA20421204607F0ECFF8F
:1016C000651C1FA20421284607F0E6FF261D1EA266
:1016D0000421304607F0E0FF1D4A611E012008F09A
:1016E00007FA1C4AA11C022008F002FA1A4AE11C5F
:1016F000022008F0FDF9194A2146012008F0F8F906
:10170000174A3146012008F0F3F9164A294601200C
:1017100008F0EEF9144AF11D032008F0E9F9134925
:101720000020487170BD0000AA500100D451010092
:1017300016530100C4A3CABD000000000B20000026
:10174000B7E7CFF200000000B7E7C1A60000000035
:10175000551D000075170000891700009D17000037
:101760007919000035180000111A000098000020B7
:101770000020704710B50021024808F0B9FA002097
:1017800010BD00000E20000010B50021024808F036
:10179000AFFA002010BD00000D20000070B51F4CF6
:1017A0001F4DA078002806D001280FD002281ED097
:1017B00003281AD126E00F21284608F03BFA1749E2
:1017C0002846083107F0EAFF012009E010212846E9
:1017D00008F030FA11492846083107F0DFFF0220EF
:1017E000A07021890FA007F087FA002070BD112199
:1017F000284608F01FFA09492846083107F0CEFFAD
:101800000320EDE70E21284608F014FA0349284684
:10181000083107F0C3FF0020E2E700009800002035
:10182000102000004D6F64655049435F49443A25DC
:10183000640D0A00F8B54A494A4807F0D1FF484903
:101840004848091D401C07F0CBFF454C01250C3CC6
:10185000E06802260327002841D02179002906D01C
:10186000012911D002291CD0032938D126E03D4896
:101870003021401D08F0DEF939493A48091F401D62
:1018800007F08CFF257126E036483121401D08F015
:10189000D1F933493348091F401D07F07FFF2671F6
:1018A00019E030483221401D08F0C4F92C492D4878
:1018B000091F401D07F072FF27710CE029483321F2
:1018C000401D08F0B7F926492648091F401D07F0BA
:1018D00065FF00202071218923A007F00DFA2069FF
:1018E00000283BD01F482179001D002906D001297E
:1018F0000FD0022918D0032930D120E02C21064630
:1019000008F098F916493046091F07F047FF25717E
:1019100020E02D21054608F08DF911492846091FC0
:1019200007F03CFF267115E02E21054608F082F9EC
:101930000B492846091F07F031FF27710AE02F21C4
:10194000054608F077F906492846091F07F026FFE3
:1019500000202071218904A007F0CEF90020F8BDF5
:10196000A40000200D2000004D6F64655049435FC6
:1019700049443A25640D0A0070B51F4C1F4DE078AC
:10198000002806D001280FD002281ED003281AD123
:1019900026E02921284608F04DF917492846083144
:1019A00007F0FCFE012009E02A21284608F042F950
:1019B00011492846083107F0F1FE0220E070218924
:1019C0000FA007F099F9002070BD2B21284608F0E0
:1019D00031F909492846083107F0E0FE0320EDE718
:1019E0002821284608F026F903492846083107F03F
:1019F000D5FE0020E2E70000980000201320000040
:101A00004D6F64655049435F49443A25640D0A00AF
:101A100010B52D4C6079642806D0002818D0A17923
:101A2000002903D0401C02E00021A171401E60711A
:101A30000A21C0B2FFF7DEF920706170234A03006B
:101A400007F095F90A090B1B1D1F21232527290FD4
:101A50000121A171E6E7552100E05621104608F06A
:101A6000E9F8617819480B00401E07F080F90A1662
:101A7000181D1F21232527292B1B5721EEE758214D
:101A8000ECE75921EAE75A21E8E75B21E6E75C2128
:101A9000E4E75D21E2E75E21E0E74B2100E04C2135
:101AA00008F0C8F8002010BD4D21F9E74E21F7E7F6
:101AB0004F21F5E75021F3E75121F1E75221EFE7FC
:101AC0005321EDE75421EBE798000020152000009A
:101AD00070B5154B0D1A1A88541EA54202DD411E21
:101AE000511809B2814200DA0146DC68944204D2FE
:101AF0000EA007F0F5FD002070BD164C9D68A56096
:101B00002161E0602046002124300180418021884D
:101B10004A43521E82805A884A43521EC28000F0B5
:101B20007FF9012070BD000000000020546865208E
:101B30004C43442063616368652070726F7669640A
:101B4000656420697320746F6F20736D616C6C0D18
:101B50000A0000004802002001463039092901D856
:101B6000C8B2704701464139192902D83738C0B286
:101B7000704720280FD024280FD025280FD02A28DE
:101B80000FD02B280FD02D280FD02E280FD02F2884
:101B90000FD02C2070472420704725207047262026
:101BA00070472720704728207047292070472A2037
:101BB00070472B20704700001CB50020694600903C
:101BC00088806A4601A90D4807F0F8FD009A002AAE
:101BD00012D06846808800280ED0002104E0535CB3
:101BE000002B03D0491C89B28142F8D3002903D0CD
:101BF0000248801E07F050FD00201CBD038000003D
:101C00001CB500206946009088806A4601A90D48ED
:101C100007F0D4FD009A002A12D068468088002878
:101C20000ED0002104E0535C002B03D0491C89B284
:101C30008142F8D3002903D00248C01E07F02CFDD2
:101C400000201CBD048000001CB5002069460090E7
:101C500088806A4601A90D4807F0B0FD009A002A65
:101C600012D06846808800280ED0002104E0535C22
:101C7000002B03D0491C89B28142F8D3002903D03C
:101C80000248001F07F008FD00201CBD0580000071
:101C900010B50C4807F01EFD0A48263007F01AFD63
:101CA0000848553007F016FD074A0849032007F099
:101CB0001FFF0649064A491E012007F019FF0020B0
:101CC00010BD0000B25E0100D91C000063120000CC
:101CD000E51D00000020704770B5164C164D617868
:101CE000284607F097FF60780026401CC0B260705D
:101CF000172800D366702078002806D0012806D067
:101D000002280FD0032806D10EE07E2100E07F21BB
:101D1000284607F08FFF2078401CC0B220700428AE
:101D200004D004E08021F3E78121F1E72670002050
:101D300070BD0000E40000206212000010B5034AEC
:101D40000349012007F050FE002010BDFD62000095
:101D50007164000010B5034A0349012007F044FEF6
:101D6000002010BDFD6200007164000010B5034A40
:101D70000349012007F038FE002010BDFD6200007D
:101D80007164000010B5034A0349012007F02CFEDE
:101D9000002010BDFD6200007164000010B5034A10
:101DA0000349012007F020FE002010BDFD62000065
:101DB0007164000010B5034A0349012007F014FEC6
:101DC000002010BDFD6200007164000010B5034AE0
:101DD0000349012007F008FE002010BDFD6200004D
:101DE0007164000010B5034A0349012007F0FCFDAF
:101DF000002010BDFD6200007164000010B5494371
:101E0000541A0368914202DB0021016010BD5B1C83
:101E100019465943A142FADB5B1E036010BD000066
:101E200010B5084C2169E0680A1A07480021C36808
:101E3000521CA068984705496161880CE161A06166
:101E400010BD000048020020E847010001C0FFFF6C
:101E5000F8B5060016D00C4D34680EE02068002856
:101E600003D06968002900D088476868676800283F
:101E700002D00146204688473C46002CEED1002087
:101E800030607060F8BD0000E8470100F8B5002040
:101E900003460090D548C1692CE00022081F864601
:101EA00025E035251C4601206C438446D04D501C4E
:101EB0006519112411E0AE5C264201D1012700E032
:101EC00000272E5C264201D1012600E00026B74201
:101ED00005D16646761CB446401C8842EBDB624660
:101EE000052A03DB009CA218921E0092024672454E
:101EF000D7DB5B1C8B42D0DB00222EE00024081FC6
:101F0000844627E0601C35256C43B94D01236419D4
:101F1000A646112415E07546AD5C254201D1012786
:101F200000E00027352605467543B14EAD19AD5C7E
:101F3000254201D1012500E00025AF4203D1401C1C
:101F40005B1C8842E7DB052B03DB009CE3189B1E30
:101F5000009304466445D5DB521C8A42CEDB002444
:101F60004B1E36E0002031E0352225465543A04A7D
:101F7000AE18355C112215402FD000273618B44614
:101F80002036B646767D164201D1012600E00026B5
:101F9000B7421AD1002D22D0002667467F7817421B
:101FA00001D1012700E00027BE420ED1002D18D03C
:101FB00000267546AD7D154201D1012200E00022C8
:101FC000964202D1009AD21C0092401C9842CBDB70
:101FD000641C9C42C6DB002267E00127CEE7012695
:101FE000DBE70126E5E700208D1F5BE0002809D034
:101FF00035237F4C53431B191B18203BDC7F1123D7
:102000001C424ED1352314465C43794BE418265CC0
:1020100011231E4245D0241866781E4241D1A6786D
:102020001E423ED0E6781E423BD026791E4238D072
:1020300066791E4235D1A6791E4232D0CE1FB042FB
:1020400002D0E6791E422CD1022804DB2646203E2F
:10205000B67F1E420DD1032804DB2646203E767F44
:102060001E4206D1042819DB2646203E367F1E423A
:1020700014D00E46083EB04202DA267A1E4210D133
:102080000E46093EB04202DA667A1E4209D10E4679
:102090000A3EB04202DAA47A1C4202D1009B2833E5
:1020A0000093401CA842A1DB521C8A429BDB002209
:1020B00072E000208C1F6CE0002809D035234C4DC5
:1020C00043435B199B18403BDD7A11231D425FD1CE
:1020D000352305465D43464BEB189E5C11252E4289
:1020E00056D09B183526F65C2E4251D16A26F65CF6
:1020F0002E424DD09F26F65C2E4249D0D426F65C67
:102100002E4245D0FF260A36F65C2E4240D1FF26ED
:102110003F36F65C2E423BD0CE1FB04204D0FF26A5
:102120007436F65C2E4233D102282EDB1E46803EEA
:10213000B67D2E420DD1032827DB1E46A03E7678C1
:102140002E4206D1042820DB1E46E03E367B2E427E
:102150001BD00E46083EB04204DAFF26A936F65CD4
:102160002E4215D10E46093EB04204DAFF26DE3675
:10217000F65C2E420CD10E460A3EB04205DAFF3321
:10218000FF3302339B7C2B4202D1009B2833009308
:10219000401CA04290DB521C8A428ADB002002468F
:1021A000134F11240DE03526154600237543ED1914
:1021B00004E0EE5C264200D1401C5B1C8B42F8DB45
:1021C000521C0B468A42EEDB642259435043FEF711
:1021D00027FE3221081A00D540420521FEF720FED5
:1021E0000A21484300994018F8BD00001001002062
:1021F00074260020F3B581B03422BE49BE48FEF7F4
:1022000023FEBD4D01986871000AA87102982C4602
:10221000BA300090E071000A207222276F7200200D
:10222000A872E7722073B548B64E0088E075000AC0
:102230002076B34800886876000AA8763088E07671
:10224000000A207730886877000AA877204607F0D0
:1022500041FAAD4AAD49012007F04AFCACA2052184
:10226000AA4807F027FDA349342234312046FEF75F
:10227000EBFD019827306871000AA8710098E071A1
:10228000000A20726F72380AA872E772380A207347
:102290009A480088E075000A207699480088687698
:1022A000000AA8763088E076000A207730886877C0
:1022B000000AA877204607F00DFA9449964A491C6F
:1022C000012007F015FC914894A20521401C07F05D
:1022D000F1FC8849342268312046FEF7B5FD0198AB
:1022E0004E306871000AA8710098E071000A2072EF
:1022F0006F72380AA872E772380A20737F48008824
:10230000E075000A20767E4800886876000AA87684
:102310003088E076000A207730886877000AA8774E
:10232000204607F0D7F979497E4A891C012007F039
:10233000DFFB76487CA20421801C07F0BBFC6D49C2
:1023400034229C312046FEF77FFD0198753068717C
:10235000000AA8710098E071000A20726F72380AB2
:10236000A872E772380A207364480088E075000A92
:102370002076634800886876000AA8763088E07680
:10238000000A207730886877000AA877204607F08F
:10239000A1F95E49654AC91C012007F0A9FB5B4809
:1023A00063A20321C01C07F085FC3422614920464A
:1023B000FEF74AFD01989C3000906871000AA871F0
:1023C00002984E30E071000A20726F72380AA872CB
:1023D000E772380A207349480088E075000A2076C1
:1023E000474800886876000AA8763088E076000AB8
:1023F000207730886877000AA877204607F06AF9C6
:1024000042494D4A891D012007F072FB3F484BA20B
:102410000521801D07F04EFC464934223439204600
:10242000FEF712FD00986871000AA87102987230D8
:10243000E071000A20726F72380AA872E772380AD7
:1024400020732E480088E075000A20762C4800880A
:102450006876000AA8763088E076000A207730880F
:102460006877000AA877204607F034F92749354AEB
:10247000491D012007F03CFB244833A20521401DE3
:1024800007F018FC2B49342268392046FEF7DCFCA3
:1024900000986871000AA87102989630E071000AED
:1024A00020726F72380AA8724620E07200202073F2
:1024B00012480088E075000A207611480088687686
:1024C000000AA8763088E076000A2077308868779E
:1024D000000AA877204607F0FDF80C4C1C4A241D82
:1024E0002146012007F004FB1AA20521204607F02F
:1024F000E1FBFEBD32890100B235002090480100A9
:102500008C4801008E480100CDA80000208000000A
:10251000B7FBBAC5000000004DA80000CAFDD7D621
:1025200000000000A1A8000053706100E9A80000AD
:10253000D6D000006A8A0100E1A70000C9BEB3FD41
:1025400000000000A9A70000B7B5BBD8000000003C
:1025500069A80000C8B7B6A800000000F3B50E4691
:1025600081B0342254495548FEF76EFC0198534D12
:10257000903000906871000AA87130465A302C469D
:10258000E071000A20722A2068720020A8722A20B6
:10259000E072002020734A484B4F0088E075000A23
:1025A0002076484800886876000AA8763888E07661
:1025B000000A207738886877000AA877204607F055
:1025C00089F8424A4249012007F092FA41A20521C6
:1025D0003F4807F06FFB3849342234312046FEF77C
:1025E00033FC00986871000AA87130468630E071AB
:1025F000000A20722A2068720020A8725620E07219
:10260000002020732E480088E075000A20762D48AF
:1026100000886876000AA8763888E076000A207775
:1026200038886877000AA877204607F053F82849C9
:102630002A4A491C012007F05BFA254828A20521F7
:10264000401C07F037FB1C49342234392046FEF782
:10265000FBFB0198B23630306871000AA871E67150
:10266000300A20725A2068720020A8722A20E07274
:102670000020207312480088E075000A2076114877
:1026800000886876000AA8763888E076000A207705
:1026900038886877000AA877204607F01BF80C4CAA
:1026A000114A641E2146012007F022FA0FA20521DB
:1026B000204607F0FFFAFEBD668D01003E36002081
:1026C000904801008C4801008E480100C5A7000019
:1026D00025800000B7B5BBD80000000039A8000075
:1026E000C9BEB3FD0000000085A80000C8B7B6A8A9
:1026F00000000000F3B587B03422FE49FE48FEF723
:10270000A3FBFD4D07986871000AA87108982C4634
:102710004E300290E071000A207222266E72002074
:10272000A872E6722073F548F64F0088E075000A3B
:102730002076F34800886876000AA8763888E07624
:10274000000A207738886877000AA877204606F0C4
:10275000C1FFED4AED49012007F0CAF9E5493422ED
:1027600034312046FEF770FB0798273005906871DA
:10277000000AA8710298E071000A20726E72300A95
:10278000A872E672300A2073DC480088E075000AFF
:102790002076DB4800886876000AA8763888E076DC
:1027A000000A207738886877000AA877204606F064
:1027B00091FFD649D64A491C012007F099F9CD4925
:1027C000342268312046FEF73FFB07984E300490D4
:1027D0006871000AA8710298E071000A20726E7296
:1027E000300AA872E672300A2073C4480088E07587
:1027F000000A2076C24800886876000AA8763888E1
:10280000E076000A207738886877000AA8772046A3
:1028100006F060FFBD49BF4A891C012007F068F936
:10282000B44934229C312046FEF70EFB07987530E0
:1028300003906871000AA8710298E071000A207282
:102840006E72300AA872E672300A2073AB480088B4
:10285000E075000A2076AA4800886876000AA87603
:102860003888E076000A207738886877000AA877E9
:10287000204606F02FFFA549A74AC91C012007F0F2
:1028800037F99C493422D0312046FEF7DDFA07980B
:102890006871000AA871089872300290E071000A0D
:1028A00020726E72300AA872E672300A2073934862
:1028B0000088E075000A2076914800886876000A52
:1028C000A8763888E076000A207738886877000A8A
:1028D000A877204606F0FEFE8C49904A091D01208B
:1028E00007F006F934228E492046FEF7ADFA059826
:1028F0006871000AA8710298E071000A20726E7275
:10290000300AA872E672300A20737C480088E075AD
:10291000000A20767A4800886876000AA876388807
:10292000E076000A207738886877000AA877204682
:1029300006F0D0FE75497B4A491D012007F0D8F802
:102940007749342234312046FEF77EFA04986871C4
:10295000000AA8710298E071000A20726E72300AB3
:10296000A872E672300A207364480088E075000A95
:102970002076634800886876000AA8763888E07672
:10298000000A207738886877000AA877204606F082
:10299000A1FE5E49644A891D012007F0A9F860493B
:1029A000342268312046FEF74FFA03986871000A16
:1029B000A8710298E071000A20726E72300AA87243
:1029C000E672300A20734D480088E075000A2076D0
:1029D0004B4800886876000AA8763888E076000AB6
:1029E000207738886877000AA877204606F072FEBC
:1029F00046494E4AC91D012007F07AF84849342259
:102A00009C312046FEF720FA07986871000AA871E9
:102A1000089896300290E071000A20726E72300AB7
:102A2000A872E672300A207334480088E075000A04
:102A30002076334800886876000AA8763888E076E1
:102A4000000A207738886877000AA877204606F0C1
:102A500041FE2E49364A0831012007F049F8304935
:102A60003422D0312046FEF7EFF905986871000A4C
:102A7000A8710298E071000A20726E72300AA87282
:102A8000E672300A20731D480088E075000A20763F
:102A90001B4800886876000AA8763888E076000A25
:102AA000207738886877000AA877204606F012FE5B
:102AB0001649204A0931012007F01AF834221E492C
:102AC0002046FEF7C1F904986871000AA8710298BF
:102AD000E071000A20726E72300AA872E672300A43
:102AE000207306480088E075000A207604480088B4
:102AF000687623E0C2860100B235002090480100CC
:102B00008C4801008E4801005D9D00000880000097
:102B1000059E0000019F0000FD9F0000F9A000003D
:102B2000C687010099A1000095A2000091A30000B2
:102B30008DA400002DA50000CA880100000AA87617
:102B40003888E076000A207738886877000AA87706
:102B5000204606F0BFFD1A4A1A49012006F0C8FFB8
:102B6000342219492046FEF76FF903986871000A6C
:102B7000A8710298E071000A20726E72300AA87281
:102B8000E672300A207311480088E075000A20764A
:102B90000F4800886876000AA8763888E076000A30
:102BA000207738886877000AA877204606F092FDDB
:102BB0000449084A491C012006F09AFF09B0F0BDFB
:102BC000E5A5000012800000FE8801009048010089
:102BD0008C480100ADA60000F3B583B03422FE4955
:102BE000FE48FEF731F9FD4D03986871000AA8719F
:102BF00004982C462E300290E071000A20722A269A
:102C00006E720020A872E6722073F548F64F0088B5
:102C1000E075000A2076F34800886876000AA876F6
:102C20003888E076000A207738886877000AA87725
:102C3000204606F04FFDED4AED49012006F058FF11
:102C4000ECA20221EA4807F035F8E3493422343196
:102C50002046FEF7F9F80398303001906871000AB9
:102C6000A8710298E071000A20726E72300AA87290
:102C7000E672300A2073DA480088E075000A207690
:102C8000D84800886876000AA8763888E076000A76
:102C9000207738886877000AA877204606F01AFD62
:102CA000D349D54A491C012006F022FFD048D3A2BF
:102CB0000221401C06F0FEFFC7493422683120463D
:102CC000FEF7C2F80398603000906871000AA8719E
:102CD0000298E071000A20726E72300AA872E672E1
:102CE000300A2073BE480088E075000A2076BD488F
:102CF00000886876000AA8763888E076000A20778F
:102D000038886877000AA877204606F0E3FCB849BF
:102D1000BB4A891C012006F0EBFEB548B9A202218E
:102D2000801C06F0C7FF3422B7492046FEF78CF816
:102D3000039890306871000AA8710298E071000A47
:102D400020726E72300AA872E672300A2073A448AC
:102D50000088E075000A2076A24800886876000A9C
:102D6000A8763888E076000A207738886877000AE5
:102D7000A877204606F0AEFC9D49A44A0A310120FE
:102D800006F0B6FE9A48A2A202210A3006F092FF8F
:102D9000914934229C312046FEF756F80398687119
:102DA000000AA87104985A300290E071000A20725B
:102DB0006E72300AA872E672300A20738848008862
:102DC000E075000A2076874800886876000AA876B1
:102DD0003888E076000A207738886877000AA87774
:102DE000204606F077FC82498A4AC91C012006F079
:102DF0007FFE7F4888A20221C01C06F05BFF764957
:102E00003422D0312046FEF71FF801986871000A7D
:102E1000A8710298E071000A20726E72300AA872DE
:102E2000E672300A20736E480088E075000A20764A
:102E30006C4800886876000AA8763888E076000A30
:102E4000207738886877000AA877204606F042FC89
:102E50006749724A091D012006F04AFE644870A2C3
:102E60000221001D06F026FF34226E492046FDF7A0
:102E7000EBFF00986871000AA8710298E071000ADF
:102E800020726E72300AA872E672300A20735448BB
:102E90000088E075000A2076524800886876000AAB
:102EA000A8763888E076000A207738886877000AA4
:102EB000A877204606F00EFC4D495B4A491D0120CB
:102EC00006F016FE4A4859A20221401D06F0F2FE05
:102ED0005449342234312046FDF7B6FF0398687117
:102EE000000AA871049886300290E071000A2072EE
:102EF0006E72300AA872E672300A20733848008871
:102F0000E075000A2076374800886876000AA876BF
:102F10003888E076000A207738886877000AA87732
:102F2000204606F0D7FB3249414A891D012006F0B0
:102F3000DFFD2F483FA20221801D06F0BBFE39496C
:102F4000342268312046FDF77FFF01986871000A3E
:102F5000A8710298E071000A20726E72300AA8729D
:102F6000E672300A20731E480088E075000A207659
:102F70001C4800886876000AA8763888E076000A3F
:102F8000207738886877000AA877204606F0A2FBE9
:102F90001749294AC91D012006F0AAFD144827A295
:102FA0000221C01D06F086FE1749342268392046EA
:102FB000FDF74AFF00986871000AA8710298E07155
:102FC000000A20726E72300AA872E672300A20730C
:102FD00003480088E07533E0F68A01003E360020A1
:102FE000904801008C4801008E480100D19D0000EE
:102FF0000880000031000000CD9E0000320000007B
:10300000C99F000033000000FE8C010075A700007E
:103010002E000000C5A000003400000065A10000E3
:1030200035000000FA8B010061A2000036000000AC
:103030005DA300003700000059A400003800000024
:10304000000A2076284800886876000AA876388822
:10305000E076000A207738886877000AA87720464B
:1030600006F038FB214A2249012006F041FD21A249
:1030700002211F4806F01EFE34221F492046FDF79C
:10308000E3FE03986871000AA8710498B230E071F9
:10309000000A20726E72300AA872E672300A20733B
:1030A00016480088E075000A20760F480088687688
:1030B000000AA8763888E076000A20773888687792
:1030C000000AA877204606F005FB094C0C4A641C50
:1030D0002146012006F00CFD0AA20221204606F03E
:1030E000E9FD05B0F0BD00008C480100F9A4000026
:1030F0001080000039000000CA8C010090480100D7
:10310000299D000030000000F8B506463C480188C3
:10311000BE2901D23BA003E04088DC2804D240A0B5
:1031200006F0DEFA0120F8BD444AC90389180D0CE7
:103130004349C0034018040C262242494248FDF787
:1031400083FE4148290A45718171C471210A0172C7
:103150003E4801883C488173090AC17306F0BAFAF7
:1031600038493948322226312630FDF76DFE36487F
:10317000290A2630457181710146CC71220A0A72F2
:10318000BE224272002282723020C872304F2E4816
:103190000A73398848300170090A41702D48018846
:1031A000294826308175090AC1752B49098801769D
:1031B000090A417606F08EFA2848002E1DD03A887A
:1031C0000021521E04E0735C002B03D0491C89B21D
:1031D0009142F8DB324606F06DFD2146284600F0AC
:1031E000FDF821462846FFF785FA21462846FFF7D5
:1031F00001F804F009FA0020F8BD08A20121EAE76D
:10320000000000206C636420776964746820696E34
:1032100073756666696369656E740D0A0000000067
:103220006C63642068656967687420696E7375668D
:1032300066696369656E740D0A0000000000A1FFF5
:10324000000092FF348501005A3500208A480100B1
:10325000884801008C4801008E4801000180000070
:10326000F8B5064639480188BA2901D238A003E0EA
:103270004088DC2804D23DA006F032FA0120F8BDD7
:10328000414AC90389180D0C4049C0034018040C79
:1032900026223F493F48FDF7D7FD3E48290A4571A0
:1032A0008171C471210A01723B48018839488173D8
:1032B000090AC17306F00EFA354936483222263122
:1032C0002630FDF7C1FD3348290A2630457181714A
:1032D0000146CC71220A0A72BA224272002282721C
:1032E0002020C8722D4F2B480A733988483001704E
:1032F000090A41702A480188264826308175090A42
:10330000C175284909880176090A417606F0E2F973
:103310002548002E17D03A880021521E04E0735C25
:10332000002B03D0491C89B29142F8DB324606F0EB
:10333000C1FC21462846FFF74FFC21462846FFF7EF
:103340000DF90020F8BD08A20121F0E700000020DF
:103350006C636420776964746820696E737566664F
:10336000696369656E740D0A000000006C63642077
:1033700068656967687420696E73756666696369F4
:10338000656E740D0A0000000000A3FF000092FFAC
:103390009E8A0100E63500208A4801008848010025
:1033A0008C4801008E4801000180000070B50A4C75
:1033B0000025206800280CD0014608208847050019
:1033C00007D0E068002804D00346082200212846E0
:1033D0009847284670BD0000E8470100F8B50F4641
:1033E00006463222A249A348FDF72EFDA148310A24
:1033F0004671817134370146CF713A0A0A723E2212
:103400004272002282721620C8729B480A73018899
:1034100098488175090AC175984909880176090A91
:10342000417606F057F996A20121964806F042FC33
:103430008F499048342232313230FDF705FD8D4DF1
:103440003046323540306871000AA8712C46E77169
:10345000380A2072162068720020A8721620E072C6
:103460000020207388480088E075000A2076824892
:1034700000886876000AA87680480088E076000A0E
:1034800020777E4800886877000AA877204606F0F3
:1034900021F97C487AA20121401C06F00BFC7949F5
:1034A0007A4A491C012006F023FB71493422663117
:1034B0002046FDF7C9FC30465A306871000AA871F1
:1034C000E771380A2072162068720020A872162050
:1034D000E072002020736C480088E075000A2076B6
:1034E000654800886876000AA87664480088E07617
:1034F000000A2077614800886877000AA87720468C
:1035000006F0E8F85F485EA20121801C06F0D2FBBD
:103510005C495F4A891C012006F0EAFA54493422CA
:103520009A312046FDF790FC304674306871000AED
:10353000A871E771380A2072162068720020A872FC
:103540001620E072002020734F480088E075000AC2
:103550002076494800886876000AA876474800889F
:10356000E076000A2077454800886877000AA87747
:10357000204606F0AFF8434841A20121C01C06F0E6
:1035800099FB4049434AC91C012006F0B1FA384969
:103590003422CE312046FDF757FC30468E3068711C
:1035A000000AA871E771380A20721620687200209C
:1035B000A8721620E0720020207333480088E0755E
:1035C000000A20762C4800886876000AA8762B48E6
:1035D0000088E076000A2077284800886877000A8B
:1035E000A877204606F076F826482BA20121001D78
:1035F00006F060FB2349294A091D012006F078FAEC
:10360000342227492046FDF71FFCA8366E71300A88
:10361000A871E771380A2072162068720020A8721B
:103620001620E0720020207317480088E075000A19
:103630002076114800886876000AA8760F4800882E
:10364000E076000A20770D4800886877000AA8779E
:10365000204606F03FF80B4C12A2641D01212046C3
:1036600006F028FB104A2146012006F041FAF8BD79
:103670008C850100803500208A4801008E480100B9
:10368000000000000280000090480100B91B00000B
:10369000011C0000491C00003C000000ADB000000F
:1036A0008E8601003E000000A1B0000010B501218F
:1036B000002000F0DFF8194C002806D02068002810
:1036C00000D08047002000F0A5F80121084600F056
:1036D000D1F8002806D06068002800D0804701207B
:1036E00000F098F80121022000F0C4F8002806D06C
:1036F000A068002800D08047022000F08BF801214C
:10370000032000F0B7F8002806D0E068002800D0B9
:103710008047032000F07EF810BD0000A0020020CA
:1037200070B5324805F0D6FF3048263005F0D2FF9C
:103730002E48413005F0CEFF2C48733005F0CAFF0B
:103740002A48A73005F0C6FF2848DB3005F0C2FF45
:10375000274805F0BFFF26482F3005F0BBFF24485F
:103760005E3005F0B7FF22488D3005F0B3FF2048EA
:10377000BC3005F0AFFF1FA202211F4805F08CFFEF
:103780001D4C1EA2641C0321204605F085FF651C0C
:103790001BA20221284605F07FFF1A4A214601207C
:1037A00006F0A6F9184A2946012006F0A1F91748A3
:1037B00001F04EFD154C681C218806F099FAA1789D
:1037C000A81C06F095FAE178E81C06F091FA0421AD
:1037D0006156281D06F08CFA6179681D06F088FA9A
:1037E000A179A81D06F084FA002070BDA35A01003B
:1037F000AD5B01003230000003600000594553000A
:103800004E4F0000FD640000B51D00008000002048
:103810000020704710B504000AD0012C08D0022CFB
:1038200006D0032C04D0FF21AC3104A005F066FDC6
:1038300001200F49A040886310BD000041534D3165
:103840003178784253505C4D313133305F5374647A
:103850005065726970685F4472697665725C7372F4
:10386000635C6D313133305F646D612E6300000045
:103870000003054070B50D4604000AD0012C08D0A5
:10388000022C06D0032C04D0FF21923106A005F0B3
:1038900035FD01221148A240002D02D0806A10405F
:1038A00070BD0068FBE7000041534D31317878422C
:1038B00053505C4D313133305F53746450657269DD
:1038C00070685F4472697665725C7372635C6D31B7
:1038D0003133305F646D612E63000000C00205402B
:1038E000F0B51C460746081989B015460E4681B248
:1038F000039078191C4A0490126880B2904703988C
:10390000194A81B2781B0390126880B290477019EF
:1039100081B205903819144A0790126880B2904716
:10392000701B81B20690104A0798126880B29047C7
:10393000002C16D00C4D0498361B2A68B1B280B208
:10394000904703982A68B1B280B2904705983C1B13
:1039500081B22A68A0B2904706982A6881B2A0B2C4
:10396000904709B0F0BD0000640D0000FFB585B0C0
:10397000FF32FF336932693300260390F643012793
:10398000FF2014B21DB2693005E0FF3C693CFF3DE9
:10399000693D24B22DB28442F7DA002D6CDD5A2C39
:1039A00011DA002C00DA00245A2D01DA284600E052
:1039B0005A2083B20E9801960290A2B200970699FF
:1039C000039800F05BF85A3D5A3C2DB224B2002D0A
:1039D00052DD5A2C14DA002C00DA00245A2D01DAB8
:1039E000284600E05A200E9902915A210A1B081A13
:1039F00093B2019682B200960699039800F03EF8C1
:103A00005A3D5A3C2DB224B2002D35DD5A2C11DA24
:103A1000002C00DA00245A2D01DA284600E05A2052
:103A200083B20E9801970290A2B20096069903986D
:103A300000F024F85A3D5A3C2DB224B2002D1BDD73
:103A40005A2C14DA002C00DA00245A2D01DA284608
:103A500000E05A200E9902915A210A1B081A93B2CB
:103A6000019782B200970699039800F007F85A3D33
:103A70005A3C2DB224B290E709B0F0BDFFB597B023
:103A80000F46219C2298FDF7DBFB0022844BFDF7BB
:103A9000FDFA0022D243FDF7ABFB05460E46384641
:103AA0000491FDF7E1FB074633462A460291FDF7F4
:103AB00091FBFDF74DFC06462A463846049B0299C9
:103AC000FDF7E4FAFDF744FC05461998754A8000B5
:103AD000115806911A9989005758734A1058049042
:103AE0005058314603900846FDF754FAFDF7CAFBDB
:103AF000294608900846FDF74DFAFDF7C3FB0790ED
:103B000030460699FDF746FA0A9028460699FDF7D1
:103B100041FA0C9039463046FDF73CFA0B90394695
:103B20002846FDF737FA0D9030460499FDF732FA32
:103B30000E9028460499FDF72DFA0F903046039910
:103B4000FDF728FA109028460399FDF723FA129002
:103B50000A98FDF7E9FB554A554BFDF797FAFDF733
:103B6000BFFB05460D98FDF78DFB524E119010AA34
:103B7000F188D38B0593CA1A7188C91A012C02D017
:103B8000631C07D00CE0824200DA1046A94207DD30
:103B90000D4605E0AA4200DA1546814200DD0846DE
:103BA00000210646139110A81491878B74E03146CA
:103BB00013A8089AFEF722F9314614A8079AFEF7CF
:103BC0001DF93046FDF72AFB15900C99FDF7DCFB3B
:103BD0002CD20A990C98FDF7D7FB01D10A9816E070
:103BE0000A990C98FDF7CEF904900E990F98FDF7FD
:103BF000C9F90499FDF70BFA06900A991598FDF793
:103C0000C1F90699FDF7C6F90E99FDF76AF9FDF7B6
:103C100039FB03900B991598FDF7C0FB22D20B9945
:103C20000D98FDF7B1FB03D111981CE01498F0E753
:103C30000B990D98FDF7A6F9099010991298FDF7C8
:103C4000A1F90999FDF7E3F909900B991598FDF78A
:103C500099F90999FDF79EF91099FDF742F9FDF7D9
:103C600011FB00E0139820990029214608DD059AF0
:103C700071438918039A89B2BA1892B2381807E0CA
:103C8000059A71438918381A82B2039889B2381A92
:103C900080B200F0A1FA761EAE4288DA1BB0F0BD09
:103CA0000000F83FAC6E010050740100E90B21E701
:103CB000FDFFEF3F6C020020FFB551488DB08668D4
:103CC000C0681F4642086846058F10462946FDF722
:103CD00091F804466846418F0C97828E02840A92BE
:103CE000C28E428400200B90A14201D3081B01E048
:103CF0000C4680E00790294618986143012801D0BE
:103D000000231CE000203E4A03E093883380401CDF
:103D1000B61C8842F9D314E0179A0B98504342001E
:103D200016981218002004E017883780401C921C57
:103D3000B61C8542F8D80B98401C5B1C0B90A34224
:103D4000EAD32F480023CE08826833E00C990C9FF9
:103D500009787F1C0C97CF0901D0C78817808F097D
:103D6000921CFF0701D0C78817804F09921CFF07DC
:103D700001D0C78817800F09921CFF0701D0C788A0
:103D80001780CF08921CFF0701D0C78817808F08C3
:103D9000921CFF0701D0C78817804F08921CFF07AD
:103DA00001D0C7881780921CC90701D0C188118033
:103DB000921C5B1C9E42C9D8866868460A9981801D
:103DC000418C0991C1801999018144811A98009010
:103DD0000C48294647693046029B019AB847099921
:103DE0006846091941840798002806D0A04201D3EB
:103DF000001B7FE7044600207CE711B0F0BD000007
:103E000000000020640D0000FFB5654889B084689B
:103E1000C0681E4642086846008D03900146104661
:103E2000FCF7E8FF05466846408D00906846818CA7
:103E300001820591C18C41821498012814D15848FF
:103E4000584982880A80C288CA800127B800381879
:103E5000C2B253488188C08801F0ACFA7A00514957
:103E60007F1C8852032FF1DB0020079000988DE023
:103E70000890039814996843012901D0002330E089
:103E80000022830816E03178521C88094700454813
:103E9000C75B27808F06BF0F7F00C75B67800F0758
:103EA000BF0F7F00C75B8907A780490F405AE0809A
:103EB0000834761C9342E6D84DE0139A0799514393
:103EC0004A0012995218002104E017882780491CE3
:103ED000921CA41C039F8F42F7D80799491C5B1CB6
:103EE0000791AB42E9D32E4900228C6880080092EA
:103EF00001902DE03778761CB809810042182848D7
:103F00002188C08801F056FA2080B806800F810011
:103F1000421823486188C08801F04CFA6080380755
:103F2000800F810042181E48A188C08801F042FA23
:103F3000A080B807800F810042181948E188C08826
:103F400001F038FAE0800098401C00900198083495
:103F500000998842CED812486946846805988880BE
:103F6000488A0690C880159808814D81169800905F
:103F70000D48029B47692046019A0399B847069865
:103F80006946401948820898002806D0A84201D303
:103F9000401B6DE7054600206AE70DB0F0BD00004C
:103FA0000000002074020020640D0000FFB552489C
:103FB00089B08568C0681E4642086846008D039037
:103FC00001461046FCF716FF04466846408D0090F7
:103FD0006846818C01820691C18C41821498012827
:103FE00012D14548454982880A80C288CA83012780
:103FF0004148FAB28188C08801F0DCF97A003F4973
:104000007F1C88520F2FF3DB00200890009869E096
:104010000790039A14986243012801D0002326E0F8
:104020000021364853080BE03278491C17097F00FD
:10403000C75B12072F80D20E825A6A802D1D761C14
:104040008B42F1D833E01399089848434100129805
:104050000918002004E00F882F80401C891CAD1C2B
:10406000039F8742F7D80898401C5B1C0890A34226
:10407000E9D32148002751088568019114E0307880
:10408000009002091C482988C088761C01F092F92A
:1040900028800098698802071748120FC08801F02D
:1040A00089F968802D1D7F1C0198B842E7D8124815
:1040B0006946856806988880488A0590C880159862
:1040C00008814C81169800900D48029B476928464C
:1040D000019A0399B84705986946001948820798DC
:1040E000002806D0A04201D3001B91E7044600201F
:1040F0008EE70DB0F0BD0000000000203A35002032
:10410000640D0000F3B50C460846604349084018AA
:1041100085B086B26846C08A0390001B00B2029048
:1041200003982C49001900B20190CA88824202DA31
:104130000620085E01900298002801DA0020029013
:104140006846808A0025274600901CE00398411BA2
:104150000298814215DB0198814212DC28466843AF
:104160003A467A438218B24202DD7F1EBFB2F7E7B9
:10417000009889B2C01982B20098C01B80B200F0CA
:104180002BF86D1CADB2A542E0D3002527461CE0FC
:10419000039841190298814215DB0198814212DC93
:1041A000284668433A467A438218B24202DD7F1EAF
:1041B000BFB2F7E7009889B2C01982B20098C01B5D
:1041C00080B200F009F86D1CADB2A542E0D307B093
:1041D000F0BD00006C020020F8B5074616460D46FB
:1041E000BA4267D3344C28462168FCF719FE61694E
:1041F000884206D002F0A8FF28462168FCF710FE8E
:1042000060612D48016838460C46FCF709FE85B20E
:1042100021463046FCF704FE81B22748806985427A
:1042200001DA254885612448C269914200DDC161F7
:104230002A46C568AA4202DA2A46624397B2026950
:10424000914203DD521C6243521E96B2BE4231D3EC
:1042500021463846FCF7E4FD401B00B200902146A1
:104260003046FCF7DDFD401B01B200988C46081A71
:10427000401C01B21048826800981018012907D02C
:10428000009A03785219521C6243D21B9A1803E019
:104290000278F11B0BE012190270401C491E09B292
:1042A00002780129F7DC614649196143711A491CFA
:1042B00051180170F8BD000048020020F8B507460B
:1042C00024481500C4880E4642D04188B1423FDBE5
:1042D0000088B8423CDB204A0F2D02D3B1B2B8B2FD
:1042E00032E01D4AB1B25268B8B2904701463F234E
:1042F0005B0120461840E306DB0E6B439C46E20A56
:104300001023D2025B1B6A436843CD0ADBB2ED0285
:104310005D43AD183F2252010A40C906C90E5A43F7
:10432000594310181F232A11DB021A403F2361440E
:1043300000115B011840C905C90E10184018054945
:10434000054AC880B1B2B8B2126890470148C4802B
:10435000F8BD000000000020640D0000F7B50C4619
:1043600006461D218AB04901F748FCF795FD00215A
:10437000F64D0846A9612FE0725C1346303B092BCD
:1043800001D8002218E01346413B192B13D9202AEB
:1043900011D0242A0FD0252A0DD02A2A0BD02B2A5F
:1043A00009D02D2A07D02E2A05D02F2A03D03A2A49
:1043B00001D0022200E00122002901D1E44B1A7051
:1043C000E34B1F5C974201D0401C1A54DE4A870021
:1043D000D3595B1CD351491CA142CDDB401C0024A6
:1043E000A8612EE1DA4A135D002B02D0012B05D023
:1043F00026E110194078012804D021E110194078F5
:104400000028F5D1A000D04904900690095818461C
:104410000C9A00F0D1FE0746CB490698401803904D
:1044200001904168CA480019079040780C9A00F042
:10443000C3FE3F18C44906980C9A09580198406871
:104440000918012000F0B8FE00908742D0DD012C51
:1044500025DB07982038C07F022820D10398BA496D
:1044600080380690C26F04980858111802200C9AE0
:1044700000F0A2FE074603980C9A4168079840781E
:1044800000F09AFE3818019006980C9AC16F02202D
:1044900000F092FE009941180198814201DA002053
:1044A0000190A869801E84421FDA0798A84A807884
:1044B00002281AD1A44804994158105D0C9A00F0C2
:1044C0007BFE074603980C9A416880680918022011
:1044D00000F072FE3F1803980C9A8168022000F0E9
:1044E0006BFE00994018B84200DA002701980028B6
:1044F00005D0002F06D0B84204DB012004E0002FD5
:1045000004D110E00020C043401C16D007980221BF
:104510004170039841688068091803984160A9694F
:10452000A01C491E2CE0A8698446801E844244DAFF
:1045300007988078012827D03FE00398824A0499A1
:104540008038C36F51585918C167A9692046491E60
:1045500009E07F4A13185B7813547B4A83009F1845
:104560007F68D750401C8842F3DB0BE0784A131871
:104570005B781354744A83009F187F68D750401C9F
:104580008842F3DBA86958E00398416880680918FD
:1045900003984160A11C6046401E09E06C4A531814
:1045A0005B785354684A8B009F187F68D750491C2A
:1045B0008142F3DB6046401EA861654B012018551F
:1045C000614A0498115803984068091804981150DA
:1045D000A969601C8C46491E09E05D4A13185B7886
:1045E0001354594A83009F187F68D750401C884253
:1045F000F3DB6046401E8446A861012C21DB07984E
:104600002038C07F01281CD103984F4A0499803874
:10461000C36F51585918C16760462146401E09E0D2
:104620004B4A53185B785354474A8B009F187F6856
:10463000D750491C8142F3DB6046401EA86100E070
:10464000641CA869401E844200DACBE60C98002462
:1046500080000790B3E0A0003B4903900090095808
:104660003B480C9A005D00F0A7FD074636490098CC
:104670000C9A401801900490416835480019089040
:10468000407800F099FD3F182F4900980C9A09587E
:10469000049840680918022000F08EFD0146012CA4
:1046A00009DB08982038C07F022804D12948079ADE
:1046B0008058091A091FA8698446801E844208DAB6
:1046C00008988078022804D1224B079A9858091A32
:1046D000091F8F4272DD012C20DB08982038C07F33
:1046E00002281BD1019B184A0398803BD96F1058B0
:1046F0000818D86760462146401E09E0144A53183E
:104700005B785354104A8B009F187F68D750491C20
:104710008142F3DB6046401E641EA861A86984469E
:10472000801E844227DA0A4F38198078022822D165
:10473000054BA000C0188268416889184160A11C1F
:104740006046401E12E00000D4220020100100202C
:1047500091320020F4620100844A53185B7853546C
:10476000834A8B009F187F68D750491C8142F3DB36
:104770006046401EA8617D4F022038557C48A1004C
:104780000B1842585B68D2184250AA69611C9446C3
:10479000521E09E0754843185B78435474488B00F7
:1047A0001F187F68C750491C9142F3DB6046401ECA
:1047B000A861012C03DB641E01E0FFE7641CA8690B
:1047C000401E844200DA46E768480024E821E830C9
:1047D000EC60FCF761FB0020A5E06449009A895C6D
:1047E000002914D001295FD004221146614D02F046
:1047F0003FFDE860604A0799525800998F005C4974
:10480000C95B89B202F034FDE8600025A0E0042213
:104810000121584D02F02CFDE860574A0799183ADB
:10482000525800998F005249C95B89B202F020FDAD
:10483000E860002531E0811EA94211DD601981196F
:10484000305C8A78642330385843121848780A213B
:10485000484321210901401A101881B20A2215E0AB
:10486000A9420BD160198119305C0A22303849788D
:1048700050433038081881B2072207E0401EA84292
:104880000AD16019305C303881B204223948C068DE
:1048900002F0EEFC3749C860ED1C3548C059A8420B
:1048A000C9DC3348C0593BE004220221314D02F0FB
:1048B000DFFCE860304A07990C3A525800992C4FB7
:1048C00089000591795A89B202F0D2FCE86000258E
:1048D0001EE0401EA8420FDD60190490305CFDF719
:1048E0003BF9074604982D2180194F434078FDF786
:1048F00033F939180B2205E06019305CFDF72CF90B
:10490000014606221B4FF86802F0B2FCAD1CF860AD
:10491000174905980858A842DBDC15480599405806
:1049200004190098401C134B00909969884214DACE
:10493000D868411C00D050E716E06019315C0D4882
:104940000822C06802F094FC01460A486D1CC16050
:104950000748C059A842F0DCA3E70648C068401CDD
:1049600002D001200DB0F0BD0020FBE79132002005
:10497000D422002010010020F462010070B521490A
:104980002148FCF789FA02F09FFD02F0A3FC1F4EBC
:10499000B068401C18D1B06003F026F8B06802F08F
:1049A00005FDFDF773FA04460125284603F01CF8BF
:1049B000284602F0FBFCFDF769FAA04201DA044642
:1049C000B5606D1C072DF0DDB06803F00DF8B06820
:1049D00002F0ECFC00200C4B1125F2690EE03526AC
:1049E000044600217443E41805E0665C2E4000D0C4
:1049F00001266654491C9142F7DB401C9042EEDBD5
:104A000070BD0000F90A000074260020100100208B
:104A100010B5594804F05EFE5748263004F05AFE9F
:104A20005548553004F056FE5348843004F052FE89
:104A30005148B33004F04EFE4F48E73004F04AFED0
:104A40004E4804F047FE4D48343004F043FE4B48D6
:104A5000683004F03FFE49489C3004F03BFE474874
:104A6000D03004F037FE464804F034FE444832307B
:104A700004F030FE4248423004F02CFE40486630DC
:104A800004F028FE3E488A3004F024FE3C48E03022
:104A900004F020FE3A48AE3004F01CFE394804F021
:104AA00019FE3848323004F015FE3648643004F000
:104AB00011FE3448963004F00DFE3248B13004F057
:104AC00009FE3048CC3004F005FE2FA20421304806
:104AD00004F0E2FD2F49012008702D482EA20F217D
:104AE000401C04F0D9FD2A482FA206210B3004F007
:104AF000D3FD27482EA206210C3004F0CDFD24481A
:104B00002DA206210D3004F0C7FD21492C4A0A319F
:104B1000012004F0EDFF1E492A4A491E012004F03D
:104B2000E7FF1B49284AC91C032004F0E1FF184C89
:104B3000264A241D2146022004F0DAFF244A214699
:104B4000012004F0D5FF641C224A2146022004F013
:104B5000CFFF1F4A2146012004F0CAFF641C1E4AF1
:104B60002146022004F0C4FF194A2146012004F026
:104B7000BFFF002010BD0000924C0100AD4D0100B0
:104B8000AF4E0100C34F0100D6C7C4DC00000000D7
:104B90000B10000088000020C9CFBAA3CAD020C7DC
:104BA000E70A3230A1E60000C9FACFCACAD2000033
:104BB000C8EDB6B3CAD20000C0E4B6B3CAD2000092
:104BC0003D1D0000714C0000954D0000054D00009A
:104BD000DD4B0000354D0000654D000010B51C494F
:104BE0001C4804F0FDFD1A491A48091D401C04F038
:104BF000F7FD174917480831801C04F0F1FD1448EF
:104C0000001F82684168C068114301430FD11148F9
:104C1000401E04F0D1FF1048FCF749F981B20D485D
:104C20000D4AC01C05F046F80CA004F065F80948D0
:104C30005F210A3004F0FEFF064861210B3004F0CA
:104C4000F9FF044863210C3004F0F4FF002010BD8C
:104C50008C0000200F1000008A4C01005365744442
:104C6000697361626C65206F6B0D0A0000207047EC
:104C700030B51CA103C987B0019100901BA103C9E5
:104C8000039102901BA103C91C4C0591049020784C
:104C90001B4D002804D001280CD0022814D116E0A6
:104CA0006846FCF704F981B26A46284605F002F826
:104CB000012008E002A8FCF7FAF881B202AA28460F
:104CC00004F0F8FF02202070002007B030BD04A8D7
:104CD000FCF7EDF881B204AA284604F0EBFF0020AF
:104CE000F1E70000D6C7C4DC00000000D5E4C6B779
:104CF00000000000CBD9B6B30000000088000020FF
:104D00000B10000010B50021084804F0F1FF07481F
:104D10000021401C04F0ECFF04480121801E04F037
:104D20004BFF034901208870002010BD10100000C7
:104D30008800002010B50021084804F0D9FF07487A
:104D40000021801C04F0D4FF04480121401E04F01F
:104D500033FF034902208870002010BD0F100000AF
:104D60008800002010B50021084804F0C1FF074862
:104D70000021401C04F0BCFF04480121401E04F047
:104D80001BFF034903208870002010BD0F10000096
:104D90008800002070B5204C607800280AD00020E0
:104DA0001E4D6070002807D01D48FCF780F881B2C6
:104DB0001B4A08E00120F3E719480830FCF777F8B0
:104DC000174A81B20832284604F074FFA0780128FF
:104DD00004D002280BD003281CD111E00F486178C1
:104DE000C01D002901D05F2112E0602110E00B48B6
:104DF00061780830002901D0612109E0622107E0D3
:104E0000064861780930002901D0632100E064215F
:104E100004F010FF002070BD880000201210000078
:104E2000824C010070B5154B1824984212D1144DD4
:104E300000200B46C340DB07DB0F07D083005B1964
:104E40001E68A6431E601E6816431E60401C202874
:104E5000EFD370BD0A4D002080350B46C340DB0701
:104E6000DB0F07D083005B191E68A6431E601E6817
:104E700016431E60401C2028EFD370BD0000024086
:104E80000010004070B5394E0C460546B04206D0C1
:104E90003748854203D0672136A004F02FFA2079E5
:104EA000002808D16079012805D0002803D06A21A4
:104EB00030A004F023FA2068002803D16C212DA033
:104EC00004F01CFA2179002911D001290FD0022900
:104ED0000DD003290BD0042909D0052907D00629B4
:104EE00005D0072903D06D2122A004F007FAB542AE
:104EF0001DD12D4A00202168C140C907C90F09D022
:104F0000810089180B68DB08DB000B600B682579D2
:104F10002B430B60401C2028EDD32079002803D1BF
:104F2000617922481DE0416070BD816070BD1E4AFC
:104F3000002080322168C140C907C90F09D0810013
:104F400089180B68DB08DB000B600B6825792B43A5
:104F50000B60401C2028EDD320790028E6D1617930
:104F6000134801292168E0D1DDE70000000002407C
:104F70000000034041534D313178784253505C4D2D
:104F8000313133305F5374645065726970685F44C7
:104F900072697665725C7372635C6D313133305F58
:104FA0006770696F2E6300000010004000800240AF
:104FB0000080034070B5044609480D46844206D07F
:104FC0000848844203D0084908A004F097F9002D4E
:104FD00004D1054905A0491C04F090F9656070BD35
:104FE00000000240000003402102000041534D3107
:104FF0003178784253505C4D313133305F537464B3
:105000005065726970685F4472697665725C73722C
:10501000635C6D313133305F6770696F2E63000000
:10502000F8B51A4F15460C460646B84207D0184840
:10503000864204D0FF21AB3116A004F05FF9002CAA
:1050400004D1FF21AC3113A004F058F9012D06D092
:10505000002D04D0FF21AD310EA004F04FF9002245
:105060002146304600F034F817481849012D05D084
:10507000002D02D1BE4207D18460F8BDBE4201D1ED
:105080004460F8BD4C60F8BD8C60F8BD0000024083
:105090000000034041534D313178784253505C4D0C
:1050A000313133305F5374645065726970685F44A6
:1050B00072697665725C7372635C6D313133305F37
:1050C0006770696F2E63000000800240008003401B
:1050D000F8B5294F14460D460646B84206D0274873
:1050E000864203D0BE2126A004F008F9002D03D18A
:1050F000BF2123A004F002F9002C11D0012C0FD005
:10510000022C0DD0032C0BD0042C09D0052C07D079
:10511000062C05D0072C03D0C02119A004F0EEF80E
:10512000BE4213D1234A00202946C140C907C90FF6
:1051300008D0810089180B68DB08DB000B600B6866
:1051400023430B60401C2028EED3F8BD194A0020F1
:1051500080322946C140C907C90F08D0810089188B
:105160000B68DB08DB000B600B6823430B60401C03
:105170002028EED3F8BD00000000024000000340EC
:1051800041534D313178784253505C4D3131333099
:105190005F5374645065726970685F4472697665C4
:1051A000725C7372635C6D313133305F6770696F4D
:1051B0002E6300000010004010B594000B4600283C
:1051C00005D0012816D014480159D80020E0032149
:1051D0001846FBF725FE0A2250430F4A001D183AD5
:1051E00012598018012903D0022900D1C01D10BD19
:1051F000001D10BD08480C380259D80FC0184110C6
:105200000B246143511840084000181A06225043ED
:10521000001D081810BD0000F462010010B5094916
:10522000094804F0DDFA07482322001F4168514372
:10523000064A891841600448801C04F059FD00208A
:1052400010BD0000B000002010300000B80B0000BE
:1052500010B5044601F0D8FE0146204604F044F99A
:1052600010BD0000F7B51B2801DB022404E00A286A
:1052700001DB012400E00024124D134E2246029966
:105280000198FFF76BF8002801D0002C04D0641CB3
:10529000022CF3DD0020FEBDEA682968D21DD71775
:1052A0004B007F0F0120B918CA102C274743BF19A4
:1052B000FF18BF889742EEDA401C0928F5DD641C10
:1052C000DCE7000010010020245F010010B5812000
:1052D0000749800004F062FA05480088FE2804D1DE
:1052E000044A0549012004F07FFB002010BD0000A6
:1052F0007C000020FD6200007164000010B50849C8
:10530000084804F06DFA064C06482168801C04F039
:10531000EFFC05492088096A80B28847002010BD4B
:10532000AC0000200F300000B8470100F7B505467B
:1053300084B0002000900598144607197F1E00983D
:105340002DE02878002825D017490026085C029017
:10535000A00001900FE0154901980858815D02985E
:105360000818FF21FBF746FD114AA8194078515C47
:105370004840A855761CA642EDDB204603E02918DC
:1053800049782954401C8742F9DC05E029184978FE
:105390002954401C8742F9DC0098401C0090059974
:1053A0008842CEDB07B0F0BDDC6101003001002097
:1053B000DC60010070B50446002A26D00F2A23D2F3
:1053C000E50A3F235B01E406ED021840E40E554375
:1053D000504354431026B21ACE0AD2B2F6025643B4
:1053E00076190D461D405543C906C90E51430A1989
:1053F00028181F243111E402001121401840D20561
:10540000D20E0818801880B270BD084670BD00002A
:1054100010B51D4804F05EF91B48263004F05AF917
:105420001948413004F056F917485C3004F052F93D
:105430001648174C4168002902D0204604F058FC59
:1054400011488E3004F046F90F48C03004F042F99C
:10545000104804F03FF90E490F4A891E012004F05C
:1054600047FB0B490C4A491E012004F041FB0B4A43
:105470002146042004F03CFB0549094AC91C0320CD
:1054800004F036FB002010BD985C0100DC00002019
:1054900004700000A25D0100CD1D0000F554000065
:1054A000A95400000020704770B5104C0E482188A8
:1054B0000F4D405C01214208284604F099FB2088EA
:1054C00003214208284604F093FB284604F0F6FA2C
:1054D0002088401C80B2C11F2080F93901D10020F2
:1054E0002080002070BD0000B25D0100DC000020C3
:1054F0000670000010B50849084804F071F9064824
:10550000001F406801461439502903D8044980B26D
:10551000096A8847002010BDE000002004700000E8
:10552000B8470100F0B5044693B0401C0A90417999
:1055300000790B0203430A980793417A007A090223
:1055400001435818401E80B20590207AE27900028B
:1055500010430690227BE57A12022A4385186D1EBD
:10556000ADB20D956D462B816881E07BE71C00286C
:1055700004D0012805D0022805D006E0921E90B282
:1055800002E0500800E001200E90207C002804D0AA
:10559000012804D0022804D006E0012003E04808D6
:1055A00001E0491E88B2099001262046203004906F
:1055B000EFE07D4A002190680CE0099BB34202D1E4
:1055C000E37CA57C01E0637D257D1B022B430380EA
:1055D000801C491C7B7A3D7A1B022B438B42ECDA00
:1055E0007148217E8568002913D03046FBF702FC04
:1055F00000290ED1002006E0E17DA27D09021143C1
:105600002980401CAD1C797A3A7A09021143814203
:10561000F2DA65488168607E00280ED0059B079A03
:1056200000209A1A07E0E37DA57D1B022B4345006D
:105630004B53637E18188242F5DAE07CA27C0002AC
:1056400010430E9A520088525748806801900020FB
:1056500083E08000001926300C90FBF72FFC855D5D
:105660000146701E1090085C85422AD904994A7937
:105670000B79110219434843054615E0787A397AC7
:1056800000020843411B0ED481420CDC0F994900F3
:105690000A19517F127F0902114342000198121822
:1056A0006800101A01806D1C0C98FBF707FC815DE7
:1056B000049842790379100218434143A942DDDC82
:1056C00048E085422AD204984179027908021043C1
:1056D000454315E0787A397A00020843411B0ED41D
:1056E00081420CDC0F9949000A19517F127F09028F
:1056F00011434200019810186A00801A01806D1C45
:105700000C98FBF7DBFB1099415C04984279037914
:10571000100218434143A942DCDC1BE0291A04981B
:105720004279037910021843414313D14543787AF3
:10573000397A0002084385420CD84200019869007A
:105740001018411A0F9840000219507F127F000272
:10575000104308800F98401CC0B20F90617C8142BA
:1057600000D976E706990D98401A83B20F480122B6
:10577000056901990298A847A07B002803D00598E5
:105780006946801B02E069460889401C761C088136
:10579000B6B20A98417A027A08021043B04200D9A0
:1057A00007E713B0F0BD000000000020640D00000A
:1057B00010B57A4CCF20A16888472168002088471F
:1057C0002168C1208847216830208847A168ED20E2
:1057D000884721686420884721680320884721681A
:1057E00012208847216881208847A168E8208847DF
:1057F00021688520884721680120884721687A2010
:105800008847A168CB2088472168392088472168CC
:105810002C20884721680020884721683420884749
:10582000216802208847A168F72088472168202046
:105830008847A168EA2088472168002088472168B6
:1058400000208847A168C020884721682120884718
:10585000A168C1208847216811208847A168C52018
:10586000884721683120884721683C208847A16803
:10587000C720884721689F208847A168362088472D
:10588000216808208847A1683A2088472168552068
:105890008847A168B120884721680020884721688F
:1058A0001B208847A168B620884721680A208847BE
:1058B0002168A2208847A168F2208847216800203B
:1058C0008847A16826208847216801208847A16869
:1058D000E020884721680F208847216820208847DA
:1058E00021681D20884721680B20884721681020E7
:1058F000884721680A20884721684920884721680D
:10590000A920884721683B20884721680A208847CA
:1059100021681520884721680620884721680C20C7
:105920008847216806208847216800208847A168A9
:10593000E120884721680020884721681F20884788
:1059400021682220884721680420884721680F2089
:1059500088472168052088472168362088472168C4
:1059600046208847216846208847216805208847C7
:1059700021680B2088472168092088472168332047
:10598000884721683920884721680F208847A16807
:1059900011208847782000F014F810BDB8470100A6
:1059A00000B50B46020008D000F028FC102806D0F5
:1059B000506843600020536000BD012000BD1360AB
:1059C000F8E7002104E00222521CFF2AFCD3491C04
:1059D0008142F8D370470000F0B5074601200D461C
:1059E000800741698BB016464213114341614169FA
:1059F0000822114341611D4801240461C014009034
:105A0000022168460171447169461948FFF73AFA64
:105A100007A802F091FE68468583089700258584D3
:105A2000144FC58307A9384602F00AFE02A802F007
:105A300065FD60216846018144810496858202A942
:105A4000384602F04BFC0821384602F00BFD0121DC
:105A5000384602F0B9FA0121384602F09DFB0121D7
:105A6000384602F049FB0BB0F0BD0000C00000401A
:105A70000000024000A0004010B5282000F0ECF823
:105A800010BD10B5292000F0E7F810BDF8B5354974
:105A900033484860344ECD14002229463046FFF783
:105AA00017FBEC10002221463046FFF711FB0022C5
:105AB00010213046FFF70CFBA70000223946304684
:105AC000FFF706FB002261003046FFF701FB0122D1
:105AD00010213046FFF7A4FA012229463046FFF78D
:105AE0009FFA012221463046FFF79AFA01223946F1
:105AF0003046FFF795FA012251023046FFF790FA3F
:105B00001A4FE401002221463846FFF7E1FA01224C
:105B100021463846FFF784FA21463846FFF74AFA0D
:105B2000B560134C0120A16888477820FFF749FF32
:105B3000B560A16828208847FFF73AFEA1682020B9
:105B40008847A168292088472169012088470022C9
:105B50005F216420FFF740FF06A003F0CDF8F8BDF9
:105B60000000FFFF008002400000024000000340F0
:105B7000B84701004C43445F496E697420200D0A08
:105B80000000000001480068000C7047000002405F
:105B900010B5012809D04821362000F054F80448F7
:105BA000018842880280418010BD6821F4E700002E
:105BB00000000020F8B514460546001B86B21F46BB
:105BC000332000F049F8280A00F062F8E8B200F04B
:105BD0005FF8300A00F05CF8F0B200F059F8380ACB
:105BE00000F056F8F8B200F053F8372000F034F81F
:105BF000200A00F04DF8E0B200F04AF8F8BDF8B520
:105C000007461C4615460E462A2000F025F8380A9D
:105C100000F03EF8F8B200F03BF8280A00F038F83F
:105C2000E8B200F035F82B2000F016F8300A00F04A
:105C30002FF8F0B200F02CF8200A00F029F8E0B2BA
:105C400000F026F8F8BD10B50C4600F005F8204627
:105C500000F01EF810BD000070B501220949920243
:105C60008A608B154B6010234B604C158C60074D80
:105C7000054E6E6000040860AE604B604C604A6088
:105C800070BD000000000240EFFF00008080024075
:105C900030B50122084992024A608A154A601022F2
:105CA0004A604B158B60064D044C6C600004086024
:105CB000AC604A604B6030BD00000240EFFF000066
:105CC0008080024010B5104803F004FD0E486C308F
:105CD00003F000FD0C48413003F0FCFC0A487C3026
:105CE00003F0F8FC0848263003F0F4FC074A0849A2
:105CF000032003F0FDFE064806A21A21401C03F013
:105D0000D9FF002010BD000094480100CD520000D2
:105D100005020000687474703A2F2F7777772E6130
:105D20006C7068617363616C652E636F6D00000059
:105D30000020704710B50146014802F043FC10BD39
:105D400000A0004003490868C007FCD00248406832
:105D5000704700000051004000500040FF21013119
:105D600088054161816041607047000010B50021E5
:105D7000144803F0BDFF13480021801C03F0B8FF56
:105D800010480021C01C03F0B3FF0E480021001D85
:105D900003F0AEFF0B481E210C3003F0A9FF0948A9
:105DA00006210D3003F0A4FF06481E210E3003F03B
:105DB0009FFF04481921C9010F3003F099FF00200B
:105DC00010BD00000330000010B50021134803F09F
:105DD0008FFF12480021401C03F08AFF0F4800216A
:105DE000801C03F085FF0D480021C01C03F080FFDC
:105DF0000A4864210C3003F07BFF084864210D3011
:105E000003F076FF054864210E3003F071FF03486C
:105E100003490F3003F06CFF002010BD0330000079
:105E20006419000010B50021134803F061FF124807
:105E30000021401C03F05CFF0F480021801C03F090
:105E400057FF0D480021001D03F052FF0A48322180
:105E50000C3003F04DFF08482B210D3003F048FFB4
:105E6000054832210E3003F043FF034803490F3049
:105E700003F03EFF002010BD03300000941100002D
:105E800010B50021134803F033FF12480021401CD5
:105E900003F02EFF0F480021C01C03F029FF0D481E
:105EA0000021001D03F024FF0A4846210C3003F0B6
:105EB0001FFF08483A210D3003F01AFF054846211C
:105EC0000E3003F015FF034803490F3003F010FFB5
:105ED000002010BD033000008813000010B5002121
:105EE000144803F005FF13480021401C03F000FF95
:105EF00010480021801C03F0FBFE0E480021C01C4E
:105F000003F0F6FE0B480A210B3003F0F1FE0948BE
:105F100006210C3003F0ECFE06480A210D3003F098
:105F2000E7FE04481921C9010E3003F0E1FE00200C
:105F300010BD00000430000010B55B4803F0CAFB40
:105F40005948263003F0C6FB57485B3003F0C2FBCC
:105F50005548903003F0BEFB5348C53003F0BAFB00
:105F60005148FA3003F0B6FB504803F0B3FB4F48FA
:105F7000353003F0AFFB4D48693003F0ABFB4B48C5
:105F80008D3003F0A7FB4948B13003F0A3FB47482D
:105F9000D53003F09FFB464803F09CFB4448323069
:105FA00003F098FB4248643003F094FB404896307D
:105FB00003F090FB3E48C83003F08CFB3C48F730C0
:105FC00003F088FB3B4803F085FB3A482F3003F091
:105FD00081FB38485E3003F07DFB36488D3003F09E
:105FE00079FB35A20621364803F056FB344835A22A
:105FF0000621401C03F050FB314834A20421801CD0
:1060000003F04AFB33480168002902D0324803F00C
:106010006FFE2B49314A091F012003F069FD284911
:106020002F4A0A39012003F063FD25492D4A093919
:10603000022003F05DFD22492B4A0839022003F0BB
:1060400057FD1F49294AC91F022003F051FD1C4971
:10605000274A891F022003F04BFD1949254A491F91
:10606000022003F045FD1649234AC91E022003F011
:106070003FFD1349214A891E022003F039FD1049D2
:106080001F4A491E022003F033FD0D491D4AC91C59
:10609000042003F02DFD0A491B4A091D042003F0CA
:1060A00027FD002010BD00008B540100BA550100EF
:1060B000C1560100E7570100B2CDB5F5B5C60000E5
:1060C0000C300000CEFCB6A5B5C60000CCA8B5C605
:1060D00000000000AC000020047000006D1D0000F6
:1060E00011610000DD5E00006D5D0000815E00005A
:1060F000255E0000C95D00002D61000049610000BF
:1061000065610000FD5200001D5200000020704734
:1061100010B5034A0349044803F066FC002010BD93
:10612000B5610000F96100000131000010B50021E7
:10613000044803F0DDFD03480021401C03F0D8FDB6
:10614000002010BD0A30000010B50021044803F003
:10615000CFFD03480021801C03F0CAFD002010BDC4
:106160000930000010B50021044803F0C1FD0348C8
:106170000021401C03F0BCFD002010BD09300000D0
:1061800010B5034A0349044803F02EFC002010BD5B
:10619000395F00000D6100000130000010B5034AB6
:1061A0000349012003F020FC002010BDFD62000027
:1061B0007164000010B50C4803F08CFA0A482630D0
:1061C00003F088FA08485A3003F084FA074A08496D
:1061D000012003F08DFC0649064A491E012003F008
:1061E00087FC002010BD0000FC530100816100000D
:1061F000033100009D6100000020704700280BD093
:106200000168002900D001214068002800D0012049
:10621000014301D0202070471020704710B5034A79
:106220000349044803F0E0FB002010BD114A0000C0
:106230006D4C00000110000010B5034A03490448EA
:1062400003F0D2FB002010BD1116000071170000F2
:106250000120000010B5034A0349044803F0C4FBC1
:10626000002010BDB5610000F9610000013100009F
:1062700010B5034A0349044803F0B6FB002010BDE3
:10628000ED690000516A00000140000010B5034AAA
:106290000349044803F0A8FB002010BD1567000067
:1062A000B16700000150000010B5034A03490448DB
:1062B00003F09AFB002010BD2137000011380000C8
:1062C0000160000010B5034A0349044803F08CFB49
:1062D000002010BD11540000A55400000170000002
:1062E00010B5034A0349044803F07EFB002010BDAB
:1062F000911C0000D51C0000611200001CB546482E
:1063000003F0E8F94448263003F0E4F942485A30F3
:1063100003F0E0F940488E3003F0DCF93E48C2302B
:1063200003F0D8F93C48F63003F0D4F93B4803F0C9
:10633000D1F93A48343003F0CDF93848683003F0E9
:10634000C9F936489C3003F0C5F93448E13003F010
:10635000C1F93248F13003F0BDF9314803F0BAF920
:106360002F482F3003F0B6F92D485E3003F0B2F914
:106370002C4A0221012003F0BBFB2B4A0321012000
:1063800003F0B6FB294A0421012003F0B1FB284A9F
:106390000521012003F0ACFB264A0621012003F071
:1063A000A7FB254A0721012003F0A2FB234A08216D
:1063B000012003F09DFB224A0921012003F098FBF4
:1063C000204A0B21032003F093FB1F48FEF740FFF8
:1063D0001D48114AC179703A09018918C2780191A2
:1063E00000928378028819A11E4802F095FC1D488E
:1063F000FAF75DFD81B21B4A0A2003F05BFC1AA28A
:1064000005210F2003F048F90F480021801E41703C
:106410000121017000201CBDA8490100D24A0100E1
:10642000F24B01001D62000039620000556200005D
:10643000716200008D620000A9620000C562000068
:10644000E1620000756400008000002025303264A5
:10645000C4EA25303264D4C225303264C8D5202540
:10646000730000001C2200203A2020203A00000087
:10647000002070477CB51848FEF7EAFE164C042150
:1064800061560C2003F034FC61790D2003F030FCE0
:10649000A1790E2003F02CFCA51E6878401CC0B228
:1064A0006870152816D1E0790C4900014018E17890
:1064B00000910190A378228809A10F4802F02CFCDA
:1064C0000D48FAF7F4FC81B20B4A0A2003F0F2FB04
:1064D0000020687000207CBD800000203849010049
:1064E00025303264C4EA25303264D4C225303264A7
:1064F000C8D52025730000001C22002010B52449B7
:10650000244803F06DF922492248091D401C03F07C
:1065100067F91F491F480831801C03F061F91C49C5
:106520001C480C31C01C03F05BF9194919481031A3
:10653000001D03F055F9164916481431401D03F0AB
:106540004FF913487D22018812018A1812490A80E6
:106550004268531E0B2B00D88A708268531E1E2B74
:1065600000D8CA70C268182A00D80A7102693B2A8A
:1065700000D84A7140693B2800D88871064800F06D
:10658000EBFE064A0649012003F02EFA002010BD5A
:10659000C40000200660000080000020FD620000B2
:1065A0007164000070B504468078012500281FD072
:1065B000012806D0882112A002F0A0FEA0780028B1
:1065C00016D020781A498208920052181168800764
:1065D000C30EFF209840814360788007000E9840EA
:1065E000084310602078C006C00E8540114805E0C1
:1065F0002078C006C00E85400E488030056070BD12
:1066000041534D313178784253505C4D3131333004
:106610005F5374645065726970685F44726976652F
:10662000725C7372635C6D6973632E6300000000BB
:1066300000E400E000E100E00148006A704700006B
:106640000002004010B5314C6068002806D0642874
:1066500007D0A178002906D0401C05E00121A170D7
:10666000FAE70021A170401E0A216060FAF7C2FB20
:10667000C2B2227061702648130002F078FB0B074B
:1066800009181A1C1E20222426280C00352100E09F
:10669000362103F0CFFA61781D480B00401C02F050
:1066A00066FB0A181A2426282A2C2E30321D372180
:1066B000EFE73821EDE73921EBE73A21E9E73B2124
:1066C000E7E73C21E5E73D21E3E73E21E1E749211A
:1066D000DFE73F2100E0402103F0ACFA0C4861689D
:1066E000801C03F005FB002010BD4121F4E742218E
:1066F000F2E74321F0E74421EEE74521ECE74621AC
:10670000EAE74721E8E74821E6E70000B400002077
:106710000240000070B5204802F0DCFF1E48F63051
:1067200002F0D8FF1D4802F0D5FF1B48263002F0CA
:10673000D1FF19485A3002F0CDFF17488E3002F0D1
:10674000C9FF16486B3802F0C5FF154A15490120EC
:1067500003F0CEF9134C144A641F2146042003F0C1
:10676000C7F9FF21D2224B31204603F091FA651C74
:106770000E49284603F034F80C492046091D03F061
:106780002FF8FF212D31284603F0B2FAD2212046FE
:1067900003F0AEFA002070BD4E5901007B5A010093
:1067A0009D1D000007500000B5670000BC000020E0
:1067B0000020704710B51549154803F011F8144C26
:1067C0001249641C091F204603F00AF80F4A121FE1
:1067D0005168D22902D308465A301060FF200F308A
:1067E000814201D100231360814203D30846FF3860
:1067F0000F3810600846FF384B3801D13C2010603C
:106800002046116803F074FA002010BDC00000207B
:1068100002500000FEB50446401C4179027909028D
:106820001143427A007A150205436808029008185D
:10683000FAF7FFFC0190217AE27909021143227BE9
:10684000E07A17020743780800900818FAF7F1FC7D
:106850000646BD4201D9009800E00298FAF7E9FC2B
:106860000546E07DA17D00020843FF216931884291
:1068700002D30020A075E075E07DA17D00020843F1
:1068800087000D482946C059FAF784FB0199FAF7A9
:1068900028FBFAF710FD2076000A607607482946A3
:1068A000C059FAF777FB3146FAF71BFBFAF703FDFD
:1068B000A076000AE076FEBD947F0100F479010025
:1068C000F0B585B000287CD00446401C417902799F
:1068D00009021143427A037A10021843400808184B
:1068E00080B20390217AE27909021143227BE37A94
:1068F000100218434008081885B2607E227E01020B
:1069000003981143814201D90A4601E00246084634
:10691000E17EA67E0B023343AB4202D929461F46D5
:1069200001E02F461946637B022B04D0032B14D0C1
:10693000012B24D02DE0E37BA67B1B0233437E1A80
:10694000B446761C171AB6B27A1C92B2019602931C
:1069500000926646B3B2BAB20EE0E37BA67B1B029E
:106960003343121A7E1A521C761C92B2B6B20293AC
:10697000009201960B46024604F0E6FF09E0637CB4
:10698000267C1B023343174EF380174B9E683B4611
:10699000B047E07DA17D00020843FF2169318842B4
:1069A00002D30020A075E075E07CA17C00020843C2
:1069B0000C49C880627D2946039804F01FFE2046DA
:1069C00000E00DE0FFF726FFE07EA17E0302607E7F
:1069D0000B43217E02020A432946039804F064FF18
:1069E00005B0F0BD00000020640D000010B5134894
:1069F00002F070FE11485C3002F06CFE0F48263049
:106A000002F068FE0D48413002F064FE0B48803011
:106A100002F060FE0948903002F05CFE084A094925
:106A2000032003F065F80749074A091F012003F016
:106A30005FF806490020486010BD0000A35801001F
:106A40004566000005400000851D0000B4000020E0
:106A50000020704778B51D46059E04460023521E4F
:106A600030090CD0300900902B462046FFF7F2FF8A
:106A70000346E41805E02170521E5B1C641C002ACA
:106A8000F9DC3007000F0A2801D2303004E0002D75
:106A900001D0373000E057302070581C78BDFFB56A
:106AA000002581B00446002B01DA5E4200E01E465C
:106AB000521E1746092E14D9002B05DA0A2130463A
:106AC000FAF798F9434204E00A213046FAF792F9BE
:106AD00003463A4620460299FFF7E1FF054664194E
:106AE00010E0002B06DA571E04E002982070641CA8
:106AF0006D1C7F1E002FF8DC002B03DA2D20207088
:106B0000641C6D1C0A213046FAF774F9303121708B
:106B1000681C05B0F0BD0246002003E01370401C65
:106B2000491C521C0B78002BF8D17047FFB581B07F
:106B3000044604980025561E0F4609280FD90A213D
:106B4000FAF758F90346324639462046FFF7EEFF7A
:106B50000546641905E02770641C6D1C761E002E26
:106B6000F9DC0A210498FAF745F930312170681CE4
:106B700005B0F0BDF8B54549044608698A69C0B258
:106B8000896AD6B2CFB201218907096B404AC9068A
:106B9000C90E0A3151430091002808D0012804D0C1
:106BA000022804D0032804D004E00D4602E0384D4A
:106BB00000E0384D3548403001682846FAF71AF9A8
:106BC0002146802C22D0012080070818902C0AD062
:106BD000942C08D0982C06D0B42C18D0B82C28D0DF
:106BE000A02949D0FEE7017800294DD0002E06D01B
:106BF000012E06D0022E02D0032E04D005E001782B
:106C000015E0017811E001782EE02046F8BD1F481C
:106C10004030416B002937D0002F03D0012F03D023
:106C2000022FF2D1416B02E0416B009814E018484A
:106C300012E016484030816B002925D0002C15D079
:106C4000012C0DD0022C0ED0032C0FD0042C0FD011
:106C5000052CDAD1816B1048FAF7CCF80446D4E75A
:106C6000816B2846F8E7816B0A48F5E7816BDEE720
:106C7000816B7D200002EFE70178002904D00178C4
:106C80002846FAF7B7F8F8BD0020F8BD40000040EC
:106C9000001BB70010270000006CDC0200B50346A3
:106CA000012100F049F80021184600F04DF80121BB
:106CB000184600F049F800BD70B50D46044680281E
:106CC0001BD0902C19D0942C17D0982C15D0A02C18
:106CD00013D0A42C11D0A82C0FD0AC2C0DD0B42CD8
:106CE0000BD0B82C09D0BC2C07D0C02C05D0D02C90
:106CF00003D0E92103A002F001FB01208007201846
:106D0000057070BD41534D313178784253505C4D20
:106D1000313133305F5374645065726970685F4419
:106D200072697665725C7372635C6D313133305FAA
:106D30007263632E6300000001229207002901D0D4
:106D4000506170479061704701229207002901D07D
:106D5000506070479060704710B5040009D0012C56
:106D600007D0022C05D0032C03D0A72104A002F0E9
:106D7000C5FA104884610021C1610121C16110BDC3
:106D800041534D313178784253505C4D313133307D
:106D90005F5374645065726970685F4472697665A8
:106DA000725C7372635C6D313133305F7263632E7A
:106DB000630000004000004010B501246405002875
:106DC00007D0012803D02E2104A002F097FA012158
:106DD00000E000212046FFF7AFFF10BD41534D31C9
:106DE0003178784253505C4D313133305F537464A5
:106DF0005065726970685F4472697665725C73721F
:106E0000635C6D313133305F7274632E6300000058
:106E100010B50446800801D1002C03D1F72103A04E
:106E200002F06CFA0E48046110BD000041534D3170
:106E30003178784253505C4D313133305F53746454
:106E40005065726970685F4472697665725C7372CE
:106E5000635C6D313133305F7274632E6300000008
:106E600000F0004010B504460621884301D1002CF3
:106E700004D1FF21253103A002F040FA0E49600839
:106E8000086110BD41534D313178784253505C4D0B
:106E9000313133305F5374645065726970685F4498
:106EA00072697665725C7372635C6D313133305F29
:106EB0007274632E6300000000F0004070B504009F
:106EC00007D0202C05D0302C03D06B2106A002F077
:106ED00015FA124D2B6830208343234300F084F8C9
:106EE0002B6000F089F870BD41534D313178784204
:106EF00053505C4D313133305F5374645065726967
:106F000070685F4472697665725C7372635C6D3140
:106F10003133305F7274632E6300000000F0004074
:106F200010B50C4C00280BD0012803D07F210AA0FB
:106F300002F0E4F900F058F820680121084304E069
:106F400000F052F8206840084000206000F054F83B
:106F500010BD000000F0004041534D3131787842BF
:106F600053505C4D313133305F53746450657269F6
:106F700070685F4472697665725C7372635C6D31D0
:106F80003133305F7274632E6300000038B51348EC
:106F9000002404704470124881688022914381600B
:106FA0000120FFF709FF0020FFF788FF0320FFF70C
:106FB0002FFF052168460170012181704470FFF7A1
:106FC000F1FA0121022000F075F806480068C007B8
:106FD00002D10120FFF7A4FF38BD000068000020A7
:106FE0000002004000F000400248416801221143C5
:106FF0004160704700F0004002484168490849007C
:107000004160704700F00040014880687047000010
:1070100000F0004070B500250446012805D0022C80
:1070200003D0DC2104A002F069F910480069204275
:1070300000D00125284670BD41534D31317878424A
:1070400053505C4D313133305F5374645065726915
:1070500070685F4472697665725C7372635C6D31EF
:107060003133305F7274632E6300000000F0004023
:1070700070B50120FFF7CEFF01240B4D002806D08C
:10708000A81CFEF7E5F82C700220FFF7EBFE0220AB
:10709000FFF7C0FF002806D004A001F02DFE6C70A1
:1070A0000420FFF7DFFE70BD68000020616C617294
:1070B0006D0D0A0070B50E4604460621884301D1C5
:1070C000002C03D151210CA002F018F9174D002E0D
:1070D0000AD0012E03D0522107A002F00FF9FFF7CA
:1070E00083FF2868204303E0FFF77EFF2868A04362
:1070F0002860FFF781FF70BD41534D3131787842F0
:1071000053505C4D313133305F5374645065726954
:1071100070685F4472697665725C7372635C6D312E
:107120003133305F7274632E6300000000F0004062
:1071300000B50346FFF758FF02488360FFF75CFF86
:1071400000BD000000F00040F8B53048C269C168D9
:1071500005688069561A6D43471A52E02B488168CA
:10716000C85D00284CD0A8423AD13C46274804E0EC
:107170000A195278AA4202D1641CB442F8DB416970
:10718000BC421AD0002916DD214B5A888A4212DDF2
:10719000C268D0191219002800DA00201B88934217
:1071A00000DA1A46824206DD1A4F8BB2BF6892B2ED
:1071B00089B280B2B847274622E0002920DD144A70
:1071C00053888B421CDDC068C019002818DD128866
:1071D000904215DD0F4A89B2126880B290470FE0E5
:1071E0000101081AE90F4919491040182946F9F711
:1071F00017FE0649C2B2C8684969C019FDF75EF8B2
:107200007F1CB742AADDFAF70BFEF8BD480200204A
:1072100000000020640D0000F0B535220346534302
:10722000114A9B185B5C9B061DD4891E00238C466B
:10723000801E0E490022CC5C6146CE1804218F1AB4
:107240000125BD402C4201D0302100E020218518CD
:1072500035277D43044F521CED19A955052AEDDB56
:107260005B1C052BE5DBF0BD74260020185F0100D8
:10727000F7B5411C04D01D21851889018D4202DD1E
:107280000020C043FEBD002101241CE0561A234605
:10729000761EB340019E334214D04318DE17760F9A
:1072A000F7189C46FB100A4EFF089B199E461E7855
:1072B000FF006346DB1B0727FF1A2346BB401E4324
:1072C00073461E70491C9142E0DB2846FEBD00005B
:1072D00079330020FCB51D4A0123D0690090411E7E
:1072E00012699E46002401922DE00022C0185B42E4
:1072F00010D5714400290ADB009DA9420AD1691EFC
:1073000075466D42801EAE46062802D002E000217E
:10731000F6E70520352506466E430D4D7519AC463A
:107320006D5CAD06E2D40B4D0726B71A2D5D012624
:10733000BE40354000D002256646521C7554082ACE
:10734000D4DB019A641C9442CFDBFCBD1001002009
:10735000742600206D31002010B502F049F9FFF7C6
:10736000E7FE10BDF0B500238E46844606260D4884
:107370000022C45C7046C718B01A012585402C4213
:1073800001D0302000E020206546AD1835214D4366
:107390000549521C6D18E855072AEDDB5B1C072BCD
:1073A000E5DBF0BD1D5F010074260020F0B5414C07
:1073B0002168002922D0012922D0022922D01021BF
:1073C0000818810200220E250E460120AF1A03463E
:1073D000BB400B4204D004239F1A374BBB4059409B
:1073E000521C052AF2DB721834494A403449002302
:1073F00006469E40164207D0302606E00821DFE709
:107400000021DDE71821DBE72026CF18FF37A13761
:107410005B1C3E72052BEBDD530601D5302600E0E8
:107420002026284BDE73160601D5302600E02026E4
:107430001E74D30501D5302600E02026214B403BA9
:10744000DE76092305469D40154201D0302600E036
:1074500020260E25ED1A35277D436D185B1C2E72F4
:107460000E2BEFDDE469002305469D40154201D057
:10747000302600E02026E51A35277D436D18403D73
:107480005B1CEE74072BEFDD0D19FF353023A135A2
:107490002B70082305469D40154201D0302500E0A1
:1074A0002025E6187618FF3681365B1C75760E2B84
:1074B000F0DDF0BD1001002037050000125400007F
:1074C0007426002014280020F8B500210846FFF794
:1074D00049FF4A4C0021E069C01FFFF743FFE16903
:1074E0000020C91FFFF73EFFE0693521444C4143AE
:1074F00000220F1984462021A318FF336133D97469
:10750000352353431D19831835265E433619FF3E34
:10751000E971C13EF177BE18FF3E1B19C13EFF3332
:1075200031766133D9722B18203B521C1976082A08
:10753000E2DB00202218FF32A132117235224243D1
:107540001219401C11720928F4DB2C4E00206246EF
:1075500013181D19FF35A135297035256B431B19EB
:10756000FF3BA13B401C19700828F1DB00F0ACFA8E
:10757000002520E04019234F407B0621FFF74CFEF9
:1075800070682C214843C0194019417B0620FFF741
:1075900043FE002706E0C1194019497B407BFFF7F5
:1075A0003BFE7F1C71682C20414316480818017B64
:1075B000B942F0DC6D1C70682C2148431149401819
:1075C000027BAA42D6DCF169082009390EE0C20725
:1075D0000FD020233522424312199371C2070AD0DB
:1075E00020232218FF3221329377401C8842EEDD9F
:1075F000F8BD3023EEE73023F3E700001001002050
:1076000074260020245F0100F8B5BEA20121BE4807
:1076100002F050FBBC48BBA20121401C02F04AFB17
:10762000B948B8A20121801C02F044FBB74C0025E8
:10763000B548A560A580B3A20121401E02F03AFB27
:10764000A560A5802178B04CAF48641D2030651C32
:10765000A61CE71C0B0001F08AFB05044882C6FE4D
:10766000FD00ABA2052102F025FBABA202212046C2
:1076700002F020FBA9A20421284602F01BFBA8A2CD
:107680000421304602F016FBA6A20421384602F07F
:1076900011FB9D48A4A20221093002F00BFB9A487D
:1076A000A2A204210A3002F005FB9748A0A20421FF
:1076B0000B3002F0FFFA94489EA204210C3002F035
:1076C000F9FA91489CA202210D3002F0F3FA8E489B
:1076D0009AA202210E3002F0EDFA8B4898A2042102
:1076E0000F3002F0E7FA97A231E097A2052102F0ED
:1076F000E1FA89A20221204602F0DCFA94A20421D8
:10770000284602F0D7FA93A20421304602F0D2FABA
:1077100091A20421384602F0CDFA7B4882A20221D0
:10772000093002F0C7FA78488CA204210A3002F02E
:10773000C1FA75488AA204210B3002F0BBFA7248E4
:1077400088A204210C3002F0B5FA7BA238E00421B3
:107750006D48103002F0AEFA83A204218CE083A2BF
:10776000052102F0A7FA83A20221204602F0A2FA24
:1077700077A20421284602F09DFA76A20421304621
:1077800002F098FA74A20421384602F093FA5E4897
:1077900079A20221093002F08DFA5B486FA2042120
:1077A0000A3002F087FA58486DA204210B3002F02B
:1077B00081FA55486BA204210C3002F07BFA6FA2CB
:1077C000514802210D3002F075FA4F486CA2022197
:1077D0000E3002F06FFA4C486AA204210F3002F01A
:1077E00069FA69A2B3E750A20121204602F062FAC9
:1077F00066A20221284602F05DFA65A20221304607
:1078000002F058FA63A20221384602F053FA3E48C9
:107810003CA20121093002F04DFA3B485EA2022150
:107820000A3002F047FA38485CA202210B3002F01D
:1078300041FA35485AA202210C3002F03BFA324894
:1078400030A201210D3002F035FA2F48022155A255
:107850000E3001E014E014E002F02CFA2A4852A2A3
:1078600002210F3002F026FA274850A202211030E0
:1078700002F020FA4EA2022123481F3002F01AFA29
:10788000F8BD4CA20421204602F014FA4AA20421B9
:10789000284602F00FFA49A20421304602F00AFA03
:1078A00047A20421384602F005FA174845A20421F0
:1078B000093002F0FFF9144843A204210A3002F013
:1078C000F9F9114841A204210B3002F0F3F90E48F6
:1078D0003FA204210C3002F0EDF90B483DA2042137
:1078E0000D3002F0E7F908483BA204210E3002F007
:1078F000E1F9054839A204210F3002F0DBF938A282
:10790000052125E700000000038000007C02002024
:10791000B4F3D0B4000000002C000000414243004A
:1079200044454600474849002E0000004A4B4C00A1
:107930004D4E4F00505152003F0000005354000084
:107940005556570058595A00D0A1D0B40000000035
:107950006162630064656600676869006A6B6C0059
:107960006D6E6F007071720073706100D6D0CEC4FE
:1079700000000000610000006200000063000000E1
:10798000737400007576770078797A003100000012
:107990003200000033000000340000003500000019
:1079A00036000000370000003800000039000000F9
:1079B000300000002122230024252600272829004A
:1079C0002A2E2C002D2B3D003A3B2F003C3E3F0041
:1079D000405B5D005C5E5F00607B7D007C7E000044
:1079E000A3ACA1A300000000F1B5354882B000248B
:1079F000C66962E000255DE03520294641433148F3
:107A000008180090075DB80653D40298030001F0EF
:107A1000AEF90705090D1017213A440020466840C9
:107A2000C00700E0E007C017401C24E003212846FF
:107A300001E060190321F9F7F3F9002932D019E0C8
:107A400003212846F9F7ECF9E10F091949104840DC
:107A5000C0070DE02046684303210190F9F7E0F9E3
:107A60000198C20F1018420801985200801A081895
:107A7000002817D000207908022249001740012F62
:107A800012D9012211E02046684301900321F9F741
:107A9000C7F901984140C807EAE7601901902046FC
:107AA0006843F3E70120E6E70022424000981143D3
:107AB00001556D1CB5429FDB641CB4429ADBFEBDD0
:107AC0001001002074260020F0B51F4F78680628AA
:107AD00038DD000300211125044601226E1A1346E9
:107AE000B340034204D005235E1A184BB3405840FC
:107AF000491C0629F2DB2018F9698646144A002041
:107B00008C464300C5183523002143439C186E184A
:107B10000123B3407646334201D0302600E02026D0
:107B200067467B18E718203F7E7535277B439B18F7
:107B30001F18084B491CFB185E760329E7DB401C25
:107B40000628DEDBF0BD000010010020251F00002C
:107B500074260020A0FDFFFFF0B58BB0411C0791FB
:107B6000074680790A79030213433A7AFC791502B1
:107B700025434A7F0C7F1202224309924C7A097AEC
:107B800024020C43F81CA6466108AC46447A057AE8
:107B900024022C4364086444A5B20646447D307D2B
:107BA00024025B1820439CB2002A55D05A2A5DD08B
:107BB000B42A62D013466A46FF3B14800F3B5580BF
:107BC00046D04008081AF9F729FB09993E4A89006E
:107BD000089002915158F9F7DDF900902046F9F725
:107BE00028FB0099F9F77DF9F9F765FB374A029907
:107BF00084B251580898F9F7CDF900902846F9F762
:107C000018FB0099F9F76DF9F9F755FB85B2347750
:107C1000200A7077384621300570290A4170B87DF6
:107C2000022832D0012811D1684604804580079887
:107C3000417E027E080226491043C880707D317D56
:107C4000000208434108009803F03EFF0BB0F0BD6E
:107C50004008081A281AD9E769460C804D807146F9
:107C6000081AC10F0818401020180CE06A46400896
:107C70001480081A55804019C8E76A4640081480E5
:107C8000081A5580201A84B2C1E7707D317D000248
:107C900008434008211A281A83B28AB2787D397DB8
:107CA00000020843717E347E090221430091019055
:107CB00070793479010207982143447905792002CB
:107CC000284303F0C5FBC1E750740100AC6E01000E
:107CD00000000020FEB5817943790E021E43037A2D
:107CE000C5791B022B430093857A477A2A023A43CF
:107CF000457E077E2D023D43551B427F077F1202C2
:107D00003A430446C11C437BC77EA07E3F02074323
:107D10000297487A097A00020843C71B0190002B9A
:107D200036D0B9B2104648436421F9F779F8009A81
:107D300001998918091A0298081A81B2E80F4019A6
:107D40004010801980B2A077030AE37722462032E0
:107D500011700B0A5370E27C022A28D0012A16D136
:107D6000627D237D12021A43144BDA80E27EA37EE9
:107D700012021A434B1ED21893B2627E247E120264
:107D80002243441E12190E4C92B2A468A047FEBDB5
:107D9000A9B2104648436421F9F742F8F90FC9190E
:107DA0004A103018009980B2511889B2CBE7E27DB1
:107DB000A37D12021A4303F09BFCFEBD00000020CD
:107DC000640D00007FB5012080074169C212114394
:107DD0004161684600F0B0FC5F20694608807D2064
:107DE000C00001900024104D0C814C80284600F00A
:107DF00027FC1021284600F08BFB0121284600F0CB
:107E000033F901221146284600F012FA0320694690
:107E10000873012088734C7303A8FEF7C3FB01218C
:107E2000284600F069F97FBD00C0004010B5002170
:107E30000120114A80074261104B04221A60104A47
:107E40009368FF241234A34393600E4A0263C21363
:107E500003E00B46491C934202D2436B012BF8D13D
:107E60007D20C000F8F728FD044801214038016159
:107E700000224261416110BD1808000080000040EE
:107E8000000200401600008030B5254D04468BB03E
:107E9000102208212846FCF7C5FF2020FEF7FEFE31
:107EA000022208212846FDF713F902220421284660
:107EB000FDF70EF9684600F00DFF0020102101903B
:107EC0000090039402910990089003210690059078
:107ED000090260200791049001214020FEF72CFF49
:107EE0000120FEF739FF20219420FEF7E5FE0D4C1E
:107EF000204600F0A3FE6946204600F09BFDFF20CF
:107F00000004A060E8006060052101220905204608
:107F100000F044FD0121204600F002FD0BB030BD11
:107F2000000002400030004030B5254D04468BB0C3
:107F3000102201212846FCF775FF2020FEF7AEFE37
:107F4000032201212846FDF7C3F803220221284617
:107F5000FDF7BEF8684600F0BDFE0020102102913A
:107F60000190009003940321099008900902069063
:107F700005900791602001210490C806FEF7DCFE01
:107F80000120FEF7E9FE20219820FEF795FE0D4C1A
:107F9000204600F053FE6946204600F04BFDFF20CE
:107FA0000004A060E8006060052101220905204668
:107FB00000F0F4FC0121204600F0B2FC0BB030BD13
:107FC000000002400060004070B5044613480D46B2
:107FD000844210D0124884420DD0124884420AD004
:107FE0001148844207D01148844204D0FF21DB317C
:107FF0000FA001F083F9002D0AD0012D04D0FF213C
:10800000DC310BA001F07AF920688021084302E0FE
:10801000206814490840206070BD000000A00040A6
:1080200000A8004000B0004000C0004000C8004070
:1080300041534D313178784253505C4D31313330BA
:108040005F5374645065726970685F4472697665E5
:10805000725C7372635C6D313133305F74696D2EA5
:10806000630000007FFF000070B504460F480D4616
:1080700084420FD00E4884420CD00E48844209D06E
:108080000D48844206D00D48844203D00C490DA00F
:1080900001F034F9280A01D1002D04D1084909A0C2
:1080A000491C01F02BF9E843208270BD00A000407C
:1080B00000A8004000B0004000C0004000C80040E0
:1080C0007709000041534D313178784253505C4D6F
:1080D000313133305F5374645065726970685F4446
:1080E00072697665725C7372635C6D313133305FD7
:1080F00074696D2E6300000070B5044612480D4689
:10810000844210D0114884420DD0114884420AD0D4
:108110001048844207D01048844204D011214901FC
:108120000EA001F0EBF8002D09D0012D03D0184965
:108130000AA001F0E3F820680121084302E020686A
:1081400014490840206070BD00A0004000A8004015
:1081500000B0004000C0004000C8004041534D3115
:108160003178784253505C4D313133305F53746411
:108170005065726970685F4472697665725C73728B
:10818000635C6D313133305F74696D2E63000000C4
:1081900021020000FEFF000070B5044612480D46A3
:1081A00084420CD01148844209D01148844206D040
:1081B0001048844203D0104910A001F09FF84034C9
:1081C000002D0BD0012D04D00B490CA0491C01F04F
:1081D00095F8A0880121C903084302E0A088400463
:1081E000400CA08070BD000000A0004000B0004026
:1081F00000C0004000C800408502000041534D31DE
:108200003178784253505C4D313133305F53746470
:108210005065726970685F4472697665725C7372EA
:10822000635C6D313133305F74696D2E6300000023
:1082300070B50446164816460D4684420FD01548C0
:1082400084420CD01448844209D01448844206D099
:108250001348844203D0134913A001F04FF8280AB1
:1082600001D1002D04D10F490FA0491C01F046F89F
:10827000002E09D0012E04D00A490BA0891C01F060
:108280003DF8A089284301E0A089A843A08170BDE2
:1082900000A0004000A8004000B0004000C0004026
:1082A00000C80040B908000041534D313178784290
:1082B00053505C4D313133305F5374645065726993
:1082C00070685F4472697665725C7372635C6D316D
:1082D0003133305F74696D2E63000000F8B50446D9
:1082E0004C480D4684420FD04B4884420CD04B483A
:1082F000844209D04A48844206D04A48844203D086
:1083000049494AA000F0FAFF288800280ED010281A
:108310000CD020280AD0302808D0602806D0702839
:1083200004D02D21090141A000F0E8FF6888002851
:1083300006D0012804D03C493CA0891C00F0DEFF97
:10834000A889002806D0022804D0374937A0C91CC4
:1083500000F0D4FF208C400840002084218CA688A7
:10836000208B7022904380082A88800002430220DC
:1083700081430092A8896F880843074325488442B7
:1083800008D02648844205D02548844202D025489A
:10839000844238D1A888002806D0042804D0224975
:1083A00022A01F3100F0AAFFE889002806D0082883
:1083B00004D01D491DA0203100F0A0FF688AC11F14
:1083C000FF39FA3906D0002804D02F21090117A05F
:1083D00000F094FF288AC11FF93906D0002804D084
:1083E000114912A0223100F089FF08208743E88953
:1083F00004213843AF888843074319480640288A38
:1084000030436E8A0643A680009820832889A08680
:108410002784F8BD00A0004000A8004000B0004044
:1084200000C0004000C80040CF02000041534D3161
:108430003178784253505C4D313133305F5374643E
:108440005065726970685F4472697665725C7372B8
:10845000635C6D313133305F74696D2E63000000F1
:10846000FFFC000070B5044611480D4684420FD051
:10847000104884420CD01048844209D00F488442EE
:1084800006D00F48844203D00E490FA000F036FFFB
:10849000082D06D0002D04D00A490BA0491C00F07D
:1084A0002DFF208B082188432843208370BD0000C6
:1084B00000A0004000A8004000B0004000C0004004
:1084C00000C800401105000041534D313178784219
:1084D00053505C4D313133305F5374645065726971
:1084E00070685F4472697665725C7372635C6D314B
:1084F0003133305F74696D2E63000000002101800C
:108500004180818081608181C18101824182704787
:1085100070B5054618480C4685420FD0174885426D
:108520000CD01748854209D01648854206D0164817
:10853000854203D0154916A000F0E0FE002C12D0B1
:10854000102C10D0202C0ED0302C0CD0402C0AD067
:10855000502C08D0602C06D0702C04D00B490CA0F5
:10856000491C00F0CBFEA88870218843A880A88809
:108570002043A88070BD000000A0004000A800407B
:1085800000B0004000C0004000C80040D60A000013
:1085900041534D313178784253505C4D3131333055
:1085A0005F5374645065726970685F447269766580
:1085B000725C7372635C6D313133305F74696D2E40
:1085C0006300000070B504460A480D4684420FD08F
:1085D000094884420CD00948844209D008488442A2
:1085E00006D00848844203D0074908A000F086FE60
:1085F000A58670BD00A0004000A8004000B000406B
:1086000000C0004000C800405104000041534D31FB
:108610003178784253505C4D313133305F5374645C
:108620005065726970685F4472697665725C7372D6
:10863000635C6D313133305F74696D2E630000000F
:10864000F8B52A4E2A4F0D460446B0420ED0BC4221
:108650000CD02848844209D02748844206D02748B5
:10866000844203D0F22126A000F048FE688800284A
:108670000BD0102809D0202807D0402805D060282A
:1086800003D0F3211EA000F039FE2889002809D06C
:10869000C11FF93906D0FF39013903D0F42118A0E0
:1086A00000F02CFE2068B44280B201D0BC4203D15D
:1086B00070218843698808431E490840298901437D
:1086C0002160A888A08528882085B44208D0094860
:1086D000844205D00848844202D00848844201D12F
:1086E000A87A20860120A082F8BD000000A00040EA
:1086F00000A8004000B0004000C0004000C800409A
:1087000041534D313178784253505C4D31313330E3
:108710005F5374645065726970685F44726976650E
:10872000725C7372635C6D313133305F74696D2ECE
:1087300063000000FFFC00000021C94341600021EC
:10874000018001814180817270470000F0B50023F3
:1087500001222F49D2028A600D158D6096018E602C
:108760001C46070601D54D6000E08D6000BF00BFCC
:1087700000BF00BF00BF00BF00BF00BF8A6000BFD6
:1087800000BF00BF00BF00BF00BF00BF00BF40066A
:10879000000E4A60641CE4B2082CE2D300BF00BFA4
:1087A00000BF00BF00BF00BF00BF00BF00BF00BFD1
:1087B00000BF00BF8A6000BF00BF00BF00BF00BF96
:1087C00000BF00BF00BF00BF00BF00BF00BF4A60C6
:1087D0008A6000200124A4035B041B0C4A6000BFD4
:1087E00000BF00BF00BF00BF00BF00BF00BF00BF91
:1087F00000BF00BF00BF0D68254201D05B1C9BB2CB
:108800008A60401CC0B21028E6D318094E60F0BD43
:108810000000034070B50125244C6D040022294658
:108820002046FCF755FC012229462046FCF7F8FBC0
:10883000AD10002229462046FCF74AFC01222946B9
:108840002046FCF7EDFB6D10002229462046FCF780
:108850003FFC002229462046FCF7E2FB25150022BA
:1088600029462046FCF734FC012229462046FCF725
:10887000D7FBE514002229462046FCF729FC0122FB
:1088800029462046FCF7CCFB0948016809484A6D97
:1088900002608A6D4260CA6D82600A6EC2604A6E72
:1088A00002618A6E4261C96E816170BD0000034041
:1088B00020000020002200207FB5012080074169B0
:1088C0008212114341616846FFF736FF5F20694617
:1088D00008807D20000101900024104D0C814C8007
:1088E0002846FFF7ADFE10212846FFF711FE0121B3
:1088F0002846FFF7B9FB012211462846FFF798FCEE
:10890000042069460873012088734C7303A8FDF79F
:1089100049FE01212846FFF7EFFB7FBD00C800405C
:1089200070B504460D480D46844209D00C48844277
:1089300006D00C48844203D0DF210BA000F0DEFCFF
:108940000126002D07D0012D03D0E02106A000F064
:10895000D5FC666270BDA66270BD000000200040BC
:10896000003000400060004041534D313178784282
:1089700053505C4D313133305F53746450657269CC
:1089800070685F4472697665725C7372635C6D31A6
:108990003133305F75736172742E630070B50446B5
:1089A000134816460D4684420AD01248844207D026
:1089B0001148844204D0FF213D3110A000F09EFCFC
:1089C000A800800D02D01A48054204D0FF213E3194
:1089D0000AA000F093FC002E08D0012E04D0FF2145
:1089E0003F3106A000F08AFC656470BDA56470BDCF
:1089F00000200040003000400060004041534D31F5
:108A00003178784253505C4D313133305F53746468
:108A10005065726970685F4472697665725C7372E2
:108A2000635C6D313133305F75736172742E630036
:108A3000FFFF0FC0FEB5054600206E4E6E4F0C4680
:108A40000190B54208D0BD4206D06C48854203D0A3
:108A50008F216BA000F052FC2069002809D020284B
:108A600007D0402805D0602803D0912164A000F0F1
:108A700045FC6069002805D0082803D0922160A039
:108A800000F03CFCA06900280BD0062809D0022881
:108A900007D0822805D0862803D0932158A000F063
:108AA0002DFCE069C11FF9390AD0FF39013907D01F
:108AB00003210902884203D0942151A000F01EFC3A
:108AC000206A00280ED00121890388420AD049007B
:108AD000884207D003218903884203D0952148A00A
:108AE00000F00CFC606A002807D00121C90288420E
:108AF00003D0962142A000F001FC2068002812D08B
:108B00000121090488420ED0490088420BD003217C
:108B10000904884207D001218904884203D09721A3
:108B200037A000F0EBFB6068002812D00121090596
:108B300088420ED0490088420BD0032109058842A3
:108B400007D001218905884203D098212CA000F08C
:108B5000D5FBA068102805D0002803D0992128A0B3
:108B600000F0CCFB206A00280AD0B54208D0BD42F4
:108B700006D02248854203D09E2121A000F0BEFBF2
:108B800003208007A860286B2A4908400090B5425E
:108B900001D1902007E0BD4201D1942003E01748A5
:108BA000854203D19820FDF7E5FF01900198E16827
:108BB0008000F8F71FF9810680098A0C8001810284
:108BC00063692069114318430843A1690843A168F8
:108BD0000843009908432863296A1748014005CCD7
:108BE000A369104362691A431043E26910430843C2
:108BF0002862FEBD002000400030004000600040C0
:108C000041534D313178784253505C4D31313330DE
:108C10005F5374645065726970685F447269766509
:108C2000725C7372635C6D313133305F7573617286
:108C3000742E630001C00000FF3488FF70B5044645
:108C40001448844212D0144D144EAC4205D0B442A4
:108C500015D06E2112A000F051FBAC420DD10021C5
:108C60004020FEF771F80121402010E00021202073
:108C7000FEF76AF80121202009E0B44209D101245D
:108C8000E40600212046FEF75FF801212046FEF7AA
:108C90005BF870BD002000400030004000600040E4
:108CA00041534D313178784253505C4D313133303E
:108CB0005F5374645065726970685F447269766569
:108CC000725C7372635C6D313133305F75736172E6
:108CD000742E63000021016010228260E122416055
:108CE0005202C2606022416102618161D200016270
:108CF000C2614162704700000FB410B503A9044B74
:108D0000044A029800F096F810BC08BC04B018475A
:108D1000A1090000940200200FB410B504A9074B6C
:108D200002AA039800F086F8044602A9002000F089
:108D3000BBFA204610BC08BC04B01847A99200003A
:108D40002021020C01D010211046020A01D0104649
:108D50000839020901D01046091F820801D01046C7
:108D6000891E420801D0881E7047081A704730B427
:108D70007446641E2578641CAB4200D21D46635DB8
:108D80005B00E31830BC184730B5002805D0164CFE
:108D9000021F20680023014605E0084630BD9042CE
:108DA00003D8034640680028F9D1002B00D0596849
:108DB000002B0AD01C68D51AA54204D11268A41849
:108DC0001A461C6002E05A6000E02260002807D0CA
:108DD0001468851AA54203D10568641914604068B7
:108DE0005060184630BD000098020020F1B50E4CCE
:108DF0000F480C4E001B0D4FC508ED000022114618
:108E0000009801F08DFE002803D13068002801D0C1
:108E10000020F8BD3C6000202560606001203060CB
:108E2000ECE700009C0200207C3600209802002025
:108E300078760020FFB591B00F460546002606E083
:108E400025280AD0149A139990476D1C761C28780F
:108E50000028F5D1304615B0F0BD00240094012162
:108E6000F34A029400E004436D1C2B780846203B33
:108E700098401042F7D128782A280ED0022128786D
:108E80000246303A092A15D8009A0A235A43303A42
:108E900080180C436D1C0090F1E701CF0090002872
:108EA00005DA01204003044300984042009002206C
:108EB00004436D1C28782E2815D1042004436878BB
:108EC0006D1C2A280AD101CF6D1C02900BE002997B
:108ED0000A225143303940186D1C0290287801460F
:108EE00030390929F3D928786C2810D006DC4C28B1
:108EF0001AD068280ED06A2817D104E0742813D03D
:108F00007A2812D110E00120400504430CE0012131
:108F1000090501E0032109050C436978814203D169
:108F20000120000524186D1C6D1C287803906E2804
:108F30001ED00CDC632831D004DC00288AD05828ED
:108F400011D1B2E064287BD069280CD178E0732875
:108F50002DD004DC6F2870D0702804D1A7E07528CC
:108F60006CD078286BD0149A13999047761C62E0E5
:108F70006002400F022807D003280AD0042838686E
:108F80000AD006603F1D56E03868F1170660416060
:108F9000F8E738680680F5E70670F3E73878694641
:108FA00008740020487404A80390012003E0386886
:108FB00003900020C0433F1D61070FD5002101E051
:108FC0000199491C029A0191914213DA8142F7DB1F
:108FD000019A0399895C0029F2D10BE0002101E09C
:108FE0000199491C01918142FADB019A0399895C3C
:108FF0000029F5D101990098139A401A0090214652
:10900000149B00F03BF901998019461807E003987A
:1090100003990078491C0391149A13999047019879
:10902000401E0190401CF2D12146149B139A0098D7
:1090300000F014F986196D1C09E741E033E034E0D3
:109040000A200021049005916002410F022905D0F9
:1090500001CFC2179446032905D007E0FF1DFF0882
:10906000FF0003CF06E000B2C2179446042902D1E4
:1090700040B2C1178C4600226146944506DA0A4682
:109080000021404291418C462D2102E0210504D56A
:109090002B216A461176012103E0E10701D020214E
:1090A000F7E7019154E00A200BE0102009E01020BE
:1090B000049000210420044308200591029003E05D
:1090C00008200021059104906002410F022905D07B
:1090D00001CF00229446032906D006E0FF1DFF08B9
:1090E000FF0003CF8C4603E080B2042900D1C0B258
:1090F0000021019121072BD50399702906D0049AEC
:109100001021059B4A401A4305D00EE040216A46D3
:109110001176012108E06146014306D030216A46FC
:1091200011760399517602210191049A0821059B39
:109130004A401A430CD16146014301D1610707D56A
:1091400030216A461176012101910299491E02914E
:109150000399582904D037A103910FA90F910DE06D
:1091600039A1F9E76146059B049AF8F721F9039BB9
:109170008C469B5C0F9A521E0F92137061460143FE
:10918000F0D10F9807A9081A20300390600704D582
:10919000012000048443029801E001200290039919
:1091A000884201DD401A00E0002041180290019839
:1091B00009180098401A0090E00306D42146149B39
:1091C000139A009800F05AF886190020049008E0DD
:1091D00006A9085C149A139990470498401C761CC1
:1091E000049001998842F3DBE0030CD52146149BDF
:1091F000139A009800F042F8861904E0149A30207F
:1092000013999047761C0299481E02900029F5DCBC
:1092100008E00F980F990078491C0F91149A139940
:109220009047761C0399481E03900029F1DCFBE669
:10923000092801003031323334353637383961622C
:1092400063646566000000003031323334353637F0
:10925000383941424344454600000000F8B5044611
:1092600000251E461746880404D405E03946202010
:10927000B0476D1C641EF9D52846F8BDFFB50446FD
:10928000002581B01E46C80301D5302700E0202705
:10929000880404D505E038460399B0476D1C641E68
:1092A000F9D5284605B0F0BD0A68531C0B60107054
:1092B000704700001CB500216A460091918001A909
:1092C00000F07CFA009A002A14D0684681880029B0
:1092D00010D0002004E0135C002B03D0401C80B2AF
:1092E0008842F8D3002805D00121034800F0D4F9C2
:1092F00001F0EEFC1CBD0000028000000A460146A1
:1093000001A0FFF7F9FCFEE757726F6E67207061EE
:1093100072616D65746572732076616C75653A2053
:1093200066696C65202573206F6E206C696E652000
:1093300025640D0A00000000F8B531483149006885
:109340000968314A401A0121C902411800200091E0
:109350000B5C1354401C3828FAD32C482A4C816BE0
:10936000A161C06BE061FCF7F9FCFDF765F9C04352
:10937000E060FCF7E7FC60612269A168244D891870
:10938000A269AC468B18E16800220818E16944180C
:109390001D483030014618C010391446083843685B
:1093A0000E681D016244AD199E1875404F685E0934
:1093B000F61975400668641CAD1905608F682E01AA
:1093C000F619AF187E40CF686D09ED196E40F3189D
:1093D0004360082CE3D30C490E4AC868904208D178
:1093E0000020820053181C6B009BD218126B944211
:1093F00001D00120F8BD401C0228F2D30020F8BDA6
:10940000784801007C4801008C220020C07F0020A9
:10941000B979379ECFEEFFFF7CB50E46054600F0CA
:1094200045FB02F061FC0446016810480160616878
:109430004160002020606060002D02D03046A847C7
:109440000646002E05D000221146104601F0A6FB6C
:109450007CBD00F02BFB0420694608802046891C57
:10946000F7F736FD684603F073F87CBD8C020020E8
:10947000F8B5864600200546034605E07246D25CF4
:10948000002A04D05B1CDBB28B42F7D3F8BD002B63
:10949000FCD0FF219931002200910C2716467E4313
:1094A0000021104F0C46F619B4460CE07646365DA6
:1094B0002146002E09D067467F683F5D002F04D00B
:1094C000BE4202D14C1C9C42F0D98D4201D20D46C5
:1094D0001046994201D31046F8BD0099521C8A42A9
:1094E000DBD3F8BD60C70100F0B50446E120C00140
:1094F000081889B03C21F7F77DFC03913C21F7F770
:1095000079FC02911821F7F775FC01912849401860
:10951000FF2100909131401C48432649F7F76AFC2F
:1095200080B264210490F7F765FC0246FF2104989D
:109530006E314843049989084018851AFF219131FA
:109540000498F7F757FC29180098461A761C0498D7
:1095500001F00EFB002802D0174F761C01E0164FD9
:1095600030370125A80038581449F7F743FCB042BA
:1095700002D26D1C0C2DF5DBADB2A800C0198038ED
:10958000C06F0E49F7F736FC0399A171029961711A
:1095900001992171301AA570E0700498208000981C
:1095A0000721401EF7F726FC491CE17109B0F0BD08
:1095B000A7FA0A00B13A02000448010080510100F4
:1095C00000487047EC000020002804D0FF219931AA
:1095D000884201D3002070470C21484301494018BC
:1095E0008068704760C70100004870470401002090
:1095F000F0B585B0048881780491C1780391042185
:10960000415689B2029141790191807900901E48BA
:10961000201887B2204601F0ABFA002801D01B4E7B
:1096200001E01A4E3036002508E0641EA4B2204640
:1096300001F09EFA002801D06D1CADB212484042E4
:109640008442F2D812480499474389001148891985
:1096500080394543C96F781908180E4A0399514358
:10966000091850420918E12202981201504341188A
:1096700001983C2250434018009905B04018E12160
:10968000C901401AF0BD00004EF8FFFF0448010078
:109690008033E101805101007CB515460E4602F091
:1096A00036FC040011D02A463146206801F0FEFD48
:1096B000050008D169460880891C2068F7F708FC76
:1096C000684602F045FF28467CBD01487CBD00008D
:1096D0000500030008B5694601F028FE08BD00003A
:1096E0000FB430B51348A3B0007800281DD012483D
:1096F0000068002819D011480068002815D027AC50
:1097000024220FA119A8269DF7F79EFB23462A467F
:109710006421684601F03AFD642803D319A801F0DA
:10972000F9FAFEE7684601F0F5FA23B030BC08BC50
:1097300004B0184764480100EC000020FC47010019
:10974000737464696F2E633A20696E637265617326
:1097500065204D41585F535452494E475F53495A13
:10976000450A0D007CB50D4602F0D1FB040010D077
:109770002946206801F04EFE050008D169460880A0
:10978000891C2068F7F7A4FB684602F0E1FE284632
:109790007CBD01487CBD00000500030010B50C46EF
:1097A00002F0B5FB002804D00068214602F0C4FB9B
:1097B00010BD014810BD00000500030070B514463F
:1097C0000D4602F0A4FB002805D000682246294679
:1097D00002F0D0FB70BD014870BD00000500030021
:1097E00010B50C4602F093FB002804D00068214617
:1097F00002F0DEFB10BD014810BD000005000300B3
:1098000010B500F003F802F05BFC10BD70B52E4CF3
:10981000206800281CD02D480078012807D1FFF7C8
:10982000CFFE05462A4821680068884728602948F5
:10983000007801280CD1FFF7D7FE054601202168EA
:10984000400288472860000002D123A0FFF748FFAC
:10985000274C012120680905884203D225A0FFF783
:109860003FFFFEE72F4801682068F7F7C3FA002999
:1098700004D025212CA0FFF733FFFEE736492068EE
:109880000968884203D335A0FFF72AFFFEE702F0FC
:1098900097FC02F0F3FB3E48FFF722FF3D48FFF73D
:1098A0001FFF3DA0FFF71CFF41A0FFF719FFFFF7C7
:1098B00043FD002806D043A0FFF712FF3448FFF70E
:1098C0000FFF70BD44A0F7E7E847010064480100BE
:1098D000684801006C4801005152636F646542752D
:1098E00066206D656D6F7279206E756C6C0D0A0067
:1098F000784801007265736F7572652062617365E7
:109900002061646472206D757374206D6F726520C0
:109910007468616E20307830303130303030300D46
:109920000A00000074480100464C4153485F52450C
:10993000535F424153455F414444522025632046D2
:109940004C4153485F534543544F525F53495A4526
:1099500020213D20300D0A00704801007265736FB0
:1099600075726520626173652061646472206D7533
:109970007374206C657373207468616E20666C610B
:10998000736820746F74616C2073697A650D0A00C6
:1099900080DA0100D0DA01002A446174653A20209F
:1099A000202020323032312D322D32350D0A000088
:1099B0002A56657273696F6E733A2056312E312EB6
:1099C000350D0A002A5374617475733A202020659E
:1099D00072726F720D0A00002A5374617475733AC3
:1099E0002020206F6B0D0A00F7B5244F82B0164679
:1099F000384602F077FA002808D000681630F7F7EA
:109A00005DFA020002D000210846904702F06CF98E
:109A100005000AD02C6803E0206801F0E7FC6468C8
:109A2000002CF9D12846F8F713FA029802F0ACFEA0
:109A3000002E02D000210846B047384602F052FA04
:109A400004000BD0FF2032460230216802F0A4FC53
:109A5000FF2021680330039A02F09EFC00F026F8F4
:109A60000420694608802846891CF7F731FA6846C1
:109A700002F06EFD002005B0F0BD00000180000086
:109A800010B502F089FB02F0B1FA02F0D9FE10BD68
:109A900010B5034A03490448FFF7A6FF10BD0000B4
:109AA000C55C0000315D00000202000010B50248F4
:109AB00002F0DEFB10BD0000C42200207CB502F0E5
:109AC00026FA04000FD0206802F04CFC050008D1F3
:109AD00069460880891C2068F7F7FAF9684602F0A1
:109AE00037FD28467CBD01487CBD00000500030011
:109AF00070B514460E460546FFF71EFC002804D03C
:109B000008A0FFF7EDFD012070BD304602F0FFF91F
:109B1000002805D001682246284602F03DFC70BDB1
:109B20000A4870BD4775694C696220436F6E66696B
:109B300067205461626C65205374617475733A20B8
:109B400020206572726F720D0A000000040003008D
:109B5000F0B587B00F4606460021684601801348DD
:109B600000240188684641806D46A0004019042207
:109B70000F49001DF7F768F9641C052CF5DB00247C
:109B8000002E02DC0BE0052C09DAA000C1194019F7
:109B90000422001DF7F758F9641CB442F3DB694650
:109BA000044802F06BFB07B0F0BD000082480100E2
:109BB00084480100382200207CB50D4602F0A7F948
:109BC000040010D02946206802F0CAFC050008D124
:109BD00069460880891C2068F7F77AF9684602F020
:109BE000B7FC28467CBD01487CBD00000500030091
:109BF00070B514460D4602F08AF9002805D00068B9
:109C00002246294602F0CAFC70BD014870BD000022
:109C10000500030010B50C4602F079F9002804D0C5
:109C20000068214602F0D8FC10BD014810BD0000BC
:109C3000050003007CB50D4602F069F904001DD053
:109C40002946032001F060FF0D490E4A0968126899
:109C50008918814201D90C487CBD2946206802F050
:109C6000D9FC050008D169460880891C2068F7F7EF
:109C70002FF9684602F06CFC28467CBD03487CBD89
:109C80007848010074480100030002000500030049
:109C900070B514460D4602F03AF9002805D0006868
:109CA0002246294602F0D4FC70BD014870BD000078
:109CB000050003007CB515460E4602F028F90400A5
:109CC00011D02A463146206802F0E0FC050008D198
:109CD00069460880891C2068F7F7FAF8684602F0A0
:109CE00037FC28467CBD01487CBD00000500030010
:109CF0007CB50D4602F00BF9040010D0294620680F
:109D000002F0E2FC050008D169460880891C206841
:109D1000F7F7DEF8684602F01BFC28467CBD0148D8
:109D20007CBD0000050003001CB5002069460090C2
:109D300088806A4601A90848FFF740FD009A002A7A
:109D400008D068468088002804D0034801211038D4
:109D5000FFF7A2FC00201CBD1180000010B51548C3
:109D6000017815480B00FFF702F8050404060B10F4
:109D7000220012A205E01048C01DFFF79BFA16E072
:109D80000FA20121FFF788FC11E00B480DA2012171
:109D9000801CFFF78FFF08480BA20121C01CFFF7B2
:109DA00089FF054809A20121001DFFF783FF00205C
:109DB00010BD00007C020020018000002C0000008B
:109DC0002E000000210000002200000023000000FF
:109DD0001CB500206946009088806A4601A90848A1
:109DE000FFF7ECFC009A002A08D06846808800281B
:109DF00004D003480121C01FFFF74EFC00201CBD0A
:109E00000880000070B52548017825480B00441CE7
:109E1000851CFEF7ACFF05040F1E2F37350021A26D
:109E20000121FFF747FF20A201212046FFF742FF53
:109E30001EA209E01EA20121FFF73CFF1DA2012185
:109E40002046FFF737FF1CA201212846FFF732FF0B
:109E500016E0134816A20121401DFFF72BFF104802
:109E600014A201210930FFF725FF0D48012112A29C
:109E70000D30EBE70A4811A20121801EFFF70CFC10
:109E8000002070BD0EA20121FFF714FF0DA20121D9
:109E90002046FFF70FFF0CA2D6E700007C0200204F
:109EA0000380000041000000420000004300000069
:109EB000610000006200000063000000310000004B
:109EC0002400000025000000260000001CB5002032
:109ED0006946009088806A4601A90848FFF76EFC31
:109EE000009A002A08D068468088002804D00348D9
:109EF00001210838FFF7D0FB00201CBD09800000BD
:109F000070B52548017825480B00441C851CFEF7D8
:109F10002EFF05040F1E2F37350021A20121FFF768
:109F2000C9FE20A201212046FFF7C4FE1EA209E0BF
:109F30001EA20121FFF7BEFE1DA201212046FFF750
:109F4000B9FE1CA201212846FFF7B4FE16E0134813
:109F500016A20121401DFFF7ADFE104814A20121F9
:109F60000930FFF7A7FE0D48012112A20D30EBE7E3
:109F70000A4811A20121801EFFF78EFB002070BD50
:109F80000EA20121FFF796FE0DA201212046FFF748
:109F900091FE0CA2D6E700007C02002003800000A6
:109FA000440000004500000046000000640000007E
:109FB000650000006600000032000000270000007D
:109FC00028000000290000001CB500206946009010
:109FD00088806A4601A90848FFF7F0FB009A002A2A
:109FE00008D068468088002804D003480121093839
:109FF000FFF752FB00201CBD0A80000070B5254809
:10A00000017825480B00441C851CFEF7B0FE0504B2
:10A010000F1E2F37350021A20121FFF74BFE20A292
:10A0200001212046FFF746FE1EA209E01EA20121E3
:10A03000FFF740FE1DA201212046FFF73BFE1CA2B8
:10A0400001212846FFF736FE16E0134816A201212B
:10A05000401DFFF72FFE104814A201210930FFF721
:10A0600029FE0D48012112A20D30EBE70A4811A28A
:10A070000121801EFFF710FB002070BD0EA2012100
:10A08000FFF718FE0DA201212046FFF713FE0CA2D8
:10A09000D6E700007C02002003800000470000009B
:10A0A0004800000049000000670000006800000050
:10A0B00069000000330000002A0000002E000000AC
:10A0C0002C0000001CB500206946009088806A467C
:10A0D00001A90848FFF772FB009A002A08D06846D9
:10A0E0008088002804D0034801210A38FFF7D4FAF9
:10A0F00000201CBD0B80000010B5144801781448E6
:10A100000B00FEF734FE05040409200E200011A206
:10A110000121FFF7C1FA16E00D480B30FFF7CAF82E
:10A1200011E00B480CA20121801CFFF7C3FD084879
:10A130000AA20121C01CFFF7BDFD054808A20121AC
:10A14000001DFFF7B7FD002010BD00007C020020BD
:10A15000018000002E0000002D0000002B000000F8
:10A160003D0000001CB500206946009088806A46CA
:10A1700001A90848FFF722FB009A002A08D0684688
:10A180008088002804D0034801210B38FFF784FAA7
:10A1900000201CBD0C80000070B5254801782548C2
:10A1A0000B00441C851CFEF7E2FD05040F1E2F3733
:10A1B000350021A20121FFF77DFD20A201212046CB
:10A1C000FFF778FD1EA209E01EA20121FFF772FD34
:10A1D0001DA201212046FFF76DFD1CA2012128468A
:10A1E000FFF768FD16E0134816A20121401DFFF796
:10A1F00061FD104814A201210930FFF75BFD0D48F5
:10A20000012112A20D30EBE70A4811A20121801EA4
:10A21000FFF742FA002070BD0EA20121FFF74AFDB0
:10A220000DA201212046FFF745FD0CA2D6E7000054
:10A230007C020020038000004A0000004B00000068
:10A240004C0000006A0000006B0000006C00000081
:10A25000340000003A0000003B0000002F00000026
:10A260001CB500206946009088806A4601A908480C
:10A27000FFF7A4FA009A002A08D0684680880028D0
:10A2800004D0034801210C38FFF706FA00201CBD5A
:10A290000D80000070B52548017825480B00441C4E
:10A2A000851CFEF764FD05040F1E2F37350021A223
:10A2B0000121FFF7FFFC20A201212046FFF7FAFC55
:10A2C0001EA209E01EA20121FFF7F4FC1DA201213C
:10A2D0002046FFF7EFFC1CA201212846FFF7EAFC0D
:10A2E00016E0134816A20121401DFFF7E3FC1048B9
:10A2F00014A201210930FFF7DDFC0D48012112A253
:10A300000D30EBE70A4811A20121801EFFF7C4F9C6
:10A31000002070BD0EA20121FFF7CCFC0DA201218F
:10A320002046FFF7C7FC0CA2D6E700007C02002005
:10A33000038000004D0000004E0000004F000000B0
:10A340006D0000006E0000006F000000350000008E
:10A350003C0000003E0000003F0000001CB5002053
:10A360006946009088806A4601A90848FFF726FAE6
:10A37000009A002A08D068468088002804D0034844
:10A3800001210D38FFF788F900201CBD0E80000068
:10A3900070B52548017825480B00441C851CFEF744
:10A3A000E6FC05040F1E2F37350021A20121FFF71F
:10A3B00081FC20A201212046FFF77CFC1EA209E0BF
:10A3C0001EA20121FFF776FC1DA201212046FFF706
:10A3D00071FC1CA201212846FFF76CFC16E0134813
:10A3E00016A20121401DFFF765FC104814A20121AF
:10A3F0000930FFF75FFC0D48012112A20D30EBE799
:10A400000A4811A20121801EFFF746F9002070BD05
:10A410000EA20121FFF74EFC0DA201212046FFF7FD
:10A4200049FC0CA2D6E700007C020020038000005B
:10A4300050000000510000005200000070000000B9
:10A4400071000000720000003600000040000000B3
:10A450005B0000005D0000001CB500206946009014
:10A4600088806A4601A90848FFF7A8F9009A002ADF
:10A4700008D068468088002804D0034801210E389F
:10A48000FFF70AF900201CBD0F80000010B514482A
:10A49000017814480B00FEF76AFC05040409200E3D
:10A4A000200011A20121FFF7F7F816E00D480F3048
:10A4B000FEF700FF11E00B480CA20121801CFFF702
:10A4C000F9FB08480AA20121C01CFFF7F3FB05486D
:10A4D00008A20121001DFFF7EDFB002010BD0000C8
:10A4E0007C020020018000003F0000005C000000B2
:10A4F0005E0000005F0000001CB50020694600906F
:10A5000088806A4601A90848FFF758F9009A002A8E
:10A5100008D068468088002804D0034801210F38FD
:10A52000FFF7BAF800201CBD1080000070B522486B
:10A53000017822480B00441C851CFEF718FC05041A
:10A540000A192A3230001EA20121FFF7B3FB1DA217
:10A5500004E01DA20121FFF7ADFB1CA20121204652
:10A56000FFF7A8FB1AA201212846FFF7A3FB16E07C
:10A57000124815A20121401DFFF79CFB0F4813A2B2
:10A5800001210930FFF796FB0C48012110A20D3084
:10A59000EBE70A480FA20121801EFFF77DF800209B
:10A5A00070BD0DA20121FFF785FB0CA20121204601
:10A5B000FFF780FB0AA2D6E77C02002003800000A0
:10A5C00053000000540000007300000074000000FD
:10A5D0000000000037000000600000007B00000069
:10A5E0007D00000070B52548017825480B00441C0B
:10A5F000851CFEF7BCFB05040F1E2F37350021A27A
:10A600000121FFF757FB20A201212046FFF752FB53
:10A610001EA209E01EA20121FFF74CFB1DA2012191
:10A620002046FFF747FB1CA201212846FFF742FB0B
:10A6300016E0134816A20121401DFFF73BFB10480E
:10A6400014A201210930FFF735FB0D48012112A2A8
:10A650000D30EBE70A4811A20121801EFFF71CF81C
:10A66000002070BD0EA20121FFF724FB0DA20121E5
:10A670002046FFF71FFB0CA2D6E700007C0200205B
:10A680000380000055000000560000005700000045
:10A690007500000076000000770000003800000020
:10A6A000000000007C0000007E00000070B525481E
:10A6B000017825480B00441C851CFEF758FB050457
:10A6C0000F1E2F37350021A20121FFF7F3FA20A238
:10A6D00001212046FFF7EEFA1EA209E01EA2012189
:10A6E000FFF7E8FA1DA201212046FFF7E3FA1CA2BA
:10A6F00001212846FFF7DEFA16E0134816A20121D1
:10A70000401DFFF7D7FA104814A201210930FFF7C6
:10A71000D1FA0D48012112A20D30EBE70A4811A22F
:10A720000121801EFEF7B8FF002070BD0EA201219E
:10A73000FFF7C0FA0DA202212046FFF7BBFA0CA2D8
:10A740000221D6E77C0200200380000058000000B0
:10A75000590000005A000000780000007900000055
:10A760007A0000003900000000000000A3AC0000E7
:10A77000A1A300001CB500206946009088806A46AD
:10A7800001A90848FFF71AF8009A002A08D068467D
:10A790008088002804D0034801211138FEF77CFF8F
:10A7A00000201CBD1280000010B50548034A4188F6
:10A7B000002000F0F3F9002010BD0000018000002F
:10A7C0007C02002010B50548034A0188002000F0F3
:10A7D000E5F9002010BD0000018000008802002083
:10A7E0007CB50020694600908880124C6A4601A919
:10A7F0002046FEF7E3FF009B601E002B16D0694643
:10A800008A88002A12D0002104E05D5C002D03D06C
:10A81000491C89B29142F8D3002907D00121204672
:10A82000FEF7A0FF00F054FA00207CBD0121FEF7E6
:10A8300099FFF9E70280000010B501210248FEF7F8
:10A8400091FF002010BD00000180000010B50548F8
:10A850000178032903D003210170FCF7D5FE002005
:10A8600010BD00007C02002010B50548034A418855
:10A87000012000F093F9002010BD000001800000CD
:10A880007C02002010B50548034A0188012000F031
:10A8900085F9002010BD0000018000008802002022
:10A8A00010B5064801780648032905D005A2012104
:10A8B000FEF7F2FE002010BD03A2F8E77C020020A4
:10A8C00001800000200000003000000010B50548A5
:10A8D0000178042903D004210170FCF795FE0020C3
:10A8E00010BD00007C02002010B509480178022943
:10A8F00002D94178017007E0491CC9B201700229F0
:10A9000001D9002101704170FCF77EFE002010BDCE
:10A910007C020020F0B58BB007460024A0007E49E1
:10A92000C61948780B78B28800021843824201D3D6
:10A93000012300E00023CD788878F28829020143C2
:10A940008A4201D3012000E00020034338D00D20CB
:10A95000264646437148815D00297DD03518691C23
:10A9600004226846F6F770FA009801F0C1F9002851
:10A9700014D001684A780B7811021943CAB2152A1B
:10A980000CD80906090E09D002216A461180006818
:10A990006944F6F79DFA684601F0DAFD5F49002048
:10A9A0008855681C04225C49F6F74EFA681D04229B
:10A9B0005949F6F749FA2846093004225649A3E0D6
:10A9C0000D20254645435548415D002913D02D18DB
:10A9D00028460930311D04220290F6F735FAA9798C
:10A9E0006A7909021143AA7A6B7A100218438142EC
:10A9F0003AD3081A39E04948311D281800900290CE
:10AA00000422401CF6F720FA02980422411C01A8F7
:10AA1000F6F71AFA019801F06BF9002814D00168D2
:10AA20004A780B7811021943CAB2152A0CD80906C4
:10AA3000090E09D001216A4691800068911DF6F740
:10AA400047FA01A801F084FD3448012141550098DE
:10AA5000311D0422401D00E058E0F6F7F5F900989A
:10AA6000311D042209304FE0401A297AEB7982B275
:10AA70000902E81C19430346287B1B7A000218438D
:10AA8000814201D3081A00E0401A80B2082A01D39B
:10AA9000012100E00021082801D3012000E000206E
:10AAA000014333D0042201A80299F6F7CDF9691DBC
:10AAB00004226846F6F7C8F90199009801F07EF97A
:10AAC00006001ED033685878197800020843C1B2D6
:10AAD000152916D80106090E13D0400411D5029885
:10AAE0000790069306AA0021184601F00BFE0020ED
:10AAF0006946088422313068F6F7EAF908A801F0BF
:10AB000027FD681D04220299F6F79EF9641C052CA6
:10AB100000D203E70BB0F0BD8448010048220020BA
:10AB2000F8B50B30C608F600104D19E02068B042A9
:10AB300015D3B0420BD96368871B201D0093F6F72D
:10AB400083F9A019009B07604360286004E06068F7
:10AB50002860201DF6F778F9201D2660F8BD251D18
:10AB60002C68002CE2D10020F8BD000098020020E3
:10AB700010B50446800705D164212046F6F73AF95E
:10AB8000002908D1FF2191312046F6F733F9002939
:10AB900001D0002010BD012010BD0000F7B584B029
:10ABA0001746064601F0A0F805460024301E26464A
:10ABB00024D06846009686806A4601A93846FEF78A
:10ABC000FDFD0098002819D068468088002815D01F
:10ABD00022480168002911D0214F38888847040095
:10ABE0000CD0002006E03988884207D20099095C21
:10ABF0002154401C694689888842F4D3002D0AD02C
:10AC00002F6803E0386800F0F1FB7F68002FF9D16E
:10AC10002846F7F71DF91348016829604168696003
:10AC200006604660FEF742FF0420694608810A314B
:10AC30002846F6F74DF902A801F08AFC002C0BD04B
:10AC40000748224601880598FFF734F80348416811
:10AC5000002901D02046884707B0F0BDE847010031
:10AC6000884801008C020020FDF7ACF8E124640262
:10AC70002046FDF709F92046FDF756F90CA0FEF72E
:10AC80003BF8FAF703FFFDF7C5FD0DA0FEF734F81A
:10AC9000FCF77CF9FEF7B4FDFDF70EFEFEF7F8FEBB
:10ACA00064225F211046FAF797FEFEF7E9FEFCE703
:10ACB00053746172742041505020200D0A0000002E
:10ACC000546F756368496E697420200D0A00000096
:10ACD0007CB50E4D0024AC806846009484806A46A2
:10ACE00001A90B48FEF76AFD009800280BD06946C1
:10ACF0008988002907D0C9B2FEF7BAFBA8600220F4
:10AD000000F0DAF97CBDAC607CBD00007C02002064
:10AD10000280000070B50446054D04E02A68012158
:10AD200020469047641C20780028F7D170BD0000B1
:10AD3000FC47010010B50022054B05E01C6A240108
:10AD4000FCD5845C1C61521C8A42F7D310BD000004
:10AD50004030004030B589B014460546002911D076
:10AD600020220B496846F6F76FF86807E9080028C3
:10AD70000AD06A07D20E6B46D218803A605CD26F56
:10AD80005040605409B030BD491E605C079AF7E737
:10AD900000630100FFB5A04F8FB00446386000206B
:10ADA0000D46C043FF21B8601E4661311898F6F782
:10ADB00073F8002E01D0304602E01198F6F777F8CC
:10ADC000002828D0024628461199FAF74BFA7861F4
:10ADD000002820D0002D04D0A8421CDC28467D602D
:10ADE00000E078602C2148438C4D610040194018E8
:10ADF0008688F868F1000A1A042A00DA0422002181
:10AE0000FCF736FAF860C01DC217520FEC2110187B
:10AE1000C010834F08E00020C04313B0F0BD395488
:10AE2000EC2921D0EC21401CB042F8DB7A482C22DE
:10AE3000416851434D1969880161FF2125317948E5
:10AE4000F6F72AF86100611869180991CA7C07921F
:10AE5000CB7F00200B93D4184D7D20310D91497884
:10AE600003918446014614E01121DCE76D4A00217C
:10AE70006346D31806E06A4A175C22464A43401CE0
:10AE8000D754491CA942F6DB6146491C8C467146E1
:10AE9000491C8E4607998E45E8DB00218E462146E7
:10AEA00069430C911DE05F4A00216346D318724448
:10AEB0000E930A920CE05A4AA942175C03DA224622
:10AEC0004A430E9B01E00A9B0C9A401CD754491C34
:10AED000039A9142EFDB6146491C8C467146491C3E
:10AEE0008E460B998E45DEDB0998007D401B0A904B
:10AEF0000D9801780398081A099000200490089092
:10AF000029E047489921E830F5F7C6FF44480499FD
:10AF10002A464118E830F5F797FF41482946E830BE
:10AF20000A9AFAF703FA089A00203E49B21807E095
:10AF30003B4BE8331F5C234643435B189F54401C44
:10AF40000A9B9842F4DB0498401904900898401C2E
:10AF500008900298401C029007998842D1DB00209B
:10AF60002AE02F489921E830F5F796FF2C480499FC
:10AF7000039A4118E830F5F767FF2948099AE83045
:10AF80000399FAF7D3F9264B08990020E833254AAC
:10AF9000751805E0214641431F5C89184F55401C38
:10AFA00009998842F6DB04990398081804900898D8
:10AFB000401C08900298401C0B9902908842D0DBFC
:10AFC000154D686880001130E861F9F7D7FC00245E
:10AFD00016E0214635225143134A00258F18661C7E
:10AFE00009E0795D002911D0684380190121189A80
:10AFF000FFF7B0FE6D1C0848C0698542F1DB641C98
:10B000000548C1698C42E4DBC06906E768438019E2
:10B010000021189AECE7000010010020245F0100D5
:10B02000793300206D31002074260020F3B583B001
:10B0300005001AD028680190284680380290C76F12
:10B0400004983E1F864200D906462846FDF79CFE1E
:10B0500004460091324629460498FFF761FD0199A4
:10B06000002806D0016005B0F0BD0498FDF7BEFED3
:10B07000F9E729600299002CCF670AD0216862188D
:10B08000291F8A4202D9291B091F2160009961608A
:10B09000E9E7024A00991160E5E700009802002004
:10B0A00010B5002000F008F8002010BD10B50120F8
:10B0B00000F002F8002010BDF8B52C4C0546A06841
:10B0C00000284CD0FEF780FA06460020315C0029AB
:10B0D00002D0401C80B2F9E7002E40D00021002DA4
:10B0E00002D0012D0AD106E0A288921D92B2A28060
:10B0F000824203D206E0A088062801D2A18001E0A6
:10B10000801FA0801B4F1AA201213846FEF7D2FDF6
:10B1100017A20121781CFEF7CDFD15A20121B81C54
:10B12000FEF7C8FD0025A08869000918715C002998
:10B1300015D0002D04D0012D06D0022D10D00AE02C
:10B1400082190221384604E0801C82190948022134
:10B15000401CFEF7AFFD6D1CEDB2032DE3D3F8BD2F
:10B16000001D821903480221801CF2E77C020020A6
:10B17000000000000380000010B59020FDF7E6FA03
:10B1800010BD10B5D020FDF7E1FA10BDFFB50025C8
:10B1900081B004462E46002878D0267076E0252817
:10B1A00002D02070521C0CE05078252806D0571C85
:10B1B000527820210020302A06D00DE02520207072
:10B1C000921C641C6D1C61E0302104E00A2358438A
:10B1D00030381018C0B27F1C3A781346303B092B28
:10B1E000F4D9029A2B18934201D9501BC0B23A7875
:10B1F000692A10D006DC582A29D0632A3CD0642A58
:10B2000006D108E0732A2ED0752A0ED0782A16D0DF
:10B21000002005B0F0BD049A121D0492121F13689D
:10B2200002462046FBF73BFC2DE0049A121D0492D7
:10B23000121F136802462046FBF778FC23E0049AAD
:10B24000121D0492121F12680023009206E0049A55
:10B25000121D0492121F126801230092024620461A
:10B26000FBF7F8FB0FE00498001D0490001F016835
:10B270002046FBF750FC06E00498001D0490001FD8
:10B280000078207001207A1C24182D1810780028CE
:10B2900002D002998D4282D30298854201D2267053
:10B2A00002E0641E26706D1E2846B2E730B4002806
:10B2B0000ED0437805781C022C43E3B2152B0AD834
:10B2C0002406240E07D0054C9B00E35830BC1847D9
:10B2D000034830BC70470348FBE70000946B010053
:10B2E000010001000100030070B50E4C0B462170F7
:10B2F00000250121002B04D0012B04D0022B08D003
:10B3000002E00D4600E00D430026354303D0637094
:10B3100002E00126F9E76170608011460248FEF7FD
:10B320007BF870BD7C0200200931000070B50D462D
:10B3300004001CD06078227801021143C8B215289D
:10B3400017D80806000E14D0E278A0781202024343
:10B3500009A0FEF7C5F961782278080210430006BB
:10B360000E49800D0A5829462046904770BD0C486A
:10B3700070BD0C4870BD0000437265617465207734
:10B38000547970653A2030782530387820774944F0
:10B390003A203078253038780D0A0000CC6701005B
:10B3A000010001000100030010B51446002903D07C
:10B3B000012906D0064810BD1A462146FFF794FF22
:10B3C00003E01A46214600F005F8002010BD0000F9
:10B3D00001000600114610B5024A10800248FEF72F
:10B3E0001BF810BD880200206132000000280DD03B
:10B3F0004178027809021143CAB2152A06D8090613
:10B40000090E03D09100024A5158084770470000C6
:10B41000DC69010030B400280ED0427804781302B1
:10B420002343DAB2152A0AD81B061B0E07D0054B98
:10B4300092009A5830BC1047034830BC704703480C
:10B44000FBE70000EC6B01000100010001000300BC
:10B45000FFB5494895B0C0681F99C003000C019022
:10B460001D4617461E9E032000F04EFB0446314643
:10B47000032000F049FB0646404801684048006848
:10B480000918A14201D8B14205D93E48FEF728F972
:10B490003D4819B0F0BD3D4808220068241A2146F5
:10B4A00008A8F5F7D1FC394808220068361A314659
:10B4B00006A8F5F7C9FC16980836291A12966846A8
:10B4C000408C0C90414315980834381A08184000F5
:10B4D0000619684607824582408B0090014602901B
:10B4E0000198F5F787FC01906846808B0199F5F784
:10B4F00081FC002504461391002900D0441C6D1CDA
:10B50000A54202D3139825460190029A01990C9FF7
:10B510005143009B00208C461749FB1A5B00896849
:10B5200002469E4612E0129B194F1B88BB4200D177
:10B5300033880B80129B401C9B1C1293009B891C20
:10B54000B61C834201D876440020521C6245EAD3DF
:10B550000948009A8168019883B20E4807690498E7
:10B56000B8476846418A0198091868464182A54251
:10B57000C5D100208DE700000000002078480100C0
:10B580007448010064DB0100030002007C480100F4
:10B59000FFFF0000640D0000F7B51749104648434F
:10B5A0007D211446C900F5F725FC451C2046604363
:10B5B00061084618274600233A4601990098F8F793
:10B5C0008FF9012414E0204639466043794340183E
:10B5D000B04206DD3B46224601990098F8F780F913
:10B5E0007F1E3B46224601990098F8F779F9641CC2
:10B5F000AC42E8DDFEBD0000C3020000F7B5064620
:10B600002F49104648437D2184B01446C900F5F700
:10B61000F1FB401C009020466043610840180290F6
:10B620003019284982B2059B301B8D6880B21946BB
:10B63000A84701253EE0284621466843614341185A
:10B64000029881421DDD0098844219DD05981D4F46
:10B6500001197019401E82B20390701B401C0190AA
:10B660008BB2BF6889B280B2B8470598154F011BED
:10B6700003988BB282B20198BF6889B280B2B84792
:10B68000641E0598311940198AB2039183B281B2C0
:10B69000301B0C4F0190BF6880B2B84705980399E2
:10B6A000401B8AB283B281B2064F0198BF6880B254
:10B6B000B8476D1C00988542BDDD07B0F0BD0000A5
:10B6C000C3020000640D000000280DD0417802780C
:10B6D00009021143CAB2152A06D80906090E03D079
:10B6E0009100024A51580847704700002468010041
:10B6F000F8B50C4605461146032000F005FA1C4932
:10B700000A681C4909685118814204D91A48FDF792
:10B71000E7FF1A48F8BD1A490968411AC8788B78BA
:10B72000020218481A4306885319B34201D9012668
:10B7300000E000264B790F791B023B4340881F191C
:10B74000874201D9012000E00020064305D00EA069
:10B75000FDF7C6FF0948801EF8BD68460580448095
:10B760001348083104690098A0470020F8BD000084
:10B77000784801007448010064DB01000300020006
:10B780007C480100000000207744697370496D61B6
:10B790006765A3BA204755495F444953505F494EF6
:10B7A00056414C49445F4C4F43200D0A00000000B5
:10B7B000640D0000FFB581B01E46174603200A99AC
:10B7C00000F0A2F926490A68264909685118814201
:10B7D00005D92548FDF784FF244805B0F0BD24496C
:10B7E0000968411AC8788B78020201981A43131825
:10B7F00020480488A34201D9012400E000244B79A9
:10B800000D791B022B43029D40885D19854201D9A9
:10B81000012000E00020184D044303D017A0FDF7DD
:10B820005FFF03E0BA4201D8B34201D92846D4E70A
:10B83000B81AC40F20184410019820186C462080B4
:10B84000F01AC40F20184410029820186C4660802B
:10B850001448083104690098A0470020BDE70000A3
:10B86000784801007448010064DB01000300020015
:10B870007C48010000000020010002007744697349
:10B8800070496D616765A3BA204755495F444953C4
:10B89000505F494E56414C49445F4C4F43200D0A7E
:10B8A00000000000640D0000F0B587B00024161AF7
:10B8B00001905D1A601E274604940091002E01DD60
:10B8C000012108E0002E05D076420390002D04DD12
:10B8D00001200BE000210391F8E7002D05D06D4217
:10B8E0000290AE4204DD344603E000200290F8E707
:10B8F0002C4600200590601C069005981DE00098DD
:10B90000104A81B20198126880B2904704987F195A
:10B9100080190490A04205DD001B04900399019852
:10B9200040180190A74204DD029900983F1B40187F
:10B9300000900598401C80B2059006998842DEDD93
:10B9400007B0F0BD640D0000FFB583B003200C9E6E
:10B950000D9D0E9900F0D8F82C492D4A09681268FF
:10B960008918814202D92B4807B0F0BD2A490968DD
:10B97000441A0398811929480288914201D901216A
:10B9800000E00021049A40885219824201D9012026
:10B9900000E00020014317D1E2780598A378110256
:10B9A00080191943884201D9012000E00020069A3D
:10B9B00027795319627912023A43934201D901233C
:10B9C00000E00023184302D01248801ECCE7114843
:10B9D000401C0029C8D0002AC6D0002EC4D0002D9B
:10B9E000C2D06846039A8280049AC280068145814B
:10B9F000059A0280069A42800948029B45692046C2
:10BA00000830019AA8470020AEE7000078480100FE
:10BA100074480100030002007C480100000000207F
:10BA2000640D0000FFB581B01E460D4C029BA56859
:10BA300007461946039AA8473A46A5683346104672
:10BA40000299A8473346A56819463846039AA8477D
:10BA5000039AA468334610460299A04705B0F0BD8A
:10BA6000640D000030B4024CA468A44630BC6047AA
:10BA7000640D0000FFB581B00D46684681880A9CC0
:10BA8000481B2A1989180FB20E49001B096800B219
:10BA90000091F5F7C5F906B238460099F5F7C0F9F7
:10BAA00001B23046F6F714F8002808D00094294671
:10BAB000049B039A0198F7F759FFFBF745FB05B084
:10BAC000F0BD000048020020F3B50C4681B00D49DE
:10BAD000684685880968281B0E46F5F7A1F90746D0
:10BAE00028193146F5F79CF901B238B2F5F7F0FFA5
:10BAF000002805D021460198F8F704FBFBF724FB4A
:10BB0000FEBD000048020020F3B5284E284C3068E6
:10BB1000216883B0401845182648C168002904D020
:10BB20000B460C220021684698472348234F0068A3
:10BB30002D1AB868002804D003460C22694628460E
:10BB4000984768460088002809D00021019A002AF9
:10BB500007D000221143092805D3012204E0012166
:10BB6000F4E70122F6E700221143019A521C08D0A3
:10BB70000022114307D012A0FDF7B2FD002005B04E
:10BB8000F0BD0122F5E7039988420DD1684641884E
:10BB90000498814208D10298316841182068083021
:10BBA000081811494860EAE70C35C2E778480100F7
:10BBB00074480100E84701007C480100DC470100AF
:10BBC000774578706C6F7265722D3E5265736F7534
:10BBD00072636520736561726368205461626C658D
:10BBE00020656E64210D0A00F0000020F7B52F4893
:10BBF0002F4E0068316884B0401845182D4814460F
:10BC0000C168002904D00B460C22002168469847E1
:10BC100029482A4F00682D1AB868002804D0034626
:10BC20000C2269462846984768460088002809D0B3
:10BC30000021019A002A07D000221143092805D3C8
:10BC4000012204E00121F4E70122F6E7002211437A
:10BC5000019A521C08D00022114307D018A0FDF70A
:10BC60003FFD002007B0F0BD0122F5E704998842AE
:10BC70001AD1684641880598814215D168460088E6
:10BC80002070000A607068464088A070000AE0706A
:10BC9000211D0198F5F71CF904480299006809185C
:10BCA000306808300818DDE70C35B5E77848010042
:10BCB00074480100E84701007C480100DC470100AE
:10BCC000774578706C6F7265722D3E5265736F7533
:10BCD00072636520736561726368205461626C658C
:10BCE00020656E64210D0A0000487047080100209D
:10BCF000F1B5002082B004460090FFF7F5FF002860
:10BD000057D06946098900688C4669464A894BE0E4
:10BD10000168002947D04B780D781B022B439E46C3
:10BD20001B0440D5244DAE4501D100903BE08B79FA
:10BD30004E791B023343491D9C4501D3012500E088
:10BD400000254E790F7936023E439B19634501D396
:10BD5000012300E000231D40CB788E781B02334383
:10BD60009A4201D3012600E00026CF7989793F026B
:10BD70000F43D919914201D3012100E000210E4067
:10BD8000354210D00C4BDB1D9E4501D1012100E056
:10BD90000021094C0834A64501D1012300E000230D
:10BDA000194306D0044640680028B1D1002C01D0C8
:10BDB0002046FEBD0098FEBD01800000F3B50020C6
:10BDC00087B004460590FFF78FFF002871D06A46C0
:10BDD0000068118C0391518C8E46918BD28B9446C6
:10BDE00075E00268002A71D0537815781B022B4346
:10BDF00004931B046AD53A4D049BAB4201D10590D4
:10BE000064E0521D0092557812782D021543039B71
:10BE10000295AB4201D3012200E000222E46009D94
:10BE20006F792D793F022F43F319039D0693AB429F
:10BE300001D3012300E00023009E1A40F578B67874
:10BE40002D0235430195AE4501D3012500E00025C3
:10BE5000009B019EDF799B793F021F43F3197345D5
:10BE600001D3012600E0002635402A40029DA94268
:10BE700001D3012500E00025069E8E4201D3012654
:10BE800000E0002635402A40019DAC4501D3012544
:10BE900000E00025634501D3012300E000231D409D
:10BEA0002A4213D00E4B049ADB1D9A4202D1012282
:10BEB00001E011E000220A4C049B0834A34201D1A6
:10BEC000012300E000231A4306D0044640680028FE
:10BED00087D1002C02D0204609B0F0BD0598FBE7C1
:10BEE0000180000010B50446FFF7FEFE00280DD0CB
:10BEF000006809E00168002905D04A780B78110232
:10BF00001943A14202D040680028F3D110BD10B5FA
:10BF10000446FFF7E9FE00280DD0006809E001683B
:10BF2000002905D0CA788B7811021943A14202D0AA
:10BF300040680028F3D110BD30B400280ED04278FC
:10BF4000047813022343DAB2152A0AD81B061B0E03
:10BF500007D0054B92009A5830BC1047034830BCBC
:10BF600070470348FBE70000FC6D01000100010081
:10BF70000100030030B400280ED0437805781C027D
:10BF80002C43E3B2152B0AD82406240E07D0054C07
:10BF90009B00E35830BC1847034830BC7047034847
:10BFA000FBE70000446C01000100010001000300F8
:10BFB00030B400280ED04278047813022343DAB25A
:10BFC000152A0AD81B061B0E07D0054B92009A585B
:10BFD00030BC1047034830BC70470348FBE7000003
:10BFE000F46C010001000100010003001CB569466A
:10BFF000214800F08BF900280FD1684601880B001A
:10C00000FCF7B5FE05040C141C240B00801CF4F78F
:10C0100055FF0022114600F0A1FB1CBD801CF4F767
:10C020004DFF0022114600F00DF91CBD801CF4F7F5
:10C0300045FF0022114600F0CDF91CBD801CF4F72D
:10C040003DFF0022114600F073FB1CBD801CF4F77D
:10C0500035FF04680DE02068417802780902114339
:10C06000CAB2152A04D80906090E01D0FFF72CFB25
:10C070006468002CEFD11CBDC422002010B506223C
:10C080004021054800F026F9002803D003A0FDF761
:10C0900027FBFEE710BD0000C42200206572726F0E
:10C0A000723A696E7075744D736751756575652068
:10C0B000686173206E6F74206D656D6F727900001A
:10C0C000FEB52348016823480268234889188C1864
:10C0D000C168002904D00B460C220021684698470D
:10C0E0001E481F4E0068251A0024B068002804D09E
:10C0F00003460C226946284698476846018800296D
:10C1000009D00020019A002A07D0002210430929F3
:10C1100005D3012204E00120F4E70122F6E7002222
:10C120001043019A521C07D00022104306D021462A
:10C130000CA0FDF7D5FAFEBD0122F6E7684642885D
:10C140001448641C019BFDF7CBFA0C35CDE70000C9
:10C150007848010074480100E84701007C4801006C
:10C16000DC470100774578706C6F7265722D3E5226
:10C1700065736F75726365205461626C6520656ECE
:10C18000642120526573436F756E74203D202564D1
:10C190000D0A00001CDB010000B587B069460748A6
:10C1A00000F0B4F8002806D168460088002802D1C3
:10C1B0006846FEF7AFFB07B000BD00003822002044
:10C1C000F8B5144818220188134800F083F80028B5
:10C1D00003D012A0FDF784FAFEE700240E4D264698
:10C1E000103520460D2148432E544719781C04224F
:10C1F0001349F4F729FE781D04221149F4F724FEAF
:10C200003846093004220E49F4F71EFE641C052C42
:10C21000E7D3F8BD80480100382200206572726FB4
:10C22000723A696E7075744D7367517565756520E6
:10C23000686173206E6F74206D656D6F7279000098
:10C240008448010030B400280ED0437805781C02E1
:10C250002C43E3B2152B07D82406240E04D0034C3C
:10C260009B00E35830BC184730BC7047D4680100CD
:10C2700000210180418081807047000070B5044634
:10C28000C068002809D020886288904207D1A08821
:10C29000E288904203D10D4870BD0D4870BD00206A
:10C2A00006E063880D5C5343E2689A188554401C8D
:10C2B00022898242F5DC6088E188401CF4F79AFD0F
:10C2C0006180A088401CA080002070BD0100040097
:10C2D0000100010010B50446002020806080A0808D
:10C2E000E1802281074BE0601868002806D00846EC
:10C2F000196850438847E060002801D0002010BD35
:10C30000014810BDE84701000100010010B50446D6
:10C31000C068002808D020886288904202D1A08896
:10C32000002803D000200AE00C4810BD0C4810BDC6
:10C3300023885343E2689A18825C0A54401C22897D
:10C340008242F5DC2088E188401CF4F753FD21800F
:10C35000A088401EA080002010BD00000100010048
:10C360000200040000280DD0417802780902114330
:10C37000CAB2152A08D80906090E05D09100034A49
:10C38000515808470248704702487047546E0100F0
:10C39000010001000100030030B400290ED04B78E9
:10C3A0000D781C022C43E3B2152B0AD82406240E68
:10C3B00007D0054C9B00E35830BC1847034830BCFD
:10C3C00070470348FBE70000E46A01000100010038
:10C3D0000100030030B400280ED0437805781C0219
:10C3E0002C43E3B2152B07D82406240E04D0034CAB
:10C3F0009B00E35830BC184730BC70472C690100E3
:10C40000F7B590B00E46012069464D4C8881E06832
:10C41000154600280ED003461022002101A8984797
:10C420000C22E36800210BA898470822E36800214A
:10C4300008A89847434C2088854204D1083407CC8B
:10C44000099208910AE00BAA29460420FFF7CEFBC7
:10C45000A060099A08992261E1602580002863D0D4
:10C4600039490A6890425FD3851A0C9810380C90AD
:10C4700036488168002957D08368082208A92846D1
:10C4800098476846038C8380448CC480828C0281E8
:10C49000C18C4181D8085B0700D0401C4C43444309
:10C4A00010041BD50027A41D083511E027480222DF
:10C4B00083680AA9284698476846008DB04204D18F
:10C4C000AD1D0020694604952DE02D197F1CBFB2DB
:10C4D00038460C9960438842E8D325E00021330AAE
:10C4E000C943241DF0B2A12B0ED3FE2B0CD8A128DA
:10C4F0000AD3FE2808D8012A1CD0A13BD9B2A13802
:10C500005E22C0B25143091800206A4690814C4314
:10C510000C35601904900220002900DA90810C99F2
:10C520008C4201D31146888101AD1ECD10981EC0EA
:10C5300013B0F0BDA32BE7D1A038C1B2E4E70000EF
:10C54000E8470100F00000207C480100DC470100C2
:10C5500010B501460148FFF791FE10BDC42200202E
:10C5600030B400280ED04278047813022343DAB2A4
:10C57000152A0AD81B061B0E07D0054B92009A58A5
:10C5800030BC1047034830BC70470348FBE700004D
:10C590004C6D0100010001000100030010B50028EE
:10C5A0000FD0437804781B022343DCB2152C0AD841
:10C5B0001C06240E07D0054CA34204D101F0A6FEB0
:10C5C00010BD034810BD034810BD00000C800000E2
:10C5D000010001000100030010B500280FD04278CF
:10C5E000037812021A43D3B2152B0AD813061B0E76
:10C5F00007D0054B9A4204D101F0FCFF10BD03485F
:10C6000010BD034810BD000015A00000010001008E
:10C610000100030030B400280ED0427804781302E1
:10C620002343DAB2152A0AD81B061B0E07D0054B86
:10C6300092009A5830BC1047034830BC70470348FA
:10C64000FBE70000A46D01000100010001000300F0
:10C6500010B500280FD0437804781B022343DCB2C6
:10C66000152C0AD81C06240E07D0054CA34204D171
:10C6700001F07EFF10BD034810BD034810BD00004F
:10C6800014C00000010001000100030030B40028C4
:10C690000ED0437805781C022C43E3B2152B0AD840
:10C6A0002406240E07D0054C9B00E35830BC1847E5
:10C6B000034830BC70470348FBE700003C6B0100B7
:10C6C000010001000100030030B400280ED04278C0
:10C6D000047813022343DAB2152A0AD81B061B0E6C
:10C6E00007D0054B92009A5830BC1047034830BC25
:10C6F00070470348FBE700009C6C0100010001004B
:10C700000100030030B400280ED0437805781C02E5
:10C710002C43E3B2152B07D82406240E04D0034C77
:10C720009B00E35830BC184730BC70478469010057
:10C7300030B400280ED0437805781C022C43E3B2B5
:10C74000152B07D82406240E04D0034C9B00E35875
:10C7500030BC184730BC70478C6A010030B40028E8
:10C760000ED0437805781C022C43E3B2152B07D872
:10C770002406240E04D0034C9B00E35830BC184719
:10C7800030BC70477C680100F8B5002501460220E6
:10C790000095FFF7B9F91049104A0968126889181D
:10C7A000814215D80E490F4E0968441A6946204641
:10C7B0000095FEF7BBFD010005D0B14202D00AA0F2
:10C7C000FCF78EFFF8BD00980028F8D02418EDE79C
:10C7D0000FA0FCF785FFF8BD784801007448010000
:10C7E0007C48010001000300437265617465207795
:10C7F0006964676574206661696C656420206265A0
:10C8000063617573653A203078253038780D0A00F9
:10C81000775769646765744C6F6164206572726FE5
:10C8200072206265636175736520696E76616C69FB
:10C83000642072657320616464720D0A0000000058
:10C840007CB51448046821E02568687829780002DE
:10C850000843800419D5F4F7D5F86A782B781202CA
:10C860001A4312060C4B920D01469A5820689047C5
:10C870000A49884209D1032069460880891C20683A
:10C88000F4F726FB6846FFF763FE6468002CDBD1F3
:10C890007CBD000008010020346A01000100050091
:10C8A000F7B51A4C0F4600280BD023300646F4F794
:10C8B00005FB002805D07179327900240902114363
:10C8C00006E02046FEBD025D002A03D0641CA4B22F
:10C8D000A142F8D8491EA14201DC0D48FEBD254603
:10C8E000E7190EE07079317900020843401EA84232
:10C8F00009D93046F4F7E2FA02992A1B895C4155BE
:10C900006D1CAF42EED80020FEBD0000010001000A
:10C9100007000300F7B51A4C0F4600280BD0223051
:10C920000646F4F7CBFA002805D071793279002455
:10C930000902114306E02046FEBD025D002A03D035
:10C94000641CA4B2A142F8D8491EA14201DC0D48E2
:10C95000FEBD2546E7190EE07079317900020843E3
:10C96000401EA84209D93046F4F7A8FA02992A1BBA
:10C97000895C41556D1CAF42EED80020FEBD000021
:10C980000100010007000300F7B51B4C82B00F4601
:10C9900000280CD006460A300090F4F78FFA0028E1
:10C9A00005D0F17BB27B00240902114307E0204649
:10C9B00005B0F0BD025D002A03D0641CA4B2A14200
:10C9C000F8D8491EA14201DC0C48F1E72546E719D9
:10C9D0000EE0F07BB17B00020843401EA84209D95B
:10C9E0000098F4F76BFA04992A1B895C41556D1C79
:10C9F000AF42EED80020DBE7010001000700030092
:10CA00000048704706000300F7B51B4C82B00F4684
:10CA100000280CD0064614300090F4F74FFA002896
:10CA200005D0717E327E00240902114307E02046C2
:10CA300005B0F0BD025D002A03D0641CA4B2A1427F
:10CA4000F8D8491EA14201DC0C48F1E72546E71958
:10CA50000EE0707E317E00020843401EA84209D9D4
:10CA60000098F4F72BFA04992A1B895C41556D1C38
:10CA7000AF42EED80020DBE7010001000700030011
:10CA8000F7B51C4C82B00E4600280ED005461E306D
:10CA90000090F4F713FA002807D02F462237797850
:10CAA0003A7800240902114307E0204605B0F0BDA2
:10CAB000025D002A03D0641CA4B2A142F8D8491E2A
:10CAC000A14201DC0C48F1E72546A6190EE0787872
:10CAD000397800020843401EA84209D90098F4F7AB
:10CAE000EDF904992A1B895C41556D1CAE42EED8C4
:10CAF0000020DBE70100010007000300F7B51F4C31
:10CB000082B00E4600280ED005461E300090F4F785
:10CB1000D5F9002807D02F46223779783A780024B3
:10CB20000902114307E0204605B0F0BD025D002A6E
:10CB300003D0641CA4B2A142F8D8491EA14201DC72
:10CB40000F48F1E72546A6190EE0787839780002FB
:10CB50000843401EA84209D90098F4F7AFF9049998
:10CB60002A1B895C41556D1CAE42EED80098F4F743
:10CB7000A5F9002141550846D6E700000100010053
:10CB800007000300F3B500261F4C83B000280CD02B
:10CB900023300090F4F792F9002806D00099002481
:10CBA0004A790B791102194307E0204605B0F0BD20
:10CBB000025D002A03D0641CA4B2A142F8D800256B
:10CBC0002F461DE0049886421CD8AC4211D0009834
:10CBD000F4F774F9611B0191415C090609D50199CB
:10CBE00047540098F4F76AF90199491E4754AD1C5F
:10CBF00005E00098F4F762F9611B47546D1C761C40
:10CC0000A542DFD90020D1E701000100F3B50026DD
:10CC10001F4C83B000280CD022300090F4F74EF95E
:10CC2000002806D0009900244A790B791102194393
:10CC300007E0204605B0F0BD025D002A03D0641C69
:10CC4000A4B2A142F8D800252F461DE004988642E0
:10CC50001CD8AC4211D00098F4F730F9611B019157
:10CC6000415C090609D5019947540098F4F726F963
:10CC70000199491E4754AD1C05E00098F4F71EF9D0
:10CC8000611B47546D1C761CA542DFD90020D1E7FB
:10CC900001000100F3B500261F4C83B000280CD022
:10CCA00005460A300090F4F709F9002805D0E97B21
:10CCB000AA7B00240902114307E0204605B0F0BD1D
:10CCC000025D002A03D0641CA4B2A142F8D800255A
:10CCD0002F461DE0049886421CD8AC4211D0009823
:10CCE000F4F7ECF8611B0191415C090609D5019943
:10CCF00047540098F4F7E2F80199491E4754AD1CD7
:10CD000005E00098F4F7DAF8611B47546D1C761CB7
:10CD1000A542DFD90020D1E701000100004870479B
:10CD200006000300F3B500261F4C83B000280CD08A
:10CD3000054614300090F4F7C1F8002805D0697E4C
:10CD40002A7E00240902114307E0204605B0F0BD09
:10CD5000025D002A03D0641CA4B2A142F8D80025C9
:10CD60002F461DE0049886421CD8AC4211D0009892
:10CD7000F4F7A4F8611B0191415C090609D50199FA
:10CD800047540098F4F79AF80199491E4754AD1C8E
:10CD900005E00098F4F792F8611B47546D1C761C6F
:10CDA000A542DFD90020D1E701000100F3B500263C
:10CDB000204C83B000280DD005461E300090F4F7BB
:10CDC0007DF8002806D0223569782A7800240902E7
:10CDD000114307E0204605B0F0BD025D002A03D0F4
:10CDE000641CA4B2A142F8D800252F461DE0049887
:10CDF00086421CD8AC4211D00098F4F75FF8611B52
:10CE00000191415C090609D5019947540098F4F74E
:10CE100055F80199491E4754AD1C05E00098F4F7F8
:10CE20004DF8611B47546D1C761CA542DFD90020CC
:10CE3000D1E7000001000100F3B50026204C83B0CB
:10CE400000280DD005461E300090F4F737F8002872
:10CE500006D0223569782A7800240902114307E0B8
:10CE6000204605B0F0BD025D002A03D0641CA4B2C8
:10CE7000A142F8D800252F461DE0049886421CD810
:10CE8000AC4211D00098F4F719F8611B0191415C94
:10CE9000090609D5019947540098F4F70FF801994C
:10CEA000491E4754AD1C05E00098F4F707F8611BD4
:10CEB00047546D1C761CA542DFD90020D1E7000045
:10CEC00001000100002806D0827B437B100218433A
:10CED00008800020704701487047000001000100F1
:10CEE000002806D0427D037D1002184308800020F0
:10CEF000704701487047000001000100002806D07B
:10CF0000C27E837E100218430880002070470148CB
:10CF10007047000001000100004870470600030050
:10CF2000002806D0427D037D1002184308800020AF
:10CF3000704701487047000001000100002806D03A
:10CF4000027CC37B10021843088000207047014810
:10CF50007047000001000100002806D0827B437B5F
:10CF600010021843088000207047014870470000F5
:10CF700001000100002806D0C27B837B1002184309
:10CF80000880002070470148704700000100010040
:10CF9000002806D0427D037D10021843088000203F
:10CFA000704701487047000001000100002806D0CA
:10CFB000427D037D1002184308800020704701481D
:10CFC0007047000001000100002806D0827E437EE9
:10CFD0001002184308800020704701487047000085
:10CFE00001000100FFB589B01D460E46074637E037
:10CFF000200607D569786D1C002934D02006000C66
:10D00000014304E01A4920462038401881B204A8A0
:10D010000B9AFFF7F5F904A80FC80090039302924A
:10D02000019168460089002811D11249124A096805
:10D03000126889188B420AD3181F991E0978007844
:10D04000081A316880B208180C49098805E00A2CD2
:10D0500005D06946098830684908401830606D1C61
:10D060002C78002CC4D16C460FCC0FC70DB0F0BD8E
:10D07000A0A3000078480100744801009248010014
:10D0800010B5144600280AD02330427903791202E1
:10D090001A430A80F3F712FF2060002010BD0148F8
:10D0A00010BD00000100010010B5144600280AD090
:10D0B00022304279037912021A430A80F3F7FEFE06
:10D0C0002060002010BD014810BD000001000100DB
:10D0D00010B5144600280AD0C27B837B12021A4383
:10D0E0000A800A30F3F7EAFE2060002010BD0148F4
:10D0F00010BD000001000100004870470600030059
:10D1000010B5144600280AD0427E037E12021A434C
:10D110000A801430F3F7D2FE2060002010BD0148D1
:10D1200010BD00000100010070B5144600280CD0AD
:10D1300002462232537815781A022A430A801E309A
:10D14000F3F7BCFE2060002070BD014870BD0000F8
:10D150000100010070B5144600280CD002462232AE
:10D16000537815781A022A430A801E30F3F7A6FE78
:10D170002060002070BD014870BD0000010001006A
:10D18000002804D0203080780860002070470148D3
:10D19000704700000100010010B50C46002805D0C2
:10D1A0001E30F3F78BFE2060002010BD004810BD3C
:10D1B0000100010010B50C46002805D0801DF3F7D2
:10D1C0007DFE2060002010BD004810BD0100010060
:10D1D000004870470600030010B50C46002805D033
:10D1E0001E30F3F76BFE2060002010BD004810BD1C
:10D1F00001000100002803D0C07D086000207047B6
:10D200000048704701000100002806D0C27D837DE0
:10D210001002184308600020704701487047000062
:10D2200001000100002803D0C07B08600020704787
:10D230000048704701000100002806D0827F437F2C
:10D240001002184308600020704701487047000032
:10D2500001000100002806D0427F037F100218431E
:10D26000086000207047014870470000010001007D
:10D2700070B515460E46002812D0014620318A7836
:10D280000446002A0DD000228A7003F037FE2046A3
:10D290002930F3F713FE020002D0294630469047AA
:10D2A00070BD0122F0E70000F7B586B000287DD000
:10D2B0004178027809021143654A0446914275D1CA
:10D2C000617BC51C661C032904D002291ED00129DC
:10D2D0002BD0B1E0687C297C00020843697A2A7A65
:10D2E00009021143727A337A12021A4300920191B1
:10D2F000029068792A79010211437079327900022B
:10D3000010430B460246FEF71FFB95E0687C297C24
:10D31000020268790A432B79010219437079337943
:10D3200000021843FEF7E4F986E0687D297D0002DB
:10D3300008434849C8806879297903020B43687A11
:10D34000297A000208431918207C3279091A491EEB
:10D3500089B28E467179377A09021143727A1B18A5
:10D3600012023A438A18121A521E08189BB23A49FE
:10D370009C468F6892B280B273466146B847707916
:10D38000317900020843217C41186846C1806879E0
:10D39000297900020843217C41186846018170798F
:10D3A000317900020843717A327A00E04DE00902D7
:10D3B00011434018217C411A6846418168792979D6
:10D3C00000020843697A2A7A090211434018217C35
:10D3D000411A68468181687E297E000208431D4902
:10D3E000C880687D297D000208431A498880E07B57
:10D3F000A27B0102114368460180214620314A7810
:10D40000427100220271E27F82700978C170204669
:10D410002230F3F753FD04A90131F3F759FD617B85
:10D4200068468173687C2A7C010211436846C17397
:10D43000090A017403F0FEFF20462830F3F73EFD91
:10D44000020002D008990798904709B0F0BD00008B
:10D450000680000000000020640D000070B5144636
:10D460000D46002807D00F30F3F728FD020002D048
:10D4700021462846904770BD70B514460D460028D9
:10D4800007D02330F3F71AFD020002D021462846C8
:10D49000904770BD70B50D460749144609780129BB
:10D4A00009D1002807D03E30F3F708FD020002D072
:10D4B00021462846904770BD6D480100704770B501
:10D4C00014460D46002807D02330F3F7F7FC02007E
:10D4D00002D021462846904770BD70B515460E46CD
:10D4E000040010D020461830F3F7E8FC020002D008
:10D4F000294630469047E07D002805D0002120468F
:10D50000E17504F083FD70BD0121F8E770B51446A4
:10D510000D46002807D01A30F3F7D0FC020002D0E5
:10D5200021462846904770BD70B514460D46002828
:10D5300007D01F30F3F7C2FC020002D02146284674
:10D54000904770BD70B514460D46002807D00F30C7
:10D55000F3F7B4FC020002D021462846904770BD84
:10D5600070B514460D46002807D01C30F3F7A6FC12
:10D57000020002D021462846904770BD70B514467F
:10D580000D46002807D01830F3F798FC020002D0AF
:10D5900021462846904770BD70B50D46094914468E
:10D5A000097801290DD108490968002909D0002806
:10D5B00007D01C30F3F782FC020002D02146284637
:10D5C000904770BD6C4801000401002070B51446FE
:10D5D0000D46002807D03530F3F770FC020002D06A
:10D5E00021462846904770BD70B514460D46002868
:10D5F00007D02730F3F762FC020002D0214628460C
:10D60000904770BD70B514460D46002807D02230F3
:10D61000F3F754FC020002D021462846904770BD23
:10D6200070B514460D46002807D02630F3F746FCA7
:10D63000020002D021462846904770BD70B51446BE
:10D640000D46002807D00D30F3F738FC020002D059
:10D6500021462846904770BD70B514460D460028F7
:10D6600007D01B30F3F72AFC020002D021462846DF
:10D67000904770BD002801D00020704700487047D7
:10D6800001000100004870470600030070B5144611
:10D690000D46002807D02D30F3F710FC020002D011
:10D6A00021462846904770BDF7B586B000287DD04A
:10D6B0004178027809021143684A0446914275D1C3
:10D6C000617B451CE01C032904D002291ED00129DE
:10D6D0002BD0B8E0697D2B7D0A02417A1A430B02F8
:10D6E000067A697A33432E7A090231430193029212
:10D6F0000091417900790902014368792A79000291
:10D7000010430B460246FEF71FF99CE0697D2B7D16
:10D710000A0241790079090201431A4368792B7999
:10D7200000021843FDF7E4FF8DE0697E2A7E0902BE
:10D7300011434B4A0646D180417900790B02717A38
:10D740000343327A080210431918207C2A79091AF7
:10D75000491E89B28E4669792F7A090211436A7A85
:10D760001B1812023A438A18121A521E08189BB24A
:10D770003C499C468F6892B280B273466146B84776
:10D78000687F297F000208433549C880687E297E6A
:10D7900000020843324988806879297900020843E9
:10D7A000217C41186846C180717900E054E03279EB
:10D7B0000802217C10434118684601816879297963
:10D7C00000020843697A2A7A090211434018217C31
:10D7D000411A68464181717930790902727A0143B0
:10D7E000337A100218430818217C411A6846818157
:10D7F000687F297F000208431949C880E07BA27B2B
:10D800000102114368460180214620314A78427165
:10D8100000220271E27F82700978C17020462230B6
:10D82000F3F74CFB04A90131F3F752FB617B684627
:10D830008173687D2A7D010211436846C173090A1C
:10D84000017403F0F7FD20462C30F3F737FB02009C
:10D8500002D008990798904709B0F0BD06800000F3
:10D8600000000020640D000070B514460D4600282D
:10D8700007D01330F3F722FB020002D021462846DE
:10D88000904770BDF7B584B0002868D007460025E2
:10D890001E30F3F713FB04466D1CEDB20A21F3F7BB
:10D8A000A9FA0028F8D1204601246E4606E00A2194
:10D8B000F3F7A0FA2A1B3031B154641CAC42F6D9FC
:10D8C000387F00212C4600282AD0A0420CD2201AF2
:10D8D000C0B23219203AD27F3255641EE4B284427B
:10D8E000F7D82E22325418E0401CC0B23022002C4F
:10D8F00008D03319203BDB7F3354401E641EC0B276
:10D90000E4B204E03254401E6D1CC0B2EDB20028F7
:10D91000EDD1684602702E2242707019417000E00D
:10D920003155F878BA7800021043B97B6B46032270
:10D93000FDF73AFD0B49884202D10BA0FBF7D0FE60
:10D9400010484168002901D068468847384627308A
:10D95000F3F7B4FA020002D006990598904707B091
:10D96000F0BD000001000600776964676574206BF4
:10D970006579494420697320696E76616C69640D2C
:10D980000A000000E847010070B50D46074914463B
:10D990000978012909D1002807D04230F3F78EFA1F
:10D9A000020002D021462846904770BD6D48010014
:10D9B00070470000F7B584B0002838D005461E3007
:10D9C000F3F77CFA064600240A2805D30A21F3F768
:10D9D00011FA641C24B2F7E7641C24B230462746CF
:10D9E0006E4608E00A21F3F705FA32193031203A81
:10D9F000641ED17724B2002CF4DC0020F055E878C6
:10DA0000AA7800021043A97B6B460322FDF7CCFCE9
:10DA10000849884202D108A0FBF762FE2846273059
:10DA2000F3F74CFA020002D006990598904707B028
:10DA3000F0BD000001000600776964676574206B23
:10DA40006579494420697320696E76616C69640D5B
:10DA50000A00000070B514460D46002807D01C309F
:10DA6000F3F72CFA020002D021462846904770BDF9
:10DA700070B514460D46002807D01E30F3F71EFA85
:10DA8000020002D021462846904770BD70B514466A
:10DA90000D46002807D02330F3F710FA020002D019
:10DAA00021462846904770BD70B514460D460028A3
:10DAB00007D01330F3F702FA020002D021462846BD
:10DAC000904770BD70B514460D46002807D0203031
:10DAD000F3F7F4F9020002D021462846904770BDC2
:10DAE00070B514460D46002807D01C30F3F7E6F950
:10DAF000020002D021462846904770BD70B50D4601
:10DB000009491446097801290DD1084909680029F5
:10DB100009D0002807D02030F3F7D0F9020002D056
:10DB200021462846904770BD6C4801000401002042
:10DB300070B515460E4600281CD004461E30F3F77B
:10DB4000BDF9030017D0E078A27800021043A17B52
:10DB50000122FDF729FC0949884202D108A0FBF700
:10DB6000BFFD20463930F3F7A9F9020002D029465B
:10DB70003046904770BD09A0F1E7000001000600A3
:10DB8000776964676574206B6579494420697320FF
:10DB9000696E76616C69640D0A00000077696467DC
:10DBA0006574207465787420706F696E7465722076
:10DBB0006973206E756C6C0D0A00000070B5144618
:10DBC0000D46002807D02B30F3F778F9020002D079
:10DBD00021462846904770BD70B514460D46002872
:10DBE00007D02630F3F76AF9020002D02146284612
:10DBF000904770BD70B515460E4600281CD00446EF
:10DC00001E30F3F75BF9030017D0E078A27800022A
:10DC10001043A17B0122FDF7C7FB0949884202D1CD
:10DC200008A0FBF75DFD20462A30F3F747F9020014
:10DC300002D029463046904770BD09A0F1E70000A8
:10DC400001000600776964676574206B6579494453
:10DC500020697320696E76616C69640D0A000000AA
:10DC6000776964676574207465787420706F696E75
:10DC7000746572206973206E756C6C0D0A0000006B
:10DC800070B514460D46002807D01130F3F716F989
:10DC9000020002D021462846904770BD70B5144658
:10DCA0000D46002807D01F30F3F708F9020002D014
:10DCB00021462846904770BD002805D0002900D095
:10DCC0000121C17100207047004870470100010028
:10DCD0000048704706000300002805D0002900D046
:10DCE0000121417500207047004870470100010084
:10DCF000002805D0002900D0012141730020704781
:10DD00000048704701000100002806D0203000299B
:10DD100000D00121017200207047014870470000C7
:10DD200001000100002805D0002900D00121C174A4
:10DD3000002070470048704701000100002804D00F
:10DD40004173090A81730020704701487047000041
:10DD500001000100002804D00175090A4175002066
:10DD6000704701487047000001000100002804D0FE
:10DD70008176090AC176002070470148704700008B
:10DD8000010001000048704706000300002804D08D
:10DD90000175090A4175002070470148704700006D
:10DDA0000100010010B5002810D0037CC47B1B02C9
:10DDB000234343731B0A8373C173090A017400214F
:10DDC00041778177C1760177084610BD004810BDC4
:10DDD00001000100002804D04173090A817300206A
:10DDE000704701487047000001000100002804D07E
:10DDF0008173090AC1730020704701487047000011
:10DE000001000100002804D00175090A41750020B5
:10DE1000704701487047000001000100002804D04D
:10DE20000175090A417500207047014870470000DC
:10DE300001000100F7B5174C0D46002808D023302B
:10DE40000646F3F73BF8002802D00024274607E0F7
:10DE50002046FEBD3046F3F731F80755641CA4B2E6
:10DE60007079317900020843A042F3D800240DE014
:10DE70007079317900020843401EA04208D930462B
:10DE8000F3F71CF80299095D0155641CAC42EFD30D
:10DE90000020FEBD01000100F7B5174C0D4600281B
:10DEA00008D022300646F3F709F8002802D00024F3
:10DEB000274607E02046FEBD3046F2F7FFFF075534
:10DEC000641CA4B27079317900020843A042F3D8EF
:10DED00000240DE07079317900020843401EA04211
:10DEE00008D93046F2F7EAFF0299095D0155641C32
:10DEF000AC42EFD30020FEBD01000100F7B588B0B1
:10DF0000174600280CD0014606461E31002001911C
:10DF1000F2F7DEFF00210D460C460A46084609E0EE
:10DF200050480BB0F0BD3B5C002B06D0641C401C7D
:10DF3000A4B280B2099B9842F5D3002004E03B5C78
:10DF40002E2B1CD0401C80B2A042F8D32220805D32
:10DF5000002819D0337FC01A80B2002916D0367F2E
:10DF600029468E4200D23146631B5C1E844202DD8C
:10DF7000181A401E82B25818144600905FE0201A0A
:10DF8000401E85B2491CE1E72046E6E7A0421AD8C8
:10DF9000201A85B214E0785D03903038092809D83A
:10DFA0000198F2F78BFF0A21484303993038401853
:10DFB000019901E000200199F2F78AFF6D1CADB2D2
:10DFC000A542E8D318E0002514E0785D03903038CE
:10DFD000092809D80198F2F771FF0A2148430399EB
:10DFE00030384018019901E000200199F2F770FFE4
:10DFF0006D1CADB2A542E8D30024357F09E001983D
:10E00000F2F75CFF0A2148430199F2F761FF641CB3
:10E01000A4B2A542F3D823E0385D05903038092832
:10E020000AD80198F2F74AFF0A2148430599303887
:10E0300040180199F2F74CFF641C0098A4B2A0426A
:10E04000EADC0024751B09E00198F2F737FF0A218A
:10E0500048430199F2F73CFF641CA4B2A542F3DCEB
:10E0600000205EE701000100F7B5194D82B00E46B1
:10E07000002809D004460A300090F2F71FFF00285C
:10E0800002D000252F4608E0284605B0F0BD0098D4
:10E09000F2F714FF47556D1CADB2E07BA17B000287
:10E0A0000843A842F3D800250DE0E07BA17B0002E5
:10E0B0000843401EA84208D90098F2F7FFFE0499D1
:10E0C000495D41556D1CB542EFD30020DDE70000EE
:10E0D000010001000048704706000300F8B516462D
:10E0E0000F46002809D0014604461E310020009149
:10E0F000F2F7EEFE0025284608E01748F8BD315C2F
:10E10000002905D06D1C401CADB280B2B842F6D3D8
:10E110002034A078002801D0A84201D3002416E0C2
:10E12000281A84B213E0375D38463038092808D8F9
:10E130000098F2F7C3FE0A2148433038C01900990D
:10E1400001E000200099F2F7C3FE641CA4B2AC42C7
:10E15000E9D30020F8BD000001000100F7B51B4C19
:10E1600082B00E46002809D0054614300090F2F720
:10E17000A5FE002802D00024274608E0204605B06E
:10E18000F0BD0098F2F79AFE0755641CA4B2687EB1
:10E19000297E00020843A042F3D800240FE0687EE5
:10E1A000297E00020843401EA0420AD90498075D58
:10E1B000002F06D00098F2F781FE0755641CB44288
:10E1C000EDD3AC76200AE8760020D8E70100010004
:10E1D000F7B5234D82B00F4600280AD004461E3002
:10E1E0000090F2F76BFE002803D000252646223669
:10E1F00009E0284605B0F0BD0098F2F75FFE002167
:10E2000041556D1CADB27078317800020843A842C8
:10E21000F2D8002511E07078317800020843401EE2
:10E22000A8420CD90498405D0190002807D00098BE
:10E23000F2F744FE019941556D1CBD42EBD3ADB2DE
:10E24000214621310D73280A48730098F2F736FEF3
:10E25000214640192F31F2F73BFE0020CAE70000AB
:10E2600001000100F7B5194D82B00E4600280AD012
:10E2700004461E300090F2F721FE002803D000254E
:10E280002F46223408E0284605B0F0BD0098F2F78A
:10E2900015FE47556D1CADB2607821780002084329
:10E2A000A842F3D800250DE06078217800020843E9
:10E2B000401EA84208D90098F2F700FE0499495D73
:10E2C00041556D1CB542EFD30020DDE70100010090
:10E2D000002807D020308170002901D001218170F1
:10E2E00000207047004870470100010010B50A4641
:10E2F000002806D001461E311046F2F7E9FD002045
:10E3000010BD014810BD000001000100FEB500284D
:10E3100010D00446480005192235687D2E7D030281
:10E32000D0B2009033438800002B05D00027061997
:10E33000263614E01848FEBD00192630F2F7BEFD5F
:10E3400000990170687D297D000208431DE0F2F705
:10E35000B5FD0199C91B4A1E825C42547F1C687D31
:10E36000297D000208430190B8423046EFDCF2F705
:10E37000A5FD00990170687D297D00020843A17AFE
:10E38000627A09021143884203D2401C2875000AB0
:10E3900068750020FEBD00000100010010B50A46AE
:10E3A000002805D0811D1046F2F792FD002010BD17
:10E3B000004810BD0100010000487047060003003E
:10E3C00010B50A46002806D001461E311046F2F765
:10E3D0007FFD002010BD014810BD000001000100BC
:10E3E000002806D0C175002901D00121C175002087
:10E3F00070470148704700000100010070B5002817
:10E400000AD0FF2568350446A94207D906A0FBF7C4
:10E4100067F9A575280A03E00F4870BDA175080AC1
:10E42000E075002070BD0000636F6E74726F6C2029
:10E4300076616C75652070726F7065727479206F8B
:10E440007574206F662072616E67652028302D33E9
:10E45000353929210D0A00000100010010B50028FE
:10E4600008D00446642907D905A0FBF739F96420D0
:10E47000E07302E00E4810BDC173002010BD000023
:10E48000636F6E74726F6C2076616C75652070724C
:10E490006F7065727479206F7574206F6620726179
:10E4A0006E67652028302D31303029210D0A00009B
:10E4B0000100010070B500280AD0FF256935441C11
:10E4C000A94207D906A0FBF70BF92577280A03E034
:10E4D0000F4870BD2177080A6077002070BD0000EA
:10E4E000636F6E74726F6C2076616C7565207072EC
:10E4F0006F7065727479206F7574206F6620726119
:10E500006E67652028302D33363029210D0A000032
:10E510000100010010B5002809D00446642908D97B
:10E5200006A0FBF7DDF864202077002003E00F4809
:10E5300010BD2177080A6077002010BD636F6E74EC
:10E54000726F6C2076616C75652070726F70657289
:10E550007479206F7574206F662072616E67652014
:10E5600028302D31303029210D0A00000100010032
:10E57000F8B51446050010D08C4202D990B20C4672
:10E580000146FF272E4669372136B94207D90CA02C
:10E59000FBF7A6F83771380A03E01548F8BD31716A
:10E5A000080A23357071BC4205D905A0FBF798F81D
:10E5B0002F70380A01E02C70200A68700020F8BD26
:10E5C000636F6E74726F6C2076616C75652070720B
:10E5D0006F7065727479206F7574206F6620726138
:10E5E0006E67652028302D33363029210D0A000052
:10E5F00001000100002802D0C174002070470148CA
:10E600007047000001000100704770B514460D46C8
:10E6100000280DD006463146606800F021FB3046E8
:10E620002F30F2F74BFC020002D0214628469047DB
:10E6300070BD70B514460D4600280DD00646314613
:10E64000606800F043FC30462A30F2F737FC0200E5
:10E6500002D021462846904770BD70B514460D463D
:10E66000002807D00C30F2F729FC020002D0214626
:10E670002846904770BD7047F8B515460E460028ED
:10E680001BD0027FC37E110219430446012909D021
:10E69000611CA37F0A46677F19023943491C117721
:10E6A000090A517703F00CFE20462B30F2F706FCE6
:10E6B000020002D0294630469047F8BD70B5144696
:10E6C0000D4600280BD0064605F02CF830464130A8
:10E6D000F2F7F4FB020002D021462846904770BDB5
:10E6E000F8B515460F46002824D0827E467E1302D8
:10E6F0003343067CC27B3602411C16430446B342B8
:10E7000003D25B1C0B761A0A08E0227D002A06D091
:10E710004A7B0B7B12021A430A76120A4A7605F0EC
:10E7200097FC20462730F2F7C9FB020002D02946A9
:10E7300038469047F8BD70B514460D4600280BD0FA
:10E74000064602F0DBFB30463130F2F7B7FB020041
:10E7500002D021462846904770BD000070B515468E
:10E760000E46040012D04178027809021143084A8B
:10E7700091420BD120463030F2F7A0FB020002D0CC
:10E78000294630469047204602F026FD70BD000025
:10E7900006800000F7B584B01546002825D0044651
:10E7A000421C807B137B01021943237BE67A1B0208
:10E7B0003343567A177A36023E430096019302910C
:10E7C000217AE0790902014350791279000210435D
:10E7D0000B460246FDF7B8F820461730F2F76EFBFD
:10E7E000020002D029460598904707B0F0BD70B5E9
:10E7F00014460D4600280BD0064602F0EFFF3046C7
:10E800002B30F2F75BFB020002D0214628469047EE
:10E8100070BD000070B504460A48154600780E46E3
:10E8200001280DD1002C0BD0204603F0DFF9204643
:10E830004630F2F743FB020002D0294630469047AB
:10E8400070BD00006D480100704770B515460E465A
:10E8500004000AD003F00CFA20462B30F2F72EFB0E
:10E86000020002D029463046904770BD70B515466B
:10E870000E4604000BD020462030F2F71FFB0200AA
:10E8800002D0294630469047204603F0BFFB70BDBA
:10E8900070B514460D46002807D02230F2F70EFB63
:10E8A000020002D021462846904770BD70B514463C
:10E8B0000D46002807D02730F2F700FB020002D0F7
:10E8C00021462846904770BD70B515460E46002873
:10E8D0000BD0044604F081FC20461730F2F7EEFA24
:10E8E000020002D029463046904770BD70B51546EB
:10E8F0000E46002816D00446407E217E00020843C2
:10E9000009498842204602D104F07AFC01E0F7F779
:10E91000D7FF20462430F2F7D1FA020002D0294670
:10E920003046904770BD0000FFFF000070B51546EF
:10E930000E4604000AD004F0F3FC20462030F2F723
:10E94000BDFA020002D029463046904770BD000053
:10E9500070B504460C48154600780E46012811D1C2
:10E960000A48006800280DD0002C0BD0204604F087
:10E970009DFD20462430F2F7A1FA020002D029467C
:10E980003046904770BD00006C4801000401002033
:10E9900070B514460D46002807D03D30F2F78EFAC8
:10E9A000020002D021462846904770BDF7B584B0DA
:10E9B000174604007ED0617B2246E01C21320229EA
:10E9C00004D003293BD0012951D08FE0A37D611CE5
:10E9D000022B02D0012B0BD088E0657D267D2B0217
:10E9E0003343457D067D2D023543009501950BE0AF
:10E9F000657D267D2B023343457D067D2D02354303
:10EA00006E1CB6B2009601960293537812781B02E0
:10EA100013436A089D1A437906791B023343467FE4
:10EA2000007F36020643B01A4A790979EB1A1202BE
:10EA30000A43811A8AB29BB2A9B280B214E0637D04
:10EA4000217D1B020B43417D057D09022943009175
:10EA5000029301915178127809021143427F037F9A
:10EA6000100218430B460246FCF76EFF3EE0A37D02
:10EA70002549022B02D0012B20D037E0E57BA67B75
:10EA80002B023343CB805178127809021143427D27
:10EA9000037D12021A4355084A1993B2427F067F3A
:10EAA000100230434219491B401B92B289B280B216
:10EAB000164D00E026E0AD68A84717E0E57BA67B91
:10EAC0002B023343CB80417F037F090219436B46FE
:10EAD000198051781278090211435980417D027DD5
:10EAE0000802104341080098FCF7EEFF2046F9F7B2
:10EAF00033F820463330F2F7E1F9020002D039460C
:10EB00000598904707B0F0BD00000020640D00009C
:10EB1000F7B584B0040079D0A37B2146621C203174
:10EB2000E71CA01C022B04D0032B28D0012B42D0C1
:10EB300060E0537C9446157C1A022A43E37EA57E4E
:10EB40001B022B43657E267E2D02354300950193E3
:10EB500002924A780B78110219437A793B791202B2
:10EB60001A438A1A93B2427F057F100228436246F5
:10EB7000557912792D021543421B92B218E0537C4D
:10EB8000157C1A022A43E57EA67E2B023343657E5E
:10EB9000267E2D0235430095019302924A780B7828
:10EBA00011021943427F037F100218430B460246AD
:10EBB000FCF7CAFE1EE07A7B3B7B12021A43144B21
:10EBC000DA804A780B7811021943E37EA57E1A0297
:10EBD0002A438A18521E93B2427F057F10022843AF
:10EBE000627E257E12022A430A4D8218521EAD68AB
:10EBF00092B2A8472046F9F76DF820462E30F2F77A
:10EC00005DF9020002D006990598904707B0F0BD63
:10EC100000000020640D000070B515460E4604008B
:10EC20000AD005F0BDF820462E30F2F747F9020071
:10EC300002D029463046904770BD70B515460E4645
:10EC400000280BD0044605F003FA20462330F2F7E3
:10EC500035F9020002D029463046904770BD0000C9
:10EC6000F0B5427803781702C278807815021F4306
:10EC700005438BB000297DD00791491C0491487948
:10EC80000A79000210434A7A0B7A110219434908A3
:10EC9000401880B26946888007990090087ACA793E
:10ECA000000210430A7BCB7A11021943490840182D
:10ECB00086B26946CE80AE4205D10098B84201D2F4
:10ECC000002400E0B4240098B84205D1AE4201D23D
:10ECD0005A2401E0FF240F34AE4230D2B8422ED283
:10ECE000A81BF2F79BFA05900098381AF2F796FAEB
:10ECF000014601270598F2F78AF9099005907049B5
:10ED0000B800704A09581058F2F781F9014600908E
:10ED10000598F2F743FB04D20099059803E0BCB2D2
:10ED2000ADE005990098F2F72DF967490968F2F707
:10ED30002BFBF4D37F1C5A2F7EDA0998DEE7AE4214
:10ED400032D2B84230D9A81BF2F768FA0590009881
:10ED5000C01BF2F763FA014601270598F2F757F94D
:10ED6000099005905649B800564A09581058F2F7CC
:10ED70004EF900E0A1E0014600900598F2F70EFB85
:10ED800002D20099059801E005990098F2F7FAF887
:10ED90004D490968F2F7F8FA01D2B4205EE07F1C11
:10EDA0005A2F6CDA0998DCE7AE4230D9B8422ED936
:10EDB000701BF2F733FA05900098C01BF2F72EFA99
:10EDC000014601270598F2F722F9099000903C4985
:10EDD000B8003C4A09581058F2F719F90146059055
:10EDE0000098F2F7DBFA04D20599009803E0B437F3
:10EDF00095E700990598F2F7C5F833490968F2F7E5
:10EE0000C3FAF4D37F1C5A2F39DA0998DEE7AE42F1
:10EE100035D9B84233D2701BF2F700FA059000984A
:10EE2000381AF2F7FBF9014601270598F2F7EFF8D7
:10EE300009900590B80000E021E02149214A0958D5
:10EE40001058F2F7E4F8014600900598F2F7A6FA98
:10EE500007D20099059806E0FF206930C01B84B2F4
:10EE60000DE005990098F2F78DF817490968F2F757
:10EE70008BFAF1D37F1C5A2F01DA0998D9E7FF20CA
:10EE80006A30844205D9AE4202D9FF240F3400E033
:10EE90005A24079823304178027808021043A04290
:10EEA0000BD8079821304179027908021043A0421B
:10EEB00003D30498210A047741770BB0F0BD00001A
:10EEC00050740100AC6E01004402002070B542781D
:10EED000037812021A43C378847818022043002969
:10EEE00020D00C46497B00291DD0227AE3791202FA
:10EEF0001A43237BE57A190229435218824200D231
:10EF000090B2E37EA57E1B022B43C91A89B2101A68
:10EF100064225043F1F76EFF642800D36420207709
:10EF2000000A607770BDA179607A0B02A17A6579D9
:10EF300009020143607E267E2B4300025D183043A8
:10EF40002D1A954200DAAAB2081A81B2D01ADFE768
:10EF5000F3B583B0F4F72AFA00900020014601903F
:10EF6000049801600098002839D05F4D3520296849
:10EF70008847040024D02869002804D003462922A9
:10EF8000204603999847286800280BD02146233152
:10EF90000E464879097900020843296888473146B6
:10EFA000F1F796FF204623300746F1F787FF002848
:10EFB0000CD0787939790002084332D000261BE062
:10EFC00068680028D0D00146009807E068680028EB
:10EFD000CAD001460098884769682046884781E082
:10EFE0003846F1F76BFF00218155787939790002B5
:10EFF0000843761CB6B2019078793979000208434B
:10F00000B042EDD8286900280FD03846F1F756FFF6
:10F0100079793B790A021A4303992B692931984778
:10F0200003E039460020F1F753FFA17963790A0222
:10F03000A17A607A09021A43014350182B4A2C4ED8
:10F04000138898420BD8237AE0791B020343207B74
:10F05000E77A0002384352881B1893420ED925A044
:10F06000FAF73EFB6868002805D0014600988847FB
:10F07000696820468847304605B0F0BD22462032F8
:10F080009378002B01D001239370227C520091428F
:10F0900001D3904208D2814201D8480800E04008DC
:10F0A000207420A0FAF71CFB214629310020F1F73B
:10F0B0000FFF21462D310020F1F70AFF21463131A3
:10F0C0000020F1F705FF00980460FCF70DFE002812
:10F0D00008D00099F6F764FC01980499293008607B
:10F0E0000020C9E71948C7E7E847010000000020F1
:10F0F000010002004572726F722073657474696E4C
:10F100006720636F6E74726F6C206C6F63617469DB
:10F110006F6E20696E666F726D6174696F6E210D1E
:10F120000A000000436F6E74726F6C20626F72642D
:10F13000657220776964746820697320746F6F202A
:10F140006C61726765210D0A00000000010001007A
:10F15000F3B583B0F4F72AF900900020014601903E
:10F16000049801600098002839D05C4C3420216854
:10F170008847050024D02069002804D003462822AF
:10F18000284603999847206800280BD02946223149
:10F190000E464879097900020843216888473146BC
:10F1A000F1F796FE284622300746F1F787FE002841
:10F1B0000CD0787939790002084332D000261BE060
:10F1C00060680028D0D00146009807E060680028F9
:10F1D000CAD00146009888476168284688477AE087
:10F1E0003846F1F76BFE00218155787939790002B4
:10F1F0000843761CB6B20190787939790002084349
:10F20000B042EDD8206900280FD03846F1F756FEFD
:10F2100079793B790A021A4303992369283198477F
:10F2200003E039460020F1F753FEA9796B790A0211
:10F23000A97A687A09021A4301435018284A294ECC
:10F24000138898420BD82B7AE8791B020343287B5A
:10F25000EF7A0002384352881B1893420ED922A03D
:10F26000FAF73EFA6068002805D001460098884702
:10F27000616828468847304605B0F0BD2A7C5200B8
:10F28000914201D3904208D2814201D8480800E05F
:10F290004008287420A0FAF723FA294628310020D4
:10F2A000F1F716FE29462C310020F1F711FE294610
:10F2B00030310020F1F70CFE00980560FCF714FDDA
:10F2C000002808D00099F6F76BFB019804992830C4
:10F2D00008600020D0E71A48CEE70000E8470100A8
:10F2E00000000020010002004572726F72207365F9
:10F2F0007474696E6720636F6E74726F6C206C6FCC
:10F30000636174696F6E20696E666F726D61746996
:10F310006F6E210D0A000000436F6E74726F6C20D7
:10F32000626F726465722077696474682069732003
:10F33000746F6F206C61726765210D0A0000000018
:10F3400001000100F3B581B00746F4F72FF8064637
:10F3500000210298002E01604FD0294D1B20296802
:10F360008847040043D02869002804D003460F22B0
:10F37000394620469847601CA17A0546214F627A9B
:10F38000080239881043884206D91FA0FAF7A8F965
:10F3900038882872000A6872207BE17A00020843EC
:10F3A0007988E51C884206D925A0FAF799F978886A
:10F3B0002872000A687221460F310020F1F788FD9B
:10F3C000214613310020F1F783FD2146173100203B
:10F3D000F1F77EFD3460FCF787FC00280DD0314644
:10F3E000F6F7DEFA02980F2101600020FEBD686882
:10F3F000002802D00146304688472048FEBD000064
:10F40000E847010000000020436F6E74726F6C20AB
:10F4100077696474682069732067726561746572C6
:10F42000207468616E20746865204C4344206469D0
:10F4300073706C6179207769647468210D0A00002B
:10F44000436F6E74726F6C206865696768742069B9
:10F45000732067726561746572207468616E2074D0
:10F460006865204C434420646973706C617920683E
:10F470006569676874210D0A000000000100010041
:10F48000F3B581B00F46F3F791FF064600203860D0
:10F49000002E70D0394D2F202968884704002FD0C6
:10F4A0002869002804D00346232220460199984762
:10F4B000A179607A0A02A17A63790902014330488E
:10F4C0001A430088521882420CD8227AE07912023C
:10F4D0000243207BE37A000218431318284A52881B
:10F4E000934214D927A0FAF7FBF86868002805D0E2
:10F4F0000146304688476968204688472D48FEBD4A
:10F500006868002837D001463046884733E0627C7F
:10F510005200914201D3904208D2814201D848085A
:10F5200000E04008607424A0FAF7DAF821462031A0
:10F530008A78002A04D0207F824201D8401C88703B
:10F54000214623310020F1F7C3FC2146273100205A
:10F55000F1F7BEFC21462B310020F1F7B9FC3460F5
:10F56000FCF7C2FB002806D03146F6F719FA232033
:10F5700038600020FEBD1A48FEBD0000E8470100CB
:10F58000000000204572726F722073657474696E9A
:10F590006720636F6E74726F6C206C6F6361746947
:10F5A0006F6E20696E666F726D6174696F6E210D8A
:10F5B0000A00000001000200436F6E74726F6C203D
:10F5C000626F726465722077696474682069732061
:10F5D000746F6F206C61726765210D0A0000000076
:10F5E00001000100F3B506464F4881B000780128BC
:10F5F00001D04E48FEBDF3F7D9FE07460020029920
:10F60000002F08603DD04A4D4A20296888470400F1
:10F6100031D02869002804D00346262231462046EE
:10F620009847601C0090A179627909021143A27A7F
:10F63000637A1002184308183E493F4E0A889042E8
:10F640000BD8227AE37912021A43237BE07A1B0259
:10F6500003434988D018884214D938A0FAF740F8F3
:10F660006868002805D00146384688476968204602
:10F6700088473046FEBD6868002852D001463846AB
:10F6800088474EE00026B000011900202631F1F72E
:10F690001FFC761C042EF6DB0026617C701C814268
:10F6A00020DB0098417A027A0802296810438847D3
:10F6B000B10009192631F1F70BFC8446002811D05E
:10F6C000E868002808D00098EB68417A007A0A02BE
:10F6D0000243002160469847710000200919223139
:10F6E00008754875761C042ED7DB21463E31002074
:10F6F000F1F7EEFB214642310020F1F7E9FB21460C
:10F7000046310020F1F7E4FB3C60FCF7EDFA0028FD
:10F7100007D03946F6F744F9029826210160002007
:10F72000FEBD1248FEBD00006D480100010003004F
:10F73000E847010000000020010002004572726FDE
:10F74000722073657474696E6720636F6E74726F74
:10F750006C206C6F636174696F6E20696E666F7286
:10F760006D6174696F6E210D0A00000001000100D7
:10F77000F3B581B00F46F3F719FE06460020386056
:10F78000002E24D0134C102021688847050018D083
:10F790002069002804D0034608222846019998478A
:10F7A00029460C310020F1F793FB3560FCF79CFAF9
:10F7B00000280CD03146F6F7F3F808203860002016
:10F7C000FEBD6068002802D00146304688470248E6
:10F7D000FEBD0000E847010001000100F3B581B063
:10F7E000F3F7E4FD0026029907460E6000286DD06D
:10F7F000374D102029688847040024D02869002844
:10F8000004D00346102220460199984730480068EA
:10F8100000280AD0E07BA17B000208432C4909683C
:10F82000884721460A31F1F753FB20460A30009001
:10F83000F1F744FB00280CD0E07BA17B00020843D9
:10F8400033D000251BE0686800283FD001463846C9
:10F8500008E01F4D6868002838D0014638468847C0
:10F8600069682046884731E00098F1F727FB0021BE
:10F870004155E07BA17B06020E436D1CADB2E07BDF
:10F88000C9B200020843A842EED8114D28690028E9
:10F890000FD00098F1F712FBE17BA37B0A021A4319
:10F8A00001992B691031984703E000200099F1F786
:10F8B0000FFB3C60FCF718FA002807D03946F6F732
:10F8C0006FF80298103606600020FEBD0148FEBDAC
:10F8D000E84701000100010000200860004870476F
:10F8E00001000300F3B581B00F46F3F75FFD064654
:10F8F00000203860002E66D0344D2F2029688847BC
:10F9000004003FD02869002804D003462322204663
:10F9100001999847214623310020F1F7D9FA214671
:10F9200027310020F1F7D4FA21462B310020F1F7DE
:10F93000CFFA3460A179607A0A02A17A6379090268
:10F94000014323481A430088521882420CD8227A75
:10F95000E07912020243207BE37A00021843131875
:10F960001B4A5288934214D91AA0F9F7B9FE686865
:10F97000002805D0014630468847696820468847F8
:10F980002048FEBD686800281DD0014630468847E3
:10F9900019E0627C5200914201D3904208D2814228
:10F9A00001D8480800E04008607417A0F9F798FEF5
:10F9B000FCF79AF9002806D03146F5F7F1FF23202D
:10F9C00038600020FEBD1A48FEBD0000E847010077
:10F9D000000000204572726F722073657474696E46
:10F9E0006720636F6E74726F6C206C6F63617469F3
:10F9F0006F6E20696E666F726D6174696F6E210D36
:10FA00000A00000001000200436F6E74726F6C20E8
:10FA1000626F72646572207769647468206973200C
:10FA2000746F6F206C61726765210D0A0000000021
:10FA300001000100F3B581B00F46F3F7B7FC0646AD
:10FA400000203860002E5BD02E4D24202968884786
:10FA500004002ED02869002804D00346182220462E
:10FA600001999847A179627909021143A27A637AD0
:10FA700010021843081824490A8890420BD8227AA9
:10FA8000E37912021A43237BE07A1B02034349887D
:10FA9000D018884214D91DA0F9F722FE6868002802
:10FAA00005D0014630468847696820468847234884
:10FAB000FEBD6868002823D00146304688471FE015
:10FAC000E07D002801D00120E0752146183100209A
:10FAD000F1F7FEF921461C310020F1F7F9F9214632
:10FAE00020310020F1F7F4F93460FCF7FDF800282C
:10FAF00006D03146F5F754FF182038600020FEBDCF
:10FB00000F48FEBDE8470100000000204572726FFB
:10FB1000722073657474696E6720636F6E74726FA0
:10FB20006C206C6F636174696F6E20696E666F72B2
:10FB30006D6174696F6E210D0A0000000100020002
:10FB400001000100F3B581B00F46F3F72FFC064624
:10FB500000203860002E38D01D4D262029688847A7
:10FB600004002CD02869002804D003461222204625
:10FB70000199984721461A310020F1F7A9F9214649
:10FB80001E310020F1F7A4F9214612310020F1F7CF
:10FB90009FF9214616310020F1F79AF921462231CA
:10FBA0000020F1F795F93460FCF79EF800280CD09E
:10FBB0003146F5F7F5FE122038600020FEBD68687A
:10FBC000002802D00146304688470248FEBD0000AA
:10FBD000E847010001000100F3B581B00746F3F7E3
:10FBE000E5FB064600200299002E086061D0324DE8
:10FBF0002F2029688847040032D02869002804D0C3
:10FC000003461722394620469847601C0090A17988
:10FC1000627909021143A27A637A10021843081824
:10FC200026490A8890420DD8227AE3791202E01C14
:10FC30001A430746237BE07A1B0203434988D01806
:10FC4000884214D91EA0F9F74BFD6868002805D03A
:10FC50000146304688476968204688472448FEBDEB
:10FC60006868002825D001463046884721E02146B3
:10FC70001F310020F1F72CF9214623310020F1F744
:10FC800027F9214627310020F1F722F900203876A4
:10FC900078760099087748773460FCF725F80028D3
:10FCA00007D03146F5F77CFE02981721016000204D
:10FCB000FEBD1048FEBD0000E84701000000002026
:10FCC0004572726F722073657474696E6720636F1A
:10FCD0006E74726F6C206C6F636174696F6E2069F3
:10FCE0006E666F726D6174696F6E210D0A0000009F
:10FCF0000100020001000100F3B581B00F46F3F7E7
:10FD000055FB064600203860002E56D02C4C1B2098
:10FD10002168884705002ED02069002804D00346BA
:10FD20000F22284601999847A9796A790902114357
:10FD3000AA7A6B7A10021843081822490A8890425E
:10FD40000BD82A7AEB7912021A432B7BE87A1B0232
:10FD500003434988D018884214D91BA0F9F7C0FC86
:10FD60006068002805D0014630468847616828460B
:10FD700088472148FEBD606800281ED001463046F5
:10FD800088471AE029460F310020F1F7A1F82946EB
:10FD900013310020F1F79CF8294617310020F1F7C4
:10FDA00097F83560FBF7A0FF002806D03146F5F73D
:10FDB000F7FD0F2038600020FEBD1048FEBD00009A
:10FDC000E8470100000000204572726F72207365E1
:10FDD0007474696E6720636F6E74726F6C206C6FE1
:10FDE000636174696F6E20696E666F726D617469AC
:10FDF0006F6E210D0A0000000100020001000100E9
:10FE0000F3B581B00F46F3F7D1FA0646002038600B
:10FE1000002E6BD0374D28202968884704002ED04B
:10FE20002869002804D003461822204601999847E3
:10FE3000A179627909021143A27A637A1002184308
:10FE400008182D490A8890420BD8227AE3791202C9
:10FE50001A43237BE07A1B0203434988D018884267
:10FE600014D926A0F9F73CFC6868002805D00146A3
:10FE7000304688476968204688472C48FEBD686838
:10FE8000002833D00146304688472FE0E07DA17D31
:10FE90000002FF2508436835A84205D924A0F9F7D8
:10FEA0001FFCA575280AE0752D482076010A6176A9
:10FEB000A076000AE07621461C310020F1F708F810
:10FEC000214620310020F1F703F82146243100209B
:10FED000F0F7FEFF3460FBF707FF002806D031463D
:10FEE000F5F75EFD182038600020FEBD1C48801C20
:10FEF000FEBD0000E8470100000000204572726F5F
:10FF0000722073657474696E6720636F6E74726FAC
:10FF10006C206C6F636174696F6E20696E666F72BE
:10FF20006D6174696F6E210D0A000000010002000E
:10FF3000636F6E74726F6C2076616C756520707281
:10FF40006F7065727479206F7574206F66207261AE
:10FF50006E67652028302D33353929210D0A0000C0
:10FF6000FFFF0000F3B581B00F46F3F71FFA064616
:10FF700000203860002E5ED0304D2420296888474C
:10FF800004002ED02869002804D0034618222046F9
:10FF900001999847A179627909021143A27A637A9B
:10FFA00010021843081826490A8890420BD8227A72
:10FFB000E37912021A43237BE07A1B020343498848
:10FFC000D018884214D91FA0F9F78AFB6868002866
:10FFD00005D001463046884769682046884725484D
:10FFE000FEBD6868002826D001463046884722E0DA
:10FFF000E07B642804D920A0F9F772FB6420E07349
:020000040001F9
:10000000214618310020F0F763FF21461C31002003
:10001000F0F75EFF214620310020F0F759FF3460F1
:10002000FBF762FE002806D03146F5F7B9FC182030
:1000300038600020FEBD1C48FEBD0000E8470100FE
:10004000000000204572726F722073657474696ECF
:100050006720636F6E74726F6C206C6F636174697C
:100060006F6E20696E666F726D6174696F6E210DBF
:100070000A00000001000200636F6E74726F6C2052
:1000800076616C75652070726F7065727479206F1F
:100090007574206F662072616E67652028302D317F
:1000A000303029210D0A000001000100F3B583B0B2
:1000B0000499002755480F600078012802D0544861
:1000C00005B0F0BD53480068002831D0F3F76EF951
:1000D0000600FAD0504D282029688847040021D016
:1000E0002869002804D003461A222046039998471D
:1000F0002046143000900190F0F7E0FEA076000A50
:10010000E076607E217E0002084343490968884703
:100110000199F0F7DDFE607E217E0002084329D0C0
:10012000002511E0686800286DD0014630468847F8
:1001300069E00098F0F7C2FE00214155607E217E03
:1001400007020F436D1CADB2607EC9B200020843C6
:10015000A842EED8304D286900280FD00098F0F75B
:10016000ADFE617E237E0A021A4303992B691A3180
:10017000984703E000200099F0F7AAFEA179627980
:1001800009021143A27A637A10021843081823491E
:10019000234D0A8890420BD8227AE37912021A433F
:1001A000237BE07A1B0203434988D01888420ED98A
:1001B0001CA0F9F795FA184F7868002805D0014679
:1001C00030468847796820468847284678E72146A0
:1001D0001C310020F0F77CFE214620310020F0F792
:1001E00077FE214624310020F0F772FE3460FBF7E1
:1001F0007BFD002807D03146F5F7D2FB04981A376B
:10020000076000205CE713485AE700006C480100D3
:100210000100030004010020E84701000000002065
:10022000010002004572726F722073657474696E0A
:100230006720636F6E74726F6C206C6F636174699A
:100240006F6E20696E666F726D6174696F6E210DDD
:100250000A00000001000100F3B58FB0F3F7A6F823
:10026000039000200690109908600398002844D05D
:10027000864D45202968884704002FD0286900282A
:1002800004D00346292220460F99984720461E3065
:100290000190F0F713FE01462046213005900173CE
:1002A000090A4173286800280AD020462230417884
:1002B000027808022968104388470199F0F708FE80
:1002C0000198F0F7FBFD00280ED026462236707804
:1002D00031780002084366D000271BE068680028D8
:1002E000C5D00146039807E068680028BFD00146E2
:1002F00003988847696820468847C4E00198F0F76A
:10030000DDFD0021C15570783178000208437F1C63
:10031000BFB206907078317800020843B842EDD839
:10032000286900280AD00198F0F7C8FD7178337861
:100330000A021A430F992B69293198470198F0F75F
:10034000BDFD71783278090211434118002020392F
:10035000C8772820005D0028019808D0F0F7AEFD8E
:1003600005994A7B0B7B11021943401801E0F0F715
:10037000A5FD21462F31F0F7ABFD207CE17B020289
:100380000A43E71C424907A8FCF73AF807AE0FCE2C
:100390000FC66846808E00280DD03EA0F9F7A0F960
:1003A000424811B0F0BD00200199F0F791FD2146BF
:1003B0002F310020DFE7A079627901021143A07A92
:1003C000627A000210430A183949661C0B889A4267
:1003D0000BD87A793B7912021A437B7A3F7A1B0257
:1003E0003B434988D2188A420ED932A0F9F778F9EE
:1003F0006868002805D00146039888476968204648
:1004000088472A48401ECCE7617C4900884201D3D6
:100410008B4208D2984201D8400800E05808607426
:1004200030A0F9F75DF9707931790002084321466F
:1004300023310874000A4874891D0020F0F748FD34
:10044000214635310020F0F743FD214639310020A7
:10045000F0F73EFD21463D310020F0F739FD214601
:1004600041310020F0F734FD03980460FBF73CFCB9
:10047000002808D00399F5F793FA069810992930C7
:10048000086000208DE721488BE70000E847010065
:10049000A1A30000496E636F7272656374206C697A
:1004A0006272617279204944210D0A000200020043
:1004B000000000204572726F722073657474696E5B
:1004C0006720636F6E74726F6C206C6F6361746908
:1004D0006F6E20696E666F726D6174696F6E210D4B
:1004E0000A000000436F6E74726F6C20626F72645A
:1004F000657220776964746820697320746F6F2057
:100500006C61726765210D0A0000000001000100A6
:10051000F3B581B0F2F74AFF074600260298002F94
:1005200006607DD03F4D372029688847040038D0C9
:100530002869002804D003461F22204601999847C5
:100540000021E01CE17722464177213200921170B0
:100550005170A179627909021143A27A637A120279
:100560001A438A183049661C0B889A420BD8427984
:10057000037912021A43437A007A1B020343498823
:10058000D018884214D929A0F9F7AAF86868002879
:1005900005D00146384688476968204688472F4875
:1005A000FEBD686800283BD001463846884737E0E2
:1005B000707F317F0002FF2508436935A84205D9C5
:1005C00027A0F9F78DF83577280A7077214627316B
:1005D0000020F0F77DFC21462B310020F0F778FC5D
:1005E00021462F310020F0F773FC214633310020E3
:1005F000F0F76EFC21460020233108704870009807
:10060000290A057141713C60FBF76EFB002807D099
:100610003946F5F7C5F902981F2101600020FEBD9B
:100620001B48FEBDE8470100000000204572726FC4
:10063000722073657474696E6720636F6E74726F75
:100640006C206C6F636174696F6E20696E666F7287
:100650006D6174696F6E210D0A00000001000200D7
:10066000636F6E74726F6C2076616C75652070724A
:100670006F7065727479206F7574206F6620726177
:100680006E67652028302D33363029210D0A000091
:1006900001000100F3B581B00F46F2F787FE064670
:1006A00000203860002E6FD0384D322029688847EE
:1006B000040035D02869002804D003461E222046B5
:1006C000019998470020A0772146E07720310870F3
:1006D0004870A179627909021143A27A637A100203
:1006E000184308182A490A8890420BD8227AE379DD
:1006F00012021A43237BE07A1B0203434988D01875
:10070000884214D923A0F8F7EBFF6868002805D0C9
:100710000146304688476968204688472948FEBD1B
:100720006868002830D00146304688472CE0607F5A
:10073000217F00020843642806D923A0F8F7D0FFE0
:100740006420207700206077214622310020F0F7D6
:10075000BFFB214626310020F0F7BAFB21462A31A3
:100760000020F0F7B5FB21462E310020F0F7B0FB5A
:100770003460FBF7B9FA002806D03146F5F710F9D6
:100780001E2038600020FEBD1B48FEBDE84701006A
:10079000000000204572726F722073657474696E78
:1007A0006720636F6E74726F6C206C6F6361746925
:1007B0006F6E20696E666F726D6174696F6E210D68
:1007C0000A00000001000200636F6E74726F6C20FB
:1007D00076616C75652070726F7065727479206FC8
:1007E0007574206F662072616E67652028302D3128
:1007F000303029210D0A000001000100F3B583B05B
:10080000F2F7D4FD009000200146029004980160A8
:100810000098002841D0604D3220296888470400A4
:100820002CD02869002804D00346242220460399AE
:10083000984720461E300190F0F740FB21462031BA
:100840000871000A48712868002809D0881C41787E
:10085000027808022968104388470199F0F738FBAD
:100860000198F0F72BFB00280ED027462237787826
:1008700039780002084332D000261BE0686800285F
:10088000C8D00146009807E068680028C2D0014639
:10089000009888476968204688477AE00198F0F711
:1008A0000DFB002181557878397800020843761CC9
:1008B000B6B202907878397800020843B042EDD899
:1008C000286900280FD00198F0F7F8FA79783B787A
:1008D0000A021A4303992B692431984703E0002048
:1008E0000199F0F7F5FAA17963790A02A17A607AA1
:1008F00009021A4301435018284A294E1388984286
:100900000BD8237AE0791B020343207BE77A0002AD
:10091000384352881B1893420ED922A0F8F7E0FE04
:100920006868002805D00146009888476968204615
:100930008847304605B0F0BD627C5200914201D339
:10094000904208D2814201D8480800E04008607413
:1009500020A0F8F7C5FE214626310020F0F7B8FAAE
:1009600021462A310020F0F7B3FA21462E3100202B
:10097000F0F7AEFA00980460FBF7B6F9002808D04B
:100980000099F5F70DF802980499243008600020CA
:10099000D0E71A48CEE70000E84701000000002039
:1009A000010002004572726F722073657474696E83
:1009B0006720636F6E74726F6C206C6F6361746913
:1009C0006F6E20696E666F726D6174696F6E210D56
:1009D0000A000000436F6E74726F6C20626F726465
:1009E000657220776964746820697320746F6F2062
:1009F0006C61726765210D0A0000000001000100B2
:100A0000F3B581B00F46F2F7D1FC064600203860FE
:100A1000002E2ED0184D192029688847040022D0B6
:100A20002869002804D003460D22204601999847E2
:100A300021460D310020F0F74BFA214611310020FC
:100A4000F0F746FA214615310020F0F741FA3460FC
:100A5000FBF74AF900280CD03146F4F7A1FF0D202E
:100A600038600020FEBD6868002802D0014630468C
:100A700088470248FEBD0000E84701000100010070
:100A8000F3B581B00646F2F791FC074600210298C3
:100A9000002F01605FD0314D2B202968884704006A
:100AA0002FD02869002804D003461522314620465D
:100AB0009847A079617900020843A17A627A090215
:100AC000114340182649661C0A8890420BD8227AA6
:100AD000E37912021A43237BE07A1B02034349881D
:100AE000D018884214D91FA0F8F7FAFD68680028CA
:100AF00005D001463846884769682046884725481A
:100B0000FEBD6868002826D001463846884722E0A6
:100B100021461B310020F0F7DBF921461F31002070
:100B2000F0F7D6F9214623310020F0F7D1F9707B98
:100B3000317B000208433076000A70763C60FBF798
:100B4000D3F8002807D03946F4F72AFF0298152178
:100B500001600020FEBD1048FEBD0000E847010016
:100B6000000000204572726F722073657474696EA4
:100B70006720636F6E74726F6C206C6F6361746951
:100B80006F6E20696E666F726D6174696F6E210D94
:100B90000A000000010002000100010070B50446D7
:100BA00023300646F0F78AF9094D002807D0696816
:100BB000002900D0884731460020F0F789F9E8681D
:100BC000002804D00346352200212046984770BDF6
:100BD000E847010070B5044622300646F0F76EF98A
:100BE000094D002807D06968002900D088473146A0
:100BF0000020F0F76DF9E868002804D0034634229D
:100C000000212046984770BDE84701000449CA68A2
:100C1000002A03D013461B2200211847704700000A
:100C2000E84701000449CA68002A03D013462F226E
:100C30000021184770470000E847010070B52549BA
:100C40000978012944D1054626300646F0F736F9E1
:100C5000214C002803D06168002900D08847314624
:100C60000020F0F735F928462A300646F0F726F935
:100C7000002803D06168002900D088473146002051
:100C8000F0F726F928462E300646F0F717F9002827
:100C900003D06168002900D0884731460020F0F772
:100CA00017F9284632300646F0F708F9002803D035
:100CB0006168002900D0884731460020F0F708F924
:100CC000E068002804D003464A22002128469847BD
:100CD00070BD00006D480100E84701000449CA6882
:100CE000002A03D013461022002118477047000045
:100CF000E847010070B504460A300646F0F7DEF812
:100D0000094D002807D06968002900D0884731467E
:100D10000020F0F7DDF8E868002804D00346102230
:100D200000212046984770BDE84701007047000049
:100D30000449CA68002A03D013462F22002118470D
:100D400070470000E84701000449CA68002A03D040
:100D5000134624220021184770470000E84701008D
:100D60000449CA68002A03D01346262200211847E6
:100D700070470000E84701000449CA68002A03D010
:100D800013462F220021184770470000E847010052
:100D90000449CA68002A03D013461B2200211847C1
:100DA00070470000E8470100002807D00449CA68DE
:100DB000002A03D01346282200211847704700005C
:100DC000E84701000449CA68002A03D013462422D8
:100DD0000021184770470000E847010070B510492E
:100DE000097801291BD10F490968002917D0044649
:100DF00014300646F0F762F80B4D002807D06968FA
:100E0000002900D0884731460020F0F761F8E868F3
:100E1000002804D00346282200212046984770BDB0
:100E20006C48010004010020E847010070B5044649
:100E30001E300646F0F742F8094D002807D06968D1
:100E4000002900D0884731460020F0F741F8E868D3
:100E5000002804D00346452200212046984770BD53
:100E6000E84701000449CA68002A03D01346372224
:100E70000021184770470000E84701000449CA688C
:100E8000002A03D013463222002118477047000081
:100E9000E847010070B504461E300646F0F70EF82C
:100EA000094D002807D06968002900D088473146DD
:100EB0000020F0F70DF8E868002804D0034632223D
:100EC00000212046984770BDE84701000449CA68E0
:100ED000002A03D01346192200211847704700004A
:100EE000E84701000449CA68002A03D013460422D7
:100EF0000021184770470000E8470100F0B589B0AD
:100F0000002879D0427B01462031C61C451C04468E
:100F1000032A04D0022A44D0012A57D0F7E0887867
:100F200001283BD0687D297D00020843717A327A1E
:100F3000090211436A7A2B7A12021A430092019134
:100F40000290707932790102114368792A7900029E
:100F500010430B460246FAF7F7FC68792A7901023A
:100F60001143684641827079327901021143684623
:100F700081826879297900020843697A2A7A09020C
:100F8000114341186846C1827079317900020843E3
:100F9000717A327A090211434118B6E0707C317CD3
:100FA000C2E7887801280ED0687D297D0202707919
:100FB0000A4333790102194368792B7900021843F7
:100FC000FAF796FBC9E7707C317CEFE7687A297AFB
:100FD00000020843217C4900884205D3727A337AA3
:100FE00012021A438A420DD2717A327A09021143EF
:100FF000884202D8400801E0C0E0480820746AA096
:10100000F8F76EFB687C297C0002084370490027D2
:10101000C880E61C20E07079327901021143707AB1
:10102000327A000210430818C01B401E83B28C465F
:101030006879297900020843697A2A7A09021143FA
:101040004118C91B491E8AB26146C919C01989B223
:1010500080B2FAF7E7FC7F1C207CB842DBDC222060
:10106000005D01287ED0687E297E00020843584931
:10107000C8807079317903020B43707A317A0002AB
:1010800008431918207C2A79091A491E89B28E460C
:1010900069792F7A090211436A7A1B1812023A43BE
:1010A0008A18121A521E08189BB24A499C468F6829
:1010B00092B280B273466146B847687929790002D6
:1010C0000843217C411868464182707931790002D9
:1010D0000843217C41186846818268792979000299
:1010E0000843697A2A7A090211434018217C411A7F
:1010F0006846C1827079317900020843717A327A88
:10110000090211434018217C411A68460183254693
:101110002035A878012836D0A17F637F0A022C49A8
:101120001A43CA80A27E637E100218438880E07B47
:10113000A27B010211436846818169784174E17F95
:1011400081732978C17320462330EFF7B7FE07A9D2
:101150000131EFF7BDFE617B68468176A8780128F2
:101160001FD000E00CE0A07D617D000208436946CD
:10117000C876000A087703A800F05CF909B0F0BD52
:10118000707D317D71E7E01C0146227FE07E120216
:1011900002430F48C2804A7D0B7D110219438180B2
:1011A000C5E7207DE17CE0E7436F6E74726F6C20D1
:1011B000626F726465722077696474682069732055
:1011C000746F6F206C61726765210D0A000000006A
:1011D00000000020640D0000F0B587B0002842D068
:1011E0004178027809021143854A044691423AD176
:1011F000627BC11C601C032A1AD0022A35D0012A46
:1012000031D1427A037A05461002227C18435200FB
:10121000904205D34B7A0E7A1B023343934238D265
:101220004A7A0B7A1102194388422DD840082CE0E3
:10123000427D037D12021A434B7A0C7A1B02234330
:10124000447A057A24022C430094019302924A794D
:101250000B791102194342790379100218430B46A6
:101260000246FAF771FB07B0F0BD427D037D120222
:101270001A434B790C7919022143437904791802F6
:101280002043FAF735FAEEE7480820745DA0F8F736
:1012900027FA687C297C0002084364490027C8803B
:1012A000E61C20E07079327901021143707A327ABB
:1012B000000210430818C01B401E83B28C46687998
:1012C000297900020843697A2A7A090211434118F0
:1012D000C91B491E8AB26146C919C01989B280B2B8
:1012E000FAF7A0FB7F1C207CB842DBDC687E297EFD
:1012F000000208434D49C8807079327901021143D8
:10130000707A327A000210430A18207C6B79121A24
:10131000521E92B294462A791F0217436A7A2B7A98
:1013200012021A43BA18121A521E09183818404BE2
:1013300092B29F6889B280B26346B847687F297FBE
:10134000000208433949C880687E297E00020843AC
:10135000364988806879297900020843217C411840
:101360006846C1807079317900020843217C4118B8
:10137000684601816879297900020843697A2A7AE6
:10138000090211434018217C411A68464181707955
:10139000317900020843717A327A09021143401808
:1013A000217C411A68468181687F297F00020843B9
:1013B0001E49C880E07BA27B010211436846018080
:1013C000214620314A78427100220271E27F827008
:1013D0000978C17020462230EFF770FD04A9013171
:1013E000EFF776FD617B68468173687D2A7D010297
:1013F00011436846C173090A017400F01BF832E713
:1014000006800000436F6E74726F6C20626F7264AE
:10141000657220776964746820697320746F6F2027
:101420006C61726765210D0A000000000000002059
:10143000640D0000F0B5044697B011300990EFF745
:101440003DFD002817D000270D97617823780A0208
:101450001A4303463E460DA90EA8FBF7C3FD0EAD89
:101460000FCD05AD0FC56846808B002806D0BFA004
:10147000F8F736F9D5E0C24817B0F0BDE07AA27AA5
:1014800001021143E079A27900021043091A491CB4
:101490008DB2A178022902D0012906D00AE00D9967
:1014A0008D4207D96F1A7F1E04E00D998D4201D33A
:1014B000691A4F08C01980B20E900998EFF7FEFC28
:1014C00000210491069006E00A2903D10499491CE1
:1014D00089B20491401C01780029F5D16079002877
:1014E0000CD029460D98EFF785FC002900D0401C50
:1014F000049941186846C08A484301E06846C08A9A
:10150000627B217B12020A43617A237A0902194322
:10151000521A521C92B2904201D30C910DE0E37822
:10152000022B02D0012B03D004E0161A761E01E034
:10153000101A4608881980B20C90A07B069D0028DE
:1015400020D001281ED0217CE07B0902014303202A
:10155000FAF7DAFA8B490968884262D98A49096838
:10156000401AC1788278090211430991A17B0830A1
:1015700002290AD0099A0C9951430E9A89184900F8
:101580000E18EDE000260996EAE009994E43F1199C
:10159000F5E70290010608D569786D1C002978D01E
:1015A0000006000C01430F4603E07849203840183C
:1015B00087B276498F4205D16846808A41080E98E5
:1015C0000818BEE06078217802020A43394612A862
:1015D000FAF716FF12A80FC8059008930792069114
:1015E0006846808B002803D002980A287ED0B6E097
:1015F000181F011D15D0014680780978634A401AEA
:1016000080B252421090B8185E2843D8109A0E98B3
:10161000A37A8218E07A00021843824203D9012398
:1016200002E05B4828E700236846C08A0C9A84469B
:10163000821840E03B430ED06379002B29D0E37938
:10164000A77992B20C9262461B02801A3B430C9A15
:101650000E9390421DDB6846808AC308420700D083
:101660005B1C6F467A8B53439BB29E46089B9C46FD
:101670000E9B3B830C9B7B83B883F88AF883002006
:101680000190B980012A20D0022A30D0042A4FD1FB
:101690003EE069E00E9A1098A37A1218E07A0002F0
:1016A0001843824201D9012300E000236846C28A20
:1016B0000C9894461218607B277B000238438242C4
:1016C00001D90127B6E70027B4E701980490A27B6F
:1016D000109809990292039001917046C2B2009647
:1016E000634607990698F2F7E7FA21E02CE00198A3
:1016F0000490A17B1098099A039001927046029180
:10170000C2B20096634607990698F2F77DFB0FE098
:1017100001980490A17B1098099A03900192704659
:101720000291C2B20096634607990698F2F73EFC12
:1017300010981099400086190E984018154909888C
:10174000401880B20E900AE0E079A17900020843C7
:101750000E906846C18A0C98081880B20C906D1CD7
:101760002878002800D014E7002085E6666F6E74A4
:10177000206C696220696E76616C69640D0A0000F4
:1017800001000100784801007C480100A0A300008E
:1017900002000200924801003EB500281CD001461C
:1017A000401C427B037B12021A430B7BCC7A1B0248
:1017B0002343447A057A24022C4300940193029235
:1017C0000A7ACB791102194342790379100218433E
:1017D0000B460246FAF7B8F83EBD0000F0B589B0F6
:1017E000002876D0427BC11C451C0446032A04D045
:1017F000022A3ED0012A6ED007E1607D227D0002E0
:101800000E461043497A327A090211436A7A2B7ADA
:1018100012021A430092019102907079327901020A
:10182000114368792A79000210430B460246FAF701
:101830008BF868792A7901021143684641827079F0
:101840003279010211436846818268792979000260
:101850000843697A2A7A0902114341186846C1820D
:101860007079317900020843717A327A09021143A2
:101870002DE0607D237D02021A4348790E460B79E4
:101880000102194368792B7900021843F9F730FFF8
:1018900068792A7901021143684641827079327968
:1018A0000102114368468182687929790002084360
:1018B000697A2A7A0902114341186846C18270790F
:1018C00031790002727A0843337A110219434118C0
:1018D00099E06DE1FFE7687A2A7A00021043627CA2
:1018E0005200904205D34B7A0E7A1B023343934247
:1018F0000CD24A7A0B7A11021943884201D8400867
:1019000000E048086074ABA0F7F7EAFEE07CA17C39
:1019100000020843B1490027C880E61C20E0707926
:10192000327901021143707A327A000210430818AA
:10193000C01B401E80B2844668792A790002104399
:101940006A7A2B7A12021A438218D21B521EC919C4
:10195000C01992B289B280B26346FAF763F87F1C6D
:10196000607CB842DBDCE07DA17D000208439B493E
:10197000C8807079327901021143707A327A00029C
:1019800010430A18607C6B79121A521E92B2944668
:101990002A791F0217436A7A2B7A12021A43BA185D
:1019A000121A521E091838188D4B92B29F6889B2CC
:1019B00080B26346B8476879297900020843617CA0
:1019C0004118684641827079317900020843617C90
:1019D0004118684681826879297900020843697A4A
:1019E0002A7A090211434018617C411A6846C18273
:1019F0007079317900020843717A327A0902114311
:101A00004018617C411A6846018376482022C368E9
:101A100000217548984727462037B8781F2801D9F4
:101A20001F20B87020461E3000260190EFF746FABE
:101A30000546761CF6B20A21EFF7DCF90028F8D14A
:101A40002846012508E00A21EFF7D4F9731B30314D
:101A5000654A6D1CD154EDB2B542F4D9BD78002D64
:101A600000D135460027B54228D200200199EFF772
:101A70002FFA002014E08019411B5B48009A415C5A
:101A8000815402910198EFF719FA0A21484302990B
:101A9000303840180199EFF71BFA0098401CC0B28B
:101AA0000090A842E7D3284600214F4A02E0115493
:101AB000401CC0B2B042FAD32E4603E0B54201D971
:101AC000A81BC7B2207F00282FD0B04210D2301AF6
:101AD000C1B245488219203AD27F8255761EF6B2AD
:101AE0008E42F7D82E224254207F281A401A1BE03B
:101AF000401C3D49C0B23022002E08D08B19203B3B
:101B0000DB7F0B54401E761EC0B2F6B202E00A54D0
:101B1000401EC0B20028EFD10A702E204870207FEE
:101B2000A84202D2281A401EC7B2002F14D02E4855
:101B3000EFF7BDF92C49C0B2C3190A5CCA5400289A
:101B400002D0401EC0B2F7E70020302202E00A5463
:101B5000401CC0B2B842FAD3607E227E01021F4808
:101B60001143C180E17DA27D090211438180217C66
:101B7000E07B0902014368468181617F4174002155
:101B80000174A17E8173E17EC17307A901311648FA
:101B9000EFF79EF9617B68468176607D227D0102C8
:101BA00011436846C176090A017703A8FFF742FC92
:101BB00009B0F0BD436F6E74726F6C20626F726417
:101BC000657220776964746820697320746F6F2070
:101BD0006C61726765210D0A0000000000000020A2
:101BE000640D0000E8470100FA3400203EB51E49AC
:101BF000097801290CD100280AD0427BC11C441C61
