:020000040000FA
:10000000107D0000C1000000ED0A0000650700003F
:1000100000000000000000000000000000000000E0
:10002000000000000000000000000000210E0000A1
:100030000000000000000000930B0000230E0000F1
:10004000D3000000D3000000D3000000D300000064
:10005000D3000000D3000000D3000000D300000054
:10006000D3000000D3000000D10E0000D300000038
:1000700000000000D3000000D300000000000000DA
:1000800065050000D3000000D3000000D30000008D
:1000900000000000D3000000D300000000000000BA
:1000A0000000000000000000D30000000348854667
:1000B00000F048F80048004769170000107D000074
:1000C0000448804704480047FEE7FEE7FEE7FEE7F6
:1000D000FEE7FEE7750E0000AD00000030B50B46F0
:1000E000014600202022012409E00D46D5409D4212
:1000F00005D31D469540491B254695404019154698
:10010000521E002DF1DC30BD10B503461C460C43D9
:10011000A40703D009E010C9121F10C3042AFAD2A1
:1001200003E00C781C70491C5B1C521EF9D210BDF8
:1001300010B50346C9B201E019705B1C521EFBD218
:1001400010BD0000064C0125064E05E0E36807CC13
:100150002B430C3C98471034B442F7D3FFF7AAFF67
:10016000EC5500000C5600000120C0437047000011
:10017000F8B50B780022D243472B08D14B78472B98
:1001800005D18B784B2B02D1CB784A2B01D010466E
:10019000F8BD4F7947214B230126244C80250622A8
:1001A000032F16D0052F28D0002727700570427026
:1001B0008170C17003714A2141718671FF21C17143
:1001C0003946027A435C491CD21802720829F8DBCE
:1001D00026E02670057042708170C17003714A215B
:1001E000417186710421C1710021027A435C491C6E
:1001F000D21802720829F8DB12E000272770057078
:1002000042708170C17003714A2141718671C2715F
:100210003946027A435C491CD21802720829F8DB7D
:1002200003494A68092190470020F8BD287700005B
:10023000A44D0000F8B504460D4609780020C043DF
:10024000472949D16978472946D1A9784B2943D113
:10025000E9784A2940D12879EE79010668790004C5
:100260000843A97909020143287A0E430106687AF6
:1002700000040843A97A09020143E87A08433718C1
:1002800004E03103154801F055FC761CB742F8D85C
:1002900080202070042060704720A070E0704B2008
:1002A00020714A2060710920A0710120E0710C4882
:1002B0000822291D0369A018984700202074217C7A
:1002C000225C401C891821741028F8DB0548112194
:1002D0004268204690470020F8BD00000000014021
:1002E000904D0000A44D000010B580210170012246
:1002F0004270052181700021C17001714271C222DA
:100300008271C1710172027A435C491CD218027277
:100310000829F8DB02494A6809219047002010BDEE
:10032000A44D00000020704770B504460D460978C2
:100330000020C043472947D16978472944D1A9788B
:100340004B2941D1E9784A293ED12879EA79010639
:1003500068792B7A00040843A979090201430A430A
:1003600000201A4903E02E18767A0E54401C984259
:10037000F9DB002B03D01549154801F015FD80204D
:100380002070032060704720A070E0704B20207127
:100390004A2060710620A0710120E0710D480522FD
:1003A0000369291D20460830984700206073617B4F
:1003B000225C401C891861730D28F8DB06480E2169
:1003C000426820469047002070BD00004C77000036
:1003D00000000140904D0000A44D0000F8B500F071
:1003E00015FA1A4D686A80475124A40179236022C6
:1003F00032212E691920B047E9682C20884714491A
:10040000A0054860134E01E0FA2C01D3FA2500E064
:10041000254600F04DFB6F003946304600F01CFBCE
:10042000641BBE19002CEFD100F042FB0A480169A1
:100430000F2212029143016101698215114301618A
:100440000548C03801F0A6FBF8BD0000E424000018
:10045000000002400C250000C0000140F8B58021DA
:1004600001700621417047218170C1704B210171DB
:100470004A214171012181710221C1710021017262
:10048000027A435C491CD21802720829F8DB1C4C22
:100490000921626890477D20C00001F0F4F860698E
:1004A00080470546E06880470646E06980470028A7
:1004B00024D0A069804700221146431E03E06F5CF0
:1004C000BA18D2B2491C9942F9D329182039C97FE8
:1004D000914213D129786A78090251188FB2C31E4C
:1004E000AA1C3146384601F0B1F8206B8047054C14
:1004F0002078012802D100F007F8F9E7F8BD0000E4
:10050000A44D000028770000F8B5154D68698047B4
:100510000446E86880470646E869804700281DD001
:10052000A869804700221146431E03E0675CBA18A1
:10053000D2B2491C9942F9D321182039C97F91427E
:100540000AD121786278090251188FB2C31EA21C09
:100550003146384601F07AF8286B8047F8BD000034
:10056000A44D000010B50121002000F057F8194CEF
:10057000002806D02068002800D08047002000F026
:1005800045F80121084600F049F8002806D06068C7
:10059000002800D08047012000F038F80121022017
:1005A00000F03CF8002806D0A068002800D0804762
:1005B000022000F02BF80121032000F02FF8002882
:1005C00006D0E068002800D08047032000F01EF825
:1005D00010BD00003C77000017B50848084B6C467A
:1005E000046081608361C261002101610164416432
:1005F000044801218161044901621EBDB00005402B
:10060000124C0000800305400404000001218140D9
:100610000148816370470000000305400122044B3C
:100620008240002902D0986A104070471868FBE7A2
:10063000C002054070B5154B9C15984212D1144D5F
:1006400000200B46C340DB07DB0F07D083005B199C
:100650001E68A6431E601E6816431E60401C2028AC
:10066000EFD370BD0A4D002080350B46C340DB0739
:10067000DB0F07D083005B191E68A6431E601E684F
:1006800016431E60401C2028EFD370BD00000240BE
:10069000001000404160704730B5094B094C0A4DCD
:1006A000012A05D0002A02D1984207D1A16030BDAD
:1006B000984201D1616030BD696030BDA96030BD34
:1006C00000000240008002400080034030B5164B1D
:1006D000984213D1154C00200B46C340DB07DB0FBB
:1006E00008D083001B191D68ED08ED001D601D6812
:1006F00015431D60401C2028EED330BD0B4C00205C
:1007000080340B46C340DB07DB0F08D083001B1986
:100710001D68ED08ED001D601D6815431D60401C3F
:100720002028EED330BD0000000002400010004041
:100730000148006A70470000000200400349086851
:10074000C007FCD0024840687047000000510040DC
:1007500000500040FF210131880541618160416006
:100760007047000001A000F04BFCFEE74861726496
:100770004661756C745F48616E646C65720D0A0049
:10078000002104E00222521CFF2AFCD3491C8142B2
:10079000F8D3704770B5154D6C88288821464443BE
:1007A000491E8BB2401E82B20021084600F0D3F8E9
:1007B0002C2000F0FDF801200D4900074860A888B2
:1007C000FA2280B20B49FFF707FFFA2C01D3FA2572
:1007D00000E0254600F06CF96900064800F03CF99D
:1007E000641BF2D100F064F970BD000010770000C6
:1007F000000002400090002010B5282000F0D8F83A
:1008000010BD10B5292000F0D3F810BDF8B50421B3
:100810000022084600F0F0F80124284E6407002268
:1008200021463046FFF752FF012221463046FFF7AE
:1008300033FF21463046FFF72DFF214D0022E11402
:100840002846FFF743FF012291022846FFF724FFC5
:10085000A414002221462846FFF738FF0122214632
:100860002846FFF719FF6704002239463046FFF794
:100870002DFF012239463046FFF70EFF7760AC604E
:100880000A20FFF77DFF6C600A20FFF779FF0D4C0F
:100890002820E168884700F0AFFFE1681120884711
:1008A000E16820208847E1682920884761690120A4
:1008B00088472168887328156860F8BD00000240E9
:1008C00000000340E42400000020704710B504003D
:1008D00005D0C821362000F062F8204610BDB821AE
:1008E000362000F05CF8044908884A880A8048806D
:1008F00002A000F085FBF0E71077000064646464F8
:10090000646464646464646464000000F8B514465C
:100910000546001B86B21F46332000F049F8280A1E
:1009200000F058F8E8B200F055F8300A00F052F83C
:10093000F0B200F04FF8380A00F04CF8F8B200F0CE
:1009400049F8372000F034F8200A00F043F8E0B20C
:1009500000F040F8F8BDF8B507461C4615460E46AF
:100960002A2000F025F8380A00F034F8F8B200F038
:1009700031F8280A00F02EF8E8B200F02BF82B200E
:1009800000F016F8300A00F025F8F0B200F022F876
:10099000200A00F01FF8E0B200F01CF8F8BD10B516
:1009A0000C4600F005F8204600F014F810BD0000D9
:1009B00010B50121054A0907916005490870012118
:1009C000034800F049F800F073F810BD0000024041
:1009D0000090002010B50121054A09075160054922
:1009E00008700121034800F037F800F061F810BDED
:1009F000000002400090002010B5002386B00902DC
:100A00000491009311490193029305928862104C5E
:100A10000322C9042046FFF759FE0322A102204603
:100A2000FFF754FE032261032046FFF74FFE032227
:100A3000D1072046FFF74AFE102000F0C3F96946AF
:100A4000044800F0D3F806B010BD0000800000405C
:100A5000000002400010014010B5104A1368012444
:100A6000E406234313600D4B40331963032424072A
:100A70001460541454610A4A0A4C106093609461E3
:100A8000D1610020106110645520000250640648B6
:100A9000012181610549016210BD00000010014083
:100AA00008010540004910008003054008080000C7
:100AB00070B501250B4E0C4C6D05306A000705D44E
:100AC0000121204600F08BF8012801D16D1EF4D2DF
:100AD00001204003A06120680121C90688432060ED
:100AE00070BD000080030540001001407047000009
:100AF00030B5837801210278002B15D094080E4B75
:100B0000A400E41823689207D50EFF22AA4093435D
:100B100042789207120EAA401A4322600078C0065B
:100B2000C00E8140054804E0D006C00E8140034855
:100B30008030016030BD000000E400E000E100E032
:100B400003480068C107FDD00248006870470000F4
:100B5000005100400050004010B5FFF7F1FF400584
:100B6000400F10BD10B5FFF7EBFFC0B210BD10B5C0
:100B7000FFF7E6FF8004400F10BD10B5FFF7E0FF60
:100B80004003C00E10BD10B5FF20013000F01AF96F
:100B900010BD704701680122D20691430160704781
:100BA00001680122D20611430160704701225203FD
:100BB000012901D082617047426170474A6802672B
:100BC000026812010A68896803D50A430521C9062B
:100BD00002E00A43012149070A43026070470246C6
:100BE000126D00200A4200D00120704738B50D4632
:100BF0000446012100F032F8002001210903009091
:100C0000009A521C00928A42FADB2169490A490281
:100C10003831216106CD11432A6811436161EA68C8
:100C2000A9681143034A1143216360618034206045
:100C300038BD00000000FFFF002907D0012901692D
:100C400008D0C908C900891C016170470169C90839
:100C5000C900F9E7C908C900491CF5E770B50124C6
:100C600064030D4A65000D4B012904D098420CD154
:100C7000002120460DE0984201D1204602E090423A
:100C800002D1284600F09EF870BD9042FCD10021B0
:100C9000284600F0AAF870BD001001400000014095
:100CA000F8B54449054608698A69C0B2896AD6B26E
:100CB000CFB201218907096B3F4AC906C90E0A3123
:100CC00051430091002808D0012804D0022804D004
:100CD000032804D004E00C4602E0374C00E0374C17
:100CE0003448403001682046FFF7F8F92946802D46
:100CF00020D0012080070818902D08D0942D06D010
:100D0000B42D18D0B82D28D0A02949D0FEE70178FD
:100D100000294DD0002E06D0012E06D0022E02D082
:100D2000032E04D005E0017815E0017811E0017888
:100D30002EE02846F8BD1F484030416B002937D0CF
:100D4000002F03D0012F03D0022FF2D1416B02E01C
:100D5000416B009814E0184812E016484030816B4F
:100D6000002925D0002D15D0012D0DD0022D0ED03B
:100D7000032D0FD0042D0FD0052DDAD1816B104833
:100D8000FFF7ACF90546D4E7816B2046F8E7816BA5
:100D90000A48F5E7816BDEE7816B7D200002EFE713
:100DA0000178002904D001782046FFF797F9F8BDB3
:100DB0000020F8BD40000040001BB70010270000D5
:100DC000006CDC0200B50346012100F00EF80021A2
:100DD000184600F012F80121184600F00EF800BD88
:100DE00001229207801801707047012292070029A2
:100DF00001D050617047906170470122920700292D
:100E000001D05060704790607047000003498861CE
:100E10000020C8610120C861704700004000004008
:100E20007047704710B5FFF7AEFEFFF79BFE012439
:100E3000A407A16A090A09020143A162FFF78CFE17
:100E4000E16AC908C9000143E162FFF790FEA16BA6
:100E5000C908C9000143A163FFF78FFE044A116965
:100E60001F231B02994300020843106110BD0000BC
:100E70008002004010B500210120114A8007426124
:100E8000104B04221A60104A9368FF241134A343C4
:100E900093600E4A0263C21303E00B46491C93425F
:100EA00002D2436B012BF8D17D20C00000F0E4FB9F
:100EB000044801214038016100224261416110BDB6
:100EC000180800008000004000020040160000C02A
:100ED00010B50C4801680C4CC90606D510214160BC
:100EE0000069216AC0B2884710BD01684906FBD578
:100EF000402141600069216AC0B28847A06A8047EA
:100F000010BD000040300040A44D00000122002927
:100F100001D042627047826270470246126E002022
:100F20000A4200D001207047002A01D04164704776
:100F30008164704770B50C4605460020032189077F
:100F4000A9602E6B17490E4017498D4201D19020A0
:100F500003E016498D4202D19420FFF7A1FE8000E4
:100F6000E168FFF7BBF8810680098A0C80018102E5
:100F700063692069114318430843A1690843A168C4
:100F8000084330432863296A0948014005CCA36916
:100F9000104362691A431043E26910430843286210
:100FA00070BD000001C00000002000400030004083
:100FB000FF3488FF064910B5884201D1202003E0A4
:100FC0000449884202D14020FFF7FCFE10BD00001A
:100FD00000200040003000400165704700210160A2
:100FE00010228260E12241605202C26060224161AF
:100FF00002618161D2000162C261416270470000FA
:101000000FB410B503A9044B044A029800F06EF81F
:1010100010BC08BC04B01847A116000030770000CF
:1010200030B5002805D0164C021F20680023014669
:1010300005E0084630BD904203D8034640680028CA
:10104000F9D1002B00D05968002B0AD01C68D51AA2
:10105000A54204D11268A4181A461C6002E05A6026
:1010600000E02260002807D01468851AA54203D149
:1010700005686419146040685060184630BD00006F
:1010800034770000F1B50E4C0F480C4E001B0D4F8D
:10109000C508ED0000221146009800F03DFB002835
:1010A00003D13068002801D00020F8BD3C6000204A
:1010B0002560606001203060ECE7000038770000B8
:1010C0009479000034770000107A000002E008C82C
:1010D000121F08C1002AFAD170477047002001E0B2
:1010E00001C1121F002AFBD170470000FFB58FB06D
:1010F0000546002606E025280AD0129A1199904745
:101100006D1C761C28780028F5D1304613B0F0BD50
:10111000002402940121B54A009400E004436D1CB0
:101120002B780846203B98401042F7D128782A288F
:101130000ED00222287801463039092916D80299A2
:101140000A2359433039401814436D1C0290F1E7CB
:10115000109802C802911090002904DA012040037F
:10116000044348420290022004436D1C28782E2834
:1011700017D10420044368786D1C2A280CD11098DC
:101180006D1C02C8009110900BE000990A22514397
:10119000303940186D1C00902878014630390929F3
:1011A000F3D928786C2810D006DC4C281AD068288F
:1011B0000ED06A2817D104E0742813D07A2812D1EF
:1011C00010E00120400504430CE00121090501E085
:1011D000032109050C436978814203D101200005F0
:1011E00024186D1C6D1C2878692874D006DC002832
:1011F0008BD0632827D0642806D16CE06E2808D0F5
:1012000073282CD0752878D0129A11999047761CA3
:101210005FE06002400F022809D003280DD00428A7
:10122000109801680DD00E60001D109051E01098CC
:10123000F21701680E604A60F6E7109801680E80A8
:10124000F2E70E70F0E710986A4601781173001DFE
:1012500010900020507303A80190012005E0109821
:1012600002C8019110900020C04361070CD50027EF
:1012700000E07F1C00998F420FDA8742F9DB019969
:10128000C95D0029F5D108E0002700E07F1C8742F6
:10129000FCDB0199C95D0029F8D102982146C01BE9
:1012A0000290129B119A00F0B3F88019C61907E05A
:1012B000019801990078491C0191129A119990475F
:1012C0007F1EF5D22146129B119A029800F090F8E9
:1012D00086196D1C16E70A200190109901C910911A
:1012E0006102490F032900D100B2042900D140B2A4
:1012F000002803DA40422D2103E00DE0210504D54A
:101300002B216A461173012103E0E10711D020214E
:10131000F7E70CAF0C9114E00A200190109901C975
:1013200010916102490F032900D180B2042900D134
:10133000C0B20021EDE70199FEF7D0FE30317F1EEB
:1013400039700028F7D104A8C01B20300190600735
:1013500004D5012000048443009801E0012000909E
:101360000199884201DD401A00E0002041180090F8
:101370000C9809180298401A0290E00306D42146FE
:10138000129B119A029800F043F8861900200D90E4
:1013900008E003A9085C129A119990470D98401C27
:1013A000761C0D900C998842F3DBE0030CD52146A6
:1013B000129B119A029800F02BF8861904E0129AF9
:1013C000302011999047761C0099481E0090002902
:1013D000F5DC05E03878129A7F1C11999047761C4D
:1013E0000199481E01900029F4DC6BE709280100EF
:1013F000F8B5044600251E461746880404D405E0C7
:1014000039462020B0476D1C641EF9D52846F8BD2A
:10141000FFB50446002581B01E46C80301D530271C
:1014200000E02027880404D505E038460399B0473A
:101430006D1C641EF9D5284605B0F0BDF8B52548E9
:101440000025ED4301692C46090A09020161224F7A
:101450000026204802690F2109028A4302610169BE
:101460003202114301611B481023DA023946C038A9
:1014700000F0CCFB38687968000C000401225207A8
:10148000904207D1B12905D1002D02DA35462C460C
:1014900000E03446761C76B2102EDADB002D15DB28
:1014A000601B012801DC214601E060194110094858
:1014B00002690F231B029A43026102690B021A435D
:1014C000026106A0FFF79CFD0020F8BD0020C0438C
:1014D000F8BD0000C000014000800020436170445E
:1014E0006C7920697320253032640D0A00000000F9
:1014F000F8B5414801210068C90241183F48016020
:10150000FFF728F900F0B4FD3D488069002806D0B7
:101510003B483822836939483A4900689847394C32
:101520002068401C66D16068401C63D1364820604A
:101530003648606000F0C0FDA060FFF7F9F8C043D6
:10154000E06000F0B9FD2061FFF7F8F86061304815
:101550000168A1614068E06100F0AEFD206200F02A
:10156000ABFD606200F0A8FDA06200F0A5FDE062A6
:101570002169A06800224018A169264D43186169BD
:10158000E068AC464018E16944181E483030014616
:1015900018C010391446083843680E681D016244AB
:1015A000AD199E1875404F685E09F61975400668BA
:1015B000641CAD1905608F682E01F619AF187E40C6
:1015C000CF686D09ED196E40F3184360082CE3D322
:1015D0000B4C2069002804D002460748012100680E
:1015E00090476069002805D0034604483822016806
:1015F00004489847F8BD00008C4D00002C7700008F
:10160000C8240000008000205C6F4C358AFE582BF7
:10161000F87F0000B979379E0020054A0146115431
:10162000401CFF28FBD30348017041607047000055
:101630008C780000207700000020034902460A54FD
:10164000401C4028FBD370474C780000F0B415468E
:101650000E46642803D3F0BC0220C0437047142117
:10166000484304491A464018046929463046A446AE
:10167000F0BC6047D84D00004100081800E0401E53
:101680000028FCD170477D22520106E00021491C50
:1016900089B29142FBD3401E80B20028F6D1704738
:1016A00070B5084D0446C1B22846FFF795FC0126E7
:1016B000F60631462846FFF730FC0028F9D02046D0
:1016C00070BD0000003000400649054B4A68985440
:1016D000521C4A60FF2A01D3002048607047000076
:1016E0008C780000207700000149012008707047C5
:1016F0002077000010B5FF2902D3FF21002201E06E
:10170000002203E0034C835CA354521C8A42F9D3A9
:1017100010BD00008C780000F8B50B30C608F6004C
:10172000104D19E02068B04215D3B0420BD9636860
:10173000871B201D0093FEF7E7FCA019009B0760A4
:101740004360286004E060682860201DFEF7DCFC30
:10175000201D2660F8BD251D2C68002CE2D100203C
:10176000F8BD000034770000FFF75CFB00F000FDDF
:1017700016A0FFF745FC194C022200231146204613
:1017800000F0C4FBFEF72AFEFEF768FEFFF7B0FE8E
:10179000FFF754FE002803DA11A0FFF731FCFEE743
:1017A0000021204600F050F90221204600F08EF979
:1017B0000F48FFF725FC01235B039A000D492046E3
:1017C00000F024FA00F0A4FDFEE7000053746172FB
:1017D00074204C6F616465720D0A000000000140C6
:1017E00063617020646C79206572726F720D0A00FB
:1017F000A85500000080002010B5824CB120E1689F
:10180000884761680520884761683C20884761688F
:101810003C208847E168B2208847616805208847F6
:1018200061683C20884761683C208847E168B320B4
:10183000884761680520884761683C20884761685F
:101840003C20884761680520884761683C208847BC
:1018500061683C208847E168B420884761680720B8
:101860008847E168C0208847616828208847616808
:1018700008208847616804208847E168C1208847BC
:101880006168C0208847E168C220884761680D20F0
:101890008847616800208847E168C32088476168FD
:1018A0008D20884761682A208847E168C4208847DE
:1018B00061688D2088476168EE208847E168C5200F
:1018C0008847616805208847E168C72088476168C4
:1018D00010208847E168362088476168C82088471B
:1018E000E168E02088476168042088476168222019
:1018F000884761680720884761680A2088476168CF
:101900002E208847616830208847616825208847F5
:1019100061682A20884761682820884761682620F6
:10192000884761682E20884761683A208847616847
:101930000020884761680120884761680320884744
:10194000616813208847E168E120884761680420C6
:101950008847616816208847616806208847616863
:101960000D20884761682D208847616826208847B8
:10197000616823208847616827208847616827209D
:10198000884761682520884761682D2088476168FD
:101990003B208847616800208847616801208847AC
:1019A000616804208847616813208847E1683A200D
:1019B0008847616805208847E1682A208847616870
:1019C00000208847616800208847616800208847B8
:1019D00061687F208847E1682B2088476168002084
:1019E00088476168002088476168002088476168EF
:1019F0009F208847E1682C208847E1682920884794
:101A000010BD0000E424000002490A6A1201FCD55E
:101A1000086170474030004010B50022054B05E0DA
:101A20001C6A2401FCD5845C1C61521C8A42F7D3D9
:101A300010BD00004030004001B5009801E0401E9C
:101A400000900028FBD108BD7CB5064601246846FD
:101A5000047104708D07AD0F6946304600F064F9DB
:101A60000121304600F0FCF9002168460170304643
:101A7000FFF796F81121304600F08CF9684601789E
:101A80009F2211406A011048114301700146012252
:101A9000304600F0C3F93046FFF77CF86846047121
:101AA0007D24E40006E001A9304600F00DF920464F
:101AB000FFF7C2FF68460079C007F4D16946304697
:101AC00000F032F97CBD0000047700007CB50124F1
:101AD0006A460D4606461470147101A900F00CF90F
:101AE0000121304600F0BCF93046FFF759F83121AA
:101AF000304600F04FF96A4610790D4928430870C6
:101B00000122304600F08AF93046FFF743F86A4672
:101B100014707D24E40006E06946304600F0D4F8F5
:101B20002046FFF789FF68460078C007F4D17CBDE6
:101B300004770000F8B5064615480D4600780028E1
:101B400001D0212400E020240120694608700146CC
:101B5000304600F085F93046FFF722F8214630463E
:101B600000F018F92946304600F0F6F83046FFF745
:101B700011F87D24E40006E06946304600F0A4F840
:101B80002046FFF759FF68460078C007F4D1F8BD3A
:101B9000007700007CB50124694605460C700C7185
:101BA00000F092F801A9284600F0A6F80121284685
:101BB00000F056F92846FEF7F3FF0121284600F011
:101BC000E9F869460878C32108400F4A6946107051
:101BD0000879507002220C49284600F01FF9284667
:101BE000FEF7D8FF69460C707D24E40006E06946E4
:101BF000284600F069F82046FFF71EFF6846007887
:101C0000C007F4D17CBD000004770000FFB581B0AF
:101C100016460F461C46FF250135AC4200DC254622
:101C20002B4632463946019800F02AF8641B7F198A
:101C30007619002CEFDC204605B0F0BDFEB5064657
:101C400001200007009080100D460290144601927A
:101C500001213046FEF7AAFF69463046FEF7AEFF87
:101C600022462946304600F05BFB002802D00020C7
:101C7000C043FEBD00213046FEF798FF0020FEBDA8
:101C8000FFB505460F4881B000781E460C46002877
:101C900001D0132700E003272846FEF781FF3946CD
:101CA000284600F077F82846039900F055F83246A8
:101CB00021462846FFF7C2FF2846FEF76BFF304655
:101CC00005B0F0BD0077000070B50C460546FEF784
:101CD00067FF0521284600F05DF8042205492846E3
:101CE000FFF7ACFF0348007820702846FEF752FF4C
:101CF00070BD00000C77000070B50C460546FEF77D
:101D00004FFF3521284600F045F8042205492846B2
:101D1000FFF794FF0348007820702846FEF73AFF4B
:101D200070BD00000C77000070B50C460546FEF74C
:101D300037FF1521284600F02DF8042205492846D2
:101D4000FFF77CFF0348007820702846FEF722FF4B
:101D500070BD00000C77000070B50B020C4A1D0E20
:101D60000B0416781C0E0832CBB2002E06D0090EDA
:101D7000117055709470D370042203E01570547084
:101D8000937003220249083100F048F870BD00004A
:101D90000077000010B5034A11700122014900F0DC
:101DA0003DF810BD04770000FFB581B00F461D4619
:101DB00016460121019800F053F80198FFF7EAFE5A
:101DC000FF20F1B20130441AA54200DC2C462D1B45
:101DD000681E0012401C0090234632463946019886
:101DE00000F050F8361938190027029010E0FF244F
:101DF0000134A54200DC2C46234632460299019864
:101E000000F040F80298361900192D1B7F1C029033
:101E100000988742EBDB284605B0F0BDFEB50646CC
:101E200001200007009000200D4602901446019208
:101E300001213046FEF7BAFE69463046FEF7BEFE87
:101E400022462946304600F0C3FA002802D000207E
:101E5000C043FEBD00213046FEF7A8FE0020FEBDB7
:101E600070B50546002901D0062400E00424FEF7E1
:101E700097FE21462846FFF78DFF2846FEF78AFE8B
:101E800070BD0000FFB581B00E46012069461C46BA
:101E9000154608701C480078002801D0122700E081
:101EA000022701210198FFF7DBFF0198FEF778FE7A
:101EB00039460198FFF76EFF0027FF4300280CD139
:101EC00029460198FFF748FF002806D122463146EF
:101ED0000198FFF7A3FF002802D0384605B0F0BDF7
:101EE0000198FEF757FE7D25ED0006E06946019852
:101EF000FFF7EAFE2846FFF79FFD68460078C00717
:101F0000F4D12046EAE700000077000070B588B001
:101F1000044601206D462876287640020090400055
:101F200001900020029010024C4A04904C48059306
:101F3000944251D141624B4D012202212846FEF7C5
:101F4000C5FB012204212846FEF7C0FB0122102117
:101F50002846FEF7BBFB012220212846FEF7B6FBF0
:101F6000002201212846FEF7B1FB01221146284636
:101F7000FEF792FB01212846FEF78CFB0022082188
:101F80002846FEF7A3FB012208212846FEF784FB22
:101F900008212846FEF77EFBA61532460121284679
:101FA000FEF748FB324608212846FEF743FB32463F
:101FB00002212846FEF73EFB324604212846FEF762
:101FC00039FB324610212846FEF734FB32462021E9
:101FD0002846FEF72FFB37E0234A944234D1816232
:101FE000224D0121032289062846FEF76FFB0322BA
:101FF000A9022846FEF76AFB0322A1042846FEF741
:1020000065FB0322D1072846FEF760FB2604002269
:1020100031462846FEF75AFB012231462846FEF794
:102020003BFB31462846FEF735FB6604002231466D
:102030002846FEF74BFB012231462846FEF72CFBD3
:1020400031462846FEF726FB1020FEF7BBFE694608
:102050002046FEF7CBFD002008B070BD0000014017
:1020600080000040000003400010014000000240DA
:1020700010B50F4C2068002800D08047A0680028C9
:102080000ED001464B208847A168FF208847A168F1
:10209000FF208847A168FF208847A168FF20884764
:1020A000E068002803D0024608210248904710BD8E
:1020B000C8240000F87F00000349086A4A6A00202B
:1020C000002A00D0086A704700030040F3B583B0CF
:1020D00005001AD028680190284680380290C76F02
:1020E00004983E1F864200D906462846FEF798FF10
:1020F00004460091324629460498FFF70DFB0199EA
:10210000002806D0016005B0F0BD0498FEF7BAFFC4
:10211000F9E729600299002CCF670AD0216862187C
:10212000291F8A4202D9291B091F21600099616079
:10213000E9E7024A00991160E5E700003477000002
:10214000004870478C7800000148406870470000E4
:1021500020770000014800787047000020770000D9
:10216000FF207047004870474C78000040207047BF
:1021700010B58CB04020FEF725FE264C022204212B
:102180002046FEF7A3FA022208212046FEF79EFA17
:1021900001A8FEF723FFE120400204900020102157
:1021A0000290019003910A900990032107900690F4
:1021B000090260200891059001214020FEF715FEDC
:1021C0000120FEF723FE20219020FEF709FE124C8D
:1021D0002046FEF7EFFE01A92046FEF7ABFE0A21DE
:1021E000684601700121817003214170FEF780FC77
:1021F000FF200004A060012000056060052101228D
:1022000009052046FEF790FE01212046FEF77EFEDE
:102210000CB010BD000002400030004010B5024874
:10222000FEF7B8FC10BD00000000014010B50248E8
:10223000FEF7B6FC10BD000000000140F8B50E4AE4
:10224000064610690D460F21090288431061106986
:10225000911508431061084FC03F3846FFF79AFCBC
:10226000002405E0200381193846FFF763FC641C55
:10227000AC42F7D3F8BD0000C00001400A4610B5DB
:1022800001460248FFF7DAFC10BD000000000140E3
:10229000F8B514460B4A054610690E460F2109028F
:1022A000884310611069911508431061054FC03FC4
:1022B0003846FFF76FFC23462A4631463846FFF77B
:1022C000A5FCF8BDC000014010B501460148FFF76C
:1022D00061FD10BD00000140F8B50D460B490646F2
:1022E000086914460F2212029043086108698A1592
:1022F00010430861054FC03F3846FFF74BFC2346AB
:102300002A4631463846FFF7BDFDF8BDC000014002
:1023100010B5002000F0A8F801208107486210BD28
:10232000F8B506460124084664051043850722488F
:10233000234605D1214D2F6AFF0702D05B1EFAD23A
:10234000F8BD002BFCDD33461E481D4F40330360B3
:1023500081608761D117890F89188910920700D091
:1023600001228918C16100210161164840300160D5
:1023700015498E4202D19921C90104E013498E42C8
:1023800002D1BB21C90141600120A861FF200230B8
:102390002862286AC0070AD101213046FEF71FFCD7
:1023A000012804D0002C05DC0220C043F8BD641EC7
:1023B000EFD2F9E70020F8BDFFFFFFFF80030540E3
:1023C00024042000000005400000014000100140EE
:1023D00070B5012464051F4D06462346286AC007D0
:1023E00002D05B1EFAD201E0002B02DC0020C043C9
:1023F00070BD1A48184B01603146403181608361DD
:10240000C2610021016115484030016014498E42CB
:1024100002D11121890204E012498E4202D15521D4
:10242000090241600120A861FF2002302862286A69
:10243000C0070AD101213046FEF7D1FB012804D0A4
:10244000002C05DC0220C04370BD641EEFD2F9E70A
:10245000002070BD800305400049100000000540C9
:10246000000001400010014070B5154C05460122E6
:1024700011462046FEF72AF9012208212046FEF7E0
:1024800025F9104C00212046FEF7D6FB0D48EB2124
:10249000803001630B4A0021C032116002210161CA
:1024A00089030162056000212046FEF77FFBA00240
:1024B000A06080006060052040066060002070BD64
:1024C00000000340000001402D2200001D220000FA
:1024D000C92200007D2200003D220000D922000018
:1024E0009122000010770000D5090000C908000003
:1024F000B109000057090000CD08000003080000E2
:10250000F90700000D09000095070000E73CE73CD3
:10251000E73CE73CE73CE73CE73CE73CE71CE73CC3
:10252000E73CE73CE73CE73CE73CE73CE73CE73C93
:10253000E73CE73CE73CE73CE73CE73CE73CE71CA3
:10254000E73CE73CE71CE73CE73CE71CE71DDEFB1C
:10255000DEDADEDADEDADEDADEFBE71DE71CE73C98
:10256000E73CE71CE73CE73CE71CE73CE73CE73C93
:10257000E73CE73CE73CE73CE73CE73CE73CE73C43
:10258000E73CE73CE73CE73CE73CE71CE73CE73C53
:10259000E73CE73CE73CE73CE73CE73CE73CE73C23
:1025A000E73CE73CE73CE73CE73CE73CE73CE73C13
:1025B000E73CE73CE73CE73CE73CE73CE73CEF5DDA
:1025C000E73CE73CE73CE71CE73CEF5DE73CE73CEA
:1025D000EF5DEF5DE73CEF5DE73CDEFBCE7ACE7A68
:1025E000C638C617C617C638CE7ACE7ADEFBE73CA9
:1025F000E73CE73CE73CE73CE73CEF5DEF5DE73C71
:10260000E71CE73CE73CE73CEF5DE73CE73CE73CA9
:10261000E73CE73CE73CE73CE73CE73CE73CE73CA2
:10262000E73CE73CE73CE73CE73CE73CE73CE73C92
:10263000E73CE73CE73CE73CE73CE73CE73CE73C82
:10264000E73CE73CE73CE73CE73CE73CE71CEF5D69
:10265000E73CE71CE73CE71CE71CEF5DE73CE73C99
:10266000E73CEF5DE73CEF5DE71CD69ACE7AE73DAD
:10267000EF5DE73CE73CEF5DE73DCE7AD69AE71C9D
:10268000E73CE73CE73CE73CE73CE73CEF5DE71C29
:10269000E71CE73CE71CE73CEF5DE71CE73CE73C59
:1026A000E73CE73CE73CE73CE73CE73CE73CE73C12
:1026B000E73CE73CE73CE73CE73CE73CE73CE73C02
:1026C000E73CE73CE73CE73CE73CE73CE73CE73CF2
:1026D000E73CE73CE73CE73CE73CE73CE71CEF5DD9
:1026E000E73CE71CE73CE73CDEFBE71CE73CE73C5C
:1026F000E73CE73CE73CE73CDEDBC618B596EF5D20
:10270000FFFFFFFFFFFFFFFFEF5DB596C618DEDBA3
:10271000E73CE73CE73CE73CE73CE73CE71CDEFB0B
:10272000E73CE73CE71CE73CEF5DE71CE73CE73CA8
:10273000E73CE73CE73CE73CE73CE73CE73CE73C81
:10274000E73CE73CE73CE73CE73CE73CE73CE73C71
:10275000E73CE73CE73CE73CE73CE73CE73CE73C61
:10276000E73CE73CE73CE73CE73CE73CDEFBEF5D72
:10277000E73CDEDBD6BAD6BAD6BADEFBE71CEF5DA5
:10278000E73CE73CE73CE71CD6BABDD7A535EF5D93
:10279000FFFFFFFFFFFFFFFFEF5DA535BDD7D6BAF7
:1027A000E71CE73CE73CE73CEF5DE71CDEFBD6BA05
:1027B000D6BAD6BADEDBE73CEF5DDEFBE73CE73CB2
:1027C000E73CE73CE73CE73CE73CE73CE73CE73CF1
:1027D000E73CE73CE73CE73CE73CE73CE73CE73CE1
:1027E000E73CE73CE73CE73CE73CE73CE73CE73CD1
:1027F000E73CE73CE73CE73CE73CE73CE71CDEDB4B
:10280000CE79C638CE59D69AD69ACE59DEDBE73C79
:10281000E73CE73CE73CE71CD6BAB5B6A4F4EF7E4C
:10282000FFFFFFFFFFFFFFFFEF7EA4F4B596D6BAD0
:10283000E71CE73CEF5DE73CE73CDEDBCE59D69A90
:10284000D69ACE59C638CE79DEDBE71CE73CE73CAA
:10285000E73CE73CE73CE73CE73CE73CE73CE73C60
:10286000E73CE73CE73CE73CE73CE73CE73CE73C50
:10287000E73CE73CE73CE73CE73CE73CE73CE73C40
:10288000E73CE73CE73CE73CE71CDEFBDEFBC63809
:10289000BDF7CE59E71CF79EDEDBB5B6CE59DEFBA1
:1028A000E71CE73CE73CDEFBD6BAAD75A4F4F79E27
:1028B000FFFFFFFFFFFFFFFFF79EA4F4AD75D6BA41
:1028C000E71CE73CEF5DE71CDEFBCE59B5B6DEDB6F
:1028D000F79EE71CCE59BDF7C638DEFBDEFBE71CD2
:1028E000E73CE73CE73CE73CE73CE73CE73CE73CD0
:1028F000E73CE73CE73CE73CE73CE73CE73CE73CC0
:10290000E73CE73CE73CE73CE73CE73CE73CE73CAF
:10291000E73CE73CE73CE73CDEFBDEFBC638C6387D
:10292000DEFBF7BEFFFFFFFFEF7DC638BDD7D6BA8F
:10293000DEFBE73CE71CDEDBD69AAD55A515F79F1D
:10294000FFFFFFFFFFFFFFFFF79FA515AD55D69ACD
:10295000DEFBE73CE73CDEFBD6BABDD7C638EF7DF1
:10296000FFFFFFFFF7BEDEFBC638C638DEFBDEFB2F
:10297000E73CE73CE73CE73CE73CE73CE73CE73C3F
:10298000E73CE73CE73CE73CE73CE73CE73CE73C2F
:10299000E73CE73CE73CE73CE73CE73CEF5DE73CF6
:1029A000E73CE73CE73CEF5DDEFBCE59CE7AEF7EBD
:1029B000FFDFFFFFFFFFFFFFFFFFDEFBC577C5B8AF
:1029C000D69ADF1ACED9CEB9BDD8A4B4A535EF7E3C
:1029D000FFFFFFFEFFFEF7FDD77B95938DB0A6733B
:1029E000B6F5BF15BF15BEF5AE939E11CF1BF7FF11
:1029F000FFFFFFFFFFDFFFDFEF7DCE79CE99DF1B0B
:102A0000E73CEF3CE73CE73BE77CDF5BEF3CEF3C40
:102A1000E73DE71DE73CE75CE77CDF5CE73CE73C44
:102A2000E73CE73CE73CE73CE73CE73CEF5DE73C65
:102A3000E73CE73CE73CE73CDEDBC638A535D6BBE8
:102A4000FFFFFFFFFFFFFFFFFFDFF7BECE78B5966A
:102A5000BD97C618BE17BE37CE39C5B8DE7DFFDFBD
:102A6000EFFCCFD7AF328EAE8EAF7E4EA672B6F3EE
:102A7000BF55BF55BF14B6F4AEB3A6518ECF9EF16D
:102A8000BF35DFB9FFFEFFFFD6BBA536C5F8DEDBDD
:102A9000E71CE73CE73CE75DEF7DDF1BEF3CE71C15
:102AA000E73DE71DEF3DEF3CE71CE73CEF5DEF5DE9
:102AB000E73CE73CE73CE73CE73CE73CEF5DE73CD5
:102AC000E73CE73CE73CE73CDEDBCE599CD3B57600
:102AD000F79FFFFFFFDFFFFFFFFFFFFFE77BB6165C
:102AE000B5D6DE9BEEFDEF5EF7FEF7FECFF9A753FE
:102AF000760C65C86E29768B972EA7B1BF94C7D583
:102B0000CFF6CFF6CFD5CFD5C7B5BF749F2E86AB46
:102B1000764A764A96AFAED4A5B49CF4D63AE6FC93
:102B2000E73CE73CE73CE73DEF1DEF3CEF9CDF3B3C
:102B3000E77CE73CE71CEF1DEF1DEF3DEF5DE73C59
:102B4000E73CE73CE73CE73CE73CE73CE73CE73C6D
:102B5000E73CE73CE73CE73CE71CD69AAD568C7275
:102B6000CE59FFFFFFDFFFFFFFDFFFDFF79EEFBD67
:102B7000E79DEF7EFFDFFFFFD7FA973146664E47AE
:102B80006669870DA790B7B2B7B2BFD3B792B792B5
:102B9000BFB3BFD3BFD3BFB3C7D3C7D3CFF5BFD3A3
:102BA000AFD08F2C76896E0A75AB7DADCEBADF5B68
:102BB000E75AE71BEF3CEF1DE71DEF5DC716BF159A
:102BC000CFB7CF58DF3AEF3DF73DEF3DE73CE73C6D
:102BD000E73CE73CE73CE73CE73CEF5DEF5DE73C8B
:102BE000E73CE73CE73CEF5DE73CDEFBC618949230
:102BF000A514EF5DFFFFFFDFFFDFF7BEFFDFFFBFC5
:102C0000FFDFFFFFE7DCAEF46E0C55E86ECB870DFF
:102C10009F90AFB2AF71AF71A750AF70AF91AF914E
:102C2000AFB1B7B1B7B1B7B1B7B1BFD2B7D2C7F3D0
:102C3000CFF4CFD4B792970E76A95E468E4FB714D5
:102C4000DF99EF3CEEFEF75EE75BCF178E0D9EEF50
:102C5000AF91AF12D778E77CE73DE73DE73CE73C33
:102C6000E73CE73CE73CE73CE73CE73CEF5DE73C23
:102C7000E73CE73CE73CE73CE73CDEFBD69AAD555A
:102C80008411BDF7FFDFFFDFFFDFFFFFF7FFFF9FCF
:102C9000FF9FE7BC96F056075648870DA7129EF196
:102CA0009F10972F972E9F4FA730A70F9F6F9F4F73
:102CB000A76FA770A770A770AF90AF90AFF0B7D114
:102CC000B771C793CFD4C7F3AFD1972D6E487E4B62
:102CD000B6F4DF3BEF3EE77DC734964C8E4CA7AF92
:102CE000976D866CC777DF5CDF1CE75DE73CE73CF0
:102CF000E73CEF5DE73CE73CE71CE71CE71CDEFB3D
:102D0000E71CE73CE73CE73CE73CDEFBCE7AB596C8
:102D10008C31AD76EF7EF7BEF7BEF7BEEFBEFFFF9C
:102D2000D79A7DEE4D875E887F4C870D8ECE8EEED6
:102D30008F0D8F2D8F0D970E9F30A710972E972FE9
:102D4000974F9F4F9F6FA770A790A790A751AF91E4
:102D5000AFB0A7AFA78FAF70B772BF53976D7E6A42
:102D6000862CA6B2C778BF568E6D7E48B731C7F2A3
:102D7000972C7E0BCF57E73CE71DE75CE73CE73C31
:102D8000EF5DEF5DE73CE71CE71CDEFBD6BAD6BA89
:102D9000DEFBE73CE71CE71CE71CDEFBCE59B5B7C2
:102DA000B5B7D6BBF7BEFFDFF7BEF7BEFFBFBF3775
:102DB00065EA4585664986EE86ED7EEB770A7F0BF0
:102DC000870D8F0E86ED870D874C7F2B8F0E972EEC
:102DD000972E970E972E9F4F9F4F972FA732A71092
:102DE000A7509F6F9F8FA7AFA790AFB1AFB3A7902A
:102DF00086AA76498ECD7E6C760AA78ECF75CFF4E3
:102E000096EC860CD778EF3DF73EE6FBE73CEF5DAE
:102E1000E73CEF5DE71CDEFCDEDCC639D69ACE79F6
:102E2000C639CE59D6BADEFBDEDBCE7AB598CE7A7D
:102E3000E79DEFBEFF9FFF9FF77EF7DEBFF65D6A5F
:102E400045276ECB6EEA66AA76EC76AC770C76CC2C
:102E500076AB7ECB86EC86EC86EC86EC8ECE8ECD89
:102E600086ED870D872E870E8F0E8F0E8F2E8F4E3D
:102E7000974F974F974F9F4F9F2FA74FA770A790A0
:102E80009F6F8EED7E4B866C9F0EAFB1B791B7F200
:102E90008F0B7E49D73AE71CE75CE75CE73CEF5DC8
:102EA000E73CE73CEF5DDEDCC639BDF8DEFCE73D24
:102EB000DEDBC618C618C639C618B5B7D67BE75DBF
:102EC000E79DF7BEFF9FF77FF7BEDF7B658B4D2841
:102ED00055C96ECB66AA5E8A6EAB6E6B668A6EABA8
:102EE00076AB768B766B768B76AC7ECD86CC7EECB5
:102EF0007EEC7F0C7F0C7EEC870D8F4E972E8F0E15
:102F00008F0E8F0E970E972F9F2F9F2E9F4F9F4FA5
:102F10009F70A7709F6FA770A790AFB1AF71B7D127
:102F2000870B7E49D73AEF3DE75CE75CE73CEF5D16
:102F3000E73CE71CE71CCE59B5B7CE7AF79EF7BF42
:102F4000EF7DE71CD6BABDF7AD75B5B7E73DF7BE67
:102F5000EFBEF7BFF77FF7BEDFBB95F13CA655A9E3
:102F6000666B5EAA56695E69668A668B668A668A41
:102F7000668A6E8B76CC6ECC66AB5EAB4E67464790
:102F80003E263E263E2646264E67568876AB7ECCAB
:102F90008EED8F0D8F0D8F0D8F0E972E8F0E970E3E
:102FA000972E974F9F4F9F6F9F4F9F2FA730AF90A8
:102FB000870B7E49D73AEF3DE75CE75CE73CEF5D86
:102FC000EF5DDEFCD69ABDD8BDD8E6FCF79EEF7E5D
:102FD000EF5EF79EEF7ED6BBCE7AE71CEF7DEF9ECD
:102FE000F7BEF79FF77FEFDDAEB444674D885E4ACA
:102FF0005E6A56485668568956495E8A5E695E49D9
:103000005E8A66CB56AA3E4725E415A305A0058037
:1030100005600560058005800DA00DA03DC54E260C
:1030200066A97EEB870C870D86ED8EED8F0E8F0ED9
:103030008F0E8F0E8F0E8F0E970E972E9F0F9F6FF6
:103040007F0B7649D719EF3DE75CE75CEF5DEF5DFD
:10305000E73CE71CCE59BDD8D69AEF5DF77EF79EC8
:10306000F77EEF7EEF7EEF7EEF5DEF5DEF9EEF7D13
:10307000EF7EEF3DF7BFCF195D0B34A54E295649C2
:103080004E2846274E684E684E474E485629566988
:103090004E8836461DC30580058005A005E005C0A5
:1030A00005A105A105A105A005C00DE015811DA282
:1030B0002DC3464566A976EB86ED86CD86CD86ED99
:1030C000870D8F0E8F0D8F0D8F0E8F2E970F974FB1
:1030D0007F0A7649CEF9E73CE73CE75CEF5DE73CE9
:1030E000E71CDEFBC618BDD7DEFCF79FEF7EEF5D69
:1030F000EF5DEF7EF77EF77EF77EEF7EF77EEF7E69
:10310000EF7DEF7DEFBD8DD12BE445C746274627E8
:10311000462746273E273E274647464756694648A4
:103120002E040D8105800DA00DC00DA01D021D02F5
:1031300025032524252325422D822DE31DE31DC2D1
:103140001DC125C23DE4564776AB86ED7ECC7ECCD4
:103150007ECC7ECC7EEC86ED870D870D8EEE8F0EBD
:1031600076EA7628C6F9E73CE73CE73CE73CE73CF3
:10317000E71CDEDBC618AD76BDD7D6BBEF7EEF5EB3
:10318000EF5DEF7EEF5EE73DE73DF79EF73EF77EB2
:10319000E75CEFDDC6D8544A2C44462736263E2647
:1031A0003E263E06360636063E463E67364725E450
:1031B0000D81058015811D4224A224022B832B43FF
:1031C0002B23336433A5340434443C8435A435C400
:1031D0002DE325E225C235E356476EAA7EEC7ECC70
:1031E00076CC7ECC7ECC7ECC7ECC7EEC86CD86ED45
:1031F00076EA6E28C6F9E73DE73CE73CEF5DE73C41
:10320000E71CDEFBD69AAD35843194B3C639E73D71
:10321000F77EEF3DEF5EF77EEF5EEF5EF71EF77E27
:10322000E75CEFDD8D512B654D8835E52E052DE5ED
:1032300035E536063E263E263E4636461DC305612A
:1032400005800DA11D421C2233A453C8748C5B89D8
:103250003A6629E4324532E53B6533A43C833D03BD
:103260003DC336032DE22DE23E044E266E8B768B57
:1032700076AB76AC76AB76AB76AB76AC7E8C7ECC32
:1032800076EA6E49C6F9EF3DE73CE75CE73CE73C90
:10329000E73CE71CD6BAC638AD558C717BF0A53536
:1032A000C659EF7EEF5DE73DEF5EEF5EE77DEF3EF7
:1032B000E71DD75A44282CA43E062DC42DE52DC564
:1032C00035E535E52DC42E252E6515E305C005A091
:1032D00025C22CC12BC35C4AA5B3D6DAF71CDEFB92
:1032E000A5744ACA29A639C7420742683B483C062A
:1032F000450445E33E0335E235C33DE45E4766A938
:103300006ECB6EAB6E8B76AB76CB6EAB6EAB7ECC94
:1033100076AA7649CF38E75BE73CEF1DE73CE73C10
:10332000EF5DEF5DE73CDEFBCE79BDD78C727BF0C5
:103330008431CE59E73DE73DE73DEF5EE77DE73D70
:10334000EF5DB6763BE62D0435E525E425E425C49E
:103350002DC42DC425C426041DE40D8105A01DE245
:103360002D4234A46D4CB6B6DF7BE73BEEFCEF7C20
:10337000DF3BC678843041C839C7424932673B4693
:103380004485458446043E0435E33DE34DE65E480E
:103390006EAA6E8A6E6A6E8A6E8A668A668B76AC52
:1033A0006EA97649CF39E75CE73CEEFDEF5DE73C7F
:1033B000E73CE73CE73CE73CDEFBD69AC6188C725C
:1033C0008C51CE7AEF5DE73DE71DE73DE75DE71CF9
:1033D000E77C852F2BE42D6525C31DE31DE41DC36C
:1033E0001DC325C4260425E415A30D611DE235E4A3
:1033F000452675ADBF17E79CEF7DE73CEF3DE73C09
:10340000E77CEF9DDEBB8BF2420942293A474347F6
:1034100054A655A64E0546253E043E0345A556072F
:103420006669666A664A6669668A66AA668A6EAB75
:103430006E897629CF39E75CE75CEF1DE73CE73C16
:10344000E73CE73CE73CEF5DE73CDEFBD69AA55561
:10345000B596DEDBE73DE73DE73DE73DE73DE71CB1
:10346000CED9544A24432DA51DC315C215C31DC36F
:103470001DC325E42E2525E41DA31DC3360445A642
:1034800075ACBED7EF9EDF1DDEFCEF5DEF3DDF3B91
:10349000DF3BE71BFF7FE69C7BD03A4843675467DE
:1034A0005D675DE64E0545E546054E2556275E6897
:1034B000666966495E295E495E695E895EA96E8AB3
:1034C00066486E08CF18E73CE75CEF1DE73CE73C39
:1034D000E73CEF5DE73CEF5DE73CDEFBC639A55519
:1034E000C618DF1CE71CE73DE73DE71DE71DE71CAD
:1034F000ADF53BC62CC425A31DC315821DA31DE439
:1035000025E426052E252DE52DC53E264E276DEBFF
:10351000AE94DF1BEF1EEF3EE71DEF3CE73DE75C9F
:10352000E77CEF5CEEFDEF5EC6B95BEB4D0655A6A2
:103530005E2656254DE54DE656065E265E686668B3
:103540006649664966495E695E68566856875E697F
:103550005E276DE8CEF9E73CE73CEF1DE73CE73C32
:10356000E73CE73CE73CE73CE71CDEDBC639A5551A
:10357000CE7AE73DE73DE71CDEFCE71DE6FDDEDB3E
:103580008D3133C535451D831DA3156325A42E0537
:103590002E262E06360635C63DE74E49662A8E4F44
:1035A000D739F73DE6DDEF3EEF5DE6FBE73DE73C73
:1035B000EF7CEF3CE6FCE77BBF3675AC56265665E4
:1035C0005664566556265E48664866485E485E48BC
:1035D0005E485E285E485E4856474E263DE44E06ED
:1035E00055E66DE8CF19E73CE75CEF5DE73CE71C8B
:1035F000E71CE71CDEFBE71CDEFBD6BAB596A5355B
:10360000D69AE71CE71CDEFCDEDCE71DE6DDCEBA61
:103610007CCF340635451D831D83256435C53606AC
:103620003E273E273E0845E85609664B6DEC9E73E3
:10363000DF3AF75EEF3DE73CE75CEF5CEF5EE71CEF
:10364000E75CE71CEF7DDF798E6E6627666866664D
:103650005E465E676668664966486E6866685E488C
:103660005E485E2856074DE645C53DC42DC345E579
:103670004DC56DC8CED9E71CE75CEF5DE73CDEFBCE
:10368000D6BAD69ACE59CE59C638BDD79D14A535CF
:10369000DEFCDEFCDEFCE73DE71DDEFCDEDDCE7A97
:1036A00074CF34262D4425831D422D853DE63E07EB
:1036B000462846284609562A664B766C760EBF1673
:1036C000E73BEF1CE73CDF5BE75BEF5CE71DEF7D73
:1036D000E73CEF3CE73CC716970D6F066E096E0896
:1036E0006E276E4866295E085E075E2656075E07EF
:1036F000560755E74DE64DE6460546253E444E261F
:1037000055E66587C698DEBADEFAE71CDEFAD6BA59
:10371000D69AD6BBCE7AC659C659CE79BE18CE7ABD
:10372000D6DBDF1CDEFCDEFCDEFCDF1CDEDCC638AC
:103730007CAE44473D46254325643DE8460846089F
:103740004E29562A562A5E0B6E4C7E6E8DCFC717B9
:10375000E77CE71DEF3DE75CE71CEF1DE73BEF5C17
:10376000EF3DE71CE75BCF58A6B17DCB4DA64525C5
:103770004D65454545054D264D2645054D064CE50F
:1037800044C54CE54D064D064D06552655265D08AB
:103790007D8DB694D6F9CE99D699E71BD6BABDF7EA
:1037A000C618DEDCE73DDF1DDF1CDF1CDEFCDEFCB7
:1037B000DEFCDEFCDEFCDEFCDEFCDEFCDEBCBE187D
:1037C0007CAF44483D4725442D8546094E094E2986
:1037D0004E4A564B5E2B662C764D7E8E8DF0C7176B
:1037E000E77CE71DE73DE75CE73CEF3DE73BEF3C6F
:1037F000EF3DEF1DE75CDF9BCF58B714A6746C6CF0
:103800004B684B89538A5BAB6C2C748E7CCF7CCF1E
:1038100085108D51957295929DF4AE35AED4B6B5A6
:10382000C6F8DF3CDEFCC619C5F9DEBBD6BAAD76FC
:10383000AD56CE7BDEDCD6DCD6DCD6DCDEFDDEFCB7
:10384000D6DCD6DCDEFCDEFCDEFCDEDCDEBCC63933
:1038500084D04C494D68356535864E2A564A564BBC
:103860005E6B666C664C6E4D7E8E86AF9630BEF794
:10387000E75CE73DE73CE75CE73CEF3DE73CE73DE5
:10388000EF1DEF1DE71DE75DDF9CDF9CEF3D949290
:103890006B2D83D08C119432AD16C5D9CE3AD65B40
:1038A000D67BDE9CDE9CDE9CDEBCE6DDD6FCDEFD4F
:1038B000DEDDE6BED65CB557AD57D69BD67AA535CC
:1038C000A4F5B598B5B9B5D9C61AC63ACE7BCE9B84
:1038D000D6BCD6DCD6DCD6DCD6BCD6BCDEBCCE595B
:1038E00095125C6A55693D673D875E4B664C664C38
:1038F000666D6E6D6E6E766E868F8ED09E71BEF624
:10390000DF5BEF3DE73CE75CEF5CEF3DE75DE73D0C
:10391000EF3DEF1DEF1DE71CE73DE75DEF7CAD746C
:103920008C91AD55AD55AD55CE59DEDBDEBBDEBB62
:10393000DEBBDEBCDEBCDEBBDE9BD67BCE3BC61B6D
:10394000BDBABDBABD999CD5A534CE99CE7AA51580
:103950009CD4A537A5169CF6AD57AD57AD57AD779E
:10396000B5B8BDF9C61AC63ACE5BCE7BCE7BCE5A71
:103970009D54646C5D4B45684588664D6E4D6E4D3B
:103980006E6E766E766F7E6F8E9096B19E91B6D685
:10399000DF3BEF5DE73CE75CE75CEF3CE75DE73C86
:1039A000E73CEF5CEF5CEF3CEF3CEF3CDF3CADB560
:1039B0009513ADB6A575ADB6C69ABE79CE7BC65A7F
:1039C000C63ABE19BDF9B5D8B5B8AD77AD77AD5724
:1039D0009D16A537A5579CD4A534CE78CE59A535CC
:1039E0009CD4AD57AD57A517A537A537AD57A557EB
:1039F000A536A536A536A536A537AD57B5D8C63AEE
:103A0000AD966C6D652C556A55896E4E764E766E08
:103A10007E6F7E8F7E9086708E9196B2A6B2B6D55E
:103A2000D6FAE73CE75DE75CE73CEF3CE75CE73C68
:103A3000E73CE73BEF5CEF5CEF3CEF3BE73DAD760F
:103A40009CF4B576AD77BDF9CE7BB5B8A537A55753
:103A5000A5379D169D16A537A537A537A536A557B9
:103A60009D37A558A5579CF5A555CE59CE79AD756E
:103A7000A4F4A536AD37A537A537A5379D16A537CC
:103A8000A537A537A537A516A537A537AD56CE5B03
:103A9000BDF87CB0754E5D8B5D8A764E866F7E6F0D
:103AA000869086B18EB18E9296929EB3A6F3B6D5CD
:103AB000CED9DEFCE75CE75CE73BE73CE73CE73C74
:103AC000E73CE73CE73CE73CE73CE71BEEFCB55551
:103AD000AD35BDB7BDB7C639CE3AAD36A516A5379B
:103AE000A537A537A557AD57A537A516A516A536F1
:103AF000A537A5379D179D15B577D67AD6BABDF7E8
:103B0000A5148C738412843384127BF284129494EF
:103B1000A537AD78AD57A537A537AD57A556D69B78
:103B2000CE7A8D127D8F6DAC5D8B764E86708690D1
:103B300086918EB196D296B39EB39ED3AF13B6D66E
:103B4000CEB9DEFBE75CE75CE73BEF5CE73CE75DBB
:103B5000E75DE73DE73DE75EEF5EE73DD69AA535D9
:103B6000B596BE18B5D7C67AC67AA576A557A53735
:103B7000A537A537AD57A53794947C128BF18BF1FF
:103B8000841284338C739CF4BDD7DEBADEDBCE792D
:103B9000BDD7A5349CD394B28C7184106B6E7BF02E
:103BA000AD57AD57A537A557A557A536A536CE5A5B
:103BB000DF3DA5B58D318DB16D2D7DEE96B18E7148
:103BC00096B29ED39E939E93A6B4AED5B6D5BEF6BE
:103BD000BEF7CF18D739DF3BE75CEF5CE73CEF7D02
:103BE000E75CE71CE73CEF5DE73DE73CCE5AA535D7
:103BF000BDF8C638BDF8D6DBC63AA536A516A5373A
:103C0000AD57A537AD57AD577BF06B6E84108C71F7
:103C100094B29CD3A534BDD7CE79DEDBE73CDEFB86
:103C2000D6BACE59C638C618BDD7B59694D38C72BD
:103C3000A536A537A537A537A557A557AD36BDF984
:103C4000E73DBE58955295D185AF756D96B296B247
:103C50009EB39EB3A6B4A6B4AEB4AED5B6D5BEF6EA
:103C6000C6F7CF18D739DF3BE73BE75CE75CE73CBB
:103C7000E73CE73CE73CE73DE73CE71CB596B5B7DA
:103C8000CE59C639CE7ADEFCBE19A536A557A55742
:103C9000A537A537A537A5368C7294D3B596BDD771
:103CA000C618C638CE59D6BADEFBE73CE71CE71C7F
:103CB000E71CDEFBE71CDEFBDEDBD69AAD969493B9
:103CC000A515AD57AD57A537A557A557AD57B5980D
:103CD000E73DDF3CA5D495D39632754D96729ED3C1
:103CE000A6D4A6B3AED5B6F5B6D5B6D5BEF6BEF655
:103CF000C6F7CF18D719DF3ADF3BE73CE73CE73C94
:103D0000EF5CE75CE71CE73DE71CD69AA535CE39AA
:103D1000D69ACE59DEFCDF1DB5D8A536AD57A557CE
:103D2000A537A557AD57A4F59493B596D69ADEDB83
:103D3000DEFBE71CDEFBE71CE71CE71CE71CE73C9F
:103D4000E73CE73CE73CE73CE71CDEDBBDF794B330
:103D50009CF5AD77AD78AD57AD77AD57AD57B5772D
:103D6000DEDCEF9EBE78A5D4A65495D185D09E9377
:103D7000AEF5AED5B6D5B6F6BEF6BEF6BEF7C6F70C
:103D8000C6F8CF18D71ADF1ADF1BDF3BDF1BE75C53
:103D9000EF5CE71CE73CEF5DD6DBB5B7B5B7D69B6C
:103DA000D69AD6BBEF7ED6DCB597AD57AD57AD777B
:103DB000AD57AD78AD779CF594B3BDF7DEDBE71C6E
:103DC000E73CE73CE73CE73CE73CE71CEF5DEF5DA9
:103DD000E73CE73CE73CEF5DE73CDEFBCE9A9CF43A
:103DE0009493A557AD78AD78AD77AD98B577B59884
:103DF000C61AEF7EE75DB657AE35AE758D9195F27A
:103E0000AEB5BF17BEF6BED6BEF7C717C6F8C6F822
:103E1000CF18CF19D71ADF1ADF1BDF1BE73CE73CAF
:103E2000E73CE73CE75DDEFCC639B596D69BDEBBDA
:103E3000DEDBEF5DEF5EC65AAD77B598AD97AD7737
:103E4000AD78AD78AD5794939CF4CE7ADEFBE73C29
:103E5000EF5DE73CE73CE73CEF5DEF5DEF5DE73CA6
:103E6000E73CE71CE73CE73CE73CDEFBCE7A9CF412
:103E70008C52A536AD78AD98AD77AD98B598B5981C
:103E8000B598DEDCF7DFD71BBE57BEB7AE559DB386
:103E90009DF3BEB7C718C6F8C6F7C6F7CF18CF1937
:103EA000CF19D71AD71ADF1BDF3BDF3BE71CE71B15
:103EB000E73CEF5DDF1BC618BDF7CE9AE71DDEDCE1
:103EC000E73DF7BFDEFCB5B8AD77B5B9AD97AD77D7
:103ED000B598AD98A5368C529CF4CE79DEFBE73CC4
:103EE000E73CE73CE71CE73CE73CEF5DEF5DEF5D5F
:103EF000E73CE73CE73CE73CDEFBD6BABDF7AD76F6
:103F00009CF4AD56AD98B5B9AD98AD97B5B8B5B907
:103F1000BDB9C61AEF5EEF9ED6FAC6B9C6F8B65658
:103F2000A5F4AE35BEB7C718C718C6F8CF19CF1954
:103F3000D71AD71ADF3BDF3BDF3BDF3BE71BE71B33
:103F4000E71BDEFBCE59BDF8CE7AEF5DEF3EE73DD5
:103F5000F79EEF5DC639B5B8B5B8B5B9AD97AD98B0
:103F6000B5B9AD98AD569CF4AD76BDF7D6BADEFBCB
:103F7000E73CE73CE73CE73CEF5DEF5DE73CE73CD7
:103F8000E73CE73CE71CDEFBCE79BDF7BDF7CE5939
:103F9000BDF9B5B8AD77BDFABDF9B5B8B5B8BDD9FD
:103FA000C5FABDB8D69BF7DFE77DCEDACEF9CF39BB
:103FB000BE97A5D4ADF5BE97CF19D759CF19D7194C
:103FC000D71AD73ADF3BDF3BDF3BDF5BE75CE73C01
:103FD000D6BABE17BDF7D6BBEF7DEF5DEF5EF79F9C
:103FE000F79FD6BBBDD8BDF9BDF9B598B5B8BDF939
:103FF000BDF9AD77B598BDF9CE7ABDF7BDF7CE79ED
:10400000DEFBE71CE73CE73CE73CE73CE73DE73D00
:10401000E73CE71CD6BBCE5AC63AC61AC61AB598B4
:10402000AD78B5B8AD77B5B8C65AB5B7BDDABDB9D4
:10403000BDFABDF9C619DEDCF79FEF9ED71AD71A75
:10404000D71BCEFABE57ADF6B616C6B8CED9D6F93E
:10405000DF1ADF3BDF3BDF3BDF1AD6FAD6BAC639C1
:10406000BDF8CE59E71CEF7EEF5EE73DF79EF7BF48
:10407000DEDCC619C619C61ABDD9BDDAB5B7C65A2F
:10408000B5B8AD77B5B8AD78B598C61AC61AC63A00
:10409000CE5AD6BBE71CE73CE73DE73DEF5DE73D89
:1040A000E73CE71CD6BACE59C619BDD8AD78AD5796
:1040B000AD78B598AD77B5B8C63ABE19BDD9BDD9FA
:1040C000C61AC619BDF9CE7AE73DF79EE77CDF3BFD
:1040D000D71BDF3BD73BCED9BE77B636BE37BE3710
:1040E000C657C658C678C658C658C658C618CE7AD7
:1040F000DF1CE75DE73DE73DEF5EF79FF79EE73D9D
:10410000CE7ABDF9C619C61ABDD9BDB9BE19C63A0F
:10411000B5B8AD77B598AD78AD57AD78BDD8C619FF
:10412000CE59D6BAE71CE73CE73DEF5DEF5DE73DD2
:10413000E73CDEFBC639B597AD76AD77AD78AD78A7
:10414000B598B5B9B5B9B598B5B8C63AC61AC5F9EE
:10415000C61AC61AC619C619D69BE71CF7DEEF9D0C
:10416000DF5CDF3BDF5CDF5CDF5BDF3BD6DAD6BAF0
:10417000CE99CE79CE79CE9AD6BBDEDBE73DEF5D28
:10418000EF7EEF5DEF5DEF7EF79FFFDFE71CCE7AFE
:10419000C619C619C61AC61ABDF9C5FAC63AB5B8BF
:1041A000B598B5B9B5B9B598AD78AD78AD77AD7608
:1041B000B597C639DEFBE73CE73DEF5DE73DEF5DD8
:1041C000E73CDEDABDF7A4F49CD4AD57AD58B5B9E1
:1041D000B5B9AD77BDB8C61ABDF9CE5ACE5AC63AF2
:1041E000C619C619CE5AC639C639CE7ADF3CEF7D1C
:1041F000EFBEEF7DE73CDF3CE75CE75CE75DE75D5A
:10420000E75DE75DE75DEF5DEF5DEF5EEF7EEF5D44
:10421000E73DEF5DF79FF7DFEF7EDEFCD69BC6390B
:10422000C639CE5AC63AC61ACE3ACE5ACE5ABDF979
:10423000C61ABDB8AD77B5B9B5B9AD58AD579CD4B0
:10424000A4F4BDF7DEDAE73CEF5DE73DE71CEF5D88
:10425000E71CDEFBCE79A5149493AD56AD78AD780E
:10426000B5B8BDD9BDF9A53694B4B5B7CE5ACE7B95
:10427000C63AC619CE7ACE7BCE7ACE7ACE7ADEFC1C
:10428000EF7DEF9EEF9EEF9DEF7DE73CE73CE73D46
:10429000E75DE75DE75DE75DEF3DE73DE73CEF7E2E
:1042A000F7BFF7BFF7BFEF5EDEDCCE5ACE7ACE7A2D
:1042B000D69BCE7AC639CE5ACE7BCE7BB5B794B4D8
:1042C000A536BDF9BDD9B5B8AD78AD78AD569493E6
:1042D000A514CE79DEFBE71CEF5DE71CE73DEF5D43
:1042E000E71BE71BDEDBB59694939CD4BDD9B5984C
:1042F000B597B5779CD4738F6B4D8C31C619D69B0F
:10430000D69BCE5ACE7AD69BD69BD69BD69AD6BB78
:10431000DEDCE71CEF5DF7BFFFDFF7BFF7BEEF9E08
:10432000EF7EEF7EEF7EEF7EF79EF79FF7BFFFDF1A
:10433000F7BFEF7EE71DDEDCD6BBD69BD69BD69BB8
:10434000CE7BCE5ACE5AD69BD69BC6198C316B4D9E
:10435000738F9CD4B577B597B598BDD99CD49493F9
:10436000B596DEDBE71BE71BEF5DE73DE73CEF5D66
:10437000E73BE73BE71BC639A5159493AD77B5B787
:10438000A51584317BF08C7294B28430A555C61883
:10439000D6BBD6BBD69BD69BD69BD69BDEDCDEBBE4
:1043A000D6BBD6BBDEDCE71DEF5DEF5DF7BEF7BE2B
:1043B000F7DFFFDFFFDFFFDFF7BFF79FEF7EE73DB0
:1043C000DF1CDEFCDEDCDEDBD6BBD6BBD69BD69BA1
:1043D000CE7BCE7AD6BBD6BBC618A535843094B278
:1043E0008C727BF08431A515B5B7AD779493A51584
:1043F000C639E71BE73BE73BEF5DE73CE73CE73CC3
:10440000EF5CE75CE71CDEDBC5F8A515A51494722C
:1044100084319CF4BDD7C638C637AD548431A53538
:10442000CE5ADEDCDEDCD6BCD6BBD69BDEDCDEDCE8
:10443000DEDCDEDCE6FCE6FCE6FCE71CDF3CE73C21
:10444000E75CEF5DEF5DE73DE73CE71CE71CDEFC6A
:10445000DF1CE71CDEFCD6DBD6BBDEFCD6BCD6BB45
:10446000D6BCDEDCDEDCCE7AA5358431AD54C63771
:10447000C638BDD79CF484319472A514A515C5F82F
:10448000DEDBE71CE75CEF5CE73CE73CE73CE73C56
:10449000E73CEF5DE73CDEFBD69AC638B596AD75D6
:1044A000BDD7CE59D69ADEDBD6BACE59AD758C7251
:1044B0009492C639E71CDEFCDEFCD6BBDEDBE6FCF4
:1044C000DEDBDEDCE71DE71DE71CE71CE71CE73C45
:1044D000E71CE73CE73CE71CE73CE71CE71CE71C64
:1044E000E71DE71DDEDCDEDBE6FCDEDBD6BBDEFC4B
:1044F000DEFCE71CC63994928C72AD75CE59D6BAE3
:10450000DEDBD69ACE59BDD7AD75B596C638D69AEC
:10451000DEFBE73CEF5DE73CE73CE73CE73CE73CA4
:10452000E73CE73CE73CE71CDEDBD6BAD69ACE791F
:10453000D6BADEFBE71CE73CE73CDEFBCE599CD35A
:104540008431B576DEBBDEFCE6FCE73DDEDBE6FC77
:10455000E71CEF3DEF3DE6FCE71CEF7EEF5DEF5D16
:10456000EF5DEF5DEF5DEF5DEF5DEF5DEF7EE71C13
:10457000E6FCEF3DEF3DE71CE6FCDEDBE73DE6FC5D
:10458000DEFCDEBBB57684319CD3CE59DEFBE73C46
:10459000E73CE71CDEFBD6BACE79D69AD6BADEDB8C
:1045A000E71CE73CE73CE73CE73CE73CE73CE73C13
:1045B000E73CE73CE73CE73CE73CE71CE71CDEFB6D
:1045C000E71CE73CE71CE73CE73CE71CD6BAAD55E7
:1045D000A534C639DEFCDEFCDEDCE71DF77EEF3DF0
:1045E000E71CE71CE73DEF5DE73DEF5DEF5DEF5D4D
:1045F000EF7DEF5DEF5DEF7DEF5DEF5DEF5DE73D43
:10460000EF5DE73DE71CE71CEF3DF77EE71DDEDCD5
:10461000DEFCDEFCC639A534AD55D6BAE71CE73C56
:10462000E73CE71CE73CE71CDEFBE71CE71CE73C3C
:10463000E73CE73CE73CE73CE73CE73CE73CE73C62
:10464000E73CE73CE73CE73CE73CE73CE73CE73C52
:10465000E73CE73CE71CE73CE73CE71CCE7AB5B714
:10466000CE59DEFCDEDBDEDBDEFCE71CE71CE73DD3
:10467000F79EEF7DE73CE73DEF5DEF7DEF7DEF7D62
:10468000F79EEF7DEF7DF79EEF7DEF7DEF7DEF5D98
:10469000E73DE73CEF7DF79EE73DE71CE71CDEFCCE
:1046A000DEDBDEDBDEFCCE59B5B7CE7AE71CE73CBD
:1046B000E73CE71CE73CE73CE73CE73CE73CE73C02
:1046C000E73CE73CE73CE73CE73CE73CE73CE73CD2
:1046D000E73CE73CE73CE73CE73CE73CE73CE73CC2
:1046E000EF5DEF5DE73CE73CE73CDEFBC618BDD77E
:1046F000D69ADEDCD6BBDEFCE71DE71CEF5DD6BB41
:10470000DEFCF79EF7BFF7BFF79EF79EF7BEF79E5A
:10471000F79EF79EF79EF79EF79EF7BEF79EF79ED1
:10472000F7BFF7BFF79EDEFCD6BBEF5DE71CE71DCA
:10473000DEFCD6BBDEDCD69ABDD7C618DEFBE73C76
:10474000E73CE73CEF5DEF5DE73CE73CE73CE73CFF
:10475000E73CE73CE73CE73CE73CE73CE71CE73C61
:10476000E73CE73CE73CE73CE73CEF5DE73CE73C08
:10477000EF5DE73CE71CE73CDEFBD69ABDD7CE7980
:10478000DEFBDEDBDEFCE71DE71DE71CDEFB9492B3
:104790008410A534CE79E73CEF7DFFDFF7BEF7BE8E
:1047A000F79EF7BEF7BEF79EF7BEF7BEFFDFEF7DC1
:1047B000E73CCE79A53484109492DEFBE71CE71D1C
:1047C000E71DDEFCDEDBDEFBCE79BDD7D69ADEFB55
:1047D000E73CE71CE73CEF5DE73CE73CEF5DE73C8F
:1047E000E73CE73CE73CE73CE73CE71CE73CE73CD1
:1047F000E73CE73CE73CE73CE73CE73CEF5DE73C78
:10480000EF5DEF5DE73CE73CDEFBCE59C618DEDB33
:10481000E71CDEDCDEFCE71CE71DE73DBDF784306E
:104820007BCF8430843094929CD3A534D6BAF79E43
:10483000F79EF79EF79EF79EF79ED6BAA5349CD3B7
:104840009492843084307BCF8430BDF7E73DE71D00
:10485000E71CDEFCDEDCE71CDEDBC618CE59DEFB27
:10486000E73CE73CEF5DEF5DE73CEF5DE73CE73CB5
:10487000E73CE73CE73CE73CE73CE73CEF5DE73CF7
:10488000E73CE73CE73CE73CE73CE73CE73CE73C10
:10489000E73CE73CE73CE73CDEDBC638BDF8D6BA90
:1048A000DEDBDEFCE71CE71CE73DDEFC94B294B2E5
:1048B000B5B6BDD7AD75AD558C71738EAD75EF7D49
:1048C000F7BEEF5DEF5DF7BEEF7DAD75738E8C715A
:1048D000AD55AD75BDD7B5B694B294B2DEFCE73D2B
:1048E000E71CE71CDEFCDEDBD6BABDF8C638DEDB33
:1048F000E73CE73CE73CE73CE73CE73CE73CE73CA0
:10490000E73CE73CE73CE73CE73CEF5DE73CE73C66
:10491000E73CE73CE73CE73CE73CE73CE73CE73C7F
:10492000E73CE73CE73CE71CDEDBCE79A5349CD3D3
:10493000BDF7E71CE73CEF5DDEFBB5B694B2BDF713
:10494000CE79DEDBD6BACE59BDF79492B596F79EF6
:10495000F79EF79EF79EF79EF79EB5969492BDF749
:10496000CE59D6BADEDBCE79BDF794B2B5B6DEFB52
:10497000EF5DE73CE71CBDF79CD3A534CE79DEDBC9
:10498000E71CE73CE73CE73CE73CE73CE73CE73C2F
:10499000E73CE73CE73CE73CE73CE73CE73CE73CFF
:1049A000E73CE73CE73CE73CE73CE73CE73CE73CEF
:1049B000E73CE73CE73CE73CDEFBD6BAC6389CF375
:1049C0008C519CD3C618E73CCE799492B596D69A72
:1049D000DEFBE73CE71CDEDBCE79A534BDD7F79ED6
:1049E000EF7DF79EF79EEF7DF79EBDD7A534CE797C
:1049F000DEDBE71CE73CDEFBD69AB5969492CE79D7
:104A0000E73CC6189CD38C519CF3C638D6BADEFB63
:104A1000E73CE73CE73CE73CE73CE73CE73CE73C7E
:104A2000E73CE73CE73CE73CE73CE73CE73CE73C6E
:104A3000E73CE73CE73CE73CE73CE73CE73CE73C5E
:104A4000E73CE73CE73CE73CE73CE71CD6BAC63826
:104A5000AD5594B29CD3B596B596A514CE59E71C26
:104A6000E73CEF5DE73CE71CD6BAB596BDD7F7BE8D
:104A7000EF7DF79EF79EEF7DF7BEBDD7B596D6BA10
:104A8000E71CE73CEF5DE73CE71CCE59A514B59663
:104A9000B5969CD394B2AD55C638D6BAE71CE73C60
:104AA000E73CE73CE73CE73CE73CE73CE73CE73CEE
:104AB000E73CE73CE73CE73CE73CE73CE73CE73CDE
:104AC000E73CE73CE73CE73CE73CE73CE73CE73CCE
:104AD000E73CE73CE73CE73CE73CE73CE71CE71CFE
:104AE000D69ABDF7AD75AD75BDD7C638D6BAE71C39
:104AF000E73CE73CE73CE71CD6BAB596B5B6F7BE4F
:104B0000F79EEF7DEF7DF79EF7BEB5B6B596D6BAA8
:104B1000E71CE73CE73CE73CE71CD6BAC638BDD704
:104B2000AD75AD75BDF7D69AE71CE71CE73CE73CD1
:104B3000E73CE73CE73CE73CE73CE73CE73CE73C5D
:104B4000E73CE73CE73CE73CE73CE73CE73CE73C4D
:104B5000E73CE73CE73CE73CE73CE73CE73CE73C3D
:104B6000E73CEF5DE73CE73CE73CE73CE73CE71C24
:104B7000DEFBDEDBD6BAD69AD69ADEDBE71CE73C54
:104B8000E73CE73CE73CE71CD6BABDD7BDD7F79E6C
:104B9000F7BEF7BEF7BEF7BEF79EBDD7BDD7D6BAF4
:104BA000E71CE73CE73CE73CE73CE71CDEDBD69A4A
:104BB000D69AD6BADEDBDEFBE71CE73CE73CE73CF7
:104BC000E73CE73CEF5DE73CE73CE73CE73CE73CA4
:104BD000E73CE73CE73CE73CE73CE73CE73CE73CBD
:104BE000E73CE73CE73CE73CE73CE73CE73CE73CAD
:104BF000E73CEF5DE73CE73CE73CE73CE73CE73C74
:104C0000EF5DE73CDEFBDEDBDEFBE71CE73CE73C81
:104C1000E73CE73CE73CE73CDEDBC638BDF7D69A2D
:104C2000CE59CE59CE59CE59D69ABDF7C638DEDB0D
:104C3000E73CE73CE73CE73CE73CE73CE71CDEFBC6
:104C4000DEDBDEFBE73CEF5DE73CE73CE73CE73CD7
:104C5000E73CE73CEF5DE73CE73CE73CE73CE73C13
:104C6000E73CE73CE73CE73CE73CE73CE73CE73C2C
:104C7000E73CE73CE73CE73CE73CE73CEF5DE73CF3
:104C8000E73CE73CEF5DE73CE73CE73CE73CE73CE3
:104C9000E73CE71CE73CEF5DEF5DE73CE73CE73CCA
:104CA000EF5DE73CE73CE73CDEFBD69AAD759CF355
:104CB00084308410841084309CF3AD75D69ADEFB6A
:104CC000E73CE73CE73CEF5DE73CE73CE73CEF5D7A
:104CD000EF5DE73CE71CE73CE73CE73CE73CE73CB3
:104CE000E73CEF5DE73CE73CE73CEF5DE73CE73C5A
:104CF000E73CE73CE73CE73CE73CE73CE73CE73C9C
:104D0000E73CE73CE73CE73CE73CE73CEF5DE73C62
:104D1000E73CE73CEF5DE73CE73CEF5DE71CEF5D20
:104D2000EF5DE73CEF5DE73CE71CE73CE73CE73C39
:104D3000EF5DEF5DE73CEF5DE71CDEDBD69AC61862
:104D4000BDD7BDD7BDD7BDD7C618D69ADEDBE71C09
:104D5000EF5DE73CEF5DEF5DE73CE73CE73CE71CE0
:104D6000E73CEF5DE73CEF5DEF5DE71CEF5DE73CA7
:104D7000E73CEF5DE73CE73CE73CEF5DE73CE73CC9
:104D8000E73CE73CE73CE73CE73CE73C0000100041
:104D90008510000021100000CD200000310100002E
:104DA00009010000091A0000191A00006D21000015
:104DB000652100006121000041210000492100001F
:104DC00055210000C9160000F5160000E916000084
:104DD00039160000191600004E554C4C000000001A
:104DE00000000000000000006901000072656164BD
:104DF000434F4D000000000000000000E9020000E9
:104E00007772697465434F4D000000000000000098
:104E1000250300007772697465466C617368000051
:104E200000000000290300006572617365466C6133
:104E30007368000000000000350200004E554C4C25
:104E400000000000000000000000000069010000F8
:104E500061736B636F6E6E65637400000000000029
:104E6000710100004E554C4C000000000000000095
:104E700000000000690100004E554C4C000000008D
:104E80000000000000000000690100004E554C4C7D
:104E900000000000000000000000000069010000A8
:104EA0004E554C4C000000000000000000000000C7
:104EB000690100004E554C4C00000000000000004D
:104EC00000000000690100004E554C4C000000003D
:104ED0000000000000000000690100004E554C4C2D
:104EE0000000000000000000000000006901000058
:104EF0004E554C4C00000000000000000000000077
:104F0000690100004E554C4C0000000000000000FC
:104F100000000000690100004E554C4C00000000EC
:104F20000000000000000000690100004E554C4CDC
:104F30000000000000000000000000006901000007
:104F40004E554C4C00000000000000000000000026
:104F5000690100004E554C4C0000000000000000AC
:104F600000000000690100004E554C4C000000009C
:104F70000000000000000000690100004E554C4C8C
:104F800000000000000000000000000069010000B7
:104F90004E554C4C000000000000000000000000D6
:104FA000690100004E554C4C00000000000000005C
:104FB00000000000690100004E554C4C000000004C
:104FC0000000000000000000690100004E554C4C3C
:104FD0000000000000000000000000006901000067
:104FE0004E554C4C00000000000000000000000086
:104FF000690100004E554C4C00000000000000000C
:1050000000000000690100004E554C4C00000000FB
:105010000000000000000000690100004E554C4CEB
:105020000000000000000000000000006901000016
:105030004E554C4C00000000000000000000000035
:10504000690100004E554C4C0000000000000000BB
:1050500000000000690100004E554C4C00000000AB
:105060000000000000000000690100004E554C4C9B
:1050700000000000000000000000000069010000C6
:105080004E554C4C000000000000000000000000E5
:10509000690100004E554C4C00000000000000006B
:1050A00000000000690100004E554C4C000000005B
:1050B0000000000000000000690100004E554C4C4B
:1050C0000000000000000000000000006901000076
:1050D0004E554C4C00000000000000000000000095
:1050E000690100004E554C4C00000000000000001B
:1050F00000000000690100004E554C4C000000000B
:105100000000000000000000690100004E554C4CFA
:105110000000000000000000000000006901000025
:105120004E554C4C00000000000000000000000044
:10513000690100004E554C4C0000000000000000CA
:1051400000000000690100004E554C4C00000000BA
:105150000000000000000000690100004E554C4CAA
:1051600000000000000000000000000069010000D5
:105170004E554C4C000000000000000000000000F4
:10518000690100004E554C4C00000000000000007A
:1051900000000000690100004E554C4C000000006A
:1051A0000000000000000000690100004E554C4C5A
:1051B0000000000000000000000000006901000085
:1051C0004E554C4C000000000000000000000000A4
:1051D000690100004E554C4C00000000000000002A
:1051E00000000000690100004E554C4C000000001A
:1051F0000000000000000000690100004E554C4C0A
:105200000000000000000000000000006901000034
:105210004E554C4C00000000000000000000000053
:10522000690100004E554C4C0000000000000000D9
:1052300000000000690100004E554C4C00000000C9
:105240000000000000000000690100004E554C4CB9
:1052500000000000000000000000000069010000E4
:105260004E554C4C00000000000000000000000003
:10527000690100004E554C4C000000000000000089
:1052800000000000690100004E554C4C0000000079
:105290000000000000000000690100004E554C4C69
:1052A0000000000000000000000000006901000094
:1052B0004E554C4C000000000000000000000000B3
:1052C000690100004E554C4C000000000000000039
:1052D00000000000690100004E554C4C0000000029
:1052E0000000000000000000690100004E554C4C19
:1052F0000000000000000000000000006901000044
:105300004E554C4C00000000000000000000000062
:10531000690100004E554C4C0000000000000000E8
:1053200000000000690100004E554C4C00000000D8
:105330000000000000000000690100004E554C4CC8
:1053400000000000000000000000000069010000F3
:105350004E554C4C00000000000000000000000012
:10536000690100004E554C4C000000000000000098
:1053700000000000690100004E554C4C0000000088
:105380000000000000000000690100004E554C4C78
:1053900000000000000000000000000069010000A3
:1053A0004E554C4C000000000000000000000000C2
:1053B000690100004E554C4C000000000000000048
:1053C00000000000690100004E554C4C0000000038
:1053D0000000000000000000690100004E554C4C28
:1053E0000000000000000000000000006901000053
:1053F0004E554C4C00000000000000000000000072
:10540000690100004E554C4C0000000000000000F7
:1054100000000000690100004E554C4C00000000E7
:105420000000000000000000690100004E554C4CD7
:105430000000000000000000000000006901000002
:105440004E554C4C00000000000000000000000021
:10545000690100004E554C4C0000000000000000A7
:1054600000000000690100004E554C4C0000000097
:105470000000000000000000690100004E554C4C87
:1054800000000000000000000000000069010000B2
:105490004E554C4C000000000000000000000000D1
:1054A000690100004E554C4C000000000000000057
:1054B00000000000690100004E554C4C0000000047
:1054C0000000000000000000690100004E554C4C37
:1054D0000000000000000000000000006901000062
:1054E0004E554C4C00000000000000000000000081
:1054F000690100004E554C4C000000000000000007
:1055000000000000690100004E554C4C00000000F6
:105510000000000000000000690100004E554C4CE6
:105520000000000000000000000000006901000011
:105530004E554C4C00000000000000000000000030
:10554000690100004E554C4C0000000000000000B6
:1055500000000000690100004E554C4C00000000A6
:105560000000000000000000690100004E554C4C96
:1055700000000000000000000000000069010000C1
:105580004E554C4C000000000000000000000000E0
:10559000690100004E554C4C000000000000000066
:1055A000000000006901000053746172742072658C
:1055B000616420666C617368283078383030302937
:1055C0002D3E52414D312830783230303038303035
:1055D00030292C636F756E743A384B20746F2072CB
:1055E000756E206170700D0A000000000C560000FE
:1055F000007700003C000000CC100000485600007E
:105600003C770000D4050000DC1000000000000022
:105610000000000000000000000000008000A0006A
:10562000E73C000000F8000000000100000000005E
:10563000000000000000000000000000000000006A
:08564000000000000000000062
:04000005000000AD4A
:00000001FF
