:020000040000FA
:1000000020590020B1000000B90000001D010000CF
:1000100000000000000000000000000000000000E0
:10002000000000000000000000000000BF0500000C
:100030000000000000000000BD050000C105000038
:10004000C3000000C3000000C3000000C50500009D
:10005000C3000000C3000000C3000000C300000094
:10006000C3000000D9050000C3000000C300000069
:10007000C3000000C3000000C3000000C300000074
:100080007D150000C3000000C3000000C300000095
:1000900000000000C3000000C3000000C300000017
:1000A0000000000000000000C3000000C3000000CA
:1000B0000448804704480047FEE7FEE7FEE7FEE706
:1000C000FEE7FEE715380000E90A0000F0B500265B
:1000D00096468C4635461CE000236146CA0015E072
:1000E000DC17640FE4186703E408390CE4001C1BF8
:1000F00007273F1B64466C434118645CFC40E107E2
:10010000C90F02D09E4200DA9EB25B1C9A42E7DC25
:100110006D1C7545E0DB3046F0BD000001A004F029
:100120005DF9FEE7486172644661756C745F486111
:100130006E646C657200000038B5084C6D466388CB
:1001400021881A464B43491E2980521E6A8000208E
:10015000A288009900F068F938BD00000000002076
:100160001CB56A46108051809080D18003480123DD
:10017000C2880199009800F057F91CBD00000020CA
:100180007CB51C466D462880131A6980AA80661AC1
:10019000EC8005485B1C761CC2887343019900986B
:1001A00000F042F97CBD000000000020FFB581B0E6
:1001B0000D46144668465C43C1885B1EC81883B26E
:1001C00068468088114F521E8218FE6892B2B0476E
:1001D000B9682C20884701210D48890641604B00F1
:1001E00083600D490B4E4E60002107E02A881704FA
:1001F0000A4A176010275760491CAD1CA142F5D36D
:1002000005498E60436005B0F0BD000008AC0000F9
:1002100000000340EFFF0000808002400000024029
:10022000FFB583B00D463D4900908A88684602813B
:10023000C988418100242146468B22E06A46128B00
:10024000002094461AE0C217520F121853031B0CD9
:10025000D208D2000193831A0722D31A9E462A4657
:10026000009F019B4A43FB18D25C7346DA40D207D9
:10027000D20F02D0844200DA84B2401C8445E2DC12
:10028000491C8E42DADC6846C18A254F8819401E17
:1002900083B26846808AFF68021992B2B847204844
:1002A00081682C20884701211E4889064160490049
:1002B00081601E491C484860002024E00022611C27
:1002C0008C461DE0D117490F89184B031B0CC90838
:1002D000C9000193531A0721CB1A9E462946009F55
:1002E000019B4143FB18C95C7346D940C907890F7C
:1002F00002AB595A0B040E490B6010234B60521C81
:100300006245DFDB401C8642D8DC0849064888602D
:10031000080504494860204607B0F0BD00000020F1
:1003200008AC000000000340EFFF000080800240A6
:1003300000000240FFB587B0039102903449109D40
:100340008A8868460282C9884182C18C0191408DA9
:1003500005900818401E83B26846818C0091048D78
:100360002C4E0819401E82B2F76801990098B847D0
:10037000B1682C208847012127488906119BAE4689
:1003800041604900816026492448486000200246B7
:1003900032E000212DE0002B0AD0019D7646AD18F9
:1003A0007543009EAD196D186D005D5B6E4635821C
:1003B000CD176D0F6D186E03ED08ED004D1B07276F
:1003C0007F1BBC46039D029F360C5543BE19AD5D95
:1003D0006746FD40ED07ED0F02D0884200DA88B293
:1003E0006D0004AE755B2E040E4D2E6010266E60FF
:1003F000491C8C42CFDC521C05999142C9DC084A49
:10040000064991601105044A51600BB0F0BD00002F
:100410000000002008AC000000000340EFFF0000D7
:100420008080024000000240FFB581B06846124F54
:100430001C46164643890289C188FD688088A84702
:10044000B9682C20884701210C48890641604B007F
:1004500083600C490A4D4D60002136040A4A10277A
:1004600002E016605760491CA142FAD305498D602D
:10047000436005B0F0BD000008AC00000000034080
:10048000EFFF00008080024000000240FFB583B013
:100490006A4601910090D18A558B148B4819401EF1
:1004A00083B2908A1B4E0219521EF76892B2B84767
:1004B000B1682C208847012117488906416049000E
:1004C00081601749154848606A46508E002184466D
:1004D000168E14E06246019B52185A43009B00207E
:1004E0005200D31808E0321852009A5A17040D4AE5
:1004F000176010275760401C8442F4D8491C8D4275
:10050000E8D807490548886008050349486007B0EE
:10051000F0BD000008AC000000000340EFFF000049
:100520008080024000000240F8B51B4C0246E5689E
:100530000B46A847A1682E2088470120174DC0060A
:10054000A86018491648886001208006686016492E
:100550001020486000F02AF86068804700F026F814
:1005600060688047C60AF60200F020F8606880479D
:10057000074600F01BF8606880470121C9066960E2
:10058000084A07495160F10A800AC9024001014343
:10059000F80A0843F8BD000008AC00000000034062
:1005A0000000FFFF008002400000024001210248DD
:1005B000C902816041607047000003407047704786
:1005C0007047000010B503490020088204F0EEFCDB
:1005D00010BD000000C0004005480168C90601D5F3
:1005E000102103E00168490601D5402141607047B0
:1005F00040200040F3B51120224D81B040060E4648
:10060000A8606814686100201F4A01461154401C0C
:100610000828FBDB28680124E40620432860082220
:100620001949284600F0ECF82868A043286028699A
:10063000C008C0002861154C206880088000206038
:10064000E06880088000E060284600F069F9002733
:1006500006E0019839030918284600F04BF97F1C81
:10066000B742F6D3206880088000401C2060E06814
:1006700080088000401CE06001204003A861000366
:100680006860FEBD000001401000002080100040A6
:10069000F8B50D46064611212848490614468160E2
:1006A000411441610021264B0A465A54491C08292D
:1006B000FBDB224F3868F9020843386008222049E2
:1006C000384600F09DF83868F90288433860386988
:1006D000C008C00038611B480168890889000160B2
:1006E000C16889088900C160384600F019F9E9B28B
:1006F000B815471ABC4200D8A7B23B462A46314635
:100700000E4800F06FF9BC4207D0F619ED19E41B52
:10071000FF270137BC42F0D8EEE70A480168890894
:100720008900491C0160C16889088900491CC160B1
:1007300041140248816141024160F8BD000001405E
:10074000100000208010004001B5009801E0401E1C
:1007500000900028FBD108BD02490A6A1201FCD5AD
:10076000086170474020004010B5002302E0C45CDF
:10077000CC545B1C9342FAD310BDF7B5002483B070
:1007800015460E46970815E004200190800600905B
:10079000801002906946039800F080F801210398C8
:1007A00000F0A3F80128F9D00398006CA100641CA4
:1007B0007050A4B2A742E7D8AD07AD0F1DD00120FD
:1007C000000700908010029001956946039800F0A0
:1007D00065F80121039800F088F80128F9D0039802
:1007E000006CA1007054012D02D9020A8B195A70B5
:1007F000022D02D9000C89198870002006B0F0BDC6
:10080000F7B5002483B01646054697081BE0042080
:10081000019080060090002002906946284600F072
:100820003DF80498A100405828642021284600F093
:100830005CF80028F9D00121284600F056F801287C
:10084000F9D0641CA4B2A742E1D8B607B60F22D0F3
:1008500001200007009000202F46029040370196AB
:100860006946284600F01AF80020A10005E00B18A0
:10087000049A401CD25C3A7080B2B042F7D3202177
:10088000284600F032F80028F9D00121284600F06F
:100890002CF80128F9D0002006B0F0BD10B5026890
:1008A000520102D501239B0600E000234A6802673B
:1008B00001248A6864079A4203680BD109681B0106
:1008C00004D511430522D206114301E011430AE089
:1008D000016010BD09681B0102D511430122D20637
:1008E0001143016001682143F2E7006D084000D028
:1008F0000120704770B50E46044600F097F8206856
:100900000125ED062843206032462021204600F0D4
:1009100059F82068A8432060204600F0B9F870BD5F
:100920001CB501216A4604461171117000F07EF871
:10093000204600F00FF86A461071204600F026F8B5
:100940006A4610701179C32012780140204600F0E9
:1009500081F81CBD70B5044600680125ED062843EA
:100960002060094E05203070012231462046FFF7F5
:1009700047FF042231462046FFF7FFFE2068A843C8
:100980002060307870BD00000800002070B504467B
:1009900000680125ED0628432060094E352030709F
:1009A000012231462046FFF72BFF04223146204624
:1009B000FFF7E3FE2068A8432060307870BD000098
:1009C0000800002000B5064B1970110C5970110A6F
:1009D0009970DA7004221946FFF712FF00BD00007B
:1009E00008000020FFB581B00F460446012069468B
:1009F00016460870204600F019F820680125ED061B
:100A000028432060324602212046FFF7DBFF3946AB
:100A10002046049AFFF7F4FE2068A8432060204691
:100A200000F036F8049805B0F0BD000030B504467B
:100A300000680125ED06284320600549062008705E
:100A400001222046FFF7DCFE2068A843206030BD6D
:100A500008000020F0B516460F460446FFF7E6FFF3
:100A600020680125ED062843206008480121017017
:100A700047708670014603222046FFF7C1FE2068BA
:100A8000A8432060204600F003F8F0BD08000020D5
:100A90003CB505460120694608717D24E40009E063
:100AA0002846FFF757FF6946087121460094491E02
:100AB0000091FCD168460079C007F1D13CBD00002F
:100AC00061010000290500003901000081010000DA
:100AD00029040000AD0100008D040000CD000000DD
:100AE00021020000350300000348854600F006F8A7
:100AF00000480047DD51000020590020064C012528
:100B0000064E05E0E36807CC2B430C3C98471034B5
:100B1000B442F7D3FFF7ECFF400B0000600B00007E
:100B200002E008C8121F08C1002AFAD170477047B6
:100B3000002001E001C1121F002AFBD17047000014
:100B400014D900000000002008020000EA0E000096
:100B5000D0D900000802002018570000300B000018
:100B600030B50B46014600202022012409E00D4645
:100B7000D5409D4205D31D469540491B25469540CD
:100B800040191546521E002DF1DC30BD70B5002411
:100B90002546002801DA01244042002901DA012516
:100BA0004942FFF7DDFFAC4200D04042002C00D0AC
:100BB000494270BD10B5441A0346944209D28318C5
:100BC000891803E0491E0C785B1E1C70521EF9D276
:100BD00010BD0C460443A40703D009E010C9121F3E
:100BE00010C3042AFAD203E00C781C70491C5B1C69
:100BF000521EF9D210BDD2B201E00270401C491E53
:100C0000FBD270470022F6E710B513460A460446A9
:100C10001946FFF7F0FF204610BD421C0178401C2A
:100C20000029FBD1801A70470321001D401E037864
:100C300012021A43491EF9D5104670470346032293
:100C40000870000A491C521EFAD518467047F8B5BC
:100C500002464A40D40F42004B0052085B089A42B9
:100C600002D20246084611464A0023D0C30D4A006C
:100C7000DDB2120EAD1A202D35DA49020126490ADD
:100C8000F6058A19002C00D0524220214F1B114634
:100C9000B9402A411018C20D9A4221D0002C17D019
:100CA000012D08DCDA05801AD20F8019D207DBB2D9
:100CB00000F0C1F8F8BDDA05801A012340001B06D8
:100CC000C01880185A428018CA0F1043490007E024
:100CD0004908C2071143DA05801A801940088018B4
:100CE00000F0A1F8F8BD61000122511A001BF7E7DE
:100CF0000122D2075140AAE70122D2075040A6E7BD
:100D0000024670B54A40D30FDB0740002DD04A00A1
:100D10002AD0010E140E000212020919400A520ACA
:100D20008418E50104465443000A120A2E04504375
:100D3000A4194219200CC543AA18120C0125AD03B1
:100D4000521C521912047F39240400D0521C104343
:100D500001D44000491EC2B20C06C0092018401C34
:100D60004008802A02D003E0002070BD4008400007
:100D7000002900DA0020184370BDC217C10F50408F
:100D800010B54018CA079623002100F054F810BD92
:100D900010B500229623114600F04DF810BD410019
:100DA00040020122400AD205090E80187F2901DA8B
:100DB00000207047962903DC9622511AC8407047DC
:100DC000963988407047F0B51FB40646002082B0BF
:100DD00005464024019100901BE0019922460F46F0
:100DE000304600F071F8049A059B801A994110D39F
:100DF00010461946224600F057F8361A8F410197DF
:100E0000224601200021009F00F04EF838184D4185
:100E100000902046641E0028DFDC019B00982946D4
:100E2000324607B0F0BD002904DA401C490001D168
:100E300040084000704770B40024050C05D1102410
:100E4000000402D1002921D01124050E01D1000295
:100E50000834050F01D10001241D850F01D1800048
:100E6000A41C002801DB4000641C002908D02025B8
:100E70002E1B0D46F540A14000D001212943084317
:100E800001061B1B000ADB1D02D5002070BC704749
:100E9000DB05181880180029F8DA401C4900F5D144
:100EA00070BC40084000704710B5202A04DB0146A2
:100EB000203A9140002010BD914020239C1A034607
:100EC000E3401943904010BD10B5202A04DB0846CA
:100ED000203AD040002110BD0B46D340D040202402
:100EE000A21A91400843194610BD30B58C180278FB
:100EF000401C13071B0F01D10378401C120906D1B7
:100F00000278401C03E005780D70401C491C5B1EF4
:100F1000F9D101E00B70491C521EFBD1A142E6D36E
:100F2000002030BD01463039092901D8C8B27047C8
:100F300001464139192902D83738C0B270472028F4
:100F40000FD024280FD025280FD02A280FD02B28E7
:100F50000FD02D280FD02E280FD02F280FD02C20C7
:100F6000704724207047252070472620704727208F
:100F7000704728207047292070472A2070472B206F
:100F80007047000010B50121024803F0C5FD0020A4
:100F900010BD00000980000010B503A20121034824
:100FA00003F07AFD002010BD3100000002100000A7
:100FB00038B500206A460A4C10806946204603F086
:100FC000C7FD6A46118807A003F008FA1F21C9026D
:100FD0006A461180204603F093FF002038BD0000D0
:100FE00002100000626B636F6C6F723A2578200DFF
:100FF0000A00000010B5034A0349012003F0D6FEA1
:10100000002010BD4D290000452A000010B5012127
:10101000044803F081FD034801210B3803F07CFDF7
:10102000002010BD0D100000F8B5484803F052FD37
:1010300046488C3003F04EFD4448C03003F04AFD72
:101040004248F43003F046FD414803F043FD404878
:10105000343003F03FFD3E48683003F03BFD3C4830
:101060009C3003F037FD3A48D03003F033FD394867
:1010700003F030FD3548583003F02CFD354834304E
:1010800003F028FD3348683003F024FD2F48263054
:1010900003F020FD314C30A20121204603F0FCFC7E
:1010A0002FA20121601C03F0F7FCA51C2DA2012139
:1010B000284603F0F1FC2CA20121E01C03F0ECFC1B
:1010C0002AA20121201D03F0E7FC29A20121601DB5
:1010D00003F0E2FC27A20121A01D03F0DDFC26A203
:1010E0000121E01D03F0D8FC24A20121A81D03F07A
:1010F000D3FC23A20121601E03F0CEFCEE1D21A231
:101100000321304603F0C8FC771C1FA20421384697
:1011100003F0C2FC1E4A3946012003F0ABFE1D4A13
:101120002146012003F0A6FE1B4A3146012003F0B0
:10113000A1FE1A4A2946012003F09CFE18A20221B2
:10114000A01E03F0F9FE0020F8BD000044AE000030
:101150006CAF000070B0000031000000041000000F
:1011600032000000330000003400000035000000B1
:101170003600000037000000380000003900000091
:101180003000000044454C00B7B5BBD8000000005B
:10119000F50F0000990F00000D100000B10F0000C6
:1011A000B2E2000000207047F8B5060016D00C4DE2
:1011B00034680EE02068002803D06968002900D058
:1011C000884768686768002802D00146204688473B
:1011D0003C46002CEED1002030607060F8BD00006D
:1011E00034AC0000F8B5002003460090D548C16932
:1011F0002CE00022081F864625E035251C460120EC
:101200006C438446D04D501C6519112411E0AE5C2E
:10121000264201D1012700E000272E5C264201D1A1
:10122000012600E00026B74205D16646761CB4468A
:10123000401C8842EBDB6246052A03DB009CA218B7
:10124000921E009202467245D7DB5B1C8B42D0DBBC
:1012500000222EE00024081F844627E0601C35256C
:101260006C43B94D01236419A646112415E0754657
:10127000AD5C254201D1012700E000273526054657
:101280007543B14EAD19AD5C254201D1012500E099
:101290000025AF4203D1401C5B1C8842E7DB052BD5
:1012A00003DB009CE3189B1E009304466445D5DBDA
:1012B000521C8A42CEDB00244B1E36E0002031E077
:1012C000352225465543A04AAE18355C11221540FB
:1012D0002FD000273618B4462036B646767D164203
:1012E00001D1012600E00026B7421AD1002D22D0FC
:1012F000002667467F78174201D1012700E00027CA
:10130000BE420ED1002D18D000267546AD7D154287
:1013100001D1012200E00022964202D1009AD21CA3
:101320000092401C9842CBDB641C9C42C6DB00222E
:1013300067E00127CEE70126DBE70126E5E700208D
:101340008D1F5BE0002809D035237F4C53431B19C8
:101350001B18203BDC7F11231C424ED13523144641
:101360005C43794BE418265C11231E4245D02418B7
:1013700066781E4241D1A6781E423ED0E6781E42D3
:101380003BD026791E4238D066791E4235D1A679E7
:101390001E4232D0CE1FB04202D0E6791E422CD17E
:1013A000022804DB2646203EB67F1E420DD10328CC
:1013B00004DB2646203E767F1E4206D1042819DB38
:1013C0002646203E367F1E4214D00E46083EB042CE
:1013D00002DA267A1E4210D10E46093EB04202DAE7
:1013E000667A1E4209D10E460A3EB04202DAA47A5B
:1013F0001C4202D1009B28330093401CA842A1DB71
:10140000521C8A429BDB002272E000208C1F6CE0A1
:10141000002809D035234C4D43435B199B18403BB2
:10142000DD7A11231D425FD1352305465D43464BCE
:10143000EB189E5C11252E4256D09B183526F65C83
:101440002E4251D16A26F65C2E424DD09F26F65C84
:101450002E4249D0D426F65C2E4245D0FF260A36CD
:10146000F65C2E4240D1FF263F36F65C2E423BD042
:10147000CE1FB04204D0FF267436F65C2E4233D124
:1014800002282EDB1E46803EB67D2E420DD103285B
:1014900027DB1E46A03E76782E4206D1042820DBAC
:1014A0001E46E03E367B2E421BD00E46083EB04222
:1014B00004DAFF26A936F65C2E4215D10E46093E07
:1014C000B04204DAFF26DE36F65C2E420CD10E4620
:1014D0000A3EB04205DAFF33FF3302339B7C2B42D6
:1014E00002D1009B28330093401CA04290DB521C89
:1014F0008A428ADB00200246134F11240DE0352674
:10150000154600237543ED1904E0EE5C264200D138
:10151000401C5B1C8B42F8DB521C0B468A42EEDB04
:10152000642259435043FFF731FB3221081A00D59A
:1015300040420521FFF72AFB0A2148430099401841
:10154000F8BD0000C80000205406002070B50A4C09
:101550000025206800280CD0014608208847050097
:1015600007D0E068002804D003460822002128465E
:101570009847284670BD000034AC000010B501212A
:10158000002000F0B5F8194C002806D0206800288B
:1015900000D08047002000F07BF80121084600F0D1
:1015A000A7F8002806D06068002800D080470120F6
:1015B00000F06EF80121022000F09AF8002806D011
:1015C000A068002800D08047022000F061F80121C7
:1015D000032000F08DF8002806D0E068002800D035
:1015E0008047032000F054F810BD000008020020DE
:1015F00010B5034A0349012003F0D8FB002010BDB9
:101600004D290000452A000070B5184803F062FA21
:101610001648263003F05EFA1448413003F05AFAB7
:101620001248733003F056FA1048A73003F052FA0C
:101630000FA20821114803F02FFA104C10A2641CCD
:101640000321204603F028FA651C0EA20221284639
:1016500003F022FA0C4A2146012003F00BFC0A4A4F
:101660002946012003F006FC002070BD54BC000098
:10167000C8B7C8CFC2F0A3BF0000000003600000DD
:10168000594553004E4F0000F115000000207047EF
:1016900010B504000AD0012C08D0022C06D0032C6F
:1016A00004D0FF21AC3104A003F060F901200F4900
:1016B000A040886310BD000041534D31317878421D
:1016C00053505C4D313133305F53746450657269EF
:1016D00070685F4472697665725C7372635C6D31C9
:1016E0003133305F646D612E6300000000030540FC
:1016F00070B50D4604000AD0012C08D0022C06D08B
:10170000032C04D0FF21923106A003F02FF901220F
:101710001148A240002D02D0806A104070BD0068C0
:10172000FBE7000041534D313178784253505C4D16
:10173000313133305F5374645065726970685F444F
:1017400072697665725C7372635C6D313133305FE0
:10175000646D612E63000000C0020540F7B50C46C1
:1017600006461D218AB04901F748FFF74BFA0021D0
:10177000F64D0846A9612FE0725C1346303B092BF9
:1017800001D8002218E01346413B192B13D9202A17
:1017900011D0242A0FD0252A0DD02A2A0BD02B2A8B
:1017A00009D02D2A07D02E2A05D02F2A03D03A2A75
:1017B00001D0022200E00122002901D1E44B1A707D
:1017C000E34B1F5C974201D0401C1A54DE4A87004D
:1017D000D3595B1CD351491CA142CDDB401C0024D2
:1017E000A8612EE1DA4A135D002B02D0012B05D04F
:1017F00026E110194078012804D021E11019407821
:101800000028F5D1A000D049049006900958184648
:101810000C9A00F0FFFB0746CB490698401803904E
:1018200001904168CA480019079040780C9A00F06E
:10183000F1FB3F18C44906980C9A09580198406872
:101840000918012000F0E6FB00908742D0DD012C52
:1018500025DB07982038C07F022820D10398BA4999
:1018600080380690C26F04980858111802200C9A0C
:1018700000F0D0FB074603980C9A4168079840781F
:1018800000F0C8FB3818019006980C9AC16F02202E
:1018900000F0C0FB009941180198814201DA002054
:1018A0000190A869801E84421FDA0798A84A8078B0
:1018B00002281AD1A44804994158105D0C9A00F0EE
:1018C000A9FB074603980C9A416880680918022012
:1018D00000F0A0FB3F1803980C9A8168022000F0EA
:1018E00099FB00994018B84200DA002701980028B7
:1018F00005D0002F06D0B84204DB012004E0002F01
:1019000004D110E00020C043401C16D007980221EB
:101910004170039841688068091803984160A9697B
:10192000A01C491E2CE0A8698446801E844244DA2B
:1019300007988078012827D03FE00398824A0499CD
:101940008038C36F51585918C167A9692046491E8C
:1019500009E07F4A13185B7813547B4A83009F1871
:101960007F68D750401C8842F3DB0BE0784A13189D
:101970005B781354744A83009F187F68D750401CCB
:101980008842F3DBA86958E0039841688068091829
:1019900003984160A11C6046401E09E06C4A531840
:1019A0005B785354684A8B009F187F68D750491C56
:1019B0008142F3DB6046401EA861654B012018554B
:1019C000614A049811580398406809180498115006
:1019D000A969601C8C46491E09E05D4A13185B78B2
:1019E0001354594A83009F187F68D750401C88427F
:1019F000F3DB6046401E8446A861012C21DB07987A
:101A00002038C07F01281CD103984F4A04998038A0
:101A1000C36F51585918C16760462146401E09E0FE
:101A20004B4A53185B785354474A8B009F187F6882
:101A3000D750491C8142F3DB6046401EA86100E09C
:101A4000641CA869401E844200DACBE60C9800248E
:101A500080000790B3E0A0003B4903900090095834
:101A60003B480C9A005D00F0D5FA074636490098CD
:101A70000C9A40180190049041683548001908906C
:101A8000407800F0C7FA3F182F4900980C9A09587F
:101A9000049840680918022000F0BCFA0146012CA5
:101AA00009DB08982038C07F022804D12948079A0A
:101AB0008058091A091FA8698446801E844208DAE2
:101AC00008988078022804D1224B079A9858091A5E
:101AD000091F8F4272DD012C20DB08982038C07F5F
:101AE00002281BD1019B184A0398803BD96F1058DC
:101AF0000818D86760462146401E09E0144A53186A
:101B00005B785354104A8B009F187F68D750491C4C
:101B10008142F3DB6046401E641EA861A8698446CA
:101B2000801E844227DA0A4F38198078022822D191
:101B3000054BA000C0188268416889184160A11C4B
:101B40006046401E12E00000B4020020C8000020E1
:101B500071120020ECC30000844A53185B78535480
:101B6000834A8B009F187F68D750491C8142F3DB62
:101B70006046401EA8617D4F022038557C48A10078
:101B80000B1842585B68D2184250AA69611C9446EF
:101B9000521E09E0754843185B78435474488B0023
:101BA0001F187F68C750491C9142F3DB6046401EF6
:101BB000A861012C03DB641E01E0FFE7641CA86937
:101BC000401E844200DA46E768480024E821E830F5
:101BD000EC60FFF717F80020A5E06449009A895CE3
:101BE000002914D001295FD004221146614D01F073
:101BF000EDFAE860604A0799525800998F005C49F5
:101C0000C95B89B201F0E2FAE8600025A0E0042295
:101C10000121584D01F0DAFAE860574A0799183A5D
:101C2000525800998F005249C95B89B201F0CEFA2F
:101C3000E860002531E0811EA94211DD601981199B
:101C4000305C8A78642330385843121848780A2167
:101C5000484321210901401A101881B20A2215E0D7
:101C6000A9420BD160198119305C0A2230384978B9
:101C700050433038081881B2072207E0401EA842BE
:101C80000AD16019305C303881B204223948C0680A
:101C900001F09CFA3749C860ED1C3548C059A8428C
:101CA000C9DC3348C0593BE004220221314D01F028
:101CB0008DFAE860304A07990C3A525800992C4F37
:101CC00089000591795A89B201F080FAE86000250F
:101CD0001EE0401EA8420FDD60190490305CFFF743
:101CE00021F9074604982D2180194F434078FFF7CA
:101CF00019F939180B2205E06019305CFFF712F969
:101D0000014606221B4FF86801F060FAAD1CF8602E
:101D1000174905980858A842DBDC15480599405832
:101D200004190098401C134B00909969884214DAFA
:101D3000D868411C00D050E716E06019315C0D48AE
:101D40000822C06801F042FA01460A486D1CC160D1
:101D50000748C059A842F0DCA3E70648C068401C09
:101D600002D001200DB0F0BD0020FBE77112002071
:101D7000B4020020C8000020ECC3000070B5214967
:101D80002148FEF73FFF01F047FB01F051FA1F4EDB
:101D9000B068401C18D1B06001F0DEFBB06801F003
:101DA000ADFAFFF71FFA04460125284601F0D4FBDF
:101DB000284601F0A3FAFFF715FAA04201DA04461B
:101DC000B5606D1C072DF0DDB06801F0C5FBB06893
:101DD00001F094FA00200C4B1125F2690EE0352633
:101DE000044600217443E41805E0665C2E4000D0F0
:101DF00001266654491C9142F7DB401C9042EEDB01
:101E000070BD0000F90A000054060020C800002040
:101E100070B5044609480D46844206D008488442FD
:101E200003D0084908A002F0A1FD002D04D1054906
:101E300005A0491C02F09AFD656070BD00000240DB
:101E4000000003402102000041534D3131787842B7
:101E500053505C4D313133305F5374645065726957
:101E600070685F4472697665725C7372635C6D3131
:101E70003133305F6770696F2E630000F8B51A4F19
:101E800015460C460646B84207D01848864204D08C
:101E9000FF21AB3116A002F069FD002C04D1FF2117
:101EA000AC3113A002F062FD012D06D0002D04D04C
:101EB000FF21AD310EA002F059FD0022214630462F
:101EC00000F034F817481849012D05D0002D02D133
:101ED000BE4207D18460F8BDBE4201D14460F8BD66
:101EE0004C60F8BD8C60F8BD00000240000003406B
:101EF00041534D313178784253505C4D313133305C
:101F00005F5374645065726970685F447269766586
:101F1000725C7372635C6D313133305F6770696F0F
:101F20002E6300000080024000800340F8B5294F76
:101F300014460D460646B84206D02748864203D0CE
:101F4000BE2126A002F012FD002D03D1BF2123A047
:101F500002F00CFD002C11D0012C0FD0022C0DD062
:101F6000032C0BD0042C09D0052C07D0062C05D04F
:101F7000072C03D0C02119A002F0F8FCBE4213D1F7
:101F8000234A00202946C140C907C90F08D0810053
:101F900089180B68DB08DB000B600B6823430B60C0
:101FA000401C2028EED3F8BD194A00208032294673
:101FB000C140C907C90F08D0810089180B68DB0828
:101FC000DB000B600B6823430B60401C2028EED322
:101FD000F8BD0000000002400000034041534D31B5
:101FE0003178784253505C4D313133305F537464F3
:101FF0005065726970685F4472697665725C73726D
:10200000635C6D313133305F6770696F2E63000040
:102010000010004010B594000B46002805D00128A0
:1020200016D014480159D80020E003211846FEF7C5
:10203000ADFD0A2250430F4A001D183A125980186C
:10204000012903D0022900D1C01D10BD001D10BD03
:1020500008480C380259D80FC01841100B246143AE
:10206000511840084000181A06225043001D081855
:1020700010BD0000ECC30000F7B51B2801DB0224F3
:1020800004E00A2801DB012400E00024124D134E75
:10209000224602990198FFF761FB002801D0002C2D
:1020A00004D0641C022CF3DD0020FEBDEA68296820
:1020B000D21DD7174B007F0F0120B918CA102C274B
:1020C0004743BF19FF18BF889742EEDA401C092822
:1020D000F5DD641CDCE70000C80000201CC0000027
:1020E000010002D00020096803E000207047496821
:1020F000401C0029FBD17047F7B5054684B000208D
:1021000000900598144607197F1E00982DE0287846
:10211000002825D017490026085C0290A0000190F5
:102120000FE0154901980858815D02980818FF21B1
:10213000FEF716FD114AA8194078515C4840A85591
:10214000761CA642EDDB204603E029184978295485
:10215000401C8742F9DC05E0291849782954401CC5
:102160008742F9DC0098401C009005998842CEDB3C
:1021700007B0F0BDD4C20000E8000020D4C10000C8
:1021800010B5034A0349012002F010FE002010BDE3
:102190004D290000452A000038B5174802F09AFC86
:1021A0001548263002F096FC1348413002F092FCAC
:1021B00011485C3002F08EFC0F488E3002F08AFC31
:1021C0000D48C03002F086FC0D4C0C4A214601201F
:1021D00002F050FE002000906946204602F0C8FC44
:1021E00008A0009902F0FAF869212046009102F057
:1021F000C1FE002038BD00002FBD0000812100007D
:102200000470000076616C75653A2564200D0A0043
:1022100000207047F0B50546401C417902790F0255
:10222000417A007A0B0217430343F818401E85B029
:1022300080B20390287AE97900020843297BEA7A80
:1022400009021143EC1C4218521E96B26A460296CD
:102250001780508003989080029ED6804B43687D03
:10226000297D02021F480A43066901990098B04778
:10227000607A217A00020843401E80B23C460490F6
:102280002AE00026B000401926300190FEF7CCFC71
:1022900000281BD0E11B0091405C0499884215D2B4
:1022A000002813D070004119487F097F00020843BD
:1022B0000D49C8800198FEF7B7FC0099415C02986F
:1022C000401A81B20748026820469047761CF6B251
:1022D000042ED7D3641CA4B203988442D1D305B092
:1022E000F0BD0000C00A00000000002000B50B4651
:1022F000020008D000F0ACFA102806D05068436005
:102300000020536000BD012000BD1360F8E700000D
:1023100010B5034A0349012002F048FD002010BD1A
:102320004D290000452A000010B54B4802F0D2FBB1
:102330004948263002F0CEFB4748583002F0CAFB2D
:1023400045488C3002F0C6FB4348C03002F0C2FB67
:102350004148F43002F0BEFB404802F0BBFB3F486E
:10236000343002F0B7FB3D48683002F0B3FB3B4825
:102370009C3002F0AFFB3948D03002F0ABFB38485C
:1023800002F0A8FB3648343002F0A4FB3448683031
:1023900002F0A0FB32489C3002F09CFB3048D03069
:1023A00002F098FB2F4802F095FB2E48343002F0E3
:1023B00091FB2C48683002F08DFB2A489C3002F0DB
:1023C00089FB2848D03002F085FB274802F082FBC9
:1023D0002548343002F07EFB2348683002F07AFB57
:1023E00021489C3002F076FB1F48D03002F072FB8F
:1023F0001E4802F06FFB1D48343002F06BFB1B4897
:10240000683002F067FB19489C3002F063FB174804
:10241000D03002F05FFB164802F05CFB1448343009
:1024200002F058FB1248683002F054FB10489C3010
:1024300002F050FB0E48D03002F04CFB0D4802F089
:1024400049FB0C48343002F045FB0B4A0B49012094
:1024500002F010FD002010BD0CB1000034B20000ED
:1024600038B300003CB4000040B5000044B60000A2
:1024700048B700004CB800001123000025200000E0
:102480000020704710B5282000F09CF910BD10B551
:10249000292000F097F910BDF8B59249904848609E
:1024A000914E0D15002229463046FFF73FFD6C0086
:1024B000002221463046FFF739FD8C4F00221021C3
:1024C0003846FFF733FD0022E1033046FFF72EFDCB
:1024D000002221043046FFF729FD01221021384651
:1024E000FFF7CCFC012229463046FFF7C7FC01224A
:1024F00021463046FFF7C2FC012291063046FFF725
:10250000BDFC0122D1063046FFF7B8FC0022202195
:102510003846FFF70BFD012220213846FFF7AEFCBD
:1025200020213846FFF774FCB560714C0120A1688A
:102530008847FF272D37384600F080F9A16828200A
:102540008847A168E020884721680F2088472168D4
:102550000B20884721681820884721680C2088476D
:1025600021681920884721680C2088472168452068
:102570008847216858208847216853208847216868
:102580000320884721680B20884721680A20884754
:1025900021681D20884721682020884721680F2056
:1025A0008847A168E120884721680F208847216873
:1025B000162088472168192088472168022088470B
:1025C00021680E20884721680320884721682B2036
:1025D0008847216844208847216839208847216836
:1025E00002208847216806208847216805208847FF
:1025F00021682920884721683520884721680F20D5
:102600008847A168C020884721681520884721682D
:1026100012208847A168C120884721684120884747
:10262000A168C520884721680020884721685A2072
:102630008847216880208847A1683620884721681C
:1026400048208847A1683A20884721685520884754
:10265000A168B0208847216800208847A168B12080
:1026600088472168A0208847A168B420884721684E
:1026700002208847A168B620884721680220884741
:10268000216802208847A168E92088472168002046
:102690008847A168F72088472168A92088472168D2
:1026A0005120884721682C2088472168822088474C
:1026B000A16811208847A168212088470D488068BB
:1026C0008047A16829208847384600F0B7F821697B
:1026D00001208847384600F0B1F87560F8BD000069
:1026E0000000FFFF008002400000034000000240A5
:1026F00008AC0000C00A00000020704710B5012897
:1027000009D04821362000F054F804480188428856
:102710000280418010BDE821F4E7000000000020A5
:10272000F8B514460546001B86B21F46332000F05C
:1027300049F8280A00F064F8E8B200F061F8300ABD
:1027400000F05EF8F0B200F05BF8380A00F058F8DC
:10275000F8B200F055F8372000F034F8200A00F005
:102760004FF8E0B200F04CF8F8BDF8B507461C464B
:1027700015460E462A2000F025F8380A00F040F8E9
:10278000F8B200F03DF8280A00F03AF8E8B200F09C
:1027900037F82B2000F016F8300A00F031F8F0B2CC
:1027A00000F02EF8200A00F02BF8E0B200F028F834
:1027B000F8BD10B50C4600F005F8204600F020F8F2
:1027C00010BD0000F0B5012309499B068B60CA14B7
:1027D0004A60084A1024546095028D60074F064EE7
:1027E0007E6000041060BE6054604D604B60F0BDC0
:1027F0000000034000000240EFFF00008080024024
:1028000070B50122094992064A60CA144A60084A12
:102810001023536094028C60074D064E6E600004D6
:102820001060AE6053604C6070BD0000000003405B
:1028300000000240EFFF000080800240002104E021
:102840000222521CFF2AFCD3491C8142F8D3704754
:1028500000280BD00168002900D001214068002821
:1028600000D00120014301D0202070471020704784
:1028700010B5034A0349044802F098FA002010BD3D
:1028800029100000A51100000110000010B5034A36
:102890000349044802F08AFA002010BD29230000F1
:1028A000812400000120000010B5034A03490448B8
:1028B00002F07CFA002010BD713D00000D3E0000CA
:1028C0000130000010B5034A0349044802F06EFAD3
:1028D000002010BDB52D00009D2E0000014000001D
:1028E000034A10B51146034802F060FA002010BDFB
:1028F000812C00000150000010B5034A0349044830
:1029000002F054FA002010BD091600008D160000D8
:102910000160000010B5034A0349044802F046FA7A
:10292000002010BD9921000011220000017000005C
:1029300010B5034A0349044802F038FA002010BDDC
:10294000552B00007D2C00000180000010B531489F
:1029500002F0C0F82F48263002F0BCF82D485A305B
:1029600002F0B8F82B488E3002F0B4F82948C23093
:1029700002F0B0F82748F63002F0ACF8264802F032
:10298000A9F82548343002F0A5F82348683002F051
:10299000A1F8224802F09EF81E480A38FEF73DF9D9
:1029A0001C4A81B20A3A0A2002F0C6FA1C4A0221E5
:1029B000012002F05FFA1B4A0321012002F05AFABB
:1029C000194A0421012002F055FA184A0521012074
:1029D00002F050FA164A0621012002F04BFA154A7D
:1029E0000721012002F046FA134A0821012002F0D3
:1029F00041FA124A0921012002F03CFA104A0A2148
:102A0000032002F037FA01210A2002F085F80020A5
:102A100010BD00007EAC0000A8AD00005C000020EE
:102A2000712800008D280000A9280000C52800009A
:102A3000E1280000F92800001529000031290000D4
:102A4000155200000020704770B5044680780125BB
:102A500000281FD0012806D0882112A001F086FF8F
:102A6000A078002816D020781A49820892005218BF
:102A700011688007C30EFF2098408143607880076B
:102A8000000E9840084310602078C006C00E8540B4
:102A9000114805E02078C006C00E85400E48803001
:102AA000056070BD41534D313178784253505C4DD3
:102AB000313133305F5374645065726970685F44BC
:102AC00072697665725C7372635C6D6973632E63A1
:102AD0000000000000E400E000E100E00148006ABE
:102AE000704700000002004003490868C007FCD09E
:102AF000024840687047000000510040005000400C
:102B0000FF2101318805416181604160704700000B
:102B100008B5002000906946044802F029F804A096
:102B2000009901F05BFC002008BD00000A80000055
:102B300076616C75653A25640D0A000010B5034A8C
:102B40000349012002F032F9002010BD4D29000098
:102B5000452A000010B5304801F0BCFF2E48263051
:102B600001F0B8FF2C48413001F0B4FF2A4884300E
:102B700001F0B0FF28489D3001F0ACFF2648CF306F
:102B800001F0A8FF254801F0A5FF2448323001F0EC
:102B9000A1FF2248673001F09DFF20488B3001F0F3
:102BA00099FF1E48AF3001F095FF1B485C3001F0E3
:102BB00091FF1BA206211C4801F06EFF1A481BA2C0
:102BC0000621401C01F068FF17481AA20621801C4C
:102BD00001F062FF144C19A2E41C1521204601F0FB
:102BE0005BFF1CA21A21601F01F056FF204A211F23
:102BF000012002F03FF91F4A2146012002F03AF974
:102C0000641C1D4A2146012002F034F900212046AF
:102C100002F0B0F9002010BD39BE00003ABF00003C
:102C2000B8B4D1A14100000006800000B8B4D1A121
:102C300042000000B8B4D1A143000000CBABCCAC43
:102C4000B0B4C5A520B4A5C3FEB5D7B2BFCDCBB334
:102C5000F6000000687474703A2F2F7777772E6132
:102C60006C7068617363616C652E636F6D0000004A
:102C70003D2B0000850F0000112B00000020704745
:102C800038B5154801F026FF1348263001F022FF21
:102C90001148553001F01EFF0F48843001F01AFF33
:102CA0000D48AC3001F016FF0C4A0D49012002F02E
:102CB000E1F80B4C0020A41C00906946204601F06E
:102CC00057FF08A0009901F089FB022120460091DE
:102CD00002F050F9002038BD80BB0000F12C00004C
:102CE0000250000076616C75653A2564200D0A007B
:102CF00010B5034A0349012002F058F8002010BD26
:102D00004D290000452A0000FEB50446401C4179CB
:102D1000027909021143427A007A150205436808D4
:102D200002900818FEF734F80190217AE27909023E
:102D30001143227BE07A17020743780800900818B5
:102D4000FEF726F80646BD4201D9009800E0029839
:102D5000FEF71EF80546E07DA17D00020843FF2135
:102D60006931884202D30020A075E075E07DA17D25
:102D70000002084387000D482946C059FDF7C0FFEF
:102D80000199FDF764FFFEF70AF82076000A6076E5
:102D900007482946C059FDF7B3FF3146FDF757FFF5
:102DA000FDF7FDFFA076000AE076FEBD24D300000B
:102DB00084CD000070B52B4801F08CFE29482630E8
:102DC00001F088FE2748583001F084FE25488A30FB
:102DD00001F080FE2348BE3001F07CFE2148F23035
:102DE00001F078FE204801F075FE1F48343001F0F4
:102DF00071FE1D48583001F06DFE1CA207211D48D0
:102E000001F04AFE1B481CA20321401C01F044FEB5
:102E1000184C1AA2A41C0121204601F03DFE18A264
:102E20000221601C01F038FEA51C16A203212846D1
:102E300001F032FEE61C14A20421304601F02CFE03
:102E4000134A2146012002F015F8124A29460120B2
:102E500002F010F8104A3146012002F00BF8002071
:102E600070BD0000DEB9000004BB00004C6F61645F
:102E70002E2E2E00024000003530250030000000CC
:102E80003530000031303000B7B5BBD8000000004D
:102E9000FD30000039310000A12E000000207047F5
:102EA00010B5034A0349012001F080FF002010BD46
:102EB0004D290000452A0000F8B545490446086937
:102EC0008A69C0B2896AD6B2CFB201218907096B7B
:102ED000404AC906C90E0A3151430091002808D062
:102EE000012804D0022804D0032804D004E00D46B1
:102EF00002E0384D00E0384D354840300168284642
:102F0000FDF72EFE2146802C22D0012080070818D4
:102F1000902C0AD0942C08D0982C06D0B42C18D021
:102F2000B82C28D0A02949D0FEE7017800294DD03F
:102F3000002E06D0012E06D0022E02D0032E04D081
:102F400005E0017815E0017811E001782EE02046D7
:102F5000F8BD1F484030416B002937D0002F03D007
:102F6000012F03D0022FF2D1416B02E0416B009898
:102F700014E0184812E016484030816B002925D033
:102F8000002C15D0012C0DD0022C0ED0032C0FD00C
:102F9000042C0FD0052CDAD1816B1048FDF7E0FD31
:102FA0000446D4E7816B2846F8E7816B0A48F5E7C9
:102FB000816BDEE7816B7D200002EFE7017800295D
:102FC00004D001782846FDF7CBFDF8BD0020F8BD00
:102FD00040000040001BB70010270000006CDC021E
:102FE00000B50346012100F049F80021184600F021
:102FF0004DF80121184600F049F800BD70B50D46A6
:10300000044680281BD0902C19D0942C17D0982CD3
:1030100015D0A02C13D0A42C11D0A82C0FD0AC2CE0
:103020000DD0B42C0BD0B82C09D0BC2C07D0C02CA0
:1030300005D0D02C03D0E92103A001F097FC01209A
:1030400080072018057070BD41534D3131787842AA
:1030500053505C4D313133305F5374645065726945
:1030600070685F4472697665725C7372635C6D311F
:103070003133305F7263632E6300000001229207D8
:10308000002901D05061704790617047012292077A
:10309000002901D0506070479060704710B504005F
:1030A00009D0012C07D0022C05D0032C03D0A72176
:1030B00004A001F05BFC104884610021C161012182
:1030C000C16110BD41534D313178784253505C4D50
:1030D000313133305F5374645065726970685F4496
:1030E00072697665725C7372635C6D313133305F27
:1030F0007263632E630000004000004038B50A4C44
:103100000021204601F036FF0021601C01F032FF53
:10311000002000906946204601F02AFD03A0009996
:1031200001F05CF9002038BD0840000076616C7544
:10313000653A2564200D0A0038B50A4C78212046EE
:1031400001F018FF6421601C01F014FF00200090C2
:103150006946204601F00CFD03A0009901F03EF9FC
:10316000002038BD0840000076616C75653A256422
:10317000200D0A00F0B5352203465343114A9B182F
:103180005B5C9B061DD4891E00238C46801E0E4965
:103190000022CC5C6146CE1804218F1A0125BD4067
:1031A0002C4201D0302100E02021851835277D43B5
:1031B000044F521CED19A955052AEDDB5B1C052BAC
:1031C000E5DBF0BD5406002010C00000F7B5411C3F
:1031D00004D01D21851889018D4202DD0020C043E5
:1031E000FEBD002101241CE0561A2346761EB34082
:1031F000019E334214D04318DE17760FF7189C4611
:10320000FB100A4EFF089B199E461E78FF0063467E
:10321000DB1B0727FF1A2346BB401E4373461E7065
:10322000491C9142E0DB2846FEBD000059130020F6
:10323000FCB51D4A0123D0690090411E12699E46CB
:10324000002401922DE00022C0185B4210D5714489
:1032500000290ADB009DA9420AD1691E75466D420C
:10326000801EAE46062802D002E00021F6E70520C7
:10327000352506466E430D4D7519AC466D5CAD06A1
:10328000E2D40B4D0726B71A2D5D0126BE4035400E
:1032900000D002256646521C7554082AD4DB019AD8
:1032A000641C9442CFDBFCBDC80000205406002003
:1032B0004D110020F0B500238E46844606260D48A9
:1032C0000022C45C7046C718B01A012585402C4204
:1032D00001D0302000E020206546AD1835214D4357
:1032E0000549521C6D18E855072AEDDB5B1C072BBE
:1032F000E5DBF0BD15C0000054060020F0B5414CE0
:103300002168002922D0012922D0022922D01021AF
:103310000818810200220E250E460120AF1A03462E
:10332000BB400B4204D004239F1A374BBB4059408B
:10333000521C052AF2DB721834494A4034490023F2
:1033400006469E40164207D0302606E00821DFE7F9
:103350000021DDE71821DBE72026CF18FF37A13752
:103360005B1C3E72052BEBDD530601D5302600E0D9
:103370002026284BDE73160601D5302600E02026D5
:103380001E74D30501D5302600E02026214B403B9A
:10339000DE76092305469D40154201D0302600E027
:1033A00020260E25ED1A35277D436D185B1C2E72E5
:1033B0000E2BEFDDE469002305469D40154201D048
:1033C000302600E02026E51A35277D436D18403D64
:1033D0005B1CEE74072BEFDD0D19FF353023A13593
:1033E0002B70082305469D40154201D0302500E092
:1033F0002025E6187618FF3681365B1C75760E2B75
:10340000F0DDF0BDC80000203705000012540000B8
:1034100054060020F4070020F8B500210846FFF705
:1034200049FF4A4C0021E069C01FFFF743FFE169F3
:103430000020C91FFFF73EFFE0693521444C41439E
:1034400000220F1984462021A318FF336133D97459
:10345000352353431D19831835265E433619FF3E25
:10346000E971C13EF177BE18FF3E1B19C13EFF3323
:1034700031766133D9722B18203B521C1976082AF9
:10348000E2DB00202218FF32A132117235224243C2
:103490001219401C11720928F4DB2C4E00206246E0
:1034A00013181D19FF35A135297035256B431B19DC
:1034B000FF3BA13B401C19700828F1DB00F0BCF871
:1034C000002520E04019234F407B0621FFF752FEE4
:1034D00070682C214843C0194019417B0620FFF732
:1034E00049FE002706E0C1194019497B407BFFF7E0
:1034F00041FE7F1C71682C20414316480818017B4F
:10350000B942F0DC6D1C70682C2148431149401809
:10351000027BAA42D6DCF169082009390EE0C20715
:103520000FD020233522424312199371C2070AD0CB
:1035300020232218FF3221329377401C8842EEDD8F
:10354000F8BD3023EEE73023F3E70000C800002089
:10355000540600201CC00000F1B5354882B000249C
:10356000C66962E000255DE03520294641433148C7
:1035700008180090075DB80653D40298030000F0C5
:1035800051FF0705090D1017213A440020466840F5
:10359000C00700E0E007C017401C24E003212846D4
:1035A00001E060190321FDF7F1FA002932D019E09A
:1035B00003212846FDF7EAFAE10F091949104840AE
:1035C000C0070DE02046684303210190FDF7DEFAB5
:1035D0000198C20F1018420801985200801A08186A
:1035E000002817D000207908022249001740012F37
:1035F00012D9012211E02046684301900321FDF712
:10360000C5FA01984140C807EAE7601901902046D1
:103610006843F3E70120E6E70022424000981143A7
:1036200001556D1CB5429FDB641CB4429ADBFEBDA4
:10363000C800002054060020F0B51F4F7868062807
:1036400038DD000300211125044601226E1A1346BD
:10365000B340034204D005235E1A184BB3405840D0
:10366000491C0629F2DB2018F9698646144A002015
:103670008C464300C5183523002143439C186E181F
:103680000123B3407646334201D0302600E02026A5
:1036900067467B18E718203F7E7535277B439B18CC
:1036A0001F18084B491CFB185E760329E7DB401CFA
:1036B0000628DEDBF0BD0000C8000020251F00004A
:1036C00054060020A0FDFFFFF8B5817943790E0272
:1036D0001E43037AC5791B022B430093857A477AF0
:1036E0002A023A43457E077E2D023D43551B427F09
:1036F000077F1202C11C3A434F7A097A3F023943CD
:103700000446437BC77EA07E3F0238430F1A002B3E
:1037100031D0B8B250436421FDF738FA0099081847
:1037200081B2E80F40194010801980B2A077030AD7
:10373000E3772246203211700B0A5370E27C022A92
:1037400028D0012A16D1627D237D12021A43154B1F
:10375000DA80E27EA37E12021A434B1ED21893B285
:10376000627E247E12022243441E12190E4C92B233
:10377000E468A047F8BDA9B24A4310466421FDF7AA
:1037800005FAF90FC9194A103018009980B251187A
:1037900089B2CBE7E27DA37D12021A4302F09EF8C4
:1037A000F8BD000000000020C00A00007FB5012025
:1037B00080074169C21211434161684600F070FA06
:1037C0005F20694608807D20C00001900024104DD4
:1037D0000C814C80284600F0E7F91021284600F0C3
:1037E00089F90121284600F097F801221146284660
:1037F00000F02AF9032069460873012088734C738E
:1038000003A8FFF721F90121284600F0CDF87FBD7C
:1038100000C0004010B500210120114A800742611C
:10382000104B04221A60104A9368FF241134A343FA
:1038300093600E4A0263C21303E00B46491C934295
:1038400002D2436B012BF8D17D20C000FCF77CFF36
:10385000044801214038016100224261416110BDEC
:10386000180800008000004000020040160000C060
:1038700030B504468BB02020FFF7B2FB244D022266
:10388000D1052846FEF752FB022211062846FEF714
:103890004DFB01A800F090FD002010210290019046
:1038A000049403910A90099003210790069009025D
:1038B00060200891059001212020FFF7DFFB012007
:1038C000FFF7ECFB20219020FFF798FB114C2046DE
:1038D00000F026FD01A9204600F01EFC09216846E3
:1038E00001700121817003214170FFF7ADF8FF20C5
:1038F0000004A060E0016060052101220905204666
:1039000000F0BEFB0121204600F07CFB0BB030BD77
:10391000000003400020004070B504460F480D46EB
:1039200084420FD00E4884420CD00E48844209D005
:103930000D48844206D00D48844203D00C490DA0A6
:1039400001F014F8280A01D1002D04D1084909A07A
:10395000491C01F00BF8E843208270BD00A0004034
:1039600000A8004000B0004000C0004000C8004077
:103970007709000041534D313178784253505C4D06
:10398000313133305F5374645065726970685F44DD
:1039900072697665725C7372635C6D313133305F6E
:1039A00074696D2E6300000070B5044612480D4620
:1039B000844210D0114884420DD0114884420AD06C
:1039C0001048844207D01048844204D01121490194
:1039D0000EA000F0CBFF002D09D0012D03D0184917
:1039E0000AA000F0C3FF20680121084302E020681C
:1039F00014490840206070BD00A0004000A80040AD
:103A000000B0004000C0004000C8004041534D31AC
:103A10003178784253505C4D313133305F537464A8
:103A20005065726970685F4472697665725C737222
:103A3000635C6D313133305F74696D2E630000005B
:103A400021020000FEFF000070B50446164816462D
:103A50000D4684420FD0154884420CD0144884424D
:103A600009D01448844206D01348844203D0134935
:103A700013A000F07BFF280A01D1002D04D10F49CB
:103A80000FA0491C00F072FF002E09D0012E04D0B7
:103A90000A490BA0891C00F069FFA089284301E0B6
:103AA000A089A843A08170BD00A0004000A80040EC
:103AB00000B0004000C0004000C80040B90800004D
:103AC00041534D313178784253505C4D3131333070
:103AD0005F5374645065726970685F44726976659B
:103AE000725C7372635C6D313133305F74696D2E5B
:103AF0006300000070B5054618480C4685420FD09B
:103B0000174885420CD01748854209D0164885428F
:103B100006D01648854203D0154916A000F026FFAE
:103B2000002C12D0102C10D0202C0ED0302C0CD009
:103B3000402C0AD0502C08D0602C06D0702C04D019
:103B40000B490CA0491C00F011FFA8887021884384
:103B5000A880A8882043A88070BD000000A0004075
:103B600000A8004000B0004000C0004000C8004075
:103B7000D60A000041534D313178784253505C4DA4
:103B8000313133305F5374645065726970685F44DB
:103B900072697665725C7372635C6D313133305F6C
:103BA00074696D2E63000000F8B52A4E2A4F0D4649
:103BB0000446B0420ED0BC420CD02848844209D002
:103BC0002748844206D02748844203D0F22126A009
:103BD00000F0CCFE688800280BD0102809D02028DF
:103BE00007D0402805D0602803D0F3211EA000F0A4
:103BF000BDFE2889002809D0C11FF93906D0FF3938
:103C0000013903D0F42118A000F0B0FE2068B442BE
:103C100080B201D0BC4203D1702188436988084337
:103C20001E490840298901432160A888A085288869
:103C30002085B44208D00948844205D0084884420F
:103C400002D00848844201D1A87A20860120A082AF
:103C5000F8BD000000A0004000A8004000B00040F7
:103C600000C0004000C8004041534D3131787842D7
:103C700053505C4D313133305F5374645065726919
:103C800070685F4472697665725C7372635C6D31F3
:103C90003133305F74696D2E63000000FFFC00005B
:103CA0000021C9434160002101800181418081726E
:103CB00070470000F0B500232B4980228A609501EF
:103CC0008D602A4CCE02A6601C46070601D54D60C9
:103CD00000E08D6000BF00BF00BF00BF00BF00BF9D
:103CE00000BF00BF8A604006000E4A60641CE4B258
:103CF000082CEAD300BF00BF00BF00BF00BF00BF59
:103D000000BF00BF00BF00BF00BF00BF8A6000BF90
:103D100000BF00BF00BF00BF00BF00BF00BF00BFAB
:103D200000BF00BF00BF4A608A60002040245B04DF
:103D30001B0C4A6000BF00BF00BF00BF00BF00BF38
:103D400000BF00BF00BF00BF00BF00BF0D6825421D
:103D500001D05B1C9BB28A60401CC0B21028E6D325
:103D6000024918094E60F0BD000002400000034007
:103D700010B5234800F0AEFE2148263000F0AAFE20
:103D80001F48583000F0A6FE1D488A3000F0A2FE01
:103D90001B48BC3000F09EFE19483C38FCF73DFF44
:103DA000174A81B23C3A174801F0C6F814482D383A
:103DB000FCF733FF81B2124A12482D3A401C01F041
:103DC000BBF80F481E38FCF728FF81B20C4A0D489B
:103DD0001E3A801C01F0B0F809480F38FCF71DFFAF
:103DE00081B2074A07480F3AC01C01F0A5F80549FF
:103DF000054A491E012001F03DF8002010BD0000D9
:103E0000F0B8000002300000113E000000207047B2
:103E100010B5034A0349012000F0C8FF002010BD7F
:103E20004D290000452A000070B501241B4D2407D0
:103E3000002221462846FEF779F80122214628462D
:103E4000FEF71CF8164C002220212046FEF76EF8E3
:103E5000012220212046FEF711F8002240212046B1
:103E6000FEF764F8002240212046FEF707F80125FE
:103E70006D03002229462046FEF758F80122294604
:103E80002046FDF7FBFF002280212046FEF74EF87A
:103E9000012280212046FDF7F1FF70BD00000340A4
:103EA00000000240F0B50646314885B0007D0D4661
:103EB00000285AD12E4C203C2089B04201D3012049
:103EC00000E000206189B14201D8012100E0002119
:103ED000084305D00422274901A8FCF76BFE40E007
:103EE000A089A84201D3012000E00020E189A94275
:103EF00001D8012100E000210843EBD13020205EF1
:103F0000FCF73BFF07463046FCF742FFA16AFCF78F
:103F1000F7FE3946FCF7ECFEFCF741FF86B2322093
:103F2000205EFCF72AFF07462846FCF731FFE16ACE
:103F3000FCF7E6FE3946FCF7DBFEFCF730FFFF211D
:103F400080B2E1310A1A92B2FF23228241336683A2
:103F50009E42BFD88842BDD86846028046800098FD
:103F6000019001A9012000F097FF05B0F0BD00000D
:103F70004400002070AC00007047000070B5204C79
:103F8000A079C00715D001F038FB6081E088401CA3
:103F900080B2E080022815D30025E580A3880120A7
:103FA000002B0AD020892188002288420BD3411A95
:103FB0000AE001F01DFB2081E8E7A0802089208035
:103FC0006089608070BD091A642900DD0122618961
:103FD0006688B14201D38E1B00E0761A642E00DDA4
:103FE000521C002A01D0A58070BD5B1C20809AB2B3
:103FF0006180A280052AF7D3FFF754FF70BD00004F
:104000001800002070B504460D480D46844209D0C2
:104010000C48844206D00C48844203D0DF210BA018
:1040200000F0A4FC0126002D07D0012D03D0E021D3
:1040300006A000F09BFC666270BDA66270BD000029
:1040400000200040003000400060004041534D31EE
:104050003178784253505C4D313133305F53746462
:104060005065726970685F4472697665725C7372DC
:10407000635C6D313133305F75736172742E630030
:1040800070B50446134816460D4684420AD01248BD
:10409000844207D01148844204D0FF213D3110A052
:1040A00000F064FCA800800D02D01A48054204D03C
:1040B000FF213E310AA000F059FC002E08D0012E4D
:1040C00004D0FF213F3106A000F050FC656470BDB4
:1040D000A56470BD0020004000300040006000403A
:1040E00041534D313178784253505C4D313133304A
:1040F0005F5374645065726970685F447269766575
:10410000725C7372635C6D313133305F75736172F1
:10411000742E6300FFFF0FC0FEB5054600206E4EF3
:104120006E4F0C460190B54208D0BD4206D06C4897
:10413000854203D08F216BA000F018FC2069002875
:1041400009D0202807D0402805D0602803D091212D
:1041500064A000F00BFC6069002805D0082803D09B
:10416000922160A000F002FCA06900280BD0062874
:1041700009D0022807D0822805D0862803D09321B1
:1041800058A000F0F3FBE069C11FF9390AD0FF39EC
:10419000013907D003210902884203D0942151A09C
:1041A00000F0E4FB206A00280ED001218903884238
:1041B0000AD04900884207D003218903884203D0EE
:1041C000952148A000F0D2FB606A002807D00121A9
:1041D000C902884203D0962142A000F0C7FB2068A4
:1041E000002812D00121090488420ED049008842DB
:1041F0000BD003210904884207D001218904884299
:1042000003D0972137A000F0B1FB6068002812D0DE
:104210000121090588420ED0490088420BD00321B4
:104220000905884207D001218905884203D09821D9
:104230002CA000F09BFBA068102805D0002803D01C
:10424000992128A000F092FB206A00280AD0B542EC
:1042500008D0BD4206D02248854203D09E2121A02D
:1042600000F084FB03208007A860286B2A490840DF
:104270000090B54201D1902007E0BD4201D19420C9
:1042800003E01748854203D19820FEF715FE019000
:104290000198E1688000FCF763FC810680098A0CC4
:1042A0008001810263692069114318430843A169B1
:1042B0000843A1680843009908432863296A1748FE
:1042C000014005CCA369104362691A431043E269B7
:1042D000104308432862FEBD00200040003000402B
:1042E0000060004041534D313178784253505C4D6D
:1042F000313133305F5374645065726970685F4464
:1043000072697665725C7372635C6D313133305FF4
:1043100075736172742E630001C00000FF3488FF62
:1043200070B504461448844212D0144D144EAC4269
:1043300005D0B44215D06E2112A000F017FBAC429C
:104340000DD100214020FEF7A1FE0121402010E008
:1043500000212020FEF79AFE0121202009E0B4422E
:1043600009D10124E40600212046FEF78FFE012139
:104370002046FEF78BFE70BD00200040003000405C
:104380000060004041534D313178784253505C4DCC
:10439000313133305F5374645065726970685F44C3
:1043A00072697665725C7372635C6D313133305F54
:1043B00075736172742E63000021016010228260A7
:1043C000E12241605202C26060224161026181616A
:1043D000D2000162C2614162704700000FB410B5A3
:1043E00003A9044B044A029800F080F810BC08BCF2
:1043F00004B0184759070000FC0100200FB410B5A5
:1044000004A9074B02AA039800F070F8044602A919
:10441000002000F0A5FA204610BC08BC04B01847E4
:104420006149000030B47446641E2578641CAB42B8
:1044300000D21D46635D5B00E31830BC18470000E6
:1044400030B5002805D0164C021F20680023014615
:1044500005E0084630BD904203D803464068002876
:10446000F9D1002B00D05968002B0AD01C68D51A4E
:10447000A54204D11268A4181A461C6002E05A60D2
:1044800000E02260002807D01468851AA54203D1F5
:1044900005686419146040685060184630BD00001B
:1044A00000020020F1B50E4C0F480C4E001B0D4FC2
:1044B000C508ED0000221146009800F067FE0028B4
:1044C00003D13068002801D00020F8BD3C600020F6
:1044D0002560606001203060ECE7000004020020ED
:1044E000241500200002002020550020FFB591B0C7
:1044F0000F460546002606E025280AD0149A13998F
:1045000090476D1C761C28780028F5D1304615B0F0
:10451000F0BD002400940121F34A029400E004431A
:104520006D1C2B780846203B98401042F7D1287824
:104530002A280ED0022128780246303A092A15D8B6
:10454000009A0A235A43303A80180C436D1C00909D
:10455000F1E701CF0090002805DA01204003044371
:10456000009840420090022004436D1C28782E28B9
:1045700015D10420044368786D1C2A280AD101CF84
:104580006D1C02900BE002990A2251433039401809
:104590006D1C02902878014630390929F3D9287812
:1045A0006C2810D006DC4C281AD068280ED06A2857
:1045B00017D104E0742813D07A2812D110E001201A
:1045C000400504430CE00121090501E00321090530
:1045D0000C436978814203D10120000524186D1C29
:1045E0006D1C287803906E281ED00CDC632831D017
:1045F00004DC00288AD0582811D1B2E064287BD08E
:1046000069280CD178E073282DD004DC6F2870D095
:10461000702804D1A7E075286CD078286BD0149A44
:1046200013999047761C62E06002400F022807D081
:1046300003280AD0042838680AD006603F1D56E0D7
:104640003868F11706604160F8E738680680F5E7DA
:104650000670F3E73878694608740020487404A8A7
:104660000390012003E0386803900020C0433F1D01
:1046700061070FD5002101E00199491C029A0191BF
:10468000914213DA8142F7DB019A0399895C002990
:10469000F2D10BE0002101E00199491C0191814216
:1046A000FADB019A0399895C0029F5D101990098F8
:1046B000139A401A00902146149B00F03BF901998F
:1046C0008019461807E0039803990078491C039164
:1046D000149A139990470198401E0190401CF2D102
:1046E0002146149B139A009800F014F986196D1C4A
:1046F00009E741E033E034E00A200021049005910D
:104700006002410F022905D001CFC2179446032948
:1047100005D007E0FF1DFF08FF0003CF06E000B251
:10472000C2179446042902D140B2C1178C46002218
:104730006146944506DA0A460021404291418C4682
:104740002D2102E0210504D52B216A461176012195
:1047500003E0E10701D02021F7E7019154E00A20AE
:104760000BE0102009E010200490002104200443F5
:1047700008200591029003E0082000210591049093
:104780006002410F022905D001CF0022944603297F
:1047900006D006E0FF1DFF08FF0003CF8C4603E0B4
:1047A00080B2042900D1C0B20021019121072BD58C
:1047B0000399702906D0049A1021059B4A401A4398
:1047C00005D00EE040216A461176012108E06146DD
:1047D000014306D030216A461176039951760221B1
:1047E0000191049A0821059B4A401A430CD1614665
:1047F000014301D1610707D530216A4611760121B5
:1048000001910299491E02910399582904D037A1B8
:1048100003910FA90F910DE039A1F9E76146059BBE
:10482000049AFCF7D0FA039B8C469B5C0F9A521EAD
:104830000F92137061460143F0D10F9807A9081A2F
:1048400020300390600704D50120000484430298BF
:1048500001E0012002900399884201DD401A00E046
:10486000002041180290019809180098401A009001
:10487000E00306D42146149B139A009800F05AF8DE
:1048800086190020049008E006A9085C149A139980
:1048900090470498401C761C049001998842F3DBF1
:1048A000E0030CD52146149B139A009800F042F8BF
:1048B000861904E0149A302013999047761C0299C7
:1048C000481E02900029F5DC08E00F980F99007847
:1048D000491C0F91149A13999047761C0399481E0E
:1048E00003900029F1DCFBE6092801003031323366
:1048F000343536373839616263646566000000001C
:104900003031323334353637383941424344454605
:1049100000000000F8B5044600251E46174688042E
:1049200004D405E039462020B0476D1C641EF9D53B
:104930002846F8BDFFB50446002581B01E46C803D1
:1049400001D5302700E02027880404D505E038464B
:104950000399B0476D1C641EF9D5284605B0F0BD1B
:104960000A68531C0B601070704700000A4601462D
:1049700001A0FFF733FDFEE757726F6E672070618D
:1049800072616D65746572732076616C75653A202D
:1049900066696C65202573206F6E206C696E6520DA
:1049A00025640D0A00000000F8B53148314900685F
:1049B0000968314A401A0121C902411800200091BA
:1049C0000B5C1354401C3828FAD32C482A4C816BBA
:1049D000A161C06BE061FEF793F8FEF77FF8C0437A
:1049E000E060FEF781F860612269A168244D8918B2
:1049F000A269AC468B18E16800220818E1694418E6
:104A00001D483030014618C0103914460838436834
:104A10000E681D016244AD199E1875404F685E090D
:104A2000F61975400668641CAD1905608F682E0183
:104A3000F619AF187E40CF686D09ED196E40F31876
:104A40004360082CE3D30C490E4AC868904208D151
:104A50000020820053181C6B009BD218126B9442EA
:104A600001D00120F8BD401C0228F2D30020F8BD7F
:104A700064AC000068AC00006C020020C07F002025
:104A8000B979379ECFEEFFFF00487047A0000020A5
:104A900000487047BC0000207CB515460E4601F06A
:104AA00074F9040011D02A463146206800F002FE55
:104AB000050008D169460880891C2068FCF7BEF80B
:104AC000684601F085FC28467CBD01487CBD00009D
:104AD0000500030010B500F007FE10BD0FB410B5BF
:104AE0000A48007800280CD009480068002808D03F
:104AF00008480068002804D003A9029800F082FD4D
:104B0000002010BC08BC04B01847000050AC0000E6
:104B1000A000002048AC00007CB50D4601F035F93E
:104B2000040010D02946206800F006FE050008D1D8
:104B300069460880891C2068FCF780F8684601F007
:104B400047FC28467CBD01487CBD000005000300F1
:104B500010B50C4601F019F9002804D00068214670
:104B600000F0F0FF10BD014810BD0000050003007B
:104B700010B50C4601F009F9002804D00068214660
:104B800001F018F910BD014810BD00000500030038
:104B900010B500F003F801F031FB10BD70B52E4CDC
:104BA000206800281CD02D480078012807D1FFF785
:104BB0006BFF05462A482168006888472860294815
:104BC000007801280CD1FFF763FF0546012021681A
:104BD000400288472860000002D123A0FFF77EFF33
:104BE000274C012120680905884203D225A0FFF740
:104BF00075FFFEE72F4801682068FBF7B1FF002929
:104C000004D025212CA0FFF769FFFEE73649206874
:104C10000968884203D335A0FFF760FFFEE701F083
:104C20005DF901F025F93E48FFF758FF3DA0FFF779
:104C300055FF4AA0FFF752FF4EA0FFF74FFFFFF7C7
:104C4000B3FE002806D050A0FFF748FF3448FFF716
:104C500045FF70BD51A0F7E734AC000050AC000038
:104C600054AC000058AC00005152636F646542754B
:104C700066206D656D6F7279206E756C6C0D0A0023
:104C800064AC00007265736F757265206261736554
:104C90002061646472206D757374206D6F7265207D
:104CA0007468616E20307830303130303030300D03
:104CB0000A00000060AC0000464C4153485F52457A
:104CC000535F424153455F4144445220256320468F
:104CD0004C4153485F534543544F525F53495A45E3
:104CE00020213D20300D0A005CAC00007265736F1E
:104CF00075726520626173652061646472206D75F0
:104D00007374206C657373207468616E20666C61C7
:104D1000736820746F74616C2073697A650D0A0082
:104D2000C4D800002A5465616D3A2020202020411B
:104D30006C707363616C65204C4344204170706CEF
:104D400069636174696F6E20646576656C6F706D00
:104D5000656E74207465616D0D0A00002A446174EB
:104D6000653A2020202020323032302D30332D3053
:104D7000310D0A002A56657273696F6E733A2056B8
:104D8000312E302E310D0A002A5374617475733A36
:104D90002020206572726F720D0A00002A53746120
:104DA0007475733A2020206F6B0D0A00F7B5224FFF
:104DB00082B01646384600F0D3FF002807D00068BE
:104DC0001630FBF731FF024600210846904700F0FD
:104DD000D1FE05000AD02C6803E0206800F09CFC9E
:104DE0006468002CF9D12846FCF7DEF9029801F03E
:104DF00069FB00210846B047384600F0B1FF0400C7
:104E00000BD0FF2032460230216801F037F9FF2035
:104E100021680330039A01F031F900F023F80420EF
:104E2000694608802846891CFBF708FF684601F0A0
:104E3000CFFA002005B0F0BD0180000010B501F0F0
:104E400039F800F0CFFF01F03FFB10BD10B5034A69
:104E500003490120FFF7AAFF10BD00004D29000003
:104E6000452A000010B5024801F08EF810BD000080
:104E7000A402002070B505461446084600F085FFE0
:104E8000002805D001682246284601F0F7F870BDD9
:104E9000004870BD04000300F0B587B00F46064619
:104EA000002168460180134800240188684641803B
:104EB0006D46A000401904220F49001DFBF77AFE41
:104EC000641C052CF5DB0024002E02DC0BE0052C15
:104ED00009DAA000C11940190422001DFBF76AFE7F
:104EE000641CB442F3DB6946044801F053F807B090
:104EF000F0BD00006EAC000070AC00001802002095
:104F00007CB50D4600F041FF040010D02946206812
:104F100001F066FA050008D169460880891C2068FE
:104F2000FBF78CFE684601F053FA28467CBD014829
:104F30007CBD0000050003007CB515460E4600F060
:104F400024FF040011D02A463146206801F060FA9F
:104F5000050008D169460880891C2068FBF76EFEB1
:104F6000684601F035FA28467CBD01487CBD00004A
:104F7000050003007CB50D4600F007FF040010D0CB
:104F80002946206801F05EFA050008D169460880CC
:104F9000891C2068FBF752FE684601F019FA284682
:104FA0007CBD01487CBD000005000300024801688B
:104FB000491C0160704700009C000020F0B587B0DC
:104FC00007460024A000C5196E48AA8841780378D6
:104FD000090219438A4201D3012200E00022C1786C
:104FE0008678EB8808023043834201D3012000E039
:104FF0000020024335D00D20264646436248815D9D
:1050000000297DD03518691C04226846FBF7D2FDC3
:10501000009800F0B3FD002811D001684A780B78A1
:1050200011021943C9B2122909D802216A46118016
:1050300000686944FBF702FE684601F0C9F952486E
:1050400000218155681C04224E49FBF7B3FD681D01
:1050500004224C49FBF7AEFD284609300422494999
:1050600088E00D20264646434748815D002913D03D
:10507000361830460930291D04220390FBF79AFDAB
:10508000B079727900021043B27A737A110219432F
:10509000884236D3401A35E03B48291D301800902D
:1050A00002900422401CFBF785FD02980422411C5B
:1050B00001A8FBF77FFD019800F060FD002811D0EA
:1050C00001684A780B7811021943C9B2122909D82C
:1050D00001216A4691800068911DFBF7AFFD01A890
:1050E00001F076F92848012181550098291D0422F4
:1050F000401DFBF75FFD0098291D0422093039E0AF
:105100003AE0081A81B2307AF5790202307BF37AFC
:1051100000022A431843824201D3101A00E0801A89
:1051200080B2082928D3082826D3042201A803998D
:10513000FBF740FD711D04226846FBF73BFD01991A
:10514000009800F079FD002811D001684A780B78AA
:1051500011021943C9B2122909D800216A461180E7
:105160000068911CFBF76AFD684601F031F9701D7B
:1051700004220399FBF71EFD641C052C00D221E7D5
:1051800007B0F0BD70AC000028020020F8B50B306D
:10519000C608F600104D19E02068B04215D3B042A1
:1051A0000BD96368871B201D0093FBF703FDA01933
:1051B000009B07604360286004E060682860201D51
:1051C000FBF7F8FC201D2660F8BD251D2C68002C7F
:1051D000E2D10020F8BD000000020020FEF7E6FA50
:1051E000E1204002FEF744FBFDF756F9FEF71CFEF6
:1051F000FFF7CEFCFFF72AFE044C054D21688847D7
:105200002846FBF7A1FAFFF719FEF7E72400002074
:10521000A08601000020704770B50D460A490B4A70
:1052200009681268084E8C180021A41E2170361DD2
:105230002946FBF795FC641E715C21700028F7D1AC
:10524000204600F00FF870BDA000002054AC000014
:1052500001B503480121026868469047002008BD57
:1052600048AC000070B50446054D04E02A680121F1
:1052700020469047641C20780028F7D170BD0000BC
:1052800048AC000010B50022054B05E01C6A240163
:10529000FCD5845C1C61521C8A42F7D310BD00000F
:1052A0004020004030B589B014460546002911D091
:1052B00020220B496846FBF77DFC6807E9080028B7
:1052C0000AD06A07D20E6B46D218803A605CD26F61
:1052D0005040605409B030BD491E605C079AF7E742
:1052E000F8C30000FFB5A04F8FB00446386000201F
:1052F0000D46C043FF21B8601E4661311898FBF788
:1053000081FC002E01D0304602E01198FBF785FCAD
:10531000002828D0024628461199FCF7ADFE786196
:10532000002820D0002D04D0A8421CDC28467D6037
:1053300000E078602C2148438C4D610040194018F2
:105340008688F868F1000A1A042A00DA042200218B
:10535000FDF73CFFF860C01DC217520FEC2110187A
:10536000C010834F08E00020C04313B0F0BD395493
:10537000EC2921D0EC21401CB042F8DB7A482C22E9
:10538000416851434D1969880161FF2125317948F0
:10539000FBF738FC6100611869180991CA7C079213
:1053A000CB7F00200B93D4184D7D20310D9149788F
:1053B00003918446014614E01121DCE76D4A002187
:1053C0006346D31806E06A4A175C22464A43401CEB
:1053D000D754491CA942F6DB6146491C8C467146EC
:1053E000491C8E4607998E45E8DB00218E462146F2
:1053F00069430C911DE05F4A00216346D318724453
:105400000E930A920CE05A4AA942175C03DA22462C
:105410004A430E9B01E00A9B0C9A401CD754491C3E
:10542000039A9142EFDB6146491C8C467146491C48
:105430008E460B998E45DEDB0998007D401B0A9055
:105440000D9801780398081A09900020049008909C
:1054500029E047489921E830FBF7D4FB44480499F8
:105460002A464118E830FBF7A5FB41482946E830B9
:105470000A9AFCF741FE089A00203E49B21807E05C
:105480003B4BE8331F5C234643435B189F54401C4F
:105490000A9B9842F4DB0498401904900898401C39
:1054A00008900298401C029007998842D1DB0020A6
:1054B0002AE02F489921E830FBF7A4FB2C480499F7
:1054C000039A4118E830FBF775FB2948099AE83040
:1054D0000399FCF711FE264B08990020E833254A72
:1054E000751805E0214641431F5C89184F55401C43
:1054F00009998842F6DB04990398081804900898E3
:10550000401C08900298401C0B9902908842D0DB06
:10551000154D686880001130E861FCF72FFC00240D
:1055200016E0214635225143134A00258F18661C88
:1055300009E0795D002911D0684380190121189A8A
:10554000FFF7B0FE6D1C0848C0698542F1DB641CA2
:105550000548C1698C42E4DBC06906E768438019ED
:105560000021189AECE70000C80000201CC00000D1
:10557000591300204D11002054060020F3B583B0CC
:1055800005001AD028680190284680380290C76F1D
:1055900004983E1F864200D906462846FEF750FF73
:1055A00004460091324629460498FFF7EFFD019921
:1055B000002806D0016005B0F0BD0498FEF772FF28
:1055C000F9E729600299002CCF670AD02168621898
:1055D000291F8A4202D9291B091F21600099616095
:1055E000E9E7024A00991160E5E7000000020020A7
:1055F00010B5D020FEF75EFB10BD10B59020FEF771
:1056000059FB10BDF8B520270E460446002548E09A
:10561000252843D16078641C302806D1302703E068
:105620000A214D43303D4519641C2078014630392C
:105630000929F5D9C1B263292FD00EDC532934D002
:1056400006DC432929D044291DD04F2926D115E055
:10565000552918D0582921D11AE0732925D004DC06
:10566000642910D06F2919D108E075290BD0782949
:1056700014D10DE0361DFFF7CFFD11E02B463A4661
:1056800008213068F6E72B463A460A213068F1E7F0
:105690002B463A4610213068ECE701CEFFF7D8FDE3
:1056A000641C20780028B3D1F8BD01CEFFF7DAFDE5
:1056B000F6E7000030B400280BD0437804781B02D2
:1056C0002343DBB2122B07D8044C9B00E35830BCB9
:1056D0001847034830BC70470248FBE7BCCB0000CA
:1056E000010001000100030000280AD0417802787F
:1056F00009021143C9B2122905D8044A8900515838
:10570000084703487047034870470000C4C80000BA
:10571000010001000100030000280AD0417802784E
:1057200009021143C9B2122903D8024A890051580B
:105730000847704740CA000000280AD04278037822
:1057400012021A43D2B2122A05D8044B92009A5878
:1057500010470348704703487047000008CC00001A
:105760000100010001000300F7B5002550000321EE
:1057700086B014460F1A4CE00798284E001B81B2E1
:105780000290069840190090326880B290470798BE
:10579000001981B204900098326880B2904707984F
:1057A000401981B20190069800190390326880B2C6
:1057B00090470798401B81B200900398326880B2EE
:1057C0009047049881B20698401B0390326880B2DB
:1057D0009047019881B20698001B0190326880B210
:1057E00090470298326881B2039880B2904700983F
:1057F000326881B2019880B290476D1C002F03DAA5
:10580000A800C719BF1D04E0281B8000C719641E2B
:105810000A37A542B0DD09B0F0BD0000C00A0000A3
:10582000F7B500255000032184B014460E1A3FE05E
:105830000598001983B20390049847190598BAB2E5
:10584000001B81B20290B8B21B4FFF68B8470598A1
:10585000401983B20190049807190598BAB2401B09
:1058600081B20090B8B2144FFF68B847039883B272
:105870000498471B0298BAB281B2B8B20E4FFF68C3
:10588000B847019883B20498071B0098BAB281B256
:10589000B8B2094FFF68B8476D1C002E03DAA800A4
:1058A0008619B61D04E0281B80008619641E0A367E
:1058B000A542BDDD07B0F0BDC00A000000280AD037
:1058C0004178027809021143C9B2122903D8024A69
:1058D000890051580847704710C90000F8B50546BF
:1058E0000C46104600F06CFC1849194A0968126809
:1058F0008918814201D91748F8BD17490968411A2A
:10590000C8788B78020215481A4306885319B342A7
:1059100001D9012600E000264B790F791B023B4399
:1059200040881F19874201D9012000E0002006436A
:1059300002D00848801EF8BD6846058044800848AB
:10594000083144690098A0470020F8BD64AC00000D
:1059500060AC00000300020068AC00000000002002
:10596000C00A0000F0B587B00024161A01905D1A35
:10597000601E274604940091002E01DD012108E0FD
:10598000002E05D076420390002D04DD01200BE0AF
:1059900000210391F8E7002D05D06D420290AE4240
:1059A00004DD344603E000200290F8E72C46002096
:1059B0000590601C069005981DE00098104A81B281
:1059C0000198126880B2904704987F19801904905A
:1059D000A04205DD001B0490039901984018019036
:1059E000A74204DD029900983F1B401800900598DB
:1059F000401C80B2059006998842DEDD07B0F0BDFC
:105A0000C00A0000FFB583B00C9E0D9D0E9800F0FB
:105A1000D7FB2C492C4A096812688918814202D99F
:105A20002A4807B0F0BD2A490968441A0398811929
:105A300028480288914201D9012100E00021049AFE
:105A400040885219824201D9012000E00020014320
:105A500017D1E2780598A37811028019194388427A
:105A600001D9012000E00020069A277953196279B4
:105A700012023A43934201D9012300E00023184364
:105A800002D01248801ECCE71048401C0029C8D024
:105A9000002AC6D0002EC4D0002DC2D06846039A7A
:105AA0008280049AC28006814581059A0280069A06
:105AB00042800948029B856920460830019AA84720
:105AC0000020AEE764AC000060AC00000300020000
:105AD00068AC000000000020C00A0000FFB581B0E3
:105AE0001E460D4C029BE56807461946039AA847D7
:105AF0003A46E568334610460299A8473346E568BA
:105B000019463846039AA847039AE4683346104674
:105B10000299A04705B0F0BDC00A000030B4024CA5
:105B2000E468A44630BC6047C00A00000148006831
:105B3000704700009C0000200246881A914200D263
:105B4000401E704700280AD04278037812021A4398
:105B5000D2B2122A05D8044B92009A581047034833
:105B6000704703487047000038CD00000100010075
:105B70000100030000487047C0000020F1B582B06A
:105B800000200090FFF7F6FF002852D06946006819
:105B90000B894A894AE00168002946D04C780D7883
:105BA00024022C43A44624043FD5224DAC4501D108
:105BB00000903AE08C794D7924022C43491DA34290
:105BC00001D3012500E000254E790F7936023E43CE
:105BD000A4199C4201D3012400E000242540CC7884
:105BE0008E7824023443A24201D3012600E000262D
:105BF000CF7989793F020F43E119914201D3012105
:105C000000E000210E4035420FD00A4CE41DA445AF
:105C100001D1012100E00021064D0835AC4501D13C
:105C2000012400E00024214303D040680028B2D1C1
:105C30000098FEBD01800000F3B5002087B0044647
:105C40000590FFF797FF002871D06A460068118C15
:105C50000391518C8E46918BD28B944675E00268ED
:105C6000002A71D0537815781B022B4304931B0430
:105C70006AD53A4D049BAB4201D1059064E0521DB8
:105C80000092557812782D021543039B0295AB4282
:105C900001D3012200E000222E46009D6F792D796C
:105CA0003F022F43F319039D0693AB4201D3012317
:105CB00000E00023009E1A40F578B6782D023543A7
:105CC0000195AE4501D3012500E00025009B019E12
:105CD000DF799B793F021F43F319734501D30126F6
:105CE00000E0002635402A40029DA94201D301254B
:105CF00000E00025069E8E4201D3012600E000262A
:105D000035402A40019DAC4501D3012500E0002526
:105D1000634501D3012300E000231D402A4213D034
:105D20000E4B049ADB1D9A4202D1012201E011E0E0
:105D300000220A4C049B0834A34201D1012300E055
:105D400000231A4306D004464068002887D1002C5F
:105D500002D0204609B0F0BD0598FBE701800000A5
:105D600010B50446FFF706FF00280DD0006809E0D3
:105D70000168002905D04A780B7811021943A14225
:105D800002D040680028F3D110BD10B50446FFF7DB
:105D9000F1FE00280DD0006809E00168002905D057
:105DA000CA788B7811021943A14202D040680028BA
:105DB000F3D110BD00280AD04278037812021A43AA
:105DC000D2B2122A05D8044B92009A5810470348C1
:105DD0007047034870470000A0CC0000010001009C
:105DE000010003001CB56946204800F01BF900289B
:105DF0000FD1684601880B00FEF714FB05040C1454
:105E00001C240B00801CFAF70FFF0022114600F043
:105E100045FB1CBD801CFAF707FF0022114600F06D
:105E20009FF81CBD801CFAF7FFFE0022114600F00F
:105E30003FF91CBD801CFAF7F7FE0022114600F066
:105E400019FB1CBD801CFAF7EFFE04680AE020680D
:105E50004178027809021143C9B2122901D8FFF72B
:105E60002DFD6468002CF2D11CBD0000A4020020AE
:105E700010B506224021054800F0B8F8002803D0EC
:105E800003A0FEF72BFEFEE710BD0000A4020020D9
:105E90006572726F723A696E7075744D7367517581
:105EA00065756520686173206E6F74206D656D6F18
:105EB0007279000000B587B06946074800F0B2F873
:105EC000002806D168460088002802D16846FFF7FE
:105ED00075F807B000BD000018020020F8B514489E
:105EE00018220188134800F081F8002803D012A07E
:105EF000FEF7F4FDFEE700240E4D26461035204641
:105F00000D2148432E544719781C04221349FAF7EF
:105F100051FE781D04221149FAF74CFE384609302B
:105F200004220E49FAF746FE641C052CE7D3F8BD9F
:105F30006CAC0000180200206572726F723A696ED4
:105F40007075744D73675175657565206861732050
:105F50006E6F74206D656D6F7279000070AC00001B
:105F600030B400280BD0437804781B022343DBB203
:105F7000122B04D8034C9B00E35830BC184730BCAC
:105F800070470000A8C90000002101804180818085
:105F90007047000070B50446C068002809D020880A
:105FA0006288904207D1A088E288904203D10D48D0
:105FB00070BD0D4870BD002006E063880D5C534342
:105FC000E2689A188554401C22898242F5DC608878
:105FD000E188401CFAF7C4FD6180A088401CA080C5
:105FE000002070BD010004000100010010B504464E
:105FF000002020806080A080E1802281074BE0604B
:106000001868002806D00846196850438847E060A1
:10601000002801D0002010BD014810BD34AC0000A4
:106020000100010010B50446C068002808D020888F
:106030006288904202D1A088002803D000200AE0A4
:106040000C4810BD0C4810BD23885343E2689A18D1
:10605000825C0A54401C22898242F5DC2088E18857
:10606000401CFAF77DFD2180A088401EA080002002
:1060700010BD0000010001000200040030B400293E
:106080000BD04B780C781B022343DBB2122B07D8C2
:10609000044C9B00E35830BC1847034830BC7047A1
:1060A0000248FBE724CB00000100010001000300CF
:1060B00030B400280BD0437804781B022343DBB2B2
:1060C000122B04D8034C9B00E35830BC184730BC5B
:1060D00070470000F4C90000F0B585B00E460746D1
:1060E00001206946C8803448006860E00568697826
:1060F0002B7809021943042958D1E978AB780902B1
:106100001943914252D128460830FAF78DFD2B49A8
:106110000968411A4A780B7812021A436B461A80B2
:10612000CB788C781B021C436B465C804B790979D9
:106130001B0219436B46998008300390D008520720
:1061400000D0401C4443320AF0B2A12A11D3FE2AE7
:106150000FD8A1280DD3FE280BD8F0B2A138012901
:106160000ED0A13AD1B25E22C0B251430E18002E19
:106170000BDA0220D8806C4607CC07C705B0F0BD0B
:10618000A32AF6D12130C6B2F1E7281DFAF74CFD5B
:106190007443A04203D802206946C88009E0002168
:1061A0006846C18003982018029002E040680028E9
:1061B0009CD16B4607CBE0E7B400002068AC000040
:1061C000024610B50C48016811E00868437804786D
:1061D0001B022343032B09D1C37884781B0223437A
:1061E000934203D10830FAF71FFD10BD496800291A
:1061F000EBD1002010BD0000B4000020F8B54448E9
:10620000444900680968444C4618FBF79FF9074663
:106210002068002803D001460C2088470546002F3F
:106220001CD00020002D1BD0002108431AD0002FC5
:1062300008D06068002802D061683846884737A0D7
:10624000FEF74CFC002D08D06068002802D0014603
:106250002846884739A0FEF741FCF8BD0120E1E758
:106260000121E2E73C483D4900688B68301A08226A
:1062700029469847281DFAF7D7FC009000280BD034
:10628000002168782A780002104307D000221143C9
:10629000092805D3012004E00121F2E70122F6E7F5
:1062A000002001430098401C13D00020014312D06D
:1062B0006068002805D0014638468847616828464E
:1062C00088472748FBF70CFF014626A0FEF706FC8F
:1062D000F8BD0120EAE72946083608313046FAF7CA
:1062E000ADFC0098394686191D483D60FBF7FEFF5E
:1062F000281DFAF799FCE978AB780A021A43697805
:106300002B7809021943034621A0FEF7E7FB7CE73F
:1063100064AC000060AC000034AC000077526573E0
:106320004C6F61643A7265735F68656164206D6586
:106330006D6F7279206E756C6C0D0A007752657303
:106340004C6F61643A6E6F6465206D656D6F727934
:10635000206E756C6C0D0A0068AC000028AC000063
:10636000B40000207265736F757263652072656199
:10637000642073746F702C5265734C69737420635E
:106380006F756E742069733A2025640D0A00000051
:106390007265736F757263652074797065206973B7
:1063A0002025642C7265736F7572636520696420A3
:1063B00069732025642C7265736F75726365206440
:1063C0006174616C656E2069732025640D0A00009C
:1063D00010B501460148FFF7DDFD10BDA402002005
:1063E00000280AD04278037812021A43D2B2122A45
:1063F00005D8044B92009A58104703487047034849
:1064000070470000ECCC0000010001000100030017
:1064100030B400280BD0437804781B022343DBB24E
:10642000122B07D8044C9B00E35830BC1847034894
:1064300030BC70470248FBE770CB00000100010050
:106440000100030000280AD04278037812021A43A0
:10645000D2B2122A05D8044B92009A58104703482A
:10646000704703487047000054CC00000100010051
:106470000100030030B400280BD0437804781B02DD
:106480002343DBB2122B04D8034C9B00E35830BCEF
:10649000184730BC70470000D8CA000030B400284C
:1064A0000BD0437804781B022343DBB2122B04D8B1
:1064B000034C9B00E35830BC184730BC70470000C9
:1064C0005CC90000704700007CB51448046821E0F6
:1064D00025686878297800020843800419D5FFF7F9
:1064E00025FB6A782B7812021A4312060C4B920D88
:1064F00001469A58206890470A49884209D10320EA
:1065000069460880891C2068FAF798FB6846FFF7FF
:106510005FFF6468002CDBD17CBD0000C000002060
:106520008CCA000001000500F7B51A4C0F46002880
:106530000BD023300646FAF777FB002805D0717997
:10654000327900240902114306E02046FEBD025DB7
:10655000002A03D0641CA4B2A142F8D8491EA1426B
:1065600001DC0D48FEBD2546E7190EE07079317952
:1065700000020843401EA84209D93046FAF754FBEE
:1065800002992A1B895C41556D1CAF42EED8002050
:10659000FEBD00000100010007000300F7B51A4C22
:1065A0000F4600280BD022300646FAF73DFB0028A4
:1065B00005D07179327900240902114306E02046A2
:1065C000FEBD025D002A03D0641CA4B2A142F8D82B
:1065D000491EA14201DC0D48FEBD2546E7190EE02B
:1065E0007079317900020843401EA84209D930462B
:1065F000FAF71AFB02992A1B895C41556D1CAF42C0
:10660000EED80020FEBD00000100010007000300DD
:10661000F7B51B4C82B00F4600280CD006460A3056
:106620000090FAF701FB002805D0F17BB27B002433
:106630000902114307E0204605B0F0BD025D002AC3
:1066400003D0641CA4B2A142F8D8491EA14201DCC7
:106650000C48F1E72546E7190EE0F07BB17B00021C
:106660000843401EA84209D90098FAF7DDFA0499B8
:106670002A1B895C41556D1CAF42EED80020DBE738
:1066800001000100070003000048704706000300F6
:10669000F7B51B4C82B00F4600280CD006461430CC
:1066A0000090FAF7C1FA002805D0717E327E0024EE
:1066B0000902114307E0204605B0F0BD025D002A43
:1066C00003D0641CA4B2A142F8D8491EA14201DC47
:1066D0000C48F1E72546E7190EE0707E317E000296
:1066E0000843401EA84209D90098FAF79DFA049978
:1066F0002A1B895C41556D1CAF42EED80020DBE7B8
:106700000100010007000300F7B51C4C82B00E46E3
:1067100000280ED005461E300090FAF785FA0028B2
:1067200007D02F46223779783A780024090211439E
:1067300007E0204605B0F0BD025D002A03D0641CCE
:10674000A4B2A142F8D8491EA14201DC0C48F1E7ED
:106750002546A6190EE07878397800020843401ED5
:10676000A84209D90098FAF75FFA04992A1B895CB4
:1067700041556D1CAE42EED80020DBE70100010060
:1067800007000300F7B5214C82B00E4600280ED05A
:1067900005461E300090FAF747FA002807D02F462A
:1067A000223779783A7800240902114307E020461D
:1067B00005B0F0BD025D002A03D0641CA4B2A14262
:1067C000F8D8491EA14201DC1148F1E72546A61977
:1067D0000EE07878397800020843401EA84209D9B3
:1067E0000098FAF721FA04992A1B895C41556D1C1F
:1067F000AE42EED80098FAF717FA0021415521462B
:1068000004A0FEF76BF90020D2E7000001000100B0
:1068100007000300CCEDBCD3746578744C6F633D06
:1068200025640D0A00000000F3B500261F4C83B05C
:1068300000280CD023300090FAF7F6F9002806D093
:10684000009900244A790B791102194307E0204688
:1068500005B0F0BD025D002A03D0641CA4B2A142C1
:10686000F8D800252F461DE0049886421CD8AC427B
:1068700011D00098FAF7D8F9611B0191415C090623
:1068800009D5019947540098FAF7CEF90199491EA4
:106890004754AD1C05E00098FAF7C6F9611B475450
:1068A0006D1C761CA542DFD90020D1E70100010054
:1068B000F3B500261F4C83B000280CD02230009086
:1068C000FAF7B2F9002806D0009900244A790B792A
:1068D0001102194307E0204605B0F0BD025D002A11
:1068E00003D0641CA4B2A142F8D800252F461DE0B5
:1068F000049886421CD8AC4211D00098FAF794F95B
:10690000611B0191415C090609D501994754009822
:10691000FAF78AF90199491E4754AD1C05E0009821
:10692000FAF782F9611B47546D1C761CA542DFD92A
:106930000020D1E701000100F3B500261F4C83B011
:1069400000280CD005460A300090FAF76DF90028AF
:1069500005D0E97BAA7B00240902114307E0204609
:1069600005B0F0BD025D002A03D0641CA4B2A142B0
:10697000F8D800252F461DE0049886421CD8AC426A
:1069800011D00098FAF750F9611B0191415C09069A
:1069900009D5019947540098FAF746F90199491E1B
:1069A0004754AD1C05E00098FAF73EF9611B4754C7
:1069B0006D1C761CA542DFD90020D1E70100010043
:1069C0000048704706000300F3B500261F4C83B053
:1069D00000280CD0054614300090FAF725F900285D
:1069E00005D0697E2A7E00240902114307E0204673
:1069F00005B0F0BD025D002A03D0641CA4B2A14220
:106A0000F8D800252F461DE0049886421CD8AC42D9
:106A100011D00098FAF708F9611B0191415C090651
:106A200009D5019947540098FAF7FEF80199491ED3
:106A30004754AD1C05E00098FAF7F6F8611B47547F
:106A40006D1C761CA542DFD90020D1E701000100B2
:106A5000F3B50026204C83B000280DD005461E302B
:106A60000090FAF7E1F8002806D0223569782A78F4
:106A700000240902114307E0204605B0F0BD025D85
:106A8000002A03D0641CA4B2A142F8D800252F46E6
:106A90001DE0049886421CD8AC4211D00098FAF749
:106AA000C3F8611B0191415C090609D5019947545E
:106AB0000098FAF7B9F80199491E4754AD1C05E052
:106AC0000098FAF7B1F8611B47546D1C761CA5427B
:106AD000DFD90020D1E7000001000100F3B5002656
:106AE000204C83B000280DD005461E300090FAF7E8
:106AF0009BF8002806D0223569782A7800240902FC
:106B0000114307E0204605B0F0BD025D002A03D026
:106B1000641CA4B2A142F8D800252F461DE00498B9
:106B200086421CD8AC4211D00098FAF77DF8611B60
:106B30000191415C090609D5019947540098FAF77B
:106B400073F80199491E4754AD1C05E00098FAF707
:106B50006BF8611B47546D1C761CA542DFD90020E1
:106B6000D1E7000001000100002806D0C27D837D2E
:106B70001002184308800020704701487047000049
:106B8000010001000048704706000300002806D0FD
:106B9000C27D837D100218430880002070470148A1
:106BA0007047000001000100002806D0427D037DEF
:106BB0001002184308800020704701487047000009
:106BC00001000100002806D0C27D837D1002184319
:106BD0000880002070470148704700000100010054
:106BE00070B586B014460E4605463BE0100607D544
:106BF0006178641C002938D01006000C014303E0C2
:106C00001B48203A101881B2324603A8FFF764FAF5
:106C100003AB07CB6B4607C36846C08800281AD170
:106C200010461449144A096812688918884212D318
:106C300068460088C108400700D0491C68460F4BD1
:106C4000428802981B68C01A0D4BDB699847296877
:106C50004018801C04E069460988286849084018E3
:106C6000641C28602278002AC0D106B070BD0000E4
:106C7000A0A3000064AC000060AC000068AC0000A1
:106C8000C00A0000002804D020308078086000206E
:106C900070470148704700000100010010B50C4624
:106CA000002805D01E30F9F7BFFF2060002010BD7E
:106CB000004810BD0100010010B50C46002805D0A9
:106CC000801DF9F7B1FF2060002010BD004810BD05
:106CD00001000100004870470600030010B50C4693
:106CE000002805D01E30F9F79FFF2060002010BD5E
:106CF000004810BD01000100002803D0C07D0860DD
:106D0000002070470048704701000100002806D0AD
:106D1000C27D837D1002184308600020704701483F
:106D20007047000001000100002803D0C07B08600C
:106D3000002070470048704701000100002806D07D
:106D4000427F037F1002184308600020704701480B
:106D5000704700000100010070B515460E4600287E
:106D600012D0014620318A780446002A0DD0002234
:106D70008A7001F075FF20462930F9F755FF0200AF
:106D800002D029463046904770BD0122F0E700004E
:106D9000F7B586B000287DD041780278090211430A
:106DA000654A0446914275D1617BC51C661C032966
:106DB00004D002291ED001292BD0B1E0687C297CA7
:106DC00000020843697A2A7A09021143727A337AF7
:106DD00012021A4300920191029068792A79010205
:106DE000114370793279000210430B460246FEF7D8
:106DF00009FE95E0687C297C020268790A432B79B8
:106E0000010219437079337900021843FEF766FDD9
:106E100086E0687D297D000208434849C88068797A
:106E2000297903020B43687A297A0002084319186A
:106E3000207C3279091A491E89B28E467179377AD7
:106E400009021143727A1B1812023A438A18121A65
:106E5000521E08189BB23A499C46CF6892B280B243
:106E600073466146B8477079317900020843217C46
:106E700041186846C1806879297900020843217C5D
:106E80004118684601817079317900020843717AAE
:106E9000327A00E04DE0090211434018217C411A8A
:106EA000684641816879297900020843697A2A7A1B
:106EB000090211434018217C411A68468181687E8D
:106EC000297E000208431D49C880687D297D000293
:106ED00008431A498880E07BA27B0102114368467F
:106EE0000180214620314A78427100220271E27FFE
:106EF00082700978C17020462230F9F795FE04A906
:106F00000131F9F79BFE617B68468173687C2A7CBE
:106F1000010211436846C173090A017402F0DEF8E8
:106F200020462830F9F780FE020002D00899079821
:106F3000904709B0F0BD000006800000000000206E
:106F4000C00A000070B514460D46002807D00F3067
:106F5000F9F76AFE020002D021462846904770BD2C
:106F600070B514460D46002807D02330F9F75CFEB3
:106F7000020002D021462846904770BD70B50D46EC
:106F8000074914460978012909D1002807D03E3065
:106F9000F9F74AFE020002D021462846904770BD0C
:106FA00059AC0000704770B514460D46002807D054
:106FB0002330F9F739FE020002D0214628469047D7
:106FC00070BD0000F7B584B000287BD0C17D0446B9
:106FD00000290BD00021E175617B451CE01C0329D1
:106FE00006D0022933D0012946D096E00121F2E7EC
:106FF000E17D00291BD0417C037C0A02417A1A43BF
:107000000B02067A697A33432E7A090231430193DF
:1070100002920091417900790902014368792A7945
:10702000000210430B460246FEF7ECFC75E0697D5A
:107030002A7D09021143427A067A130233436A7A9F
:107040002E7A12023243019300920291E2E7E17D2F
:1070500000290ED0417C037C0A02417900790902A3
:1070600001431A4368792B7900021843FEF736FC76
:1070700053E0697D2B7DEFE7E27D2D49012A22D087
:10708000427B037B12021A43CA80A17B00291DD0D8
:1070900069792A79090211436A7A2B7A12021A4312
:1070A0005308C9188BB24179057909022943457AF9
:1070B000067A280230434508491989B2824228D904
:1070C000820827E032E06A7C2B7CDBE7437A067A91
:1070D000477900793F023843697A2A7A6F79090241
:1070E0001B022D79114333433F025E083D434A089A
:1070F0006F18C318760851087A1A8019691880B277
:107100008DB29B1B01469BB292B22846FEF706FD4C
:1071100003E092081846FEF783FB20461830F9F783
:1071200083FD020002D006990598904707B0F0BD94
:107130000000002070B514460D46002807D01A3014
:10714000F9F772FD020002D021462846904770BD33
:1071500070B514460D46002807D00F30F9F764FDCE
:10716000020002D021462846904770BD70B51446F3
:107170000D46002807D01C30F9F756FD020002D05A
:1071800021462846904770BD70B514460D4600282C
:1071900007D01830F9F748FD020002D021462846F2
:1071A000904770BD70B50D4609491446097801290C
:1071B0000DD108490968002909D0002807D01C30E2
:1071C000F9F732FD020002D021462846904770BDF3
:1071D00058AC0000BC00002070B514460D460028D5
:1071E00007D03530F9F720FD020002D021462846AD
:1071F000904770BD70B514460D46002807D0223068
:10720000F9F712FD020002D021462846904770BDD2
:1072100070B514460D46002807D02630F9F704FD56
:10722000020002D021462846904770BD70B5144632
:107230000D46002807D00D30F9F7F6FC020002D009
:1072400021462846904770BD70B514460D4600286B
:1072500007D02D30F9F7E8FC020002D0214628467D
:10726000904770BDF7B586B000287DD04178027890
:1072700009021143684A0446914275D1617B451C5D
:10728000E01C032904D002291ED001292BD0B8E02C
:10729000697D2B7D0A02417A1A430B02067A697ACC
:1072A00033432E7A090231430193029200914179CE
:1072B00000790902014368792A79000210430B46DC
:1072C0000246FEF79FFB9CE0697D2B7D0A02417917
:1072D0000079090201431A4368792B7900021843A7
:1072E000FEF7FCFA8DE0697E2A7E090211434B4AC3
:1072F0000646D180417900790B02717A0343327AD4
:10730000080210431918207C2A79091A491E89B2EB
:107310008E4669792F7A090211436A7A1B18120284
:107320003A438A18121A521E08189BB23C499C46CE
:10733000CF6892B280B273466146B847687F297FB2
:10734000000208433549C880687E297E0002084350
:10735000324988806879297900020843217C4118E4
:107360006846C180717900E054E032790802217CDE
:107370001043411868460181687929790002084361
:10738000697A2A7A090211434018217C411A684619
:107390004181717930790902727A0143337A10029E
:1073A00018430818217C411A68468181687F297F2B
:1073B000000208431949C880E07BA27B0102114307
:1073C00068460180214620314A78427100220271CC
:1073D000E27F82700978C17020462230F9F724FCE0
:1073E00004A90131F9F72AFC617B68468173687D45
:1073F0002A7D010211436846C173090A017401F034
:107400006DFE20462C30F9F70FFC020002D00899DF
:107410000798904709B0F0BD0680000000000020EA
:10742000C00A000070B514460D46002807D013307E
:10743000F9F7FAFB020002D021462846904770BDBA
:1074400070B514460D46002807D02730F9F7ECFB3D
:10745000020002D021462846904770BD70B50D4607
:10746000074914460978012909D1002807D042307C
:10747000F9F7DAFB020002D021462846904770BD9A
:1074800059AC0000704770B514460D46002807D06F
:107490002730F9F7C9FB020002D021462846904761
:1074A00070BD70B514460D46002807D01C30F9F7A2
:1074B000BBFB020002D021462846904770BD70B544
:1074C00014460D46002807D01E30F9F7ADFB020028
:1074D00002D021462846904770BD70B514460D462F
:1074E000002807D01330F9F79FFB020002D0214695
:1074F0002846904770BD70B514460D46002807D049
:107500002030F9F791FB020002D02146284690472F
:1075100070BD70B514460D46002807D01C30F9F731
:1075200083FB020002D021462846904770BD000030
:1075300070B50D4609491446097801290DD108494D
:107540000968002909D0002807D02030F9F76CFB22
:10755000020002D021462846904770BD58AC00007A
:10756000BC00002070B514460D46002807D0393005
:10757000F9F75AFB020002D021462846904770BD19
:1075800070B514460D46002807D02630F9F74CFB9D
:10759000020002D021462846904770BD70B51446BF
:1075A0000D46002807D02A30F9F73EFB020002D032
:1075B00021462846904770BD70B514460D460028F8
:1075C00007D01130F9F730FB020002D021462846DF
:1075D000904770BD002804D08175090AC17500204C
:1075E00070470148704700000100010000487047E3
:1075F00006000300002804D08175090AC175002027
:10760000704701487047000001000100002804D0C5
:107610000175090A41750020704701487047000054
:1076200001000100002804D08175090AC1750020FD
:10763000704701487047000001000100F7B5174C82
:107640000D46002808D023300646F9F7EDFA002849
:1076500002D00024274607E02046FEBD3046F9F759
:10766000E3FA0755641CA4B270793179000208432B
:10767000A042F3D800240DE070793179000208436C
:10768000401EA04208D93046F9F7CEFA0299095DAA
:107690000155641CAC42EFD30020FEBD0100010087
:1076A000F7B5174C0D46002808D022300646F9F7EA
:1076B000BBFA002802D00024274607E02046FEBD82
:1076C0003046F9F7B1FA0755641CA4B270793179E4
:1076D00000020843A042F3D800240DE0707931790C
:1076E00000020843401EA04208D93046F9F79CFA30
:1076F0000299095D0155641CAC42EFD30020FEBD28
:1077000001000100F7B5194D82B00E46002809D0DE
:1077100004460A300090F9F787FA002802D00025C5
:107720002F4608E0284605B0F0BD0098F9F77CFA2E
:1077300047556D1CADB2E07BA17B00020843A84217
:10774000F3D800250DE0E07BA17B00020843401E3A
:10775000A84208D90098F9F767FA0499495D41559C
:107760006D1CB542EFD30020DDE7000001000100F1
:107770000048704706000300F7B5194D82B00E4669
:10778000002809D0044614300090F9F74DFA00287B
:1077900002D000252F4608E0284605B0F0BD00982D
:1077A000F9F742FA47556D1CADB2607E217E0002AA
:1077B0000843A842F3D800250DE0607E217E000238
:1077C0000843401EA84208D90098F9F72DFA0499F9
:1077D000495D41556D1CB542EFD30020DDE7000047
:1077E00001000100F7B5194D82B00E4600280AD0FD
:1077F00004461E300090F9F717FA002803D0002540
:107800002F46223408E0284605B0F0BD0098F9F76D
:107810000BFA47556D1CADB2607821780002084321
:10782000A842F3D800250DE06078217800020843D3
:10783000401EA84208D90098F9F7F6F90499495D65
:1078400041556D1CB542EFD30020DDE7010001007A
:10785000F7B5194D82B00E4600280AD004461E30F6
:107860000090F9F7E1F9002803D000252F462234D3
:1078700008E0284605B0F0BD0098F9F7D5F947555E
:107880006D1CADB26078217800020843A842F3D89D
:1078900000250DE06078217800020843401EA842D0
:1078A00008D90098F9F7C0F90499495D41556D1C54
:1078B000B542EFD30020DDE701000100002807D02A
:1078C00020308170002900D0012181700020704794
:1078D000004870470100010010B50A46002806D094
:1078E00001461E311046F9F7A9F9002010BD0148E4
:1078F00010BD00000100010010B50A46002805D0A7
:10790000811D1046F9F79AF9002010BD004810BDFE
:1079100001000100004870470600030010B50A4648
:10792000002806D001461E311046F9F787F90020DD
:1079300010BD014810BD000001000100002806D064
:10794000C175002900D00121C17500207047014890
:107950007047000001000100002809D0FF226832B2
:10796000914200D311468175090AC1750020704704
:107970000048704701000100002805D0642900D3A9
:107980006421C17300207047004870470100010066
:10799000002807D0642900D364210177090A4177C0
:1079A00000207047004870470100010070B5144680
:1079B0000D46002807D00C30F9F736F9020002D046
:1079C00021462846904770BD704770B514460D4655
:1079D00000280BD0064602F0F1FA30464130F9F7A4
:1079E00023F9020002D021462846904770BD70B5A9
:1079F00014460D4600280BD0064601F031F93046FA
:107A00003130F9F711F9020002D02146284690479B
:107A100070BD000070B515460E46040012D04178C6
:107A2000027809021143084A91420BD120463030B6
:107A3000F9F7FAF8020002D029463046904720466E
:107A400001F04EFA70BD00000680000070B51446CB
:107A50000D46002807D01730F9F7E6F8020002D0EB
:107A600021462846904770BD70B514460D46002843
:107A70000BD0064601F076FC30462B30F9F7D4F8EF
:107A8000020002D021462846904770BD70B50446DA
:107A90000A48154600780E4601280DD1002C0BD05F
:107AA000204601F0B9FD20464630F9F7BDF8020046
:107AB00002D029463046904770BD000059AC000006
:107AC000704770B515460E4604000AD001F0E6FD79
:107AD00020462B30F9F7A8F8020002D0294630469C
:107AE000904770BDF7B584B000287BD0C17D0446B7
:107AF00000290BD00021E175617B451CE01C0329A6
:107B000006D0022933D0012946D096E00121F2E7C0
:107B1000E17D00291BD0417C037C0A02417A1A4393
:107B20000B02067A697A33432E7A090231430193B4
:107B300002920091417900790902014368792A791A
:107B4000000210430B460246FDF75CFF75E0697DBD
:107B50002A7D09021143427A067A130233436A7A74
:107B60002E7A12023243019300920291E2E7E17D04
:107B700000290ED0417C037C0A0241790079090278
:107B800001431A4368792B7900021843FDF7A6FEDA
:107B900053E0697D2B7DEFE7E27D2D49012A22D05C
:107BA000427B037B12021A43CA80A17B00291DD0AD
:107BB00069792A79090211436A7A2B7A12021A43E7
:107BC0005308C9188BB24179057909022943457ACE
:107BD000067A280230434508491989B2824228D9D9
:107BE000820827E032E06A7C2B7CDBE7437A067A66
:107BF000477900793F023843697A2A7A6F79090216
:107C00001B022D79114333433F025E083D434A086E
:107C10006F18C318760851087A1A8019691880B24B
:107C20008DB29B1B01469BB292B22846FDF776FFB0
:107C300003E092081846FDF7F3FD20462030F8F7E0
:107C4000F3FF020002D006990598904707B0F0BDF7
:107C50000000002070B514460D46002807D02230E1
:107C6000F8F7E2FF020002D021462846904770BD97
:107C700070B515460E4604000AD001F0B7FF204645
:107C80001730F8F7D1FF020002D02946304690475E
:107C900070BD70B515460E4604000AD001F0BAFF5B
:107CA00020462430F8F7C0FF020002D029463046B3
:107CB000904770BD70B515460E4604000AD002F01C
:107CC00039F820462030F8F7AFFF020002D02946ED
:107CD0003046904770BD000070B504460C4815460C
:107CE00000780E46012811D10A48006800280DD0FE
:107CF000002C0BD0204602F0DFF820462430F8F7A5
:107D000093FF020002D029463046904770BD000024
:107D100058AC0000BC00002070B514460D46002889
:107D200007D03D30F8F780FF020002D021462846F8
:107D3000904770BD70B515460E4604000AD002F09B
:107D400021FB20462E30F8F76FFF020002D02946B3
:107D50003046904770BD70B515460E4604000AD0F7
:107D600002F078FB20462E30F8F75EFF020002D0CA
:107D700029463046904770BDF8B50746F9F7E6FB4F
:107D8000060064D0334C352021688847050023D095
:107D90002069002804D003462922394628469847FE
:107DA000206800280AD02F462337787939790002D5
:107DB0000843216888473946F8F740FF28462330B2
:107DC0000746F8F731FF00280CD07879397900029E
:107DD00008431FD0002416E06068002837D0014611
:107DE000304607E06068002831D0014630468847B9
:107DF0006168284688472AE03846F8F715FF0021D1
:107E00000155641CA4B27879397900020843A04274
:107E1000F2D803E039460020F8F710FF294629314F
:107E20000020F8F70BFF29462D310020F8F706FF58
:107E3000294631310020F8F701FF3560FDF79AFE41
:107E4000002804D03146FAF751FA0020F8BD024864
:107E5000F8BD000034AC000001000100F8B5074691
:107E6000F9F774FB060064D0334C3420216888474E
:107E7000050023D02069002804D003462822394673
:107E800028469847206800280AD02F46223778795C
:107E9000397900020843216888473946F8F7CEFE51
:107EA000284622300746F8F7BFFE00280CD0787924
:107EB0003979000208431FD0002416E060680028CA
:107EC00037D00146304607E06068002831D00146CF
:107ED000304688476168284688472AE03846F8F7E0
:107EE000A3FE00210155641CA4B2787939790002FF
:107EF0000843A042F2D803E039460020F8F79EFE7E
:107F0000294628310020F8F799FE29462C31002017
:107F1000F8F794FE294630310020F8F78FFE3560DF
:107F2000FDF728FE002804D03146FAF7DFF90020DB
:107F3000F8BD0248F8BD000034AC000001000100AB
:107F4000F1B5F9F703FB194F06002CD0184D1B2093
:107F500029688847040020D02869002804D00346F7
:107F60000F2220460099984721460F310020F8F74C
:107F700065FE214613310020F8F760FE21461731D7
:107F80000020F8F75BFE3460FDF7F4FD00280AD00E
:107F90003146FAF7ABF90020F8BD6868002802D036
:107FA0000146304688473846F8BD00000100010010
:107FB00034AC0000F1B5F9F7C9FA194F06002CD01E
:107FC000184D2F2029688847040020D028690028F0
:107FD00004D00346232220460099984721462331A6
:107FE0000020F8F72BFE214627310020F8F726FE67
:107FF00021462B310020F8F721FE3460FDF7BAFD51
:1080000000280AD03146FAF771F90020F8BD6868F7
:10801000002802D00146304688473846F8BD0000A7
:108020000100010034AC0000F8B505463648007880
:10803000012801D03548F8BDF9F788FA070060D06B
:10804000334E4A2031688847040054D030690028F4
:1080500004D003464E222946204698470025A80012
:10806000011900202631F8F7E9FD6D1C042DF6DB1F
:108070000025617C681C814221DB601C0090A17A94
:10808000627A0802316810438847A900091926312D
:10809000F8F7D4FD8446002811D0F068002808D0F5
:1080A0000098F368417A007A0A0202430021604690
:1080B00098476800002100192230017541756D1C38
:1080C000042DD6DB21463E310020F8F7B7FD2146CE
:1080D00042310020F8F7B2FD214646310020F8F782
:1080E000ADFD3C60FDF746FD00280AD03946FAF7A1
:1080F000FDF80020F8BD7068002802D0014638461F
:1081000088470448F8BD000059AC00000100030096
:1081100034AC000001000100F1B5F9F717FA144F73
:10812000060022D0134C102021688847050016D085
:108130002069002804D00346082228460099984761
:1081400029460C310020F8F779FD3560FDF712FD66
:1081500000280AD03146FAF7C9F80020F8BD606857
:10816000002802D00146304688473846F8BD000056
:108170000100010034AC0000F1B582B0F9F7E6F976
:10818000204F06003BD0204D10202968884704006E
:1081900011D02869002804D00346102220460299F5
:1081A0009847E07BA17B0002084319D000252046B8
:1081B0000A3000900DE06868002820D00146304663
:1081C00088471CE00098F8F72FFD002141556D1CF1
:1081D000ADB2E07BA17B00020843A842F2D804E0E4
:1081E00021460A310020F8F729FD3460FDF7C2FC72
:1081F000002804D03146FAF779F80020FEBD384651
:10820000FEBD00000100010034AC000000487047D2
:1082100001000300F1B5F9F799F9194F06002CD0C8
:10822000184D2F2029688847040020D0286900288D
:1082300004D0034623222046009998472146233143
:108240000020F8F7FBFC214627310020F8F7F6FC68
:1082500021462B310020F8F7F1FC3460FDF78AFC51
:1082600000280AD03146FAF741F80020F8BD6868C6
:10827000002802D00146304688473846F8BD000045
:108280000100010034AC0000F1B5F9F75FF9194FB6
:1082900006002CD0184D242029688847040020D0DF
:1082A0002869002804D003461822204600999847E0
:1082B000214618310020F8F7C1FC21461C3100206E
:1082C000F8F7BCFC214620310020F8F7B7FC3460F9
:1082D000FDF750FC00280AD03146FAF707F80020D5
:1082E000F8BD6868002802D0014630468847384605
:1082F000F8BD00000100010034AC0000F1B5F9F751
:1083000025F91E4F060036D01D4D262029688847C6
:1083100004002AD02869002804D0034612222046EF
:108320000099984721461A310020F8F787FC21462A
:108330001E310020F8F782FC214612310020F8F7A8
:108340007DFC214616310020F8F778FC21462231C9
:108350000020F8F773FC3460FDF70CFC00280AD00D
:108360003146F9F7C3FF0020F8BD6868002802D045
:108370000146304688473846F8BD0000010001003C
:1083800034AC0000F1B5F9F7E1F8194F06002CD034
:10839000184D1B2029688847040020D02869002830
:1083A00004D003460F2220460099984721460F31FA
:1083B0000020F8F743FC214613310020F8F73EFC7B
:1083C000214617310020F8F739FC3460FDF7D2FB65
:1083D00000280AD03146F9F789FF0020F8BD686807
:1083E000002802D00146304688473846F8BD0000D4
:1083F0000100010034AC0000F1B5F9F7A7F8214FF6
:1084000006003CD0204D282029688847040030D041
:108410002869002804D0034618222046009998476E
:10842000002020766076A076E076E17DA27D0902CC
:108430001143FF226932914202D9A075000AE0750A
:1084400021461C310020F8F7F9FB2146203100209D
:10845000F8F7F4FB214624310020F8F7EFFB3460F5
:10846000FDF788FB00280AD03146F9F73FFF0020CE
:10847000F8BD6868002802D0014630468847384673
:10848000F8BD00000100010034AC0000F1B5F9F7BF
:108490005DF8194F06002CD0184D24202968884714
:1084A000040020D02869002804D003461822204662
:1084B00000999847214618310020F8F7BFFB214664
:1084C0001C310020F8F7BAFB214620310020F8F7D4
:1084D000B5FB3460FDF74EFB00280AD03146F9F7B2
:1084E00005FF0020F8BD6868002802D0014630462C
:1084F00088473846F8BD00000100010034AC000098
:10850000F8B5074634480078012801D03348F8BD53
:108510003348006800285CD0F9F718F8060058D0F6
:10852000304D282029688847040021D02869002878
:1085300004D003461A223946204698472046143074
:1085400007460090F8F770FBA076000AE076607EA0
:10855000217E00020843296888473946F8F76EFBF8
:10856000607E217E0002084316D000252F460CE0D5
:10857000686800282DD001463046884729E00098D9
:10858000F8F752FB47556D1CADB2607E217E0002AC
:108590000843A842F3D803E000200099F8F74EFB07
:1085A00021461C310020F8F749FB214620310020EC
:1085B000F8F744FB214624310020F8F73FFB3460F4
:1085C000FDF7D8FA002804D03146F9F78FFE0020D5
:1085D000F8BD0548F8BD000058AC000001000300DC
:1085E000BC00002034AC000001000100FEB50746CD
:1085F000F8F7ACFF060044D04F4D45202968884766
:1086000004002FD02869002804D003462C223946C4
:108610002046984720461E300090F8F705FB01469B
:108620002046213001900173090A4173286800280F
:108630000AD0204622304178027808022968104387
:1086400088470099F8F7FAFA0098F8F7EDFA002849
:108650000ED027462237787839780002084361D057
:10866000002515E06868002864D00146304607E020
:10867000686800285ED00146304688476968204611
:10868000884757E0F8F7D0FA002141556D1CADB28C
:108690007878397800020843A8420098F2D8F8F7B1
:1086A000C3FA79783A78090211434018002120383A
:1086B000C1770098F8F7B8FA01460198427B037B2E
:1086C00010021843081821462F31F8F7B7FAA1799C
:1086D000627908022146104323310874000A487465
:1086E000891D0020F8F7AAFA214635310020F8F755
:1086F000A5FA214639310020F8F7A0FA21463D318C
:108700000020F8F79BFA214641310020F8F796FA4D
:108710003460FDF72FFA00280CD03146F9F7E6FD5A
:108720000020FEBD00200099F8F788FA21462F317D
:108730000020CAE70148FEBD34AC00000100010082
:10874000F1B5F8F703FF234F060040D0224D322049
:1087500029688847040034D02869002804D00346DB
:108760001E22204600999847607F217F000208431F
:10877000642800D364202077000A60770020A07767
:108780002146E077203108704870891CF8F756FAC6
:10879000214626310020F8F751FA21462A310020DF
:1087A000F8F74CFA21462E310020F8F747FA3460EA
:1087B000FDF7E0F900280AD03146F9F797FD0020CF
:1087C000F8BD6868002802D0014630468847384620
:1087D000F8BD00000100010034AC0000F8B5074608
:1087E000F8F7B4FE06006ED0384D3220296888476D
:1087F00004002DD02869002804D0034624223946DD
:108800002046984720461E300090F8F70DFA214682
:1088100020310871000A48712868002809D0881C96
:108820004178027808022968104388470099F8F7D0
:1088300005FA0098F8F7F8F900280FD02046223002
:10884000417807460278080210431FD0002516E041
:108850006868002837D00146304607E0686800287D
:1088600031D00146304688476968204688472AE06B
:108870000098F8F7D9F9002141556D1CADB2787810
:10888000397800020843A842F2D803E0002000999A
:10889000F8F7D4F9214626310020F8F7CFF9214620
:1088A0002A310020F8F7CAF921462E310020F8F7C6
:1088B000C5F93460FDF75EF9002804D03146F9F7B8
:1088C00015FD0020F8BD0248F8BD000034AC0000E2
:1088D00001000100F1B5F8F739FE194F06002CD060
:1088E000184D192029688847040020D028690028DD
:1088F00004D003460D2220460099984721460D31A9
:108900000020F8F79BF9214611310020F8F796F97D
:10891000214615310020F8F791F93460FDF72AF966
:1089200000280AD03146F9F7E1FC0020F8BD68685C
:10893000002802D00146304688473846F8BD00007E
:108940000100010034AC000070B504462330064637
:10895000F8F76AF9094D002807D06968002900D0A6
:10896000884731460020F8F769F9E868002804D004
:108970000346352200212046984770BD34AC0000E4
:1089800070B5044622300646F8F74EF9094D002826
:1089900007D06968002900D0884731460020F8F7E1
:1089A0004DF9E868002804D003463422002120460F
:1089B000984770BD34AC00000449CA68002A03D04F
:1089C00013461B22002118477047000034AC0000FA
:1089D0000449CA68002A03D013462F2200211847F1
:1089E0007047000034AC000070B5254909780129B2
:1089F00044D1054626300646F8F716F9214C0028E2
:108A000003D06168002900D0884731460020F8F77C
:108A100015F928462A300646F8F706F9002803D04B
:108A20006168002900D0884731460020F8F706F930
:108A300028462E300646F8F7F7F8002803D061687C
:108A4000002900D0884731460020F8F7F7F828467B
:108A500032300646F8F7E8F8002803D061680029AC
:108A600000D0884731460020F8F7E8F8E068002891
:108A700004D003464A2200212846984770BD0000D2
:108A800059AC000034AC00000449CA68002A03D085
:108A900013461022002118477047000034AC000034
:108AA00070B504460A300646F8F7BEF8094D0028AE
:108AB00007D06968002900D0884731460020F8F7C0
:108AC000BDF8E868002804D00346102200212046A3
:108AD000984770BD34AC0000704700000449CA6874
:108AE000002A03D013462F220021184770470000A8
:108AF00034AC00000449CA68002A03D0134624227B
:108B0000002118477047000034AC00000449CA68CF
:108B1000002A03D013462622002118477047000080
:108B200034AC00000449CA68002A03D013461B2253
:108B3000002118477047000034AC0000002807D01F
:108B40000449CA68002A03D0134628220021184786
:108B50007047000034AC00000449CA68002A03D002
:108B600013462422002118477047000034AC00004F
:108B700070B51049097801291BD10F4909680029EE
:108B800017D0044614300646F8F74EF80B4D00286F
:108B900007D06968002900D0884731460020F8F7DF
:108BA0004DF8E868002804D003462822002120461A
:108BB000984770BD58AC0000BC00002034AC0000E9
:108BC00070B504461E300646F8F72EF8094D002809
:108BD00007D06968002900D0884731460020F8F79F
:108BE0002DF8E868002804D00346452200212046DD
:108BF000984770BD34AC00000449CA68002A03D00D
:108C000013463222002118477047000034AC0000A0
:108C100070B504461E300646F8F706F8094D0028E0
:108C200007D06968002900D0884731460020F8F74E
:108C300005F8E868002804D00346322200212046C7
:108C4000984770BD34AC00000449CA68002A03D0BC
:108C500013461922002118477047000034AC000069
:108C6000F0B589B000286ED001460446427BC61C90
:108C7000401C20310546032A04D0022A44D0012A90
:108C800057D0DDE0887801283BD0687D297D00023F
:108C90000843717A327A090211436A7A2B7A1202F6
:108CA0001A430092019102907079327901021143C6
:108CB00068792A79000210430B460246FCF7A2FEAF
:108CC00068792A79010211436846418270793279C4
:108CD00001021143684681826879297900020843BC
:108CE000697A2A7A0902114341186846C18270796B
:108CF000317900020843717A327A0902114341182E
:108D00009CE0707C317CC2E7887801280ED0687DB9
:108D1000297D020270790A43337901021943687987
:108D20002B7900021843FCF7D9FDC9E7707C317C30
:108D3000EFE70646687C317C00020843664900275D
:108D4000C880E51C21E0B4E068792A79010211436A
:108D5000687A2A7A000210430818C01B401E83B2AA
:108D60008C467079317900020843717A327A0902AF
:108D700011434118C91B491E8AB26146C919C0195D
:108D800089B280B2FCF7AAFE7F1C207CB842DBDCF3
:108D90002220005D01287DD0707E317E00020843D4
:108DA0004D49C8806879297903020B43687A297A8A
:108DB000000208431918207C3279091A491E89B229
:108DC0008E467179377A09021143727A1B181202A2
:108DD0003A438A18121A521E08189BB23F499C4601
:108DE000CF6892B280B273466146B84770793179E4
:108DF00000020843217C411868464182687929793C
:108E000000020843217C41186846818270793179DB
:108E100000020843717A327A090211434018217C1A
:108E2000411A6846C1826879297900020843697A43
:108E30002A7A090211434018217C411A68460183AD
:108E400025462035A878012838D0601C0146A27F2D
:108E5000607F120202432048C2804A7E0B7E1102CC
:108E600019438180E07BA27B010211436846818126
:108E700069784174E17F81732978C173204623307A
:108E8000F7F7D2FE07A90131F7F7D8FE617B6846F4
:108E9000817600E00FE0A87801281AD0A07D617DDE
:108EA000000208436946C876000A087703A800F064
:108EB00015F909B0F0BD687D297D6FE7E01C01461A
:108EC000227FE07E120202430348C2804A7D0B7D6E
:108ED000C5E7207DE17CE3E700000020C00A000038
:108EE000F0B587B0002834D04178027809021143E8
:108EF000774A044691422CD1617B451CE01C032932
:108F00000CD0022927D0012923D1687C297C0002BA
:108F1000084370490027C880E61C4CE0697D2B7D22
:108F20000A02417A1A430B02047A697A23432C7AA3
:108F300009022143019302920091417900790902CB
:108F4000014368792A79000210430B460246FCF778
:108F500059FD07B0F0BD697D2B7D0A02417900798A
:108F6000090201431A4368792B7900021843FCF780
:108F7000B5FCEEE77079327901021143707A327AEA
:108F8000000210430818C01B401E83B28C4668794B
:108F9000297900020843697A2A7A090211434118A3
:108FA000C91B491E8AB26146C919C01989B280B26B
:108FB000FCF794FD7F1C207CB842DBDC687E297EB8
:108FC000000208434349C880707932790102114395
:108FD000707A327A000210430A18207C6B79121AD8
:108FE000521E92B294462A791F0217436A7A2B7A4C
:108FF00012021A43BA18121A521E09183818364BA0
:1090000092B2DF6889B280B26346B847687F297F31
:10901000000208432F49C880687E297E0002084369
:109020002C4988806879297900020843217C4118FD
:109030006846C1807079317900020843217C41186B
:10904000684601816879297900020843697A2A7A99
:10905000090211434018217C411A68464181707908
:10906000317900020843717A327A090211434018BB
:10907000217C411A68468181687F297F000208436C
:109080001449C880E07BA27B01021143684601803D
:10909000214620314A78427100220271E27F8270BB
:1090A0000978C17020462230F7F7BEFD04A90131CE
:1090B000F7F7C4FD617B68468173687D2A7D0102F4
:1090C00011436846C173090A017400F007F840E7CC
:1090D0000680000000000020C00A0000F0B5044631
:1090E00011308DB00646F7F79FFD002811D060784B
:1090F000217802020A4382496846FCF7EDFF6B467D
:1091000007CB07C36846408A002804D07D480DB0CD
:10911000F0BD7D48FBE7002008903046F7F784FD5E
:109120006178227809021143024608A8FDF758FD2C
:10913000E07AA17A00020843E179A2790D02154391
:10914000401B401C81B2A078022802D0012805D023
:109150000BE00898814208D3081A04E0089881427D
:1091600003D3081A4008281885B20898F7F7F8FCC6
:10917000002900D0401C6946C989237B4143607B9C
:1091800002021A43607A237A00021843121A521C10
:1091900092B291420DD2E378022B02D0012B04D07F
:1091A00007E08018401A401E02E0511A4908401892
:1091B00080B20290227CE17B10020843FDF700F8A8
:1091C000002107915149524A096812688918814261
:1091D00001D9002004E04F490968401A079008307F
:1091E00006903046F7F720FD064671E0010607D5E8
:1091F0007778761C002F6ED00006000C074304E041
:109200003F492038491E401887B23D48401E8742DA
:1092100004D1684680894008401957E06078217879
:1092200002020A43394609A8FCF756FF09AB07CBEF
:1092300003AB07C36846408A002848D136497918ED
:109240005E29694689891AD849084A19E17AA37AB8
:10925000090219438A4201D9012100E000216A462E
:10926000D389029A277B9B18627B12023A4393426E
:1092700001D9012200E0002211432CD107E0E27A5B
:10928000A37A120249191A439142E7D9E4E76946E1
:109290008B89D9085A0700D0491C1E4A059F1268BD
:1092A000BA1A94466A461582029F57829382D389DE
:1092B000D382A27B032A10D0022A05D01748059B2F
:1092C000076A6046049AB8472818801C85B2761C45
:1092D000307800288AD1002019E706980028EDD0C0
:1092E000079B0246D8789B780002184300900192B1
:1092F0000A48059B476A6046049AB847E4E70000BD
:10930000A1A30000020002000100010064AC000003
:1093100060AC000068AC0000605CFFFFC00A0000A9
:109320003EB500281CD00146401C427B037B120244
:109330001A430B7BCC7A1B022343447A057A24021E
:109340002C430094019302920A7ACB7911021943BB
:1093500042790379100218430B460246FCF752FB90
:109360003EBD0000F0B589B000287DD00446427BA8
:10937000C11C401C032A04D0022A1FD0012A4ED04F
:10938000CFE0627D237D12021A434B7A0D460E7A9E
:1093900019023143437A0646077A180238436B466E
:1093A00007C368792A79010211437279337910026F
:1093B00018430B460246FCF725FB0FE0627D237D38
:1093C00012021A434B790D460E7919023143437943
:1093D0000646077918023843FCF780FA717930792C
:1093E000090201436846418268792A7901021143E2
:1093F00068468182717930790902727A0143337A41
:109400001002184309186846C18268792979000258
:109410006A7A08432B7A1102194341187FE0E07CF5
:10942000A17C0002084377490027661CC880E51C20
:1094300022E068792A7901021143687A2A7A0002C7
:1094400010430818C01B401E83B28C4670793179D6
:1094500000020843717A327A090211434118C91B8C
:10946000491E8AB2614600E0CAE0C919C01989B232
:1094700080B2FCF733FB7F1C607CB842D9DCE07D16
:10948000A17D000208435F49C88068792A790102FA
:109490001143687A2A7A000210430A18607C7379B3
:1094A000121A521E92B2944632791F021743727AF0
:1094B000337A12021A43BA18121A521E09183818AF
:1094C000514B92B2DF6889B280B26346B847707977
:1094D000317900020843617C41186846418268790D
:1094E000297900020843617C4118684681827079BD
:1094F000317900020843717A327A09021143401827
:10950000617C411A6846C182687929790002084362
:10951000697A2A7A090211434018617C411A684627
:1095200001833A482022C3680021394898472046E1
:10953000203081781F2901D91F21817020461E30DB
:10954000F7F772FB324D0246284632A1FAF756FF72
:10955000207F002828D02846F7F75FFB217FC0B284
:109560002E2281420BD2411AC9B22B18203BDB7F3D
:109570002B54401EC0B28842F7D86A5414E0491CEC
:10958000C9B23023002808D02E18203EF67F6E5432
:10959000491E401EC9B2C0B202E06B54491EC9B296
:1095A0000029EFD12B706A70617E207E0902014391
:1095B0001448C180E17DA27D090211438180217C94
:1095C000E07B0902014368468181617F417400218B
:1095D0000174A17E8173E17EC17307A901310C483A
:1095E000F7F72CFB617B68468176607D227D010266
:1095F00011436846C176090A017703A8FFF76EFD9B
:1096000009B0F0BD00000020C00A000034AC00002A
:10961000DA140020256400003EB51E4909780129AE
:109620000CD100280AD0427BC11C441C032A06D05E
:10963000022A20D0012A01D1F8F7ECFD3EBDC27EFE
:10964000807E12020243487A0B7A00021843637A42
:10965000257A1B022B4300930292019048790A79E4
:109660000102114360792279000210430B46024641
:10967000FCF7C8F93EBDC27E807E120202434879E3
:109680000B79010219436079237900021843FCF732
:1096900025F93EBD59AC000070470000F0B589B017
:1096A00000287DD00446427BC11C401C032A04D004
:1096B000022A23D0012A52D0D3E0627D237D1202F8
:1096C0001A434B7A0D460E7A19023143437A064605
:1096D000077A180238436B4607C368792A79010272
:1096E000114372793379100218430B460246FCF796
:1096F00089F9717930790902014313E0627D237D94
:1097000012021A434B790D460E79190231434379FF
:109710000646077918023843FCF7E0F87079327989
:10972000010211436846418268792A790102114396
:1097300068468182717930790902727A0143337AFD
:109740001002184309186846C18268792979000215
:109750006A7A08432B7A1102194341187FE0E07CB2
:10976000A17C000208436E490027661CC880E51CE6
:1097700022E068792A7901021143687A2A7A000284
:1097800010430818C01B401E83B28C467079317993
:1097900000020843717A327A09021143411800E04D
:1097A000ACE0C91B491E8AB26146C919C01989B209
:1097B00080B2FCF793F97F1C607CB842D9DCE07D75
:1097C000A17D000208435649C88068792A790102C0
:1097D0001143687A2A7A000210430A18607C737970
:1097E000121A521E92B2944632791F021743727AAD
:1097F000337A12021A43BA18121A521E091838186C
:10980000484B92B2DF6889B280B26346B84770793C
:10981000317900020843617C4118684641826879C9
:10982000297900020843617C411868468182707979
:10983000317900020843717A327A090211434018E3
:10984000617C411A6846C18268792979000208431F
:10985000697A2A7A090211434018617C411A6846E4
:10986000018331482022C3680021304898472046B0
:10987000203081781F2901D91F218170207F002588
:109880002A4E012802D1242030700125207F022891
:1098900036D020461E30F7F7C7F90246701924A1CA
:1098A000FAF7ACFD607E227E01021D481143C180A3
:1098B000E17DA27D090211438180217CE07B0902C8
:1098C000014368468181617F417400210174A17E5A
:1098D0008173E17EC17307A901311448F7F7AEF92E
:1098E000617B68468176607D227D01021143684676
:1098F000C176090A017703A8FFF7F0FB09B0F0BDB4
:109900003020705578206D1C705520461E306D1C1F
:10991000F7F78AF97319024606A11846C0E7000056
:1099200000000020C00A000034AC0000FA1400203F
:109930002564000025780000FEB500287ED0417B1C
:10994000451CC41C064603295ED0022977D0012994
:109950007CD1B07B002873D068792A790102114349
:10996000687A2A7A0002104342089446614489B218
:1099700001916279217912020A43617A237A0902FC
:1099800019434F08D21992B20092884200D8674614
:10999000617B227B0802104374493A46C8800099D3
:1099A0000198FBF73DFF697C2A7C080210436F4950
:1099B0003A46C88000990198FBF7D6FEF07D012851
:1099C00044D1687C297C000208436849C880B07B88
:1099D00000287DD06879297900020843697A2B7ABA
:1099E0000A021A4351084018617923790902194380
:1099F000637A247A1B0223435C08091980B289B276
:109A00009A4266D99A08ADE0F07D00281FD0607CAC
:109A1000217C02020A43607A217A00020843697AB3
:109A20002B7A090219430292009101906079227900
:109A30000102114368792A79000202E006E016E08B
:109A40002AE010430B460246FBF7DCFFFEBD687DB3
:109A50002A7D0102607A11430202237A687A1A434E
:109A60002B7A00021843019202910090DEE7F07D0C
:109A700000280ED0607C217C020260790A432379A1
:109A80000102194368792B7900021843FBF726FF7E
:109A9000FEBD687D297DEFE7607B217B00020843E6
:109AA0003249C8806079217907020F43607A217AB0
:109AB000000208433818401E83B2687929790002F1
:109AC0000843697A2A7A090211434118491E01E0C4
:109AD00023E046E08AB23946FCF720F8687C297C0E
:109AE000000208432149C8806079227901021143AC
:109AF000607A227A000210430818401E83B2687907
:109B00002A79000210436A7A2F7A12023A438218A5
:109B1000521E92B2FBF7E2FF50E7687A297A000200
:109B20000843617A227A090211434A08617923794C
:109B3000090219438B185408621E9A1893B26A7965
:109B40002D79120240082A4315184008461EAD1907
:109B50001018ADB2091989B280B22A46FBF7DEFFB0
:109B6000FEBD9208FBF75CFEFEBD00000000002079
:109B700010B5002825D0417BC31C441C022921D0EC
:109B800001291ED1C17B827B080216491043C8807F
:109B900058791A7901021143587A1A7A000210434F
:109BA0000818401E83B26079227900021043627A5D
:109BB000247A120222430C4C8218521EE46892B29C
:109BC000A04710BD417C007C0A02024358791B79F2
:109BD000010219436079237900021843FBF77EFEE6
:109BE00010BD000000000020C00A000010B50028D1
:109BF0000ED0817B431C0A02447B017AC0790902A2
:109C0000014358791B79000222431843FBF766FE93
:109C100010BD0000FEB500287ED0417BC51C441C51
:109C20000646032904D002291ED001292BD049E081
:109C3000F07BB17B00020843697A2A7A090211435A
:109C4000627A237A12021A43009201910290687993
:109C50002A790102114360792279000210430B46F0
:109C60000246FBF7CFFE2DE0F07BB17B0202687964
:109C70000A432B79010219436079237900021843C2
:109C8000FBF72CFE1EE0707C317C00020843274964
:109C9000C88068792A7901021143687A2A7A000219
:109CA00010430818401E83B26079227900021043E5
:109CB000627A277A12023A431D4F8218521EFF68B9
:109CC00092B2B847F07CB17C000208431749C880C3
:109CD0006079217900020843617A227A09021143EE
:109CE0004908401884B26879297900020843697AE2
:109CF0002A7A090211434908401885B2727D294623
:109D00002046FBF78DFD3046F8F7FEFFF07EB17E72
:109D100003020B43707E00E006E0317E02020A433C
:109D200029462046FBF71EFEFEBD00000000002075
:109D3000C00A0000F0B58FB000285AD0C17B04469D
:109D4000642900D36421E173A27B471CE51C0B92BC
:109D5000002A50D0687A2A7A0002104300904843C3
:109D60006421F6F7FDFE064678793979000208434A
:109D700069792A79090211437A7A3B7A12021A43E5
:109D8000431ED718BAB294468A1993B295B2BAB2A2
:109D90000892009F4A1E0790BA1892B20992627BFD
:109DA000012A4FD00B9AE77C002AA27C60D03F02A8
:109DB00017435A1A63461B1A9BB292B20093019240
:109DC000002302971A46FBF71DFE607C217C0002EF
:109DD00008430999079B491B089A89B2D21A92B283
:109DE0000092B3B201910290002229460798FBF736
:109DF00009FE0FB0F0BD787A3A7A00021043009065
:109E000048436421F6F7ACFE0646787939790002BA
:109E1000084369792A79090211438719BAB294462D
:109E20006A7A2B7A12021A434D1E5219964693B241
:109E3000BAB20792009F421EBA1892B208920D461B
:109E40007246AAE7E27DA67D12023243184E194FF0
:109E5000F280FE686246B047607D217D00020843C3
:109E6000134907AEC8800DCEFC682946A047C0E75D
:109E70003F0217435A1A63461B1A9BB292B20093D1
:109E80000192002302971A46FBF7BCFD607C217CFF
:109E9000000208430999079B491B089A89B2D21A04
:109EA00092B2009201910290B2B200239DE70000AD
:109EB00000000020C00A0000F0B53C4985B00978D8
:109EC000012970D13A4E3568002D6CD000286AD037
:109ED000417C0446027C080236491043C880204673
:109EE0001430F6F7A1FE0095E17E0246A07E0B023B
:109EF000034300210320FBF7F5F9064600200190FB
:109F0000601C0490A17A627A080210433146F6F789
:109F10003DFE0090019844E000253DE0284601996F
:109F2000704340180499019B4A79097912020A4347
:109F30000099594357186B461F81227AE179120222
:109F40000A430099694352185A810099491E7F18A3
:109F500051189F81D981C117490F0918CB10144A94
:109F6000C9081268C9009A18401A0721091A1278FC
:109F700001208840009B024203D05B43607C217C2F
:109F800002E0E07BA17B5B4302020B480A430769C6
:109F900003990298B8476D1CB542BFDB0198401C7D
:109FA0000190B042B8DB05B0F0BD000058AC000035
:109FB000BC00002000000020C00A0000F0B595B0F1
:109FC00004007DD0207CE17B02020A43E51CEA49C3
:109FD00009A8FCF781F809AB07CB10AB07C310A8A1
:109FE000C088002803D110A800884008029007A963
:109FF000607B0131661C0A91032804D002287CD0C2
:10A0000001287BD090E120462F300990F6F70CFE16
:10A01000074620461E301490F6F706FE01462046FD
:10A02000233011908F420CD0781E0999F6F706FE66
:10A03000707931790002084311990874000A487454
:10A040007BE02520005D02990190884201D90746F6
:10A0500000E00F46707A327A010211430E91119896
:10A060001390427C007C12020243881A80B20C9248
:10A070000B900299F6F774FD00280BD001990C980B
:10A08000401880B21399020A08744A74B84239D24F
:10A09000002339E0607D227D01021143687A2A7A2B
:10A0A00000021043029A0092029101907179327974
:10A0B00008020E99104341180B98081A82B200E06A
:10A0C00058E169792B790902194380B20B46FBF7F5
:10A0D00099FC717932790802139910430874000AC7
:10A0E00048741498F6F7A0FD214621314A7B0B7B7A
:10A0F000110219434018099901E02FE047E0F6F7F3
:10A100009DFD1AE0C01B83B2607D217D00020843E3
:10A11000697A2A7A090211430097019102906879BD
:10A120002A79010211437279377910023843C01835
:10A1300082B280B20B46FBF765FC0998F6F774FD16
:10A140000A99F6F77BFD707931790002084311997D
:10A150004A7C0B7C11021943411811E0607D217D7E
:10A16000020268790A432B79010219437079337925
:10A1700000021843FBF7B2FB7079327901021143F8
:10A180006846418268792A7901021143B4E0E07C93
:10A19000A17C0002084379490027C880661C20E0A2
:10A1A00068792A7901021143687A2A7A00021043F9
:10A1B0000818C01B401E83B28C46707931790002AA
:10A1C0000843717A327A090211434118C91B491EAA
:10A1D0008AB26146C919C01989B280B2FBF77EFC08
:10A1E0007F1C607CB842DBDCE07DA17D000208437F
:10A1F0006249C88068792A7901021143687A2A7A0B
:10A20000000210430A18607C7379121A521E92B22F
:10A21000944632791F021743727A337A12021A4334
:10A22000BA18121A521E09183818554B92B2DF6824
:10A2300089B280B26346B84720462F300090F6F7C7
:10A24000F3FC074620461E30F6F7EEFC0E908742E0
:10A250000DD0781E0099F6F7F1FC70793179000283
:10A260000843214623310874000A487429E0204637
:10A270002330417C0746027C08022521095D1043FA
:10A2800040183874010A7974717A327A09021143DC
:10A29000081A80B20299F6F763FC002811D1707990
:10A2A0003179000208433874000A7874214621315C
:10A2B0004A7B0B7B11020E98194340180099F6F760
:10A2C000BDFC0098F6F7B0FC0A99F6F7B7FC707978
:10A2D000317900020843214623314A7C0B7C11026C
:10A2E00019434018617C4118684641826879297990
:10A2F00000020843617C4118684681827079317997
:10A3000000020843717A327A090211434118684603
:10A31000C1826879297900020843697A2A7A090298
:10A320001143411868460183617E207E0902014382
:10A330001248C180E17DA27D090211438180687BC2
:10A340002A7B0102114368468181617F4174217F2C
:10A350000174A17E8173E17EC173617B8176607D32
:10A36000227D010211436846C176090A017703A8DC
:10A37000FEF7B4FE15B0F0BDA1A300000000002060
:10A38000C00A0000FEB505005DD06878297800029B
:10A3900008432D49884256D1A97B6C1CE81C022930
:10A3A00004D0032911D001292BD049E0617C237C02
:10A3B0000A0241790079090201431A43607923793D
:10A3C00000021843FBF78AFA3AE0617C237C0A0218
:10A3D000417A1A430B02067A617A3343267A0902DC
:10A3E00031430193029200914179007909020143BE
:10A3F00060792279000210430B460246FBF702FB0C
:10A400001EE0417B027B09021143104AD180417951
:10A41000027909021143427A037A1002184308189C
:10A42000401E83B26079227900021043627A247A56
:10A4300012022243064C8218521EE46892B2A047D0
:10A440002846F9F741F9FEBD0DC0000000000020CC
:10A45000C00A0000F0B589B000287DD00446427BD8
:10A46000C11C401C032A04D0022A1FD0012A4ED04E
:10A47000CFE0627D237D12021A434B7A0D460E7A9D
:10A4800019023143437A0646077A180238436B466D
:10A4900007C368792A79010211437279337910026E
:10A4A00018430B460246FBF7ADFA0FE0627D237DB1
:10A4B00012021A434B790D460E7919023143437942
:10A4C0000646077918023843FBF708FA71793079A4
:10A4D000090201436846418268792A7901021143E1
:10A4E00068468182717930790902727A0143337A40
:10A4F0001002184309186846C18268792979000258
:10A500006A7A08432B7A1102194341187FE0E07CF4
:10A51000A17C0002084357490027661CC880E51C3F
:10A5200022E068792A7901021143687A2A7A0002C6
:10A5300010430818C01B401E80B2844670793279DF
:10A5400000021043727A337A12021A438218D21B25
:10A55000521E92B2C91900E08AE0C01989B280B2D5
:10A560006346FBF7BBFA7F1C607CB842D9DCE07D18
:10A57000A17D000208433F49C88068792A79010219
:10A580001143687A2A7A000210430A18607C7379B2
:10A59000121A521E92B2944632791F021743727AEF
:10A5A000337A12021A43BA18121A521E09183818AE
:10A5B000314B92B2DF6889B280B26346B847707996
:10A5C000317900020843617C41186846418268790C
:10A5D000297900020843617C4118684681827079BC
:10A5E000317900020843717A327A09021143401826
:10A5F000617C411A6846C182687929790002084362
:10A60000697A2A7A090211434018617C411A684626
:10A610000183607E227E010216481143C180E17DE4
:10A62000A27D090211438180217CE07B0902014364
:10A6300068468181617F4174217F0174A17E8173AD
:10A64000E17EC17320461E30F6F7EEFA07A901310C
:10A65000F6F7F4FA617B68468176607D227D01021F
:10A6600011436846C176090A017703A8FEF736FD53
:10A6700009B0F0BD00000020C00A000010B50024A1
:10A6800000290AD0002A0AD001280BD002280CD0B9
:10A6900004280FD0094C204610BD094810BD0748BA
:10A6A000401C10BD10462D3101E010462931F6F74F
:10A6B000C5FAF0E710463131F9E700000200030067
:10A6C0000100010010B5002400290AD0002A0AD098
:10A6D00001280BD002280CD004280FD0094C2046AA
:10A6E00010BD094810BD0748401C10BD10462C3154
:10A6F00001E010462831F6F7A1FAF0E710463031B4
:10A70000F9E70000020003000100010010B5002479
:10A7100000290AD0002A0AD001280BD002280CD028
:10A7200004280FD0094C204610BD094810BD074829
:10A73000401C10BD1046133101E010460F31F6F7F2
:10A740007DFAF0E710461731F9E700000200030038
:10A750000100010010B5002400290AD0002A0AD007
:10A7600001280BD002280CD004280FD0094C204619
:10A7700010BD094810BD0748401C10BD10462731C8
:10A7800001E010462331F6F759FAF0E710462B3175
:10A79000F9E70000020003000100010010B50024E9
:10A7A00000290AD0002A0AD001280BD002280CD098
:10A7B00004280FD0094C204610BD094810BD074899
:10A7C000401C10BD1046423101E010463E31F6F704
:10A7D00035FAF0E710464631F9E7000002000300C1
:10A7E0000100010010B50024002906D0002A06D07F
:10A7F000032807D0064C204610BD064810BD04486B
:10A80000401C10BD10460C31F6F718FAF3E70000B3
:10A810000200030001000100002903D0002A03D038
:10A8200003487047034870470148401C70470000C8
:10A83000020003000100010000487047010003000E
:10A8400010B5002400290AD0002A0AD001280BD014
:10A8500002280CD004280FD0094C204610BD09480E
:10A8600010BD0748401C10BD1046273101E01046BE
:10A870002331F6F7E3F9F0E710462B31F9E7000052
:10A88000020003000100010010B5002400290AD0D5
:10A89000002A0AD001280BD002280CD004280FD09F
:10A8A000094C204610BD094810BD0748401C10BD8A
:10A8B00010461C3101E010461831F6F7BFF9F0E7F9
:10A8C00010462031F9E700000200030001000100FA
:10A8D00010B50024002909D0002A09D0042820D06E
:10A8E00008DC012817D0022809D117E00E4810BD56
:10A8F0000E4810BDFF38801E05D0012806D00B4C35
:10A90000641E204610BD1046123101E0104616317B
:10A91000F6F794F9F5E710461E31F9E710461A31BB
:10A92000F6E710462231F3E70100010003000300BF
:10A9300010B5002400290AD0002A0AD001280BD023
:10A9400002280CD004280FD0094C204610BD09481D
:10A9500010BD0748401C10BD1046133101E01046E1
:10A960000F31F6F76BF9F0E710461731F9E7000001
:10A97000020003000100010010B5002400290AD0E4
:10A98000002A0AD001280BD002280CD004280FD0AE
:10A99000094C204610BD094810BD0748401C10BD99
:10A9A0001046203101E010461C31F6F747F9F0E778
:10A9B00010462431F9E70000020003000100010005
:10A9C00010B5002400290AD0002A0AD001280BD093
:10A9D00002280CD004280FD0094C204610BD09488D
:10A9E00010BD0748401C10BD10461C3101E0104648
:10A9F0001831F6F723F9F0E710462031F9E70000A7
:10AA0000020003000100010010B5002400290AD053
:10AA1000002A0AD001280BD002280CD004280FD01D
:10AA2000094C204610BD094810BD0748401C10BD08
:10AA30001046203101E010461C31F6F7FFF8F0E730
:10AA400010462431F9E70000020003000100010074
:10AA500010B5002400290CD0002A0CD001280DD0FC
:10AA600002280ED0032814D004280FD00A4C204608
:10AA700010BD0A4810BD0848401C10BD10463931B1
:10AA800001E010463531F6F7D9F8F0E710463D31D0
:10AA9000F9E710464131F6E702000300010001002A
:10AAA00010B5002400290AD0002A0AD001280BD0B2
:10AAB00002280CD004280FD0094C204610BD0948AC
:10AAC00010BD0748401C10BD1046263101E010465D
:10AAD0002231F6F7B3F8F0E710462E31F9E700001F
:10AAE000020003000100010010B5002400290AD073
:10AAF000002A0AD001280BD002280CD004280FD03D
:10AB0000094C204610BD094810BD0748401C10BD27
:10AB100010462A3101E010462631F6F78FF8F0E7AB
:10AB200010462E31F9E70000020003000100010089
:10AB300010B5002400290AD0002A0AD001280BD021
:10AB400002280CD004280FD0094C204610BD09481B
:10AB500010BD0748401C10BD1046113101E01046E1
:10AB60000D31F6F76BF8F0E710461531F9E7000004
:10AB7000020003000100010070B50D46002813D04B
:10AB8000044608300646F6F74FF82946FAF7D4FF90
:10AB9000A179627909021143814207D831462846DA
:10ABA000F6F74CF8034870BD034870BD0148401CDF
:10ABB00070BD000001000500010001000048704761
:10ABC0000100030070B50D46002814D0044629305A
:10ABD0000646F6F729F82946FAF7AEFF22346179DE
:10ABE000227909021143814207D831462846F6F7F7
:10ABF00025F8034870BD034870BD0148401C70BD76
:10AC0000010005000100010001280000F9260000F4
:10AC1000C52700006B270000FD2600008F240000E0
:10AC20008524000021270000F505000091060000A2
:10AC300069070000A5440000414400007D55000064
:10AC4000090C0000B50B0000855200000000000058
:10AC500001000000000100000101000000000001EF
:10AC60000010000000001000008000000800FFFF3E
:10AC7000E0014001726F6C6C2E7465787400018085
:10AC800001000000000000E001400102000000009F
:10AC900000000000000000000000000000000000B4
:10ACA0000000000006800200001C002A0050005036
:10ACB0000003000000000001000000000000000090
:10ACC000000000000000000000000A00000000007A
:10ACD0000000000000000000068003000091002A30
:10ACE00000500050000300000000000100000000C0
:10ACF00000000000000000000000000000000A004A
:10AD000000000000000000000000000006800400B9
:10AD10000002012A00500050000300000000000162
:10AD20000000000000000000000000000000000023
:10AD300000000A0000000000000000000000000009
:10AD4000068005000073012A005000500003000037
:10AD500000000001000000000000000000000000F2
:10AD60000000000000000A000000000000000000D9
:10AD70000000000006800600001C00AB00500050E0
:10AD800000030000000000010000000000000000BF
:10AD9000000000000000000000000A0000000000A9
:10ADA000000000000000000006800700009100ABDA
:10ADB00000500050000300000000000100000000EF
:10ADC00000000000000000000000000000000A0079
:10ADD00000000000000000000000000006800800E5
:10ADE000000201AB00500050000300000000000111
:10ADF0000000000000000000000000000000000053
:10AE000000000A0000000000000000000000000038
:10AE100006800900007301AB0050005000030000E1
:10AE20000000000100000000000000000000000021
:10AE30000000000000000A00000000000000000008
:10AE400000000000018001100000000000E001404F
:10AE500001020000050000000000000000000000EA
:10AE600000000000000000000000028002100093BB
:10AE7000002400C60026000101020002FF000500B8
:10AE80000000FFFF000100000000000009000000BA
:10AE90000000000000000000000000000680031019
:10AEA000009600ED005400230001010001DCFF05C5
:10AEB0000005002000F7BDFFFF00000101010400B4
:10AEC000000006000000000000000000000000007C
:10AED00006800410009700BC002C0029000101002E
:10AEE00001DCFF050005002000F7BDFFFF000001A9
:10AEF000010104000000000000000000000000004C
:10AF0000000000000680051000E100BC002C0029B4
:10AF10000001010001DCFF050005002000F7BDFF76
:10AF2000FF00000101010400000006000000000015
:10AF3000000000000000000006800610002A01BC8E
:10AF4000002C00290001010001DCFF0500050020A4
:10AF500000F7BDFFFF000001010104000000060032
:10AF60000000000000000000000000000680071044
:10AF70000095008A002C00290001010001DCFF057A
:10AF80000005002000F7BDFFFF00000101010400E3
:10AF900000000600000000000000000000000000AB
:10AFA0000680081000E1008A002C00290001010041
:10AFB00001DCFF050005002000F7BDFFFF000001D8
:10AFC0000101040000000600000000000000000075
:10AFD0000000000006800910002A018A002C0029C8
:10AFE0000001010001DCFF050005002000F7BDFFA6
:10AFF000FF00000101010400000006000000000045
:10B00000000000000000000006800A1000950055B6
:10B01000002C00290001010001DCFF0500050020D3
:10B0200000F7BDFFFF000001010104000000060061
:10B0300000000000000000000000000006800B106F
:10B0400000E10055002C00290001010001DCFF0592
:10B050000005002000F7BDFFFF0000010101040012
:10B0600000000600000000000000000000000000DA
:10B0700006800C10002A0155002C00290001010057
:10B0800001DCFF050005002000F7BDFFFF00000107
:10B0900001010400000006000000000000000000A4
:10B0A0000000000006800D1000F900ED005A00239A
:10B0B0000001010001DCFF010002002000F7BDFFDC
:10B0C000FF00000101010400000006000000000074
:10B0D000000000000000000006800E10008C011926
:10B0E000014600200001010001DCFF0500050020F1
:10B0F00000F7BDFFFF000001010104000000060091
:10B10000000000000000000000000000018001209D
:10B110000000000000E001400102FF00020000000A
:10B12000000000000000000000000000000000001F
:10B130000000028002200093002400C600260003C5
:10B1400001000000FF00020000FF000000010000FD
:10B1500000000000090005000000000000000000E1
:10B1600000000000068003200000008B002600285D
:10B170000003010001DCFF030002002000F7BDFF17
:10B18000FF000001010104000000060000000000B3
:10B19000000000000000000006800420002C008B4E
:10B1A000002600280003010001DCFF03000200204C
:10B1B00000F7BDFFFF0000010101040000000600D0
:10B1C00000000000000000000000000006800520D4
:10B1D0000058008B002600280003010001DCFF035B
:10B1E0000002002000F7BDFFFF0000010101040084
:10B1F0000000060000000000000000000000000049
:10B20000068006200085008B002600280003010030
:10B2100001DCFF030002002000F7BDFFFF0000017A
:10B220000101040000000600000000000000000012
:10B23000000000000680072000B1008B00260028D7
:10B240000003010001DCFF030002002000F7BDFF46
:10B25000FF000001010104000000060000000000E2
:10B2600000000000000000000680082000DD008BC8
:10B27000002600280003010001DCFF03000200207B
:10B2800000F7BDFFFF0000010101040000000600FF
:10B2900000000000000000000000000006800920FF
:10B2A0000008018B002600280003010001DCFF03D9
:10B2B0000002002000F7BDFFFF00000101010400B3
:10B2C0000000060000000000000000000000000078
:10B2D00006800A200034018B0026002800030100AC
:10B2E00001DCFF030002002000F7BDFFFF000001AA
:10B2F0000101040000000600000000000000000042
:10B300000000000006800B200060018B0026002852
:10B310000003010001DCFF030002002000F7BDFF75
:10B32000FF00000101010400000006000000000011
:10B33000000000000000000006800C20008B018B44
:10B34000002600280003010001DCFF0300020020AA
:10B3500000F7BDFFFF00000101010400000006002E
:10B3600000000000000000000000000006800D202A
:10B3700000BA018B002600280003010001DCFF0356
:10B380000002002000F7BDFFFF00000101010400E2
:10B3900000000600000000000000000000000000A7
:10B3A00006800E20001400B90026002800030100CA
:10B3B00001DCFF030002002000F7BDFFFF000001D9
:10B3C0000101040000000600000000000000000071
:10B3D0000000000006800F20004100B90026002870
:10B3E0000003010001DCFF030002002000F7BDFFA5
:10B3F000FF00000101010400000006000000000041
:10B40000000000000000000006801020006D00B960
:10B41000002600280003010001DCFF0300020020D9
:10B4200000F7BDFFFF00000101010400000006005D
:10B430000000000000000000000000000680112055
:10B44000009B00B9002600280003010001DCFF0377
:10B450000002002000F7BDFFFF0000010101040011
:10B4600000000600000000000000000000000000D6
:10B470000680122000C800B9002600280003010041
:10B4800001DCFF030002002000F7BDFFFF00000108
:10B4900001010400000006000000000000000000A0
:10B4A000000000000680132000F400B900260028E8
:10B4B0000003010001DCFF030002002000F7BDFFD4
:10B4C000FF00000101010400000006000000000070
:10B4D000000000000000000006801420002201B9D6
:10B4E000002600280003010001DCFF030002002009
:10B4F00000F7BDFFFF00000101010400000006008D
:10B500000000000000000000000000000680152080
:10B51000004F01B9002600280003010001DCFF03F1
:10B520000002002000F7BDFFFF0000010101040040
:10B530000000060000000000000000000000000005
:10B5400006801620007B01B90026002800030100B8
:10B5500001DCFF030002002000F7BDFFFF00000137
:10B5600001010400000006000000000000000000CF
:10B57000000000000680172000A801B9003800284C
:10B580000003010001DCFF030002002000F7BDFF03
:10B59000FF0000010101040000000600000000009F
:10B5A000000000000000000006801820006001E894
:10B5B000002600280003010001DCFF030002002038
:10B5C00000F7BDFFFF0000010101040000000600BC
:10B5D00000000000000000000000000006801920AC
:10B5E000002C00E8002600280003010001DCFF0316
:10B5F0000002002000F7BDFFFF0000010101040070
:10B600000000060000000000000000000000000034
:10B6100006801A20005800E80026002800030100D8
:10B6200001DCFF030002002000F7BDFFFF00000166
:10B6300001010400000006000000000000000000FE
:10B640000000000006801B20008400E8002600287F
:10B650000003010001DCFF030002002000F7BDFF32
:10B66000FF000001010104000000060000000000CE
:10B67000000000000000000006801C2000B000E870
:10B68000002600280003010001DCFF030002002067
:10B6900000F7BDFFFF0000010101040000000600EB
:10B6A00000000000000000000000000006801D20D7
:10B6B00000DC00E8002600280003010001DCFF0395
:10B6C0000002002000F7BDFFFF000001010104009F
:10B6D0000000060000000000000000000000000064
:10B6E00006801E20000801E8002600280003010053
:10B6F00001DCFF030002002000F7BDFFFF00000196
:10B70000010104000000060000000000000000002D
:10B710000000000006801F20003401E800260028F9
:10B720000003010001DCFF030002002000F7BDFF61
:10B73000FF000001010104000000060000000000FD
:10B74000000000000000000006802020000000E84B
:10B75000002600280003010001DCFF030002002096
:10B7600000F7BDFFFF00000101010400000006001A
:10B770000000000000000000000000000680212002
:10B78000008C01E8002600280003010001DCFF0313
:10B790000002002000F7BDFFFF00000101010400CE
:10B7A0000000060000000000000000000000000093
:10B7B0000680222000B801E80026002800030100CE
:10B7C00001DCFF030002002000F7BDFFFF000001C5
:10B7D000010104000000060000000000000000005D
:10B7E00000000000068023200000001701800028D0
:10B7F0000003010001DCFF030002002000F7BDFF91
:10B80000FF0000010101040000000600000000002C
:10B8100000000000000000000680242000860017C1
:10B8200001D500280003010001DCFF030002002015
:10B8300000F7BDFFFF000001010104000000060049
:10B84000000000000000000000000000068025202D
:10B8500000600117015300280003010001DCFF0311
:10B860000002002000F7BDFFFF00000101010400FD
:10B8700000000600000000000000000000000000C2
:10B880000680262000BA01170126002800030100C7
:10B8900001DCFF030002002000F7BDFFFF000001F4
:10B8A000010104000000060000000000000000008C
:10B8B00000000000BBC6BAD3D4B6C9CFB0D7D4C637
:10B8C000BCE400D2BBC6ACB9C2B3C7CDF2D8F0C994
:10B8D000BD00C7BCB5D1BACED0EBD4B9D1EEC1F85A
:10B8E00000B4BAB7E7B2BBB6C8D3F1C3C5B9D80084
:10B8F000018001300000000000E001400102000072
:10B900000500000000000000000000000000000032
:10B91000000000000000028002300074003800F5D2
:10B920000023000301020000FF0005000000EFFFFC
:10B9300001010000020000000000050000000000FE
:10B94000000000000000000002800330007400735B
:10B9500000F50023000301020000FF0005000000C5
:10B96000EFFF0101000000000000140005000000CE
:10B97000000000000000000000000280043000749D
:10B9800000AA00F50023000301020000FF000500EB
:10B9900000F8000001010000000000001400050094
:10B9A00000000000000000000000000002800530E0
:10B9B000007400E300F50023000301020000FF0013
:10B9C000050000F81F000101000000000000140045
:10B9D00005000000000000000000000000000180E1
:10B9E00001400000000000E001400102FF000600ED
:10B9F0000000000000000000000000000000000047
:10BA000000000000028002400086001F0077002333
:10BA1000000301000000FF00060000FF00F8000125
:10BA20000000000000000A00070000000000000005
:10BA3000000000000000028003400010011F0041D0
:10BA40000023000301000000FF00060000FF00F8D3
:10BA500000010000000000000A00030000000000D8
:10BA6000000000000000000006800440002600F7EF
:10BA7000003E00240001000001DCFF05000500205D
:10BA800000F7BDFFFF0000010101010000000A00F6
:10BA900000000000000000000000000006800540DB
:10BAA000008A00F7003E00240001000001DCFF05D1
:10BAB0000005002000F7BDFFFF00000101010200AA
:10BAC00000000A000000000000000000000000006C
:10BAD0000680064000EB00F7003E00240001000055
:10BAE00001DCFF050005002000F7BDFFFF0000019D
:10BAF0000101030000000A00000000000000000037
:10BB00000000000006800740005501F7006B00248C
:10BB10000001000001DCFF050005002000F7BDFF6B
:10BB2000FF0000010101040000000A000000000005
:10BB3000000000000000000007800840007F00595E
:10BB400000DE000D0002003207000800F7BD00040F
:10BB50000000000000000000000000000780094015
:10BB6000007200A90001011F000100320700080057
:10BB7000F7BD00040000000000000000000000000D
:10BB8000018001500000000000E001400102FF00C0
:10BB900004000000000000000000000000000000A1
:10BBA0000000000000000480025000D900C00030F6
:10BBB00000160003FF000001DCFF0400FF00FFFF90
:10BBC000010100001D000000020000000000000054
:10BBD00000000000000580035000D500EB003A0093
:10BBE000160003FF000000DCFF0400FF00FFFF0160
:10BBF000010200660600000A0000000000000000CC
:10BC0000000000000B8004500027006E008A008AAC
:10BC100000030400FFFFFF000805F0000000000023
:10BC20000000000000000000000000000B80055034
:10BC30000031016E008A008A00030400FFFFFF004C
:10BC40000805F000000000000000000000000000F7
:10BC500000000000018001600000000000E00140E1
:10BC600001000000040000000000000000000000CF
:10BC700000000000000000000000088002600039A1
:10BC800000590076018E000900000000000000004D
:10BC9000000000000002800360009A008000AF00F6
:10BCA00020000101000000FF000600FFFF0000016E
:10BCB000010001200000001400000000000000004E
:10BCC0000000000000000006800460000301BA00CC
:10BCD00041001C0001000001DCFF05000500200000
:10BCE000F7BDFFFF00000101010300000005000097
:10BCF0000000000000000000000000068005600059
:10BD00005401BA0041001C0001000001DCFF0500E5
:10BD100005002000F7BDFFFF000001010102000047
:10BD2000000500000000000000000000000000010D
:10BD30008001700000000000E001400101FFFF00F1
:10BD400000000000000000000000000000000000F3
:10BD5000000000000008800270001100FF003600A3
:10BD60003B000B000000000000000000000000008D
:10BD700008800370008501FA00590045000A0000A0
:10BD800000000000000000000000000DC004700072
:10BD9000550002012D013200000200FF0C0002FFDD
:10BDA000000D00260028000F001E0000000000000B
:10BDB000000000000000000000000000000DC005B1
:10BDC0007000140013002200DD00010100FF0000DC
:10BDD00001FF000D002200140032001E00000000D0
:10BDE0000000000000000000000000000000000C47
:10BDF00080067000550013007A01DD00010001018A
:10BE00000400F878D600042020050000000000009F
:10BE10000000000A00000000000000000000000018
:10BE20000000000000000000000000000000000012
:10BE30000000000000000000000180018000000000
:10BE40000000E0014001011C63040000000000004C
:10BE500000000000000000000000000000000009D9
:10BE60008002800000000000340040010500000056
:10BE7000000000000000000000000980038000AC0A
:10BE80000100003400400105000000000000000037
:10BE900000000000001280048000B1003F00CE00CE
:10BEA000CE00001C63000000000000000030000015
:10BEB000000000000000000000000000000A8005F3
:10BEC000800034000F017701300000000000000006
:10BED0000000000000000280068000580058003E6C
:10BEE000001E000101000000FF0006001C630000AE
:10BEF00000010000050000000A000300000000002F
:10BF00000000000000000000028007800058009C34
:10BF1000003E001E000101000000FF0006001C633F
:10BF2000000000010000050000000A0006000000FB
:10BF3000000000000000000000000280088000589F
:10BF400000E0003E001E000101000000FF000600AE
:10BF50001C63000000010000050000000A0003004F
:10BF600000000000000000000000000010800980B8
:10BF7000005800100031011E0001010001DCFF002B
:10BF800000010020001C631C63FFFF010101002170
:10BF9000000000160000000000000000000000008B
:10BFA0000011800A800040005E00140014000100AF
:10BFB0001C63FFFF00000100010000000000000002
:10BFC000000000000011800B80004000A20014005F
:10BFD000140001011C63FFFF0000010001000000CC
:10BFE00000000000000000000011800C80004000F4
:10BFF000E6001400140001001C63FFFF00000100B4
:10C00000010000000000000000000000000000002F
:10C010001F1115111F7F415D5D5D417F0000000014
:10C020000000000000000000000000000000000010
:10C030000000000000000000000000000000000000
:10C04000000000000000000001001A0013001000B2
:10C050000D00090000000000000000011A13011A81
:10C0600010011A0D011A0900000000000000000074
:10C070000000000002002C0022001C00160010002E
:10C0800001120000000000012C22012C1C012C16C2
:10C09000012C100000000000000000000000000063
:10C0A0000300460037002C0022001A000116000091
:10C0B00000000001463701462C02231102230D0027
:10C0C0000000000000000000000000000400640008
:10C0D0005000400030002400011A00000000000160
:10C0E00064500232200232180419090000000000D6
:10C0F0000000000000000000050086006C005600F3
:10C100003E002E00011E000000000001866C02436C
:10C110002B02210F02210B00000000000002221060
:10C1200002220C000600AC0088006C004C003C00B1
:10C1300001220000000000025644042B1B042B13B4
:10C14000042B0F00000000000000000000000000B1
:10C150000700C4009C007C00580042000216260024
:10C1600000000002624E04311F02200E04270D0061
:10C17000000000000004210F01280E000800F2005A
:10C18000C2009A006E00560002182A000000000249
:10C190007961023C2604281204280E000000023DAA
:10C1A0002702291302290F0009002401E800B60024
:10C1B00084006400021A2E00000000029274033A08
:10C1C0002404241004240C000000023B2504251143
:10C1D00004250D0001020408102040801D3A74E877
:10C1E000CD8713264C982D5AB475EAC98F03060CD7
:10C1F000183060C09D274E9C254A94356AD4B57787
:10C20000EEC19F23468C050A142850A05DBA69D25E
:10C21000B96FDEA15FBE61C2992F5EBC65CA890F8E
:10C220001E3C78F0FDE7D3BB6BD6B17FFEE1DFA308
:10C230005BB671E2D9AF4386112244880D1A346887
:10C24000D0BD67CE811F3E7CF8EDC7933B76ECC531
:10C25000973366CC85172E5CB86DDAA94F9E2142C4
:10C2600084152A54A84D9A2952A455AA4992397284
:10C27000E4D5B773E6D1BF63C6913F7EFCE5D7B383
:10C280007BF6F1FFE3DBAB4B963162C495376EDC96
:10C29000A557AE4182193264C88D070E1C3870E074
:10C2A000DDA753A651A259B279F2F9EFC39B2B56E1
:10C2B000AC458A09122448903D7AF4F5F7F3FBEB7C
:10C2C000CB8B0B162C58B07DFAE9CF831B366CD87C
:10C2D000AD478E010000011902321AC603DF33EEAA
:10C2E0001B68C74B0464E00E348DEF811CC169F8F4
:10C2F000C8084C71058A652FE1240F2135938EDA29
:10C30000F01282451DB5C27D6A27F9B9C99A09782C
:10C310004DE472A606BF8B6266DD30FDE29825B360
:10C320001091228836D094CE8F96DBBDF1D2135C6B
:10C33000833846401E42B6A3C3487E6E6B3A2854EB
:10C34000FA85BA3DCA5E9B9F0A15792B4ED4E5AC9F
:10C3500073F3A7570770C0F78C80630D674ADEED53
:10C3600031C5FE18E3A5997726B8B47C114492D95B
:10C370002320892E373FD15B95BCCFCD908797B2D4
:10C38000DCFCBE61F256D3AB142A5D9E843C39536B
:10C39000476D41A21F2D43D8B77BA476C41749EC43
:10C3A0007F0C6FF66CA13B52299D55AAFB6086B1AC
:10C3B000BBCC3E5ACB595FB09CA9A0510BF516EBF4
:10C3C0007A752CD74FAED5E9E6E7ADE874D6F4EA36
:10C3D000A85058AF0A0000000C0000000E0000003A
:10C3E000090000000B0000000D0000000800000024
:10C3F000100000001000000080000000400000005D
:10C4000020000000100000000800000004000000F0
:10C41000020000000100000057E59295EE6615FB52
:10C42000432E3D7646405E202D4A98B06456646A9D
:10C430006882DACE8C4E08B73D5BCA25333A3AEDB6
:10C440008C7C05636978686B6D66A14C035BBF9358
:10C45000A9B6C2E1782B8BCE4E2BEF7BCED69318AC
:10C46000639627F3A388D7EA9E5EB86176AA4FBB8E
:10C470009894FCB305626099113C4F323DA31ABBFE
:10C48000CAB4DDE153EF9CA4D4D4BCBED2ABF7F266
:10C490005DE60E6DDD35C84A08AC6250DB86A069EA
:10C4A000A5E7E5798730D375FB7E9FB4A998C0E2F4
:10C4B000E4DA6F0075E85760E315AD7D9E0267B65C
:10C4C000761191C96F1CA535A115F58E0D6630E367
:10C4D0009991DA46A8DFC868E0EA6CB46EBEC393EF
:10C4E000CD1BE8C9152BF5572AC3D477F225097B54
:10C4F00029AD9198D81FB3B632306E56EF60DE7D0D
:10C500002AADE2C1E0829C25FBD8EE28C0B40A0621
:10C510006ABEF9A70443D18A8A20F27B591B78B9F5
:10C52000509C2645AB3C1CDE5034FEB9DCF16F4D0F
:10C53000925E1A156C13695E71C1568CA37D3A9E8A
:10C54000E5EFDA673846723DB781A70D623E813369
:10C55000C8B76210AC1FF6EA3C987300A79871F850
:10C56000EE6B123FDA2557D269B1784A79C475FB70
:10C5700071E91E789F2226E4E63BF35F31DAB0A42E
:10C5800014412D6F2751317671DEC1FAF2A8D929F5
:10C59000A4F7B11EEE1278993CC13B744FA1FC6226
:10C5A00080CD80A1F739A338EB6A351ABBAEE268BB
:10C5B000AA07AF23B57258292FA37D864814E83502
:10C5C000230FFA67DDE6191289E700033AF2DDBFAF
:10C5D0006E54E608BC6A60930F838B2265DF276583
:10C5E000D5C7EDFEC97BABA2C2753260BE073D79EF
:10C5F00047F64537A8BC59F3BF19487B09910EF798
:10C6000001EE2C4E8F3EE07E767244A334C2D99365
:10C61000CCA92582716649B5705E5870FDE0CA7379
:10C62000BB6359053671812C3A1087D8A9D32401F0
:10C6300004603CF14968EA08F9F577AE34199DE0E9
:10C640002BCADF13520FE419C482D3923C18FB5A51
:10C650002766F03DB23F2E7B7312DD6F87A0B6CD0B
:10C660006BCE5F9678B85B15F79C8CEEBF0B5EE3E4
:10C670005432A327226CE87D9DA1A409762ED163B4
:10C68000CBC12303D16FC3F2CBE12E0D20A07ED10D
:10C6900082A0F2D7F24B4D2ABD2071417C45E47255
:10C6A000EBAF7CAAD7E885CD743256BA32DCFB59A1
:10C6B000C02E567F7C13B8E997D7160E3B9125F212
:10C6C000CB86FE59BE5E3B417C7164E9EB79164C2A
:10C6D000566127F2C8DC6521EFFE7433B71AC957DB
:10C6E000D2DD71152E412D32EEB8F9E1663AD1DA7C
:10C6F0006DA51A5FB8C034F523FEEEAFAC4F7B19C1
:10C700007A2B786CD75080C9EB08993B651FC64CD3
:10C710001F9C6A786B9DA4D87074025BF8A324C92F
:10C72000CAE50690FE9B87D0AAD10C8B7F8EB6F906
:10C73000B1AEBE1C0A55EFB8657C98CE6017A33D1C
:10C740001BC4F7979ACACF143D0A52741AF7421BBA
:10C750003E6BFCB6C8B9EB37FBF2D2909AEDB08DC8
:10C76000C0F898F9CE55FD8E41A57D17181E7AF0B8
:10C77000D60681DA1D917F86CEF5751D293F9F8EE5
:10C78000E97D947B6B8C1A0C098DF3C5E2C5DB2D1A
:10C79000D365DB781CB57F0664F702CDC63973DB41
:10C7A000656DA0522526EE31A0D179560B7C1EB5C1
:10C7B0005419C2574166BEDC461BD110590721F0FF
:10C7C00041CA716247DFF876D65E007A251702E427
:10C7D0003A790769874EF376464CDF594832466FFF
:10C7E000C211D47EB523DD75EB0BE595937BD5287F
:10C7F0007306C8641AF6B6DA7FD724BA6E6A2D3388
:10C80000AF09079E9F3144775C7BB1CCBBFEC84E1D
:10C810008D95771A7F35A05DC7D41D18919CD09651
:10C82000DAD104D85B2FB8922F8CC3C37DF2EE3FD0
:10C83000636C8CE6F21FCC0BB2F3D99CD5E705767E
:10C84000DEB48888A2332E750DD751118BF7C5AB96
:10C850005FAD4189B2446F5F652948D6A9C55F07BE
:10C860002C9A4D6FEC28798F3F5750FDF07ED94DB3
:10C8700022E86A32A8524C92436AAB19845D2D6952
:10C88000F79FDF21E05D4D465AA020FE2B965465B0
:10C89000BECD85343CCAA5DCCB975D540F54FDADAD
:10C8A000A059E334C7615FE734B1297D89F1A6E17E
:10C8B0007602362052D7AFC62BEEEB1B65B87F034E
:10C8C0000508A3EE0D820000FD820000DD87000058
:10C8D000ED85000015820000B57F00005D7E000040
:10C8E0008D84000085830000417F0000D588000012
:10C8F000F9830000298000004187000019810000B1
:10C9000079810000797D00008982000001850000A6
:10C9100099960000719B000055A40000BD9F000087
:10C920009D96000065930000E18E0000359D00009B
:10C93000ED9B00002193000099960000159C0000DB
:10C940001996000085A300009996000099960000B2
:10C95000618C000039990000B99E0000C17A000086
:10C96000557C0000577D0000197D0000C37A00004F
:10C97000697A0000157A0000B57C0000717C000027
:10C980004D7A0000C17A0000937C00008D7A00008F
:10C99000357D0000C17A0000C17A0000EF79000007
:10C9A000E57A0000D97C0000A56F00003571000019
:10C9B00011720000D9710000A76F0000616F0000C4
:10C9C000916D00008971000051710000456F0000F9
:10C9D0002D7200006D7100007D6F0000F571000088
:10C9E000A56F0000A56F0000596D0000C56F000025
:10C9F000A571000085740000BF7400009D750000E3
:10CA000065750000877400004174000065720000C5
:10CA100013750000DB74000025740000B975000078
:10CA2000F77400005D7400008175000085740000DB
:10CA30008574000049720000A37400003175000085
:10CA4000D98A00000D8B0000118C0000C18B000002
:10CA5000DD8A0000D189000081890000598B000027
:10CA6000258B0000B9890000498C00003D8B000037
:10CA7000E9890000F98B0000898A0000A18A000082
:10CA800049890000F58A0000718B0000BDAB0000F1
:10CA9000BDAB0000BDAB0000C5AB0000BDAB0000EE
:10CAA000BDAB0000BDAB0000BDAB0000BDAB0000E6
:10CAB000BDAB0000BDAB0000BDAB0000BDAB0000D6
:10CAC000BDAB000079AB0000BDAB0000BDAB00000A
:10CAD000BDAB0000BDAB0000C9790000C979000002
:10CAE000C9790000CB790000C9790000C97900003C
:10CAF000C9790000C9790000C9790000C97900002E
:10CB0000C9790000C9790000C9790000C97900001D
:10CB1000AD790000C9790000C9790000C979000029
:10CB2000C979000039A80000D1A80000E9AA0000D6
:10CB300051AA000041A8000055A70000C5A60000AA
:10CB4000C1A9000031A900000DA7000031AB000011
:10CB500079A900009DA70000A1AA0000E5A7000098
:10CB600019A800007DA6000089A8000009AA0000FD
:10CB7000717700007177000051780000E5770000C0
:10CB80007177000071770000A176000071770000D6
:10CB900071770000717700007177000071770000F5
:10CBA0007177000071770000717700000577000051
:10CBB0003D760000717700007977000089660000FB
:10CBC000896600008567000009670000896600002B
:10CBD000896600009D650000896600008966000086
:10CBE0008966000089660000896600008966000089
:10CBF0008966000089660000116600002965000052
:10CC00008966000091660000C1690000C1690000EA
:10CC1000DD6A0000516A0000C1690000C1690000BE
:10CC2000B1680000C1690000C1690000C16900006D
:10CC3000C1690000C1690000C1690000C16900004C
:10CC4000C16900003969000029680000C16900005D
:10CC5000C9690000157900001579000015790000F8
:10CC6000157900001D790000D978000015790000C1
:10CC70007979000015790000157900001579000018
:10CC800059790000157900009179000015790000AC
:10CC9000F9780000BD7800003D79000015790000AA
:10CCA000D56C0000D56C0000D56C0000D56C000080
:10CCB000DD6C00009D6C0000D56C0000296D00004B
:10CCC000D56C0000D56C0000D56C00000D6D000027
:10CCD000D56C00003D6D0000D56C0000B96C000003
:10CCE000856C0000F96C0000D56C0000ED7500004B
:10CCF000ED75000025760000ED750000F57500006B
:10CD0000D5750000ED7500000D760000ED75000092
:10CD1000ED750000ED750000ED750000ED7500008B
:10CD2000ED750000ED750000ED750000ED7500007B
:10CD3000ED750000ED750000856B0000856B00004F
:10CD4000C56B0000856B00008D6B0000696B0000F7
:10CD5000856B0000A96B0000856B0000856B0000EF
:10CD6000856B0000856B0000856B0000856B000003
:10CD7000856B0000856B0000856B0000856B0000F3
:10CD8000856B0000000080BFE5F27FBFAED87FBF9B
:10CD900040A47FBFB7627FBFF7067FBF8D977EBF7E
:10CDA0007B147EBF4D847DBFE8D97CBFDA1B7CBF7E
:10CDB000234A7BBFC3647ABF477279BF956578BF4A
:10CDC000394577BFC21776BF14D074BF4A7B73BF93
:10CDD0004A0C72BF2E9070BF69006FBFFB5C6DBFC5
:10CDE000E3A56BBF23DB69BF470368BFC21766BFFC
:10CDF000931864BFBC0562BFC9E55FBF2DB25DBFBC
:10CE000076715BBF871659BF0BB556BF583954BFF3
:10CE100017B751BFA01A4FBF0D714CBF5EBA49BFC3
:10CE200007F046BF931844BF053441BFCD3B3EBF1A
:10CE3000083D3BBF0B2438BF810435BFDCD731BF71
:10CE40008D972EBF234A2BBF2BF627BF8A8E24BF78
:10CE5000CE1921BF849E1DBF910F1ABF107A16BF35
:10CE600073D712BFBB270FBFE86A0BBF87A707BFE7
:10CE70000AD703BF000000BFB537F8BE4E62F0BE50
:10CE8000B072E8BEF775E0BE075FD8BEFB3AD0BE11
:10CE9000D509C8BE92CBBFBE3480B7BEA01AAFBE04
:10CEA0000BB5A6BE3F359EBE74B595BE711B8DBE3B
:10CEB0006F8184BEA2B477BE666666BEBDE354BE13
:10CEC000136143BE33C431BE522720BE728A0EBEE8
:10CED000B5A6F9BD1904D6BDEA95B2BD4DF38EBD18
:10CEE000863856BD4DF30EBD295C8FBC0000008016
:10CEF000295C8F3C4DF30E3D8638563D4DF38E3DFB
:10CF0000EA95B23D1904D63DB5A6F93D728A0E3EAA
:10CF10005227203E33C4313E1361433EBDE3543EAD
:10CF20006666663EA2B4773E6F81843E711B8D3E7D
:10CF300074B5953E3F359E3E0BB5A63EA01AAF3E5A
:10CF40003480B73E92CBBF3ED509C83EFB3AD03EB7
:10CF5000075FD83EF775E03EB072E83E4E62F03EA5
:10CF6000B537F83E0000003F0AD7033F87A7073FC9
:10CF7000E86A0B3FBB270F3F73D7123F107A163F6B
:10CF8000910F1A3F849E1D3FCE19213F8A8E243F68
:10CF90002BF6273F234A2B3F8D972E3FDCD7313F7F
:10CFA0008104353F0B24383F083D3B3FCD3B3E3F9E
:10CFB0000534413F9318443F07F0463F5EBA493F6E
:10CFC0000D714C3FA01A4F3F17B7513F5839543F8E
:10CFD0000BB5563F8716593F76715B3F2DB25D3FCB
:10CFE000C9E55F3FBC05623F9318643FC217663FC7
:10CFF0004703683F23DB693FE3A56B3FFB5C6D3F65
:10D0000069006F3F2E90703F4A0C723F4A7B733F1E
:10D0100014D0743FC217763F3945773F9565783F06
:10D020004772793FC3647A3F234A7B3FDA1B7C3FD8
:10D03000E8D97C3F4D847D3F7B147E3F8D977E3FBA
:10D04000F7067F3FB7627F3F40A47F3FAED87F3F68
:10D05000E5F27F3F0000803FE5F27F3FAED87F3FA3
:10D0600040A47F3FB7627F3FF7067F3F8D977E3FAB
:10D070007B147E3F4D847D3FE8D97C3FDA1B7C3FAB
:10D08000234A7B3FC3647A3F4772793F9565783F77
:10D090003945773FC217763F14D0743F4A7B733FC0
:10D0A0004A0C723F2E90703F69006F3FFB5C6D3FF2
:10D0B000E3A56B3F23DB693F4703683FC217663F29
:10D0C0009318643FBC05623FC9E55F3F2DB25D3FE9
:10D0D00076715B3F8716593F0BB5563F5839543F21
:10D0E00017B7513FA01A4F3F0D714C3F5EBA493FF1
:10D0F00007F0463F9318443F0534413FCD3B3E3F48
:10D10000083D3B3F0B24383F8104353FDCD7313F9E
:10D110008D972E3F234A2B3F2BF6273F8A8E243FA5
:10D12000CE19213F849E1D3F910F1A3F107A163F62
:10D1300073D7123FBB270F3FE86A0B3F87A7073F14
:10D140000AD7033F0000003FB537F83E4E62F03E7D
:10D15000B072E83EF775E03E075FD83EFB3AD03E3E
:10D16000D509C83E92CBBF3E3480B73EA01AAF3E31
:10D170000BB5A63E3F359E3E74B5953E711B8D3E68
:10D180006F81843EA2B4773E6666663EBDE3543E40
:10D190001361433E33C4313E5227203E728A0E3E15
:10D1A000B5A6F93D1904D63DEA95B23D4DF38E3D45
:10D1B0008638563D4DF30E3D295C8F3C0000000043
:10D1C000295C8FBC4DF30EBD863856BD4DF38EBD28
:10D1D000EA95B2BD1904D6BDB5A6F9BD728A0EBED8
:10D1E000522720BE33C431BE136143BEBDE354BEDB
:10D1F000666666BEA2B477BE6F8184BE711B8DBEAB
:10D2000074B595BE3F359EBE0BB5A6BEA01AAFBE87
:10D210003480B7BE92CBBFBED509C8BEFB3AD0BEE4
:10D22000075FD8BEF775E0BEB072E8BE4E62F0BED2
:10D23000B537F8BE000000BF0AD703BF87A707BFF6
:10D24000E86A0BBFBB270FBF73D712BF107A16BF98
:10D25000910F1ABF849E1DBFCE1921BF8A8E24BF95
:10D260002BF627BF234A2BBF8D972EBFDCD731BFAC
:10D27000810435BF0B2438BF083D3BBFCD3B3EBFCB
:10D28000053441BF931844BF07F046BF5EBA49BF9B
:10D290000D714CBFA01A4FBF17B751BF583954BFBB
:10D2A0000BB556BF871659BF76715BBF2DB25DBFF8
:10D2B000C9E55FBFBC0562BF931864BFC21766BFF4
:10D2C000470368BF23DB69BFE3A56BBFFB5C6DBF92
:10D2D00069006FBF2E9070BF4A0C72BF4A7B73BF4C
:10D2E00014D074BFC21776BF394577BF956578BF34
:10D2F000477279BFC3647ABF234A7BBFDA1B7CBF06
:10D30000E8D97CBF4D847DBF7B147EBF8D977EBFE7
:10D31000F7067FBFB7627FBF40A47FBFAED87FBF95
:10D32000E5F27FBF00000080295C8F3C4DF30E3D8D
:10D330008638563D4DF38E3DEA95B23D1904D63DF3
:10D34000B5A6F93D728A0E3E5227203E33C4313EC7
:10D350001361433EBDE3543E6666663EA2B4773E2B
:10D360006F81843E711B8D3E74B5953E3F359E3E68
:10D370000BB5A63EA01AAF3E3480B73E92CBBF3E5F
:10D38000D509C83EFB3AD03E075FD83EF775E03E70
:10D39000B072E83E4E62F03EB537F83E0000003F06
:10D3A0000AD7033F87A7073FE86A0B3FBB270F3F1A
:10D3B00073D7123F107A163F910F1A3F849E1D3F7C
:10D3C000CE19213F8A8E243F2BF6273F234A2B3F3D
:10D3D0008D972E3FDCD7313F8104353F0B24383FFA
:10D3E000083D3B3FCD3B3E3F0534413F9318443F12
:10D3F00007F0463F5EBA493F0D714C3FA01A4F3FC0
:10D4000017B7513F5839543F0BB5563F8716593F10
:10D4100076715B3F2DB25D3FC9E55F3FBC05623F62
:10D420009318643FC217663F4703683F23DB693F99
:10D43000E3A56B3FFB5C6D3F69006F3F2E90703F33
:10D440004A0C723F4A7B733F14D0743FC217763F39
:10D450003945773F9565783F4772793FC3647A3F96
:10D46000234A7B3FDA1B7C3FE8D97C3F4D847D3FDC
:10D470007B147E3F8D977E3FF7067F3FB7627F3FED
:10D4800040A47F3FAED87F3FE5F27F3F0000803F62
:10D49000E5F27F3FAED87F3F40A47F3FB7627F3F3A
:10D4A000F7067F3F8D977E3F7B147E3F4D847D3F07
:10D4B000E8D97C3FDA1B7C3F234A7B3FC3647A3F39
:10D4C0004772793F9565783F3945773FC217763F78
:10D4D00014D0743F4A7B733F4A0C723F2E90703FCA
:10D4E00069006F3FFB5C6D3FE3A56B3F23DB693F4A
:10D4F0004703683FC217663F9318643FBC05623F0D
:10D50000C9E55F3F2DB25D3F76715B3F8716593F9E
:10D510000BB5563F5839543F17B7513FA01A4F3FEC
:10D520000D714C3F5EBA493F07F0463F9318443FA8
:10D530000534413FCD3B3E3F083D3B3F0B24383F48
:10D540008104353FDCD7313F8D972E3F234A2B3F57
:10D550002BF6273F8A8E243FCE19213F849E1D3F04
:10D56000910F1A3F107A163F73D7123FBB270F3F18
:10D57000E86A0B3F87A7073F0AD7033F0000003F39
:10D58000B537F83E4E62F03EB072E83EF775E03EC9
:10D59000075FD83EFB3AD03ED509C83E92CBBF3E8E
:10D5A0003480B73EA01AAF3E0BB5A63E3F359E3E37
:10D5B00074B5953E711B8D3E6F81843EA2B4773E5B
:10D5C0006666663EBDE3543E1361433E33C4313E5E
:10D5D0005227203E728A0E3EB5A6F93D1904D63D6B
:10D5E000EA95B23D4DF38E3D8638563D4DF30E3DE6
:10D5F000295C8F3C00000000295C8FBC4DF30EBD00
:10D60000863856BD4DF38EBDEA95B2BD1904D6BD20
:10D61000B5A6F9BD728A0EBE522720BE33C431BEF4
:10D62000136143BEBDE354BE666666BEA2B477BE58
:10D630006F8184BE711B8DBE74B595BE3F359EBE95
:10D640000BB5A6BEA01AAFBE3480B7BE92CBBFBE8C
:10D65000D509C8BEFB3AD0BE075FD8BEF775E0BE9D
:10D66000B072E8BE4E62F0BEB537F8BE000000BF33
:10D670000AD703BF87A707BFE86A0BBFBB270FBF47
:10D6800073D712BF107A16BF910F1ABF849E1DBFA9
:10D69000CE1921BF8A8E24BF2BF627BF234A2BBF6A
:10D6A0008D972EBFDCD731BF810435BF0B2438BF27
:10D6B000083D3BBFCD3B3EBF053441BF931844BF3F
:10D6C00007F046BF5EBA49BF0D714CBFA01A4FBFED
:10D6D00017B751BF583954BF0BB556BF871659BF3E
:10D6E00076715BBF2DB25DBFC9E55FBFBC0562BF90
:10D6F000931864BFC21766BF470368BF23DB69BFC7
:10D70000E3A56BBFFB5C6DBF69006FBF2E9070BF60
:10D710004A0C72BF4A7B73BF14D074BFC21776BF66
:10D72000394577BF956578BF477279BFC3647ABFC3
:10D73000234A7BBFDA1B7CBFE8D97CBF4D847DBF09
:10D740007B147EBF8D977EBFF7067FBFB7627FBF1A
:10D7500040A47FBFAED87FBFE5F27FBF000080BF8F
:10D76000E5F27FBFAED87FBF40A47FBFB7627FBF67
:10D77000F7067FBF8D977EBF7B147EBF4D847DBF34
:10D78000E8D97CBFDA1B7CBF234A7BBFC3647ABF66
:10D79000477279BF956578BF394577BFC21776BFA5
:10D7A00014D074BF4A7B73BF4A0C72BF2E9070BFF7
:10D7B00069006FBFFB5C6DBFE3A56BBF23DB69BF77
:10D7C000470368BFC21766BF931864BFBC0562BF3A
:10D7D000C9E55FBF2DB25DBF76715BBF871659BFCC
:10D7E0000BB556BF583954BF17B751BFA01A4FBF1A
:10D7F0000D714CBF5EBA49BF07F046BF931844BFD6
:10D80000053441BFCD3B3EBF083D3BBF0B2438BF75
:10D81000810435BFDCD731BF8D972EBF234A2BBF84
:10D820002BF627BF8A8E24BFCE1921BF849E1DBF31
:10D83000910F1ABF107A16BF73D712BFBB270FBF45
:10D84000E86A0BBF87A707BF0AD703BF000000BF66
:10D85000B537F8BE4E62F0BEB072E8BEF775E0BEF6
:10D86000075FD8BEFB3AD0BED509C8BE92CBBFBEBB
:10D870003480B7BEA01AAFBE0BB5A6BE3F359EBE64
:10D8800074B595BE711B8DBE6F8184BEA2B477BE88
:10D89000666666BEBDE354BE136143BE33C431BE8B
:10D8A000522720BE728A0EBEB5A6F9BD1904D6BD98
:10D8B000EA95B2BD4DF38EBD863856BD4DF30EBD13
:10D8C000295C8FBC2A2A2A2A2A2A2A2A2A2A2A2A90
:10D8D0002A2A2A2A2A2A2A2A2A2A2A2A2A2A2A2AA8
:10D8E0002A2A2A2A2A2A2A2A2A2A2A2A2A2A2A2A98
:10D8F0002A2A2A2A2A2A2A2A2A2A2A2A2A2A2A2A88
:10D900002A2A2A2A2A2A2A2A2A2A2A2A2A2A2A2A77
:10D910002A0D0A00454001E001021DF8337D3F3326
:10D92000793F0919CD004B0FD2006E0F5DD7A3B020
:10D93000BD906B03BEAEFE05FE3403A00A2C14009E
:10D940002001B8011C0003FF013402FFFF55BD0098
:10D95000BDFF4209321B05200CF4010100115130BA
:10D96000313233343536373839616263646566B3D2
:10D9700018C4B31FC47329C43336C43345C43355E4
:10D98000C47366C47378C4738CC473A2C473BAC4FA
:10D9900073D4C473F0C4730EC5732EC57350C573AE
:10D9A00074C5739AC573C2C573ECC57318C6734644
:10D9B000C67376C673A8C673DCC67312C7734AC72C
:10D9C0007384C773C0C773FEC7733EC8F380C800B3
:0400000500000AE904
:00000001FF
