:020000040000FA
:10000000787A0020B1000000B90000001D01000056
:1000100000000000000000000000000000000000E0
:100020000000000000000000000000004D0500007E
:100030000000000000000000A10300004F050000C8
:10004000C3000000C3000000C30000005105000011
:100050006505000035700000C3000000C30000000B
:10006000C3000000C3000000C3000000C300000084
:10007000C3000000C3000000C3000000C300000074
:10008000BD360000C3000000C3000000C300000034
:1000900000000000C3000000C3000000C300000017
:1000A0000000000000000000C3000000C3000000CA
:1000B0000448804704480047FEE7FEE7FEE7FEE706
:1000C000FEE7FEE7FD7D0000810D0000FFB5104951
:1000D000104A102313600B60401EFBD1FFBD704718
:1000E000FFB50B4B10240C4DC0C832042A601C60B5
:1000F000320C12042A601C603A042A601C603A0C1C
:1001000012042A601C60091FEED1FFBD704700BFBA
:1001100004000240080002400000024001A008F074
:10012000D3FDFEE7486172644661756C745F486197
:100130006E646C65720000001CB56A4610805180C8
:100140009080D18003480123C2880199009800F073
:1001500061F81CBD000000207CB51C466D4628805F
:10016000131A6980AA80661AEC8005485B1C761C0D
:10017000C28873430199009800F04CF87CBD0000E0
:1001800000000020FFB581B00D46144668465C4370
:10019000C1885B1EC81883B268468088194F521EFA
:1001A0008218FE6892B2B047B9682C2088470120B7
:1001B000154E800270604710B760154913484860BB
:1001C000A800400F07280BD0002C14D0102029883D
:1001D000090431607060641EAD1C002CF7D10AE088
:1001E0001920C0062D1800F071FB2146284600F0AA
:1001F00053FA00F0F1FB064904488860776005B0C7
:10020000F0BD00000448010000000240EFFF0000C4
:1002100080800240FFB581B06846154C1D46438979
:100220000289C188E6688088B047A1682C20884789
:100230000120104C800260604610A6600F480E4FEF
:10024000476003980104022D04D321602846FFF77C
:100250003DFF07E00020102202E021606260401CA8
:10026000A842FAD305488760666005B0F0BD00007B
:100270000448010000000240EFFF000080800240BF
:10028000FFB583B06A4601910090D18A558B148BDB
:100290004819401E83B2908A1B4F0219521EFE68F5
:1002A00092B2B047B9682C208847012117488902CB
:1002B000416041158160174A154951606A46508E68
:1002C00000218446168E14E06246019B52185A4360
:1002D000009B00205200D31808E0321852009A5AAE
:1002E00017040A4A176010275760401C8442F4D84C
:1002F000491C8D42E8D807490548886048150349DC
:10030000486007B0F0BD0000044801000000024052
:10031000EFFF000080800240F8B5194C0246E56806
:100320000B46A847A1682E2088470120154D4002A2
:10033000A860164914488860081568601020686035
:1003400000F026F86068804700F022F86068804777
:10035000C60AF60200F01CF860688047074600F005
:1003600017F86068804769156960084A0649516056
:10037000F10A800AC90240010143F80A0843F8BDA6
:1003800004480100000002400000FFFF008002401E
:10039000FF21024801318160416070470000024046
:1003A0007047000070B5032902D90120C04370BD19
:1003B000940702D00220C04370BD0124640344614D
:1003C0000367E4034460A4104460E40044605824DC
:1003D0001A4D4C4364190646194D40362660A260FA
:1003E000A5619A089B0700D0521CE261002222619D
:1003F0002264144A904204D19920C0016064802094
:100400000EE0114A904204D1BB20C001606460201C
:1004100006E00E4A904204D1FF20C00160644020F3
:1004200020640B4B012098610C4608340246A24020
:10043000884002431A62002070BD000000000540A1
:100440002404200000000140001001400020014071
:100450008003054070B5032902D90120C04370BD57
:10046000234C0026A34205D901265D08DB0702D0F4
:100470006D1C00E01D4601235B0343610567DB0340
:1004800043609B108360DB0043605823194C4B434F
:100490001C193301184E22609B1902464032A2609B
:1004A000A361E56100222261144A904204D1112027
:1004B00080026064E0200EE0114A904204D1552091
:1004C00000026064C02006E00E4A904204D177200A
:1004D00000026064A02020640B4B012098610C4650
:1004E00008340246A240884002431A62002070BDD0
:1004F000FF0100000000054000491000000001401D
:1005000000100140002001408003054030B5044642
:100510000020032901D9801E30BD0122D2050A4DD9
:1005200001238B40296A194202D1216DC90702D0EB
:10053000521EF7D201E0002A01DC0020C043012155
:100540004903A16130BD000080030540704770473A
:1005500010B503490020088200F02CFA10BD0000FD
:1005600000C000400249002008820248006800479D
:1005700000C8004030000020F0B50746204885B094
:10058000007D0E46002838D11E4C606821687843F3
:100590000918A06870430818A169009100F042FC96
:1005A00085B22069E16878430918606970430818CA
:1005B000009900F037FCFF2482B2E134601B86B260
:1005C0000F4BFF204130203B811A1E8289B2598394
:1005D000A54201D8824205D904220B4901A800F0A6
:1005E00035FC06E0814204D26846068141810298CA
:1005F000019001A9012009F093FA05B0F0BD0000B7
:100600005000002000220020D04801007047000068
:1006100070B5204CA079C00715D00AF09AFD608112
:10062000E088401C80B2E080022815D30025E580D8
:10063000A3880120002B0AD020892188002288422B
:100640000BD3411A0AE00AF07FFD2081E8E7A08081
:10065000208920806089608070BD091A502900DDE2
:10066000012261896688B14201D38E1B00E0761AAF
:10067000502E00DD521C002A01D0A58070BD5B1CED
:1006800020809AB26180A280042AF7D3FFF774FF1A
:1006900070BD000024000020F8B50C4600260121A2
:1006A0002D4FC906796002460321384600F040F913
:1006B0007D231B01294A03213846FFF773FE7D2065
:1006C000C000844202D9251A044600E00025032117
:1006D0002148FFF71BFF761C012E00D90026204879
:1006E0001E4F7043C2197D231B0103211A48FFF7D7
:1006F00059FE01201A49801B4843C719A0088000F1
:10070000A40701460090A40F3846FFF7E9FC002C2F
:100710000ED0009813494000C2190020102705E0B0
:100720004300D35A1B040B604F60401CA042F7D318
:10073000002D05D07D24E400A5420BD32D1BC6E778
:10074000054C03212046FFF7E1FE0120C006A06012
:100750000020F8BD2C46B9E70010014058120020D7
:10076000D407000000000240F3B51120224D81B0F3
:1007700040060E46A8606814686100201F4A0146C2
:100780001154401C0828FBDB28680124E4062043A0
:10079000286008221949284600F085F92868A043F6
:1007A00028602869C008C0002861154C20688008AE
:1007B00080002060E06880088000E060284600F04B
:1007C00002FA002706E0019839030918284600F0CC
:1007D000E4F97F1CB742F6D3206880088000401CF3
:1007E0002060E06880088000401CE0600120400339
:1007F000A86100036860FEBD0000014018000020F1
:1008000080100040F8B50D460646112128484906DB
:1008100014468160411441610021264B0A465A5416
:10082000491C0829FBDB224F3868F902084338606D
:1008300008222049384600F036F93868F902884322
:1008400038603869C008C00038611B4801688908F1
:1008500089000160C16889088900C160384600F0DC
:10086000B2F9E9B2B815471ABC4200D8A7B23B4664
:100870002A4631460E4800F009FABC4207D0F61964
:10088000ED19E41BFF270137BC42F0D8EEE70A4818
:10089000016889088900491C0160C16889088900CC
:1008A000491CC16041140248816141024160F8BDA8
:1008B00000000140180000208010004001B50098A1
:1008C00001E0401E00900028FBD108BD30B511208A
:1008D000144C4006A060601460610020124902467A
:1008E0000A54401C0828FBD30125ED066560082347
:1008F0000D4A03212046FFF7ADFD03212046FFF7F7
:1009000005FEA5602069C008C00020610748816B12
:10091000890889008163C16B89088900C16300204F
:1009200030BD0000001001407400002000100040A5
:10093000F0B5194C0746EB20154620700E460123F2
:1009400022463846FFF786FD31463846FFF7DEFD82
:100950001248826B03210A438263C26B0A43C2635B
:100960000F480169C908C900891C0161280C207061
:10097000280A6070A570FF20E0700020207160716F
:100980000623224631463846FFF764FD3146384695
:10099000FFF7BCFD0020F0BD7400002000100040F7
:1009A0000010014002490A6A1201FCD50861704733
:1009B0004030004002480168491C01607047000057
:1009C000E800002010B5002302E0C45CCC545B1C9E
:1009D0009342FAD310BD00000948826B03210A43F9
:1009E0008263C26B0A43C26306480169C908C90031
:1009F000891C016141148161090341600020704735
:100A000000100040001001400148006870470000DD
:100A1000E80000200246881A914200D2401E70472A
:100A2000F7B5002483B015460E46970815E004205C
:100A3000019080060090801002906946039800F0B3
:100A400080F80121039800F0A3F80128F9D0039859
:100A5000006CA100641C7050A4B2A742E7D8AD0797
:100A6000AD0F1DD00120000700908010029001956D
:100A70006946039800F065F80121039800F088F8B2
:100A80000128F9D00398006CA1007054012D02D9FF
:100A9000020A8B195A70022D02D9000C891988702C
:100AA000002006B0F0BDF7B5002483B01646054619
:100AB00097081BE00420019080060090002002901F
:100AC0006946284600F03DF80498A1004058286483
:100AD0002021284600F05CF80028F9D001212846A2
:100AE00000F056F80128F9D0641CA4B2A742E1D85E
:100AF000B607B60F22D001200007009000202F4635
:100B00000290403701966946284600F01AF8002006
:100B1000A10005E00B18049A401CD25C3A7080B228
:100B2000B042F7D32021284600F032F80028F9D04F
:100B30000121284600F02CF80128F9D0002006B049
:100B4000F0BD10B50268520102D501239B0600E0FA
:100B500000234A68026701248A6864079A4203688E
:100B60000BD109681B0104D511430522D20611439C
:100B700001E011430AE0016010BD09681B0102D5C4
:100B800011430122D2061143016001682143F2E7BB
:100B9000006D084000D00120704770B50E46044635
:100BA00000F098F820680125ED06284320603246C1
:100BB0002021204600F05AF82068A84320602046F3
:100BC00000F0BAF870BD1CB501216A4604461171E7
:100BD000117000F07FF8204600F010F86A4610719E
:100BE000204600F027F86A4610701179C320127869
:100BF0000140204600F082F81CBD000070B504469C
:100C000000680125ED0628432060094E052030705C
:100C1000012231462046FFF746FF04223146204696
:100C2000FFF7FEFE2068A8432060307870BD00000A
:100C30001000002070B5044600680125ED06284329
:100C40002060094E35203070012231462046FFF7E2
:100C50002AFF042231462046FFF7E2FE2068A8431F
:100C60002060307870BD00001000002000B5064BF9
:100C70001970110C5970110A9970DA700422194612
:100C8000FFF711FF00BD000010000020FFB581B08C
:100C90000F4604460120694616460870204600F0BB
:100CA00019F820680125ED0628432060324602210C
:100CB0002046FFF7DBFF39462046049AFFF7F3FE94
:100CC0002068A8432060204600F036F8049805B05C
:100CD000F0BD000030B5044600680125ED0628434C
:100CE000206005490620087001222046FFF7DBFE40
:100CF0002068A843206030BD10000020F0B51646E3
:100D00000F460446FFF7E6FF20680125ED0628435D
:100D10002060084801210170477086700146032257
:100D20002046FFF7C0FE2068A8432060204600F060
:100D300003F8F0BD100000203CB5054601206946CF
:100D400008717D24E40009E02846FFF757FF694653
:100D5000087121460094491E0091FCD16846007933
:100D6000C007F1D13CBD00003901000019030000AB
:100D700059010000150200008501000081020000F9
:100D80000348854600F006F80048004739AC0000EB
:100D9000787A0020064C0125064E05E0E36807CC72
:100DA0002B430C3C98471034B442F7D3FFF7ECFFC9
:100DB000D80D0000F80D000002E008C8121F08C19D
:100DC000002AFAD170477047002001E001C1121FCC
:100DD000002AFBD17047000074E9010000000020E8
:100DE000A0020000BC1500002CEA0100A0020020B7
:100DF000D8770000C80D000030B50B460146002032
:100E00002022012409E00D46D5409D4205D31D4610
:100E10009540491B2546954040191546521E002D08
:100E2000F1DC30BD70B500242546002801DA01242C
:100E30004042002901DA01254942FFF7DDFFAC42BB
:100E400000D04042002C00D0494270BD10B5441A79
:100E50000346944209D28318891803E0491E0C788E
:100E60005B1E1C70521EF9D210BD0C460443A40731
:100E700003D009E010C9121F10C3042AFAD203E0FC
:100E80000C781C70491C5B1C521EF9D210BDD2B2EA
:100E900001E00270401C491EFBD270470022F6E7B9
:100EA00010B513460A4604461946FFF7F0FF2046E0
:100EB00010BD421C0178401C0029FBD1801A7047EC
:100EC0000321001D401E037812021A43491EF9D562
:100ED00010467047034603220870000A491C521E40
:100EE000FAD518467047F8B502464A40D40F42007A
:100EF0004B0052085B089A4202D20246084611464D
:100F00004A0023D0C30D4A00DDB2120EAD1A202DC7
:100F100035DA49020126490AF6058A19002C00D063
:100F2000524220214F1B1146B9402A411018C20DD0
:100F30009A4221D0002C17D0012D08DCDA05801A46
:100F4000D20F8019D207DBB200F0A0FAF8BDDA05A3
:100F5000801A012340001B06C01880185A428018CE
:100F6000CA0F1043490007E04908C2071143DA05D8
:100F7000801A80194008801800F080FAF8BD6100DE
:100F80000122511A001BF7E70122D2075140AAE7BC
:100F90000122D2075040A6E7024670B54A40D30F5F
:100FA000DB0740002DD04A002AD0010E140E0002AB
:100FB00012020919400A520A8418E50104465443F2
:100FC000000A120A2E045043A4194219200CC543EA
:100FD000AA18120C0125AD03521C521912047F39B4
:100FE000240400D0521C104301D44000491EC2B258
:100FF0000C06C0092018401C4008802A02D003E0DB
:10100000002070BD40084000002900DA002018438D
:1010100070BD70B502464A40D50F40004A00ED074A
:1010200040085208002814D0002A12D0C40DD30D55
:1010300041020120C0055202490A520AE41A091865
:1010400012187D34914201D3641C00E04900002C49
:1010500001DA002070BD0023914201D3891A0343B5
:10106000400849000028F7D100290AD0914202D156
:101070000121C90705E0914201D2012101E00121CE
:10108000C943E005C018401900F0F8F970BD000030
:10109000F0B507460846584087B0C00F0490480096
:1010A0000E46590040084908BC1A884105D2384606
:1010B00031461E4617460B4602465800400810436C
:1010C0004CD0300D039040055900400D490D05905E
:1010D000401A0290402872DA18030121000B09051A
:1010E0000843019004980092002805D001995242CB
:1010F0000020884100920190029840210A1A01992B
:10110000009800F087F905460C466B4607CB00F0C7
:10111000A2F9C0197141039A0E0D0023D71756404A
:101120001A467A40164344D0049A002A2DD0029AD7
:10113000012A039A15DC1205C01A914101263605D1
:10114000001C7141D20F059ED207009301920296B6
:101150002A46234600F0E0F907B0F0BD3846314694
:10116000FAE71605224A0F46B218C01AB741012104
:101170000905001C4F4100187F411146181879419C
:10118000E20F10436D19644113E0E2076D08154347
:101190006408C2071443039A01261205C01A91413C
:1011A0003605001C7141CE07400830434908C0187D
:1011B00051412A46234600F0A2F9CDE7FFE7049803
:1011C00001224000C117121A00238B4104983146B6
:1011D000C417381AA141EEE730B40124E407634094
:1011E00030BC55E730B40124E407614030BC4FE720
:1011F0000000E0FF70B54B005B0803430BD04B00D1
:101200005C0D002633466542B341D417AD1AA341A5
:1012100002DB0020014670BD12053018514170BD3F
:10122000C217C10F504010B54018CA0796230021BD
:1012300000F02CF910BD10B500229623114600F0E5
:1012400025F910BD0EB5C217C10F5040CA0740188E
:101250000021054B0293019200910A460B4600F0D3
:101260005BF903B000BD0000330400000EB5054972
:101270000291002100910A460B46019100F04CF9C1
:1012800003B000BD33040000C20F4100400201233F
:10129000400ADB05D207090EC0187F2901DA0020B9
:1012A0007047962903DC9623591AC84001E0963905
:1012B0008840002AF4D04042704741004002012299
:1012C000400AD205090E80187F2901DA00207047F4
:1012D000962903DC9622511AC840704796398840F7
:1012E0007047000070B5CD0F4A0009030123090BB8
:1012F0001B0519430B4BED070024520D9A4201DAEE
:10130000002070BD074B34339A4203DC9A1A00F078
:1013100091F802E00449511888402C43F1D0404232
:1013200070BD0000FF030000CDFBFFFFC20FD2071E
:10133000400040080BD0C10D0723DB01C918400253
:101340000905400A1143C2084007114370470020B5
:1013500001467047CB0FDB07490010B5490802462C
:101360000A4307D00A0D07240903E401090B121BE5
:10137000002A01DC002010BDC900440F0C43C1004D
:10138000E018D205801800F079F810BD0122D207CC
:10139000002800DB101A002900DB511A8142704737
:1013A0000122D207002800DB101A002900DB511AA5
:1013B00088427047F0B51FB40646002082B005464B
:1013C0004024019100901BE0019922460F463046CF
:1013D00000F030F8049A059B801A994110D310460A
:1013E0001946224600F016F8361A8F410197224618
:1013F00001200021009F00F00DF838184D410090A9
:101400002046641E0028DFDC019B009829463246F6
:1014100007B0F0BD10B5202A04DB0146203A914008
:10142000002010BD914020239C1A0346E34019433D
:10143000904010BD10B5202A04DB0846203AD04069
:10144000002110BD0B46D340D0402024A21A914069
:101450000843194610BD10B5202A06DBCB170846F5
:10146000203A1041C1170B4306E00B461341D04010
:101470002024A21A91400843194610BD002904DA1D
:10148000401C490001D140084000704770B400245E
:10149000050C05D11024000402D1002921D011240B
:1014A000050E01D100020834050F01D10001241DF1
:1014B000850F01D18000A41C002801DB4000641CC2
:1014C000002908D020252E1B0D46F540A14000D054
:1014D00001212943084301061B1B000ADB1D02D51D
:1014E000002070BC7047DB05181880180029F8DA56
:1014F000401C4900F5D170BC40084000704710B551
:10150000002B08DA0024401C614192185B411A4309
:1015100001D14008400010BDF0B51FB482B00546AF
:101520000C0003D0084607F0F3FB02E007F0F0FBE5
:1015300020300246009021462846FFF76BFF049BAF
:10154000059A04460F4618431143084314D0184621
:1015500010431BD0009840210A1A18460599FFF73E
:1015600069FF05460E46009A05990498FFF752FF59
:10157000084305D0012004E02046394607B0F0BDFD
:101580000020C11705430E432C43374300990E98A2
:101590006305401A7905E40A00220C43FD0A0A306B
:1015A00002D500200146E9E70105101969410C9CAC
:1015B0000D9D00196941FFF7A2FFDFE770B58C1898
:1015C0000578401C6B075B0F01D10378401C2A1182
:1015D00006D10278401C03E006780E70401C491CBE
:1015E0005B1EF9D12B0705D40023521E0DD40B70BE
:1015F000491CFAE70378401CCB1A921C03E01D78C3
:101600000D70491C5B1C521EF9D5A142D8D3002095
:1016100070BD000070B5454808F044F843482630D6
:1016200008F040F841485A3008F03CF83F488E3006
:1016300008F038F83D48C23008F034F83B48F6303E
:1016400008F030F83A4808F02DF839482F3008F003
:1016500029F837485E3008F025F83548923008F010
:1016600021F8344808F01EF832487C3808F01AF89F
:101670003048483808F016F82E48243808F012F898
:101680002C48343008F00EF82A484F3008F00AF899
:1016900028486A3008F006F82648853008F002F835
:1016A0002448A03007F0FEFF2248BB3007F0FAFFC5
:1016B0002048D63007F0F6FF214C1FA20421204617
:1016C00007F0D2FF651C1FA20421284607F0CCFFBB
:1016D000261D1EA20421304607F0C6FF1D4A611ECA
:1016E000012008F0EDF91C4AA11C022008F0E8F9DD
:1016F0001A4AE11C022008F0E3F9194A21460120A8
:1017000008F0DEF9174A3146012008F0D9F9164AE7
:101710002946012008F0D4F9144AF11D032008F0ED
:10172000CFF913490020487170BD0000F650010048
:101730002052010062530100C4A3CABD0000000092
:101740000B200000B7E7CFF200000000B7E7C1A60A
:1017500000000000651D0000791700008D170000D3
:10176000A11700007D19000039180000151A0000AB
:10177000980000200020704710B50021024808F0B2
:101780009FFA002010BD00000E20000010B50021BF
:10179000024808F095FA002010BD00000D2000005E
:1017A00070B51F4C1F4DA078002806D001280FD01F
:1017B00002281ED003281AD126E00F21284608F05F
:1017C00021FA17492846083107F0D0FF012009E027
:1017D0001021284608F016FA11492846083107F06A
:1017E000C5FF0220A07021890FA007F06DFA00202C
:1017F00070BD1121284608F005FA0949284608312C
:1018000007F0B4FF0320EDE70E21284608F0FAF9AF
:1018100003492846083107F0A9FF0020E2E700004D
:1018200098000020102000004D6F64655049435F10
:1018300049443A25640D0A00F8B54A494A4807F078
:10184000B7FF48494848091D401C07F0B1FF454C07
:1018500001250C3CE06802260327002841D02179AD
:10186000002906D0012911D002291CD0032938D122
:1018700026E03D483021401D08F0C4F939493A4876
:10188000091F401D07F072FF257126E036483121FF
:10189000401D08F0B7F933493348091F401D07F0D0
:1018A00065FF267119E030483221401D08F0AAF981
:1018B0002C492D48091F401D07F058FF27710CE0E7
:1018C00029483321401D08F09DF926492648091F63
:1018D000401D07F04BFF00202071218923A007F055
:1018E000F3F9206900283BD01F482179001D002909
:1018F00006D001290FD0022918D0032930D120E0C9
:101900002C21064608F07EF916493046091F07F0DB
:101910002DFF257120E02D21054608F073F91149AE
:101920002846091F07F022FF267115E02E210546E3
:1019300008F068F90B492846091F07F017FF2771BF
:101940000AE02F21054608F05DF906492846091FDF
:1019500007F00CFF00202071218904A007F0B4F9E2
:101960000020F8BDA40000200D2000004D6F64652C
:101970005049435F49443A25640D0A0070B51F4C35
:101980001F4DE078002806D001280FD002281ED075
:1019900003281AD126E02921284608F033F91749EF
:1019A0002846083107F0E2FE012009E02A212846F6
:1019B00008F028F911492846083107F0D7FE02201F
:1019C000E07021890FA007F07FF9002070BD2B2166
:1019D000284608F017F909492846083107F0C6FEDD
:1019E0000320EDE72821284608F00CF90349284692
:1019F000083107F0BBFE0020E2E70000980000205D
:101A0000132000004D6F64655049435F49443A25F7
:101A1000640D0A0010B52D4C6079642806D00028AA
:101A200018D0A179002903D0401C02E00021A17147
:101A3000401E60710A21C0B2FFF7DEF920706170AC
:101A4000234A030007F07BF90A090B1B1D1F212302
:101A50002527290F0121A171E6E7552100E0562134
:101A6000104608F0CFF8617819480B00401E07F0C7
:101A700066F90A16181D1F21232527292B1B57211C
:101A8000EEE75821ECE75921EAE75A21E8E75B2124
:101A9000E6E75C21E4E75D21E2E75E21E0E74B2138
:101AA00000E04C2108F0AEF8002010BD4D21F9E710
:101AB0004E21F7E74F21F5E75021F3E75121F1E7F8
:101AC0005221EFE75321EDE75421EBE79800002086
:101AD0001520000070B5154B0D1A1A88541EA5422A
:101AE00002DD411E511809B2814200DA0146DC686C
:101AF000944204D20EA007F0DBFD002070BD164C0E
:101B00009D68A5602161E0602046002124300180AD
:101B1000418021884A43521E82805A884A43521E7D
:101B2000C28000F085F9012070BD00000000002097
:101B3000546865204C43442063616368652070727B
:101B40006F766964656420697320746F6F20736DAC
:101B5000616C6C0D0A00000048020020014630391B
:101B6000092901D8C8B2704701464139192902D85C
:101B70003738C0B2704720280FD024280FD025282E
:101B80000FD02A280FD02B280FD02D280FD02E2889
:101B90000FD02F280FD02C207047242070472520ED
:101BA000704726207047272070472820704729203B
:101BB00070472A2070472B20704700001CB500207A
:101BC0006946009088806A4601A90D4807F0DEFD4D
:101BD000009A002A12D06846808800280ED0002182
:101BE00004E0535C002B03D0491C89B28142F8D336
:101BF000002903D00248801E07F036FD00201CBDDE
:101C0000038000001CB500206946009088806A4669
:101C100001A90D4807F0BAFD009A002A12D06846C3
:101C2000808800280ED0002104E0535C002B03D0F4
:101C3000491C89B28142F8D3002903D00248C01E52
:101C400007F012FD00201CBD048000001CB5002020
:101C50006946009088806A4601A90D4807F096FD04
:101C6000009A002A12D06846808800280ED00021F1
:101C700004E0535C002B03D0491C89B28142F8D3A5
:101C8000002903D00248001F07F0EEFC00201CBD15
:101C90000580000010B50E4807F004FD0C48263002
:101CA00007F000FD0A48553007F0FCFC094A0A49D4
:101CB000032007F005FF0849084A491E012007F0E4
:101CC000FFFE0748012101704170002010BD000097
:101CD000FE5E0100E91C000063120000F51D00001B
:101CE000E40000200020704770B5164C164D617856
:101CF000284607F077FF60780026401CC0B260706D
:101D0000172800D366702078002806D0012806D056
:101D100002280FD0032806D10EE07E2100E07F21AB
:101D2000284607F06FFF2078401CC0B220700428BE
:101D300004D004E08021F3E78121F1E72670002040
:101D400070BD0000E40000206212000010B5034ADC
:101D50000349012007F030FE002010BDA9620000F9
:101D60003564000010B5034A0349012007F024FE42
:101D7000002010BDA96200003564000010B5034AC0
:101D80000349012007F018FE002010BDA9620000E1
:101D90003564000010B5034A0349012007F00CFE2A
:101DA000002010BDA96200003564000010B5034A90
:101DB0000349012007F000FE002010BDA9620000C9
:101DC0003564000010B5034A0349012007F0F4FD13
:101DD000002010BDA96200003564000010B5034A60
:101DE0000349012007F0E8FD002010BDA9620000B2
:101DF0003564000010B5034A0349012007F0DCFDFB
:101E0000002010BDA96200003564000010B54943F0
:101E1000541A0368914202DB0021016010BD5B1C73
:101E200019465943A142FADB5B1E036010BD000056
:101E300010B5084C2169E0680A1A07480021C368F8
:101E4000521CA068984705496161880CE161A06156
:101E500010BD0000480200203448010001C0FFFF0F
:101E6000F8B5060016D00C4D34680EE02068002846
:101E700003D06968002900D088476868676800282F
:101E800002D00146204688473C46002CEED1002077
:101E900030607060F8BD000034480100F8B50020E3
:101EA00003460090D548C1692CE00022081F8646F1
:101EB00025E035251C4601206C438446D04D501C3E
:101EC0006519112411E0AE5C264201D1012700E022
:101ED00000272E5C264201D1012600E00026B742F1
:101EE00005D16646761CB446401C8842EBDB624650
:101EF000052A03DB009CA218921E0092024672453E
:101F0000D7DB5B1C8B42D0DB00222EE00024081FB5
:101F1000844627E0601C35256C43B94D01236419C4
:101F2000A646112415E07546AD5C254201D1012776
:101F300000E00027352605467543B14EAD19AD5C6E
:101F4000254201D1012500E00025AF4203D1401C0C
:101F50005B1C8842E7DB052B03DB009CE3189B1E20
:101F6000009304466445D5DB521C8A42CEDB002434
:101F70004B1E36E0002031E0352225465543A04A6D
:101F8000AE18355C112215402FD000273618B44604
:101F90002036B646767D164201D1012600E00026A5
:101FA000B7421AD1002D22D0002667467F7817420B
:101FB00001D1012700E00027BE420ED1002D18D02C
:101FC00000267546AD7D154201D1012200E00022B8
:101FD000964202D1009AD21C0092401C9842CBDB60
:101FE000641C9C42C6DB002267E00127CEE7012685
:101FF000DBE70126E5E700208D1F5BE0002809D024
:1020000035237F4C53431B191B18203BDC7F1123C6
:102010001C424ED1352314465C43794BE418265CB0
:1020200011231E4245D0241866781E4241D1A6785D
:102030001E423ED0E6781E423BD026791E4238D062
:1020400066791E4235D1A6791E4232D0CE1FB042EB
:1020500002D0E6791E422CD1022804DB2646203E1F
:10206000B67F1E420DD1032804DB2646203E767F34
:102070001E4206D1042819DB2646203E367F1E422A
:1020800014D00E46083EB04202DA267A1E4210D123
:102090000E46093EB04202DA667A1E4209D10E4669
:1020A0000A3EB04202DAA47A1C4202D1009B2833D5
:1020B0000093401CA842A1DB521C8A429BDB0022F9
:1020C00072E000208C1F6CE0002809D035234C4DB5
:1020D00043435B199B18403BDD7A11231D425FD1BE
:1020E000352305465D43464BEB189E5C11252E4279
:1020F00056D09B183526F65C2E4251D16A26F65CE6
:102100002E424DD09F26F65C2E4249D0D426F65C56
:102110002E4245D0FF260A36F65C2E4240D1FF26DD
:102120003F36F65C2E423BD0CE1FB04204D0FF2695
:102130007436F65C2E4233D102282EDB1E46803EDA
:10214000B67D2E420DD1032827DB1E46A03E7678B1
:102150002E4206D1042820DB1E46E03E367B2E426E
:102160001BD00E46083EB04204DAFF26A936F65CC4
:102170002E4215D10E46093EB04204DAFF26DE3665
:10218000F65C2E420CD10E460A3EB04205DAFF3311
:10219000FF3302339B7C2B4202D1009B28330093F8
:1021A000401CA04290DB521C8A428ADB002002467F
:1021B000134F11240DE03526154600237543ED1904
:1021C00004E0EE5C264200D1401C5B1C8B42F8DB35
:1021D000521C0B468A42EEDB642259435043FEF701
:1021E00021FE3221081A00D540420521FEF71AFED1
:1021F0000A21484300994018F8BD00001001002052
:1022000074260020F3B581B03422BE49BE48FEF7E3
:102210001DFEBD4D01986871000AA87102982C46F8
:10222000BA300090E071000A207222276F720020FD
:10223000A872E7722073B548B64E0088E075000AB0
:102240002076B34800886876000AA8763088E07661
:10225000000A207730886877000AA877204607F0C0
:1022600021FAAD4AAD49012007F02AFCACA20521B4
:10227000AA4807F007FDA349342234312046FEF76F
:10228000E5FD019827306871000AA8710098E07197
:10229000000A20726F72380AA872E772380A207337
:1022A0009A480088E075000A207699480088687688
:1022B000000AA8763088E076000A207730886877B0
:1022C000000AA877204607F0EDF99449964A491C80
:1022D000012007F0F5FB914894A20521401C07F06E
:1022E000D1FC8849342268312046FEF7AFFD0198C1
:1022F0004E306871000AA8710098E071000A2072DF
:102300006F72380AA872E772380A20737F48008813
:10231000E075000A20767E4800886876000AA87674
:102320003088E076000A207730886877000AA8773E
:10233000204607F0B7F979497E4A891C012007F049
:10234000BFFB76487CA20421801C07F09BFC6D49F2
:1023500034229C312046FEF779FD01987530687172
:10236000000AA8710098E071000A20726F72380AA2
:10237000A872E772380A207364480088E075000A82
:102380002076634800886876000AA8763088E07670
:10239000000A207730886877000AA877204607F07F
:1023A00081F95E49654AC91C012007F089FB5B4839
:1023B00063A20321C01C07F065FC3422614920465A
:1023C000FEF744FD01989C3000906871000AA871E6
:1023D00002984E30E071000A20726F72380AA872BB
:1023E000E772380A207349480088E075000A2076B1
:1023F000474800886876000AA8763088E076000AA8
:10240000207730886877000AA877204607F04AF9D5
:1024100042494D4A891D012007F052FB3F484BA21B
:102420000521801D07F02EFC464934223439204610
:10243000FEF70CFD00986871000AA87102987230CE
:10244000E071000A20726F72380AA872E772380AC7
:1024500020732E480088E075000A20762C480088FA
:102460006876000AA8763088E076000A20773088FF
:102470006877000AA877204607F014F92749354AFB
:10248000491D012007F01CFB244833A20521401DF3
:1024900007F0F8FB2B49342268392046FEF7D6FCBA
:1024A00000986871000AA87102989630E071000ADD
:1024B00020726F72380AA8724620E07200202073E2
:1024C00012480088E075000A207611480088687676
:1024D000000AA8763088E076000A2077308868778E
:1024E000000AA877204607F0DDF80C4C1C4A241D92
:1024F0002146012007F0E4FA1AA20521204607F040
:10250000C1FBFEBD7E890100B2350020DC48010020
:10251000D8480100DA4801009DA800002080000092
:10252000B7FBBAC5000000001DA80000CAFDD7D641
:102530000000000071A8000053706100B9A80000FD
:10254000D6D00000B68A0100B1A70000C9BEB3FD15
:102550000000000079A70000B7B5BBD8000000005C
:1025600039A80000C8B7B6A800000000F3B50E46B1
:1025700081B0342254495548FEF768FC0198534D08
:10258000903000906871000AA87130465A302C468D
:10259000E071000A20722A2068720020A8722A20A6
:1025A000E072002020734A484B4F0088E075000A13
:1025B0002076484800886876000AA8763888E07651
:1025C000000A207738886877000AA877204607F045
:1025D00069F8424A4249012007F072FA41A20521F6
:1025E0003F4807F04FFB3849342234312046FEF78C
:1025F0002DFC00986871000AA87130468630E071A1
:10260000000A20722A2068720020A8725620E07208
:10261000002020732E480088E075000A20762D489F
:1026200000886876000AA8763888E076000A207765
:1026300038886877000AA877204607F033F82849D9
:102640002A4A491C012007F03BFA254828A2052107
:10265000401C07F017FB1C49342234392046FEF792
:10266000F5FB0198B23630306871000AA871E67146
:10267000300A20725A2068720020A8722A20E07264
:102680000020207312480088E075000A2076114867
:1026900000886876000AA8763888E076000A2077F5
:1026A00038886877000AA877204606F0FBFF0C4CB4
:1026B000114A641E2146012007F002FA0FA20521EB
:1026C000204607F0DFFAFEBDB28D01003E36002045
:1026D000DC480100D8480100DA48010095A7000055
:1026E00025800000B7B5BBD80000000009A8000095
:1026F000C9BEB3FD0000000055A80000C8B7B6A8C9
:1027000000000000F3B587B03422FE49FE48FEF712
:102710009DFBFD4D07986871000AA87108982C462A
:102720004E300290E071000A207222266E72002064
:10273000A872E6722073F548F64F0088E075000A2B
:102740002076F34800886876000AA8763888E07614
:10275000000A207738886877000AA877204606F0B4
:10276000A1FFED4AED49012007F0AAF9E54934221D
:1027700034312046FEF76AFB0798273005906871D0
:10278000000AA8710298E071000A20726E72300A85
:10279000A872E672300A2073DC480088E075000AEF
:1027A0002076DB4800886876000AA8763888E076CC
:1027B000000A207738886877000AA877204606F054
:1027C00071FFD649D64A491C012007F079F9CD4955
:1027D000342268312046FEF739FB07984E300490CA
:1027E0006871000AA8710298E071000A20726E7286
:1027F000300AA872E672300A2073C4480088E07577
:10280000000A2076C24800886876000AA8763888D0
:10281000E076000A207738886877000AA877204693
:1028200006F040FFBD49BF4A891C012007F048F966
:10283000B44934229C312046FEF708FB07987530D6
:1028400003906871000AA8710298E071000A207272
:102850006E72300AA872E672300A2073AB480088A4
:10286000E075000A2076AA4800886876000AA876F3
:102870003888E076000A207738886877000AA877D9
:10288000204606F00FFFA549A74AC91C012007F002
:1028900017F99C493422D0312046FEF7D7FA079821
:1028A0006871000AA871089872300290E071000AFD
:1028B00020726E72300AA872E672300A2073934852
:1028C0000088E075000A2076914800886876000A42
:1028D000A8763888E076000A207738886877000A7A
:1028E000A877204606F0DEFE8C49904A091D01209B
:1028F00007F0E6F834228E492046FEF7A7FA05983D
:102900006871000AA8710298E071000A20726E7264
:10291000300AA872E672300A20737C480088E0759D
:10292000000A20767A4800886876000AA8763888F7
:10293000E076000A207738886877000AA877204672
:1029400006F0B0FE75497B4A491D012007F0B8F832
:102950007749342234312046FEF778FA04986871BA
:10296000000AA8710298E071000A20726E72300AA3
:10297000A872E672300A207364480088E075000A85
:102980002076634800886876000AA8763888E07662
:10299000000A207738886877000AA877204606F072
:1029A00081FE5E49644A891D012007F089F860496B
:1029B000342268312046FEF749FA03986871000A0C
:1029C000A8710298E071000A20726E72300AA87233
:1029D000E672300A20734D480088E075000A2076C0
:1029E0004B4800886876000AA8763888E076000AA6
:1029F000207738886877000AA877204606F052FECC
:102A000046494E4AC91D012007F05AF84849342268
:102A10009C312046FEF71AFA07986871000AA871DF
:102A2000089896300290E071000A20726E72300AA7
:102A3000A872E672300A207334480088E075000AF4
:102A40002076334800886876000AA8763888E076D1
:102A5000000A207738886877000AA877204606F0B1
:102A600021FE2E49364A0831012007F029F8304965
:102A70003422D0312046FEF7E9F905986871000A42
:102A8000A8710298E071000A20726E72300AA87272
:102A9000E672300A20731D480088E075000A20762F
:102AA0001B4800886876000AA8763888E076000A15
:102AB000207738886877000AA877204606F0F2FD6C
:102AC0001649204A0931012006F0FAFF34221E4936
:102AD0002046FEF7BBF904986871000AA8710298B5
:102AE000E071000A20726E72300AA872E672300A33
:102AF000207306480088E075000A207604480088A4
:102B0000687623E00E870100B2350020DC48010022
:102B1000D8480100DA4801002D9D0000088000001F
:102B2000D59D0000D19E0000CD9F0000C9A00000EF
:102B30001288010069A1000065A2000061A30000E5
:102B40005DA40000FDA4000016890100000AA8761B
:102B50003888E076000A207738886877000AA877F6
:102B6000204606F09FFD1A4A1A49012006F0A8FFE8
:102B7000342219492046FEF769F903986871000A62
:102B8000A8710298E071000A20726E72300AA87271
:102B9000E672300A207311480088E075000A20763A
:102BA0000F4800886876000AA8763888E076000A20
:102BB000207738886877000AA877204606F072FDEB
:102BC0000449084A491C012006F07AFF09B0F0BD0B
:102BD000B5A50000128000004A890100DC48010010
:102BE000D84801007DA60000F3B583B03422FE4929
:102BF000FE48FEF72BF9FD4D03986871000AA87195
:102C000004982C462E300290E071000A20722A2689
:102C10006E720020A872E6722073F548F64F0088A5
:102C2000E075000A2076F34800886876000AA876E6
:102C30003888E076000A207738886877000AA87715
:102C4000204606F02FFDED4AED49012006F038FF41
:102C5000ECA20221EA4807F015F8E34934223431A6
:102C60002046FEF7F3F80398303001906871000AAF
:102C7000A8710298E071000A20726E72300AA87280
:102C8000E672300A2073DA480088E075000A207680
:102C9000D84800886876000AA8763888E076000A66
:102CA000207738886877000AA877204606F0FAFC73
:102CB000D349D54A491C012006F002FFD048D3A2CF
:102CC0000221401C06F0DEFFC7493422683120464D
:102CD000FEF7BCF80398603000906871000AA87194
:102CE0000298E071000A20726E72300AA872E672D1
:102CF000300A2073BE480088E075000A2076BD487F
:102D000000886876000AA8763888E076000A20777E
:102D100038886877000AA877204606F0C3FCB849CF
:102D2000BB4A891C012006F0CBFEB548B9A202219E
:102D3000801C06F0A7FF3422B7492046FEF786F82C
:102D4000039890306871000AA8710298E071000A37
:102D500020726E72300AA872E672300A2073A4489C
:102D60000088E075000A2076A24800886876000A8C
:102D7000A8763888E076000A207738886877000AD5
:102D8000A877204606F08EFC9D49A44A0A3101200E
:102D900006F096FE9A48A2A202210A3006F072FFBF
:102DA000914934229C312046FEF750F8039868710F
:102DB000000AA87104985A300290E071000A20724B
:102DC0006E72300AA872E672300A20738848008852
:102DD000E075000A2076874800886876000AA876A1
:102DE0003888E076000A207738886877000AA87764
:102DF000204606F057FC82498A4AC91C012006F089
:102E00005FFE7F4888A20221C01C06F03BFF764986
:102E10003422D0312046FEF719F801986871000A73
:102E2000A8710298E071000A20726E72300AA872CE
:102E3000E672300A20736E480088E075000A20763A
:102E40006C4800886876000AA8763888E076000A20
:102E5000207738886877000AA877204606F022FC99
:102E60006749724A091D012006F02AFE644870A2D3
:102E70000221001D06F006FF34226E492046FDF7B0
:102E8000E5FF00986871000AA8710298E071000AD5
:102E900020726E72300AA872E672300A20735448AB
:102EA0000088E075000A2076524800886876000A9B
:102EB000A8763888E076000A207738886877000A94
:102EC000A877204606F0EEFB4D495B4A491D0120DC
:102ED00006F0F6FD4A4859A20221401D06F0D2FE36
:102EE0005449342234312046FDF7B0FF039868710D
:102EF000000AA871049886300290E071000A2072DE
:102F00006E72300AA872E672300A20733848008860
:102F1000E075000A2076374800886876000AA876AF
:102F20003888E076000A207738886877000AA87722
:102F3000204606F0B7FB3249414A891D012006F0C0
:102F4000BFFD2F483FA20221801D06F09BFE39499C
:102F5000342268312046FDF779FF01986871000A34
:102F6000A8710298E071000A20726E72300AA8728D
:102F7000E672300A20731E480088E075000A207649
:102F80001C4800886876000AA8763888E076000A2F
:102F9000207738886877000AA877204606F082FBF9
:102FA0001749294AC91D012006F08AFD144827A2A5
:102FB0000221C01D06F066FE1749342268392046FA
:102FC000FDF744FF00986871000AA8710298E0714B
:102FD000000A20726E72300AA872E672300A2073FC
:102FE00003480088E07533E0428B01003E36002044
:102FF000DC480100D8480100DA480100A19D00002A
:1030000008800000310000009D9E0000320000009A
:10301000999F0000330000004A8D010045A7000081
:103020002E00000095A000003400000035A1000033
:1030300035000000468C010031A20000360000007F
:103040002DA300003700000029A400003800000074
:10305000000A2076284800886876000AA876388812
:10306000E076000A207738886877000AA87720463B
:1030700006F018FB214A2249012006F021FD21A279
:1030800002211F4806F0FEFD34221F492046FDF7AD
:10309000DDFE03986871000AA8710498B230E071EF
:1030A000000A20726E72300AA872E672300A20732B
:1030B00016480088E075000A20760F480088687678
:1030C000000AA8763888E076000A20773888687782
:1030D000000AA877204606F0E5FA094C0C4A641C61
:1030E0002146012006F0ECFC0AA20221204606F04F
:1030F000C9FD05B0F0BD0000D8480100C9A400001A
:103100001080000039000000168D0100DC4801002D
:10311000F99C000030000000F8B506463C480188E4
:10312000BE2901D23BA003E04088DC2804D240A0A5
:1031300006F0BEFA0120F8BD444AC90389180D0CF7
:103140004349C0034018040C262242494248FDF777
:103150007DFE4148290A45718171C471210A0172BD
:103160003E4801883C488173090AC17306F09AFA07
:1031700038493948322226312630FDF767FE364875
:10318000290A2630457181710146CC71220A0A72E2
:10319000BE224272002282723020C872304F2E4806
:1031A0000A73398848300170090A41702D48018836
:1031B000294826308175090AC1752B49098801768D
:1031C000090A417606F06EFA2848002E1DD03A888A
:1031D0000021521E04E0735C002B03D0491C89B20D
:1031E0009142F8DB324606F04DFD2146284600F0BC
:1031F000FDF821462846FFF785FA21462846FFF7C5
:1032000001F804F0E3F90020F8BD08A20121EAE783
:10321000000000206C636420776964746820696E24
:1032200073756666696369656E740D0A0000000057
:103230006C63642068656967687420696E7375667D
:1032400066696369656E740D0A0000000000A1FFE5
:10325000000092FF808501005A350020D648010009
:10326000D4480100D8480100DA480100018000007C
:10327000F8B5064639480188BA2901D238A003E0DA
:103280004088DC2804D23DA006F012FA0120F8BDE7
:10329000414AC90389180D0C4049C0034018040C69
:1032A00026223F493F48FDF7D1FD3E48290A457196
:1032B0008171C471210A01723B48018839488173C8
:1032C000090AC17306F0EEF9354936483222263133
:1032D0002630FDF7BBFD3348290A26304571817140
:1032E0000146CC71220A0A72BA224272002282720C
:1032F0002020C8722D4F2B480A733988483001703E
:10330000090A41702A480188264826308175090A31
:10331000C175284909880176090A417606F0C2F983
:103320002548002E17D03A880021521E04E0735C15
:10333000002B03D0491C89B29142F8DB324606F0DB
:10334000A1FC21462846FFF74FFC21462846FFF7FF
:103350000DF90020F8BD08A20121F0E700000020CF
:103360006C636420776964746820696E737566663F
:10337000696369656E740D0A000000006C63642067
:1033800068656967687420696E73756666696369E4
:10339000656E740D0A0000000000A3FF000092FF9C
:1033A000EA8A0100E6350020D6480100D448010031
:1033B000D8480100DA4801000180000070B50A4CCD
:1033C0000025206800280CD0014608208847050009
:1033D00007D0E068002804D00346082200212846D0
:1033E0009847284670BD000034480100F8B50F46E4
:1033F00006463222A249A348FDF728FDA148310A1A
:103400004671817134370146CF713A0A0A723E2201
:103410004272002282721620C8729B480A73018889
:1034200098488175090AC175984909880176090A81
:10343000417606F037F996A20121964806F022FC63
:103440008F499048342232313230FDF7FFFC8D4DE8
:103450003046323540306871000AA8712C46E77159
:10346000380A2072162068720020A8721620E072B6
:103470000020207388480088E075000A2076824882
:1034800000886876000AA87680480088E076000AFE
:1034900020777E4800886877000AA877204606F0E3
:1034A00001F97C487AA20121401C06F0EBFB794926
:1034B0007A4A491C012006F003FB71493422663127
:1034C0002046FDF7C3FC30465A306871000AA871E7
:1034D000E771380A2072162068720020A872162040
:1034E000E072002020736C480088E075000A2076A6
:1034F000654800886876000AA87664480088E07607
:10350000000A2077614800886877000AA87720467B
:1035100006F0C8F85F485EA20121801C06F0B2FBED
:103520005C495F4A891C012006F0CAFA54493422DA
:103530009A312046FDF78AFC304674306871000AE3
:10354000A871E771380A2072162068720020A872EC
:103550001620E072002020734F480088E075000AB2
:103560002076494800886876000AA876474800888F
:10357000E076000A2077454800886877000AA87737
:10358000204606F08FF8434841A20121C01C06F0F6
:1035900079FB4049434AC91C012006F091FA384999
:1035A0003422CE312046FDF751FC30468E30687112
:1035B000000AA871E771380A20721620687200208C
:1035C000A8721620E0720020207333480088E0754E
:1035D000000A20762C4800886876000AA8762B48D6
:1035E0000088E076000A2077284800886877000A7B
:1035F000A877204606F056F826482BA20121001D88
:1036000006F040FB2349294A091D012006F058FA1B
:10361000342227492046FDF719FCA8366E71300A7E
:10362000A871E771380A2072162068720020A8720B
:103630001620E0720020207317480088E075000A09
:103640002076114800886876000AA8760F4800881E
:10365000E076000A20770D4800886877000AA8778E
:10366000204606F01FF80B4C12A2641D01212046D3
:1036700006F008FB104A2146012006F021FAF8BDA9
:10368000D885010080350020D6480100DA480100C5
:103690000000000002800000DC480100BD1B0000AB
:1036A000051C00004D1C00003C0000007DB0000027
:1036B000DA8601003E00000071B0000010B5012163
:1036C000002000F0DFF8194C002806D02068002800
:1036D00000D08047002000F0A5F80121084600F046
:1036E000D1F8002806D06068002800D0804701206B
:1036F00000F098F80121022000F0C4F8002806D05C
:10370000A068002800D08047022000F08BF801213B
:10371000032000F0B7F8002806D0E068002800D0A9
:103720008047032000F07EF810BD0000A0020020BA
:1037300070B5324805F0B6FF3048263005F0B2FFCC
:103740002E48413005F0AEFF2C48733005F0AAFF3B
:103750002A48A73005F0A6FF2848DB3005F0A2FF75
:10376000274805F09FFF26482F3005F09BFF24488F
:103770005E3005F097FF22488D3005F093FF20481A
:10378000BC3005F08FFF1FA202211F4805F06CFF1F
:103790001D4C1EA2641C0321204605F065FF651C1C
:1037A0001BA20221284605F05FFF1A4A214601208C
:1037B00006F086F9184A2946012006F081F91748D3
:1037C00001F04EFD154C681C218806F079FAA178AD
:1037D000A81C06F075FAE178E81C06F071FA0421DD
:1037E0006156281D06F06CFA6179681D06F068FACA
:1037F000A179A81D06F064FA002070BDEF5A0100FF
:10380000F95B0100323000000360000059455300AD
:103810004E4F0000C1640000C51D00008000002064
:103820000020704710B504000AD0012C08D0022CEB
:1038300006D0032C04D0FF21AC3104A005F046FDD6
:1038400001200F49A040886310BD000041534D3155
:103850003178784253505C4D313133305F5374646A
:103860005065726970685F4472697665725C7372E4
:10387000635C6D313133305F646D612E6300000035
:103880000003054070B50D4604000AD0012C08D095
:10389000022C06D0032C04D0FF21923106A005F0A3
:1038A00015FD01221148A240002D02D0806A10406F
:1038B00070BD0068FBE7000041534D31317878421C
:1038C00053505C4D313133305F53746450657269CD
:1038D00070685F4472697665725C7372635C6D31A7
:1038E0003133305F646D612E63000000C00205401B
:1038F000F0B51C460746081989B015460E4681B238
:10390000039078191C4A0490126880B2904703987B
:10391000194A81B2781B0390126880B290477019DF
:1039200081B205903819144A0790126880B2904706
:10393000701B81B20690104A0798126880B29047B7
:10394000002C16D00C4D0498361B2A68B1B280B2F8
:10395000904703982A68B1B280B2904705983C1B03
:1039600081B22A68A0B2904706982A6881B2A0B2B4
:10397000904709B0F0BD0000680D0000FFB585B0AC
:10398000FF32FF336932693300260390F643012783
:10399000FF2014B21DB2693005E0FF3C693CFF3DD9
:1039A000693D24B22DB28442F7DA002D6CDD5A2C29
:1039B00011DA002C00DA00245A2D01DA284600E042
:1039C0005A2083B20E9801960290A2B200970699EF
:1039D000039800F05BF85A3D5A3C2DB224B2002DFA
:1039E00052DD5A2C14DA002C00DA00245A2D01DAA8
:1039F000284600E05A200E9902915A210A1B081A03
:103A000093B2019682B200960699039800F03EF8B0
:103A10005A3D5A3C2DB224B2002D35DD5A2C11DA14
:103A2000002C00DA00245A2D01DA284600E05A2042
:103A300083B20E9801970290A2B20096069903985D
:103A400000F024F85A3D5A3C2DB224B2002D1BDD63
:103A50005A2C14DA002C00DA00245A2D01DA2846F8
:103A600000E05A200E9902915A210A1B081A93B2BB
:103A7000019782B200970699039800F007F85A3D23
:103A80005A3C2DB224B290E709B0F0BDFFB597B013
:103A90000F46219C2298FDF7D5FB0022844BFDF7B1
:103AA000F7FA0022D243FDF7A5FB05460E4638463D
:103AB0000491FDF7DBFB074633462A460291FDF7EA
:103AC0008BFBFDF747FC06462A463846049B0299C5
:103AD000FDF7DEFAFDF73EFC05461998754A8000B1
:103AE000115806911A9989005758734A1058049032
:103AF0005058314603900846FDF74EFAFDF7C4FBD7
:103B0000294608900846FDF747FAFDF7BDFB0790E8
:103B100030460699FDF740FA0A9028460699FDF7C7
:103B20003BFA0C9039463046FDF736FA0B90394691
:103B30002846FDF731FA0D9030460499FDF72CFA2E
:103B40000E9028460499FDF727FA0F903046039906
:103B5000FDF722FA109028460399FDF71DFA1290FE
:103B60000A98FDF7E3FB554A554BFDF791FAFDF72F
:103B7000B9FB05460D98FDF787FB524E119010AA30
:103B8000F188D38B0593CA1A7188C91A012C02D007
:103B9000631C07D00CE0824200DA1046A94207DD20
:103BA0000D4605E0AA4200DA1546814200DD0846CE
:103BB00000210646139110A81491878B74E03146BA
:103BC00013A8089AFEF722F9314614A8079AFEF7BF
:103BD0001DF93046FDF724FB15900C99FDF7D6FB37
:103BE0002CD20A990C98FDF7D1FB01D10A9816E066
:103BF0000A990C98FDF7C8F904900E990F98FDF7F3
:103C0000C3F90499FDF705FA06900A991598FDF78E
:103C1000BBF90699FDF7C0F90E99FDF764F9FDF7B8
:103C200033FB03900B991598FDF7BAFB22D20B9941
:103C30000D98FDF7ABFB03D111981CE01498F0E749
:103C40000B990D98FDF7A0F9099010991298FDF7BE
:103C50009BF90999FDF7DDF909900B991598FDF786
:103C600093F90999FDF798F91099FDF73CF9FDF7DB
:103C70000BFB00E0139820990029214608DD059AE6
:103C800071438918039A89B2BA1892B2381807E0BA
:103C9000059A71438918381A82B2039889B2381A82
:103CA00080B200F0A1FA761EAE4288DA1BB0F0BDF9
:103CB0000000F83FF86E01009C740100E90B21E759
:103CC000FDFFEF3F6C020020FFB551488DB08668C4
:103CD000C0681F4642086846058F10462946FDF712
:103CE0008BF804466846418F0C97828E02840A92B4
:103CF000C28E428400200B90A14201D3081B01E038
:103D00000C4680E00790294618986143012801D0AD
:103D100000231CE000203E4A03E093883380401CCF
:103D2000B61C8842F9D314E0179A0B98504342000E
:103D300016981218002004E017883780401C921C47
:103D4000B61C8542F8D80B98401C5B1C0B90A34214
:103D5000EAD32F480023CE08826833E00C990C9FE9
:103D600009787F1C0C97CF0901D0C78817808F096D
:103D7000921CFF0701D0C78817804F09921CFF07CC
:103D800001D0C78817800F09921CFF0701D0C78890
:103D90001780CF08921CFF0701D0C78817808F08B3
:103DA000921CFF0701D0C78817804F08921CFF079D
:103DB00001D0C7881780921CC90701D0C188118023
:103DC000921C5B1C9E42C9D8866868460A9981800D
:103DD000418C0991C1801999018144811A98009000
:103DE0000C48294647693046029B019AB847099911
:103DF0006846091941840798002806D0A04201D3DB
:103E0000001B7FE7044600207CE711B0F0BD0000F6
:103E100000000020680D0000FFB5654889B0846887
:103E2000C0681E4642086846008D03900146104651
:103E3000FCF7E2FF05466846408D00906846818C9D
:103E400001820591C18C41821498012814D15848EF
:103E5000584982880A80C288CA800127B800381869
:103E6000C2B253488188C08801F0ACFA7A00514947
:103E70007F1C8852032FF1DB0020079000988DE013
:103E80000890039814996843012901D0002330E079
:103E90000022830816E03178521C88094700454803
:103EA000C75B27808F06BF0F7F00C75B67800F0748
:103EB000BF0F7F00C75B8907A780490F405AE0808A
:103EC0000834761C9342E6D84DE0139A0799514383
:103ED0004A0012995218002104E017882780491CD3
:103EE000921CA41C039F8F42F7D80799491C5B1CA6
:103EF0000791AB42E9D32E4900228C6880080092DA
:103F000001902DE03778761CB809810042182848C6
:103F10002188C08801F056FA2080B806800F810001
:103F2000421823486188C08801F04CFA6080380745
:103F3000800F810042181E48A188C08801F042FA13
:103F4000A080B807800F810042181948E188C08816
:103F500001F038FAE0800098401C00900198083485
:103F600000998842CED812486946846805988880AE
:103F7000488A0690C880159808814D81169800904F
:103F80000D48029B47692046019A0399B847069855
:103F90006946401948820898002806D0A84201D3F3
:103FA000401B6DE7054600206AE70DB0F0BD00003C
:103FB0000000002074020020680D0000FFB5524888
:103FC00089B08568C0681E4642086846008D039027
:103FD00001461046FCF710FF04466846408D0090ED
:103FE0006846818C01820691C18C41821498012817
:103FF00012D14548454982880A80C288CA83012770
:104000004148FAB28188C08801F0DCF97A003F4962
:104010007F1C88520F2FF3DB00200890009869E086
:104020000790039A14986243012801D0002326E0E8
:104030000021364853080BE03278491C17097F00ED
:10404000C75B12072F80D20E825A6A802D1D761C04
:104050008B42F1D833E013990898484341001298F5
:104060000918002004E00F882F80401C891CAD1C1B
:10407000039F8742F7D80898401C5B1C0890A34216
:10408000E9D32148002751088568019114E0307870
:10409000009002091C482988C088761C01F092F91A
:1040A00028800098698802071748120FC08801F01D
:1040B00089F968802D1D7F1C0198B842E7D8124805
:1040C0006946856806988880488A0590C880159852
:1040D00008814C81169800900D48029B476928463C
:1040E000019A0399B84705986946001948820798CC
:1040F000002806D0A04201D3001B91E7044600200F
:104100008EE70DB0F0BD0000000000203A35002021
:10411000680D0000F3B50C46084660434908401896
:1041200085B086B26846C08A0390001B00B2029038
:1041300003982C49001900B20190CA88824202DA21
:104140000620085E01900298002801DA0020029003
:104150006846808A0025274600901CE00398411B92
:104160000298814215DB0198814212DC284668439F
:104170003A467A438218B24202DD7F1EBFB2F7E7A9
:10418000009889B2C01982B20098C01B80B200F0BA
:104190002BF86D1CADB2A542E0D3002527461CE0EC
:1041A000039841190298814215DB0198814212DC83
:1041B000284668433A467A438218B24202DD7F1E9F
:1041C000BFB2F7E7009889B2C01982B20098C01B4D
:1041D00080B200F009F86D1CADB2A542E0D307B083
:1041E000F0BD00006C020020F8B5074616460D46EB
:1041F000BA4267D3344C28462168FCF713FE616944
:10420000884206D002F082FF28462168FCF70AFEA9
:1042100060612D48016838460C46FCF703FE85B204
:1042200021463046FCF7FEFD81B227488069854271
:1042300001DA254885612448C269914200DDC161E7
:104240002A46C568AA4202DA2A46624397B2026940
:10425000914203DD521C6243521E96B2BE4231D3DC
:1042600021463846FCF7DEFD401B00B20090214697
:104270003046FCF7D7FD401B01B200988C46081A67
:10428000401C01B21048826800981018012907D01C
:10429000009A03785219521C6243D21B9A1803E009
:1042A0000278F11B0BE012190270401C491E09B282
:1042B00002780129F7DC614649196143711A491CEA
:1042C00051180170F8BD000048020020F8B50746FB
:1042D00024481500C4880E4642D04188B1423FDBD5
:1042E0000088B8423CDB204A0F2D02D3B1B2B8B2ED
:1042F00032E01D4AB1B25268B8B2904701463F233E
:104300005B0120461840E306DB0E6B439C46E20A45
:104310001023D2025B1B6A436843CD0ADBB2ED0275
:104320005D43AD183F2252010A40C906C90E5A43E7
:10433000594310181F232A11DB021A403F236144FE
:1043400000115B011840C905C90E10184018054935
:10435000054AC880B1B2B8B2126890470148C4801B
:10436000F8BD000000000020680D0000F7B50C4605
:1043700006461D218AB04901F748FCF78FFD002150
:10438000F64D0846A9612FE0725C1346303B092BBD
:1043900001D8002218E01346413B192B13D9202ADB
:1043A00011D0242A0FD0252A0DD02A2A0BD02B2A4F
:1043B00009D02D2A07D02E2A05D02F2A03D03A2A39
:1043C00001D0022200E00122002901D1E44B1A7041
:1043D000E34B1F5C974201D0401C1A54DE4A870011
:1043E000D3595B1CD351491CA142CDDB401C002496
:1043F000A8612EE1DA4A135D002B02D0012B05D013
:1044000026E110194078012804D021E110194078E4
:104410000028F5D1A000D04904900690095818460C
:104420000C9A00F0D1FE0746CB490698401803903D
:1044300001904168CA480019079040780C9A00F032
:10444000C3FE3F18C44906980C9A09580198406861
:104450000918012000F0B8FE00908742D0DD012C41
:1044600025DB07982038C07F022820D10398BA495D
:1044700080380690C26F04980858111802200C9AD0
:1044800000F0A2FE074603980C9A4168079840780E
:1044900000F09AFE3818019006980C9AC16F02201D
:1044A00000F092FE009941180198814201DA002043
:1044B0000190A869801E84421FDA0798A84A807874
:1044C00002281AD1A44804994158105D0C9A00F0B2
:1044D0007BFE074603980C9A416880680918022001
:1044E00000F072FE3F1803980C9A8168022000F0D9
:1044F0006BFE00994018B84200DA002701980028A6
:1045000005D0002F06D0B84204DB012004E0002FC4
:1045100004D110E00020C043401C16D007980221AF
:104520004170039841688068091803984160A9693F
:10453000A01C491E2CE0A8698446801E844244DAEF
:1045400007988078012827D03FE00398824A049991
:104550008038C36F51585918C167A9692046491E50
:1045600009E07F4A13185B7813547B4A83009F1835
:104570007F68D750401C8842F3DB0BE0784A131861
:104580005B781354744A83009F187F68D750401C8F
:104590008842F3DBA86958E00398416880680918ED
:1045A00003984160A11C6046401E09E06C4A531804
:1045B0005B785354684A8B009F187F68D750491C1A
:1045C0008142F3DB6046401EA861654B012018550F
:1045D000614A0498115803984068091804981150CA
:1045E000A969601C8C46491E09E05D4A13185B7876
:1045F0001354594A83009F187F68D750401C884243
:10460000F3DB6046401E8446A861012C21DB07983D
:104610002038C07F01281CD103984F4A0499803864
:10462000C36F51585918C16760462146401E09E0C2
:104630004B4A53185B785354474A8B009F187F6846
:10464000D750491C8142F3DB6046401EA86100E060
:10465000641CA869401E844200DACBE60C98002452
:1046600080000790B3E0A0003B49039000900958F8
:104670003B480C9A005D00F0A7FD074636490098BC
:104680000C9A401801900490416835480019089030
:10469000407800F099FD3F182F4900980C9A09586E
:1046A000049840680918022000F08EFD0146012C94
:1046B00009DB08982038C07F022804D12948079ACE
:1046C0008058091A091FA8698446801E844208DAA6
:1046D00008988078022804D1224B079A9858091A22
:1046E000091F8F4272DD012C20DB08982038C07F23
:1046F00002281BD1019B184A0398803BD96F1058A0
:104700000818D86760462146401E09E0144A53182D
:104710005B785354104A8B009F187F68D750491C10
:104720008142F3DB6046401E641EA861A86984468E
:10473000801E844227DA0A4F38198078022822D155
:10474000054BA000C0188268416889184160A11C0F
:104750006046401E12E00000D4220020100100201C
:104760009132002040630100844A53185B7853540F
:10477000834A8B009F187F68D750491C8142F3DB26
:104780006046401EA8617D4F022038557C48A1003C
:104790000B1842585B68D2184250AA69611C9446B3
:1047A000521E09E0754843185B78435474488B00E7
:1047B0001F187F68C750491C9142F3DB6046401EBA
:1047C000A861012C03DB641E01E0FFE7641CA869FB
:1047D000401E844200DA46E768480024E821E830B9
:1047E000EC60FCF75BFB0020A5E06449009A895C63
:1047F000002914D001295FD004221146614D02F036
:1048000019FDE860604A0799525800998F005C4989
:10481000C95B89B202F00EFDE8600025A0E0042229
:104820000121584D02F006FDE860574A0799183AF1
:10483000525800998F005249C95B89B202F0FAFCC4
:10484000E860002531E0811EA94211DD601981195F
:10485000305C8A78642330385843121848780A212B
:10486000484321210901401A101881B20A2215E09B
:10487000A9420BD160198119305C0A22303849787D
:1048800050433038081881B2072207E0401EA84282
:104890000AD16019305C303881B204223948C068CE
:1048A00002F0C8FC3749C860ED1C3548C059A84221
:1048B000C9DC3348C0593BE004220221314D02F0EB
:1048C000B9FCE860304A07990C3A525800992C4FCD
:1048D00089000591795A89B202F0ACFCE8600025A4
:1048E0001EE0401EA8420FDD60190490305CFDF709
:1048F00035F9074604982D2180194F434078FDF77C
:104900002DF939180B2205E06019305CFDF726F906
:10491000014606221B4FF86802F08CFCAD1CF860C3
:10492000174905980858A842DBDC154805994058F6
:1049300004190098401C134B00909969884214DABE
:10494000D868411C00D050E716E06019315C0D4872
:104950000822C06802F06EFC01460A486D1CC16066
:104960000748C059A842F0DCA3E70648C068401CCD
:1049700002D001200DB0F0BD0020FBE791320020F5
:10498000D4220020100100204063010070B52149AD
:104990002148FCF783FA02F079FD02F07DFC1F4EFE
:1049A000B068401C18D1B06003F000F8B06802F0A5
:1049B000DFFCFDF773FA04460125284602F0F6FFF6
:1049C000284602F0D5FCFDF769FAA04201DA044658
:1049D000B5606D1C072DF0DDB06802F0E7FFB06830
:1049E00002F0C6FC00200C4B1125F2690EE03526C2
:1049F000044600217443E41805E0665C2E4000D0B4
:104A000001266654491C9142F7DB401C9042EEDBC4
:104A100070BD0000F90A000074260020100100207B
:104A200010B5594804F03EFE5748263004F03AFECF
:104A30005548553004F036FE5348843004F032FEB9
:104A40005148B33004F02EFE4F48E73004F02AFE00
:104A50004E4804F027FE4D48343004F023FE4B4806
:104A6000683004F01FFE49489C3004F01BFE4748A4
:104A7000D03004F017FE464804F014FE44483230AB
:104A800004F010FE4248423004F00CFE404866300C
:104A900004F008FE3E488A3004F004FE3C48E03052
:104AA00004F000FE3A48AE3004F0FCFD394804F052
:104AB000F9FD3848323004F0F5FD3648643004F032
:104AC000F1FD3448963004F0EDFD3248B13004F089
:104AD000E9FD3048CC3004F0E5FD2FA20421304838
:104AE00004F0C2FD2F49012008702D482EA20F218D
:104AF000401C04F0B9FD2A482FA206210B3004F017
:104B0000B3FD27482EA206210C3004F0ADFD244849
:104B10002DA206210D3004F0A7FD21492C4A0A31AF
:104B2000012004F0CDFF1E492A4A491E012004F04D
:104B3000C7FF1B49284AC91C032004F0C1FF184CB9
:104B4000264A241D2146022004F0BAFF244A2146A9
:104B5000012004F0B5FF641C224A2146022004F023
:104B6000AFFF1F4A2146012004F0AAFF641C1E4A21
:104B70002146022004F0A4FF194A2146012004F036
:104B80009FFF002010BD0000DE4C0100F94D010028
:104B9000FB4E01000F500100D6C7C4DC000000002E
:104BA0000B10000088000020C9CFBAA3CAD020C7CC
:104BB000E70A3230A1E60000C9FACFCACAD2000023
:104BC000C8EDB6B3CAD20000C0E4B6B3CAD2000082
:104BD0004D1D0000814C0000A54D0000154D00004A
:104BE000ED4B0000454D0000754D000010B51C490F
:104BF0001C4804F0DDFD1A491A48091D401C04F048
:104C0000D7FD174917480831801C04F0D1FD14481E
:104C1000001F82684168C068114301430FD11148E9
:104C2000401E04F0B1FF1048FCF743F981B20D4873
:104C30000D4AC01C05F026F80CA004F045F8094800
:104C40005F210A3004F0DEFF064861210B3004F0DA
:104C5000D9FF044863210C3004F0D4FF002010BDBC
:104C60008C0000200F100000D64C010053657444E6
:104C7000697361626C65206F6B0D0A0000207047DC
:104C800030B51CA103C987B0019100901BA103C9D5
:104C9000039102901BA103C91C4C0591049020783C
:104CA0001B4D002804D001280CD0022814D116E096
:104CB0006846FCF7FEF881B26A46284604F0E2FF37
:104CC000012008E002A8FCF7F4F881B202AA284605
:104CD00004F0D8FF02202070002007B030BD04A8E7
:104CE000FCF7E7F881B204AA284604F0CBFF0020C5
:104CF000F1E70000D6C7C4DC00000000D5E4C6B769
:104D000000000000CBD9B6B30000000088000020EE
:104D10000B10000010B50021084804F0D1FF07482F
:104D20000021401C04F0CCFF04480121801E04F047
:104D30002BFF034901208870002010BD10100000D7
:104D40008800002010B50021084804F0B9FF07488A
:104D50000021801C04F0B4FF04480121401E04F02F
:104D600013FF034902208870002010BD0F100000BF
:104D70008800002010B50021084804F0A1FF074872
:104D80000021401C04F09CFF04480121401E04F057
:104D9000FBFE034903208870002010BD0F100000A7
:104DA0008800002070B5204C607800280AD00020D0
:104DB0001E4D6070002807D01D48FCF77AF881B2BC
:104DC0001B4A08E00120F3E719480830FCF771F8A6
:104DD000174A81B20832284604F054FFA07801280F
:104DE00004D002280BD003281CD111E00F486178B1
:104DF000C01D002901D05F2112E0602110E00B48A6
:104E000061780830002901D0612109E0622107E0C2
:104E1000064861780930002901D0632100E064214F
:104E200004F0F0FE002070BD880000201210000089
:104E3000CE4C010070B5154B1824984212D1144D78
:104E400000200B46C340DB07DB0F07D083005B1954
:104E50001E68A6431E601E6816431E60401C202864
:104E6000EFD370BD0A4D002080350B46C340DB07F1
:104E7000DB0F07D083005B191E68A6431E601E6807
:104E800016431E60401C2028EFD370BD0000024076
:104E90000010004070B5394E0C460546B04206D0B1
:104EA0003748854203D0672136A004F00FFA2079F5
:104EB000002808D16079012805D0002803D06A2194
:104EC00030A004F003FA2068002803D16C212DA043
:104ED00004F0FCF92179002911D001290FD0022911
:104EE0000DD003290BD0042909D0052907D00629A4
:104EF00005D0072903D06D2122A004F0E7F9B542BF
:104F00001DD12D4A00202168C140C907C90F09D011
:104F1000810089180B68DB08DB000B600B682579C2
:104F20002B430B60401C2028EDD32079002803D1AF
:104F3000617922481DE0416070BD816070BD1E4AEC
:104F4000002080322168C140C907C90F09D0810003
:104F500089180B68DB08DB000B600B6825792B4395
:104F60000B60401C2028EDD320790028E6D1617920
:104F7000134801292168E0D1DDE70000000002406C
:104F80000000034041534D313178784253505C4D1D
:104F9000313133305F5374645065726970685F44B7
:104FA00072697665725C7372635C6D313133305F48
:104FB0006770696F2E63000000100040008002409F
:104FC0000080034070B5044609480D46844206D06F
:104FD0000848844203D0084908A004F077F9002D5E
:104FE00004D1054905A0491C04F070F9656070BD45
:104FF00000000240000003402102000041534D31F7
:105000003178784253505C4D313133305F537464A2
:105010005065726970685F4472697665725C73721C
:10502000635C6D313133305F6770696F2E630000F0
:10503000F8B51A4F15460C460646B84207D0184830
:10504000864204D0FF21AB3116A004F03FF9002CBA
:1050500004D1FF21AC3113A004F038F9012D06D0A2
:10506000002D04D0FF21AD310EA004F02FF9002255
:105070002146304600F034F817481849012D05D074
:10508000002D02D1BE4207D18460F8BDBE4201D1DD
:105090004460F8BD4C60F8BD8C60F8BD0000024073
:1050A0000000034041534D313178784253505C4DFC
:1050B000313133305F5374645065726970685F4496
:1050C00072697665725C7372635C6D313133305F27
:1050D0006770696F2E63000000800240008003400B
:1050E000F8B5294F14460D460646B84206D0274863
:1050F000864203D0BE2126A004F0E8F8002D03D19B
:10510000BF2123A004F0E2F8002C11D0012C0FD015
:10511000022C0DD0032C0BD0042C09D0052C07D069
:10512000062C05D0072C03D0C02119A004F0CEF81E
:10513000BE4213D1234A00202946C140C907C90FE6
:1051400008D0810089180B68DB08DB000B600B6856
:1051500023430B60401C2028EED3F8BD194A0020E1
:1051600080322946C140C907C90F08D0810089187B
:105170000B68DB08DB000B600B6823430B60401CF3
:105180002028EED3F8BD00000000024000000340DC
:1051900041534D313178784253505C4D3131333089
:1051A0005F5374645065726970685F4472697665B4
:1051B000725C7372635C6D313133305F6770696F3D
:1051C0002E6300000010004010B594000B4600282C
:1051D00005D0012816D014480159D80020E0032139
:1051E0001846FBF71FFE0A2250430F4A001D183ACB
:1051F00012598018012903D0022900D1C01D10BD09
:10520000001D10BD08480C380259D80FC0184110B5
:105210000B246143511840084000181A06225043DD
:10522000001D081810BD00004063010010B50949B9
:10523000094804F0BDFA07482322001F4168514382
:10524000064A891841600448801C04F039FD00209A
:1052500010BD0000B000002010300000B80B0000AE
:1052600010B5044601F0B2FE0146204604F024F9D0
:1052700010BD0000F7B51B2801DB022404E00A285A
:1052800001DB012400E00024124D134E2246029956
:105290000198FFF76BF8002801D0002C04D0641CA3
:1052A000022CF3DD0020FEBDEA682968D21DD71765
:1052B0004B007F0F0120B918CA102C274743BF1994
:1052C000FF18BF889742EEDA401C0928F5DD641C00
:1052D000DCE7000010010020705F010010B58120A4
:1052E0000749800004F042FA05480088FE2804D1EE
:1052F000044A0549012004F05FFB002010BD0000B6
:105300007C000020A96200003564000010B5084947
:10531000084804F04DFA064C06482168801C04F049
:10532000CFFC05492088096A80B28847002010BD5B
:10533000AC0000200F30000004480100F7B505461E
:1053400084B0002000900598144607197F1E00982D
:105350002DE02878002825D017490026085C029007
:10536000A00001900FE0154901980858815D02984E
:105370000818FF21FBF740FD114AA8194078515C3D
:105380004840A855761CA642EDDB204603E02918CC
:1053900049782954401C8742F9DC05E029184978EE
:1053A0002954401C8742F9DC0098401C0090059964
:1053B0008842CEDB07B0F0BD28620100300100203A
:1053C0002861010070B50446002A26D00F2A23D296
:1053D000E50A3F235B01E406ED021840E40E554365
:1053E000504354431026B21ACE0AD2B2F6025643A4
:1053F00076190D461D405543C906C90E51430A1979
:1054000028181F243111E402001121401840D20550
:10541000D20E0818801880B270BD084670BD00001A
:1054200010B51D4804F03EF91B48263004F03AF947
:105430001948413004F036F917485C3004F032F96D
:105440001648174C4168002902D0204604F038FC69
:1054500011488E3004F026F90F48C03004F022F9CC
:10546000104804F01FF90E490F4A891E012004F06C
:1054700027FB0B490C4A491E012004F021FB0B4A73
:105480002146042004F01CFB0549094AC91C0320DD
:1054900004F016FB002010BDE45C0100DC000020DD
:1054A00004700000EE5D0100DD1D000005550000E8
:1054B000B95400000020704770B5104C0E48218888
:1054C0000F4D405C01214208284604F079FB2088FA
:1054D00003214208284604F073FB284604F0D6FA5C
:1054E0002088401C80B2C11F2080F93901D10020E2
:1054F0002080002070BD0000FE5D0100DC00002067
:105500000670000010B50849084804F051F9064833
:10551000001F406801461439502903D8044980B25D
:10552000096A8847002010BDE000002004700000D8
:1055300004480100F0B5044693B0401C0A9041793C
:1055400000790B0203430A980793417A007A090213
:1055500001435818401E80B20590207AE27900027B
:1055600010430690227BE57A12022A4385186D1EAD
:10557000ADB20D956D462B816881E07BE71C00285C
:1055800004D0012805D0022805D006E0921E90B272
:1055900002E0500800E001200E90207C002804D09A
:1055A000012804D0022804D006E0012003E04808C6
:1055B00001E0491E88B2099001262046203004905F
:1055C000EFE07D4A002190680CE0099BB34202D1D4
:1055D000E37CA57C01E0637D257D1B022B430380DA
:1055E000801C491C7B7A3D7A1B022B438B42ECDAF0
:1055F0007148217E8568002913D03046FBF7FCFBFB
:1056000000290ED1002006E0E17DA27D09021143B0
:105610002980401CAD1C797A3A7A090211438142F3
:10562000F2DA65488168607E00280ED0059B079AF3
:1056300000209A1A07E0E37DA57D1B022B4345005D
:105640004B53637E18188242F5DAE07CA27C00029C
:1056500010430E9A520088525748806801900020EB
:1056600083E08000001926300C90FBF729FC855D53
:105670000146701E1090085C85422AD904994A7927
:105680000B79110219434843054615E0787A397AB7
:1056900000020843411B0ED481420CDC0F994900E3
:1056A0000A19517F127F0902114342000198121812
:1056B0006800101A01806D1C0C98FBF701FC815DDD
:1056C000049842790379100218434143A942DDDC72
:1056D00048E085422AD204984179027908021043B1
:1056E000454315E0787A397A00020843411B0ED40D
:1056F00081420CDC0F9949000A19517F127F09027F
:1057000011434200019810186A00801A01806D1C34
:105710000C98FBF7D5FB1099415C0498427903790A
:10572000100218434143A942DCDC1BE0291A04980B
:105730004279037910021843414313D14543787AE3
:10574000397A0002084385420CD84200019869006A
:105750001018411A0F9840000219507F127F000262
:10576000104308800F98401CC0B20F90617C8142AA
:1057700000D976E706990D98401A83B20F480122A6
:10578000056901990298A847A07B002803D00598D5
:105790006946801B02E069460889401C761C088126
:1057A000B6B20A98417A027A08021043B04200D990
:1057B00007E713B0F0BD000000000020680D0000F6
:1057C00010B5614CE020A168884721680020884717
:1057D0002168012088472168022088472168042029
:1057E0008847216814208847216809208847216854
:1057F0003F20884721685720884721684D208847E7
:1058000021680520884721680B20884721680920E6
:10581000884721681A20884721681D208847216809
:105820000F208847A168E120884721680020884729
:1058300021681D2088472168202088472168022090
:10584000884721680E2088472168032088472168FF
:1058500035208847216812208847216847208847DB
:1058600021680220884721680D20884721680C2084
:10587000884721683820884721683920884721686F
:105880000F208847A168C0208847216818208847D2
:10589000216816208847A168C120884721684120D7
:1058A0008847A168C520884721680020884721686B
:1058B00024208847216880208847A16836208847AF
:1058C000216808208847A1683A2088472168552028
:1058D0008847A168B0208847216800208847A168D0
:1058E000B12088472168B0208847A168B420884744
:1058F000216802208847A168B620884721680220D5
:105900008847216822208847A168E92088472168C4
:1059100000208847A168F72088472168A920884788
:1059200021685120884721682C20884721688220DF
:105930008847A16811208847782000F018F8A168EE
:105940002920884710BD00000448010000B50B461F
:10595000020008D000F028FC102806D050684360F0
:105960000020536000BD012000BD1360F8E7002156
:1059700004E00222521CFF2AFCD3491C8142F8D3C6
:1059800070470000F0B5074601200D4680074169C9
:105990008BB01646421311434161416908221143FD
:1059A00041611D4801240461C01400900221684631
:1059B0000171447169461948FFF76CFA07A802F0B3
:1059C000A3FE68468583089700258584144FC58308
:1059D00007A9384602F01CFE02A802F077FD6021FC
:1059E0006846018144810496858202A9384602F006
:1059F0005DFC0821384602F01DFD0121384602F009
:105A0000CBFA0121384602F0AFFB0121384602F003
:105A10005BFB0BB0F0BD0000C00000400000024086
:105A200000A0004010B5282000F0ECF810BD10B523
:105A3000292000F0E7F810BDF8B535493348486033
:105A4000344DCC14002221462846FFF749FBE610CE
:105A5000002231462846FFF743FB0022102128464A
:105A6000FFF73EFB6710002239462846FFF738FB58
:105A70000022A1102846FFF733FB012210212846FF
:105A8000FFF7D6FA012221462846FFF7D1FA012274
:105A900031462846FFF7CCFA012239462846FFF75F
:105AA000C7FA012251022846FFF7C2FA1A4F26010F
:105AB000002231463846FFF713FB012231463846B3
:105AC000FFF7B6FA31463846FFF77CFAAC60134C64
:105AD0000120A16888477820FFF749FFA1682820A6
:105AE0008847FFF76DFEA16820208847A16829201C
:105AF000884721690120884700225F216420FFF741
:105B000041FF07A003F0E0F8F8BD00000000FFFF30
:105B100000800240000002400000034004480100F1
:105B20004C43445F496E697420200D0A0000000058
:105B300001480068000C70470000024010B50128C1
:105B400009D04821362000F054F8044801884288E2
:105B50000280418010BD6821F4E7000000000020B1
:105B6000F8B514460546001B86B21F46332000F0E8
:105B700049F8280A00F062F8E8B200F05FF8300A4D
:105B800000F05CF8F0B200F059F8380A00F056F86E
:105B9000F8B200F053F8372000F034F8200A00F093
:105BA0004DF8E0B200F04AF8F8BDF8B507461C46DB
:105BB00015460E462A2000F025F8380A00F03EF877
:105BC000F8B200F03BF8280A00F038F8E8B200F02C
:105BD00035F82B2000F016F8300A00F02FF8F0B25C
:105BE00000F02CF8200A00F029F8E0B200F026F8C6
:105BF000F8BD10B50C4600F005F8204600F01EF880
:105C000010BD000070B50122094992028A608B150F
:105C10004B6010234B604C158C60074D054E6E6039
:105C200000040860AE604B604C604A6070BD0000CC
:105C300000000240EFFF00008080024030B50122EA
:105C4000084992024A608A154A6010224A604B1540
:105C50008B60064D044C6C6000040860AC604A60C8
:105C60004B6030BD00000240EFFF0000808002402A
:105C700010B5104803F016FD0E486C3003F012FD0D
:105C80000C48413003F00EFD0A487C3003F00AFD59
:105C90000848263003F006FD074A0849032003F0B0
:105CA0000FFF064806A21A21401C03F0EBFF00205C
:105CB00010BD0000E0480100DD52000005020000B8
:105CC000687474703A2F2F7777772E616C706861E3
:105CD0007363616C652E636F6D0000000020704778
:105CE00010B50146014802F055FC10BD00A000406F
:105CF00003490868C007FCD00248406870470000AC
:105D00000051004000500040FF21013188054161F1
:105D1000816041607047000010B50021144803F015
:105D2000CFFF13480021801C03F0CAFF1048002158
:105D3000C01C03F0C5FF0E480021001D03F0C0FF8A
:105D40000B481E210C3003F0BBFF094806210D3023
:105D500003F0B6FF06481E210E3003F0B1FF0448E1
:105D60001921C9010F3003F0ABFF002010BD000066
:105D70000330000010B50021134803F0A1FF1248C2
:105D80000021401C03F09CFF0F480021801C03F001
:105D900097FF0D480021C01C03F092FF0A486421C0
:105DA0000C3003F08DFF084864210D3003F088FFAC
:105DB000054864210E3003F083FF034803490F3088
:105DC00003F07EFF002010BD0330000064190000C6
:105DD00010B50021134803F073FF12480021401C46
:105DE00003F06EFF0F480021801C03F069FF0D488F
:105DF0000021001D03F064FF0A4832210C3003F03B
:105E00005FFF08482B210D3003F05AFF054832216F
:105E10000E3003F055FF034803490F3003F050FFE5
:105E2000002010BD033000009411000010B50021C7
:105E3000134803F045FF12480021401C03F040FFC7
:105E40000F480021C01C03F03BFF0D480021001D3E
:105E500003F036FF0A4846210C3003F031FF0848B2
:105E60003A210D3003F02CFF054846210E3003F097
:105E700027FF034803490F3003F022FF002010BD25
:105E8000033000008813000010B50021144803F00F
:105E900017FF13480021401C03F012FF1048002197
:105EA000801C03F00DFF0E480021C01C03F008FF0A
:105EB0000B480A210B3003F003FF094806210C3080
:105EC00003F0FEFE06480A210D3003F0F9FE0448F7
:105ED0001921C9010E3003F0F3FE002010BD0000AF
:105EE0000430000010B55B4803F0DCFB5948263055
:105EF00003F0D8FB57485B3003F0D4FB5548903093
:105F000003F0D0FB5348C53003F0CCFB5148FA30C6
:105F100003F0C8FB504803F0C5FB4F48353003F091
:105F2000C1FB4D48693003F0BDFB4B488D3003F099
:105F3000B9FB4948B13003F0B5FB4748D53003F011
:105F4000B1FB464803F0AEFB4448323003F0AAFBF5
:105F50004248643003F0A6FB4048963003F0A2FBB1
:105F60003E48C83003F09EFB3C48F73003F09AFBF4
:105F70003B4803F097FB3A482F3003F093FB384837
:105F80005E3003F08FFB36488D3003F08BFB35A27B
:105F90000621364803F068FB344835A20621401C30
:105FA00003F062FB314834A20421801C03F05CFB47
:105FB00033480168002902D0324803F081FE2B49A2
:105FC000314A091F012003F07BFD28492F4A0A3975
:105FD000012003F075FD25492D4A0939022003F0FF
:105FE0006FFD22492B4A0839022003F069FD1F4941
:105FF000294AC91F022003F063FD1C49274A891F53
:10600000022003F05DFD1949254A491F022003F0D3
:1060100057FD1649234AC91E022003F051FD1349BA
:10602000214A891E022003F04BFD10491F4A491ED8
:10603000022003F045FD0D491D4AC91C042003F050
:106040003FFD0A491B4A091D042003F039FD0020C9
:1060500010BD0000D7540100065601000D57010085
:1060600033580100B2CDB5F5B5C600000C300000C4
:10607000CEFCB6A5B5C60000CCA8B5C60000000091
:10608000AC000020047000007D1D0000BD60000019
:10609000895E0000195D00002D5E0000D15D0000EA
:1060A000755D0000D9600000F5600000116100001E
:1060B0000D5300002D5200000020704710B5034A18
:1060C0000349044803F078FC002010BD6161000022
:1060D000A56100000131000010B50021044803F063
:1060E000EFFD03480021401C03F0EAFD002010BD35
:1060F0000A30000010B50021044803F0E1FD034818
:106100000021801C03F0DCFD002010BD09300000E0
:1061100010B50021044803F0D3FD03480021401CC2
:1061200003F0CEFD002010BD0930000010B5034A79
:106130000349044803F040FC002010BDE55E000068
:10614000B96000000130000010B5034A0349012086
:1061500003F032FC002010BDA9620000356400008D
:1061600010B50C4803F09EFA0A48263003F09AFA5C
:1061700008485A3003F096FA074A0849012003F00C
:106180009FFC0649064A491E012003F099FC0020A5
:1061900010BD0000485401002D61000003310000D3
:1061A000496100000020704700280BD001680029D9
:1061B00000D001214068002800D00120014301D017
:1061C000202070471020704710B5034A0349044847
:1061D00003F0F2FB002010BD214A00007D4C0000BE
:1061E0000110000010B5034A0349044803F0E4FB22
:1061F000002010BD151600007517000001200000DA
:1062000010B5034A0349044803F0D6FB002010BD33
:1062100061610000A56100000131000010B5034A72
:106220000349044803F0C8FB002010BDB169000019
:10623000156A00000140000010B5034A03490448F4
:1062400003F0BAFB002010BDD9660000756700009E
:106250000150000010B5034A0349044803F0ACFBA9
:10626000002010BD3137000021380000016000001F
:1062700010B5034A0349044803F09EFB002010BDFB
:1062800021540000B55400000170000010B5034A0D
:106290000349044803F090FB002010BD951C00004A
:1062A000E51C0000611200001CB54C4803F0FAF92F
:1062B0004A48263003F0F6F948485A3003F0F2F91C
:1062C00046488E3003F0EEF94448C23003F0EAF954
:1062D0004248F63003F0E6F9414803F0E3F940485C
:1062E000343003F0DFF93E48683003F0DBF93C4816
:1062F0009C3003F0D7F93A48E13003F0D3F938483D
:10630000F13003F0CFF9374803F0CCF935482F309E
:1063100003F0C8F933485E3003F0C4F9324A022171
:10632000012003F0CDFB314A0321012003F0C8FB1B
:106330002F4A0421012003F0C3FB2E4A052101202E
:1063400003F0BEFB2C4A0621012003F0B9FB2B4AC7
:106350000721012003F0B4FB294A0821012003F0A2
:10636000AFFB284A0921012003F0AAFB264A0B2192
:10637000032003F0A5FB2548FEF772FF234C1749C5
:10638000E079703900014018E17800910190A3781C
:1063900022881FA1244802F0A7FC2348FAF789FDB0
:1063A00081B2214A0A2003F06DFC20A205210F20B2
:1063B00003F05AF9042161560C2003F081FC617945
:1063C0000D2003F07DFCA1790E2003F079FC002163
:1063D000A01E41700121017000201CBDF449010084
:1063E0001E4B01003E4C0100C9610000E561000048
:1063F000016200001D620000396200005562000069
:10640000716200008D62000039640000800000208D
:1064100025303264C4EA25303264D4C22530326477
:10642000C8D52025730000001C2200203A2020201F
:106430003A000000002070477CB51848FEF710FFB6
:10644000164C042161560C2003F03AFC61790D20B2
:1064500003F036FCA1790E2003F032FCA51E68780B
:10646000401CC0B26870152816D1E0790C490001B3
:106470004018E17800910190A378228809A10F4883
:1064800002F032FC0D48FAF714FD81B20B4A0A20E3
:1064900003F0F8FB0020687000207CBD8000002025
:1064A0008449010025303264C4EA25303264D4C204
:1064B00025303264C8D52025730000001C2200203E
:1064C00010B52449244803F073F922492248091DD4
:1064D000401C03F06DF91F491F480831801C03F070
:1064E00067F91C491C480C31C01C03F061F91949BB
:1064F00019481031001D03F05BF916491648143194
:10650000401D03F055F913487D22018812018A18B5
:1065100012490A804268531E0B2B00D88A70826889
:10652000531E1E2B00D8CA70C268182A00D80A71E0
:1065300002693B2A00D84A7140693B2800D888711B
:10654000064800F0EBFE064A0649012003F034FA43
:10655000002010BDC4000020066000008000002064
:10656000A96200003564000070B5044680780125FA
:1065700000281FD0012806D0882112A002F0A6FE14
:10658000A078002816D020781A4982089200521864
:1065900011688007C30EFF20984081436078800710
:1065A000000E9840084310602078C006C00E854059
:1065B000114805E02078C006C00E85400E488030A6
:1065C000056070BD41534D313178784253505C4D78
:1065D000313133305F5374645065726970685F4461
:1065E00072697665725C7372635C6D6973632E6346
:1065F0000000000000E400E000E100E00148006A63
:10660000704700000002004010B5314C606800285F
:1066100006D0642807D0A178002906D0401C05E0E8
:106620000121A170FAE70021A170401E0A216060DB
:10663000FAF7E2FBC2B2227061702648130002F042
:106640007EFB0B0709181A1C1E20222426280C008A
:10665000352100E0362103F0D5FA61781D480B00A2
:10666000401C02F06CFB0A181A2426282A2C2E3013
:10667000321D3721EFE73821EDE73921EBE73A21E9
:10668000E9E73B21E7E73C21E5E73D21E3E73E2160
:10669000E1E74921DFE73F2100E0402103F0B2FAC2
:1066A0000C486168801C03F00BFB002010BD4121E9
:1066B000F4E74221F2E74321F0E74421EEE74521E8
:1066C000ECE74621EAE74721E8E74821E6E7000052
:1066D000B40000200240000070B5204802F0E2FF44
:1066E0001E48F63002F0DEFF1D4802F0DBFF1B48BB
:1066F000263002F0D7FF19485A3002F0D3FF17486E
:106700008E3002F0CFFF16486B3802F0CBFF154AEF
:106710001549012003F0D4F9134C144A641F214693
:10672000042003F0CDF9FF21D2224B31204603F0A3
:1067300097FA651C0E49284603F03AF80C492046A2
:10674000091D03F035F8FF212D31284603F0B8FA72
:10675000D221204603F0B4FA002070BD9A590100FE
:10676000C75A0100AD1D0000075000007967000006
:10677000BC0000200020704710B51549154803F0F3
:1067800017F8144C1249641C091F204603F010F836
:106790000F4A121F5168D22902D308465A3010609E
:1067A000FF200F30814201D100231360814203D3C7
:1067B0000846FF380F3810600846FF384B3801D1C3
:1067C0003C2010602046116803F07AFA002010BDCA
:1067D000C000002002500000FEB50446401C417974
:1067E000027909021143427A007A150205436808CA
:1067F00002900818FAF71FFD0190217AE279090248
:106800001143227BE07A17020743780800900818AA
:10681000FAF711FD0646BD4201D9009800E0029842
:10682000FAF709FD0546E07DA17D00020843FF213E
:106830006931884202D30020A075E075E07DA17D1A
:106840000002084387000D482946C059FAF7A4FB07
:106850000199FAF748FBFAF730FD2076000A6076D6
:1068600007482946C059FAF797FB3146FAF73BFB30
:10687000FAF723FDA076000AE076FEBDE07F010076
:10688000407A0100F0B585B000287CD00446401C59
:106890004179027909021143427A037A10021843BE
:1068A0004008081880B20390217AE2790902114366
:1068B000227BE37A100218434008081885B2607EF4
:1068C000227E010203981143814201D90A4601E068
:1068D00002460846E17EA67E0B023343AB4202D954
:1068E00029461F4601E02F461946637B022B04D040
:1068F000032B14D0012B24D02DE0E37BA67B1B02BD
:1069000033437E1AB446761C171AB6B27A1C92B27A
:106910000196029300926646B3B2BAB20EE0E37BF0
:10692000A67B1B023343121A7E1A521C761C92B2AB
:10693000B6B20293009201960B46024604F0EAFFBB
:1069400009E0637C267C1B023343174EF380174B10
:106950009E683B46B047E07DA17D00020843FF21D1
:106960006931884202D30020A075E075E07CA17CEB
:10697000000208430C49C880627D2946039804F050
:1069800023FE204600E00DE0FFF726FFE07EA17E1B
:106990000302607E0B43217E02020A4329460398CC
:1069A00004F068FF05B0F0BD00000020680D000095
:1069B00010B5134802F076FE11485C3002F072FE0A
:1069C0000F48263002F06EFE0D48413002F06AFE9C
:1069D0000B48803002F066FE0948903002F062FEFB
:1069E000084A0949032003F06BF80749074A091FC1
:1069F000012003F065F806490020486010BD000042
:106A0000EF5801000966000005400000951D0000D8
:106A1000B40000200020704778B51D46059E04464E
:106A20000023521E30090CD0300900902B4620461E
:106A3000FFF7F2FF0346E41805E02170521E5B1CCD
:106A4000641C002AF9DC3007000F0A2801D230301C
:106A500004E0002D01D0373000E057302070581C82
:106A600078BDFFB5002581B00446002B01DA5E42F7
:106A700000E01E46521E1746092E14D9002B05DAD7
:106A80000A213046FAF7B8F9434204E00A213046B9
:106A9000FAF7B2F903463A4620460299FFF7E1FFBA
:106AA0000546641910E0002B06DA571E04E0029830
:106AB0002070641C6D1C7F1E002FF8DC002B03DA95
:106AC0002D202070641C6D1C0A213046FAF794F9C1
:106AD00030312170681C05B0F0BD0246002003E093
:106AE0001370401C491C521C0B78002BF8D17047C6
:106AF000FFB581B0044604980025561E0F460928AC
:106B00000FD90A21FAF778F903463246394620466A
:106B1000FFF7EEFF0546641905E02770641C6D1C45
:106B2000761E002EF9DC0A210498FAF765F9303157
:106B30002170681C05B0F0BDF8B5454904460869E8
:106B40008A69C0B2896AD6B2CFB201218907096BBE
:106B5000404AC906C90E0A3151430091002808D0A5
:106B6000012804D0022804D0032804D004E00D46F4
:106B700002E0384D00E0384D354840300168284685
:106B8000FAF73AF92146802C22D001208007081814
:106B9000902C0AD0942C08D0982C06D0B42C18D065
:106BA000B82C28D0A02949D0FEE7017800294DD083
:106BB000002E06D0012E06D0022E02D0032E04D0C5
:106BC00005E0017815E0017811E001782EE020461B
:106BD000F8BD1F484030416B002937D0002F03D04B
:106BE000012F03D0022FF2D1416B02E0416B0098DC
:106BF00014E0184812E016484030816B002925D077
:106C0000002C15D0012C0DD0022C0ED0032C0FD04F
:106C1000042C0FD0052CDAD1816B1048FAF7ECF870
:106C20000446D4E7816B2846F8E7816B0A48F5E70C
:106C3000816BDEE7816B7D200002EFE701780029A0
:106C400004D001782846FAF7D7F8F8BD0020F8BD3F
:106C500040000040001BB70010270000006CDC0261
:106C600000B50346012100F049F80021184600F064
:106C70004DF80121184600F049F800BD70B50D46E9
:106C8000044680281BD0902C19D0942C17D0982C17
:106C900015D0A02C13D0A42C11D0A82C0FD0AC2C24
:106CA0000DD0B42C0BD0B82C09D0BC2C07D0C02CE4
:106CB00005D0D02C03D0E92103A002F007FB01206E
:106CC00080072018057070BD41534D3131787842EE
:106CD00053505C4D313133305F5374645065726989
:106CE00070685F4472697665725C7372635C6D3163
:106CF0003133305F7263632E63000000012292071C
:106D0000002901D0506170479061704701229207BD
:106D1000002901D0506070479060704710B50400A2
:106D200009D0012C07D0022C05D0032C03D0A721B9
:106D300004A002F0CBFA104884610021C161012156
:106D4000C16110BD41534D313178784253505C4D93
:106D5000313133305F5374645065726970685F44D9
:106D600072697665725C7372635C6D313133305F6A
:106D70007263632E630000004000004010B50124E0
:106D80006405002807D0012803D02E2104A002F0BA
:106D90009DFA012100E000212046FFF7AFFF10BD62
:106DA00041534D313178784253505C4D313133305D
:106DB0005F5374645065726970685F447269766588
:106DC000725C7372635C6D313133305F7274632E49
:106DD0006300000010B50446800801D1002C03D1E7
:106DE000F72103A002F072FA0E48046110BD000002
:106DF00041534D313178784253505C4D313133300D
:106E00005F5374645065726970685F447269766537
:106E1000725C7372635C6D313133305F7274632EF8
:106E20006300000000F0004010B5044606218843CE
:106E300001D1002C04D1FF21253103A002F046FA34
:106E40000E496008086110BD41534D3131787842D8
:106E500053505C4D313133305F5374645065726907
:106E600070685F4472697665725C7372635C6D31E1
:106E70003133305F7274632E6300000000F0004015
:106E800070B5040007D0202C05D0302C03D06B2126
:106E900006A002F01BFA124D2B68302083432343D7
:106EA00000F084F82B6000F089F870BD41534D313B
:106EB0003178784253505C4D313133305F537464D4
:106EC0005065726970685F4472697665725C73724E
:106ED000635C6D313133305F7274632E6300000088
:106EE00000F0004010B50C4C00280BD0012803D056
:106EF0007F210AA002F0EAF900F058F82068012189
:106F0000084304E000F052F8206840084000206088
:106F100000F054F810BD000000F0004041534D3126
:106F20003178784253505C4D313133305F53746463
:106F30005065726970685F4472697665725C7372DD
:106F4000635C6D313133305F7274632E6300000017
:106F500038B51348002404704470124881688022B8
:106F6000914381600120FFF709FF0020FFF788FFB0
:106F70000320FFF72FFF0521684601700121817072
:106F80004470FFF7F1FA0121022000F075F806487D
:106F90000068C00702D10120FFF7A4FF38BD000040
:106FA000680000200002004000F0004002484168F4
:106FB000012211434160704700F0004002484168DF
:106FC000490849004160704700F00040014880686E
:106FD0007047000000F0004070B50025044601280D
:106FE00005D0022C03D0DC2104A002F06FF9104878
:106FF0000069204200D00125284670BD41534D3123
:107000003178784253505C4D313133305F53746482
:107010005065726970685F4472697665725C7372FC
:10702000635C6D313133305F7274632E6300000036
:1070300000F0004070B50120FFF7CEFF01240B4D9A
:10704000002806D0A81CFEF70BF92C700220FFF7D1
:10705000EBFE0220FFF7C0FF002806D004A001F0DD
:1070600033FE6C700420FFF7DFFE70BD6800002067
:10707000616C61726D0D0A0070B50E460446062102
:10708000884301D1002C03D151210CA002F01EF93C
:10709000174D002E0AD0012E03D0522107A002F076
:1070A00015F9FFF783FF2868204303E0FFF77EFF11
:1070B0002868A0432860FFF781FF70BD41534D3120
:1070C0003178784253505C4D313133305F537464C2
:1070D0005065726970685F4472697665725C73723C
:1070E000635C6D313133305F7274632E6300000076
:1070F00000F0004000B50346FFF758FF02488360E8
:10710000FFF75CFF00BD000000F00040F8B530481C
:10711000C269C16805688069561A6D43471A52E012
:107120002B488168C85D00284CD0A8423AD13C4623
:10713000274804E00A195278AA4202D1641CB442DA
:10714000F8DB4169BC421AD0002916DD214B5A8870
:107150008A4212DDC268D0191219002800DA002014
:107160001B88934200DA1A46824206DD1A4F8BB220
:10717000BF6892B289B280B2B847274622E00029A0
:1071800020DD144A53888B421CDDC068C0190028DA
:1071900018DD1288904215DD0F4A89B2126880B25C
:1071A00090470FE00101081AE90F491949104018EA
:1071B0002946F9F737FE0649C2B2C8684969C019BD
:1071C000FDF784F87F1CB742AADDFAF731FEF8BD5F
:1071D0004802002000000020680D0000F0B53522B4
:1071E00003465343114A9B185B5C9B061DD4891EC2
:1071F00000238C46801E0E490022CC5C6146CE18CE
:1072000004218F1A0125BD402C4201D0302100E01D
:107210002021851835277D43044F521CED19A955AF
:10722000052AEDDB5B1C052BE5DBF0BD7426002099
:10723000645F0100F7B5411C04D01D218518890148
:107240008D4202DD0020C043FEBD002101241CE070
:10725000561A2346761EB340019E334214D043187B
:10726000DE17760FF7189C46FB100A4EFF089B1995
:107270009E461E78FF006346DB1B0727FF1A234646
:10728000BB401E4373461E70491C9142E0DB2846FA
:10729000FEBD000079330020FCB51D4A0123D069F2
:1072A0000090411E12699E46002401922DE00022AA
:1072B000C0185B4210D5714400290ADB009DA94229
:1072C0000AD1691E75466D42801EAE46062802D060
:1072D00002E00021F6E70520352506466E430D4DF8
:1072E0007519AC466D5CAD06E2D40B4D0726B71A96
:1072F0002D5D0126BE40354000D002256646521C59
:107300007554082AD4DB019A641C9442CFDBFCBD7F
:1073100010010020742600206D31002010B502F00D
:107320004FF9FFF7E7FE10BDF0B500238E46844607
:1073300006260D480022C45C7046C718B01A012505
:1073400085402C4201D0302000E020206546AD1859
:1073500035214D430549521C6D18E855072AEDDBD0
:107360005B1C072BE5DBF0BD695F01007426002084
:10737000F0B5414C2168002922D0012922D00229F0
:1073800022D010210818810200220E250E4601206D
:10739000AF1A0346BB400B4204D004239F1A374B5D
:1073A000BB405940521C052AF2DB721834494A404E
:1073B0003449002306469E40164207D0302606E098
:1073C0000821DFE70021DDE71821DBE72026CF18C1
:1073D000FF37A1375B1C3E72052BEBDD530601D551
:1073E000302600E02026284BDE73160601D5302615
:1073F00000E020261E74D30501D5302600E02026AB
:10740000214B403BDE76092305469D40154201D0C5
:10741000302600E020260E25ED1A35277D436D1815
:107420005B1C2E720E2BEFDDE469002305469D40A8
:10743000154201D0302600E02026E51A35277D438D
:107440006D18403D5B1CEE74072BEFDD0D19FF3509
:107450003023A1352B70082305469D40154201D0ED
:10746000302500E02025E6187618FF3681365B1CB3
:1074700075760E2BF0DDF0BD100100203705000001
:10748000125400007426002014280020F8B50021B2
:107490000846FFF749FF4A4C0021E069C01FFFF78B
:1074A00043FFE1690020C91FFFF73EFFE069352176
:1074B000444C414300220F1984462021A318FF3376
:1074C0006133D974352353431D19831835265E4320
:1074D0003619FF3EE971C13EF177BE18FF3E1B1918
:1074E000C13EFF3331766133D9722B18203B521CD9
:1074F0001976082AE2DB00202218FF32A13211722D
:10750000352242431219401C11720928F4DB2C4E1B
:107510000020624613181D19FF35A1352970352545
:107520006B431B19FF3BA13B401C19700828F1DB82
:1075300000F0ACFA002520E04019234F407B0621E3
:10754000FFF74CFE70682C214843C0194019417B5D
:107550000620FFF743FE002706E0C1194019497BCA
:10756000407BFFF73BFE7F1C71682C20414316488F
:107570000818017BB942F0DC6D1C70682C2148436F
:1075800011494018027BAA42D6DCF169082009396A
:107590000EE0C2070FD02023352242431219937107
:1075A000C2070AD020232218FF3221329377401CD1
:1075B0008842EEDDF8BD3023EEE73023F3E700002C
:1075C0001001002074260020705F0100F8B5BEA2F3
:1075D0000121BE4802F056FBBC48BBA20121401C61
:1075E00002F050FBB948B8A20121801C02F04AFB0E
:1075F000B74C0025B548A560A580B3A20121401E67
:1076000002F040FBA560A5802178B04CAF48641D16
:107610002030651CA61CE71C0B0001F090FB050444
:107620004882C6FEFD00ABA2052102F02BFBABA2F7
:107630000221204602F026FBA9A20421284602F0DE
:1076400021FBA8A20421304602F01CFBA6A20421C3
:10765000384602F017FB9D48A4A20221093002F02F
:1076600011FB9A48A2A204210A3002F00BFB9748B2
:10767000A0A204210B3002F005FB94489EA2042135
:107680000C3002F0FFFA91489CA202210D3002F06A
:10769000F9FA8E489AA202210E3002F0F3FA8B48D2
:1076A00098A204210F3002F0EDFA97A231E097A2E0
:1076B000052102F0E7FA89A20221204602F0E2FA4F
:1076C00094A20421284602F0DDFA93A20421304658
:1076D00002F0D8FA91A20421384602F0D3FA7B488E
:1076E00082A20221093002F0CDFA78488CA204214E
:1076F0000A3002F0C7FA75488AA204210B3002F062
:10770000C1FA724888A204210C3002F0BBFA7BA2B5
:1077100038E004216D48103002F0B4FA83A204214D
:107720008CE083A2052102F0ADFA83A2022120465B
:1077300002F0A8FA77A20421284602F0A3FA76A262
:107740000421304602F09EFA74A20421384602F069
:1077500099FA5E4879A20221093002F093FA5B4857
:107760006FA204210A3002F08DFA58486DA204215C
:107770000B3002F087FA55486BA204210C3002F05E
:1077800081FA6FA2514802210D3002F07BFA4F4876
:107790006CA202210E3002F075FA4C486AA2042154
:1077A0000F3002F06FFA69A2B3E750A20121204620
:1077B00002F068FA66A20221284602F063FA65A286
:1077C0000221304602F05EFA63A20221384602F03E
:1077D00059FA3E483CA20121093002F053FA3B48D5
:1077E0005EA202210A3002F04DFA38485CA2022162
:1077F0000B3002F047FA35485AA202210C3002F051
:1078000041FA324830A201210D3002F03BFA2F48F4
:10781000022155A20E3001E014E014E002F032FA29
:107820002A4852A202210F3002F02CFA274850A217
:107830000221103002F026FA4EA2022123481F3006
:1078400002F020FAF8BD4CA20421204602F01AFAF8
:107850004AA20421284602F015FA49A20421304622
:1078600002F010FA47A20421384602F00BFA17483A
:1078700045A20421093002F005FA144843A204216C
:107880000A3002F0FFF9114841A204210B3002F046
:10789000F9F90E483FA204210C3002F0F3F90B482D
:1078A0003DA204210D3002F0EDF908483BA204216D
:1078B0000E3002F0E7F9054839A204210F3002F03A
:1078C000E1F938A2052125E700000000038000004F
:1078D0007C020020B4F3D0B4000000002C000000B3
:1078E0004142430044454600474849002E000000FD
:1078F0004A4B4C004D4E4F00505152003F0000008B
:10790000535400005556570058595A00D0A1D0B4CE
:1079100000000000616263006465660067686900DA
:107920006A6B6C006D6E6F00707172007370610035
:10793000D6D0CEC40000000061000000620000004C
:1079400063000000737400007576770078797A0020
:10795000310000003200000033000000340000005D
:10796000350000003600000037000000380000003D
:1079700039000000300000002122230024252600C9
:10798000272829002A2E2C002D2B3D003A3B2F00C2
:107990003C3E3F00405B5D005C5E5F00607B7D00C5
:1079A0007C7E0000A3ACA1A300000000F1B5354827
:1079B00082B00024C66962E000255DE035202946DA
:1079C0004143314808180090075DB80653D4029827
:1079D000030001F0B4F90705090D1017213A44001E
:1079E00020466840C00700E0E007C017401C24E0C4
:1079F0000321284601E060190321F9F713FA002951
:107A000032D019E003212846F9F70CFAE10F0919E1
:107A100049104840C0070DE020466843032101900B
:107A2000F9F700FA0198C20F1018420801985200A5
:107A3000801A0818002817D000207908022249006F
:107A40001740012F12D9012211E02046684301900E
:107A50000321F9F7E7F901984140C807EAE76019FF
:107A6000019020466843F3E70120E6E70022424008
:107A70000098114301556D1CB5429FDB641CB44254
:107A80009ADBFEBD1001002074260020F0B51F4FC8
:107A90007868062838DD00030021112504460122FC
:107AA0006E1A1346B340034204D005235E1A184BE6
:107AB000B3405840491C0629F2DB2018F969864674
:107AC000144A00208C464300C51835230021434347
:107AD0009C186E180123B3407646334201D03026FD
:107AE00000E0202667467B18E718203F7E75352783
:107AF0007B439B181F18084B491CFB185E76032913
:107B0000E7DB401C0628DEDBF0BD00001001002092
:107B1000251F000074260020A0FDFFFFF0B58BB0EC
:107B2000411C0691074680790A79030213433A7A89
:107B3000FC79150225434A7F0C7F120222430992E9
:107B40004C7A097A24020C43F81CA6466108AC461C
:107B5000447A057A24022C4364086444A5B206469C
:107B6000447D307D24025B1820439CB2002A55D00E
:107B70005A2A5DD0B42A62D013466A46FF3B14806D
:107B80000F3B558046D04008081AF9F749FB099980
:107B9000414A8900079003915158F9F7FDF9009087
:107BA0002046F9F748FB0099F9F79DF9F9F785FBAD
:107BB0003A4A039984B251580798F9F7EDF90090C1
:107BC0002846F9F738FB0099F9F78DF9F9F775FBB5
:107BD00085B23477200A7077384621300570290A3B
:107BE0004170B87D022832D0012811D16846048046
:107BF00045800698417E027E080229491043C880CC
:107C0000707D317D000208434108009803F042FF77
:107C10000BB0F0BD4008081A281AD9E769460C8055
:107C20004D807146081AC10F0818401020180CE04A
:107C30006A4640081480081A55804019C8E76A4609
:107C400040081480081A5580201A84B2C1E7707D5C
:107C5000317D000208434008211A281A83B2069891
:107C60008AB2417E047E0802797D20430C023D7D6C
:107C7000717E2C43357E09022943019400910290C4
:107C800070793479010206982143447905792002FC
:107C9000284303F0C5FBBBE79C740100F86E0100AC
:107CA00000000020FEB5817943790E021E43037A5D
:107CB000C5791B022B430093857A477A2A023A43FF
:107CC000457E077E2D023D43551B427F077F1202F2
:107CD0003A430446C11C437BC77EA07E3F02074354
:107CE0000297487A097A00020843C71B0190002BCB
:107CF00036D0B9B2104648436421F9F793F8009A98
:107D000001998918091A0298081A81B2E80F4019D6
:107D10004010801980B2A077030AE3772246203210
:107D200011700B0A5370E27C022A28D0012A16D166
:107D3000627D237D12021A43144BDA80E27EA37E19
:107D400012021A434B1ED21893B2627E247E120294
:107D50002243441E12190E4C92B2A468A047FEBDE5
:107D6000A9B2104648436421F9F75CF8F90FC91924
:107D70004A103018009980B2511889B2CBE7E27DE1
:107D8000A37D12021A4303F099FCFEBD00000020FF
:107D9000680D00007FB5012080074169C2121143C0
:107DA0004161684600F0B0FC5F20694608807D2094
:107DB000C00001900024104D0C814C80284600F03A
:107DC00027FC1021284600F08BFB0121284600F0FB
:107DD00033F901221146284600F012FA03206946C1
:107DE0000873012088734C7303A8FEF7BDFB0121C3
:107DF000284600F069F97FBD00C0004010B50021A1
:107E00000120114A80074261104B04221A60104A77
:107E10009368FF241234A34393600E4A0263C21393
:107E200003E00B46491C934202D2436B012BF8D16D
:107E30007D20C000F8F742FD04480121403801616F
:107E400000224261416110BD18080000800000401E
:107E5000000200401600008030B5254D04468BB06E
:107E6000102208212846FCF7E5FF2020FEF7F8FE47
:107E7000022208212846FDF733F902220421284670
:107E8000FDF72EF9684600F00DFF0020102101904B
:107E900000900394029109900890032106900590A8
:107EA000090260200791049001214020FEF726FF7F
:107EB0000120FEF733FF20219420FEF7DFFE0D4C5A
:107EC000204600F0A3FE6946204600F09BFDFF20FF
:107ED0000004A060E8006060052101220905204639
:107EE00000F044FD0121204600F002FD0BB030BD42
:107EF000000002400030004030B5254D04468BB0F4
:107F0000102201212846FCF795FF2020FEF7A8FE4D
:107F1000032201212846FDF7E3F803220221284627
:107F2000FDF7DEF8684600F0BDFE0020102102914A
:107F30000190009003940321099008900902069093
:107F400005900791602001210490C806FEF7D6FE37
:107F50000120FEF7E3FE20219820FEF78FFE0D4C56
:107F6000204600F053FE6946204600F04BFDFF20FE
:107F70000004A060E8006060052101220905204698
:107F800000F0F4FC0121204600F0B2FC0BB030BD43
:107F9000000002400060004070B5044613480D46E2
:107FA000844210D0124884420DD0124884420AD034
:107FB0001148844207D01148844204D0FF21DB31AC
:107FC0000FA001F083F9002D0AD0012D04D0FF216C
:107FD000DC310BA001F07AF920688021084302E02F
:107FE000206814490840206070BD000000A00040D7
:107FF00000A8004000B0004000C0004000C80040A1
:1080000041534D313178784253505C4D31313330EA
:108010005F5374645065726970685F447269766515
:10802000725C7372635C6D313133305F74696D2ED5
:10803000630000007FFF000070B504460F480D4646
:1080400084420FD00E4884420CD00E48844209D09E
:108050000D48844206D00D48844203D00C490DA03F
:1080600001F034F9280A01D1002D04D1084909A0F2
:10807000491C01F02BF9E843208270BD00A00040AC
:1080800000A8004000B0004000C0004000C8004010
:108090007709000041534D313178784253505C4D9F
:1080A000313133305F5374645065726970685F4476
:1080B00072697665725C7372635C6D313133305F07
:1080C00074696D2E6300000070B5044612480D46B9
:1080D000844210D0114884420DD0114884420AD005
:1080E0001048844207D01048844204D0112149012D
:1080F0000EA001F0EBF8002D09D0012D03D0184996
:108100000AA001F0E3F820680121084302E020689A
:1081100014490840206070BD00A0004000A8004045
:1081200000B0004000C0004000C8004041534D3145
:108130003178784253505C4D313133305F53746441
:108140005065726970685F4472697665725C7372BB
:10815000635C6D313133305F74696D2E63000000F4
:1081600021020000FEFF000070B5044612480D46D3
:1081700084420CD01148844209D01148844206D070
:108180001048844203D0104910A001F09FF84034F9
:10819000002D0BD0012D04D00B490CA0491C01F07F
:1081A00095F8A0880121C903084302E0A088400493
:1081B000400CA08070BD000000A0004000B0004056
:1081C00000C0004000C800408502000041534D310E
:1081D0003178784253505C4D313133305F537464A1
:1081E0005065726970685F4472697665725C73721B
:1081F000635C6D313133305F74696D2E6300000054
:1082000070B50446164816460D4684420FD01548F0
:1082100084420CD01448844209D01448844206D0C9
:108220001348844203D0134913A001F04FF8280AE1
:1082300001D1002D04D10F490FA0491C01F046F8CF
:10824000002E09D0012E04D00A490BA0891C01F090
:108250003DF8A089284301E0A089A843A08170BD12
:1082600000A0004000A8004000B0004000C0004056
:1082700000C80040B908000041534D3131787842C0
:1082800053505C4D313133305F53746450657269C3
:1082900070685F4472697665725C7372635C6D319D
:1082A0003133305F74696D2E63000000F8B5044609
:1082B0004C480D4684420FD04B4884420CD04B486A
:1082C000844209D04A48844206D04A48844203D0B6
:1082D00049494AA000F0FAFF288800280ED010284B
:1082E0000CD020280AD0302808D0602806D070286A
:1082F00004D02D21090141A000F0E8FF6888002882
:1083000006D0012804D03C493CA0891C00F0DEFFC7
:10831000A889002806D0022804D0374937A0C91CF4
:1083200000F0D4FF208C400840002084218CA688D7
:10833000208B7022904380082A888000024302200C
:1083400081430092A8896F880843074325488442E7
:1083500008D02648844205D02548844202D02548CA
:10836000844238D1A888002806D0042804D02249A5
:1083700022A01F3100F0AAFFE889002806D00828B3
:1083800004D01D491DA0203100F0A0FF688AC11F44
:10839000FF39FA3906D0002804D02F21090117A08F
:1083A00000F094FF288AC11FF93906D0002804D0B4
:1083B000114912A0223100F089FF08208743E88983
:1083C00004213843AF888843074319480640288A68
:1083D00030436E8A0643A680009820832889A086B1
:1083E0002784F8BD00A0004000A8004000B0004075
:1083F00000C0004000C80040CF02000041534D3192
:108400003178784253505C4D313133305F5374646E
:108410005065726970685F4472697665725C7372E8
:10842000635C6D313133305F74696D2E6300000021
:10843000FFFC000070B5044611480D4684420FD081
:10844000104884420CD01048844209D00F4884421E
:1084500006D00F48844203D00E490FA000F036FF2B
:10846000082D06D0002D04D00A490BA0491C00F0AD
:108470002DFF208B082188432843208370BD0000F6
:1084800000A0004000A8004000B0004000C0004034
:1084900000C800401105000041534D313178784249
:1084A00053505C4D313133305F53746450657269A1
:1084B00070685F4472697665725C7372635C6D317B
:1084C0003133305F74696D2E63000000002101803C
:1084D0004180818081608181C181018241827047B8
:1084E00070B5054618480C4685420FD0174885429E
:1084F0000CD01748854209D01648854206D0164848
:10850000854203D0154916A000F0E0FE002C12D0E1
:10851000102C10D0202C0ED0302C0CD0402C0AD097
:10852000502C08D0602C06D0702C04D00B490CA025
:10853000491C00F0CBFEA88870218843A880A88839
:108540002043A88070BD000000A0004000A80040AB
:1085500000B0004000C0004000C80040D60A000043
:1085600041534D313178784253505C4D3131333085
:108570005F5374645065726970685F4472697665B0
:10858000725C7372635C6D313133305F74696D2E70
:108590006300000070B504460A480D4684420FD0BF
:1085A000094884420CD00948844209D008488442D2
:1085B00006D00848844203D0074908A000F086FE90
:1085C000A58670BD00A0004000A8004000B000409B
:1085D00000C0004000C800405104000041534D312C
:1085E0003178784253505C4D313133305F5374648D
:1085F0005065726970685F4472697665725C737207
:10860000635C6D313133305F74696D2E630000003F
:10861000F8B52A4E2A4F0D460446B0420ED0BC4251
:108620000CD02848844209D02748844206D02748E5
:10863000844203D0F22126A000F048FE688800287A
:108640000BD0102809D0202807D0402805D060285A
:1086500003D0F3211EA000F039FE2889002809D09C
:10866000C11FF93906D0FF39013903D0F42118A010
:1086700000F02CFE2068B44280B201D0BC4203D18D
:1086800070218843698808431E49084029890143AD
:108690002160A888A08528882085B44208D0094890
:1086A000844205D00848844202D00848844201D15F
:1086B000A87A20860120A082F8BD000000A000401A
:1086C00000A8004000B0004000C0004000C80040CA
:1086D00041534D313178784253505C4D3131333014
:1086E0005F5374645065726970685F44726976653F
:1086F000725C7372635C6D313133305F74696D2EFF
:1087000063000000FFFC00000021C943416000211C
:10871000018001814180817270470000F0B5002323
:1087200001222F49D2028A600D158D6096018E605C
:108730001C46070601D54D6000E08D6000BF00BFFC
:1087400000BF00BF00BF00BF00BF00BF8A6000BF06
:1087500000BF00BF00BF00BF00BF00BF00BF40069A
:10876000000E4A60641CE4B2082CE2D300BF00BFD4
:1087700000BF00BF00BF00BF00BF00BF00BF00BF01
:1087800000BF00BF8A6000BF00BF00BF00BF00BFC6
:1087900000BF00BF00BF00BF00BF00BF00BF4A60F6
:1087A0008A6000200124A4035B041B0C4A6000BF04
:1087B00000BF00BF00BF00BF00BF00BF00BF00BFC1
:1087C00000BF00BF00BF0D68254201D05B1C9BB2FB
:1087D0008A60401CC0B21028E6D318094E60F0BD74
:1087E0000000034070B50125244C6D040022294689
:1087F0002046FCF775FC012229462046FCF718FCB0
:10880000AD10002229462046FCF76AFC01222946C9
:108810002046FCF70DFC6D10002229462046FCF78F
:108820005FFC002229462046FCF702FC25150022A9
:1088300029462046FCF754FC012229462046FCF735
:10884000F7FBE514002229462046FCF749FC0122EB
:1088500029462046FCF7ECFB0948016809484A6DA7
:1088600002608A6D4260CA6D82600A6EC2604A6EA2
:1088700002618A6E4261C96E816170BD0000034071
:1088800020000020002200207FB5012080074169E0
:108890008212114341616846FFF736FF5F20694647
:1088A00008807D20000101900024104D0C814C8037
:1088B0002846FFF7ADFE10212846FFF711FE0121E3
:1088C0002846FFF7B9FB012211462846FFF798FC1E
:1088D000042069460873012088734C7303A8FDF7D0
:1088E00043FE01212846FFF7EFFB7FBD00C8004093
:1088F00070B504460D480D46844209D00C488442A8
:1089000006D00C48844203D0DF210BA000F0DEFC2F
:108910000126002D07D0012D03D0E02106A000F094
:10892000D5FC666270BDA66270BD000000200040EC
:10893000003000400060004041534D3131787842B2
:1089400053505C4D313133305F53746450657269FC
:1089500070685F4472697665725C7372635C6D31D6
:108960003133305F75736172742E630070B50446E5
:10897000134816460D4684420AD01248844207D056
:108980001148844204D0FF213D3110A000F09EFC2C
:10899000A800800D02D01A48054204D0FF213E31C4
:1089A0000AA000F093FC002E08D0012E04D0FF2175
:1089B0003F3106A000F08AFC656470BDA56470BDFF
:1089C00000200040003000400060004041534D3125
:1089D0003178784253505C4D313133305F53746499
:1089E0005065726970685F4472697665725C737213
:1089F000635C6D313133305F75736172742E630067
:108A0000FFFF0FC0FEB5054600206E4E6E4F0C46B0
:108A10000190B54208D0BD4206D06C48854203D0D3
:108A20008F216BA000F052FC2069002809D020287B
:108A300007D0402805D0602803D0912164A000F021
:108A400045FC6069002805D0082803D0922160A069
:108A500000F03CFCA06900280BD0062809D00228B1
:108A600007D0822805D0862803D0932158A000F093
:108A70002DFCE069C11FF9390AD0FF39013907D04F
:108A800003210902884203D0942151A000F01EFC6A
:108A9000206A00280ED00121890388420AD04900AB
:108AA000884207D003218903884203D0952148A03A
:108AB00000F00CFC606A002807D00121C90288423E
:108AC00003D0962142A000F001FC2068002812D0BB
:108AD0000121090488420ED0490088420BD00321AD
:108AE0000904884207D001218904884203D09721D4
:108AF00037A000F0EBFB6068002812D001210905C7
:108B000088420ED0490088420BD0032109058842D3
:108B100007D001218905884203D098212CA000F0BC
:108B2000D5FBA068102805D0002803D0992128A0E3
:108B300000F0CCFB206A00280AD0B54208D0BD4224
:108B400006D02248854203D09E2121A000F0BEFB22
:108B500003208007A860286B2A4908400090B5428E
:108B600001D1902007E0BD4201D1942003E01748D5
:108B7000854203D19820FDF7DFFF01900198E1685D
:108B80008000F8F739F9810680098A0C800181029A
:108B900063692069114318430843A1690843A16828
:108BA0000843009908432863296A1748014005CC07
:108BB000A369104362691A431043E26910430843F2
:108BC0002862FEBD002000400030004000600040F0
:108BD00041534D313178784253505C4D313133300F
:108BE0005F5374645065726970685F44726976653A
:108BF000725C7372635C6D313133305F75736172B7
:108C0000742E630001C00000FF3488FF70B5044675
:108C10001448844212D0144D144EAC4205D0B442D4
:108C200015D06E2112A000F051FBAC420DD10021F5
:108C30004020FEF76BF80121402010E000212020A9
:108C4000FEF764F80121202009E0B44209D1012493
:108C5000E40600212046FEF759F801212046FEF7E0
:108C600055F870BD0020004000300040006000401A
:108C700041534D313178784253505C4D313133306E
:108C80005F5374645065726970685F447269766599
:108C9000725C7372635C6D313133305F7573617216
:108CA000742E63000021016010228260E122416085
:108CB0005202C2606022416102618161D2000162A0
:108CC000C2614162704700000FB410B503A9044BA4
:108CD000044A029800F096F810BC08BC04B018478B
:108CE000A5090000940200200FB410B504A9074B99
:108CF00002AA039800F086F8044602A9002000F0BA
:108D0000BBFA204610BC08BC04B01847799200009A
:108D10002021020C01D010211046020A01D0104679
:108D20000839020901D01046091F820801D01046F7
:108D3000891E420801D0881E7047081A704730B457
:108D40007446641E2578641CAB4200D21D46635DE8
:108D50005B00E31830BC184730B5002805D0164C2E
:108D6000021F20680023014605E0084630BD9042FE
:108D700003D8034640680028F9D1002B00D0596879
:108D8000002B0AD01C68D51AA54204D11268A41879
:108D90001A461C6002E05A6000E02260002807D0FA
:108DA0001468851AA54203D10568641914604068E7
:108DB0005060184630BD000098020020F1B50E4CFE
:108DC0000F480C4E001B0D4FC508ED000022114648
:108DD000009801F08DFE002803D13068002801D0F2
:108DE0000020F8BD3C6000202560606001203060FC
:108DF000ECE700009C0200207C3600209802002056
:108E000078760020FFB591B00F460546002606E0B3
:108E100025280AD0149A139990476D1C761C28783F
:108E20000028F5D1304615B0F0BD00240094012192
:108E3000F34A029400E004436D1C2B780846203B63
:108E400098401042F7D128782A280ED0022128789D
:108E50000246303A092A15D8009A0A235A43303A72
:108E600080180C436D1C0090F1E701CF00900028A2
:108E700005DA01204003044300984042009002209C
:108E800004436D1C28782E2815D1042004436878EB
:108E90006D1C2A280AD101CF6D1C02900BE00299AB
:108EA0000A225143303940186D1C0290287801463F
:108EB00030390929F3D928786C2810D006DC4C28E1
:108EC0001AD068280ED06A2817D104E0742813D06D
:108ED0007A2812D110E00120400504430CE0012162
:108EE000090501E0032109050C436978814203D19A
:108EF0000120000524186D1C6D1C287803906E2835
:108F00001ED00CDC632831D004DC00288AD058281D
:108F100011D1B2E064287BD069280CD178E07328A5
:108F20002DD004DC6F2870D0702804D1A7E07528FC
:108F30006CD078286BD0149A13999047761C62E015
:108F40006002400F022807D003280AD0042838689E
:108F50000AD006603F1D56E03868F1170660416090
:108F6000F8E738680680F5E70670F3E73878694671
:108F700008740020487404A80390012003E03868B6
:108F800003900020C0433F1D61070FD5002101E081
:108F90000199491C029A0191914213DA8142F7DB4F
:108FA000019A0399895C0029F2D10BE0002101E0CC
:108FB0000199491C01918142FADB019A0399895C6C
:108FC0000029F5D101990098139A401A0090214682
:108FD000149B00F03BF901998019461807E00398AB
:108FE00003990078491C0391149A139990470198AA
:108FF000401E0190401CF2D12146149B139A009808
:1090000000F014F986196D1C09E741E033E034E003
:109010000A200021049005916002410F022905D029
:1090200001CFC2179446032905D007E0FF1DFF08B2
:10903000FF0003CF06E000B2C2179446042902D114
:1090400040B2C1178C4600226146944506DA0A46B2
:109050000021404291418C462D2102E0210504D59A
:109060002B216A461176012103E0E10701D020217E
:10907000F7E7019154E00A200BE0102009E01020EE
:10908000049000210420044308200591029003E08D
:1090900008200021059104906002410F022905D0AB
:1090A00001CF00229446032906D006E0FF1DFF08E9
:1090B000FF0003CF8C4603E080B2042900D1C0B288
:1090C0000021019121072BD50399702906D0049A1C
:1090D0001021059B4A401A4305D00EE040216A4604
:1090E0001176012108E06146014306D030216A462D
:1090F00011760399517602210191049A0821059B6A
:109100004A401A430CD16146014301D1610707D59A
:1091100030216A461176012101910299491E02917E
:109120000399582904D037A103910FA90F910DE09D
:1091300039A1F9E76146059B049AF8F73BF9039BCF
:109140008C469B5C0F9A521E0F921370614601432E
:10915000F0D10F9807A9081A20300390600704D5B2
:10916000012000048443029801E001200290039949
:10917000884201DD401A00E0002041180290019869
:1091800009180098401A0090E00306D42146149B69
:10919000139A009800F05AF886190020049008E00D
:1091A00006A9085C149A139990470498401C761CF1
:1091B000049001998842F3DBE0030CD52146149B0F
:1091C000139A009800F042F8861904E0149A3020AF
:1091D00013999047761C0299481E02900029F5DCED
:1091E00008E00F980F990078491C0F91149A139971
:1091F0009047761C0399481E03900029F1DCFBE69A
:10920000092801003031323334353637383961625C
:109210006364656600000000303132333435363720
:10922000383941424344454600000000F8B5044641
:1092300000251E461746880404D405E03946202040
:10924000B0476D1C641EF9D52846F8BDFFB504462D
:10925000002581B01E46C80301D5302700E0202735
:10926000880404D505E038460399B0476D1C641E98
:10927000F9D5284605B0F0BD0A68531C0B60107084
:10928000704700001CB500216A460091918001A939
:1092900000F07CFA009A002A14D0684681880029E0
:1092A00010D0002004E0135C002B03D0401C80B2DF
:1092B0008842F8D3002805D00121034800F0D4F9F2
:1092C00001F0EEFC1CBD0000028000000A460146D1
:1092D00001A0FFF7F9FCFEE757726F6E672070611F
:1092E00072616D65746572732076616C75653A2084
:1092F00066696C65202573206F6E206C696E652031
:1093000025640D0A00000000F8B5314831490068B5
:109310000968314A401A0121C90241180020009110
:109320000B5C1354401C3828FAD32C482A4C816B10
:10933000A161C06BE061FCF7E7FCFDF75FF9C0439A
:10934000E060FCF7D5FC60612269A168244D8918B2
:10935000A269AC468B18E16800220818E16944183C
:109360001D483030014618C010391446083843688B
:109370000E681D016244AD199E1875404F685E0964
:10938000F61975400668641CAD1905608F682E01DA
:10939000F619AF187E40CF686D09ED196E40F318CD
:1093A0004360082CE3D30C490E4AC868904208D1A8
:1093B0000020820053181C6B009BD218126B944241
:1093C00001D00120F8BD401C0228F2D30020F8BDD6
:1093D000C4480100C84801008C220020C07F002042
:1093E000B979379ECFEEFFFF7CB50E46054600F0FB
:1093F00045FB02F05FFC04460168104801606168AB
:109400004160002020606060002D02D03046A847F7
:109410000646002E05D000221146104601F0A6FB9C
:109420007CBD00F02BFB0420694608802046891C87
:10943000F7F750FD684603F071F87CBD8C02002000
:10944000F8B5864600200546034605E07246D25C24
:10945000002A04D05B1CDBB28B42F7D3F8BD002B93
:10946000FCD0FF219931002200910C2716467E4343
:109470000021104F0C46F619B4460CE07646365DD6
:109480002146002E09D067467F683F5D002F04D03B
:10949000BE4202D14C1C9C42F0D98D4201D20D46F5
:1094A0001046994201D31046F8BD0099521C8A42D9
:1094B000DBD3F8BDACC70100F0B50446E120C00124
:1094C000081889B03C21F7F797FC03913C21F7F786
:1094D00093FC02911821F7F78FFC0191284940185D
:1094E000FF2100909131401C48432649F7F784FC46
:1094F00080B264210490F7F77FFC0246FF210498B4
:109500006E314843049989084018851AFF2191312A
:109510000498F7F771FC29180098461A761C0498ED
:1095200001F00EFB002802D0174F761C01E0164F09
:1095300030370125A80038581449F7F75DFCB042D0
:1095400002D26D1C0C2DF5DBADB2A800C01980381D
:10955000C06F0E49F7F750FC0399A1710299617130
:1095600001992171301AA570E0700498208000984C
:109570000721401EF7F740FC491CE17109B0F0BD1E
:10958000A7FA0A00B13A02005048010080510100D8
:1095900000487047EC000020002804D0FF219931DA
:1095A000884201D3002070470C21484301494018EC
:1095B00080687047ACC70100004870470401002074
:1095C000F0B585B0048881780491C17803910421B5
:1095D000415689B2029141790191807900901E48EB
:1095E000201887B2204601F0ABFA002801D01B4EAC
:1095F00001E01A4E3036002508E0641EA4B2204671
:1096000001F09EFA002801D06D1CADB21248404214
:109610008442F2D8124804994743890011488919B5
:1096200080394543C96F781908180E4A0399514388
:10963000091850420918E1220298120150434118BA
:1096400001983C2250434018009905B04018E12190
:10965000C901401AF0BD00004EF8FFFF504801005C
:109660008033E101805101007CB515460E4602F0C1
:1096700034FC040011D02A463146206801F0FEFD7A
:10968000050008D169460880891C2068F7F722FC8C
:10969000684602F043FF28467CBD01487CBD0000BF
:1096A0000500030008B5694601F028FE08BD00006A
:1096B0000FB430B51348A3B0007800281DD012486D
:1096C0000068002819D011480068002815D027AC80
:1096D00024220FA119A8269DF7F7B8FB23462A4696
:1096E0006421684601F03AFD642803D319A801F00B
:1096F000F9FAFEE7684601F0F5FA23B030BC08BC81
:1097000004B01847B0480100EC00002048480100B0
:10971000737464696F2E633A20696E637265617356
:1097200065204D41585F535452494E475F53495A43
:10973000450A0D007CB50D4602F0CFFB040010D0A9
:109740002946206801F04EFE050008D169460880D0
:10975000891C2068F7F7BEFB684602F0DFFE28464A
:109760007CBD01487CBD00000500030010B50C461F
:1097700002F0B3FB002804D00068214602F0C2FBCF
:1097800010BD014810BD00000500030070B514466F
:109790000D4602F0A2FB002805D0006822462946AB
:1097A00002F0CEFB70BD014870BD00000500030053
:1097B00010B50C4602F091FB002804D00068214649
:1097C00002F0DCFB10BD014810BD000005000300E5
:1097D00010B500F003F802F059FC10BD70B52E4C26
:1097E000206800281CD02D480078012807D1FFF7F9
:1097F000CFFE05462A482168006888472860294826
:10980000007801280CD1FFF7D7FE0546012021681A
:10981000400288472860000002D123A0FFF748FFDC
:10982000274C012120680905884203D225A0FFF7B3
:109830003FFFFEE72F4801682068F7F7DDFA0029AF
:1098400004D025212CA0FFF733FFFEE7364920681E
:109850000968884203D335A0FFF72AFFFEE702F02C
:1098600095FC02F0F1FB3E48FFF722FF3D48FFF771
:109870001FFF3DA0FFF71CFF41A0FFF719FFFFF7F7
:1098800043FD002806D043A0FFF712FF3448FFF73E
:109890000FFF70BD44A0F7E734480100B048010055
:1098A000B4480100B84801005152636F64654275C5
:1098B00066206D656D6F7279206E756C6C0D0A0097
:1098C000C44801007265736F7572652062617365CB
:1098D0002061646472206D757374206D6F726520F1
:1098E0007468616E20307830303130303030300D77
:1098F0000A000000C0480100464C4153485F5245F1
:10990000535F424153455F41444452202563204602
:109910004C4153485F534543544F525F53495A4556
:1099200020213D20300D0A00BC4801007265736F94
:1099300075726520626173652061646472206D7563
:109940007374206C657373207468616E20666C613B
:10995000736820746F74616C2073697A650D0A00F6
:10996000CCDA01001CDB01002A446174653A202036
:10997000202020323032312D322D32350D0A0000B8
:109980002A56657273696F6E733A2056312E312EE6
:10999000350D0A002A5374617475733A20202065CE
:1099A00072726F720D0A00002A5374617475733AF3
:1099B0002020206F6B0D0A00F7B5244F82B01646A9
:1099C000384602F075FA002808D000681630F7F71C
:1099D00077FA020002D000210846904702F06AF9A7
:1099E00005000AD02C6803E0206801F0E7FC6468F9
:1099F000002CF9D12846F8F733FA029802F0AAFEB3
:109A0000002E02D000210846B047384602F050FA36
:109A100004000BD0FF2032460230216802F0A2FC85
:109A2000FF2021680330039A02F09CFC00F026F826
:109A30000420694608802846891CF7F74BFA6846D7
:109A400002F06CFD002005B0F0BD000001800000B8
:109A500010B502F087FB02F0AFFA02F0D7FE10BD9E
:109A600010B5034A03490448FFF7A6FF10BD0000E4
:109A7000715C0000DD5C00000202000010B50248CD
:109A800002F0DCFB10BD0000C42200207CB502F017
:109A900024FA04000FD0206802F04AFC050008D127
:109AA00069460880891C2068F7F714FA684602F0B6
:109AB00035FD28467CBD01487CBD00000500030043
:109AC00070B514460E460546FFF71EFC002804D06C
:109AD00008A0FFF7EDFD012070BD304602F0FDF952
:109AE000002805D001682246284602F03BFC70BDE4
:109AF0000A4870BD4775694C696220436F6E66699C
:109B000067205461626C65205374617475733A20E8
:109B100020206572726F720D0A00000004000300BD
:109B2000F0B587B00F46064600216846018013480D
:109B300000240188684641806D46A0004019042237
:109B40000F49001DF7F782F9641C052CF5DB002492
:109B5000002E02DC0BE0052C09DAA000C119401927
:109B60000422001DF7F772F9641CB442F3DB694666
:109B7000044802F069FB07B0F0BD0000CE480100C8
:109B8000D0480100382200207CB50D4602F0A5F92E
:109B9000040010D02946206802F0C8FC050008D156
:109BA00069460880891C2068F7F794F9684602F036
:109BB000B5FC28467CBD01487CBD000005000300C3
:109BC00070B514460D4602F088F9002805D00068EB
:109BD0002246294602F0C8FC70BD014870BD000055
:109BE0000500030010B50C4602F077F9002804D0F8
:109BF0000068214602F0D6FC10BD014810BD0000EF
:109C0000050003007CB50D4602F067F904001DD085
:109C10002946032001F05EFF0D490E4A09681268CB
:109C20008918814201D90C487CBD2946206802F080
:109C3000D7FC050008D169460880891C2068F7F721
:109C400049F9684602F06AFC28467CBD03487CBDA1
:109C5000C4480100C04801000300020005000300E1
:109C600070B514460D4602F038F9002805D000689A
:109C70002246294602F0D2FC70BD014870BD0000AA
:109C8000050003007CB515460E4602F026F90400D7
:109C900011D02A463146206802F0DEFC050008D1CA
:109CA00069460880891C2068F7F714F9684602F0B5
:109CB00035FC28467CBD01487CBD00000500030042
:109CC0007CB50D4602F009F9040010D02946206841
:109CD00002F0E0FC050008D169460880891C206874
:109CE000F7F7F8F8684602F019FC28467CBD0148F1
:109CF0007CBD0000050003001CB5002069460090F3
:109D000088806A4601A90848FFF740FD009A002AAA
:109D100008D068468088002804D003480121103804
:109D2000FFF7A2FC00201CBD1180000010B51548F3
:109D3000017815480B00FFF702F8050404060B1024
:109D4000220012A205E01048C01DFFF79BFA16E0A2
:109D50000FA20121FFF788FC11E00B480DA20121A1
:109D6000801CFFF78FFF08480BA20121C01CFFF7E2
:109D700089FF054809A20121001DFFF783FF00208C
:109D800010BD00007C020020018000002C000000BB
:109D90002E0000002100000022000000230000002F
:109DA0001CB500206946009088806A4601A90848D1
:109DB000FFF7ECFC009A002A08D06846808800284B
:109DC00004D003480121C01FFFF74EFC00201CBD3A
:109DD0000880000070B52548017825480B00441C18
:109DE000851CFEF7ACFF05040F1E2F37350021A29E
:109DF0000121FFF747FF20A201212046FFF742FF84
:109E00001EA209E01EA20121FFF73CFF1DA20121B5
:109E10002046FFF737FF1CA201212846FFF732FF3B
:109E200016E0134816A20121401DFFF72BFF104832
:109E300014A201210930FFF725FF0D48012112A2CC
:109E40000D30EBE70A4811A20121801EFFF70CFC40
:109E5000002070BD0EA20121FFF714FF0DA2012109
:109E60002046FFF70FFF0CA2D6E700007C0200207F
:109E70000380000041000000420000004300000099
:109E8000610000006200000063000000310000007B
:109E90002400000025000000260000001CB5002062
:109EA0006946009088806A4601A90848FFF76EFC61
:109EB000009A002A08D068468088002804D0034809
:109EC00001210838FFF7D0FB00201CBD09800000ED
:109ED00070B52548017825480B00441C851CFEF709
:109EE0002EFF05040F1E2F37350021A20121FFF799
:109EF000C9FE20A201212046FFF7C4FE1EA209E0F0
:109F00001EA20121FFF7BEFE1DA201212046FFF780
:109F1000B9FE1CA201212846FFF7B4FE16E0134843
:109F200016A20121401DFFF7ADFE104814A2012129
:109F30000930FFF7A7FE0D48012112A20D30EBE713
:109F40000A4811A20121801EFFF78EFB002070BD80
:109F50000EA20121FFF796FE0DA201212046FFF778
:109F600091FE0CA2D6E700007C02002003800000D6
:109F700044000000450000004600000064000000AE
:109F800065000000660000003200000027000000AD
:109F900028000000290000001CB500206946009040
:109FA00088806A4601A90848FFF7F0FB009A002A5A
:109FB00008D068468088002804D003480121093869
:109FC000FFF752FB00201CBD0A80000070B5254839
:109FD000017825480B00441C851CFEF7B0FE0504E3
:109FE0000F1E2F37350021A20121FFF74BFE20A2C3
:109FF00001212046FFF746FE1EA209E01EA2012114
:10A00000FFF740FE1DA201212046FFF73BFE1CA2E8
:10A0100001212846FFF736FE16E0134816A201215B
:10A02000401DFFF72FFE104814A201210930FFF751
:10A0300029FE0D48012112A20D30EBE70A4811A2BA
:10A040000121801EFFF710FB002070BD0EA2012130
:10A05000FFF718FE0DA201212046FFF713FE0CA208
:10A06000D6E700007C0200200380000047000000CB
:10A070004800000049000000670000006800000080
:10A0800069000000330000002A0000002E000000DC
:10A090002C0000001CB500206946009088806A46AC
:10A0A00001A90848FFF772FB009A002A08D0684609
:10A0B0008088002804D0034801210A38FFF7D4FA29
:10A0C00000201CBD0B80000010B514480178144816
:10A0D0000B00FEF734FE05040409200E200011A237
:10A0E0000121FFF7C1FA16E00D480B30FFF7CAF85F
:10A0F00011E00B480CA20121801CFFF7C3FD0848AA
:10A100000AA20121C01CFFF7BDFD054808A20121DC
:10A11000001DFFF7B7FD002010BD00007C020020ED
:10A12000018000002E0000002D0000002B00000028
:10A130003D0000001CB500206946009088806A46FA
:10A1400001A90848FFF722FB009A002A08D06846B8
:10A150008088002804D0034801210B38FFF784FAD7
:10A1600000201CBD0C80000070B5254801782548F2
:10A170000B00441C851CFEF7E2FD05040F1E2F3763
:10A18000350021A20121FFF77DFD20A201212046FB
:10A19000FFF778FD1EA209E01EA20121FFF772FD64
:10A1A0001DA201212046FFF76DFD1CA201212846BA
:10A1B000FFF768FD16E0134816A20121401DFFF7C6
:10A1C00061FD104814A201210930FFF75BFD0D4825
:10A1D000012112A20D30EBE70A4811A20121801ED5
:10A1E000FFF742FA002070BD0EA20121FFF74AFDE1
:10A1F0000DA201212046FFF745FD0CA2D6E7000085
:10A200007C020020038000004A0000004B00000098
:10A210004C0000006A0000006B0000006C000000B1
:10A22000340000003A0000003B0000002F00000056
:10A230001CB500206946009088806A4601A908483C
:10A24000FFF7A4FA009A002A08D068468088002800
:10A2500004D0034801210C38FFF706FA00201CBD8A
:10A260000D80000070B52548017825480B00441C7E
:10A27000851CFEF764FD05040F1E2F37350021A253
:10A280000121FFF7FFFC20A201212046FFF7FAFC85
:10A290001EA209E01EA20121FFF7F4FC1DA201216C
:10A2A0002046FFF7EFFC1CA201212846FFF7EAFC3D
:10A2B00016E0134816A20121401DFFF7E3FC1048E9
:10A2C00014A201210930FFF7DDFC0D48012112A283
:10A2D0000D30EBE70A4811A20121801EFFF7C4F9F7
:10A2E000002070BD0EA20121FFF7CCFC0DA20121C0
:10A2F0002046FFF7C7FC0CA2D6E700007C02002036
:10A30000038000004D0000004E0000004F000000E0
:10A310006D0000006E0000006F00000035000000BE
:10A320003C0000003E0000003F0000001CB5002083
:10A330006946009088806A4601A90848FFF726FA16
:10A34000009A002A08D068468088002804D0034874
:10A3500001210D38FFF788F900201CBD0E80000098
:10A3600070B52548017825480B00441C851CFEF774
:10A37000E6FC05040F1E2F37350021A20121FFF74F
:10A3800081FC20A201212046FFF77CFC1EA209E0EF
:10A390001EA20121FFF776FC1DA201212046FFF736
:10A3A00071FC1CA201212846FFF76CFC16E0134843
:10A3B00016A20121401DFFF765FC104814A20121DF
:10A3C0000930FFF75FFC0D48012112A20D30EBE7C9
:10A3D0000A4811A20121801EFFF746F9002070BD36
:10A3E0000EA20121FFF74EFC0DA201212046FFF72E
:10A3F00049FC0CA2D6E700007C020020038000008C
:10A4000050000000510000005200000070000000E9
:10A4100071000000720000003600000040000000E3
:10A420005B0000005D0000001CB500206946009044
:10A4300088806A4601A90848FFF7A8F9009A002A0F
:10A4400008D068468088002804D0034801210E38CF
:10A45000FFF70AF900201CBD0F80000010B514485A
:10A46000017814480B00FEF76AFC05040409200E6D
:10A47000200011A20121FFF7F7F816E00D480F3078
:10A48000FEF700FF11E00B480CA20121801CFFF732
:10A49000F9FB08480AA20121C01CFFF7F3FB05489D
:10A4A00008A20121001DFFF7EDFB002010BD0000F8
:10A4B0007C020020018000003F0000005C000000E2
:10A4C0005E0000005F0000001CB50020694600909F
:10A4D00088806A4601A90848FFF758F9009A002ABF
:10A4E00008D068468088002804D0034801210F382E
:10A4F000FFF7BAF800201CBD1080000070B522489C
:10A50000017822480B00441C851CFEF718FC05044A
:10A510000A192A3230001EA20121FFF7B3FB1DA247
:10A5200004E01DA20121FFF7ADFB1CA20121204682
:10A53000FFF7A8FB1AA201212846FFF7A3FB16E0AC
:10A54000124815A20121401DFFF79CFB0F4813A2E2
:10A5500001210930FFF796FB0C48012110A20D30B4
:10A56000EBE70A480FA20121801EFFF77DF80020CB
:10A5700070BD0DA20121FFF785FB0CA20121204631
:10A58000FFF780FB0AA2D6E77C02002003800000D0
:10A59000530000005400000073000000740000002D
:10A5A0000000000037000000600000007B00000099
:10A5B0007D00000070B52548017825480B00441C3B
:10A5C000851CFEF7BCFB05040F1E2F37350021A2AA
:10A5D0000121FFF757FB20A201212046FFF752FB84
:10A5E0001EA209E01EA20121FFF74CFB1DA20121C2
:10A5F0002046FFF747FB1CA201212846FFF742FB3C
:10A6000016E0134816A20121401DFFF73BFB10483E
:10A6100014A201210930FFF735FB0D48012112A2D8
:10A620000D30EBE70A4811A20121801EFFF71CF84C
:10A63000002070BD0EA20121FFF724FB0DA2012115
:10A640002046FFF71FFB0CA2D6E700007C0200208B
:10A650000380000055000000560000005700000075
:10A660007500000076000000770000003800000050
:10A67000000000007C0000007E00000070B525484E
:10A68000017825480B00441C851CFEF758FB050487
:10A690000F1E2F37350021A20121FFF7F3FA20A268
:10A6A00001212046FFF7EEFA1EA209E01EA20121B9
:10A6B000FFF7E8FA1DA201212046FFF7E3FA1CA2EA
:10A6C00001212846FFF7DEFA16E0134816A2012101
:10A6D000401DFFF7D7FA104814A201210930FFF7F7
:10A6E000D1FA0D48012112A20D30EBE70A4811A260
:10A6F0000121801EFEF7B8FF002070BD0EA20121CF
:10A70000FFF7C0FA0DA202212046FFF7BBFA0CA208
:10A710000221D6E77C0200200380000058000000E0
:10A72000590000005A000000780000007900000085
:10A730007A0000003900000000000000A3AC000017
:10A74000A1A300001CB500206946009088806A46DD
:10A7500001A90848FFF71AF8009A002A08D06846AD
:10A760008088002804D0034801211138FEF77CFFBF
:10A7700000201CBD1280000010B50548034A418826
:10A78000002000F0F3F9002010BD0000018000005F
:10A790007C02002010B50548034A0188002000F023
:10A7A000E5F9002010BD00000180000088020020B3
:10A7B0007CB50020694600908880124C6A4601A949
:10A7C0002046FEF7E3FF009B601E002B16D0694673
:10A7D0008A88002A12D0002104E05D5C002D03D09D
:10A7E000491C89B29142F8D3002907D001212046A3
:10A7F000FEF7A0FF00F054FA00207CBD0121FEF717
:10A8000099FFF9E70280000010B501210248FEF728
:10A8100091FF002010BD00000180000010B5054828
:10A820000178032903D003210170FCF7CFFE00203B
:10A8300010BD00007C02002010B50548034A418885
:10A84000012000F093F9002010BD000001800000FD
:10A850007C02002010B50548034A0188012000F061
:10A8600085F9002010BD0000018000008802002052
:10A8700010B5064801780648032905D005A2012134
:10A88000FEF7F2FE002010BD03A2F8E77C020020D4
:10A8900001800000200000003000000010B50548D5
:10A8A0000178042903D004210170FCF78FFE0020F9
:10A8B00010BD00007C02002010B509480178022973
:10A8C00002D94178017007E0491CC9B20170022920
:10A8D00001D9002101704170FCF778FE002010BD05
:10A8E0007C020020F0B58BB007460024A0007E4912
:10A8F000C61948780B78B28800021843824201D307
:10A90000012300E00023CD788878F28829020143F2
:10A910008A4201D3012000E00020034338D00D20FB
:10A92000264646437148815D00297DD03518691C53
:10A9300004226846F6F78AFA009801F0BFF9002869
:10A9400014D001684A780B7811021943CAB2152A4B
:10A950000CD80906090E09D002216A461180006848
:10A960006944F6F7B7FA684601F0D8FD5F49002060
:10A970008855681C04225C49F6F768FA681D0422B1
:10A980005949F6F763FA2846093004225649A3E0EC
:10A990000D20254645435548415D002913D02D180B
:10A9A00028460930311D04220290F6F74FFAA979A2
:10A9B0006A7909021143AA7A6B7A1002184381421C
:10A9C0003AD3081A39E04948311D281800900290FE
:10A9D0000422401CF6F73AFA02980422411C01A80E
:10A9E000F6F734FA019801F069F9002814D00168EB
:10A9F0004A780B7811021943CAB2152A0CD80906F5
:10AA0000090E09D001216A4691800068911DF6F770
:10AA100061FA01A801F082FD3448012141550098F6
:10AA2000311D0422401D00E058E0F6F70FFA0098AF
:10AA3000311D042209304FE0401A297AEB7982B2A5
:10AA40000902E81C19430346287B1B7A00021843BD
:10AA5000814201D3081A00E0401A80B2082A01D3CB
:10AA6000012100E00021082801D3012000E000209E
:10AA7000014333D0042201A80299F6F7E7F9691DD2
:10AA800004226846F6F7E2F90199009801F07CF992
:10AA900006001ED033685878197800020843C1B206
:10AAA000152916D80106090E13D0400411D50298B5
:10AAB0000790069306AA0021184601F009FE00201F
:10AAC0006946088422313068F6F704FA08A801F0D4
:10AAD00025FD681D04220299F6F7B8F9641C052CBF
:10AAE00000D203E70BB0F0BDD0480100482200209F
:10AAF000F8B50B30C608F600104D19E02068B042DA
:10AB000015D3B0420BD96368871B201D0093F6F75D
:10AB10009DF9A019009B07604360286004E060680D
:10AB20002860201DF6F792F9201D2660F8BD251D2E
:10AB30002C68002CE2D10020F8BD00009802002013
:10AB400010B50446800705D164212046F6F754F974
:10AB5000002908D1FF2191312046F6F74DF900294F
:10AB600001D0002010BD012010BD0000F7B584B059
:10AB70001746064601F09EF805460024301E26467C
:10AB800024D06846009686806A4601A93846FEF7BA
:10AB9000FDFD0098002819D068468088002815D04F
:10ABA00022480168002911D0214F388888470400C5
:10ABB0000CD0002006E03988884207D20099095C51
:10ABC0002154401C694689888842F4D3002D0AD05C
:10ABD0002F6803E0386800F0F1FB7F68002FF9D19F
:10ABE0002846F7F73DF91348016829604168696014
:10ABF00006604660FEF742FF0420694608810A317C
:10AC00002846F6F767F902A801F088FC002C0BD063
:10AC10000748224601880598FFF734F80348416841
:10AC2000002901D02046884707B0F0BD3448010014
:10AC3000D44801008C020020FDF7ACF8E124640246
:10AC40002046FDF709F92046FDF756F90CA0FEF75E
:10AC50003BF8FAF7F1FEFDF7C5FD0DA0FEF734F85D
:10AC6000FCF776F9FEF7B4FDFDF70EFEFEF7F8FEF1
:10AC700064225F211046FAF785FEFEF7E9FEFCE745
:10AC800053746172742041505020200D0A0000005E
:10AC9000546F756368496E697420200D0A000000C6
:10ACA0007CB50E4D0024AC806846009484806A46D2
:10ACB00001A90B48FEF76AFD009800280BD06946F1
:10ACC0008988002907D0C9B2FEF7BAFBA860022024
:10ACD00000F0DAF97CBDAC607CBD00007C02002095
:10ACE0000280000070B50446054D04E02A68012189
:10ACF00020469047641C20780028F7D170BD0000E2
:10AD00004848010010B50022054B05E01C6A2401EB
:10AD1000FCD5845C1C61521C8A42F7D310BD000034
:10AD20004030004030B589B014460546002911D0A6
:10AD300020220B496846F6F789F86807E9080028D9
:10AD40000AD06A07D20E6B46D218803A605CD26F86
:10AD50005040605409B030BD491E605C079AF7E767
:10AD60004C630100FFB5A04F8FB00446386000204F
:10AD70000D46C043FF21B8601E4661311898F6F7B2
:10AD80008DF8002E01D0304602E01198F6F791F8C8
:10AD9000002828D0024628461199FAF76BFA786104
:10ADA000002820D0002D04D0A8421CDC28467D605D
:10ADB00000E078602C2148438C4D61004019401818
:10ADC0008688F868F1000A1A042A00DA04220021B1
:10ADD000FCF730FAF860C01DC217520FEC211018B2
:10ADE000C010834F08E00020C04313B0F0BD3954B9
:10ADF000EC2921D0EC21401CB042F8DB7A482C220F
:10AE0000416851434D1969880161FF212531794815
:10AE1000F6F744F86100611869180991CA7C079235
:10AE2000CB7F00200B93D4184D7D20310D914978B4
:10AE300003918446014614E01121DCE76D4A0021AC
:10AE40006346D31806E06A4A175C22464A43401C10
:10AE5000D754491CA942F6DB6146491C8C46714611
:10AE6000491C8E4607998E45E8DB00218E46214617
:10AE700069430C911DE05F4A00216346D318724478
:10AE80000E930A920CE05A4AA942175C03DA224652
:10AE90004A430E9B01E00A9B0C9A401CD754491C64
:10AEA000039A9142EFDB6146491C8C467146491C6E
:10AEB0008E460B998E45DEDB0998007D401B0A907B
:10AEC0000D9801780398081A0990002004900890C2
:10AED00029E047489921E830F5F7E0FF4448049914
:10AEE0002A464118E830F5F7B1FF41482946E830D5
:10AEF0000A9AFAF723FA089A00203E49B21807E0A6
:10AF00003B4BE8331F5C234643435B189F54401C74
:10AF10000A9B9842F4DB0498401904900898401C5E
:10AF200008900298401C029007998842D1DB0020CB
:10AF30002AE02F489921E830F5F7B0FF2C48049912
:10AF4000039A4118E830F5F781FF2948099AE8305B
:10AF50000399FAF7F3F9264B08990020E833254ABC
:10AF6000751805E0214641431F5C89184F55401C68
:10AF700009998842F6DB0499039808180490089808
:10AF8000401C08900298401C0B9902908842D0DB2C
:10AF9000154D686880001130E861F9F7F7FC00246E
:10AFA00016E0214635225143134A00258F18661CAE
:10AFB00009E0795D002911D0684380190121189AB0
:10AFC000FFF7B0FE6D1C0848C0698542F1DB641CC8
:10AFD0000548C1698C42E4DBC06906E76843801913
:10AFE0000021189AECE7000010010020705F0100BA
:10AFF000793300206D31002074260020F3B583B032
:10B0000005001AD028680190284680380290C76F42
:10B0100004983E1F864200D906462846FDF79CFE4E
:10B0200004460091324629460498FFF761FD0199D4
:10B03000002806D0016005B0F0BD0498FDF7BEFE03
:10B04000F9E729600299002CCF670AD021686218BD
:10B05000291F8A4202D9291B091F216000996160BA
:10B06000E9E7024A00991160E5E700009802002034
:10B0700010B5002000F008F8002010BD10B5012028
:10B0800000F002F8002010BDF8B52C4C0546A06871
:10B0900000284CD0FEF780FA06460020315C0029DB
:10B0A00002D0401C80B2F9E7002E40D00021002DD4
:10B0B00002D0012D0AD106E0A288921D92B2A28090
:10B0C000824203D206E0A088062801D2A18001E0D6
:10B0D000801FA0801B4F1AA201213846FEF7D2FD27
:10B0E00017A20121781CFEF7CDFD15A20121B81C85
:10B0F000FEF7C8FD0025A08869000918715C0029C9
:10B1000015D0002D04D0012D06D0022D10D00AE05C
:10B1100082190221384604E0801C82190948022164
:10B12000401CFEF7AFFD6D1CEDB2032DE3D3F8BD5F
:10B13000001D821903480221801CF2E77C020020D6
:10B14000000000000380000010B59020FDF7E6FA33
:10B1500010BD10B5D020FDF7E1FA10BDFFB50025F8
:10B1600081B004462E46002878D0267076E0252847
:10B1700002D02070521C0CE05078252806D0571CB5
:10B18000527820210020302A06D00DE025202070A2
:10B19000921C641C6D1C61E0302104E00A235843BA
:10B1A00030381018C0B27F1C3A781346303B092B58
:10B1B000F4D9029A2B18934201D9501BC0B23A78A5
:10B1C000692A10D006DC582A29D0632A3CD0642A88
:10B1D00006D108E0732A2ED0752A0ED0782A16D010
:10B1E000002005B0F0BD049A121D0492121F1368CE
:10B1F00002462046FBF735FC2DE0049A121D04920E
:10B20000121F136802462046FBF772FC23E0049AE3
:10B21000121D0492121F12680023009206E0049A85
:10B22000121D0492121F126801230092024620464A
:10B23000FBF7F2FB0FE00498001D0490001F01686B
:10B240002046FBF74AFC06E00498001D0490001F0E
:10B250000078207001207A1C24182D1810780028FE
:10B2600002D002998D4282D30298854201D2267083
:10B2700002E0641E26706D1E2846B2E730B4002836
:10B280000ED0437805781C022C43E3B2152B0AD864
:10B290002406240E07D0054C9B00E35830BC184709
:10B2A000034830BC70470348FBE70000E06B010037
:10B2B000010001000100030070B50E4C0B46217027
:10B2C00000250121002B04D0012B04D0022B08D033
:10B2D00002E00D4600E00D430026354303D06370C5
:10B2E00002E00126F9E76170608011460248FEF72E
:10B2F0007BF870BD7C0200201931000070B50D464E
:10B3000004001CD06078227801021143C8B21528CD
:10B3100017D80806000E14D0E278A0781202024373
:10B3200009A0FEF7C5F961782278080210430006EB
:10B330000E49800D0A5829462046904770BD0C489A
:10B3400070BD0C4870BD0000437265617465207764
:10B35000547970653A203078253038782077494420
:10B360003A203078253038780D0A0000186801003E
:10B37000010001000100030010B51446002903D0AC
:10B38000012906D0064810BD1A462146FFF794FF52
:10B3900003E01A46214600F005F8002010BD000029
:10B3A00001000600114610B5024A10800248FEF75F
:10B3B0001BF810BD880200207132000000280DD05B
:10B3C0004178027809021143CAB2152A06D8090643
:10B3D000090E03D09100024A5158084770470000F7
:10B3E000286A010030B400280ED042780478130295
:10B3F0002343DAB2152A0AD81B061B0E07D0054BC9
:10B4000092009A5830BC1047034830BC704703483C
:10B41000FBE70000386C010001000100010003009F
:10B42000FFB5494895B0C0681F99C003000C019052
:10B430001D4617461E9E032000F04CFB0446314675
:10B44000032000F047FB064640480168404800687A
:10B450000918A14201D8B14205D93E48FEF728F9A2
:10B460003D4819B0F0BD3D4808220068241A214625
:10B4700008A8F5F7EBFC394808220068361A31466F
:10B4800006A8F5F7E3FC16980836291A12966846BE
:10B49000408C0C90414315980834381A0818400025
:10B4A0000619684607824582408B0090014602904B
:10B4B0000198F5F7A1FC01906846808B0199F5F79A
:10B4C0009BFC002504461391002900D0441C6D1CF0
:10B4D000A54202D3139825460190029A01990C9F28
:10B4E0005143009B00208C461749FB1A5B0089687A
:10B4F00002469E4612E0129B209F1B88BB4200D151
:10B5000033880B80129B401C9B1C1293009B891C50
:10B51000B61C834201D876440020521C6245EAD30F
:10B520000948009A8168019883B20D480769049818
:10B53000B8476946498A0198081869464882A54271
:10B54000C5D100208DE7000000000020C4480100A4
:10B55000C0480100B0DB010003000200C848010040
:10B56000680D0000F7B51749104648437D21144681
:10B57000C900F5F741FC451C2046604361084618A8
:10B58000274600233A4601990098F8F7B1F90124BB
:10B5900014E020463946604379434018B04206DD46
:10B5A0003B46224601990098F8F7A2F97F1E3B46D8
:10B5B000224601990098F8F79BF9641CAC42E8DD3B
:10B5C000FEBD0000C3020000F7B506462F49104635
:10B5D00048437D2184B01446C900F5F70DFC401C9A
:10B5E00000902046604361084018029030192849B5
:10B5F00082B2059B301B8D6880B21946A847012591
:10B600003EE0284621466843614341180298814242
:10B610001DDD0098844219DD05981D4F0119701930
:10B62000401E82B20390701B401C01908BB2BF6819
:10B6300089B280B2B8470598154F011B03988BB2A9
:10B6400082B20198BF6889B280B2B847641E05987B
:10B65000311940198AB2039183B281B2301B0C4F69
:10B660000190BF6880B2B84705980399401B8AB221
:10B6700083B281B2064F0198BF6880B2B8476D1C93
:10B6800000988542BDDD07B0F0BD0000C302000098
:10B69000680D000000280DD041780278090211439E
:10B6A000CAB2152A06D80906090E03D09100024A2B
:10B6B000515808477047000070680100F8B50C4603
:10B6C00005461146032000F005FA1C490A681C498A
:10B6D00009685118814204D91A48FDF7E9FF1A4850
:10B6E000F8BD1A490968411AC8788B7802021848CF
:10B6F0001A4306885319B34201D9012600E00026F7
:10B700004B790F791B023B4340881F19874201D9AF
:10B71000012000E00020064305D00EA0FDF7C8FF81
:10B720000948801EF8BD68460580448013480831EA
:10B7300004690098A0470020F8BD0000C44801003B
:10B74000C0480100B0DB010003000200C84801004E
:10B75000000000207744697370496D616765A3BA82
:10B76000204755495F444953505F494E56414C4923
:10B77000445F4C4F43200D0A00000000680D00009C
:10B78000FFB581B01E46174603200A9900F0A2F9C2
:10B7900026490A68264909685118814205D9254871
:10B7A000FDF786FF244805B0F0BD24490968411A19
:10B7B000C8788B78020201981A431318204804882D
:10B7C000A34201D9012400E000244B790D791B022A
:10B7D0002B43029D40885D19854201D9012000E07C
:10B7E0000020184D044303D017A0FDF761FF03E0CC
:10B7F000BA4201D8B34201D92846D4E7B81AC40FD7
:10B8000020184410019820186C462080F01AC40FAC
:10B8100020184410029820186C46608014480831A3
:10B8200004690098A0470020BDE70000C44801005B
:10B83000C0480100B0DB010003000200C84801005D
:10B8400000000020010002007744697370496D61B7
:10B850006765A3BA204755495F444953505F494E35
:10B8600056414C49445F4C4F43200D0A00000000F4
:10B87000680D0000F0B587B00024161A01905D1A1B
:10B88000601E274604940091002E01DD012108E08E
:10B89000002E05D076420390002D04DD01200BE040
:10B8A00000210391F8E7002D05D06D420290AE42D1
:10B8B00004DD344603E000200290F8E72C46002027
:10B8C0000590601C069005981DE00098104A81B212
:10B8D0000198126880B2904704987F1980190490EB
:10B8E000A04205DD001B04900399019840180190C7
:10B8F000A74204DD029900983F1B4018009005986C
:10B90000401C80B2059006998842DEDD07B0F0BD8C
:10B91000680D0000FFB583B003200C9E0D9D0E99AD
:10B9200000F0D8F82C492D4A09681268891881421C
:10B9300002D92B4807B0F0BD2A490968441A039878
:10B94000811929480288914201D9012100E0002192
:10B95000049A40885219824201D9012000E0002057
:10B96000014317D1E2780598A37811028019194391
:10B97000884201D9012000E00020069A2779531956
:10B98000627912023A43934201D9012300E0002375
:10B99000184302D01248801ECCE71148401C0029F1
:10B9A000C8D0002AC6D0002EC4D0002DC2D0684610
:10B9B000039A8280049AC28006814581059A02809A
:10B9C000069A42800948029B456920460830019A40
:10B9D000A8470020AEE70000C4480100C0480100AD
:10B9E00003000200C848010000000020680D0000AC
:10B9F000FFB581B01E460D4C029BA568074619464F
:10BA0000039AA8473A46A568334610460299A847C4
:10BA10003346A56819463846039AA847039AA4688E
:10BA2000334610460299A04705B0F0BD680D0000EE
:10BA300030B4024CA468A44630BC6047680D0000D6
:10BA4000FFB581B00D46684681880A9C481B2A19BB
:10BA500089180FB20E49001B096800B20091F5F772
:10BA6000E1F906B238460099F5F7DCF901B2304643
:10BA7000F6F730F8002808D000942946049B039A72
:10BA80000198F7F77BFFFBF741FB05B0F0BD000025
:10BA900048020020F3B50C4681B00D496846858800
:10BAA0000968281B0E46F5F7BDF9074628193146E7
:10BAB000F5F7B8F901B238B2F6F70CF8002805D05E
:10BAC00021460198F8F726FBFBF720FBFEBD00009E
:10BAD00048020020F3B5284E284C3068216883B016
:10BAE000401845182648C168002904D00B460C228E
:10BAF0000021684698472348234F00682D1AB868EC
:10BB0000002804D003460C22694628469847684618
:10BB10000088002809D00021019A002A07D00022BD
:10BB20001143092805D3012204E00121F4E7012291
:10BB3000F6E700221143019A521C08D0002211435B
:10BB400007D012A0FDF7B4FD002005B0F0BD012222
:10BB5000F5E7039988420DD16846418804988142EF
:10BB600008D1029831684118206808300818114936
:10BB70004860EAE70C35C2E7C4480100C04801004C
:10BB800034480100C8480100284801007745787012
:10BB90006C6F7265722D3E5265736F7572636520AE
:10BBA000736561726368205461626C6520656E64C0
:10BBB000210D0A00F0000020F7B52F482F4E006835
:10BBC000316884B0401845182D481446C1680029D2
:10BBD00004D00B460C2200216846984729482A4F7A
:10BBE00000682D1AB868002804D003460C22694664
:10BBF0002846984768460088002809D00021019A05
:10BC0000002A07D000221143092805D3012204E0AD
:10BC10000121F4E70122F6E700221143019A521CA8
:10BC200008D00022114307D018A0FDF741FD0020E5
:10BC300007B0F0BD0122F5E7049988421AD16846A1
:10BC400041880598814215D1684600882070000A15
:10BC5000607068464088A070000AE070211D01985D
:10BC6000F5F738F904480299006809183068083077
:10BC70000818DDE70C35B5E7C4480100C0480100ED
:10BC800034480100C8480100284801007745787011
:10BC90006C6F7265722D3E5265736F7572636520AD
:10BCA000736561726368205461626C6520656E64BF
:10BCB000210D0A000048704708010020F1B500205E
:10BCC00082B004460090FFF7F5FF002857D0694680
:10BCD000098900688C4669464A894BE00168002959
:10BCE00047D04B780D781B022B439E461B0440D552
:10BCF000244DAE4501D100903BE08B794E791B027B
:10BD00003343491D9C4501D3012500E000254E79B0
:10BD10000F7936023E439B19634501D3012300E0AE
:10BD200000231D40CB788E781B0233439A4201D307
:10BD3000012600E00026CF7989793F020F43D91907
:10BD4000914201D3012100E000210E40354210D084
:10BD50000C4BDB1D9E4501D1012100E00021094C67
:10BD60000834A64501D1012300E00023194306D081
:10BD7000044640680028B1D1002C01D02046FEBD09
:10BD80000098FEBD01800000F3B5002087B0044696
:10BD90000590FFF78FFF002871D06A460068118C6C
:10BDA0000391518C8E46918BD28B944675E002683C
:10BDB000002A71D0537815781B022B4304931B047F
:10BDC0006AD53A4D049BAB4201D1059064E0521D07
:10BDD0000092557812782D021543039B0295AB42D1
:10BDE00001D3012200E000222E46009D6F792D79BB
:10BDF0003F022F43F319039D0693AB4201D3012366
:10BE000000E00023009E1A40F578B6782D023543F5
:10BE10000195AE4501D3012500E00025009B019E60
:10BE2000DF799B793F021F43F319734501D3012644
:10BE300000E0002635402A40029DA94201D3012599
:10BE400000E00025069E8E4201D3012600E0002678
:10BE500035402A40019DAC4501D3012500E0002575
:10BE6000634501D3012300E000231D402A4213D083
:10BE70000E4B049ADB1D9A4202D1012201E011E02F
:10BE800000220A4C049B0834A34201D1012300E0A4
:10BE900000231A4306D004464068002887D1002CAE
:10BEA00002D0204609B0F0BD0598FBE701800000F4
:10BEB00010B50446FFF7FEFE00280DD0006809E02B
:10BEC0000168002905D04A780B7811021943A14274
:10BED00002D040680028F3D110BD10B50446FFF72A
:10BEE000E9FE00280DD0006809E00168002905D0AE
:10BEF000CA788B7811021943A14202D04068002809
:10BF0000F3D110BD30B400280ED04278047813026B
:10BF10002343DAB2152A0AD81B061B0E07D0054B9D
:10BF200092009A5830BC1047034830BC7047034811
:10BF3000FBE70000486E0100010001000100030062
:10BF400030B400280ED0437805781C022C43E3B2AD
:10BF5000152B0AD82406240E07D0054C9B00E35865
:10BF600030BC1847034830BC70470348FBE700006B
:10BF7000906C0100010001000100030030B40028B2
:10BF80000ED04278047813022343DAB2152A0AD875
:10BF90001B061B0E07D0054B92009A5830BC104769
:10BFA000034830BC70470348FBE70000406D0100C8
:10BFB00001000100010003001CB56946214800F0A2
:10BFC0008BF900280FD1684601880B00FCF7B7FEFB
:10BFD00005040C141C240B00801CF4F771FF0022D4
:10BFE000114600F0A1FB1CBD801CF4F769FF002284
:10BFF000114600F00DF91CBD801CF4F761FF002212
:10C00000114600F0CDF91CBD801CF4F759FF002249
:10C01000114600F073FB1CBD801CF4F751FF04684F
:10C020000DE020684178027809021143CAB2152A4E
:10C0300004D80906090E01D0FFF72CFB6468002C18
:10C04000EFD11CBDC422002010B5062240210548B6
:10C0500000F026F9002803D003A0FDF729FBFEE736
:10C0600010BD0000C42200206572726F723A696EC2
:10C070007075744D736751756575652068617320BF
:10C080006E6F74206D656D6F72790000FEB5234888
:10C09000016823480268234889188C18C168002960
:10C0A00004D00B460C220021684698471E481F4EBC
:10C0B0000068251A0024B068002804D003460C222A
:10C0C00069462846984768460188002909D000201B
:10C0D000019A002A07D000221043092905D3012222
:10C0E00004E00120F4E70122F6E700221043019A60
:10C0F000521C07D00022104306D021460CA0FDF7A9
:10C10000D7FAFEBD0122F6E7684642881448641C4F
:10C11000019BFDF7CDFA0C35CDE70000C4480100C6
:10C12000C048010034480100C84801002848010007
:10C13000774578706C6F7265722D3E5265736F75BE
:10C14000726365205461626C6520656E64212052C3
:10C150006573436F756E74203D2025640D0A0000E1
:10C1600068DB010000B587B06946074800F0B4F805
:10C17000002806D168460088002802D16846FEF7EC
:10C18000B1FB07B000BD000038220020F8B514480C
:10C1900018220188134800F083F8002803D012A069
:10C1A000FDF786FAFEE700240E4D264610352046A0
:10C1B0000D2148432E544719781C04221349F4F7E3
:10C1C00045FE781D04221149F4F740FE3846093037
:10C1D00004220E49F4F73AFE641C052CE7D3F8BD9F
:10C1E000CC480100382200206572726F723A696E85
:10C1F0007075744D7367517565756520686173203E
:10C200006E6F74206D656D6F72790000D04801000B
:10C2100030B400280ED0437805781C022C43E3B2DA
:10C22000152B07D82406240E04D0034C9B00E3589A
:10C2300030BC184730BC70472069010000210180E4
:10C24000418081807047000070B50446C0680028B6
:10C2500009D020886288904207D1A088E288904265
:10C2600003D10D4870BD0D4870BD002006E0638805
:10C270000D5C5343E2689A188554401C228982421F
:10C28000F5DC6088E188401CF4F7B6FD6180A08889
:10C29000401CA080002070BD0100040001000100CE
:10C2A00010B50446002020806080A080E1802281BB
:10C2B000074BE0601868002806D00846196850430C
:10C2C0008847E060002801D0002010BD014810BD63
:10C2D000344801000100010010B50446C068002880
:10C2E00008D020886288904202D1A088002803D01C
:10C2F00000200AE00C4810BD0C4810BD23885343B1
:10C30000E2689A18825C0A54401C22898242F5DC59
:10C310002088E188401CF4F76FFD2180A088401E32
:10C32000A080002010BD00000100010002000400F8
:10C3300000280DD04178027809021143CAB2152AAB
:10C3400008D80906090E05D09100034A515808473C
:10C350000248704702487047A06E010001000100CA
:10C360000100030030B400290ED04B780D781C0278
:10C370002C43E3B2152B0AD82406240E07D0054C13
:10C380009B00E35830BC1847034830BC7047034853
:10C39000FBE70000306B0100010001000100030019
:10C3A00030B400280ED0437805781C022C43E3B249
:10C3B000152B07D82406240E04D0034C9B00E35809
:10C3C00030BC184730BC704778690100F7B590B0B1
:10C3D0000E46012069464D4C8881E06815460028CC
:10C3E0000ED003461022002101A898470C22E368D2
:10C3F00000210BA898470822E368002108A8984765
:10C40000434C2088854204D1083407CC0992089116
:10C410000AE00BAA29460420FFF7CEFBA060099A88
:10C4200008992261E1602580002863D039490A68B3
:10C4300090425FD3851A0C9810380C90364881686A
:10C44000002957D08368082208A9284698476846DB
:10C45000038C8380448CC480828C0281C18C418196
:10C46000D8085B0700D0401C4C43444310041BD544
:10C470000027A41D083511E02748022283680AA975
:10C48000284698476846008DB04204D1AD1D002073
:10C49000694604952DE02D197F1CBFB238460C99D2
:10C4A00060438842E8D325E00021330AC943241DB4
:10C4B000F0B2A12B0ED3FE2B0CD8A1280AD3FE2854
:10C4C00008D8012A1CD0A13BD9B2A1385E22C0B243
:10C4D0005143091800206A4690814C430C3560197D
:10C4E00004900220002900DA90810C998C4201D33B
:10C4F0001146888101AD1ECD10981EC013B0F0BD4D
:10C50000A32BE7D1A038C1B2E4E700003448010012
:10C51000F0000020C84801002848010010B501467D
:10C520000148FFF791FE10BDC422002030B400285E
:10C530000ED04278047813022343DAB2152A0AD8BF
:10C540001B061B0E07D0054B92009A5830BC1047B3
:10C55000034830BC70470348FBE70000986D0100BA
:10C56000010001000100030010B500280FD043783E
:10C5700004781B022343DCB2152C0AD81C06240EB7
:10C5800007D0054CA34204D101F0B2FE10BD034810
:10C5900010BD034810BD00000C8000000100010028
:10C5A0000100030010B500280FD042780378120272
:10C5B0001A43D3B2152B0AD813061B0E07D0054B0E
:10C5C0009A4204D102F008F810BD034810BD034898
:10C5D00010BD000015A000000100010001000300D3
:10C5E00030B400280ED04278047813022343DAB224
:10C5F000152A0AD81B061B0E07D0054B92009A5825
:10C6000030BC1047034830BC70470348FBE70000CC
:10C61000F06D0100010001000100030010B50028C9
:10C620000FD0437804781B022343DCB2152C0AD8C0
:10C630001C06240E07D0054CA34204D101F08AFF4A
:10C6400010BD034810BD034810BD000014C0000019
:10C65000010001000100030030B400280ED043782F
:10C6600005781C022C43E3B2152B0AD82406240EAD
:10C6700007D0054C9B00E35830BC1847034830BC3A
:10C6800070470348FBE70000886B010001000100D0
:10C690000100030030B400280ED042780478130261
:10C6A0002343DAB2152A0AD81B061B0E07D0054B06
:10C6B00092009A5830BC1047034830BC704703487A
:10C6C000FBE70000E86C010001000100010003002D
:10C6D00030B400280ED0437805781C022C43E3B216
:10C6E000152B07D82406240E04D0034C9B00E358D6
:10C6F00030BC184730BC7047D069010030B4002806
:10C700000ED0437805781C022C43E3B2152B07D8D2
:10C710002406240E04D0034C9B00E35830BC184779
:10C7200030BC7047D86A010030B400280ED043787E
:10C7300005781C022C43E3B2152B07D82406240EDF
:10C7400004D0034C9B00E35830BC184730BC704702
:10C75000C8680100F8B50025014602200095FFF7E2
:10C76000B9F91049104A096812688918814215D828
:10C770000E490F4E0968441A694620460095FEF797
:10C78000BDFD010005D0B14202D00AA0FCF790FF28
:10C79000F8BD00980028F8D02418EDE70FA0FCF7AA
:10C7A00087FFF8BDC4480100C0480100C848010027
:10C7B00001000300437265617465207769646765F1
:10C7C00074206661696C65642020626563617573BD
:10C7D000653A203078253038780D0A00775769643B
:10C7E0006765744C6F6164206572726F7220626558
:10C7F000636175736520696E76616C69642072652A
:10C800007320616464720D0A000000007CB5144856
:10C81000046821E0256868782978000208438004CC
:10C8200019D5F4F7F1F86A782B7812021A43120638
:10C830000C4B920D01469A58206890470A4988424D
:10C8400009D1032069460880891C2068F4F742FB5F
:10C850006846FFF763FE6468002CDBD17CBD0000F6
:10C8600008010020806A010001000500F7B51A4C9C
:10C870000F4600280BD023300646F4F721FB002892
:10C8800005D07179327900240902114306E020466F
:10C89000FEBD025D002A03D0641CA4B2A142F8D8F8
:10C8A000491EA14201DC0D48FEBD2546E7190EE0F8
:10C8B0007079317900020843401EA84209D93046F8
:10C8C000F4F7FEFA02992A1B895C41556D1CAF42B0
:10C8D000EED80020FEBD00000100010007000300AB
:10C8E000F7B51A4C0F4600280BD022300646F4F755
:10C8F000E7FA002805D07179327900240902114342
:10C9000006E02046FEBD025D002A03D0641CA4B2EE
:10C91000A142F8D8491EA14201DC0D48FEBD2546C2
:10C92000E7190EE07079317900020843401EA842F1
:10C9300009D93046F4F7C4FA02992A1B895C41559B
:10C940006D1CAF42EED80020FEBD000001000100CA
:10C9500007000300F7B51B4C82B00F4600280CD02F
:10C9600006460A300090F4F7ABFA002805D0F17BB8
:10C97000B27B00240902114307E0204605B0F0BD58
:10C98000025D002A03D0641CA4B2A142F8D8491E5B
:10C99000A14201DC0C48F1E72546E7190EE0F07BE7
:10C9A000B17B00020843401EA84209D90098F4F761
:10C9B00087FA04992A1B895C41556D1CAF42EED859
:10C9C0000020DBE70100010007000300004870477A
:10C9D00006000300F7B51B4C82B00F4600280CD0B0
:10C9E000064614300090F4F76BFA002805D0717EEB
:10C9F000327E00240902114307E0204605B0F0BD55
:10CA0000025D002A03D0641CA4B2A142F8D8491EDA
:10CA1000A14201DC0C48F1E72546E7190EE0707EE3
:10CA2000317E00020843401EA84209D90098F4F75D
:10CA300047FA04992A1B895C41556D1CAF42EED818
:10CA40000020DBE70100010007000300F7B51C4CE4
:10CA500082B00E4600280ED005461E300090F4F736
:10CA60002FFA002807D02F46223779783A78002409
:10CA70000902114307E0204605B0F0BD025D002A1F
:10CA800003D0641CA4B2A142F8D8491EA14201DC23
:10CA90000C48F1E72546A6190EE0787839780002AF
:10CAA0000843401EA84209D90098F4F709FA0499EE
:10CAB0002A1B895C41556D1CAE42EED80020DBE795
:10CAC0000100010007000300F7B51F4C82B00E46BD
:10CAD00000280ED005461E300090F4F7F1F900282A
:10CAE00007D02F46223779783A780024090211437B
:10CAF00007E0204605B0F0BD025D002A03D0641CAB
:10CB0000A4B2A142F8D8491EA14201DC0F48F1E7C6
:10CB10002546A6190EE07878397800020843401EB1
:10CB2000A84209D90098F4F7CBF904992A1B895C2B
:10CB300041556D1CAE42EED80098F4F7C1F90021C2
:10CB400041550846D6E70000010001000700030038
:10CB5000F3B500261F4C83B000280CD02330009082
:10CB6000F4F7AEF9002806D0009900244A790B7931
:10CB70001102194307E0204605B0F0BD025D002A0E
:10CB800003D0641CA4B2A142F8D800252F461DE0B2
:10CB9000049886421CD8AC4211D00098F4F790F962
:10CBA000611B0191415C090609D501994754009820
:10CBB000F4F786F90199491E4754AD1C05E0009829
:10CBC000F4F77EF9611B47546D1C761CA542DFD932
:10CBD0000020D1E701000100F3B500261F4C83B00F
:10CBE00000280CD022300090F4F76AF9002806D013
:10CBF000009900244A790B791102194307E0204675
:10CC000005B0F0BD025D002A03D0641CA4B2A142AD
:10CC1000F8D800252F461DE0049886421CD8AC4267
:10CC200011D00098F4F74CF9611B0191415C0906A1
:10CC300009D5019947540098F4F742F90199491E22
:10CC40004754AD1C05E00098F4F73AF9611B4754CE
:10CC50006D1C761CA542DFD90020D1E70100010040
:10CC6000F3B500261F4C83B000280CD005460A30CF
:10CC70000090F4F725F9002805D0E97BAA7B002471
:10CC80000902114307E0204605B0F0BD025D002A0D
:10CC900003D0641CA4B2A142F8D800252F461DE0A1
:10CCA000049886421CD8AC4211D00098F4F708F9D9
:10CCB000611B0191415C090609D50199475400980F
:10CCC000F4F7FEF80199491E4754AD1C05E00098A1
:10CCD000F4F7F6F8611B47546D1C761CA542DFD9AA
:10CCE0000020D1E701000100004870470600030062
:10CCF000F3B500261F4C83B000280CD00546143035
:10CD00000090F4F7DDF8002805D0697E2A7E002423
:10CD10000902114307E0204605B0F0BD025D002A7C
:10CD200003D0641CA4B2A142F8D800252F461DE010
:10CD3000049886421CD8AC4211D00098F4F7C0F891
:10CD4000611B0191415C090609D50199475400987E
:10CD5000F4F7B6F80199491E4754AD1C05E0009858
:10CD6000F4F7AEF8611B47546D1C761CA542DFD961
:10CD70000020D1E701000100F3B50026204C83B06C
:10CD800000280DD005461E300090F4F799F80028D1
:10CD900006D0223569782A7800240902114307E079
:10CDA000204605B0F0BD025D002A03D0641CA4B289
:10CDB000A142F8D800252F461DE0049886421CD8D1
:10CDC000AC4211D00098F4F77BF8611B0191415CF3
:10CDD000090609D5019947540098F4F771F80199AB
:10CDE000491E4754AD1C05E00098F4F769F8611B33
:10CDF00047546D1C761CA542DFD90020D1E7000006
:10CE000001000100F3B50026204C83B000280DD0AE
:10CE100005461E300090F4F753F8002806D022355E
:10CE200069782A7800240902114307E0204605B0FA
:10CE3000F0BD025D002A03D0641CA4B2A142F8D860
:10CE400000252F461DE0049886421CD8AC4211D024
:10CE50000098F4F735F8611B0191415C090609D58A
:10CE6000019947540098F4F72BF80199491E47544B
:10CE7000AD1C05E00098F4F723F8611B47546D1CC6
:10CE8000761CA542DFD90020D1E700000100010097
:10CE9000002806D0827B437B1002184308800020C4
:10CEA000704701487047000001000100002806D0CB
:10CEB000427D037D1002184308800020704701481E
:10CEC0007047000001000100002806D0C27E837E6A
:10CED0001002184308800020704701487047000086
:10CEE000010001000048704706000300002806D03A
:10CEF000427D037D100218430880002070470148DE
:10CF00007047000001000100002806D0027CC37BAE
:10CF10001002184308800020704701487047000045
:10CF200001000100002806D0827B437B10021843D9
:10CF30000880002070470148704700000100010090
:10CF4000002806D0C27B837B100218430880002093
:10CF5000704701487047000001000100002806D01A
:10CF6000427D037D1002184308800020704701486D
:10CF70007047000001000100002806D0427D037DBB
:10CF800010021843088000207047014870470000D5
:10CF900001000100002806D0827E437E1002184363
:10CFA0000880002070470148704700000100010020
:10CFB000FFB589B01D460E46074637E0200607D567
:10CFC00069786D1C002934D02006000C014304E070
:10CFD0001A4920462038401881B204A80B9AFFF75E
:10CFE000F5F904A80FC800900393029201916846D6
:10CFF0000089002811D11249124A0968126889185B
:10D000008B420AD3181F991E09780078081A3168D4
:10D0100080B208180C49098805E00A2C05D0694639
:10D02000098830684908401830606D1C2C78002C45
:10D03000C4D16C460FCC0FC70DB0F0BDA0A300004B
:10D04000C4480100C0480100DE48010010B5144684
:10D0500000280AD023304279037912021A430A8049
:10D06000F3F72EFF2060002010BD014810BD000026
:10D070000100010010B5144600280AD02230427980
:10D08000037912021A430A80F3F71AFF2060002086
:10D0900010BD014810BD00000100010010B514468C
:10D0A00000280AD0C27B837B12021A430A800A300E
:10D0B000F3F706FF2060002010BD014810BD0000FE
:10D0C00001000100004870470600030010B5144637
:10D0D00000280AD0427E037E12021A430A801430CE
:10D0E000F3F7EEFE2060002010BD014810BD0000E7
:10D0F0000100010070B5144600280CD0024622320F
:10D10000537815781A022A430A801E30F3F7D8FEA6
:10D110002060002070BD014870BD000001000100CA
:10D1200070B5144600280CD0024622325378157888
:10D130001A022A430A801E30F3F7C2FE2060002044
:10D1400070BD014870BD000001000100002804D03E
:10D150002030807808600020704701487047000048
:10D160000100010010B50C46002805D01E30F3F771
:10D17000A7FE2060002010BD004810BD0100010086
:10D1800010B50C46002805D0801DF3F799FE2060ED
:10D19000002010BD004810BD01000100004870478C
:10D1A0000600030010B50C46002805D01E30F3F72A
:10D1B00087FE2060002010BD004810BD0100010066
:10D1C000002803D0C07D08600020704700487047E9
:10D1D00001000100002806D0C27D837D10021843A3
:10D1E00008600020704701487047000001000100FE
:10D1F000002803D0C07B08600020704700487047BB
:10D2000001000100002806D0827F437F10021843EE
:10D2100008600020704701487047000001000100CD
:10D22000002806D0427F037F1002184308600020C8
:10D2300070470148704700000100010070B51546B5
:10D240000E46002812D0014620318A780446002A72
:10D250000DD000228A7003F06BFE20462930F3F7D0
:10D260002FFE020002D029463046904770BD0122B1
:10D27000F0E70000F7B586B000287DD0417802784D
:10D2800009021143654A0446914275D1617BC51C70
:10D29000661C032904D002291ED001292BD0B1E03D
:10D2A000687C297C00020843697A2A7A09021143C2
:10D2B000727A337A12021A430092019102906879CD
:10D2C0002A790102114370793279000210430B462A
:10D2D0000246FEF71FFB95E0687C297C0202687914
:10D2E0000A432B79010219437079337900021843FC
:10D2F000FEF7E4F986E0687D297D0002084348498D
:10D30000C8806879297903020B43687A297A000278
:10D3100008431918207C3279091A491E89B28E46B1
:10D320007179377A09021143727A1B1812023A4353
:10D330008A18121A521E08189BB23A499C468F68E6
:10D3400092B280B273466146B84770793179000273
:10D350000843217C41186846C18068792979000218
:10D360000843217C411868460181707931790002B7
:10D370000843717A327A00E04DE009021143401807
:10D38000217C411A68464181687929790002084365
:10D39000697A2A7A090211434018217C411A6846A9
:10D3A0008181687E297E000208431D49C880687D0E
:10D3B000297D000208431A498880E07BA27B010294
:10D3C000114368460180214620314A78427100228B
:10D3D0000271E27F82700978C17020462230F3F733
:10D3E0006FFD04A90131F3F775FD617B6846817318
:10D3F000687C2A7C010211436846C173090A0174E2
:10D4000004F032F820462830F3F75AFD020002D02B
:10D4100008990798904709B0F0BD00000680000009
:10D4200000000020680D000070B514460D4600286D
:10D4300007D00F30F3F744FD020002D02146284602
:10D44000904770BD70B514460D46002807D02330B4
:10D45000F3F736FD020002D021462846904770BD02
:10D4600070B50D46074914460978012909D10028ED
:10D4700007D03E30F3F724FD020002D021462846B3
:10D48000904770BDB9480100704770B514460D460D
:10D49000002807D02330F3F713FD020002D0214605
:10D4A0002846904770BD70B515460E46040010D052
:10D4B00020461830F3F704FD020002D0294630461A
:10D4C0009047E07D002805D000212046E17504F05A
:10D4D000B7FD70BD0121F8E770B514460D46002870
:10D4E00007D01A30F3F7ECFC020002D021462846A0
:10D4F000904770BD70B514460D46002807D01F3008
:10D50000F3F7DEFC020002D021462846904770BDAA
:10D5100070B514460D46002807D00F30F3F7D0FC45
:10D52000020002D021462846904770BD70B51446CF
:10D530000D46002807D01C30F3F7C2FC020002D0D1
:10D5400021462846904770BD70B514460D46002808
:10D5500007D01830F3F7B4FC020002D02146284669
:10D56000904770BD70B50D460949144609780129E8
:10D570000DD108490968002909D0002807D01C30BE
:10D58000F3F79EFC020002D021462846904770BD6A
:10D59000B84801000401002070B514460D4600286B
:10D5A00007D03530F3F78CFC020002D02146284624
:10D5B000904770BD70B514460D46002807D027303F
:10D5C000F3F77EFC020002D021462846904770BD4A
:10D5D00070B514460D46002807D02230F3F770FCD2
:10D5E000020002D021462846904770BD70B514460F
:10D5F0000D46002807D02630F3F762FC020002D067
:10D6000021462846904770BD70B514460D46002847
:10D6100007D00D30F3F754FC020002D02146284613
:10D62000904770BD70B514460D46002807D01B30DA
:10D63000F3F746FC020002D021462846904770BD11
:10D64000002801D000207047004870470100010009
:10D65000004870470600030070B514460D460028C8
:10D6600007D02D30F3F72CFC020002D021462846CB
:10D67000904770BDF7B586B000287DD0417802781C
:10D6800009021143684A0446914275D1617B451CE9
:10D69000E01C032904D002291ED001292BD0B8E0B8
:10D6A000697D2B7D0A02417A1A430B02067A697A58
:10D6B00033432E7A0902314301930292009141795A
:10D6C00000790902014368792A79000210430B4668
:10D6D0000246FEF71FF99CE0697D2B7D0A02417925
:10D6E0000079090201431A4368792B790002184333
:10D6F000FDF7E4FF8DE0697E2A7E090211434B4A63
:10D700000646D180417900790B02717A0343327A5F
:10D71000080210431918207C2A79091A491E89B277
:10D720008E4669792F7A090211436A7A1B18120210
:10D730003A438A18121A521E08189BB23C499C465A
:10D740008F6892B280B273466146B847687F297F7E
:10D75000000208433549C880687E297E00020843DC
:10D76000324988806879297900020843217C411870
:10D770006846C180717900E054E032790802217C6A
:10D7800010434118684601816879297900020843ED
:10D79000697A2A7A090211434018217C411A6846A5
:10D7A0004181717930790902727A0143337A10022A
:10D7B00018430818217C411A68468181687F297FB7
:10D7C000000208431949C880E07BA27B0102114393
:10D7D00068460180214620314A7842710022027158
:10D7E000E27F82700978C17020462230F3F768FB2F
:10D7F00004A90131F3F76EFB617B68468173687D94
:10D800002A7D010211436846C173090A017403F0BD
:10D810002BFE20462C30F3F753FB020002D0089970
:10D820000798904709B0F0BD068000000000002076
:10D83000680D000070B514460D46002807D013305F
:10D84000F3F73EFB020002D021462846904770BD08
:10D85000F7B584B0002868D0074600251E30F3F7DE
:10D860002FFB04466D1CEDB20A21F3F7C5FA002820
:10D87000F8D1204601246E4606E00A21F3F7BCFAEF
:10D880002A1B3031B154641CAC42F6D9387F0021D8
:10D890002C4600282AD0A0420CD2201AC0B232193D
:10D8A000203AD27F3255641EE4B28442F7D82E2249
:10D8B000325418E0401CC0B23022002C08D033197A
:10D8C000203BDB7F3354401E641EC0B2E4B204E050
:10D8D0003254401E6D1CC0B2EDB20028EDD1684636
:10D8E00002702E2242707019417000E03155F878B4
:10D8F000BA7800021043B97B6B460322FDF73CFD6A
:10D900000B49884202D10BA0FBF7D2FE10484168B8
:10D91000002901D06846884738462730F3F7D0FA07
:10D92000020002D006990598904707B0F0BD0000AC
:10D9300001000600776964676574206B6579494466
:10D9400020697320696E76616C69640D0A000000BD
:10D950003448010070B50D4607491446097801297D
:10D9600009D1002807D04230F3F7AAFA020002D00A
:10D9700021462846904770BDB94801007047000015
:10D98000F7B584B0002838D005461E30F3F798FA72
:10D99000064600240A2805D30A21F3F72DFA641C51
:10D9A00024B2F7E7641C24B2304627466E4608E0EE
:10D9B0000A21F3F721FA32193031203A641ED17767
:10D9C00024B2002CF4DC0020F055E878AA7800029C
:10D9D0001043A97B6B460322FDF7CEFC0849884221
:10D9E00002D108A0FBF764FE28462730F3F768FA57
:10D9F000020002D006990598904707B0F0BD0000DC
:10DA000001000600776964676574206B6579494495
:10DA100020697320696E76616C69640D0A000000EC
:10DA200070B514460D46002807D01C30F3F748FAAD
:10DA3000020002D021462846904770BD70B51446BA
:10DA40000D46002807D01E30F3F73AFA020002D044
:10DA500021462846904770BD70B514460D460028F3
:10DA600007D02330F3F72CFA020002D021462846D3
:10DA7000904770BD70B514460D46002807D013308E
:10DA8000F3F71EFA020002D021462846904770BDE7
:10DA900070B514460D46002807D02030F3F710FA71
:10DAA000020002D021462846904770BD70B514464A
:10DAB0000D46002807D01C30F3F702FA020002D00E
:10DAC00021462846904770BD70B50D460949144659
:10DAD000097801290DD108490968002909D00028D1
:10DAE00007D02030F3F7ECF9020002D02146284697
:10DAF000904770BDB84801000401002070B515467C
:10DB00000E4600281CD004461E30F3F7D9F9030056
:10DB100017D0E078A27800021043A17B0122FDF724
:10DB20002BFC0949884202D108A0FBF7C1FD204621
:10DB30003930F3F7C5F9020002D029463046904744
:10DB400070BD09A0F1E70000010006007769646775
:10DB50006574206B6579494420697320696E76612C
:10DB60006C69640D0A00000077696467657420744D
:10DB700065787420706F696E746572206973206EA9
:10DB8000756C6C0D0A00000070B514460D46002837
:10DB900007D02B30F3F794F9020002D02146284633
:10DBA000904770BD70B514460D46002807D026304A
:10DBB000F3F786F9020002D021462846904770BD4F
:10DBC00070B515460E4600281CD004461E30F3F7EB
:10DBD00077F9030017D0E078A27800021043A17B08
:10DBE0000122FDF7C9FB0949884202D108A0FBF7D1
:10DBF0005FFD20462A30F3F763F9020002D0294680
:10DC00003046904770BD09A0F1E700000100060012
:10DC1000776964676574206B65794944206973206E
:10DC2000696E76616C69640D0A000000776964674B
:10DC30006574207465787420706F696E74657220E5
:10DC40006973206E756C6C0D0A00000070B5144687
:10DC50000D46002807D01130F3F732F9020002D048
:10DC600021462846904770BD70B514460D460028E1
:10DC700007D01F30F3F724F9020002D021462846CE
:10DC8000904770BD10B500280BD0044600290AD07B
:10DC90000120E071F2F7B8FE21460831F3F71AF9D6
:10DCA00003E0034810BD0020E071002010BD00001B
:10DCB000010001000048704706000300002805D05D
:10DCC000002900D0012141750020704700487047AD
:10DCD00001000100002805D0002900D00121417376
:10DCE000002070470048704701000100002806D05E
:10DCF0002030002900D00121017200207047014826
:10DD00007047000001000100002805D0002900D064
:10DD10000121C174002070470048704701000100D4
:10DD2000002804D04173090A81730020704701481C
:10DD30007047000001000100002804D00175090AA5
:10DD40004175002070470148704700000100010044
:10DD5000002804D08176090AC17600207047014866
:10DD600070470000010001000048704706000300F2
:10DD7000002804D00175090A417500207047014848
:10DD8000704700000100010010B5002810D0037C8E
:10DD9000C47B1B02234343731B0A8373C173090AA9
:10DDA0000174002141778177C1760177084610BD63
:10DDB000004810BD01000100002804D04173090A89
:10DDC0008173002070470148704700000100010086
:10DDD000002804D08173090AC173002070470148EC
:10DDE0007047000001000100002804D00175090AF5
:10DDF0004175002070470148704700000100010094
:10DE0000002804D00175090A4175002070470148B7
:10DE10007047000001000100F7B5174C0D460028BF
:10DE200008D023300646F3F74BF8002802D0002430
:10DE3000274607E02046FEBD3046F3F741F8075578
:10DE4000641CA4B27079317900020843A042F3D86F
:10DE500000240DE07079317900020843401EA04291
:10DE600008D93046F3F72CF80299095D0155641C76
:10DE7000AC42EFD30020FEBD01000100F7B5174C06
:10DE80000D46002808D022300646F3F719F800287E
:10DE900002D00024274607E02046FEBD3046F3F7B7
:10DEA0000FF80755641CA4B2707931790002084359
:10DEB000A042F3D800240DE07079317900020843C4
:10DEC000401EA04208D93046F2F7FAFF0299095DD8
:10DED0000155641CAC42EFD30020FEBD01000100DF
:10DEE000F7B588B0174600280CD0014606461E310B
:10DEF00000200191F2F7EEFF00210D460C460A4684
:10DF0000084609E050480BB0F0BD3B5C002B06D042
:10DF1000641C401CA4B280B2099B9842F5D3002037
:10DF200004E03B5C2E2B1CD0401C80B2A042F8D3F6
:10DF30002220805D002819D0337FC01A80B20029CA
:10DF400016D0367F29468E4200D23146631B5C1EB6
:10DF5000844202DD181A401E82B2581814460090FE
:10DF60005FE0201A401E85B2491CE1E72046E6E743
:10DF7000A0421AD8201A85B214E0785D0390303898
:10DF8000092809D80198F2F79BFF0A214843039911
:10DF900030384018019901E000200199F2F79AFF0A
:10DFA0006D1CADB2A542E8D318E0002514E0785D01
:10DFB00003903038092809D80198F2F781FF0A2127
:10DFC0004843039930384018019901E00020019935
:10DFD000F2F780FF6D1CADB2A542E8D30024357F77
:10DFE00009E00198F2F76CFF0A2148430199F2F722
:10DFF00071FF641CA4B2A542F3D823E0385D0590FC
:10E00000303809280AD80198F2F75AFF0A21484304
:10E010000599303840180199F2F75CFF641C0098AC
:10E02000A4B2A042EADC0024751B09E00198F2F7D3
:10E0300047FF0A2148430199F2F74CFF641CA4B240
:10E04000A542F3DC00205EE701000100F7B5194DA1
:10E0500082B00E46002809D004460A300090F2F73C
:10E060002FFF002802D000252F4608E0284605B0E3
:10E07000F0BD0098F2F724FF47556D1CADB2E07B70
:10E08000A17B00020843A842F3D800250DE0E07B05
:10E09000A17B00020843401EA84208D90098F2F76D
:10E0A0000FFF0499495D41556D1CB542EFD3002027
:10E0B000DDE7000001000100004870470600030092
:10E0C000F8B516460F46002809D0014604461E3111
:10E0D00000200091F2F7FEFE0025284608E01748D0
:10E0E000F8BD315C002905D06D1C401CADB280B27A
:10E0F000B842F6D32034A078002801D0A84201D33A
:10E10000002416E0281A84B213E0375D3846303810
:10E11000092808D80098F2F7D3FE0A21484330387E
:10E12000C019009901E000200099F2F7D3FE641CA9
:10E13000A4B2AC42E9D30020F8BD00000100010008
:10E14000F7B51B4C82B00E46002809D005461430A6
:10E150000090F2F7B5FE002802D00024274608E020
:10E16000204605B0F0BD0098F2F7AAFE0755641CE2
:10E17000A4B2687E297E00020843A042F3D800249E
:10E180000FE0687E297E00020843401EA0420AD9A3
:10E190000498075D002F06D00098F2F791FE07550E
:10E1A000641CB442EDD3AC76200AE8760020D8E7B0
:10E1B00001000100F7B5234D82B00F4600280AD0B8
:10E1C00004461E300090F2F77BFE002803D00025A5
:10E1D0002646223609E0284605B0F0BD0098F2F741
:10E1E0006FFE002141556D1CADB270783178000290
:10E1F0000843A842F2D8002511E070783178000277
:10E200000843401EA8420CD90498405D01900028A4
:10E2100007D00098F2F754FE019941556D1CBD429C
:10E22000EBD3ADB2214621310D73280A4873009813
:10E23000F2F746FE214640192F31F2F74BFE00203F
:10E24000CAE7000001000100F7B5194D82B00E4683
:10E2500000280AD004461E300090F2F731FE002854
:10E2600003D000252F46223408E0284605B0F0BD33
:10E270000098F2F725FE47556D1CADB26078217805
:10E2800000020843A842F3D800250DE06078217809
:10E2900000020843401EA84208D90098F2F710FE79
:10E2A0000499495D41556D1CB542EFD30020DDE76F
:10E2B00001000100002807D020308170002901D022
:10E2C0000121817000207047004870470100010063
:10E2D00010B50A46002806D001461E311046F2F756
:10E2E000F9FD002010BD014810BD00000100010033
:10E2F000FEB5002810D00446480005192235687D77
:10E300002E7D0302D0B2009033438800002B05D04D
:10E3100000270619263614E01848FEBD00192630DD
:10E32000F2F7CEFD00990170687D297D0002084357
:10E330001DE0F2F7C5FD0199C91B4A1E825C4254DB
:10E340007F1C687D297D000208430190B842304659
:10E35000EFDCF2F7B5FD00990170687D297D0002C0
:10E360000843A17A627A09021143884203D2401C11
:10E370002875000A68750020FEBD0000010001003C
:10E3800010B50A46002805D0811D1046F2F7A2FDFF
:10E39000002010BD004810BD01000100004870477A
:10E3A0000600030010B50A46002806D001461E31BB
:10E3B0001046F2F78FFD002010BD014810BD00008F
:10E3C00001000100002806D0C175002901D00121FB
:10E3D000C17500207047014870470000010001002E
:10E3E00070B500280AD0FF2568350446A94207D930
:10E3F00006A0FBF75DF9A575280A03E00F4870BD7C
:10E40000A175080AE075002070BD0000636F6E748E
:10E41000726F6C2076616C75652070726F706572BA
:10E420007479206F7574206F662072616E67652045
:10E4300028302D33353929210D0A00000100010053
:10E4400010B5002808D00446642907D905A0FBF7B9
:10E450002FF96420E07302E00E4810BDC173002064
:10E4600010BD0000636F6E74726F6C2076616C7506
:10E47000652070726F7065727479206F7574206F8B
:10E48000662072616E67652028302D313030292179
:10E490000D0A00000100010070B500280AD0FF2518
:10E4A0006935441CA94207D906A0FBF701F9257775
:10E4B000280A03E00F4870BD2177080A6077002022
:10E4C00070BD0000636F6E74726F6C2076616C7546
:10E4D000652070726F7065727479206F7574206F2B
:10E4E000662072616E67652028302D333630292111
:10E4F0000D0A00000100010010B5002809D00446F3
:10E50000642908D906A0FBF7D3F8642020770020FF
:10E5100003E00F4810BD2177080A6077002010BD86
:10E52000636F6E74726F6C2076616C7565207072AB
:10E530006F7065727479206F7574206F66207261D8
:10E540006E67652028302D31303029210D0A0000FA
:10E5500001000100F8B51446050010D08C4202D924
:10E5600090B20C460146FF272E4669372136B94244
:10E5700007D90CA0FBF79CF83771380A03E015485F
:10E58000F8BD3171080A23357071BC4205D905A068
:10E59000FBF78EF82F70380A01E02C70200A6870A3
:10E5A0000020F8BD636F6E74726F6C2076616C75BD
:10E5B000652070726F7065727479206F7574206F4A
:10E5C000662072616E67652028302D333630292130
:10E5D0000D0A000001000100002802D0C1740020D3
:10E5E000704701487047000001000100704770B596
:10E5F00014460D4600280DD006463146606800F0EE
:10E6000021FB30462F30F2F75BFC020002D021469E
:10E610002846904770BD70B514460D4600280DD0B1
:10E6200006463146606800F043FC30462A30F2F777
:10E6300047FC020002D021462846904770BD70B5C5
:10E6400014460D46002807D00C30F2F739FC0200C2
:10E6500002D021462846904770BD7047F8B5154650
:10E660000E4600281BD0027FC37E110219430446C8
:10E67000012909D0611CA37F0A46677F190239432B
:10E68000491C1177090A517703F034FE20462B30DC
:10E69000F2F716FC020002D0294630469047F8BD3A
:10E6A00070B514460D4600280BD0064605F060F8FC
:10E6B00030464130F2F704FC020002D021462846E1
:10E6C000904770BDF8B515460F46002824D0827ECD
:10E6D000467E13023343067CC27B3602411C16433E
:10E6E0000446B34203D25B1C0B761A0A08E0227D73
:10E6F000002A06D04A7B0B7B12021A430A76120AC2
:10E700004A7605F0CBFC20462730F2F7D9FB020011
:10E7100002D0294638469047F8BD70B514460D46DC
:10E7200000280BD0064602F003FC30463130F2F7E9
:10E73000C7FB020002D021462846904770BD00006A
:10E7400070B515460E46040012D0417802780902D1
:10E750001143084A91420BD120463030F2F7B0FB0A
:10E76000020002D0294630469047204602F04EFD76
:10E7700070BD000006800000F7B584B01546002883
:10E7800025D00446421C807B137B01021943237B66
:10E79000E67A1B023343567A177A36023E430096D6
:10E7A00001930291217AE0790902014350791279AB
:10E7B000000210430B460246FDF7ACF82046173026
:10E7C000F2F77EFB020002D029460598904707B079
:10E7D000F0BD70B514460D4600280BD0064603F078
:10E7E00017F830462B30F2F76BFB020002D02146BF
:10E7F0002846904770BD000070B504460A4815468B
:10E8000000780E4601280DD1002C0BD0204603F0D5
:10E8100007FA20464630F2F753FB020002D02946A1
:10E820003046904770BD0000B9480100704770B590
:10E8300015460E4604000AD003F034FA20462B3069
:10E84000F2F73EFB020002D029463046904770BDE9
:10E8500070B515460E4604000BD020462030F2F766
:10E860002FFB020002D0294630469047204603F095
:10E87000E7FB70BD70B514460D46002807D0223066
:10E88000F2F71EFB020002D021462846904770BDD9
:10E8900070B514460D46002807D02730F2F710FB5C
:10E8A000020002D021462846904770BD70B515463B
:10E8B0000E4600280BD0044604F0B5FC2046173065
:10E8C000F2F7FEFA020002D029463046904770BDAA
:10E8D00070B515460E46002816D00446407E217EAF
:10E8E0000002084309498842204602D104F0AEFCE8
:10E8F00001E0F7F7C7FF20462430F2F7E1FA020003
:10E9000002D029463046904770BD0000FFFF00004E
:10E9100070B515460E4604000AD004F027FD2046C7
:10E920002030F2F7CDFA020002D029463046904757
:10E9300070BD000070B504460C48154600780E46C0
:10E94000012811D10A48006800280DD0002C0BD0F6
:10E95000204604F0D1FD20462430F2F7B1FA02003F
:10E9600002D029463046904770BD0000B8480100EB
:10E970000401002070B514460D46002807D03D3034
:10E98000F2F79EFA020002D021462846904770BD59
:10E99000F7B584B0174604007ED0617B2246E01CA8
:10E9A0002132022904D003293BD0012951D08FE024
:10E9B000A37D611C022B02D0012B0BD088E0657D6A
:10E9C000267D2B023343457D067D2D023543009580
:10E9D00001950BE0657D267D2B023343457D067D49
:10E9E0002D0235436E1CB6B2009601960293537801
:10E9F00012781B0213436A089D1A437906791B0299
:10EA00003343467F007F36020643B01A4A790979BC
:10EA1000EB1A12020A43811A8AB29BB2A9B280B2DF
:10EA200014E0637D217D1B020B43417D057D0902BE
:10EA30002943009102930191517812780902114300
:10EA4000427F037F100218430B460246FCF762FF29
:10EA50003EE0A37D2549022B02D0012B20D037E0D8
:10EA6000E57BA67B2B023343CB80517812780902D9
:10EA70001143427D037D12021A4355084A1993B28D
:10EA8000427F067F100230434219491B401B92B25D
:10EA900089B280B2164D00E026E0AD68A84717E0C5
:10EAA000E57BA67B2B023343CB80417F037F0902AA
:10EAB00019436B4619805178127809021143598025
:10EAC000417D027D0802104341080098FCF7E2FFF7
:10EAD0002046F9F723F820463330F2F7F1F9020027
:10EAE00002D039460598904707B0F0BD00000020DD
:10EAF000680D0000F7B584B0040079D0A37B2146EF
:10EB0000621C2031E71CA01C022B04D0032B28D050
:10EB1000012B42D060E0537C9446157C1A022A43B4
:10EB2000E37EA57E1B022B43657E267E2D023543A8
:10EB30000095019302924A780B78110219437A7971
:10EB40003B7912021A438A1A93B2427F057F100260
:10EB500028436246557912792D021543421B92B221
:10EB600018E0537C157C1A022A43E57EA67E2B0210
:10EB70003343657E267E2D02354300950193029234
:10EB80004A780B7811021943427F037F1002184321
:10EB90000B460246FCF7BEFE1EE07A7B3B7B120270
:10EBA0001A43144BDA804A780B7811021943E37E3A
:10EBB000A57E1A022A438A18521E93B2427F057F0D
:10EBC00010022843627E257E12022A430A4D8218D3
:10EBD000521EAD6892B2A8472046F9F763F8204666
:10EBE0002E30F2F76DF9020002D006990598904791
:10EBF00007B0F0BD00000020680D000070B515469C
:10EC00000E4604000AD005F0F1F820462E30F2F747
:10EC100057F9020002D029463046904770BD70B5C2
:10EC200015460E4600280BD0044605F037FA20465C
:10EC30002330F2F745F9020002D0294630469047CA
:10EC400070BD0000F0B5427803781702C278807872
:10EC500015021F4305438BB000297DD00791491C45
:10EC6000049148790A79000210434A7A0B7A11021A
:10EC700019434908401880B2694688800799009076
:10EC8000087ACA79000210430A7BCB7A1102194331
:10EC90004908401886B26946CE80AE4205D1009838
:10ECA000B84201D2002400E0B4240098B84205D153
:10ECB000AE4201D25A2401E0FF240F34AE4230D2DA
:10ECC000B8422ED2A81BF2F7ABFA05900098381A7A
:10ECD000F2F7A6FA014601270598F2F79AF909908A
:10ECE00005907049B800704A09581058F2F791F928
:10ECF000014600900598F2F753FB04D2009905985D
:10ED000003E0BCB2ADE005990098F2F73DF9674920
:10ED10000968F2F73BFBF4D37F1C5A2F7EDA09987F
:10ED2000DEE7AE4232D2B84230D9A81BF2F778FA09
:10ED300005900098C01BF2F773FA01460127059869
:10ED4000F2F767F9099005905649B800564A0958F4
:10ED50001058F2F75EF900E0A1E001460090059836
:10ED6000F2F71EFB02D20099059801E00599009880
:10ED7000F2F70AF94D490968F2F708FB01D2B4200D
:10ED80005EE07F1C5A2F6CDA0998DCE7AE4230D97E
:10ED9000B8422ED9701BF2F743FA05900098C01BB9
:10EDA000F2F73EFA014601270598F2F732F9099089
:10EDB00000903C49B8003C4A09581058F2F729F92C
:10EDC000014605900098F2F7EBFA04D205990098F5
:10EDD00003E0B43795E700990598F2F7D5F8334981
:10EDE0000968F2F7D3FAF4D37F1C5A2F39DA09985D
:10EDF000DEE7AE4235D9B84233D2701BF2F710FAD3
:10EE000005900098381AF2F70BFA01460127059889
:10EE1000F2F7FFF809900590B80000E021E02149E1
:10EE2000214A09581058F2F7F4F801460090059865
:10EE3000F2F7B6FA07D20099059806E0FF2069308C
:10EE4000C01B84B20DE005990098F2F79DF81749B0
:10EE50000968F2F79BFAF1D37F1C5A2F01DA09985F
:10EE6000D9E7FF206A30844205D9AE4202D9FF2497
:10EE70000F3400E05A2407982330417802780802C2
:10EE80001043A0420BD8079821304179027908023B
:10EE90001043A04203D30498210A047741770BB0B2
:10EEA000F0BD00009C740100F86E010044020020D7
:10EEB00070B54278037812021A43C3788478180236
:10EEC0002043002920D00C46497B00291DD0227AFE
:10EED000E37912021A43237BE57A19022943521877
:10EEE000824200D290B2E37EA57E1B022B43C91A58
:10EEF00089B2101A64225043F1F77EFF642800D3D0
:10EF000064202077000A607770BDA179607A0B02D7
:10EF1000A17A657909020143607E267E2B430002B7
:10EF20005D1830432D1A954200DAAAB2081A81B250
:10EF3000D01ADFE7F3B583B0F4F740FA0090002071
:10EF400001460190049801600098002839D05F4D77
:10EF5000352029688847040024D02869002804D077
:10EF600003462922204603999847286800280BD099
:10EF7000214623310E464879097900020843296861
:10EF800088473146F1F7A6FF204623300746F1F7C0
:10EF900097FF00280CD0787939790002084332D0E5
:10EFA00000261BE068680028D0D00146009807E0E2
:10EFB00068680028CAD001460098884769682046DA
:10EFC000884781E03846F1F77BFF00218155787949
:10EFD000397900020843761CB6B201907879397904
:10EFE00000020843B042EDD8286900280FD0384607
:10EFF000F1F766FF79793B790A021A4303992B6985
:10F000002931984703E039460020F1F763FFA179E1
:10F0100063790A02A17A607A09021A4301435018FF
:10F020002B4A2C4E138898420BD8237AE0791B0286
:10F030000343207BE77A0002384352881B1893422F
:10F040000ED925A0FAF734FB6868002805D00146E0
:10F0500000988847696820468847304605B0F0BD6B
:10F06000224620329378002B01D001239370227C1A
:10F070005200914201D3904208D2814201D84808FF
:10F0800000E04008207420A0FAF712FB2146293145
:10F090000020F1F71FFF21462D310020F1F71AFF64
:10F0A000214631310020F1F715FF00980460FCF78C
:10F0B00001FE002808D00099F6F748FC0198049951
:10F0C000293008600020C9E71948C7E73448010023
:10F0D00000000020010002004572726F722073650B
:10F0E0007474696E6720636F6E74726F6C206C6FDE
:10F0F000636174696F6E20696E666F726D617469A9
:10F100006F6E210D0A000000436F6E74726F6C20E9
:10F11000626F726465722077696474682069732015
:10F12000746F6F206C61726765210D0A000000002A
:10F1300001000100F3B583B0F4F740F9009000201E
:10F1400001460190049801600098002839D05C4C79
:10F15000342021688847050024D02069002804D085
:10F1600003462822284603999847206800280BD098
:10F17000294622310E464879097900020843216860
:10F1800088473146F1F7A6FE284622300746F1F7B8
:10F1900097FE00280CD0787939790002084332D0E4
:10F1A00000261BE060680028D0D00146009807E0E8
:10F1B00060680028CAD001460098884761682846E0
:10F1C00088477AE03846F1F77BFE0021815578794F
:10F1D000397900020843761CB6B201907879397902
:10F1E00000020843B042EDD8206900280FD038460D
:10F1F000F1F766FE79793B790A021A43039923698C
:10F200002831984703E039460020F1F763FEA979D9
:10F210006B790A02A97A687A09021A4301435018E5
:10F22000284A294E138898420BD82B7AE8791B027A
:10F230000343287BEF7A0002384352881B1893421D
:10F240000ED922A0FAF734FA6068002805D00146EA
:10F2500000988847616828468847304605B0F0BD69
:10F260002A7C5200914201D3904208D2814201D8B7
:10F27000480800E04008287420A0FAF719FA294647
:10F2800028310020F1F726FE29462C310020F1F725
:10F2900021FE294630310020F1F71CFE0098056060
:10F2A000FCF708FD002808D00099F6F74FFB0198FD
:10F2B0000499283008600020D0E71A48CEE7000003
:10F2C0003448010000000020010002004572726F06
:10F2D000722073657474696E6720636F6E74726FE9
:10F2E0006C206C6F636174696F6E20696E666F72FB
:10F2F0006D6174696F6E210D0A000000436F6E74BA
:10F30000726F6C20626F72646572207769647468D2
:10F3100020697320746F6F206C61726765210D0A1C
:10F320000000000001000100F3B581B00746F4F7CA
:10F3300045F8064600210298002E01604FD0294D65
:10F340001B2029688847040043D02869002804D07E
:10F3500003460F22394620469847601CA17A05468D
:10F36000214F627A080239881043884206D91FA0CB
:10F37000FAF79EF938882872000A6872207BE17AD1
:10F38000000208437988E51C884206D925A0FAF7CF
:10F390008FF978882872000A687221460F310020A0
:10F3A000F1F798FD214613310020F1F793FD214636
:10F3B00017310020F1F78EFD3460FCF77BFC00284C
:10F3C0000DD03146F6F7C2FA02980F2101600020F5
:10F3D000FEBD6868002802D00146304688472048B4
:10F3E000FEBD00003448010000000020436F6E7431
:10F3F000726F6C2077696474682069732067726526
:10F4000061746572207468616E20746865204C4375
:10F410004420646973706C61792077696474682131
:10F420000D0A0000436F6E74726F6C206865696727
:10F4300068742069732067726561746572207468EE
:10F44000616E20746865204C434420646973706C5D
:10F45000617920686569676874210D0A0000000001
:10F4600001000100F3B581B00F46F3F7A7FF064690
:10F4700000203860002E70D0394D2F202968884731
:10F4800004002FD02869002804D0034623222046F8
:10F4900001999847A179607A0A02A17A63790902F1
:10F4A000014330481A430088521882420CD8227A0D
:10F4B000E07912020243207BE37A0002184313181A
:10F4C000284A5288934214D927A0FAF7F1F86868BD
:10F4D000002805D00146304688476968204688479D
:10F4E0002D48FEBD6868002837D001463046884761
:10F4F00033E0627C5200914201D3904208D28142B3
:10F5000001D8480800E04008607424A0FAF7D0F859
:10F51000214620318A78002A04D0207F824201D8F7
:10F52000401C8870214623310020F1F7D3FC21468E
:10F5300027310020F1F7CEFC21462B310020F1F7D6
:10F54000C9FC3460FCF7B6FB002806D03146F6F75C
:10F55000FDF9232038600020FEBD1A48FEBD0000E2
:10F5600034480100000000204572726F72207365FC
:10F570007474696E6720636F6E74726F6C206C6F49
:10F58000636174696F6E20696E666F726D61746914
:10F590006F6E210D0A00000001000200436F6E74BF
:10F5A000726F6C20626F7264657220776964746830
:10F5B00020697320746F6F206C61726765210D0A7A
:10F5C0000000000001000100F3B506464F4881B07D
:10F5D0000078012801D04E48FEBDF3F7EFFE074644
:10F5E00000200299002F08603DD04A4D4A2029682A
:10F5F0008847040031D02869002804D00346262219
:10F60000314620469847601C0090A1796279090232
:10F610001143A27A637A1002184308183E493F4EFC
:10F620000A8890420BD8227AE37912021A43237B8C
:10F63000E07A1B0203434988D018884214D938A0C5
:10F64000FAF736F86868002805D00146384688473A
:10F650006968204688473046FEBD6868002852D059
:10F660000146384688474EE00026B00001190020C8
:10F670002631F1F72FFC761C042EF6DB0026617C88
:10F68000701C814220DB0098417A027A08022968C6
:10F6900010438847B10009192631F1F71BFC844655
:10F6A000002811D0E868002808D00098EB68417A5B
:10F6B000007A0A0202430021604698477100002048
:10F6C0000919223108754875761C042ED7DB2146AE
:10F6D0003E310020F1F7FEFB214642310020F1F7D8
:10F6E000F9FB214646310020F1F7F4FB3C60FCF7C2
:10F6F000E1FA002807D03946F6F728F902982621C2
:10F7000001600020FEBD1248FEBD0000B9480100A6
:10F710000100030034480100000000200100020045
:10F720004572726F722073657474696E6720636FBF
:10F730006E74726F6C206C6F636174696F6E206998
:10F740006E666F726D6174696F6E210D0A00000044
:10F7500001000100F3B581B00F46F3F72FFE064616
:10F7600000203860002E2AD0164D102029688847C6
:10F7700004001ED02869002804D003460822204631
:10F780000199984721460C310020F1F7A3FBF1F7CE
:10F790003BF921460831F1F79DFB3460FCF78AFA0A
:10F7A00000280CD03146F6F7D1F808203860002048
:10F7B000FEBD6868002802D00146304688470248EE
:10F7C000FEBD00003448010001000100F3B581B026
:10F7D000F3F7F4FD0026029907460E6000286DD06D
:10F7E000374D102029688847040024D02869002854
:10F7F00004D00346102220460199984730480068FB
:10F8000000280AD0E07BA17B000208432C4909684C
:10F81000884721460A31F1F75DFB20460A30009007
:10F82000F1F74EFB00280CD0E07BA17B00020843DF
:10F8300033D000251BE0686800283FD001463846D9
:10F8400008E01F4D6868002838D0014638468847D0
:10F8500069682046884731E00098F1F731FB0021C4
:10F860004155E07BA17B06020E436D1CADB2E07BEF
:10F87000C9B200020843A842EED8114D28690028F9
:10F880000FD00098F1F71CFBE17BA37B0A021A431F
:10F8900001992B691031984703E000200099F1F796
:10F8A00019FB3C60FCF706FA002807D03946F6F74A
:10F8B0004DF80298103606600020FEBD0148FEBDDE
:10F8C0003448010001000100002008600048704732
:10F8D00001000300F3B581B00F46F3F76FFD064654
:10F8E00000203860002E66D0344D2F2029688847CC
:10F8F00004003FD02869002804D003462322204674
:10F9000001999847214623310020F1F7E3FA214677
:10F9100027310020F1F7DEFA21462B310020F1F7E4
:10F92000D9FA3460A179607A0A02A17A637909026E
:10F93000014323481A430088521882420CD8227A85
:10F94000E07912020243207BE37A00021843131885
:10F950001B4A5288934214D91AA0F9F7A9FE686885
:10F96000002805D001463046884769682046884708
:10F970002048FEBD686800281DD0014630468847F3
:10F9800019E0627C5200914201D3904208D2814238
:10F9900001D8480800E04008607417A0F9F788FE15
:10F9A000FCF788F9002806D03146F5F7CFFF232071
:10F9B00038600020FEBD1A48FEBD0000344801003A
:10F9C000000000204572726F722073657474696E56
:10F9D0006720636F6E74726F6C206C6F6361746903
:10F9E0006F6E20696E666F726D6174696F6E210D46
:10F9F0000A00000001000200436F6E74726F6C20F9
:10FA0000626F72646572207769647468206973201C
:10FA1000746F6F206C61726765210D0A0000000031
:10FA200001000100F3B581B00F46F3F7C7FC0646AD
:10FA300000203860002E5BD02E4D24202968884796
:10FA400004002ED02869002804D00346182220463E
:10FA500001999847A179627909021143A27A637AE0
:10FA600010021843081824490A8890420BD8227AB9
:10FA7000E37912021A43237BE07A1B02034349888D
:10FA8000D018884214D91DA0F9F712FE6868002822
:10FA900005D0014630468847696820468847234894
:10FAA000FEBD6868002823D00146304688471FE025
:10FAB000E07D002801D00120E075214618310020AA
:10FAC000F1F708FA21461C310020F1F703FA21462C
:10FAD00020310020F1F7FEF93460FCF7EBF8002844
:10FAE00006D03146F5F732FF182038600020FEBD01
:10FAF0000F48FEBD34480100000000204572726FBF
:10FB0000722073657474696E6720636F6E74726FB0
:10FB10006C206C6F636174696F6E20696E666F72C2
:10FB20006D6174696F6E210D0A0000000100020012
:10FB300001000100F3B581B00F46F3F73FFC064624
:10FB400000203860002E38D01D4D262029688847B7
:10FB500004002CD02869002804D003461222204635
:10FB60000199984721461A310020F1F7B3F921464F
:10FB70001E310020F1F7AEF9214612310020F1F7D5
:10FB8000A9F9214616310020F1F7A4F921462231C6
:10FB90000020F1F79FF93460FCF78CF800280CD0B6
:10FBA0003146F5F7D3FE122038600020FEBD6868AC
:10FBB000002802D00146304688470248FEBD0000BA
:10FBC0003448010001000100F3B581B00746F3F7A6
:10FBD000F5FB064600200299002E08606CD0374DD8
:10FBE0002F2029688847040032D02869002804D0D3
:10FBF00003461722394620469847601C0090A17999
:10FC0000627909021143A27A637A10021843081834
:10FC10002B490A8890420DD8227AE3791202E01C1F
:10FC20001A430746237BE07A1B0203434988D01816
:10FC3000884214D923A0F9F73BFD6868002805D055
:10FC40000146304688476968204688472948FEBDF6
:10FC50006868002830D00146304688472CE02146AD
:10FC60001F310020F1F736F9214623310020F1F74A
:10FC700031F9214627310020F1F72CF921462B31AB
:10FC80000020F1F727F90020387678760099087778
:10FC90004877F0F7B9FE21461731F1F71BF93460C8
:10FCA000FCF708F8002807D03146F5F74FFE029818
:10FCB000172101600020FEBD0F48FEBD3448010041
:10FCC000000000204572726F722073657474696E53
:10FCD0006720636F6E74726F6C206C6F6361746900
:10FCE0006F6E20696E666F726D6174696F6E210D43
:10FCF0000A0000000100020001000100F3B581B01C
:10FD00000F46F3F75BFB064600203860002E56D006
:10FD10002C4C1B202168884705002ED02069002824
:10FD200004D003460F22284601999847A9796A7999
:10FD300009021143AA7A6B7A100218430818224963
:10FD40000A8890420BD82A7AEB7912021A432B7B4D
:10FD5000E87A1B0203434988D018884214D91BA0B3
:10FD6000F9F7A6FC6068002805D0014630468847B0
:10FD70006168284688472148FEBD606800281ED07B
:10FD80000146304688471AE029460F310020F1F736
:10FD9000A1F8294613310020F1F79CF829461731C4
:10FDA0000020F1F797F83560FBF784FF002806D0B4
:10FDB0003146F5F7CBFD0F2038600020FEBD10481E
:10FDC000FEBD000034480100000000204572726F43
:10FDD000722073657474696E6720636F6E74726FDE
:10FDE0006C206C6F636174696F6E20696E666F72F0
:10FDF0006D6174696F6E210D0A0000000100020040
:10FE000001000100F3B581B00F46F3F7D7FA0646BB
:10FE100000203860002E6BD0374D28202968884795
:10FE200004002ED02869002804D00346182220465A
:10FE300001999847A179627909021143A27A637AFC
:10FE40001002184308182D490A8890420BD8227ACC
:10FE5000E37912021A43237BE07A1B0203434988A9
:10FE6000D018884214D926A0F9F722FC6868002827
:10FE700005D00146304688476968204688472C48A7
:10FE8000FEBD6868002833D00146304688472FE021
:10FE9000E07DA17D0002FF2508436835A84205D911
:10FEA00024A0F9F705FCA575280AE0752D482076F1
:10FEB000010A6176A076000AE07621461C31002016
:10FEC000F1F708F8214620310020F1F703F8214628
:10FED00024310020F0F7FEFF3460FBF7EBFE002832
:10FEE00006D03146F5F732FD182038600020FEBDFF
:10FEF0001C48801CFEBD00003448010000000020AA
:10FF00004572726F722073657474696E6720636FD7
:10FF10006E74726F6C206C6F636174696F6E2069B0
:10FF20006E666F726D6174696F6E210D0A0000005C
:10FF300001000200636F6E74726F6C2076616C75E5
:10FF4000652070726F7065727479206F7574206FA0
:10FF5000662072616E67652028302D33353929217E
:10FF60000D0A0000FFFF0000F3B581B00F46F3F764
:10FF700025FA064600203860002E5ED0304D242041
:10FF80002968884704002ED02869002804D0034639
:10FF90001822204601999847A179627909021143F4
:10FFA000A27A637A10021843081826490A889042F8
:10FFB0000BD8227AE37912021A43237BE07A1B02E0
:10FFC00003434988D018884214D91FA0F9F770FB61
:10FFD0006868002805D00146304688476968204691
:10FFE00088472548FEBD6868002826D0014630466F
:10FFF000884722E0E07B642804D920A0F9F758FB69
:020000040001F9
:100000006420E073214618310020F0F763FF214699
:100010001C310020F0F75EFF214620310020F0F770
:1000200059FF3460FBF746FE002806D03146F5F74D
:100030008DFC182038600020FEBD1C48FEBD00006D
:1000400034480100000000204572726F7220736511
:100050007474696E6720636F6E74726F6C206C6F5E
:10006000636174696F6E20696E666F726D61746929
:100070006F6E210D0A00000001000200636F6E74B4
:10008000726F6C2076616C75652070726F7065722E
:100090007479206F7574206F662072616E676520B9
:1000A00028302D31303029210D0A000001000100D7
:1000B000F3B583B00499002755480F6000780128F4
:1000C00002D0544805B0F0BD53480068002831D034
:1000D000F3F774F90600FAD0504D282029688847B4
:1000E000040021D02869002804D003461A222046A3
:1000F000039998472046143000900190F0F7E0FEF5
:10010000A076000AE076607E217E00020843434923
:10011000096888470199F0F7DDFE607E217E0002C4
:10012000084329D0002511E0686800286DD00146F9
:100130003046884769E00098F0F7C2FE002141553B
:10014000607E217E07020F436D1CADB2607EC9B296
:1001500000020843A842EED8304D286900280FD08D
:100160000098F0F7ADFE617E237E0A021A430399E0
:100170002B691A31984703E000200099F0F7AAFE96
:10018000A179627909021143A27A637A10021843B5
:1001900008182349234D0A8890420BD8227AE37924
:1001A00012021A43237BE07A1B0203434988D018CA
:1001B00088420ED91CA0F9F77BFA184F78680028FE
:1001C00005D001463046884779682046884728464A
:1001D00078E721461C310020F0F77CFE21462031D3
:1001E0000020F0F777FE214624310020F0F772FE60
:1001F0003460FBF75FFD002807D03146F5F7A6FB1A
:1002000004981A37076000205CE713485AE700009B
:10021000B848010001000300040100203448010037
:1002200000000020010002004572726F72207365A9
:100230007474696E6720636F6E74726F6C206C6F7C
:10024000636174696F6E20696E666F726D61746947
:100250006F6E210D0A00000001000100F3B58FB0A0
:10026000F3F7ACF80390002006901099086003980B
:10027000002844D0874D45202968884704002FD0A6
:100280002869002804D00346292220460F99984760
:1002900020461E300190F0F713FE01462046213023
:1002A00005900173090A4173286800280AD0204686
:1002B0002230417802780802296810438847019962
:1002C000F0F708FE0198F0F7FBFD00280ED0264657
:1002D0002236707831780002084366D000271BE090
:1002E00068680028C5D00146039807E068680028C0
:1002F000BFD0014603988847696820468847C6E012
:100300000198F0F7DDFD0021C155707831780002C9
:1003100008437F1CBFB20690707831780002084312
:10032000B842EDD8286900280AD00198F0F7C8FD36
:10033000717833780A021A430F992B69293198474B
:100340000198F0F7BDFD7178327809021143411828
:1003500000202039C8772820005D0028019808D0A7
:10036000F0F7AEFD05994A7B0B7B1102194340184B
:1003700001E0F0F7A5FD21462F31F0F7ABFD207C21
:10038000E17B02020A43E71C434907A8FCF71EF879
:1003900007AE0FCE0FC66846808E00280DD03FA056
:1003A000F9F786F9434811B0F0BD00200199F0F744
:1003B00091FD21462F310020DFE7A079627901020B
:1003C0001143A07A627A000210430A183A49661C67
:1003D0000B889A420BD87A793B7912021A437B7ABE
:1003E0003F7A1B023B434988D2188A420ED933A078
:1003F000F9F75EF96868002805D001460398884738
:100400006968204688472B48401ECCE7617C49003C
:10041000884201D38B4208D2984201D8400800E0BC
:100420005808607431A0F9F743F970793179000206
:100430000843214623310874000A4874F0F7E4FAAF
:1004400021462931F0F746FD214635310020F0F7ED
:1004500041FD214639310020F0F73CFD21463D3178
:100460000020F0F737FD214641310020F0F732FD42
:1004700003980460FBF71EFC002808D00399F5F7E9
:1004800065FA069810992930086000208BE721480A
:1004900089E7000034480100A1A30000496E636FA2
:1004A0007272656374206C6962726172792049446A
:1004B000210D0A0002000200000000204572726F48
:1004C000722073657474696E6720636F6E74726FE7
:1004D0006C206C6F636174696F6E20696E666F72F9
:1004E0006D6174696F6E210D0A000000436F6E74B8
:1004F000726F6C20626F72646572207769647468D1
:1005000020697320746F6F206C61726765210D0A1A
:100510000000000001000100F3B581B00746F2F7CA
:100520004DFF00900298002606600098002846D0F3
:10053000444D37202968884704003AD0284600698E
:10054000002805D0284603691F22394620469847CF
:100550000020E61CE07727467077213738707870E6
:10056000A079617900020843A17A627A09021143F5
:1005700041183548651C028891420BD8717932794F
:1005800009021143727A337A12021A434088891899
:10059000814215D92DA0F9F78BF82A4D68680028FB
:1005A00005D0014600988847696820468847334847
:1005B000FEBD6868002843D00146009888473FE0A8
:1005C000687F297F00020843FF216931884207D9EB
:1005D0002BA0F9F76DF8FF2069302877000A6877BB
:1005E000214627310020F0F775FC21462B310020F1
:1005F000F0F770FC21462F310020F0F76BFC21460C
:1006000033310020F0F766FC0020307770773870C7
:1006100021467870233108704870FF2069303871A6
:10062000000A787100980460FBF744FB002807D0AB
:100630000099F5F78BF902981F2101600020FEBD9B
:100640001B48FEBD34480100000000204572726F57
:10065000722073657474696E6720636F6E74726F55
:100660006C206C6F636174696F6E20696E666F7267
:100670006D6174696F6E210D0A00000001000200B7
:10068000636F6E74726F6C2076616C75652070722A
:100690006F7065727479206F7574206F6620726157
:1006A0006E67652028302D33363029210D0A000071
:1006B00001000100F3B581B00F46F2F77FFE064658
:1006C00000203860002E6FD0384D322029688847CE
:1006D000040035D02869002804D003461E22204695
:1006E000019998470020A0772146E07720310870D3
:1006F0004870A179627909021143A27A637A1002E3
:10070000184308182A490A8890420BD8227AE379BC
:1007100012021A43237BE07A1B0203434988D01854
:10072000884214D923A0F8F7C3FF6868002805D0D1
:100730000146304688476968204688472948FEBDFB
:100740006868002830D00146304688472CE0607F3A
:10075000217F00020843642806D923A0F8F7A8FFE8
:100760006420207700206077214622310020F0F7B6
:10077000B1FB214626310020F0F7ACFB21462A319F
:100780000020F0F7A7FB21462E310020F0F7A2FB56
:100790003460FBF78FFA002806D03146F5F7D6F81B
:1007A0001E2038600020FEBD1B48FEBD34480100FD
:1007B000000000204572726F722073657474696E58
:1007C0006720636F6E74726F6C206C6F6361746905
:1007D0006F6E20696E666F726D6174696F6E210D48
:1007E0000A00000001000200636F6E74726F6C20DB
:1007F00076616C75652070726F7065727479206FA8
:100800007574206F662072616E67652028302D3107
:10081000303029210D0A000001000100F3B583B03A
:10082000F2F7CCFD00900020014602900498016090
:100830000098002841D0604D322029688847040084
:100840002CD02869002804D003462422204603998E
:10085000984720461E300190F0F732FB21462031A8
:100860000871000A48712868002809D0881C41785E
:10087000027808022968104388470199F0F72AFB9B
:100880000198F0F71DFB00280ED027462237787814
:1008900039780002084332D000261BE0686800283F
:1008A000C8D00146009807E068680028C2D0014619
:1008B000009888476968204688477AE00198F0F7F1
:1008C000FFFA002181557878397800020843761CB8
:1008D000B6B202907878397800020843B042EDD879
:1008E000286900280FD00198F0F7EAFA79783B7868
:1008F0000A021A4303992B692431984703E0002028
:100900000199F0F7E7FAA17963790A02A17A607A8E
:1009100009021A4301435018284A294E1388984265
:100920000BD8237AE0791B020343207BE77A00028D
:10093000384352881B1893420ED922A0F8F7B8FE0C
:100940006868002805D001460098884769682046F5
:100950008847304605B0F0BD627C5200914201D319
:10096000904208D2814201D8480800E040086074F3
:1009700020A0F8F79DFE214626310020F0F7AAFAC4
:1009800021462A310020F0F7A5FA21462E31002019
:10099000F0F7A0FA00980460FBF78CF9002808D063
:1009A0000099F4F7D3FF02980499243008600020DE
:1009B000D0E71A48CEE700003448010000000020CC
:1009C000010002004572726F722073657474696E63
:1009D0006720636F6E74726F6C206C6F63617469F3
:1009E0006F6E20696E666F726D6174696F6E210D36
:1009F0000A000000436F6E74726F6C20626F726445
:100A0000657220776964746820697320746F6F2041
:100A10006C61726765210D0A000000000100010091
:100A2000F3B581B00F46F2F7C9FC064600203860E6
:100A3000002E2ED0184D192029688847040022D096
:100A40002869002804D003460D22204601999847C2
:100A500021460D310020F0F73DFA214611310020EA
:100A6000F0F738FA214615310020F0F733FA3460F8
:100A7000FBF720F900280CD03146F4F767FF0D2072
:100A800038600020FEBD6868002802D0014630466C
:100A900088470248FEBD0000344801000100010003
:100AA000F3B581B00646F2F789FC074600210298AB
:100AB000002F01606AD0364D2B202968884704003A
:100AC0002FD02869002804D003461522314620463D
:100AD0009847A079617900020843A17A627A0902F5
:100AE000114340182B49661C0A8890420BD8227A81
:100AF000E37912021A43237BE07A1B0203434988FD
:100B0000D018884214D924A0F8F7D2FD68680028CC
:100B100005D00146384688476968204688472A48F4
:100B2000FEBD6868002831D00146384688472DE070
:100B300021461B310020F0F7CDF921461F3100205E
:100B4000F0F7C8F9214623310020F0F7C3F9214618
:100B500027310020F0F7BEF9707B317B000208439B
:100B60003076000A7076EFF74FFF21461531F0F727
:100B7000B1F93C60FBF79EF8002807D03946F4F73E
:100B8000E5FE0298152101600020FEBD0F48FEBD64
:100B900034480100000000204572726F72207365B6
:100BA0007474696E6720636F6E74726F6C206C6F03
:100BB000636174696F6E20696E666F726D617469CE
:100BC0006F6E210D0A00000001000200010001000B
:100BD00070B5044623300646F0F772F9094D002837
:100BE00007D06968002900D0884731460020F0F717
:100BF00071F9E868002804D0034635220021204618
:100C0000984770BD3448010070B50446223006464E
:100C1000F0F756F9094D002807D06968002900D07F
:100C2000884731460020F0F755F9E868002804D0DD
:100C30000346342200212046984770BD3448010005
:100C40000449CA68002A03D013461B220021184712
:100C500070470000344801000449CA68002A03D0E4
:100C600013462F2200211847704700003448010026
:100C700070B525490978012944D105462630064634
:100C8000F0F71EF9214C002803D06168002900D03C
:100C9000884731460020F0F71DF928462A300646DD
:100CA000F0F70EF9002803D06168002900D08847CA
:100CB00031460020F0F70EF928462E300646F0F7B0
:100CC000FFF8002803D06168002900D0884731462A
:100CD0000020F0F7FFF8284632300646F0F7F0F82B
:100CE000002803D06168002900D0884731460020E1
:100CF000F0F7F0F8E068002804D003464A2200210B
:100D00002846984770BD0000B948010034480100EA
:100D10000449CA68002A03D013461022002118474C
:100D2000704700003448010070B504460A3006469A
:100D3000F0F7C6F8094D002807D06968002900D0EF
:100D4000884731460020F0F7C5F8E868002804D04D
:100D50000346102200212046984770BD3448010008
:100D6000704700000449CA68002A03D013462F22A6
:100D70000021184770470000344801000449CA6840
:100D8000002A03D013462422002118477047000090
:100D9000344801000449CA68002A03D013462622B9
:100DA0000021184770470000344801000449CA6810
:100DB000002A03D013462F22002118477047000055
:100DC000344801000449CA68002A03D013461B2294
:100DD000002118477047000034480100002807D060
:100DE0000449CA68002A03D0134628220021184764
:100DF00070470000344801000449CA68002A03D043
:100E0000134624220021184770470000344801008F
:100E100070B51049097801291BD10F4909680029CB
:100E200017D0044614300646F0F74AF80B4D002858
:100E300007D06968002900D0884731460020F0F7C4
:100E400049F8E868002804D00346282200212046FB
:100E5000984770BDB84801000401002034480100E3
:100E600070B504461E300646F0F72AF8094D0028F2
:100E700007D06968002900D0884731460020F0F784
:100E800029F8E868002804D00346452200212046BE
:100E9000984770BD344801000449CA68002A03D04D
:100EA00013463722002118477047000034480100DC
:100EB0000449CA68002A03D0134632220021184789
:100EC000704700003448010070B504461E300646E5
:100ED000EFF7F6FF094D002807D06968002900D018
:100EE000884731460020EFF7F5FFE868002804D076
:100EF0000346322200212046984770BD3448010045
:100F00000449CA68002A03D0134619220021184751
:100F100070470000344801000449CA68002A03D021
:100F2000134604220021184770470000344801008E
:100F3000F0B589B0002879D0427B01462031C61C2B
:100F4000451C0446032A04D0022A44D0012A57D063
:100F5000F7E0887801283BD0687D297D00020843AE
:100F6000717A327A090211436A7A2B7A12021A4391
:100F700000920191029070793279010211436879EF
:100F80002A79000210430B460246FAF7C3FC68793F
:100F90002A7901021143684641827079327901024F
:100FA0001143684681826879297900020843697A89
:100FB0002A7A0902114341186846C1827079317951
:100FC00000020843717A327A090211434118B6E0EF
:100FD000707C317CC2E7887801280ED0687D297D3D
:100FE000020270790A4333790102194368792B7937
:100FF00000021843FAF762FBC9E7707C317CEFE727
:10100000687A297A00020843217C4900884205D386
:10101000727A337A12021A438A420DD2717A327A84
:1010200009021143884202D8400801E0C0E04808A4
:1010300020746AA0F8F73CFB687C297C0002084316
:1010400070490027C880E61C20E0707932790102DF
:101050001143707A327A000210430818C01B401EF8
:1010600083B28C466879297900020843697A2A7A22
:10107000090211434118C91B491E8AB26146C919A8
:10108000C01989B280B2FAF7B3FC7F1C207CB84249
:10109000DBDC2220005D01287ED0687E297E0002F4
:1010A00008435849C8807079317903020B43707A3C
:1010B000317A000208431918207C2A79091A491E3E
:1010C00089B28E4669792F7A090211436A7A1B1810
:1010D00012023A438A18121A521E08189BB24A4941
:1010E0009C468F6892B280B273466146B847687971
:1010F000297900020843217C4118684641827079B1
:10110000317900020843217C411868468182687960
:10111000297900020843697A2A7A090211434018A2
:10112000217C411A6846C1827079317900020843F6
:10113000717A327A090211434018217C411A6846BB
:10114000018325462035A878012836D0A17F637F0A
:101150000A022C491A43CA80A27E637E10021843F9
:101160008880E07BA27B0102114368468181697817
:101170004174E17F81732978C17320462330EFF7F2
:101180009FFE07A90131EFF7A5FE617B68468176D6
:10119000A87801281FD000E00CE0A07D617D00024E
:1011A00008436946C876000A087703A800F05CF98E
:1011B00009B0F0BD707D317D71E7E01C0146227FF2
:1011C000E07E120202430F48C2804A7D0B7D11026D
:1011D00019438180C5E7207DE17CE0E7436F6E74B1
:1011E000726F6C20626F72646572207769647468D4
:1011F00020697320746F6F206C61726765210D0A1E
:101200000000000000000020680D0000F0B587B06D
:10121000002842D04178027809021143854A0446E9
:1012200091423AD1627BC11C601C032A1AD0022A67
:1012300035D0012A31D1427A037A05461002227C48
:1012400018435200904205D34B7A0E7A1B02334367
:10125000934238D24A7A0B7A1102194388422DD828
:1012600040082CE0427D037D12021A434B7A0C7A2F
:101270001B022343447A057A24022C4300940193F1
:1012800002924A790B7911021943427903791002CB
:1012900018430B460246FAF73DFB07B0F0BD427D0E
:1012A000037D12021A434B790C79190221434379C9
:1012B000047918022043FAF701FAEEE7480820748F
:1012C0005DA0F8F7F5F9687C297C000208436449C1
:1012D0000027C880E61C20E07079327901021143B2
:1012E000707A327A000210430818C01B401E83B285
:1012F0008C466879297900020843697A2A7A0902BA
:1013000011434118C91B491E8AB26146C919C01947
:1013100089B280B2FAF76CFB7F1C207CB842DBDC20
:10132000687E297E000208434D49C8807079327971
:1013300001021143707A327A000210430A18207CAD
:101340006B79121A521E92B294462A791F021743E1
:101350006A7A2B7A12021A43BA18121A521E091804
:101360003818404B92B29F6889B280B26346B84742
:10137000687F297F000208433949C880687E297E3A
:1013800000020843364988806879297900020843B9
:10139000217C41186846C180707931790002084388
:1013A000217C411868460181687929790002084347
:1013B000697A2A7A090211434018217C411A684649
:1013C00041817079317900020843717A327A0902D9
:1013D00011434018217C411A68468181687F297F2A
:1013E000000208431E49C880E07BA27B0102114332
:1013F00068460180214620314A78427100220271FC
:10140000E27F82700978C17020462230EFF758FDE4
:1014100004A90131EFF75EFD617B68468173687D49
:101420002A7D010211436846C173090A017400F064
:101430001BF832E706800000436F6E74726F6C20F9
:10144000626F7264657220776964746820697320C2
:10145000746F6F206C61726765210D0A00000000D7
:1014600000000020680D0000F0B5044697B0113070
:101470000990EFF725FD002817D000270D97617818
:1014800023780A021A4303463E460DA90EA8FBF72D
:101490008FFD0EAD0FCD05AD0FC56846808B0028C2
:1014A00006D0BFA0F8F704F9D5E0C24817B0F0BDE8
:1014B000E07AA27A01021143E079A2790002104396
:1014C000091A491C8DB2A178022902D0012906D03F
:1014D0000AE00D998D4207D96F1A7F1E04E00D991D
:1014E0008D4201D3691A4F08C01980B20E90099835
:1014F000EFF7E6FC00210491069006E00A2903D1EB
:101500000499491C89B20491401C01780029F5D145
:10151000607900280CD029460D98EFF76DFC002962
:1015200000D0401C049941186846C08A484301E035
:101530006846C08A627B217B12020A43617A237A61
:1015400009021943521A521C92B2904201D30C91D3
:101550000DE0E378022B02D0012B03D004E0161A31
:10156000761E01E0101A4608881980B20C90A07B04
:10157000069D002820D001281ED0217CE07B090296
:1015800001430320FAF7A6FA8B490968884262D919
:101590008A490968401AC178827809021143099181
:1015A000A17B083002290AD0099A0C9951430E9A5E
:1015B000891849000E18EDE000260996EAE009991D
:1015C0004E43F119F5E70290010608D569786D1CC4
:1015D000002978D00006000C01430F4603E078494B
:1015E0002038401887B276498F4205D16846808AF4
:1015F00041080E980818BEE06078217802020A437C
:10160000394612A8FAF7E2FE12A80FC8059008930F
:10161000079206916846808B002803D002980A281A
:101620007ED0B6E0181F011D15D0014680780978DC
:10163000634A401A80B252421090B8185E2843D8CC
:10164000109A0E98A37A8218E07A00021843824218
:1016500003D9012302E05B4828E700236846C08ADB
:101660000C9A8446821840E03B430ED06379002BED
:1016700029D0E379A77992B20C9262461B02801AB4
:101680003B430C9A0E9390421DDB6846808AC30848
:10169000420700D05B1C6F467A8B53439BB29E4639
:1016A000089B9C460E9B3B830C9B7B83B883F88AEC
:1016B000F88300200190B980012A20D0022A30D07E
:1016C000042A4FD13EE069E00E9A1098A37A1218CE
:1016D000E07A00021843824201D9012300E000238E
:1016E0006846C28A0C9894461218607B277B0002D9
:1016F0003843824201D90127B6E70027B4E70198B1
:101700000490A27B1098099902920390019170466F
:10171000C2B20096634607990698F2F7D5FA21E01F
:101720002CE001980490A17B1098099A03900192F3
:1017300070460291C2B20096634607990698F2F786
:101740006BFB0FE001980490A17B1098099A03901D
:10175000019270460291C2B20096634607990698BC
:10176000F2F72CFC10981099400086190E9840183A
:1017700015490988401880B20E900AE0E079A179F5
:10178000000208430E906846C18A0C98081880B27F
:101790000C906D1C2878002800D014E7002085E606
:1017A000666F6E74206C696220696E76616C696424
:1017B0000D0A000001000100C4480100C8480100F2
:1017C000A0A3000002000200DE4801003EB5002890
:1017D0001CD00146401C427B037B12021A430B7B48
:1017E000CC7A1B022343447A057A24022C430094CA
:1017F000019302920A7ACB79110219434279037953
:10180000100218430B460246FAF784F83EBD00006A
:10181000F0B589B0002876D0427BC11C451C044637
:10182000032A04D0022A3ED0012A6ED007E1607D4F
:10183000227D00020E461043497A327A0902114392
:101840006A7A2B7A12021A430092019102907079FF
:1018500032790102114368792A79000210430B465C
:101860000246FAF757F868792A7901021143684667
:101870004182707932790102114368468182687928
:10188000297900020843697A2A7A0902114341182A
:101890006846C1827079317900020843717A327AE0
:1018A000090211432DE0607D237D02021A4348792D
:1018B0000E460B790102194368792B79000218430F
:1018C000F9F7FCFE68792A790102114368464182E2
:1018D00070793279010211436846818268792979E9
:1018E00000020843697A2A7A0902114341186846BE
:1018F000C182707931790002727A0843337A110219
:101900001943411899E06DE1FFE7687A2A7A0002ED
:101910001043627C5200904205D34B7A0E7A1B0230
:10192000334393420CD24A7A0B7A1102194388420C
:1019300001D8400800E048086074ABA0F7F7B8FE93
:10194000E07CA17C00020843B1490027C880E61C66
:1019500020E07079327901021143707A327A000204
:1019600010430818C01B401E80B2844668792A794B
:10197000000210436A7A2B7A12021A438218D21B91
:10198000521EC919C01992B289B280B26346FAF7E1
:101990002FF87F1C607CB842DBDCE07DA17D00027B
:1019A00008439B49C8807079327901021143707AEB
:1019B000327A000210430A18607C6B79121A521EA8
:1019C00092B294462A791F0217436A7A2B7A12023E
:1019D0001A43BA18121A521E091838188D4B92B2AF
:1019E0009F6889B280B26346B84768792979000256
:1019F0000843617C41186846418270793179000260
:101A00000843617C4118684681826879297900021F
:101A10000843697A2A7A090211434018617C411A05
:101A20006846C1827079317900020843717A327A4E
:101A3000090211434018617C411A684601837648C7
:101A40002022C36800217548984727462037B87878
:101A50001F2801D91F20B87020461E300026019093
:101A6000EFF72EFA0546761CF6B20A21EFF7C4F915
:101A70000028F8D12846012508E00A21EFF7BCF933
:101A8000731B3031654A6D1CD154EDB2B542F4D9A7
:101A9000BD78002D00D135460027B54228D2002060
:101AA0000199EFF717FA002014E08019411B5B48F9
:101AB000009A415C815402910198EFF701FA0A21E2
:101AC00048430299303840180199EFF703FA00981B
:101AD000401CC0B20090A842E7D3284600214F4ADC
:101AE00002E01154401CC0B2B042FAD32E4603E0CB
:101AF000B54201D9A81BC7B2207F00282FD0B04221
:101B000010D2301AC1B245488219203AD27F82558C
:101B1000761EF6B28E42F7D82E224254207F281A23
:101B2000401A1BE0401C3D49C0B23022002E08D0B4
:101B30008B19203BDB7F0B54401E761EC0B2F6B2E1
:101B400002E00A54401EC0B20028EFD10A702E20D5
:101B50004870207FA84202D2281A401EC7B2002F28
:101B600014D02E48EFF7A5F92C49C0B2C3190A5C6E
:101B7000CA54002802D0401EC0B2F7E7002030222D
:101B800002E00A54401CC0B2B842FAD3607E227E02
:101B900001021F481143C180E17DA27D090211436A
:101BA0008180217CE07B0902014368468181617F5D
:101BB000417400210174A17E8173E17EC17307A984
:101BC00001311648EFF786F9617B68468176607DC2
:101BD000227D010211436846C176090A017703A8F4
:101BE000FFF742FC09B0F0BD436F6E74726F6C205A
:101BF000626F72646572207769647468206973200B
