Component: ARM Compiler 5.06 update 2 (build 183) Tool: armlink [4d35b7]

==============================================================================

Section Cross References

    system_m1130.o(i.SystemInit) refers to m1130_it.o(i.commonDelay) for commonDelay
    startup_m1130.o(RESET) refers to startup_m1130.o(STACK) for __initial_sp
    startup_m1130.o(RESET) refers to startup_m1130.o(.text) for Reset_Handler
    startup_m1130.o(RESET) refers to m1130_it.o(i.HardFault_Handler) for HardFault_Handler
    startup_m1130.o(RESET) refers to m1130_it.o(i.SVC_Handler) for SVC_Handler
    startup_m1130.o(RESET) refers to m1130_it.o(i.PendSV_Handler) for PendSV_Handler
    startup_m1130.o(RESET) refers to m1130_it.o(i.SysTick_Handler) for SysTick_Handler
    startup_m1130.o(RESET) refers to m1130_utility_usart.o(i.UART0_IRQHandler) for UART0_IRQHandler
    startup_m1130.o(RESET) refers to m1130_utility_usart.o(i.UART1_IRQHandler) for UART1_IRQHandler
    startup_m1130.o(RESET) refers to m1130_eval_i2c.o(i.I2C0_IRQHandler) for I2C0_IRQHandler
    startup_m1130.o(RESET) refers to m1130_utility_usart.o(i.UART2_IRQHandler) for UART2_IRQHandler
    startup_m1130.o(RESET) refers to m1130_dma.o(i.DMA_IRQHandler) for DMA_IRQHandler
    startup_m1130.o(RESET) refers to main.o(i.GPIO0_IRQHandler) for GPIO0_IRQHandler
    startup_m1130.o(.text) refers to system_m1130.o(i.SystemInit) for SystemInit
    startup_m1130.o(.text) refers to entry.o(.ARM.Collect$$$$00000000) for __main
    m1130_adc.o(i.ADC_AnaEn) refers to m1130_utility_usart.o(i.assert_failed) for assert_failed
    m1130_adc.o(i.ADC_ClearConvValue) refers to m1130_utility_usart.o(i.assert_failed) for assert_failed
    m1130_adc.o(i.ADC_ClearITFlag) refers to m1130_utility_usart.o(i.assert_failed) for assert_failed
==============================================================================

Removing Unused input sections from the image.

    Removing system_m1130.o(.rev16_text), (4 bytes).
    Removing system_m1130.o(.revsh_text), (4 bytes).
    Removing startup_m1130.o(HEAP), (512 bytes).
    Removing m1130_adc.o(.rev16_text), (4 bytes).
    Removing m1130_adc.o(.revsh_text), (4 bytes).
    Removing m1130_adc.o(i.ADC_AnaEn), (160 bytes).
    Removing m1130_adc.o(i.ADC_ClearConvValue), (220 bytes).
    Removing m1130_adc.o(i.ADC_ClearITFlag), (172 bytes).
    Removing m1130_adc.o(i.ADC_DeInit), (264 bytes).
    Removing m1130_adc.o(i.ADC_GetConvValue), (204 bytes).
    Removing m1130_adc.o(i.ADC_GetITStatus), (196 bytes).
    Removing m1130_adc.o(i.ADC_ITConfig), (100 bytes).
    Removing m1130_adc.o(i.ADC_Init), (304 bytes).
    Removing m1130_adc.o(i.ADC_RCC_Init), (40 bytes).
    Removing m1130_adc.o(i.ADC_Run), (20 bytes).
    Removing m1130_adc.o(i.ADC_SetAccumulate), (212 bytes).
    Removing m1130_adc.o(i.ADC_SetConvChannel), (252 bytes).
    Removing m1130_adc.o(i.ADC_StartSoftwareTrigConv), (12 bytes).
==============================================================================

Image Symbol Table

    Local Symbols

    Symbol Name                              Value     Ov Type        Size  Object(Section)

    RESET                                    0x00000000   Section      176  startup_m1130.o(RESET)
    ../clib/microlib/division.c              0x00000000   Number         0  idiv.o ABSOLUTE
    ../clib/microlib/division.c              0x00000000   Number         0  uidiv.o ABSOLUTE
    ../clib/microlib/division.c              0x00000000   Number         0  uldiv.o ABSOLUTE
    ../clib/microlib/init/entry.s            0x00000000   Number         0  entry10a.o ABSOLUTE
    ../clib/microlib/init/entry.s            0x00000000   Number         0  entry.o ABSOLUTE
    ../clib/microlib/init/entry.s            0x00000000   Number         0  entry11a.o ABSOLUTE
    ../clib/microlib/init/entry.s            0x00000000   Number         0  entry2.o ABSOLUTE
    ../clib/microlib/init/entry.s            0x00000000   Number         0  entry5.o ABSOLUTE
    ../clib/microlib/init/entry.s            0x00000000   Number         0  entry7a.o ABSOLUTE
    ../clib/microlib/init/entry.s            0x00000000   Number         0  entry7b.o ABSOLUTE
    ../clib/microlib/init/entry.s            0x00000000   Number         0  entry8a.o ABSOLUTE
    ../clib/microlib/init/entry.s            0x00000000   Number         0  entry9b.o ABSOLUTE
    ../clib/microlib/init/entry.s            0x00000000   Number         0  entry8b.o ABSOLUTE
    ../clib/microlib/init/entry.s            0x00000000   Number         0  entry9a.o ABSOLUTE
    ../clib/microlib/init/entry.s            0x00000000   Number         0  entry11b.o ABSOLUTE
    ../clib/microlib/init/entry.s            0x00000000   Number         0  entry10b.o ABSOLUTE
    ../clib/microlib/longlong.c              0x00000000   Number         0  llshl.o ABSOLUTE
    ../clib/microlib/longlong.c              0x00000000   Number         0  llushr.o ABSOLUTE
    ../clib/microlib/longlong.c              0x00000000   Number         0  llsshr.o ABSOLUTE
    ../clib/microlib/printf/printf.c         0x00000000   Number         0  printfb.o ABSOLUTE
    ../clib/microlib/printf/printf.c         0x00000000   Number         0  printf0.o ABSOLUTE
    ../clib/microlib/printf/printf.c         0x00000000   Number         0  printf1.o ABSOLUTE
    ../clib/microlib/printf/printf.c         0x00000000   Number         0  printf2.o ABSOLUTE
    ../clib/microlib/printf/printf.c         0x00000000   Number         0  printf3.o ABSOLUTE
    ../clib/microlib/printf/printf.c         0x00000000   Number         0  printf5.o ABSOLUTE
    ../clib/microlib/printf/printf.c         0x00000000   Number         0  printf4.o ABSOLUTE
    ../clib/microlib/printf/printf.c         0x00000000   Number         0  printf6.o ABSOLUTE
    ../clib/microlib/printf/printf.c         0x00000000   Number         0  printf7.o ABSOLUTE
    ../clib/microlib/printf/printf.c         0x00000000   Number         0  printfa.o ABSOLUTE
    ../clib/microlib/printf/printf.c         0x00000000   Number         0  printf8.o ABSOLUTE
    ../clib/microlib/printf/stubs.s          0x00000000   Number         0  stubs.o ABSOLUTE
    ../clib/microlib/stdio/streams.c         0x00000000   Number         0  stdout.o ABSOLUTE
    ../clib/microlib/string/memcpy.c         0x00000000   Number         0  memcpyb.o ABSOLUTE
    ../clib/microlib/string/memcpy.c         0x00000000   Number         0  memcpya.o ABSOLUTE
    ../clib/microlib/string/memset.c         0x00000000   Number         0  memseta.o ABSOLUTE
    ../clib/microlib/string/strlen.c         0x00000000   Number         0  strlen.o ABSOLUTE
    ../clib/microlib/string/strncmp.c        0x00000000   Number         0  strncmp.o ABSOLUTE
    ../clib/microlib/stubs.s                 0x00000000   Number         0  iusefp.o ABSOLUTE
    ../fplib/microlib/fpadd.c                0x00000000   Number         0  dadd.o ABSOLUTE
    ../fplib/microlib/fpdiv.c                0x00000000   Number         0  ddiv.o ABSOLUTE
    ../fplib/microlib/fpepilogue.c           0x00000000   Number         0  depilogue.o ABSOLUTE
    ../fplib/microlib/fpfix.c                0x00000000   Number         0  dfixul.o ABSOLUTE
    ../fplib/microlib/fpmul.c                0x00000000   Number         0  dmul.o ABSOLUTE
    ..\..\..\Libraries\CMSIS\Device\ALPOS\M1130\Source\Templates\arm\startup_m1130.s 0x00000000   Number         0  startup_m1130.o ABSOLUTE
    ..\..\..\Libraries\CMSIS\Device\ALPOS\M1130\Source\Templates\system_m1130.c 0x00000000   Number         0  system_m1130.o ABSOLUTE
    ..\..\..\Libraries\M1130_StdPeriph_Driver\src\m1130_adc.c 0x00000000   Number         0  m1130_adc.o ABSOLUTE
    ..\..\..\Libraries\M1130_StdPeriph_Driver\src\m1130_cmp.c 0x00000000   Number         0  m1130_cmp.o ABSOLUTE
    ..\..\..\Libraries\M1130_StdPeriph_Driver\src\m1130_dma.c 0x00000000   Number         0  m1130_dma.o ABSOLUTE
    ..\..\..\Libraries\M1130_StdPeriph_Driver\src\m1130_gpio.c 0x00000000   Number         0  m1130_gpio.o ABSOLUTE
    ..\..\..\Libraries\M1130_StdPeriph_Driver\src\m1130_i2c.c 0x00000000   Number         0  m1130_i2c.o ABSOLUTE
    ..\..\..\Libraries\M1130_StdPeriph_Driver\src\m1130_qspi.c 0x00000000   Number         0  m1130_qspi.o ABSOLUTE
    ..\..\..\Libraries\M1130_StdPeriph_Driver\src\m1130_rcc.c 0x00000000   Number         0  m1130_rcc.o ABSOLUTE
    ..\..\..\Libraries\M1130_StdPeriph_Driver\src\m1130_rtc.c 0x00000000   Number         0  m1130_rtc.o ABSOLUTE
    ..\..\..\Libraries\M1130_StdPeriph_Driver\src\m1130_tim.c 0x00000000   Number         0  m1130_tim.o ABSOLUTE
    ..\..\..\Libraries\M1130_StdPeriph_Driver\src\m1130_usart.c 0x00000000   Number         0  m1130_usart.o ABSOLUTE
    ..\..\..\Libraries\M1130_StdPeriph_Driver\src\m1130_wdg.c 0x00000000   Number         0  m1130_wdg.o ABSOLUTE
    ..\..\..\Libraries\M1130_StdPeriph_Driver\src\m1130_xip1.c 0x00000000   Number         0  m1130_xip1.o ABSOLUTE
    ..\..\..\Libraries\M1130_StdPeriph_Driver\src\m1130_xip_write.c 0x00000000   Number         0  m1130_xip_write.o ABSOLUTE
    ..\..\..\Libraries\M1130_StdPeriph_Driver\src\misc.c 0x00000000   Number         0  misc.o ABSOLUTE
    ..\..\..\Libraries\Utility\m1130_utility.c 0x00000000   Number         0  m1130_utility.o ABSOLUTE
    ..\..\..\Libraries\Utility\m1130_utility_dma.c 0x00000000   Number         0  m1130_utility_dma.o ABSOLUTE
    ..\..\..\Libraries\Utility\m1130_utility_usart.c 0x00000000   Number         0  m1130_utility_usart.o ABSOLUTE
    ..\..\..\Libraries\eval\m1130_eval.c     0x00000000   Number         0  m1130_eval.o ABSOLUTE
    ..\..\..\Libraries\eval\m1130_eval_i2c.c 0x00000000   Number         0  m1130_eval_i2c.o ABSOLUTE
    ..\..\..\Libraries\eval\m1130_eval_qspi.c 0x00000000   Number         0  m1130_eval_qspi.o ABSOLUTE
    ..\\..\\..\\Libraries\\CMSIS\\Device\\ALPOS\\M1130\\Source\\Templates\\system_m1130.c 0x00000000   Number         0  system_m1130.o ABSOLUTE
    ..\\..\\..\\Libraries\\M1130_StdPeriph_Driver\\src\\m1130_adc.c 0x00000000   Number         0  m1130_adc.o ABSOLUTE
    ..\\..\\..\\Libraries\\M1130_StdPeriph_Driver\\src\\m1130_cmp.c 0x00000000   Number         0  m1130_cmp.o ABSOLUTE
    ..\\..\\..\\Libraries\\M1130_StdPeriph_Driver\\src\\m1130_dma.c 0x00000000   Number         0  m1130_dma.o ABSOLUTE
    ..\\..\\..\\Libraries\\M1130_StdPeriph_Driver\\src\\m1130_gpio.c 0x00000000   Number         0  m1130_gpio.o ABSOLUTE
    ..\\..\\..\\Libraries\\M1130_StdPeriph_Driver\\src\\m1130_i2c.c 0x00000000   Number         0  m1130_i2c.o ABSOLUTE
    ..\\..\\..\\Libraries\\M1130_StdPeriph_Driver\\src\\m1130_qspi.c 0x00000000   Number         0  m1130_qspi.o ABSOLUTE
    ..\\..\\..\\Libraries\\M1130_StdPeriph_Driver\\src\\m1130_rcc.c 0x00000000   Number         0  m1130_rcc.o ABSOLUTE
    ..\\..\\..\\Libraries\\M1130_StdPeriph_Driver\\src\\m1130_rtc.c 0x00000000   Number         0  m1130_rtc.o ABSOLUTE
    ..\\..\\..\\Libraries\\M1130_StdPeriph_Driver\\src\\m1130_tim.c 0x00000000   Number         0  m1130_tim.o ABSOLUTE
    ..\\..\\..\\Libraries\\M1130_StdPeriph_Driver\\src\\m1130_usart.c 0x00000000   Number         0  m1130_usart.o ABSOLUTE
    ..\\..\\..\\Libraries\\M1130_StdPeriph_Driver\\src\\m1130_wdg.c 0x00000000   Number         0  m1130_wdg.o ABSOLUTE
    ..\\..\\..\\Libraries\\M1130_StdPeriph_Driver\\src\\m1130_xip1.c 0x00000000   Number         0  m1130_xip1.o ABSOLUTE
    ..\\..\\..\\Libraries\\M1130_StdPeriph_Driver\\src\\m1130_xip_write.c 0x00000000   Number         0  m1130_xip_write.o ABSOLUTE
    ..\\..\\..\\Libraries\\M1130_StdPeriph_Driver\\src\\misc.c 0x00000000   Number         0  misc.o ABSOLUTE
    ..\\..\\..\\Libraries\\Utility\\m1130_utility.c 0x00000000   Number         0  m1130_utility.o ABSOLUTE
    ..\\..\\..\\Libraries\\Utility\\m1130_utility_dma.c 0x00000000   Number         0  m1130_utility_dma.o ABSOLUTE
    ..\\..\\..\\Libraries\\Utility\\m1130_utility_usart.c 0x00000000   Number         0  m1130_utility_usart.o ABSOLUTE
    ..\\..\\..\\Libraries\\eval\\m1130_eval.c 0x00000000   Number         0  m1130_eval.o ABSOLUTE
    ..\\..\\..\\Libraries\\eval\\m1130_eval_i2c.c 0x00000000   Number         0  m1130_eval_i2c.o ABSOLUTE
    ..\\..\\..\\Libraries\\eval\\m1130_eval_qspi.c 0x00000000   Number         0  m1130_eval_qspi.o ABSOLUTE
    ..\\src\\m1130_it.c                      0x00000000   Number         0  m1130_it.o ABSOLUTE
    ..\\src\\main.c                          0x00000000   Number         0  main.o ABSOLUTE
    ..\src\m1130_it.c                        0x00000000   Number         0  m1130_it.o ABSOLUTE
    ..\src\main.c                            0x00000000   Number         0  main.o ABSOLUTE
    cdrcmple.s                               0x00000000   Number         0  cdrcmple.o ABSOLUTE
    dc.s                                     0x00000000   Number         0  dc.o ABSOLUTE
    handlers.s                               0x00000000   Number         0  handlers.o ABSOLUTE
    init.s                                   0x00000000   Number         0  init.o ABSOLUTE
    .text                                    0x000000b0   Section       28  startup_m1130.o(.text)
    i.HardFault_Handler                      0x000000cc   Section        0  m1130_it.o(i.HardFault_Handler)
    i.PendSV_Handler                         0x000000ce   Section        0  m1130_it.o(i.PendSV_Handler)
    i.SVC_Handler                            0x000000d0   Section        0  m1130_it.o(i.SVC_Handler)
    i.SysTick_Handler                        0x000000d2   Section        0  m1130_it.o(i.SysTick_Handler)
    i.commonDelay                            0x000000d4   Section        0  m1130_it.o(i.commonDelay)
    .ARM.Collect$$$$00000000                 0x000000e8   Section        0  entry.o(.ARM.Collect$$$$00000000)
    .ARM.Collect$$$$00000001                 0x000000e8   Section        4  entry2.o(.ARM.Collect$$$$00000001)
    .ARM.Collect$$$$00000004                 0x000000ec   Section        4  entry5.o(.ARM.Collect$$$$00000004)
    .ARM.Collect$$$$00000008                 0x000000f0   Section        0  entry7b.o(.ARM.Collect$$$$00000008)
    .ARM.Collect$$$$0000000A                 0x000000f0   Section        0  entry8b.o(.ARM.Collect$$$$0000000A)
    .ARM.Collect$$$$0000000B                 0x000000f0   Section        8  entry9a.o(.ARM.Collect$$$$0000000B)
    .ARM.Collect$$$$0000000D                 0x000000f8   Section        0  entry10a.o(.ARM.Collect$$$$0000000D)
    .ARM.Collect$$$$0000000F                 0x000000f8   Section        0  entry11a.o(.ARM.Collect$$$$0000000F)
    .ARM.Collect$$$$00002712                 0x000000f8   Section        4  entry2.o(.ARM.Collect$$$$00002712)
    __lit__00000000                          0x000000f8   Data           4  entry2.o(.ARM.Collect$$$$00002712)
    .text                                    0x000000fc   Section       36  init.o(.text)
    i.__scatterload_copy                     0x00000120   Section       14  handlers.o(i.__scatterload_copy)
    i.__scatterload_null                     0x0000012e   Section        2  handlers.o(i.__scatterload_null)
    i.__scatterload_zeroinit                 0x00000130   Section       14  handlers.o(i.__scatterload_zeroinit)
    .text                                    0x00000160   Section        0  uidiv.o(.text)
    i.DMA_IRQHandler                         0x0000018c   Section        0  m1130_dma.o(i.DMA_IRQHandler)
    i.DmaChannelClearInterruptStatus         0x00000200   Section        0  m1130_dma.o(i.DmaChannelClearInterruptStatus)
    i.DmaChannelInterruptStatusBit           0x00000268   Section        0  m1130_dma.o(i.DmaChannelInterruptStatusBit)
    i.GPIO0_IRQHandler                       0x000002e0   Section        0  main.o(i.GPIO0_IRQHandler)
    i.GPIO_ClearPin                          0x00000348   Section        0  m1130_gpio.o(i.GPIO_ClearPin)
    i.GPIO_ConfigPull                        0x000003bc   Section        0  m1130_gpio.o(i.GPIO_ConfigPull)
    i.GPIO_EdgeITEnable                      0x00000420   Section        0  m1130_gpio.o(i.GPIO_EdgeITEnable)
    i.GPIO_IRQInit                           0x000004c8   Section        0  main.o(i.GPIO_IRQInit)
    i.GPIO_ReadPin                           0x000004e0   Section        0  m1130_gpio.o(i.GPIO_ReadPin)
    i.GPIO_SetPin                            0x00000610   Section        0  m1130_gpio.o(i.GPIO_SetPin)
    i.GPIO_SetPinDir                         0x00000684   Section        0  m1130_gpio.o(i.GPIO_SetPinDir)
    i.GPIO_SetPinMux                         0x0000073c   Section        0  m1130_gpio.o(i.GPIO_SetPinMux)
    i.I2C0_IRQHandler                        0x00000830   Section        0  m1130_eval_i2c.o(i.I2C0_IRQHandler)
    i.I2C_ClearITPendingBit                  0x000008f8   Section        0  m1130_i2c.o(i.I2C_ClearITPendingBit)
    i.I2C_Clear_TX_ABRT_SOURCE               0x00000960   Section        0  m1130_i2c.o(i.I2C_Clear_TX_ABRT_SOURCE)
    i.I2C_GetFlagStatus                      0x00000a58   Section        0  m1130_i2c.o(i.I2C_GetFlagStatus)
    i.I2C_GetITFlag                          0x00000a60   Section        0  m1130_i2c.o(i.I2C_GetITFlag)
    i.I2C_ITConfig                           0x00000abc   Section        0  m1130_i2c.o(i.I2C_ITConfig)
    i.I2C_ReadRegister                       0x00000b5c   Section        0  m1130_i2c.o(i.I2C_ReadRegister)
    i.NVIC_Init                              0x00000bd8   Section        0  misc.o(i.NVIC_Init)
    i.RCC_GetClocksFreq                      0x00000c78   Section        0  m1130_rcc.o(i.RCC_GetClocksFreq)
    i.RCC_ResetAHBCLK                        0x00000e18   Section        0  m1130_rcc.o(i.RCC_ResetAHBCLK)
    i.RCC_SETCLKDivider                      0x00000e38   Section        0  m1130_rcc.o(i.RCC_SETCLKDivider)
    i.RCC_SetAHBCLK                          0x00000ec0   Section        0  m1130_rcc.o(i.RCC_SetAHBCLK)
    i.RCC_SetPRESETCTRL                      0x00000ed0   Section        0  m1130_rcc.o(i.RCC_SetPRESETCTRL)
    i.RCC_UARTCLKSel                         0x00000ee0   Section        0  m1130_rcc.o(i.RCC_UARTCLKSel)
    i.SystemInit                             0x00000f4c   Section        0  system_m1130.o(i.SystemInit)
    i.UART0_IRQHandler                       0x00000fa8   Section        0  m1130_utility_usart.o(i.UART0_IRQHandler)
    i.UART1_IRQHandler                       0x00000fbc   Section        0  m1130_utility_usart.o(i.UART1_IRQHandler)
    i.UART2_IRQHandler                       0x00000fd0   Section        0  m1130_utility_usart.o(i.UART2_IRQHandler)
    i.UART_Cmd                               0x00000fe4   Section        0  m1130_usart.o(i.UART_Cmd)
    i.UART_Configuration                     0x0000106c   Section        0  m1130_utility_usart.o(i.UART_Configuration)
    i.UART_GetFlagStatus                     0x000011cc   Section        0  m1130_usart.o(i.UART_GetFlagStatus)
    i.UART_GetITStatus                       0x000012b0   Section        0  m1130_usart.o(i.UART_GetITStatus)
    i.UART_IRQHandler                        0x0000136c   Section        0  m1130_utility_usart.o(i.UART_IRQHandler)
    i.UART_ITConfig                          0x000013d0   Section        0  m1130_usart.o(i.UART_ITConfig)
    i.UART_Init                              0x00001474   Section        0  m1130_usart.o(i.UART_Init)
    i.UART_Reset                             0x00001694   Section        0  m1130_usart.o(i.UART_Reset)
    i.UART_SendData                          0x00001740   Section        0  m1130_usart.o(i.UART_SendData)
    i.UART_StructInit                        0x000017b0   Section        0  m1130_usart.o(i.UART_StructInit)
    i.__0printf$3                            0x000017d4   Section        0  printf3.o(i.__0printf$3)
    i.__ARM_common_switch8                   0x000017f4   Section        0  m1130_utility_usart.o(i.__ARM_common_switch8)
    i._printf_core                           0x00001810   Section        0  printf3.o(i._printf_core)
    _printf_core                             0x00001811   Thumb Code   456  printf3.o(i._printf_core)
    i.assert_failed                          0x000019dc   Section        0  m1130_utility_usart.o(i.assert_failed)
    i.fputc                                  0x00001a18   Section        0  m1130_utility_usart.o(i.fputc)
    i.i2c_abort_check                        0x00001a40   Section        0  m1130_eval_i2c.o(i.i2c_abort_check)
    i2c_abort_check                          0x00001a41   Thumb Code    12  m1130_eval_i2c.o(i.i2c_abort_check)
    i.i2c_isr_read                           0x00001a50   Section        0  m1130_eval_i2c.o(i.i2c_isr_read)
    i.main                                   0x00001aa0   Section        0  main.o(i.main)
    .data                                    0x20000000   Section        8  main.o(.data)
    .data                                    0x20000008   Section       93  m1130_eval_i2c.o(.data)
    i2c_dev_ids                              0x20000020   Data          69  m1130_eval_i2c.o(.data)
    .data                                    0x20000068   Section        4  stdout.o(.data)
    .bss                                     0x2000006c   Section       16  m1130_dma.o(.bss)
    .bss                                     0x2000007c   Section     1060  m1130_utility_usart.o(.bss)
    STACK                                    0x200004a0   Section     1024  startup_m1130.o(STACK)

    Global Symbols

    Symbol Name                              Value     Ov Type        Size  Object(Section)

    BuildAttributes$$THM_ISAv3M$S$PE$A:L22$X:L11$S22$IEEE1$IW$USESV6$~STKCKD$USESV7$~SHL$OSPACE$ROPI$EBA8$MICROLIB$REQ8$PRES8$EABIv2 0x00000000   Number         0  anon$$obj.o ABSOLUTE
    __ARM_use_no_argv                        0x00000000   Number         0  main.o ABSOLUTE
    __Vectors                                0x00000000   Data           4  startup_m1130.o(RESET)
    _printf_a                                0x00000000   Number         0  stubs.o ABSOLUTE
    _printf_c                                0x00000000   Number         0  stubs.o ABSOLUTE
    _printf_charcount                        0x00000000   Number         0  stubs.o ABSOLUTE
    _printf_d                                0x00000000   Number         0  stubs.o ABSOLUTE
    _printf_e                                0x00000000   Number         0  stubs.o ABSOLUTE
    _printf_f                                0x00000000   Number         0  stubs.o ABSOLUTE
    _printf_flags                            0x00000000   Number         0  stubs.o ABSOLUTE
    _printf_fp_dec                           0x00000000   Number         0  stubs.o ABSOLUTE
    _printf_fp_hex                           0x00000000   Number         0  stubs.o ABSOLUTE
    _printf_g                                0x00000000   Number         0  stubs.o ABSOLUTE
    _printf_i                                0x00000000   Number         0  stubs.o ABSOLUTE
    _printf_int_dec                          0x00000000   Number         0  stubs.o ABSOLUTE
    _printf_l                                0x00000000   Number         0  stubs.o ABSOLUTE
    _printf_lc                               0x00000000   Number         0  stubs.o ABSOLUTE
    _printf_ll                               0x00000000   Number         0  stubs.o ABSOLUTE
    _printf_lld                              0x00000000   Number         0  stubs.o ABSOLUTE
    _printf_lli                              0x00000000   Number         0  stubs.o ABSOLUTE
    _printf_llo                              0x00000000   Number         0  stubs.o ABSOLUTE
    _printf_llu                              0x00000000   Number         0  stubs.o ABSOLUTE
    _printf_llx                              0x00000000   Number         0  stubs.o ABSOLUTE
    _printf_longlong_dec                     0x00000000   Number         0  stubs.o ABSOLUTE
    _printf_longlong_hex                     0x00000000   Number         0  stubs.o ABSOLUTE
    _printf_longlong_oct                     0x00000000   Number         0  stubs.o ABSOLUTE
    _printf_ls                               0x00000000   Number         0  stubs.o ABSOLUTE
    _printf_mbtowc                           0x00000000   Number         0  stubs.o ABSOLUTE
    _printf_n                                0x00000000   Number         0  stubs.o ABSOLUTE
    _printf_o                                0x00000000   Number         0  stubs.o ABSOLUTE
    _printf_p                                0x00000000   Number         0  stubs.o ABSOLUTE
    _printf_percent                          0x00000000   Number         0  stubs.o ABSOLUTE
    _printf_pre_padding                      0x00000000   Number         0  stubs.o ABSOLUTE
    _printf_return_value                     0x00000000   Number         0  stubs.o ABSOLUTE
    _printf_s                                0x00000000   Number         0  stubs.o ABSOLUTE
    _printf_sizespec                         0x00000000   Number         0  stubs.o ABSOLUTE
    _printf_str                              0x00000000   Number         0  stubs.o ABSOLUTE
    _printf_truncate_signed                  0x00000000   Number         0  stubs.o ABSOLUTE
    _printf_truncate_unsigned                0x00000000   Number         0  stubs.o ABSOLUTE
    _printf_u                                0x00000000   Number         0  stubs.o ABSOLUTE
    _printf_wc                               0x00000000   Number         0  stubs.o ABSOLUTE
    _printf_wctomb                           0x00000000   Number         0  stubs.o ABSOLUTE
    _printf_widthprec                        0x00000000   Number         0  stubs.o ABSOLUTE
    _printf_x                                0x00000000   Number         0  stubs.o ABSOLUTE
    __cpp_initialize__aeabi_                  - Undefined Weak Reference
    __cxa_finalize                            - Undefined Weak Reference
    __decompress                              - Undefined Weak Reference
    _clock_init                               - Undefined Weak Reference
    _microlib_exit                            - Undefined Weak Reference
    Reset_Handler                            0x000000b1   Thumb Code     8  startup_m1130.o(.text)
    __Vectors_End                            0x000000b0   Data           0  startup_m1130.o(RESET)
    __Vectors_Size                           0x000000b0   Number         0  startup_m1130.o ABSOLUTE
    NMI_Handler                              0x000000b9   Thumb Code     2  startup_m1130.o(.text)
    ADC0_IRQHandler                          0x000000c3   Thumb Code     0  startup_m1130.o(.text)
    BITCOPY_IRQHandler                       0x000000c3   Thumb Code     0  startup_m1130.o(.text)
    BOD_IRQHandler                           0x000000c3   Thumb Code     0  startup_m1130.o(.text)
    BOR_IRQHandler                           0x000000c3   Thumb Code     0  startup_m1130.o(.text)
    CMP_IRQHandler                           0x000000c3   Thumb Code     0  startup_m1130.o(.text)
    GPIO1_IRQHandler                         0x000000c3   Thumb Code     0  startup_m1130.o(.text)
    LED_IRQHandler                           0x000000c3   Thumb Code     0  startup_m1130.o(.text)
    QSPI0_IRQHandler                         0x000000c3   Thumb Code     0  startup_m1130.o(.text)
    QSPI1_IRQHandler                         0x000000c3   Thumb Code     0  startup_m1130.o(.text)
    QSPI2_IRQHandler                         0x000000c3   Thumb Code     0  startup_m1130.o(.text)
    RTC_IRQHandler                           0x000000c3   Thumb Code     0  startup_m1130.o(.text)
    TIM15_IRQHandler                         0x000000c3   Thumb Code     0  startup_m1130.o(.text)
    TIM16_IRQHandler                         0x000000c3   Thumb Code     0  startup_m1130.o(.text)
    TIM17_IRQHandler                         0x000000c3   Thumb Code     0  startup_m1130.o(.text)
    TIM1_IRQHandler                          0x000000c3   Thumb Code     0  startup_m1130.o(.text)
    TIM4_IRQHandler                          0x000000c3   Thumb Code     0  startup_m1130.o(.text)
    USB0_DMA_IRQHandler                      0x000000c3   Thumb Code     0  startup_m1130.o(.text)
    USB0_IRQHandler                          0x000000c3   Thumb Code     0  startup_m1130.o(.text)
    WKT_IRQHandler                           0x000000c3   Thumb Code     0  startup_m1130.o(.text)
    HardFault_Handler                        0x000000cd   Thumb Code     2  m1130_it.o(i.HardFault_Handler)
    PendSV_Handler                           0x000000cf   Thumb Code     2  m1130_it.o(i.PendSV_Handler)
    SVC_Handler                              0x000000d1   Thumb Code     2  m1130_it.o(i.SVC_Handler)
    SysTick_Handler                          0x000000d3   Thumb Code     2  m1130_it.o(i.SysTick_Handler)
    commonDelay                              0x000000d5   Thumb Code    18  m1130_it.o(i.commonDelay)
    __main                                   0x000000e9   Thumb Code     0  entry.o(.ARM.Collect$$$$00000000)
    _main_stk                                0x000000e9   Thumb Code     0  entry2.o(.ARM.Collect$$$$00000001)
    _main_scatterload                        0x000000ed   Thumb Code     0  entry5.o(.ARM.Collect$$$$00000004)
    __main_after_scatterload                 0x000000f1   Thumb Code     0  entry5.o(.ARM.Collect$$$$00000004)
    _main_clock                              0x000000f1   Thumb Code     0  entry7b.o(.ARM.Collect$$$$00000008)
    _main_cpp_init                           0x000000f1   Thumb Code     0  entry8b.o(.ARM.Collect$$$$0000000A)
    _main_init                               0x000000f1   Thumb Code     0  entry9a.o(.ARM.Collect$$$$0000000B)
    __rt_final_cpp                           0x000000f9   Thumb Code     0  entry10a.o(.ARM.Collect$$$$0000000D)
    __rt_final_exit                          0x000000f9   Thumb Code     0  entry11a.o(.ARM.Collect$$$$0000000F)
    __scatterload                            0x000000fd   Thumb Code    28  init.o(.text)
    __scatterload_rt2                        0x000000fd   Thumb Code     0  init.o(.text)
    __scatterload_copy                       0x00000121   Thumb Code    14  handlers.o(i.__scatterload_copy)
    __scatterload_null                       0x0000012f   Thumb Code     2  handlers.o(i.__scatterload_null)
    __scatterload_zeroinit                   0x00000131   Thumb Code    14  handlers.o(i.__scatterload_zeroinit)
    Region$$Table$$Base                      0x00000140   Number         0  anon$$obj.o(Region$$Table)
    Region$$Table$$Limit                     0x00000160   Number         0  anon$$obj.o(Region$$Table)
    __aeabi_uidiv                            0x00000161   Thumb Code     0  uidiv.o(.text)
    __aeabi_uidivmod                         0x00000161   Thumb Code    44  uidiv.o(.text)
    DMA_IRQHandler                           0x0000018d   Thumb Code   110  m1130_dma.o(i.DMA_IRQHandler)
    DmaChannelClearInterruptStatus           0x00000201   Thumb Code    40  m1130_dma.o(i.DmaChannelClearInterruptStatus)
    DmaChannelInterruptStatusBit             0x00000269   Thumb Code    54  m1130_dma.o(i.DmaChannelInterruptStatusBit)
    GPIO0_IRQHandler                         0x000002e1   Thumb Code    66  main.o(i.GPIO0_IRQHandler)
    GPIO_ClearPin                            0x00000349   Thumb Code    44  m1130_gpio.o(i.GPIO_ClearPin)
    GPIO_ConfigPull                          0x000003bd   Thumb Code    92  m1130_gpio.o(i.GPIO_ConfigPull)
    GPIO_EdgeITEnable                        0x00000421   Thumb Code    94  m1130_gpio.o(i.GPIO_EdgeITEnable)
    GPIO_IRQInit                             0x000004c9   Thumb Code    24  main.o(i.GPIO_IRQInit)
    GPIO_ReadPin                             0x000004e1   Thumb Code   232  m1130_gpio.o(i.GPIO_ReadPin)
    GPIO_SetPin                              0x00000611   Thumb Code    44  m1130_gpio.o(i.GPIO_SetPin)
    GPIO_SetPinDir                           0x00000685   Thumb Code   108  m1130_gpio.o(i.GPIO_SetPinDir)
    GPIO_SetPinMux                           0x0000073d   Thumb Code   170  m1130_gpio.o(i.GPIO_SetPinMux)
    I2C0_IRQHandler                          0x00000831   Thumb Code   188  m1130_eval_i2c.o(i.I2C0_IRQHandler)
    I2C_ClearITPendingBit                    0x000008f9   Thumb Code    34  m1130_i2c.o(i.I2C_ClearITPendingBit)
    I2C_Clear_TX_ABRT_SOURCE                 0x00000961   Thumb Code   174  m1130_i2c.o(i.I2C_Clear_TX_ABRT_SOURCE)
    I2C_GetFlagStatus                        0x00000a59   Thumb Code     8  m1130_i2c.o(i.I2C_GetFlagStatus)
    I2C_GetITFlag                            0x00000a61   Thumb Code    28  m1130_i2c.o(i.I2C_GetITFlag)
    I2C_ITConfig                             0x00000abd   Thumb Code    90  m1130_i2c.o(i.I2C_ITConfig)
    I2C_ReadRegister                         0x00000b5d   Thumb Code    58  m1130_i2c.o(i.I2C_ReadRegister)
    NVIC_Init                                0x00000bd9   Thumb Code    94  misc.o(i.NVIC_Init)
    RCC_GetClocksFreq                        0x00000c79   Thumb Code   398  m1130_rcc.o(i.RCC_GetClocksFreq)
    RCC_ResetAHBCLK                          0x00000e19   Thumb Code    30  m1130_rcc.o(i.RCC_ResetAHBCLK)
    RCC_SETCLKDivider                        0x00000e39   Thumb Code    76  m1130_rcc.o(i.RCC_SETCLKDivider)
    RCC_SetAHBCLK                            0x00000ec1   Thumb Code    16  m1130_rcc.o(i.RCC_SetAHBCLK)
    RCC_SetPRESETCTRL                        0x00000ed1   Thumb Code    16  m1130_rcc.o(i.RCC_SetPRESETCTRL)
    RCC_UARTCLKSel                           0x00000ee1   Thumb Code    42  m1130_rcc.o(i.RCC_UARTCLKSel)
    SystemInit                               0x00000f4d   Thumb Code    76  system_m1130.o(i.SystemInit)
    UART0_IRQHandler                         0x00000fa9   Thumb Code    12  m1130_utility_usart.o(i.UART0_IRQHandler)
    UART1_IRQHandler                         0x00000fbd   Thumb Code    12  m1130_utility_usart.o(i.UART1_IRQHandler)
    UART2_IRQHandler                         0x00000fd1   Thumb Code    12  m1130_utility_usart.o(i.UART2_IRQHandler)
    UART_Cmd                                 0x00000fe5   Thumb Code    62  m1130_usart.o(i.UART_Cmd)
    UART_Configuration                       0x0000106d   Thumb Code   332  m1130_utility_usart.o(i.UART_Configuration)
    UART_GetFlagStatus                       0x000011cd   Thumb Code   152  m1130_usart.o(i.UART_GetFlagStatus)
    UART_GetITStatus                         0x000012b1   Thumb Code   110  m1130_usart.o(i.UART_GetITStatus)
    UART_IRQHandler                          0x0000136d   Thumb Code   100  m1130_utility_usart.o(i.UART_IRQHandler)
    UART_ITConfig                            0x000013d1   Thumb Code    88  m1130_usart.o(i.UART_ITConfig)
    UART_Init                                0x00001475   Thumb Code   462  m1130_usart.o(i.UART_Init)
    UART_Reset                               0x00001695   Thumb Code   100  m1130_usart.o(i.UART_Reset)
    UART_SendData                            0x00001741   Thumb Code    38  m1130_usart.o(i.UART_SendData)
    UART_StructInit                          0x000017b1   Thumb Code    34  m1130_usart.o(i.UART_StructInit)
    __0printf$3                              0x000017d5   Thumb Code    24  printf3.o(i.__0printf$3)
    __1printf$3                              0x000017d5   Thumb Code     0  printf3.o(i.__0printf$3)
    __2printf                                0x000017d5   Thumb Code     0  printf3.o(i.__0printf$3)
    __ARM_common_switch8                     0x000017f5   Thumb Code    26  m1130_utility_usart.o(i.__ARM_common_switch8)
    assert_failed                            0x000019dd   Thumb Code    12  m1130_utility_usart.o(i.assert_failed)
    fputc                                    0x00001a19   Thumb Code    34  m1130_utility_usart.o(i.fputc)
    i2c_isr_read                             0x00001a51   Thumb Code    72  m1130_eval_i2c.o(i.i2c_isr_read)
    main                                     0x00001aa1   Thumb Code   106  main.o(i.main)
    data                                     0x20000000   Data           4  main.o(.data)
    irs                                      0x20000004   Data           4  main.o(.data)
    I2CState                                 0x20000008   Data           1  m1130_eval_i2c.o(.data)
    I2C_DEVICE_INTERNEL_ADDR_CYCLES          0x2000000c   Data           4  m1130_eval_i2c.o(.data)
    SPEEDMODE                                0x20000010   Data           4  m1130_eval_i2c.o(.data)
    i2c_dev_id                               0x20000014   Data           4  m1130_eval_i2c.o(.data)
    StoreAddr                                0x20000018   Data           4  m1130_eval_i2c.o(.data)
    RxByteNumRemained                        0x2000001c   Data           4  m1130_eval_i2c.o(.data)
    __stdout                                 0x20000068   Data           4  stdout.o(.data)
    DmaHandlerGroup                          0x2000006c   Data          16  m1130_dma.o(.bss)
    Uart0_Recv                               0x2000007c   Data         268  m1130_utility_usart.o(.bss)
    Uart1_Recv                               0x20000188   Data         268  m1130_utility_usart.o(.bss)
    Uart2_Recv                               0x20000294   Data         268  m1130_utility_usart.o(.bss)
    DmaRecvBuf                               0x200003a0   Data         256  m1130_utility_usart.o(.bss)
    __initial_sp                             0x200008a0   Data           0  startup_m1130.o(STACK)



==============================================================================

Memory Map of the image

  Image Entry point : 0x000000e9

  Load Region LR_IROM1 (Base: 0x00000000, Size: 0x00001bd8, Max: 0x00040000, ABSOLUTE)

    Execution Region ER_RESET (Base: 0x00000000, Size: 0x000000b0, Max: 0xffffffff, ABSOLUTE)

    Base Addr    Size         Type   Attr      Idx    E Section Name        Object

    0x00000000   0x000000b0   Data   RO           57    RESET               startup_m1130.o


    Execution Region ER_INT (Base: 0x000000b0, Size: 0x00000038, Max: 0xffffffff, ABSOLUTE)

    Base Addr    Size         Type   Attr      Idx    E Section Name        Object

    0x000000b0   0x0000001c   Code   RO           58    .text               startup_m1130.o
    0x000000cc   0x00000002   Code   RO         2042    i.HardFault_Handler  m1130_it.o
    0x000000ce   0x00000002   Code   RO         2044    i.PendSV_Handler    m1130_it.o
    0x000000d0   0x00000002   Code   RO         2045    i.SVC_Handler       m1130_it.o
    0x000000d2   0x00000002   Code   RO         2046    i.SysTick_Handler   m1130_it.o
    0x000000d4   0x00000012   Code   RO         2048    i.commonDelay       m1130_it.o


    Execution Region ER_LIB (Base: 0x000000e8, Size: 0x00000078, Max: 0xffffffff, ABSOLUTE)

    Base Addr    Size         Type   Attr      Idx    E Section Name        Object

    0x000000e8   0x00000000   Code   RO         2765  * .ARM.Collect$$$$00000000  mc_p.l(entry.o)
    0x000000e8   0x00000004   Code   RO         3043    .ARM.Collect$$$$00000001  mc_p.l(entry2.o)
    0x000000ec   0x00000004   Code   RO         3046    .ARM.Collect$$$$00000004  mc_p.l(entry5.o)
    0x000000f0   0x00000000   Code   RO         3048    .ARM.Collect$$$$00000008  mc_p.l(entry7b.o)
    0x000000f0   0x00000000   Code   RO         3050    .ARM.Collect$$$$0000000A  mc_p.l(entry8b.o)
    0x000000f0   0x00000008   Code   RO         3051    .ARM.Collect$$$$0000000B  mc_p.l(entry9a.o)
    0x000000f8   0x00000000   Code   RO         3053    .ARM.Collect$$$$0000000D  mc_p.l(entry10a.o)
    0x000000f8   0x00000000   Code   RO         3055    .ARM.Collect$$$$0000000F  mc_p.l(entry11a.o)
    0x000000f8   0x00000004   Code   RO         3044    .ARM.Collect$$$$00002712  mc_p.l(entry2.o)
    0x000000fc   0x00000024   Code   RO         3071    .text               mc_p.l(init.o)
    0x00000120   0x0000000e   Code   RO         3085    i.__scatterload_copy  mc_p.l(handlers.o)
    0x0000012e   0x00000002   Code   RO         3086    i.__scatterload_null  mc_p.l(handlers.o)
    0x00000130   0x0000000e   Code   RO         3087    i.__scatterload_zeroinit  mc_p.l(handlers.o)
    0x0000013e   0x00000002   PAD
    0x00000140   0x00000020   Data   RO         3083    Region$$Table       anon$$obj.o


    Execution Region ER_ANY (Base: 0x00000160, Size: 0x00001a0c, Max: 0xffffffff, ABSOLUTE)

    Base Addr    Size         Type   Attr      Idx    E Section Name        Object

    0x00000160   0x0000002c   Code   RO         2768    .text               mc_p.l(uidiv.o)
    0x0000018c   0x00000074   Code   RO          159    i.DMA_IRQHandler    m1130_dma.o
    0x00000200   0x00000068   Code   RO          161    i.DmaChannelClearInterruptStatus  m1130_dma.o
    0x00000268   0x00000078   Code   RO          163    i.DmaChannelInterruptStatusBit  m1130_dma.o
    0x000002e0   0x00000068   Code   RO         2111    i.GPIO0_IRQHandler  main.o
    0x00000348   0x00000074   Code   RO          262    i.GPIO_ClearPin     m1130_gpio.o
    0x000003bc   0x00000064   Code   RO          265    i.GPIO_ConfigPull   m1130_gpio.o
    0x00000420   0x000000a8   Code   RO          268    i.GPIO_EdgeITEnable  m1130_gpio.o
    0x000004c8   0x00000018   Code   RO         2112    i.GPIO_IRQInit      main.o
    0x000004e0   0x00000130   Code   RO          276    i.GPIO_ReadPin      m1130_gpio.o
    0x00000610   0x00000074   Code   RO          279    i.GPIO_SetPin       m1130_gpio.o
    0x00000684   0x000000b8   Code   RO          280    i.GPIO_SetPinDir    m1130_gpio.o
    0x0000073c   0x000000f4   Code   RO          281    i.GPIO_SetPinMux    m1130_gpio.o
    0x00000830   0x000000c8   Code   RO         2379    i.I2C0_IRQHandler   m1130_eval_i2c.o
    0x000008f8   0x00000068   Code   RO          866    i.I2C_ClearITPendingBit  m1130_i2c.o
    0x00000960   0x000000f8   Code   RO          868    i.I2C_Clear_TX_ABRT_SOURCE  m1130_i2c.o
    0x00000a58   0x00000008   Code   RO          871    i.I2C_GetFlagStatus  m1130_i2c.o
    0x00000a60   0x0000005c   Code   RO          872    i.I2C_GetITFlag     m1130_i2c.o
    0x00000abc   0x000000a0   Code   RO          874    i.I2C_ITConfig      m1130_i2c.o
    0x00000b5c   0x0000007c   Code   RO          876    i.I2C_ReadRegister  m1130_i2c.o
    0x00000bd8   0x000000a0   Code   RO          832    i.NVIC_Init         misc.o
    0x00000c78   0x000001a0   Code   RO          431    i.RCC_GetClocksFreq  m1130_rcc.o
    0x00000e18   0x0000001e   Code   RO          442    i.RCC_ResetAHBCLK   m1130_rcc.o
    0x00000e36   0x00000002   PAD
    0x00000e38   0x00000088   Code   RO          443    i.RCC_SETCLKDivider  m1130_rcc.o
    0x00000ec0   0x00000010   Code   RO          445    i.RCC_SetAHBCLK     m1130_rcc.o
    0x00000ed0   0x00000010   Code   RO          446    i.RCC_SetPRESETCTRL  m1130_rcc.o
    0x00000ee0   0x0000006c   Code   RO          448    i.RCC_UARTCLKSel    m1130_rcc.o
    0x00000f4c   0x0000005c   Code   RO            3    i.SystemInit        system_m1130.o
    0x00000fa8   0x00000014   Code   RO         2238    i.UART0_IRQHandler  m1130_utility_usart.o
    0x00000fbc   0x00000014   Code   RO         2239    i.UART1_IRQHandler  m1130_utility_usart.o
    0x00000fd0   0x00000014   Code   RO         2240    i.UART2_IRQHandler  m1130_utility_usart.o
    0x00000fe4   0x00000088   Code   RO          610    i.UART_Cmd          m1130_usart.o
    0x0000106c   0x00000160   Code   RO         2241    i.UART_Configuration  m1130_utility_usart.o
    0x000011cc   0x000000e4   Code   RO          612    i.UART_GetFlagStatus  m1130_usart.o
    0x000012b0   0x000000bc   Code   RO          613    i.UART_GetITStatus  m1130_usart.o
    0x0000136c   0x00000064   Code   RO         2245    i.UART_IRQHandler   m1130_utility_usart.o
    0x000013d0   0x000000a4   Code   RO          614    i.UART_ITConfig     m1130_usart.o
    0x00001474   0x00000220   Code   RO          615    i.UART_Init         m1130_usart.o
    0x00001694   0x000000ac   Code   RO          624    i.UART_Reset        m1130_usart.o
    0x00001740   0x00000070   Code   RO          625    i.UART_SendData     m1130_usart.o
    0x000017b0   0x00000022   Code   RO          627    i.UART_StructInit   m1130_usart.o
    0x000017d2   0x00000002   PAD
    0x000017d4   0x00000020   Code   RO         2871    i.__0printf$3       mc_p.l(printf3.o)
    0x000017f4   0x0000001a   Code   RO         2334    i.__ARM_common_switch8  m1130_utility_usart.o
    0x0000180e   0x00000002   PAD
    0x00001810   0x000001cc   Code   RO         2878    i._printf_core      mc_p.l(printf3.o)
    0x000019dc   0x0000003c   Code   RO         2247    i.assert_failed     m1130_utility_usart.o
    0x00001a18   0x00000028   Code   RO         2248    i.fputc             m1130_utility_usart.o
    0x00001a40   0x00000010   Code   RO         2389    i.i2c_abort_check   m1130_eval_i2c.o
    0x00001a50   0x00000050   Code   RO         2395    i.i2c_isr_read      m1130_eval_i2c.o
    0x00001aa0   0x000000cc   Code   RO         2113    i.main              main.o


    Execution Region RW_IRAM1 (Base: 0x20000000, Size: 0x000008a0, Max: 0x00008000, ABSOLUTE)

    Base Addr    Size         Type   Attr      Idx    E Section Name        Object

    0x20000000   0x00000008   Data   RW         2114    .data               main.o
    0x20000008   0x0000005d   Data   RW         2402    .data               m1130_eval_i2c.o
    0x20000065   0x00000003   PAD
    0x20000068   0x00000004   Data   RW         3057    .data               mc_p.l(stdout.o)
    0x2000006c   0x00000010   Zero   RW          172    .bss                m1130_dma.o
    0x2000007c   0x00000424   Zero   RW         2251    .bss                m1130_utility_usart.o
    0x200004a0   0x00000400   Zero   RW           55    STACK               startup_m1130.o


==============================================================================

Image component sizes


      Code (inc. data)   RO Data    RW Data    ZI Data      Debug   Object Name

       340        136          0          0         16       5799   m1130_dma.o
       296         24          0         93          0       3661   m1130_eval_i2c.o
      1232        448          0          0          0      10585   m1130_gpio.o
       736        344          0          0          0      10997   m1130_i2c.o
        26          0          0          0          0       2283   m1130_it.o
       722        144          0          0          0       4931   m1130_rcc.o
      1578        532          0          0          0      17150   m1130_usart.o
       638        106          0          0       1060       5873   m1130_utility_usart.o
       332        136          0          8          0       2528   main.o
       160         66          0          0          0       1164   misc.o
        28          8        176          0       1024        748   startup_m1130.o
        92         16          0          0          0      67525   system_m1130.o

    ----------------------------------------------------------------------
      6188       1960        208        104       2100     133244   Object Totals
         0          0         32          0          0          0   (incl. Generated)
         8          0          0          3          0          0   (incl. Padding)

    ----------------------------------------------------------------------

      Code (inc. data)   RO Data    RW Data    ZI Data      Debug   Library Member Name

         0          0          0          0          0          0   entry.o
         0          0          0          0          0          0   entry10a.o
         0          0          0          0          0          0   entry11a.o
         8          4          0          0          0          0   entry2.o
         4          0          0          0          0          0   entry5.o
         0          0          0          0          0          0   entry7b.o
         0          0          0          0          0          0   entry8b.o
         8          4          0          0          0          0   entry9a.o
        30          0          0          0          0          0   handlers.o
        36          8          0          0          0         68   init.o
       492         12          0          0          0        168   printf3.o
         0          0          0          4          0          0   stdout.o
        44          0          0          0          0         72   uidiv.o

    ----------------------------------------------------------------------
       624         28          0          4          0        308   Library Totals
         2          0          0          0          0          0   (incl. Padding)

    ----------------------------------------------------------------------

      Code (inc. data)   RO Data    RW Data    ZI Data      Debug   Library Name

       622         28          0          4          0        308   mc_p.l

    ----------------------------------------------------------------------
       624         28          0          4          0        308   Library Totals

    ----------------------------------------------------------------------

==============================================================================


      Code (inc. data)   RO Data    RW Data    ZI Data      Debug   

      6812       1988        208        108       2100     131592   Grand Totals
      6812       1988        208        108       2100     131592   ELF Image Totals
      6812       1988        208        108          0          0   ROM Totals

==============================================================================

    Total RO  Size (Code + RO Data)                 7020 (   6.86kB)
    Total RW  Size (RW Data + ZI Data)              2208 (   2.16kB)
    Total ROM Size (Code + RO Data + RW Data)       7128 (   6.96kB)

==============================================================================

